{
  "abi": [
    {
      "inputs": [
        {
          "internalType": "string",
          "name": "name",
          "type": "string"
        },
        {
          "internalType": "string",
          "name": "symbol",
          "type": "string"
        },
        {
          "internalType": "uint256",
          "name": "granularity",
          "type": "uint256"
        },
        {
          "internalType": "address[]",
          "name": "controllers",
          "type": "address[]"
        },
        {
          "internalType": "bytes32[]",
          "name": "defaultPartitions",
          "type": "bytes32[]"
        },
        {
          "internalType": "address",
          "name": "_whitelist",
          "type": "address"
        }
      ],
      "payable": false,
      "stateMutability": "nonpayable",
      "type": "constructor"
    },
    {
      "anonymous": false,
      "inputs": [
        {
          "indexed": true,
          "internalType": "address",
          "name": "owner",
          "type": "address"
        },
        {
          "indexed": true,
          "internalType": "address",
          "name": "spender",
          "type": "address"
        },
        {
          "indexed": false,
          "internalType": "uint256",
          "name": "value",
          "type": "uint256"
        }
      ],
      "name": "Approval",
      "type": "event"
    },
    {
      "anonymous": false,
      "inputs": [
        {
          "indexed": true,
          "internalType": "bytes32",
          "name": "partition",
          "type": "bytes32"
        },
        {
          "indexed": true,
          "internalType": "address",
          "name": "owner",
          "type": "address"
        },
        {
          "indexed": true,
          "internalType": "address",
          "name": "spender",
          "type": "address"
        },
        {
          "indexed": false,
          "internalType": "uint256",
          "name": "value",
          "type": "uint256"
        }
      ],
      "name": "ApprovalByPartition",
      "type": "event"
    },
    {
      "anonymous": false,
      "inputs": [
        {
          "indexed": true,
          "internalType": "address",
          "name": "operator",
          "type": "address"
        },
        {
          "indexed": true,
          "internalType": "address",
          "name": "tokenHolder",
          "type": "address"
        }
      ],
      "name": "AuthorizedOperator",
      "type": "event"
    },
    {
      "anonymous": false,
      "inputs": [
        {
          "indexed": true,
          "internalType": "bytes32",
          "name": "partition",
          "type": "bytes32"
        },
        {
          "indexed": true,
          "internalType": "address",
          "name": "operator",
          "type": "address"
        },
        {
          "indexed": true,
          "internalType": "address",
          "name": "tokenHolder",
          "type": "address"
        }
      ],
      "name": "AuthorizedOperatorByPartition",
      "type": "event"
    },
    {
      "anonymous": false,
      "inputs": [
        {
          "indexed": true,
          "internalType": "bytes32",
          "name": "fromPartition",
          "type": "bytes32"
        },
        {
          "indexed": true,
          "internalType": "bytes32",
          "name": "toPartition",
          "type": "bytes32"
        },
        {
          "indexed": false,
          "internalType": "uint256",
          "name": "value",
          "type": "uint256"
        }
      ],
      "name": "ChangedPartition",
      "type": "event"
    },
    {
      "anonymous": false,
      "inputs": [
        {
          "indexed": true,
          "internalType": "bytes32",
          "name": "name",
          "type": "bytes32"
        },
        {
          "indexed": false,
          "internalType": "string",
          "name": "uri",
          "type": "string"
        },
        {
          "indexed": false,
          "internalType": "bytes32",
          "name": "documentHash",
          "type": "bytes32"
        }
      ],
      "name": "Document",
      "type": "event"
    },
    {
      "anonymous": false,
      "inputs": [
        {
          "indexed": true,
          "internalType": "address",
          "name": "operator",
          "type": "address"
        },
        {
          "indexed": true,
          "internalType": "address",
          "name": "to",
          "type": "address"
        },
        {
          "indexed": false,
          "internalType": "uint256",
          "name": "value",
          "type": "uint256"
        },
        {
          "indexed": false,
          "internalType": "bytes",
          "name": "data",
          "type": "bytes"
        }
      ],
      "name": "Issued",
      "type": "event"
    },
    {
      "anonymous": false,
      "inputs": [
        {
          "indexed": true,
          "internalType": "bytes32",
          "name": "partition",
          "type": "bytes32"
        },
        {
          "indexed": true,
          "internalType": "address",
          "name": "operator",
          "type": "address"
        },
        {
          "indexed": true,
          "internalType": "address",
          "name": "to",
          "type": "address"
        },
        {
          "indexed": false,
          "internalType": "uint256",
          "name": "value",
          "type": "uint256"
        },
        {
          "indexed": false,
          "internalType": "bytes",
          "name": "data",
          "type": "bytes"
        },
        {
          "indexed": false,
          "internalType": "bytes",
          "name": "operatorData",
          "type": "bytes"
        }
      ],
      "name": "IssuedByPartition",
      "type": "event"
    },
    {
      "anonymous": false,
      "inputs": [
        {
          "indexed": true,
          "internalType": "address",
          "name": "account",
          "type": "address"
        }
      ],
      "name": "MinterAdded",
      "type": "event"
    },
    {
      "anonymous": false,
      "inputs": [
        {
          "indexed": true,
          "internalType": "address",
          "name": "account",
          "type": "address"
        }
      ],
      "name": "MinterRemoved",
      "type": "event"
    },
    {
      "anonymous": false,
      "inputs": [
        {
          "indexed": true,
          "internalType": "address",
          "name": "previousOwner",
          "type": "address"
        },
        {
          "indexed": true,
          "internalType": "address",
          "name": "newOwner",
          "type": "address"
        }
      ],
      "name": "OwnershipTransferred",
      "type": "event"
    },
    {
      "anonymous": false,
      "inputs": [
        {
          "indexed": true,
          "internalType": "address",
          "name": "operator",
          "type": "address"
        },
        {
          "indexed": true,
          "internalType": "address",
          "name": "from",
          "type": "address"
        },
        {
          "indexed": false,
          "internalType": "uint256",
          "name": "value",
          "type": "uint256"
        },
        {
          "indexed": false,
          "internalType": "bytes",
          "name": "data",
          "type": "bytes"
        }
      ],
      "name": "Redeemed",
      "type": "event"
    },
    {
      "anonymous": false,
      "inputs": [
        {
          "indexed": true,
          "internalType": "bytes32",
          "name": "partition",
          "type": "bytes32"
        },
        {
          "indexed": true,
          "internalType": "address",
          "name": "operator",
          "type": "address"
        },
        {
          "indexed": true,
          "internalType": "address",
          "name": "from",
          "type": "address"
        },
        {
          "indexed": false,
          "internalType": "uint256",
          "name": "value",
          "type": "uint256"
        },
        {
          "indexed": false,
          "internalType": "bytes",
          "name": "operatorData",
          "type": "bytes"
        }
      ],
      "name": "RedeemedByPartition",
      "type": "event"
    },
    {
      "anonymous": false,
      "inputs": [
        {
          "indexed": true,
          "internalType": "address",
          "name": "operator",
          "type": "address"
        },
        {
          "indexed": true,
          "internalType": "address",
          "name": "tokenHolder",
          "type": "address"
        }
      ],
      "name": "RevokedOperator",
      "type": "event"
    },
    {
      "anonymous": false,
      "inputs": [
        {
          "indexed": true,
          "internalType": "bytes32",
          "name": "partition",
          "type": "bytes32"
        },
        {
          "indexed": true,
          "internalType": "address",
          "name": "operator",
          "type": "address"
        },
        {
          "indexed": true,
          "internalType": "address",
          "name": "tokenHolder",
          "type": "address"
        }
      ],
      "name": "RevokedOperatorByPartition",
      "type": "event"
    },
    {
      "anonymous": false,
      "inputs": [
        {
          "indexed": true,
          "internalType": "address",
          "name": "from",
          "type": "address"
        },
        {
          "indexed": true,
          "internalType": "address",
          "name": "to",
          "type": "address"
        },
        {
          "indexed": false,
          "internalType": "uint256",
          "name": "value",
          "type": "uint256"
        }
      ],
      "name": "Transfer",
      "type": "event"
    },
    {
      "anonymous": false,
      "inputs": [
        {
          "indexed": true,
          "internalType": "bytes32",
          "name": "fromPartition",
          "type": "bytes32"
        },
        {
          "indexed": false,
          "internalType": "address",
          "name": "operator",
          "type": "address"
        },
        {
          "indexed": true,
          "internalType": "address",
          "name": "from",
          "type": "address"
        },
        {
          "indexed": true,
          "internalType": "address",
          "name": "to",
          "type": "address"
        },
        {
          "indexed": false,
          "internalType": "uint256",
          "name": "value",
          "type": "uint256"
        },
        {
          "indexed": false,
          "internalType": "bytes",
          "name": "data",
          "type": "bytes"
        },
        {
          "indexed": false,
          "internalType": "bytes",
          "name": "operatorData",
          "type": "bytes"
        }
      ],
      "name": "TransferByPartition",
      "type": "event"
    },
    {
      "constant": false,
      "inputs": [
        {
          "internalType": "address",
          "name": "account",
          "type": "address"
        }
      ],
      "name": "addMinter",
      "outputs": [],
      "payable": false,
      "stateMutability": "nonpayable",
      "type": "function"
    },
    {
      "constant": true,
      "inputs": [
        {
          "internalType": "address",
          "name": "owner",
          "type": "address"
        },
        {
          "internalType": "address",
          "name": "spender",
          "type": "address"
        }
      ],
      "name": "allowance",
      "outputs": [
        {
          "internalType": "uint256",
          "name": "",
          "type": "uint256"
        }
      ],
      "payable": false,
      "stateMutability": "view",
      "type": "function"
    },
    {
      "constant": true,
      "inputs": [
        {
          "internalType": "bytes32",
          "name": "partition",
          "type": "bytes32"
        },
        {
          "internalType": "address",
          "name": "owner",
          "type": "address"
        },
        {
          "internalType": "address",
          "name": "spender",
          "type": "address"
        }
      ],
      "name": "allowanceByPartition",
      "outputs": [
        {
          "internalType": "uint256",
          "name": "",
          "type": "uint256"
        }
      ],
      "payable": false,
      "stateMutability": "view",
      "type": "function"
    },
    {
      "constant": false,
      "inputs": [
        {
          "internalType": "address",
          "name": "spender",
          "type": "address"
        },
        {
          "internalType": "uint256",
          "name": "value",
          "type": "uint256"
        }
      ],
      "name": "approve",
      "outputs": [
        {
          "internalType": "bool",
          "name": "",
          "type": "bool"
        }
      ],
      "payable": false,
      "stateMutability": "nonpayable",
      "type": "function"
    },
    {
      "constant": false,
      "inputs": [
        {
          "internalType": "bytes32",
          "name": "partition",
          "type": "bytes32"
        },
        {
          "internalType": "address",
          "name": "spender",
          "type": "address"
        },
        {
          "internalType": "uint256",
          "name": "value",
          "type": "uint256"
        }
      ],
      "name": "approveByPartition",
      "outputs": [
        {
          "internalType": "bool",
          "name": "",
          "type": "bool"
        }
      ],
      "payable": false,
      "stateMutability": "nonpayable",
      "type": "function"
    },
    {
      "constant": false,
      "inputs": [
        {
          "internalType": "address",
          "name": "operator",
          "type": "address"
        }
      ],
      "name": "authorizeOperator",
      "outputs": [],
      "payable": false,
      "stateMutability": "nonpayable",
      "type": "function"
    },
    {
      "constant": false,
      "inputs": [
        {
          "internalType": "bytes32",
          "name": "partition",
          "type": "bytes32"
        },
        {
          "internalType": "address",
          "name": "operator",
          "type": "address"
        }
      ],
      "name": "authorizeOperatorByPartition",
      "outputs": [],
      "payable": false,
      "stateMutability": "nonpayable",
      "type": "function"
    },
    {
      "constant": true,
      "inputs": [
        {
          "internalType": "address",
          "name": "tokenHolder",
          "type": "address"
        }
      ],
      "name": "balanceOf",
      "outputs": [
        {
          "internalType": "uint256",
          "name": "",
          "type": "uint256"
        }
      ],
      "payable": false,
      "stateMutability": "view",
      "type": "function"
    },
    {
      "constant": true,
      "inputs": [
        {
          "internalType": "bytes32",
          "name": "partition",
          "type": "bytes32"
        },
        {
          "internalType": "address",
          "name": "tokenHolder",
          "type": "address"
        }
      ],
      "name": "balanceOfByPartition",
      "outputs": [
        {
          "internalType": "uint256",
          "name": "",
          "type": "uint256"
        }
      ],
      "payable": false,
      "stateMutability": "view",
      "type": "function"
    },
    {
      "constant": true,
      "inputs": [],
      "name": "controllers",
      "outputs": [
        {
          "internalType": "address[]",
          "name": "",
          "type": "address[]"
        }
      ],
      "payable": false,
      "stateMutability": "view",
      "type": "function"
    },
    {
      "constant": true,
      "inputs": [
        {
          "internalType": "bytes32",
          "name": "partition",
          "type": "bytes32"
        }
      ],
      "name": "controllersByPartition",
      "outputs": [
        {
          "internalType": "address[]",
          "name": "",
          "type": "address[]"
        }
      ],
      "payable": false,
      "stateMutability": "view",
      "type": "function"
    },
    {
      "constant": true,
      "inputs": [],
      "name": "decimals",
      "outputs": [
        {
          "internalType": "uint8",
          "name": "",
          "type": "uint8"
        }
      ],
      "payable": false,
      "stateMutability": "pure",
      "type": "function"
    },
    {
      "constant": true,
      "inputs": [],
      "name": "getDefaultPartitions",
      "outputs": [
        {
          "internalType": "bytes32[]",
          "name": "",
          "type": "bytes32[]"
        }
      ],
      "payable": false,
      "stateMutability": "view",
      "type": "function"
    },
    {
      "constant": true,
      "inputs": [
        {
          "internalType": "bytes32",
          "name": "name",
          "type": "bytes32"
        }
      ],
      "name": "getDocument",
      "outputs": [
        {
          "internalType": "string",
          "name": "",
          "type": "string"
        },
        {
          "internalType": "bytes32",
          "name": "",
          "type": "bytes32"
        }
      ],
      "payable": false,
      "stateMutability": "view",
      "type": "function"
    },
    {
      "constant": true,
      "inputs": [],
      "name": "granularity",
      "outputs": [
        {
          "internalType": "uint256",
          "name": "",
          "type": "uint256"
        }
      ],
      "payable": false,
      "stateMutability": "view",
      "type": "function"
    },
    {
      "constant": true,
      "inputs": [],
      "name": "isControllable",
      "outputs": [
        {
          "internalType": "bool",
          "name": "",
          "type": "bool"
        }
      ],
      "payable": false,
      "stateMutability": "view",
      "type": "function"
    },
    {
      "constant": true,
      "inputs": [],
      "name": "isIssuable",
      "outputs": [
        {
          "internalType": "bool",
          "name": "",
          "type": "bool"
        }
      ],
      "payable": false,
      "stateMutability": "view",
      "type": "function"
    },
    {
      "constant": true,
      "inputs": [
        {
          "internalType": "address",
          "name": "account",
          "type": "address"
        }
      ],
      "name": "isMinter",
      "outputs": [
        {
          "internalType": "bool",
          "name": "",
          "type": "bool"
        }
      ],
      "payable": false,
      "stateMutability": "view",
      "type": "function"
    },
    {
      "constant": true,
      "inputs": [
        {
          "internalType": "address",
          "name": "operator",
          "type": "address"
        },
        {
          "internalType": "address",
          "name": "tokenHolder",
          "type": "address"
        }
      ],
      "name": "isOperator",
      "outputs": [
        {
          "internalType": "bool",
          "name": "",
          "type": "bool"
        }
      ],
      "payable": false,
      "stateMutability": "view",
      "type": "function"
    },
    {
      "constant": true,
      "inputs": [
        {
          "internalType": "bytes32",
          "name": "partition",
          "type": "bytes32"
        },
        {
          "internalType": "address",
          "name": "operator",
          "type": "address"
        },
        {
          "internalType": "address",
          "name": "tokenHolder",
          "type": "address"
        }
      ],
      "name": "isOperatorForPartition",
      "outputs": [
        {
          "internalType": "bool",
          "name": "",
          "type": "bool"
        }
      ],
      "payable": false,
      "stateMutability": "view",
      "type": "function"
    },
    {
      "constant": true,
      "inputs": [],
      "name": "isOwner",
      "outputs": [
        {
          "internalType": "bool",
          "name": "",
          "type": "bool"
        }
      ],
      "payable": false,
      "stateMutability": "view",
      "type": "function"
    },
    {
      "constant": false,
      "inputs": [
        {
          "internalType": "address",
          "name": "tokenHolder",
          "type": "address"
        },
        {
          "internalType": "uint256",
          "name": "value",
          "type": "uint256"
        },
        {
          "internalType": "bytes",
          "name": "data",
          "type": "bytes"
        }
      ],
      "name": "issue",
      "outputs": [],
      "payable": false,
      "stateMutability": "nonpayable",
      "type": "function"
    },
    {
      "constant": false,
      "inputs": [
        {
          "internalType": "bytes32",
          "name": "partition",
          "type": "bytes32"
        },
        {
          "internalType": "address",
          "name": "tokenHolder",
          "type": "address"
        },
        {
          "internalType": "uint256",
          "name": "value",
          "type": "uint256"
        },
        {
          "internalType": "bytes",
          "name": "data",
          "type": "bytes"
        }
      ],
      "name": "issueByPartition",
      "outputs": [],
      "payable": false,
      "stateMutability": "nonpayable",
      "type": "function"
    },
    {
      "constant": true,
      "inputs": [],
      "name": "name",
      "outputs": [
        {
          "internalType": "string",
          "name": "",
          "type": "string"
        }
      ],
      "payable": false,
      "stateMutability": "view",
      "type": "function"
    },
    {
      "constant": false,
      "inputs": [
        {
          "internalType": "bytes32",
          "name": "partition",
          "type": "bytes32"
        },
        {
          "internalType": "address",
          "name": "tokenHolder",
          "type": "address"
        },
        {
          "internalType": "uint256",
          "name": "value",
          "type": "uint256"
        },
        {
          "internalType": "bytes",
          "name": "operatorData",
          "type": "bytes"
        }
      ],
      "name": "operatorRedeemByPartition",
      "outputs": [],
      "payable": false,
      "stateMutability": "nonpayable",
      "type": "function"
    },
    {
      "constant": false,
      "inputs": [
        {
          "internalType": "bytes32",
          "name": "partition",
          "type": "bytes32"
        },
        {
          "internalType": "address",
          "name": "from",
          "type": "address"
        },
        {
          "internalType": "address",
          "name": "to",
          "type": "address"
        },
        {
          "internalType": "uint256",
          "name": "value",
          "type": "uint256"
        },
        {
          "internalType": "bytes",
          "name": "data",
          "type": "bytes"
        },
        {
          "internalType": "bytes",
          "name": "operatorData",
          "type": "bytes"
        }
      ],
      "name": "operatorTransferByPartition",
      "outputs": [
        {
          "internalType": "bytes32",
          "name": "",
          "type": "bytes32"
        }
      ],
      "payable": false,
      "stateMutability": "nonpayable",
      "type": "function"
    },
    {
      "constant": true,
      "inputs": [],
      "name": "owner",
      "outputs": [
        {
          "internalType": "address",
          "name": "",
          "type": "address"
        }
      ],
      "payable": false,
      "stateMutability": "view",
      "type": "function"
    },
    {
      "constant": true,
      "inputs": [
        {
          "internalType": "address",
          "name": "tokenHolder",
          "type": "address"
        }
      ],
      "name": "partitionsOf",
      "outputs": [
        {
          "internalType": "bytes32[]",
          "name": "",
          "type": "bytes32[]"
        }
      ],
      "payable": false,
      "stateMutability": "view",
      "type": "function"
    },
    {
      "constant": false,
      "inputs": [
        {
          "internalType": "uint256",
          "name": "value",
          "type": "uint256"
        },
        {
          "internalType": "bytes",
          "name": "data",
          "type": "bytes"
        }
      ],
      "name": "redeem",
      "outputs": [],
      "payable": false,
      "stateMutability": "nonpayable",
      "type": "function"
    },
    {
      "constant": false,
      "inputs": [
        {
          "internalType": "bytes32",
          "name": "partition",
          "type": "bytes32"
        },
        {
          "internalType": "uint256",
          "name": "value",
          "type": "uint256"
        },
        {
          "internalType": "bytes",
          "name": "data",
          "type": "bytes"
        }
      ],
      "name": "redeemByPartition",
      "outputs": [],
      "payable": false,
      "stateMutability": "nonpayable",
      "type": "function"
    },
    {
      "constant": false,
      "inputs": [
        {
          "internalType": "address",
          "name": "from",
          "type": "address"
        },
        {
          "internalType": "uint256",
          "name": "value",
          "type": "uint256"
        },
        {
          "internalType": "bytes",
          "name": "data",
          "type": "bytes"
        }
      ],
      "name": "redeemFrom",
      "outputs": [],
      "payable": false,
      "stateMutability": "nonpayable",
      "type": "function"
    },
    {
      "constant": false,
      "inputs": [
        {
          "internalType": "address",
          "name": "account",
          "type": "address"
        }
      ],
      "name": "removeMinter",
      "outputs": [],
      "payable": false,
      "stateMutability": "nonpayable",
      "type": "function"
    },
    {
      "constant": false,
      "inputs": [],
      "name": "renounceControl",
      "outputs": [],
      "payable": false,
      "stateMutability": "nonpayable",
      "type": "function"
    },
    {
      "constant": false,
      "inputs": [],
      "name": "renounceIssuance",
      "outputs": [],
      "payable": false,
      "stateMutability": "nonpayable",
      "type": "function"
    },
    {
      "constant": false,
      "inputs": [],
      "name": "renounceMinter",
      "outputs": [],
      "payable": false,
      "stateMutability": "nonpayable",
      "type": "function"
    },
    {
      "constant": false,
      "inputs": [],
      "name": "renounceOwnership",
      "outputs": [],
      "payable": false,
      "stateMutability": "nonpayable",
      "type": "function"
    },
    {
      "constant": false,
      "inputs": [
        {
          "internalType": "address",
          "name": "operator",
          "type": "address"
        }
      ],
      "name": "revokeOperator",
      "outputs": [],
      "payable": false,
      "stateMutability": "nonpayable",
      "type": "function"
    },
    {
      "constant": false,
      "inputs": [
        {
          "internalType": "bytes32",
          "name": "partition",
          "type": "bytes32"
        },
        {
          "internalType": "address",
          "name": "operator",
          "type": "address"
        }
      ],
      "name": "revokeOperatorByPartition",
      "outputs": [],
      "payable": false,
      "stateMutability": "nonpayable",
      "type": "function"
    },
    {
      "constant": false,
      "inputs": [
        {
          "internalType": "address[]",
          "name": "operators",
          "type": "address[]"
        }
      ],
      "name": "setControllers",
      "outputs": [],
      "payable": false,
      "stateMutability": "nonpayable",
      "type": "function"
    },
    {
      "constant": false,
      "inputs": [
        {
          "internalType": "bytes32[]",
          "name": "partitions",
          "type": "bytes32[]"
        }
      ],
      "name": "setDefaultPartitions",
      "outputs": [],
      "payable": false,
      "stateMutability": "nonpayable",
      "type": "function"
    },
    {
      "constant": false,
      "inputs": [
        {
          "internalType": "bytes32",
          "name": "name",
          "type": "bytes32"
        },
        {
          "internalType": "string",
          "name": "uri",
          "type": "string"
        },
        {
          "internalType": "bytes32",
          "name": "documentHash",
          "type": "bytes32"
        }
      ],
      "name": "setDocument",
      "outputs": [],
      "payable": false,
      "stateMutability": "nonpayable",
      "type": "function"
    },
    {
      "constant": false,
      "inputs": [
        {
          "internalType": "bytes32",
          "name": "partition",
          "type": "bytes32"
        },
        {
          "internalType": "address[]",
          "name": "operators",
          "type": "address[]"
        }
      ],
      "name": "setPartitionControllers",
      "outputs": [],
      "payable": false,
      "stateMutability": "nonpayable",
      "type": "function"
    },
    {
      "constant": true,
      "inputs": [],
      "name": "symbol",
      "outputs": [
        {
          "internalType": "string",
          "name": "",
          "type": "string"
        }
      ],
      "payable": false,
      "stateMutability": "view",
      "type": "function"
    },
    {
      "constant": true,
      "inputs": [],
      "name": "totalPartitions",
      "outputs": [
        {
          "internalType": "bytes32[]",
          "name": "",
          "type": "bytes32[]"
        }
      ],
      "payable": false,
      "stateMutability": "view",
      "type": "function"
    },
    {
      "constant": true,
      "inputs": [],
      "name": "totalSupply",
      "outputs": [
        {
          "internalType": "uint256",
          "name": "",
          "type": "uint256"
        }
      ],
      "payable": false,
      "stateMutability": "view",
      "type": "function"
    },
    {
      "constant": true,
      "inputs": [
        {
          "internalType": "bytes32",
          "name": "partition",
          "type": "bytes32"
        }
      ],
      "name": "totalSupplyByPartition",
      "outputs": [
        {
          "internalType": "uint256",
          "name": "",
          "type": "uint256"
        }
      ],
      "payable": false,
      "stateMutability": "view",
      "type": "function"
    },
    {
      "constant": false,
      "inputs": [
        {
          "internalType": "address",
          "name": "to",
          "type": "address"
        },
        {
          "internalType": "uint256",
          "name": "value",
          "type": "uint256"
        }
      ],
      "name": "transfer",
      "outputs": [
        {
          "internalType": "bool",
          "name": "",
          "type": "bool"
        }
      ],
      "payable": false,
      "stateMutability": "nonpayable",
      "type": "function"
    },
    {
      "constant": false,
      "inputs": [
        {
          "internalType": "bytes32",
          "name": "partition",
          "type": "bytes32"
        },
        {
          "internalType": "address",
          "name": "to",
          "type": "address"
        },
        {
          "internalType": "uint256",
          "name": "value",
          "type": "uint256"
        },
        {
          "internalType": "bytes",
          "name": "data",
          "type": "bytes"
        }
      ],
      "name": "transferByPartition",
      "outputs": [
        {
          "internalType": "bytes32",
          "name": "",
          "type": "bytes32"
        }
      ],
      "payable": false,
      "stateMutability": "nonpayable",
      "type": "function"
    },
    {
      "constant": false,
      "inputs": [
        {
          "internalType": "address",
          "name": "from",
          "type": "address"
        },
        {
          "internalType": "address",
          "name": "to",
          "type": "address"
        },
        {
          "internalType": "uint256",
          "name": "value",
          "type": "uint256"
        }
      ],
      "name": "transferFrom",
      "outputs": [
        {
          "internalType": "bool",
          "name": "",
          "type": "bool"
        }
      ],
      "payable": false,
      "stateMutability": "nonpayable",
      "type": "function"
    },
    {
      "constant": false,
      "inputs": [
        {
          "internalType": "address",
          "name": "from",
          "type": "address"
        },
        {
          "internalType": "address",
          "name": "to",
          "type": "address"
        },
        {
          "internalType": "uint256",
          "name": "value",
          "type": "uint256"
        },
        {
          "internalType": "bytes",
          "name": "data",
          "type": "bytes"
        }
      ],
      "name": "transferFromWithData",
      "outputs": [],
      "payable": false,
      "stateMutability": "nonpayable",
      "type": "function"
    },
    {
      "constant": false,
      "inputs": [
        {
          "internalType": "address",
          "name": "newOwner",
          "type": "address"
        }
      ],
      "name": "transferOwnership",
      "outputs": [],
      "payable": false,
      "stateMutability": "nonpayable",
      "type": "function"
    },
    {
      "constant": false,
      "inputs": [
        {
          "internalType": "address",
          "name": "to",
          "type": "address"
        },
        {
          "internalType": "uint256",
          "name": "value",
          "type": "uint256"
        },
        {
          "internalType": "bytes",
          "name": "data",
          "type": "bytes"
        }
      ],
      "name": "transferWithData",
      "outputs": [],
      "payable": false,
      "stateMutability": "nonpayable",
      "type": "function"
    },
    {
      "constant": true,
      "inputs": [],
      "name": "whitelist",
      "outputs": [
        {
          "internalType": "address",
          "name": "",
          "type": "address"
        }
      ],
      "payable": false,
      "stateMutability": "view",
      "type": "function"
    }
  ],
  "bytecode": "60806040523480156200001157600080fd5b50604051620049c8380380620049c8833981810160405260c08110156200003757600080fd5b81019080805160405193929190846401000000008211156200005857600080fd5b9083019060208201858111156200006e57600080fd5b82516401000000008111828201881017156200008957600080fd5b82525081516020918201929091019080838360005b83811015620000b85781810151838201526020016200009e565b50505050905090810190601f168015620000e65780820380516001836020036101000a031916815260200191505b50604052602001805160405193929190846401000000008211156200010a57600080fd5b9083019060208201858111156200012057600080fd5b82516401000000008111828201881017156200013b57600080fd5b82525081516020918201929091019080838360005b838110156200016a57818101518382015260200162000150565b50505050905090810190601f168015620001985780820380516001836020036101000a031916815260200191505b50604081815260208301519201805192949193919284640100000000821115620001c157600080fd5b908301906020820185811115620001d757600080fd5b8251866020820283011164010000000082111715620001f557600080fd5b82525081516020918201928201910280838360005b83811015620002245781810151838201526020016200020a565b50505050905001604052602001805160405193929190846401000000008211156200024e57600080fd5b9083019060208201858111156200026457600080fd5b82518660208202830111640100000000821117156200028257600080fd5b82525081516020918201928201910280838360005b83811015620002b157818101518382015260200162000297565b505050509190910160405250602001519150620002d99050336001600160e01b03620003fd16565b6000620002ee6001600160e01b036200044f16565b600180546001600160a01b0319166001600160a01b038316908117909155604051919250906000907f8be0079c531659141344cd1fd0a4f28419497f9722a3daafe3b4186f6b6457e0908290a3508551620003519060029060208901906200061f565b508451620003679060039060208801906200061f565b50600060055560018410156200037c57600080fd5b600484905562000395836001600160e01b036200045416565b8151620003aa906010906020850190620006a4565b50600680546001600160a01b0390921661010002610100600160a81b031960ff60b01b1960ff60a81b19909416600160a81b1793909316600160b01b1792909216919091179055506200078b9350505050565b620004188160006200052960201b62003daa1790919060201c565b6040516001600160a01b038216907f6ae172837ea30b801fbfcdd4108aa1d5bf8ff775444fd70256b44e6bf3dfc3f690600090a250565b335b90565b60005b601254811015620004b357600060136000601284815481106200047657fe5b6000918252602080832091909101546001600160a01b031683528201929092526040019020805460ff191691151591909117905560010162000457565b5060005b81518110156200050f57600160136000848481518110620004d457fe5b6020908102919091018101516001600160a01b03168252810191909152604001600020805460ff1916911515919091179055600101620004b7565b50805162000525906012906020840190620006e1565b5050565b6200053e82826001600160e01b03620005b616565b1562000591576040805162461bcd60e51b815260206004820152601f60248201527f526f6c65733a206163636f756e7420616c72656164792068617320726f6c6500604482015290519081900360640190fd5b6001600160a01b0316600090815260209190915260409020805460ff19166001179055565b60006001600160a01b038216620005ff5760405162461bcd60e51b8152600401808060200182810382526022815260200180620049a66022913960400191505060405180910390fd5b506001600160a01b03166000908152602091909152604090205460ff1690565b828054600181600116156101000203166002900490600052602060002090601f016020900481019282601f106200066257805160ff191683800117855562000692565b8280016001018555821562000692579182015b828111156200069257825182559160200191906001019062000675565b50620006a092915062000747565b5090565b8280548282559060005260206000209081019282156200069257916020028201828111156200069257825182559160200191906001019062000675565b82805482825590600052602060002090810192821562000739579160200282015b828111156200073957825182546001600160a01b0319166001600160a01b0390911617825560209092019160019091019062000702565b50620006a092915062000764565b6200045191905b80821115620006a057600081556001016200074e565b6200045191905b80821115620006a05780546001600160a01b03191681556001016200076b565b61420b806200079b6000396000f3fe608060405234801561001057600080fd5b50600436106103275760003560e01c8063861ed3ea116101b8578063aa271e1a11610104578063e77c646d116100a2578063ee532f311161007c578063ee532f3114610eca578063f2fde38b14610f58578063f3d490db14610f7e578063fad8b32a1461100857610327565b8063e77c646d14610d79578063ea74838a14610dee578063ec9a6e8714610e5c57610327565b8063bb3acde9116100de578063bb3acde914610cb8578063bcfdc0cf14610d3b578063ca281fd914610d43578063dd62ed3e14610d4b57610327565b8063aa271e1a14610bc8578063b10d6b4114610bee578063b6363cf214610c8a57610327565b806395d89b4111610171578063986502751161014b5780639865027514610aed57806398ddcec714610af5578063a26734dc14610b7f578063a9059cbb14610b9c57610327565b806395d89b4114610a3c5780639675193c14610a44578063983b2d5614610ac757610327565b8063861ed3ea146108e25780638c0dee9c146108ff5780638da5cb5b146109e25780638f32d59b14610a0657806393e59dc114610a0e578063959b8c3f14610a1657610327565b806330e828031161027757806369598efe1161023057806370a082311161020a57806370a0823114610886578063715018a6146108ac578063740ab8f4146108b45780637cc0c3a7146108da57610327565b806369598efe146107f25780636c30d1701461084a5780636d77cad61461085257610327565b806330e8280314610694578063313ce567146106c05780634c783bf5146106de578063556f0dc7146106e657806362eb0068146106ee57806367c849191461076857610327565b806316e1aed4116102e457806323b872dd116102be57806323b872dd146105ad5780632535f762146105e35780632f1cae85146106665780633092afd51461066e57610327565b806316e1aed4146104ea57806317ec83ca1461055f57806318160ddd146105a557610327565b8063010648ca1461032c57806306fdde03146103a3578063095ea7b314610420578063103ef9e11461046057806314d1e62f1461048c578063168ecec5146104be575b600080fd5b6103a16004803603606081101561034257600080fd5b81359190810190604081016020820135600160201b81111561036357600080fd5b82018360208201111561037557600080fd5b803590602001918460018302840111600160201b8311171561039657600080fd5b91935091503561102e565b005b6103ab61112c565b6040805160208082528351818301528351919283929083019185019080838360005b838110156103e55781810151838201526020016103cd565b50505050905090810190601f1680156104125780820380516001836020036101000a031916815260200191505b509250505060405180910390f35b61044c6004803603604081101561043657600080fd5b506001600160a01b0381351690602001356111c0565b604080519115158252519081900360200190f35b6103a16004803603604081101561047657600080fd5b50803590602001356001600160a01b031661128c565b61044c600480360360608110156104a257600080fd5b508035906001600160a01b0360208201351690604001356112f0565b6103a1600480360360408110156104d457600080fd5b50803590602001356001600160a01b03166113c6565b6103a16004803603604081101561050057600080fd5b81359190810190604081016020820135600160201b81111561052157600080fd5b82018360208201111561053357600080fd5b803590602001918460208302840111600160201b8311171561055457600080fd5b509092509050611427565b6105936004803603606081101561057557600080fd5b508035906001600160a01b03602082013581169160400135166114b0565b60408051918252519081900360200190f35b6105936114e0565b61044c600480360360608110156105c357600080fd5b506001600160a01b038135811691602081013590911690604001356114e6565b6103a1600480360360608110156105f957600080fd5b6001600160a01b0382351691602081013591810190606081016040820135600160201b81111561062857600080fd5b82018360208201111561063a57600080fd5b803590602001918460018302840111600160201b8311171561065b57600080fd5b509092509050611628565b61044c611671565b6103a16004803603602081101561068457600080fd5b50356001600160a01b0316611681565b610593600480360360408110156106aa57600080fd5b50803590602001356001600160a01b03166116ad565b6106c86116d2565b6040805160ff9092168252519081900360200190f35b61044c6116d7565b6105936116e7565b6103a16004803603606081101561070457600080fd5b813591602081013591810190606081016040820135600160201b81111561072a57600080fd5b82018360208201111561073c57600080fd5b803590602001918460018302840111600160201b8311171561075d57600080fd5b5090925090506116ed565b6103a16004803603608081101561077e57600080fd5b8135916001600160a01b036020820135169160408201359190810190608081016060820135600160201b8111156107b457600080fd5b8201836020820111156107c657600080fd5b803590602001918460018302840111600160201b831117156107e757600080fd5b50909250905061173e565b6107fa6117eb565b60408051602080825283518183015283519192839290830191858101910280838360005b8381101561083657818101518382015260200161081e565b505050509050019250505060405180910390f35b6103a1611842565b61044c6004803603606081101561086857600080fd5b508035906001600160a01b0360208201358116916040013516611898565b6105936004803603602081101561089c57600080fd5b50356001600160a01b03166118ad565b6103a16118c8565b6107fa600480360360208110156108ca57600080fd5b50356001600160a01b0316611959565b6107fa6119c5565b6107fa600480360360208110156108f857600080fd5b5035611a26565b610593600480360360c081101561091557600080fd5b8135916001600160a01b03602082013581169260408301359091169160608101359181019060a081016080820135600160201b81111561095457600080fd5b82018360208201111561096657600080fd5b803590602001918460018302840111600160201b8311171561098757600080fd5b919390929091602081019035600160201b8111156109a457600080fd5b8201836020820111156109b657600080fd5b803590602001918460018302840111600160201b831117156109d757600080fd5b509092509050611a91565b6109ea611c56565b604080516001600160a01b039092168252519081900360200190f35b61044c611c65565b6109ea611c8b565b6103a160048036036020811015610a2c57600080fd5b50356001600160a01b0316611c9f565b6103ab611d0e565b6103a160048036036060811015610a5a57600080fd5b6001600160a01b0382351691602081013591810190606081016040820135600160201b811115610a8957600080fd5b820183602082011115610a9b57600080fd5b803590602001918460018302840111600160201b83111715610abc57600080fd5b509092509050611d6f565b6103a160048036036020811015610add57600080fd5b50356001600160a01b0316611df1565b6103a1611e1a565b6103a160048036036080811015610b0b57600080fd5b8135916001600160a01b036020820135169160408201359190810190608081016060820135600160201b811115610b4157600080fd5b820183602082011115610b5357600080fd5b803590602001918460018302840111600160201b83111715610b7457600080fd5b509092509050611e25565b61059360048036036020811015610b9557600080fd5b5035611eb9565b61044c60048036036040811015610bb257600080fd5b506001600160a01b038135169060200135611ecb565b61044c60048036036020811015610bde57600080fd5b50356001600160a01b0316611ef2565b610c0b60048036036020811015610c0457600080fd5b5035611f04565b6040518080602001838152602001828103825284818151815260200191508051906020019080838360005b83811015610c4e578181015183820152602001610c36565b50505050905090810190601f168015610c7b5780820380516001836020036101000a031916815260200191505b50935050505060405180910390f35b61044c60048036036040811015610ca057600080fd5b506001600160a01b0381358116916020013516611fe0565b6103a160048036036060811015610cce57600080fd5b6001600160a01b0382351691602081013591810190606081016040820135600160201b811115610cfd57600080fd5b820183602082011115610d0f57600080fd5b803590602001918460018302840111600160201b83111715610d3057600080fd5b509092509050611ff3565b6107fa6120ea565b6103a1612140565b61059360048036036040811015610d6157600080fd5b506001600160a01b0381358116916020013516612196565b6103a160048036036040811015610d8f57600080fd5b81359190810190604081016020820135600160201b811115610db057600080fd5b820183602082011115610dc257600080fd5b803590602001918460018302840111600160201b83111715610de357600080fd5b5090925090506121c1565b6103a160048036036020811015610e0457600080fd5b810190602081018135600160201b811115610e1e57600080fd5b820183602082011115610e3057600080fd5b803590602001918460208302840111600160201b83111715610e5157600080fd5b509092509050612203565b6103a160048036036020811015610e7257600080fd5b810190602081018135600160201b811115610e8c57600080fd5b820183602082011115610e9e57600080fd5b803590602001918460208302840111600160201b83111715610ebf57600080fd5b50909250905061228a565b6103a160048036036080811015610ee057600080fd5b6001600160a01b03823581169260208101359091169160408201359190810190608081016060820135600160201b811115610f1a57600080fd5b820183602082011115610f2c57600080fd5b803590602001918460018302840111600160201b83111715610f4d57600080fd5b5090925090506122dd565b6103a160048036036020811015610f6e57600080fd5b50356001600160a01b0316612360565b61059360048036036080811015610f9457600080fd5b8135916001600160a01b036020820135169160408201359190810190608081016060820135600160201b811115610fca57600080fd5b820183602082011115610fdc57600080fd5b803590602001918460018302840111600160201b83111715610ffd57600080fd5b5090925090506123b0565b6103a16004803603602081101561101e57600080fd5b50356001600160a01b031661240e565b3360009081526013602052604090205460ff1661104a57600080fd5b6040805160606020601f860181900402820181018352918101848152909182919086908690819085018382808284376000920182905250938552505050602091820184905286815260098252604090208251805191926110af92849290910190613fb4565b5060208201518160010155905050837f89730c201d2df6a4cef4e892559e63e022078b0ee939d11b6ced61fb098b282484848460405180806020018381526020018281038252858582818152602001925080828437600083820152604051601f909101601f1916909201829003965090945050505050a250505050565b60028054604080516020601f60001961010060018716150201909416859004938401819004810282018101909252828152606093909290918301828280156111b55780601f1061118a576101008083540402835291602001916111b5565b820191906000526020600020905b81548152906001019060200180831161119857829003601f168201915b505050505090505b90565b60006111cb3361247a565b80156111db57506111db8361247a565b6111e457600080fd5b6001600160a01b038316611224576040805162461bcd60e51b81526020600482015260026024820152611a9b60f11b604482015290519081900360640190fd5b3360008181526008602090815260408083206001600160a01b03881680855290835292819020869055805186815290519293927f8c5be1e5ebec7d5bd14f71427d1e84f3dd0314c0f7b2291e5b200ac8c7c3b925929181900390910190a35060015b92915050565b33600081815260156020908152604080832086845282528083206001600160a01b0386168085529252808320805460ff1916600117905551909185917f3646a897c70797ecc134b0adc32f471b07bf1d6f451133b0384badab531e3fd69190a45050565b60006112fb8361247a565b801561130b575061130b3361247a565b61131457600080fd5b6001600160a01b038316611354576040805162461bcd60e51b81526020600482015260026024820152611a9b60f11b604482015290519081900360640190fd5b6000848152601460209081526040808320338085529083528184206001600160a01b0388168086529084529382902086905581518681529151909288927ff061499aa77c2f6f5e25e34955a06623705344a88256cc861a121ec0bce5cfec929081900390910190a45060019392505050565b33600081815260156020908152604080832086845282528083206001600160a01b0386168085529252808320805460ff1916905551909185917f3b287c4f1bab4df949b33bceacef984f544dc5d5479930d00e4ee8c9d8dd96f29190a45050565b61142f611c65565b61146e576040805162461bcd60e51b81526020600482018190526024820152600080516020614195833981519152604482015290519081900360640190fd5b6114ab8383838080602002602001604051908101604052809392919081815260200183836020028082843760009201919091525061250392505050565b505050565b60009283526014602090815260408085206001600160a01b03948516865282528085209290931684525290205490565b60055490565b60006114f23385612606565b8061152057506001600160a01b03841660009081526008602090815260408083203384529091529020548211155b611556576040805162461bcd60e51b8152602060048201526002602482015261353360f01b604482015290519081900360640190fd5b6001600160a01b038416600090815260086020908152604080832033845290915290205482116115dd576001600160a01b03841660009081526008602090815260408083203384529091529020546115b4908363ffffffff61268716565b6001600160a01b0385166000908152600860209081526040808320338452909152902055611602565b6001600160a01b03841660009081526008602090815260408083203384529091528120555b61161e33858585604051806020016040528060008152506126c9565b5060019392505050565b61166b3333868686868080601f0160208091040260200160405190810160405280939291908181526020018383808284376000920191909152506126c992505050565b50505050565b600654600160b01b900460ff1690565b61168a33611ef2565b806116985750611698611c65565b6116a157600080fd5b6116aa8161285a565b50565b6001600160a01b03166000908152600f60209081526040808320938352929052205490565b601290565b600654600160a81b900460ff1690565b60045490565b61166b8433338686868080601f0160208091040260200160405190810160405280939291908181526020018383808284376000920182905250604080516020810190915290815292506128a2915050565b61174733611ef2565b806117555750611755611c65565b61175e57600080fd5b600654600160b01b900460ff166117a1576040805162461bcd60e51b8152602060048201526002602482015261353560f01b604482015290519081900360640190fd5b6117e48533868686868080601f016020809104026020016040519081016040528093929190818152602001838380828437600092019190915250612a1692505050565b5050505050565b6060600a8054806020026020016040519081016040528092919081815260200182805480156111b557602002820191906000526020600020905b815481526020019060010190808311611825575050505050905090565b61184a611c65565b611889576040805162461bcd60e51b81526020600482018190526024820152600080516020614195833981519152604482015290519081900360640190fd5b6006805460ff60b01b19169055565b60006118a5848484612b59565b949350505050565b6001600160a01b031660009081526007602052604090205490565b6118d0611c65565b61190f576040805162461bcd60e51b81526020600482018190526024820152600080516020614195833981519152604482015290519081900360640190fd5b6001546040516000916001600160a01b0316907f8be0079c531659141344cd1fd0a4f28419497f9722a3daafe3b4186f6b6457e0908390a3600180546001600160a01b0319169055565b6001600160a01b0381166000908152600d60209081526040918290208054835181840281018401909452808452606093928301828280156119b957602002820191906000526020600020905b8154815260200190600101908083116119a5575b50505050509050919050565b606060128054806020026020016040519081016040528092919081815260200182805480156111b557602002820191906000526020600020905b81546001600160a01b031681526001909101906020018083116119ff575050505050905090565b6000818152601660209081526040918290208054835181840281018401909452808452606093928301828280156119b957602002820191906000526020600020905b81546001600160a01b03168152600190910190602001808311611a685750505050509050919050565b6000611a9e89338a612b59565b80611ad3575060008981526014602090815260408083206001600160a01b038c16845282528083203384529091529020548611155b611b09576040805162461bcd60e51b8152602060048201526002602482015261353360f01b604482015290519081900360640190fd5b60008981526014602090815260408083206001600160a01b038c16845282528083203384529091529020548611611ba55760008981526014602090815260408083206001600160a01b038c1684528252808320338452909152902054611b75908763ffffffff61268716565b60008a81526014602090815260408083206001600160a01b038d1684528252808320338452909152902055611bd1565b60008981526014602090815260408083206001600160a01b038c16845282528083203384529091528120555b611c4989338a8a8a8a8a8080601f01602080910402602001604051908101604052809392919081815260200183838082843760009201919091525050604080516020601f8e018190048102820181019092528c815292508c91508b9081908401838280828437600092019190915250612be492505050565b9998505050505050505050565b6001546001600160a01b031690565b6001546000906001600160a01b0316611c7c612e69565b6001600160a01b031614905090565b60065461010090046001600160a01b031681565b6001600160a01b038116331415611cb557600080fd5b6001600160a01b0381166000818152601160209081526040808320338085529252808320805460ff19166001179055519092917ff4caeb2d6ca8932a215a353d0703c326ec2d81fc68170f320eb2ab49e9df61f991a350565b60038054604080516020601f60026000196101006001881615020190951694909404938401819004810282018101909252828152606093909290918301828280156111b55780601f1061118a576101008083540402835291602001916111b5565b611d793385612606565b611daf576040805162461bcd60e51b815260206004820152600260248201526106a760f31b604482015290519081900360640190fd5b61166b33858585858080601f016020809104026020016040519081016040528093929190818152602001838380828437600092019190915250612e6d92505050565b611dfa33611ef2565b80611e085750611e08611c65565b611e1157600080fd5b6116aa81612fe2565b611e233361285a565b565b611e30853386612b59565b611e66576040805162461bcd60e51b815260206004820152600260248201526106a760f31b604482015290519081900360640190fd5b6117e4853386866040518060200160405280600081525087878080601f0160208091040260200160405190810160405280939291908181526020018383808284376000920191909152506128a292505050565b6000908152600c602052604090205490565b6000611ee933338585604051806020016040528060008152506126c9565b50600192915050565b6000611286818363ffffffff61302a16565b6000818152600960205260408120546060919060026000196101006001841615020190911604611f3357600080fd5b60008381526009602090815260409182902060018082015482548551600293821615610100026000190190911692909204601f81018590048502830185019095528482529193919290918491830182828015611fd05780601f10611fa557610100808354040283529160200191611fd0565b820191906000526020600020905b815481529060010190602001808311611fb357829003601f168201915b5050505050915091509150915091565b6000611fec8383612606565b9392505050565b611ffc33611ef2565b8061200a575061200a611c65565b61201357600080fd5b600654600160b01b900460ff16612056576040805162461bcd60e51b8152602060048201526002602482015261353560f01b604482015290519081900360640190fd5b60105461208f576040805162461bcd60e51b8152602060048201526002602482015261353560f01b604482015290519081900360640190fd5b61166b60106000815481106120a057fe5b906000526020600020015433868686868080601f016020809104026020016040519081016040528093929190818152602001838380828437600092019190915250612a1692505050565b606060108054806020026020016040519081016040528092919081815260200182805480156111b55760200282019190600052602060002090815481526020019060010190808311611825575050505050905090565b612148611c65565b612187576040805162461bcd60e51b81526020600482018190526024820152600080516020614195833981519152604482015290519081900360640190fd5b6006805460ff60a81b19169055565b6001600160a01b03918216600090815260086020908152604080832093909416825291909152205490565b6114ab33338585858080601f016020809104026020016040519081016040528093929190818152602001838380828437600092019190915250612e6d92505050565b61220b611c65565b61224a576040805162461bcd60e51b81526020600482018190526024820152600080516020614195833981519152604482015290519081900360640190fd5b61228682828080602002602001604051908101604052809392919081815260200183836020028082843760009201919091525061309192505050565b5050565b612292611c65565b6122d1576040805162461bcd60e51b81526020600482018190526024820152600080516020614195833981519152604482015290519081900360640190fd5b6114ab60108383614032565b6122e73386612606565b61231d576040805162461bcd60e51b815260206004820152600260248201526106a760f31b604482015290519081900360640190fd5b6117e43386868686868080601f0160208091040260200160405190810160405280939291908181526020018383808284376000920191909152506126c992505050565b612368611c65565b6123a7576040805162461bcd60e51b81526020600482018190526024820152600080516020614195833981519152604482015290519081900360640190fd5b6116aa8161315a565b6000612404863333888888888080601f016020809104026020016040519081016040528093929190818152602001838380828437600092018290525060408051602081019091529081529250612be4915050565b9695505050505050565b6001600160a01b03811633141561242457600080fd5b6001600160a01b0381166000818152601160209081526040808320338085529252808320805460ff19169055519092917f50546e66e5f44d728365dc3908c63bc5cfeeab470722c1677e3073a6ac294aa191a350565b600654604080516301fd3f7760e71b81526001600160a01b0384811660048301529151600093610100900490921691829163fe9fbb80916024808301926020929190829003018186803b1580156124d057600080fd5b505afa1580156124e4573d6000803e3d6000fd5b505050506040513d60208110156124fa57600080fd5b50519392505050565b60005b60008381526016602052604090205481101561257f5760008381526017602090815260408083206016909252822080548391908590811061254357fe5b6000918252602080832091909101546001600160a01b031683528201929092526040019020805460ff1916911515919091179055600101612506565b5060005b81518110156125e65760008381526017602052604081208351600192908590859081106125ac57fe5b6020908102919091018101516001600160a01b03168252810191909152604001600020805460ff1916911515919091179055600101612583565b50600082815260166020908152604090912082516114ab9284019061406d565b6000816001600160a01b0316836001600160a01b0316148061264d57506001600160a01b0380841660009081526011602090815260408083209386168352929052205460ff165b80611fec5750600654600160a81b900460ff168015611fec575050506001600160a01b031660009081526013602052604090205460ff1690565b6000611fec83836040518060400160405280601e81526020017f536166654d6174683a207375627472616374696f6e206f766572666c6f7700008152506131fb565b601054612702576040805162461bcd60e51b8152602060048201526002602482015261353560f01b604482015290519081900360640190fd5b61270b8561247a565b801561271b575061271b8461247a565b801561272b575061272b8361247a565b61273457600080fd5b816000805b601054811015612818576001600160a01b0387166000908152600f60205260408120601080549192918490811061276c57fe5b906000526020600020015481526020019081526020016000205491508183116127ce576127c46010828154811061279f57fe5b9060005260206000200154898989878960405180602001604052806000815250612be4565b5060009250612818565b811561281057612809601082815481106127e457fe5b9060005260206000200154898989868960405180602001604052806000815250612be4565b5081830392505b600101612739565b508115612851576040805162461bcd60e51b81526020600482015260026024820152611a9960f11b604482015290519081900360640190fd5b50505050505050565b61286b60008263ffffffff61329216565b6040516001600160a01b038216907fe94479a9f7e1952cc78f2d6baab678adc1b772d936c6583def489e524cb6669290600090a250565b6128ab8561247a565b80156128bb57506128bb8461247a565b6128c457600080fd5b6001600160a01b0384166000908152600f60209081526040808320898452909152902054831115612921576040805162461bcd60e51b81526020600482015260026024820152611a9960f11b604482015290519081900360640190fd5b6129318686866000878787612851565b6129418686866000878787612851565b61294c8487856132f9565b612958858585856135a3565b836001600160a01b0316856001600160a01b0316877fce306c3dbc4a497124b5a4f2be8388b41084c1d74663da27ecee1186c00239bf86856040518083815260200180602001828103825283818151815260200191508051906020019080838360005b838110156129d35781810151838201526020016129bb565b50505050905090810190601f168015612a005780820380516001836020036101000a031916815260200191505b50935050505060405180910390a4505050505050565b612a1f8461247a565b8015612a2f5750612a2f8361247a565b612a3857600080fd5b612a578585600086868660405180602001604052806000815250612851565b612a638484848461382a565b612a6e838684613a6c565b612a8d8585600086868660405180602001604052806000815250612851565b826001600160a01b0316846001600160a01b0316867ff0ded82afbb1bb3ff3fc48cb2a26584aa84e4af0bf309c804ecdb94d0f6a98bb8585604051808381526020018060200180602001838103835284818151815260200191508051906020019080838360005b83811015612b0c578181015183820152602001612af4565b50505050905090810190601f168015612b395780820380516001836020036101000a031916815260200191505b509283039052506000815260408051918290030192509050a45050505050565b6000612b658383612606565b80612b9d57506001600160a01b03808316600090815260156020908152604080832088845282528083209387168352929052205460ff165b806118a55750600654600160a81b900460ff1680156118a55750505060009182526017602090815260408084206001600160a01b0393909316845291905290205460ff1690565b6001600160a01b0385166000908152600f602090815260408083208a8452909152812054841115612c41576040805162461bcd60e51b81526020600482015260026024820152611a9960f11b604482015290519081900360640190fd5b612c4a8761247a565b8015612c5a5750612c5a8661247a565b8015612c6a5750612c6a8561247a565b612c7357600080fd5b8151889015801590612c8757506040845110155b15612c9957612c968985613bb6565b90505b612ca889898989898989612851565b612cb789898989898989612851565b612cc2878a876132f9565b612ccd878787613be2565b612cd8868287613a6c565b612ce781898989898989612851565b856001600160a01b0316876001600160a01b03168a7fff4e9a26af4eb73b8bacfaa4abd4fea03d9448e7b912dc5ff4019048875aa2d48b89898960405180856001600160a01b03166001600160a01b031681526020018481526020018060200180602001838103835285818151815260200191508051906020019080838360005b83811015612d80578181015183820152602001612d68565b50505050905090810190601f168015612dad5780820380516001836020036101000a031916815260200191505b50838103825284518152845160209182019186019080838360005b83811015612de0578181015183820152602001612dc8565b50505050905090810190601f168015612e0d5780820380516001836020036101000a031916815260200191505b50965050505050505060405180910390a4888114612e5d5760408051868152905182918b917f67c8ba31d2dd11f1384577b3405b04ed91eed1231e408432ad2458cab37b2fa19181900360200190a35b98975050505050505050565b3390565b612e768461247a565b8015612e865750612e868361247a565b612e8f57600080fd5b601054612ec8576040805162461bcd60e51b8152602060048201526002602482015261353560f01b604482015290519081900360640190fd5b816000805b601054811015612fa1576001600160a01b0386166000908152600f602052604081206010805491929184908110612f0057fe5b90600052602060002001548152602001908152602001600020549150818311612f6057612f5760108281548110612f3357fe5b906000526020600020015488888688604051806020016040528060008152506128a2565b60009250612fa1565b612f9460108281548110612f7057fe5b906000526020600020015488888588604051806020016040528060008152506128a2565b8183039250600101612ecd565b508115612fda576040805162461bcd60e51b81526020600482015260026024820152611a9960f11b604482015290519081900360640190fd5b505050505050565b612ff360008263ffffffff613daa16565b6040516001600160a01b038216907f6ae172837ea30b801fbfcdd4108aa1d5bf8ff775444fd70256b44e6bf3dfc3f690600090a250565b60006001600160a01b0382166130715760405162461bcd60e51b81526004018080602001828103825260228152602001806141b56022913960400191505060405180910390fd5b506001600160a01b03166000908152602091909152604090205460ff1690565b60005b6012548110156130ed57600060136000601284815481106130b157fe5b6000918252602080832091909101546001600160a01b031683528201929092526040019020805460ff1916911515919091179055600101613094565b5060005b81518110156131465760016013600084848151811061310c57fe5b6020908102919091018101516001600160a01b03168252810191909152604001600020805460ff19169115159190911790556001016130f1565b50805161228690601290602084019061406d565b6001600160a01b03811661319f5760405162461bcd60e51b815260040180806020018281038252602681526020018061412d6026913960400191505060405180910390fd5b6001546040516001600160a01b038084169216907f8be0079c531659141344cd1fd0a4f28419497f9722a3daafe3b4186f6b6457e090600090a3600180546001600160a01b0319166001600160a01b0392909216919091179055565b6000818484111561328a5760405162461bcd60e51b81526004018080602001828103825283818151815260200191508051906020019080838360005b8381101561324f578181015183820152602001613237565b50505050905090810190601f16801561327c5780820380516001836020036101000a031916815260200191505b509250505060405180910390fd5b505050900390565b61329c828261302a565b6132d75760405162461bcd60e51b81526004018080602001828103825260218152602001806141536021913960400191505060405180910390fd5b6001600160a01b0316600090815260209190915260409020805460ff19169055565b6001600160a01b0383166000908152600f6020908152604080832085845290915290205461332d908263ffffffff61268716565b6001600160a01b0384166000908152600f60209081526040808320868452825280832093909355600c9052205461336a908263ffffffff61268716565b6000838152600c6020526040902081905561343f576000828152600b6020526040902054806133c5576040805162461bcd60e51b8152602060048201526002602482015261035360f41b604482015290519081900360640190fd5b600a80546000919060001981019081106133db57fe5b9060005260206000200154905080600a60018403815481106133f957fe5b6000918252602080832090910192909255828152600b90915260409020829055600a8054600019019061342c90826140ce565b5050506000828152600b60205260408120555b6001600160a01b0383166000908152600f602090815260408083208584529091529020546114ab576001600160a01b0383166000908152600e60209081526040808320858452909152902054806134c2576040805162461bcd60e51b8152602060048201526002602482015261035360f41b604482015290519081900360640190fd5b6001600160a01b0384166000908152600d60205260408120805460001981019081106134ea57fe5b9060005260206000200154905080600d6000876001600160a01b03166001600160a01b03168152602001908152602001600020600184038154811061352b57fe5b60009182526020808320909101929092556001600160a01b038716808252600e835260408083208584528452808320869055908252600d909252208054600019019061357790826140ce565b5050506001600160a01b0383166000908152600e60209081526040808320858452909152812055505050565b60065460ff16156135e0576040805162461bcd60e51b81526020600482015260026024820152610d4d60f21b604482015290519081900360640190fd5b6135e98461247a565b80156135f957506135f98361247a565b61360257600080fd5b61360b82613e2b565b613641576040805162461bcd60e51b8152602060048201526002602482015261035360f41b604482015290519081900360640190fd5b6001600160a01b038316613681576040805162461bcd60e51b81526020600482015260026024820152611a9b60f11b604482015290519081900360640190fd5b6001600160a01b0383166000908152600760205260409020548211156136d3576040805162461bcd60e51b81526020600482015260026024820152611a9960f11b604482015290519081900360640190fd5b6001600160a01b0383166000908152600760205260409020546136fc908363ffffffff61268716565b6001600160a01b038416600090815260076020526040902055600554613728908363ffffffff61268716565b600581905550826001600160a01b0316846001600160a01b03167fb7d0d6b60740753e9f16692a2f479472a1385aec2420fa43225b02f2ffa1afe784846040518083815260200180602001828103825283818151815260200191508051906020019080838360005b838110156137a8578181015183820152602001613790565b50505050905090810190601f1680156137d55780820380516001836020036101000a031916815260200191505b50935050505060405180910390a36040805183815290516000916001600160a01b038616917fddf252ad1be2c89b69c2b068fc378daa952ba7f163c4a11628f55a4df523b3ef9181900360200190a350505050565b60065460ff1615613867576040805162461bcd60e51b81526020600482015260026024820152610d4d60f21b604482015290519081900360640190fd5b6138708461247a565b801561388057506138808361247a565b61388957600080fd5b61389282613e2b565b6138c8576040805162461bcd60e51b8152602060048201526002602482015261035360f41b604482015290519081900360640190fd5b6001600160a01b038316613908576040805162461bcd60e51b8152602060048201526002602482015261353760f01b604482015290519081900360640190fd5b60055461391b908363ffffffff613e5a16565b6005556001600160a01b038316600090815260076020526040902054613947908363ffffffff613e5a16565b60076000856001600160a01b03166001600160a01b0316815260200190815260200160002081905550826001600160a01b0316846001600160a01b03167f0e9905d62635f049c2f4e11678ebf9dc3d1f8c4a653e290759b772e47ba00d0084846040518083815260200180602001828103825283818151815260200191508051906020019080838360005b838110156139ea5781810151838201526020016139d2565b50505050905090810190601f168015613a175780820380516001836020036101000a031916815260200191505b50935050505060405180910390a36040805183815290516001600160a01b038516916000917fddf252ad1be2c89b69c2b068fc378daa952ba7f163c4a11628f55a4df523b3ef9181900360200190a350505050565b80156114ab576001600160a01b0383166000908152600e60209081526040808320858452909152902054613ade576001600160a01b0383166000818152600d602090815260408083208054600181018255818552838520018790559383529254600e8252838320868452909152919020555b6001600160a01b0383166000908152600f60209081526040808320858452909152902054613b12908263ffffffff613e5a16565b6001600160a01b0384166000908152600f60209081526040808320868452825280832093909355600b90522054613b8357600a80546001810182557fc65a7bb8d6351c1cf70c95a316cc6a92839c986682d98bc35f958f4883f9d2a801839055546000838152600b60205260409020555b6000828152600c6020526040902054613ba2908263ffffffff613e5a16565b6000838152600c6020526040902055505050565b60208101516000906000199080821415613bd65760408401519250613bda565b8492505b505092915050565b60065460ff1615613c1f576040805162461bcd60e51b81526020600482015260026024820152610d4d60f21b604482015290519081900360640190fd5b613c2881613e2b565b613c5e576040805162461bcd60e51b8152602060048201526002602482015261035360f41b604482015290519081900360640190fd5b6001600160a01b038216613c9e576040805162461bcd60e51b8152602060048201526002602482015261353760f01b604482015290519081900360640190fd5b6001600160a01b038316600090815260076020526040902054811115613cf0576040805162461bcd60e51b81526020600482015260026024820152611a9960f11b604482015290519081900360640190fd5b6001600160a01b038316600090815260076020526040902054613d19908263ffffffff61268716565b6001600160a01b038085166000908152600760205260408082209390935590841681522054613d4e908263ffffffff613e5a16565b6001600160a01b0380841660008181526007602090815260409182902094909455805185815290519193928716927fddf252ad1be2c89b69c2b068fc378daa952ba7f163c4a11628f55a4df523b3ef92918290030190a3505050565b613db4828261302a565b15613e06576040805162461bcd60e51b815260206004820152601f60248201527f526f6c65733a206163636f756e7420616c72656164792068617320726f6c6500604482015290519081900360640190fd5b6001600160a01b0316600090815260209190915260409020805460ff19166001179055565b6004546000908290613e5390613e47838263ffffffff613eb416565b9063ffffffff613ef616565b1492915050565b600082820183811015611fec576040805162461bcd60e51b815260206004820152601b60248201527f536166654d6174683a206164646974696f6e206f766572666c6f770000000000604482015290519081900360640190fd5b6000611fec83836040518060400160405280601a81526020017f536166654d6174683a206469766973696f6e206279207a65726f000000000000815250613f4f565b600082613f0557506000611286565b82820282848281613f1257fe5b0414611fec5760405162461bcd60e51b81526004018080602001828103825260218152602001806141746021913960400191505060405180910390fd5b60008183613f9e5760405162461bcd60e51b815260206004820181815283516024840152835190928392604490910191908501908083836000831561324f578181015183820152602001613237565b506000838581613faa57fe5b0495945050505050565b828054600181600116156101000203166002900490600052602060002090601f016020900481019282601f10613ff557805160ff1916838001178555614022565b82800160010185558215614022579182015b82811115614022578251825591602001919060010190614007565b5061402e9291506140ee565b5090565b828054828255906000526020600020908101928215614022579160200282015b82811115614022578235825591602001919060010190614052565b8280548282559060005260206000209081019282156140c2579160200282015b828111156140c257825182546001600160a01b0319166001600160a01b0390911617825560209092019160019091019061408d565b5061402e929150614108565b8154818355818111156114ab576000838152602090206114ab9181019083015b6111bd91905b8082111561402e57600081556001016140f4565b6111bd91905b8082111561402e5780546001600160a01b031916815560010161410e56fe4f776e61626c653a206e6577206f776e657220697320746865207a65726f2061646472657373526f6c65733a206163636f756e7420646f6573206e6f74206861766520726f6c65536166654d6174683a206d756c7469706c69636174696f6e206f766572666c6f774f776e61626c653a2063616c6c6572206973206e6f7420746865206f776e6572526f6c65733a206163636f756e7420697320746865207a65726f2061646472657373a265627a7a723158205a7dce77b3c07cd0c512cddfc1a26acc352a7e3ffdab62be2dd88e03ee98229964736f6c63430005110032526f6c65733a206163636f756e7420697320746865207a65726f2061646472657373",
  "bytecodeSha1": "da39a3ee5e6b4b0d3255bfef95601890afd80709",
  "compiler": {
    "evm_version": "istanbul",
    "optimizer": {
      "enabled": true,
      "runs": 200
    },
    "version": "0.5.17+commit.d19bba13"
  },
  "contractName": "ERC1400",
  "language": "Solidity",
  "natspec": {
    "details": "ERC1400 logic",
    "methods": {
      "allowance(address,address)": {
        "details": "Check the value of tokens that an owner allowed to a spender.",
        "params": {
          "owner": "address The address which owns the funds.",
          "spender": "address The address which will spend the funds."
        },
        "return": "A uint256 specifying the value of tokens still available for the spender."
      },
      "allowanceByPartition(bytes32,address,address)": {
        "details": "Check the value of tokens that an owner allowed to a spender.",
        "params": {
          "owner": "address The address which owns the funds.",
          "partition": "Name of the partition.",
          "spender": "address The address which will spend the funds."
        },
        "return": "A uint256 specifying the value of tokens still available for the spender."
      },
      "approve(address,uint256)": {
        "details": "Approve the passed address to spend the specified amount of tokens on behalf of 'msg.sender'.",
        "params": {
          "spender": "The address which will spend the funds.",
          "value": "The amount of tokens to be spent."
        },
        "return": "A boolean that indicates if the operation was successful."
      },
      "approveByPartition(bytes32,address,uint256)": {
        "details": "Approve the passed address to spend the specified amount of tokens on behalf of 'msg.sender'.",
        "params": {
          "partition": "Name of the partition.",
          "spender": "The address which will spend the funds.",
          "value": "The amount of tokens to be spent."
        },
        "return": "A boolean that indicates if the operation was successful."
      },
      "authorizeOperator(address)": {
        "details": "Set a third party operator address as an operator of 'msg.sender' to transfer and redeem tokens on its behalf.",
        "params": {
          "operator": "Address to set as an operator for 'msg.sender'."
        }
      },
      "authorizeOperatorByPartition(bytes32,address)": {
        "details": "Set 'operator' as an operator for 'msg.sender' for a given partition.",
        "params": {
          "operator": "Address to set as an operator for 'msg.sender'.",
          "partition": "Name of the partition."
        }
      },
      "balanceOf(address)": {
        "details": "Get the balance of the account with address 'tokenHolder'.",
        "params": {
          "tokenHolder": "Address for which the balance is returned."
        },
        "return": "Amount of token held by 'tokenHolder' in the token contract."
      },
      "balanceOfByPartition(bytes32,address)": {
        "details": "Get balance of a tokenholder for a specific partition.",
        "params": {
          "partition": "Name of the partition.",
          "tokenHolder": "Address for which the balance is returned."
        },
        "return": "Amount of token of partition 'partition' held by 'tokenHolder' in the token contract."
      },
      "constructor": {
        "details": "Initialize ERC1400 + register the contract implementation in ERC1820Registry.",
        "params": {
          "controllers": "Array of initial controllers.",
          "defaultPartitions": "Partitions chosen by default, when partition is not specified, like the case ERC20 tranfers.",
          "granularity": "Granularity of the token.",
          "name": "Name of the token.",
          "symbol": "Symbol of the token."
        }
      },
      "controllers()": {
        "details": "Get the list of controllers as defined by the token contract.",
        "return": "List of addresses of all the controllers."
      },
      "controllersByPartition(bytes32)": {
        "details": "Get controllers for a given partition.",
        "params": {
          "partition": "Name of the partition."
        },
        "return": "Array of controllers for partition."
      },
      "decimals()": {
        "details": "Get the number of decimals of the token.",
        "return": "The number of decimals of the token. For retrocompatibility, decimals are forced to 18 in ERC1400."
      },
      "getDefaultPartitions()": {
        "details": "Get default partitions to transfer from. Function used for ERC20 retrocompatibility. For example, a security token may return the bytes32(\"unrestricted\").",
        "return": "Array of default partitions."
      },
      "getDocument(bytes32)": {
        "details": "Access a document associated with the token.",
        "params": {
          "name": "Short name (represented as a bytes32) associated to the document."
        },
        "return": "Requested document + document hash."
      },
      "granularity()": {
        "details": "Get the smallest part of the token that’s not divisible.",
        "return": "The smallest non-divisible part of the token."
      },
      "isControllable()": {
        "details": "Know if the token can be controlled by operators. If a token returns 'false' for 'isControllable()'' then it MUST always return 'false' in the future.",
        "return": "bool 'true' if the token can still be controlled by operators, 'false' if it can't anymore."
      },
      "isIssuable()": {
        "details": "Know if new tokens can be issued in the future.",
        "return": "bool 'true' if tokens can still be issued by the issuer, 'false' if they can't anymore."
      },
      "isOperator(address,address)": {
        "details": "Indicate whether the operator address is an operator of the tokenHolder address.",
        "params": {
          "operator": "Address which may be an operator of tokenHolder.",
          "tokenHolder": "Address of a token holder which may have the operator address as an operator."
        },
        "return": "'true' if operator is an operator of 'tokenHolder' and 'false' otherwise."
      },
      "isOperatorForPartition(bytes32,address,address)": {
        "details": "Indicate whether the operator address is an operator of the tokenHolder address for the given partition.",
        "params": {
          "operator": "Address which may be an operator of tokenHolder for the given partition.",
          "partition": "Name of the partition.",
          "tokenHolder": "Address of a token holder which may have the operator address as an operator for the given partition."
        },
        "return": "'true' if 'operator' is an operator of 'tokenHolder' for partition 'partition' and 'false' otherwise."
      },
      "isOwner()": {
        "details": "Returns true if the caller is the current owner."
      },
      "issue(address,uint256,bytes)": {
        "details": "Issue tokens from default partition.",
        "params": {
          "data": "Information attached to the issuance, by the issuer.",
          "tokenHolder": "Address for which we want to issue tokens.",
          "value": "Number of tokens issued."
        }
      },
      "issueByPartition(bytes32,address,uint256,bytes)": {
        "details": "Issue tokens from a specific partition.",
        "params": {
          "data": "Information attached to the issuance, by the issuer.",
          "partition": "Name of the partition.",
          "tokenHolder": "Address for which we want to issue tokens.",
          "value": "Number of tokens issued."
        }
      },
      "name()": {
        "details": "Get the name of the token, e.g., \"MyToken\".",
        "return": "Name of the token."
      },
      "operatorRedeemByPartition(bytes32,address,uint256,bytes)": {
        "details": "Redeem tokens of a specific partition.",
        "params": {
          "operatorData": "Information attached to the redemption, by the operator.",
          "partition": "Name of the partition.",
          "tokenHolder": "Address for which we want to redeem tokens.",
          "value": "Number of tokens redeemed"
        }
      },
      "operatorTransferByPartition(bytes32,address,address,uint256,bytes,bytes)": {
        "details": "Transfer tokens from a specific partition through an operator.",
        "params": {
          "data": "Information attached to the transfer. [CAN CONTAIN THE DESTINATION PARTITION]",
          "from": "Token holder.",
          "operatorData": "Information attached to the transfer, by the operator.",
          "partition": "Name of the partition.",
          "to": "Token recipient.",
          "value": "Number of tokens to transfer."
        },
        "return": "Destination partition."
      },
      "owner()": {
        "details": "Returns the address of the current owner."
      },
      "partitionsOf(address)": {
        "details": "Get partitions index of a tokenholder.",
        "params": {
          "tokenHolder": "Address for which the partitions index are returned."
        },
        "return": "Array of partitions index of 'tokenHolder'."
      },
      "redeem(uint256,bytes)": {
        "details": "Redeem the amount of tokens from the address 'msg.sender'.",
        "params": {
          "data": "Information attached to the redemption, by the token holder.",
          "value": "Number of tokens to redeem."
        }
      },
      "redeemByPartition(bytes32,uint256,bytes)": {
        "details": "Redeem tokens of a specific partition.",
        "params": {
          "data": "Information attached to the redemption, by the redeemer.",
          "partition": "Name of the partition.",
          "value": "Number of tokens redeemed."
        }
      },
      "redeemFrom(address,uint256,bytes)": {
        "details": "Redeem the amount of tokens on behalf of the address from.",
        "params": {
          "data": "Information attached to the redemption.",
          "from": "Token holder whose tokens will be redeemed (or address(0) to set from to msg.sender).",
          "value": "Number of tokens to redeem."
        }
      },
      "renounceControl()": {
        "details": "Definitely renounce the possibility to control tokens on behalf of tokenHolders. Once set to false, '_isControllable' can never be set to 'true' again."
      },
      "renounceIssuance()": {
        "details": "Definitely renounce the possibility to issue new tokens. Once set to false, '_isIssuable' can never be set to 'true' again."
      },
      "renounceOwnership()": {
        "details": "Leaves the contract without owner. It will not be possible to call `onlyOwner` functions anymore. Can only be called by the current owner.     * NOTE: Renouncing ownership will leave the contract without an owner, thereby removing any functionality that is only available to the owner."
      },
      "revokeOperator(address)": {
        "details": "Remove the right of the operator address to be an operator for 'msg.sender' and to transfer and redeem tokens on its behalf.",
        "params": {
          "operator": "Address to rescind as an operator for 'msg.sender'."
        }
      },
      "revokeOperatorByPartition(bytes32,address)": {
        "details": "Remove the right of the operator address to be an operator on a given partition for 'msg.sender' and to transfer and redeem tokens on its behalf.",
        "params": {
          "operator": "Address to rescind as an operator on given partition for 'msg.sender'.",
          "partition": "Name of the partition."
        }
      },
      "setControllers(address[])": {
        "details": "Set list of token controllers.",
        "params": {
          "operators": "Controller addresses."
        }
      },
      "setDefaultPartitions(bytes32[])": {
        "details": "Set default partitions to transfer from. Function used for ERC20 retrocompatibility.",
        "params": {
          "partitions": "partitions to use by default when not specified."
        }
      },
      "setDocument(bytes32,string,bytes32)": {
        "details": "Associate a document with the token.",
        "params": {
          "documentHash": "Hash of the document [optional parameter].",
          "name": "Short name (represented as a bytes32) associated to the document.",
          "uri": "Document content."
        }
      },
      "setPartitionControllers(bytes32,address[])": {
        "details": "Set list of token partition controllers.",
        "params": {
          "operators": "Controller addresses.",
          "partition": "Name of the partition."
        }
      },
      "symbol()": {
        "details": "Get the symbol of the token, e.g., \"MYT\".",
        "return": "Symbol of the token."
      },
      "totalPartitions()": {
        "details": "Get list of existing partitions.",
        "return": "Array of all exisiting partitions."
      },
      "totalSupply()": {
        "details": "Get the total number of issued tokens.",
        "return": "Total supply of tokens currently in circulation."
      },
      "totalSupplyByPartition(bytes32)": {
        "details": "Get the total number of issued tokens for a given partition.",
        "params": {
          "partition": "Name of the partition."
        },
        "return": "Total supply of tokens currently in circulation, for a given partition."
      },
      "transfer(address,uint256)": {
        "details": "Transfer token for a specified address.",
        "params": {
          "to": "The address to transfer to.",
          "value": "The value to be transferred."
        },
        "return": "A boolean that indicates if the operation was successful."
      },
      "transferByPartition(bytes32,address,uint256,bytes)": {
        "details": "Transfer tokens from a specific partition.",
        "params": {
          "data": "Information attached to the transfer, by the token holder.",
          "partition": "Name of the partition.",
          "to": "Token recipient.",
          "value": "Number of tokens to transfer."
        },
        "return": "Destination partition."
      },
      "transferFrom(address,address,uint256)": {
        "details": "Transfer tokens from one address to another.",
        "params": {
          "from": "The address which you want to transfer tokens from.",
          "to": "The address which you want to transfer to.",
          "value": "The amount of tokens to be transferred."
        },
        "return": "A boolean that indicates if the operation was successful."
      },
      "transferFromWithData(address,address,uint256,bytes)": {
        "details": "Transfer the amount of tokens on behalf of the address 'from' to the address 'to'.",
        "params": {
          "data": "Information attached to the transfer, and intended for the token holder ('from').",
          "from": "Token holder (or 'address(0)' to set from to 'msg.sender').",
          "to": "Token recipient.",
          "value": "Number of tokens to transfer."
        }
      },
      "transferOwnership(address)": {
        "details": "Transfers ownership of the contract to a new account (`newOwner`). Can only be called by the current owner."
      },
      "transferWithData(address,uint256,bytes)": {
        "details": "Transfer the amount of tokens from the address 'msg.sender' to the address 'to'.",
        "params": {
          "data": "Information attached to the transfer, by the token holder.",
          "to": "Token recipient.",
          "value": "Number of tokens to transfer."
        }
      }
    },
    "title": "ERC1400"
  },
  "opcodes": "PUSH1 0x80 PUSH1 0x40 MSTORE CALLVALUE DUP1 ISZERO PUSH2 0x10 JUMPI PUSH1 0x0 DUP1 REVERT JUMPDEST POP PUSH1 0x4 CALLDATASIZE LT PUSH2 0x327 JUMPI PUSH1 0x0 CALLDATALOAD PUSH1 0xE0 SHR DUP1 PUSH4 0x861ED3EA GT PUSH2 0x1B8 JUMPI DUP1 PUSH4 0xAA271E1A GT PUSH2 0x104 JUMPI DUP1 PUSH4 0xE77C646D GT PUSH2 0xA2 JUMPI DUP1 PUSH4 0xEE532F31 GT PUSH2 0x7C JUMPI DUP1 PUSH4 0xEE532F31 EQ PUSH2 0xECA JUMPI DUP1 PUSH4 0xF2FDE38B EQ PUSH2 0xF58 JUMPI DUP1 PUSH4 0xF3D490DB EQ PUSH2 0xF7E JUMPI DUP1 PUSH4 0xFAD8B32A EQ PUSH2 0x1008 JUMPI PUSH2 0x327 JUMP JUMPDEST DUP1 PUSH4 0xE77C646D EQ PUSH2 0xD79 JUMPI DUP1 PUSH4 0xEA74838A EQ PUSH2 0xDEE JUMPI DUP1 PUSH4 0xEC9A6E87 EQ PUSH2 0xE5C JUMPI PUSH2 0x327 JUMP JUMPDEST DUP1 PUSH4 0xBB3ACDE9 GT PUSH2 0xDE JUMPI DUP1 PUSH4 0xBB3ACDE9 EQ PUSH2 0xCB8 JUMPI DUP1 PUSH4 0xBCFDC0CF EQ PUSH2 0xD3B JUMPI DUP1 PUSH4 0xCA281FD9 EQ PUSH2 0xD43 JUMPI DUP1 PUSH4 0xDD62ED3E EQ PUSH2 0xD4B JUMPI PUSH2 0x327 JUMP JUMPDEST DUP1 PUSH4 0xAA271E1A EQ PUSH2 0xBC8 JUMPI DUP1 PUSH4 0xB10D6B41 EQ PUSH2 0xBEE JUMPI DUP1 PUSH4 0xB6363CF2 EQ PUSH2 0xC8A JUMPI PUSH2 0x327 JUMP JUMPDEST DUP1 PUSH4 0x95D89B41 GT PUSH2 0x171 JUMPI DUP1 PUSH4 0x98650275 GT PUSH2 0x14B JUMPI DUP1 PUSH4 0x98650275 EQ PUSH2 0xAED JUMPI DUP1 PUSH4 0x98DDCEC7 EQ PUSH2 0xAF5 JUMPI DUP1 PUSH4 0xA26734DC EQ PUSH2 0xB7F JUMPI DUP1 PUSH4 0xA9059CBB EQ PUSH2 0xB9C JUMPI PUSH2 0x327 JUMP JUMPDEST DUP1 PUSH4 0x95D89B41 EQ PUSH2 0xA3C JUMPI DUP1 PUSH4 0x9675193C EQ PUSH2 0xA44 JUMPI DUP1 PUSH4 0x983B2D56 EQ PUSH2 0xAC7 JUMPI PUSH2 0x327 JUMP JUMPDEST DUP1 PUSH4 0x861ED3EA EQ PUSH2 0x8E2 JUMPI DUP1 PUSH4 0x8C0DEE9C EQ PUSH2 0x8FF JUMPI DUP1 PUSH4 0x8DA5CB5B EQ PUSH2 0x9E2 JUMPI DUP1 PUSH4 0x8F32D59B EQ PUSH2 0xA06 JUMPI DUP1 PUSH4 0x93E59DC1 EQ PUSH2 0xA0E JUMPI DUP1 PUSH4 0x959B8C3F EQ PUSH2 0xA16 JUMPI PUSH2 0x327 JUMP JUMPDEST DUP1 PUSH4 0x30E82803 GT PUSH2 0x277 JUMPI DUP1 PUSH4 0x69598EFE GT PUSH2 0x230 JUMPI DUP1 PUSH4 0x70A08231 GT PUSH2 0x20A JUMPI DUP1 PUSH4 0x70A08231 EQ PUSH2 0x886 JUMPI DUP1 PUSH4 0x715018A6 EQ PUSH2 0x8AC JUMPI DUP1 PUSH4 0x740AB8F4 EQ PUSH2 0x8B4 JUMPI DUP1 PUSH4 0x7CC0C3A7 EQ PUSH2 0x8DA JUMPI PUSH2 0x327 JUMP JUMPDEST DUP1 PUSH4 0x69598EFE EQ PUSH2 0x7F2 JUMPI DUP1 PUSH4 0x6C30D170 EQ PUSH2 0x84A JUMPI DUP1 PUSH4 0x6D77CAD6 EQ PUSH2 0x852 JUMPI PUSH2 0x327 JUMP JUMPDEST DUP1 PUSH4 0x30E82803 EQ PUSH2 0x694 JUMPI DUP1 PUSH4 0x313CE567 EQ PUSH2 0x6C0 JUMPI DUP1 PUSH4 0x4C783BF5 EQ PUSH2 0x6DE JUMPI DUP1 PUSH4 0x556F0DC7 EQ PUSH2 0x6E6 JUMPI DUP1 PUSH4 0x62EB0068 EQ PUSH2 0x6EE JUMPI DUP1 PUSH4 0x67C84919 EQ PUSH2 0x768 JUMPI PUSH2 0x327 JUMP JUMPDEST DUP1 PUSH4 0x16E1AED4 GT PUSH2 0x2E4 JUMPI DUP1 PUSH4 0x23B872DD GT PUSH2 0x2BE JUMPI DUP1 PUSH4 0x23B872DD EQ PUSH2 0x5AD JUMPI DUP1 PUSH4 0x2535F762 EQ PUSH2 0x5E3 JUMPI DUP1 PUSH4 0x2F1CAE85 EQ PUSH2 0x666 JUMPI DUP1 PUSH4 0x3092AFD5 EQ PUSH2 0x66E JUMPI PUSH2 0x327 JUMP JUMPDEST DUP1 PUSH4 0x16E1AED4 EQ PUSH2 0x4EA JUMPI DUP1 PUSH4 0x17EC83CA EQ PUSH2 0x55F JUMPI DUP1 PUSH4 0x18160DDD EQ PUSH2 0x5A5 JUMPI PUSH2 0x327 JUMP JUMPDEST DUP1 PUSH4 0x10648CA EQ PUSH2 0x32C JUMPI DUP1 PUSH4 0x6FDDE03 EQ PUSH2 0x3A3 JUMPI DUP1 PUSH4 0x95EA7B3 EQ PUSH2 0x420 JUMPI DUP1 PUSH4 0x103EF9E1 EQ PUSH2 0x460 JUMPI DUP1 PUSH4 0x14D1E62F EQ PUSH2 0x48C JUMPI DUP1 PUSH4 0x168ECEC5 EQ PUSH2 0x4BE JUMPI JUMPDEST PUSH1 0x0 DUP1 REVERT JUMPDEST PUSH2 0x3A1 PUSH1 0x4 DUP1 CALLDATASIZE SUB PUSH1 0x60 DUP2 LT ISZERO PUSH2 0x342 JUMPI PUSH1 0x0 DUP1 REVERT JUMPDEST DUP2 CALLDATALOAD SWAP2 SWAP1 DUP2 ADD SWAP1 PUSH1 0x40 DUP2 ADD PUSH1 0x20 DUP3 ADD CALLDATALOAD PUSH1 0x1 PUSH1 0x20 SHL DUP2 GT ISZERO PUSH2 0x363 JUMPI PUSH1 0x0 DUP1 REVERT JUMPDEST DUP3 ADD DUP4 PUSH1 0x20 DUP3 ADD GT ISZERO PUSH2 0x375 JUMPI PUSH1 0x0 DUP1 REVERT JUMPDEST DUP1 CALLDATALOAD SWAP1 PUSH1 0x20 ADD SWAP2 DUP5 PUSH1 0x1 DUP4 MUL DUP5 ADD GT PUSH1 0x1 PUSH1 0x20 SHL DUP4 GT OR ISZERO PUSH2 0x396 JUMPI PUSH1 0x0 DUP1 REVERT JUMPDEST SWAP2 SWAP4 POP SWAP2 POP CALLDATALOAD PUSH2 0x102E JUMP JUMPDEST STOP JUMPDEST PUSH2 0x3AB PUSH2 0x112C JUMP JUMPDEST PUSH1 0x40 DUP1 MLOAD PUSH1 0x20 DUP1 DUP3 MSTORE DUP4 MLOAD DUP2 DUP4 ADD MSTORE DUP4 MLOAD SWAP2 SWAP3 DUP4 SWAP3 SWAP1 DUP4 ADD SWAP2 DUP6 ADD SWAP1 DUP1 DUP4 DUP4 PUSH1 0x0 JUMPDEST DUP4 DUP2 LT ISZERO PUSH2 0x3E5 JUMPI DUP2 DUP2 ADD MLOAD DUP4 DUP3 ADD MSTORE PUSH1 0x20 ADD PUSH2 0x3CD JUMP JUMPDEST POP POP POP POP SWAP1 POP SWAP1 DUP2 ADD SWAP1 PUSH1 0x1F AND DUP1 ISZERO PUSH2 0x412 JUMPI DUP1 DUP3 SUB DUP1 MLOAD PUSH1 0x1 DUP4 PUSH1 0x20 SUB PUSH2 0x100 EXP SUB NOT AND DUP2 MSTORE PUSH1 0x20 ADD SWAP2 POP JUMPDEST POP SWAP3 POP POP POP PUSH1 0x40 MLOAD DUP1 SWAP2 SUB SWAP1 RETURN JUMPDEST PUSH2 0x44C PUSH1 0x4 DUP1 CALLDATASIZE SUB PUSH1 0x40 DUP2 LT ISZERO PUSH2 0x436 JUMPI PUSH1 0x0 DUP1 REVERT JUMPDEST POP PUSH1 0x1 PUSH1 0x1 PUSH1 0xA0 SHL SUB DUP2 CALLDATALOAD AND SWAP1 PUSH1 0x20 ADD CALLDATALOAD PUSH2 0x11C0 JUMP JUMPDEST PUSH1 0x40 DUP1 MLOAD SWAP2 ISZERO ISZERO DUP3 MSTORE MLOAD SWAP1 DUP2 SWAP1 SUB PUSH1 0x20 ADD SWAP1 RETURN JUMPDEST PUSH2 0x3A1 PUSH1 0x4 DUP1 CALLDATASIZE SUB PUSH1 0x40 DUP2 LT ISZERO PUSH2 0x476 JUMPI PUSH1 0x0 DUP1 REVERT JUMPDEST POP DUP1 CALLDATALOAD SWAP1 PUSH1 0x20 ADD CALLDATALOAD PUSH1 0x1 PUSH1 0x1 PUSH1 0xA0 SHL SUB AND PUSH2 0x128C JUMP JUMPDEST PUSH2 0x44C PUSH1 0x4 DUP1 CALLDATASIZE SUB PUSH1 0x60 DUP2 LT ISZERO PUSH2 0x4A2 JUMPI PUSH1 0x0 DUP1 REVERT JUMPDEST POP DUP1 CALLDATALOAD SWAP1 PUSH1 0x1 PUSH1 0x1 PUSH1 0xA0 SHL SUB PUSH1 0x20 DUP3 ADD CALLDATALOAD AND SWAP1 PUSH1 0x40 ADD CALLDATALOAD PUSH2 0x12F0 JUMP JUMPDEST PUSH2 0x3A1 PUSH1 0x4 DUP1 CALLDATASIZE SUB PUSH1 0x40 DUP2 LT ISZERO PUSH2 0x4D4 JUMPI PUSH1 0x0 DUP1 REVERT JUMPDEST POP DUP1 CALLDATALOAD SWAP1 PUSH1 0x20 ADD CALLDATALOAD PUSH1 0x1 PUSH1 0x1 PUSH1 0xA0 SHL SUB AND PUSH2 0x13C6 JUMP JUMPDEST PUSH2 0x3A1 PUSH1 0x4 DUP1 CALLDATASIZE SUB PUSH1 0x40 DUP2 LT ISZERO PUSH2 0x500 JUMPI PUSH1 0x0 DUP1 REVERT JUMPDEST DUP2 CALLDATALOAD SWAP2 SWAP1 DUP2 ADD SWAP1 PUSH1 0x40 DUP2 ADD PUSH1 0x20 DUP3 ADD CALLDATALOAD PUSH1 0x1 PUSH1 0x20 SHL DUP2 GT ISZERO PUSH2 0x521 JUMPI PUSH1 0x0 DUP1 REVERT JUMPDEST DUP3 ADD DUP4 PUSH1 0x20 DUP3 ADD GT ISZERO PUSH2 0x533 JUMPI PUSH1 0x0 DUP1 REVERT JUMPDEST DUP1 CALLDATALOAD SWAP1 PUSH1 0x20 ADD SWAP2 DUP5 PUSH1 0x20 DUP4 MUL DUP5 ADD GT PUSH1 0x1 PUSH1 0x20 SHL DUP4 GT OR ISZERO PUSH2 0x554 JUMPI PUSH1 0x0 DUP1 REVERT JUMPDEST POP SWAP1 SWAP3 POP SWAP1 POP PUSH2 0x1427 JUMP JUMPDEST PUSH2 0x593 PUSH1 0x4 DUP1 CALLDATASIZE SUB PUSH1 0x60 DUP2 LT ISZERO PUSH2 0x575 JUMPI PUSH1 0x0 DUP1 REVERT JUMPDEST POP DUP1 CALLDATALOAD SWAP1 PUSH1 0x1 PUSH1 0x1 PUSH1 0xA0 SHL SUB PUSH1 0x20 DUP3 ADD CALLDATALOAD DUP2 AND SWAP2 PUSH1 0x40 ADD CALLDATALOAD AND PUSH2 0x14B0 JUMP JUMPDEST PUSH1 0x40 DUP1 MLOAD SWAP2 DUP3 MSTORE MLOAD SWAP1 DUP2 SWAP1 SUB PUSH1 0x20 ADD SWAP1 RETURN JUMPDEST PUSH2 0x593 PUSH2 0x14E0 JUMP JUMPDEST PUSH2 0x44C PUSH1 0x4 DUP1 CALLDATASIZE SUB PUSH1 0x60 DUP2 LT ISZERO PUSH2 0x5C3 JUMPI PUSH1 0x0 DUP1 REVERT JUMPDEST POP PUSH1 0x1 PUSH1 0x1 PUSH1 0xA0 SHL SUB DUP2 CALLDATALOAD DUP2 AND SWAP2 PUSH1 0x20 DUP2 ADD CALLDATALOAD SWAP1 SWAP2 AND SWAP1 PUSH1 0x40 ADD CALLDATALOAD PUSH2 0x14E6 JUMP JUMPDEST PUSH2 0x3A1 PUSH1 0x4 DUP1 CALLDATASIZE SUB PUSH1 0x60 DUP2 LT ISZERO PUSH2 0x5F9 JUMPI PUSH1 0x0 DUP1 REVERT JUMPDEST PUSH1 0x1 PUSH1 0x1 PUSH1 0xA0 SHL SUB DUP3 CALLDATALOAD AND SWAP2 PUSH1 0x20 DUP2 ADD CALLDATALOAD SWAP2 DUP2 ADD SWAP1 PUSH1 0x60 DUP2 ADD PUSH1 0x40 DUP3 ADD CALLDATALOAD PUSH1 0x1 PUSH1 0x20 SHL DUP2 GT ISZERO PUSH2 0x628 JUMPI PUSH1 0x0 DUP1 REVERT JUMPDEST DUP3 ADD DUP4 PUSH1 0x20 DUP3 ADD GT ISZERO PUSH2 0x63A JUMPI PUSH1 0x0 DUP1 REVERT JUMPDEST DUP1 CALLDATALOAD SWAP1 PUSH1 0x20 ADD SWAP2 DUP5 PUSH1 0x1 DUP4 MUL DUP5 ADD GT PUSH1 0x1 PUSH1 0x20 SHL DUP4 GT OR ISZERO PUSH2 0x65B JUMPI PUSH1 0x0 DUP1 REVERT JUMPDEST POP SWAP1 SWAP3 POP SWAP1 POP PUSH2 0x1628 JUMP JUMPDEST PUSH2 0x44C PUSH2 0x1671 JUMP JUMPDEST PUSH2 0x3A1 PUSH1 0x4 DUP1 CALLDATASIZE SUB PUSH1 0x20 DUP2 LT ISZERO PUSH2 0x684 JUMPI PUSH1 0x0 DUP1 REVERT JUMPDEST POP CALLDATALOAD PUSH1 0x1 PUSH1 0x1 PUSH1 0xA0 SHL SUB AND PUSH2 0x1681 JUMP JUMPDEST PUSH2 0x593 PUSH1 0x4 DUP1 CALLDATASIZE SUB PUSH1 0x40 DUP2 LT ISZERO PUSH2 0x6AA JUMPI PUSH1 0x0 DUP1 REVERT JUMPDEST POP DUP1 CALLDATALOAD SWAP1 PUSH1 0x20 ADD CALLDATALOAD PUSH1 0x1 PUSH1 0x1 PUSH1 0xA0 SHL SUB AND PUSH2 0x16AD JUMP JUMPDEST PUSH2 0x6C8 PUSH2 0x16D2 JUMP JUMPDEST PUSH1 0x40 DUP1 MLOAD PUSH1 0xFF SWAP1 SWAP3 AND DUP3 MSTORE MLOAD SWAP1 DUP2 SWAP1 SUB PUSH1 0x20 ADD SWAP1 RETURN JUMPDEST PUSH2 0x44C PUSH2 0x16D7 JUMP JUMPDEST PUSH2 0x593 PUSH2 0x16E7 JUMP JUMPDEST PUSH2 0x3A1 PUSH1 0x4 DUP1 CALLDATASIZE SUB PUSH1 0x60 DUP2 LT ISZERO PUSH2 0x704 JUMPI PUSH1 0x0 DUP1 REVERT JUMPDEST DUP2 CALLDATALOAD SWAP2 PUSH1 0x20 DUP2 ADD CALLDATALOAD SWAP2 DUP2 ADD SWAP1 PUSH1 0x60 DUP2 ADD PUSH1 0x40 DUP3 ADD CALLDATALOAD PUSH1 0x1 PUSH1 0x20 SHL DUP2 GT ISZERO PUSH2 0x72A JUMPI PUSH1 0x0 DUP1 REVERT JUMPDEST DUP3 ADD DUP4 PUSH1 0x20 DUP3 ADD GT ISZERO PUSH2 0x73C JUMPI PUSH1 0x0 DUP1 REVERT JUMPDEST DUP1 CALLDATALOAD SWAP1 PUSH1 0x20 ADD SWAP2 DUP5 PUSH1 0x1 DUP4 MUL DUP5 ADD GT PUSH1 0x1 PUSH1 0x20 SHL DUP4 GT OR ISZERO PUSH2 0x75D JUMPI PUSH1 0x0 DUP1 REVERT JUMPDEST POP SWAP1 SWAP3 POP SWAP1 POP PUSH2 0x16ED JUMP JUMPDEST PUSH2 0x3A1 PUSH1 0x4 DUP1 CALLDATASIZE SUB PUSH1 0x80 DUP2 LT ISZERO PUSH2 0x77E JUMPI PUSH1 0x0 DUP1 REVERT JUMPDEST DUP2 CALLDATALOAD SWAP2 PUSH1 0x1 PUSH1 0x1 PUSH1 0xA0 SHL SUB PUSH1 0x20 DUP3 ADD CALLDATALOAD AND SWAP2 PUSH1 0x40 DUP3 ADD CALLDATALOAD SWAP2 SWAP1 DUP2 ADD SWAP1 PUSH1 0x80 DUP2 ADD PUSH1 0x60 DUP3 ADD CALLDATALOAD PUSH1 0x1 PUSH1 0x20 SHL DUP2 GT ISZERO PUSH2 0x7B4 JUMPI PUSH1 0x0 DUP1 REVERT JUMPDEST DUP3 ADD DUP4 PUSH1 0x20 DUP3 ADD GT ISZERO PUSH2 0x7C6 JUMPI PUSH1 0x0 DUP1 REVERT JUMPDEST DUP1 CALLDATALOAD SWAP1 PUSH1 0x20 ADD SWAP2 DUP5 PUSH1 0x1 DUP4 MUL DUP5 ADD GT PUSH1 0x1 PUSH1 0x20 SHL DUP4 GT OR ISZERO PUSH2 0x7E7 JUMPI PUSH1 0x0 DUP1 REVERT JUMPDEST POP SWAP1 SWAP3 POP SWAP1 POP PUSH2 0x173E JUMP JUMPDEST PUSH2 0x7FA PUSH2 0x17EB JUMP JUMPDEST PUSH1 0x40 DUP1 MLOAD PUSH1 0x20 DUP1 DUP3 MSTORE DUP4 MLOAD DUP2 DUP4 ADD MSTORE DUP4 MLOAD SWAP2 SWAP3 DUP4 SWAP3 SWAP1 DUP4 ADD SWAP2 DUP6 DUP2 ADD SWAP2 MUL DUP1 DUP4 DUP4 PUSH1 0x0 JUMPDEST DUP4 DUP2 LT ISZERO PUSH2 0x836 JUMPI DUP2 DUP2 ADD MLOAD DUP4 DUP3 ADD MSTORE PUSH1 0x20 ADD PUSH2 0x81E JUMP JUMPDEST POP POP POP POP SWAP1 POP ADD SWAP3 POP POP POP PUSH1 0x40 MLOAD DUP1 SWAP2 SUB SWAP1 RETURN JUMPDEST PUSH2 0x3A1 PUSH2 0x1842 JUMP JUMPDEST PUSH2 0x44C PUSH1 0x4 DUP1 CALLDATASIZE SUB PUSH1 0x60 DUP2 LT ISZERO PUSH2 0x868 JUMPI PUSH1 0x0 DUP1 REVERT JUMPDEST POP DUP1 CALLDATALOAD SWAP1 PUSH1 0x1 PUSH1 0x1 PUSH1 0xA0 SHL SUB PUSH1 0x20 DUP3 ADD CALLDATALOAD DUP2 AND SWAP2 PUSH1 0x40 ADD CALLDATALOAD AND PUSH2 0x1898 JUMP JUMPDEST PUSH2 0x593 PUSH1 0x4 DUP1 CALLDATASIZE SUB PUSH1 0x20 DUP2 LT ISZERO PUSH2 0x89C JUMPI PUSH1 0x0 DUP1 REVERT JUMPDEST POP CALLDATALOAD PUSH1 0x1 PUSH1 0x1 PUSH1 0xA0 SHL SUB AND PUSH2 0x18AD JUMP JUMPDEST PUSH2 0x3A1 PUSH2 0x18C8 JUMP JUMPDEST PUSH2 0x7FA PUSH1 0x4 DUP1 CALLDATASIZE SUB PUSH1 0x20 DUP2 LT ISZERO PUSH2 0x8CA JUMPI PUSH1 0x0 DUP1 REVERT JUMPDEST POP CALLDATALOAD PUSH1 0x1 PUSH1 0x1 PUSH1 0xA0 SHL SUB AND PUSH2 0x1959 JUMP JUMPDEST PUSH2 0x7FA PUSH2 0x19C5 JUMP JUMPDEST PUSH2 0x7FA PUSH1 0x4 DUP1 CALLDATASIZE SUB PUSH1 0x20 DUP2 LT ISZERO PUSH2 0x8F8 JUMPI PUSH1 0x0 DUP1 REVERT JUMPDEST POP CALLDATALOAD PUSH2 0x1A26 JUMP JUMPDEST PUSH2 0x593 PUSH1 0x4 DUP1 CALLDATASIZE SUB PUSH1 0xC0 DUP2 LT ISZERO PUSH2 0x915 JUMPI PUSH1 0x0 DUP1 REVERT JUMPDEST DUP2 CALLDATALOAD SWAP2 PUSH1 0x1 PUSH1 0x1 PUSH1 0xA0 SHL SUB PUSH1 0x20 DUP3 ADD CALLDATALOAD DUP2 AND SWAP3 PUSH1 0x40 DUP4 ADD CALLDATALOAD SWAP1 SWAP2 AND SWAP2 PUSH1 0x60 DUP2 ADD CALLDATALOAD SWAP2 DUP2 ADD SWAP1 PUSH1 0xA0 DUP2 ADD PUSH1 0x80 DUP3 ADD CALLDATALOAD PUSH1 0x1 PUSH1 0x20 SHL DUP2 GT ISZERO PUSH2 0x954 JUMPI PUSH1 0x0 DUP1 REVERT JUMPDEST DUP3 ADD DUP4 PUSH1 0x20 DUP3 ADD GT ISZERO PUSH2 0x966 JUMPI PUSH1 0x0 DUP1 REVERT JUMPDEST DUP1 CALLDATALOAD SWAP1 PUSH1 0x20 ADD SWAP2 DUP5 PUSH1 0x1 DUP4 MUL DUP5 ADD GT PUSH1 0x1 PUSH1 0x20 SHL DUP4 GT OR ISZERO PUSH2 0x987 JUMPI PUSH1 0x0 DUP1 REVERT JUMPDEST SWAP2 SWAP4 SWAP1 SWAP3 SWAP1 SWAP2 PUSH1 0x20 DUP2 ADD SWAP1 CALLDATALOAD PUSH1 0x1 PUSH1 0x20 SHL DUP2 GT ISZERO PUSH2 0x9A4 JUMPI PUSH1 0x0 DUP1 REVERT JUMPDEST DUP3 ADD DUP4 PUSH1 0x20 DUP3 ADD GT ISZERO PUSH2 0x9B6 JUMPI PUSH1 0x0 DUP1 REVERT JUMPDEST DUP1 CALLDATALOAD SWAP1 PUSH1 0x20 ADD SWAP2 DUP5 PUSH1 0x1 DUP4 MUL DUP5 ADD GT PUSH1 0x1 PUSH1 0x20 SHL DUP4 GT OR ISZERO PUSH2 0x9D7 JUMPI PUSH1 0x0 DUP1 REVERT JUMPDEST POP SWAP1 SWAP3 POP SWAP1 POP PUSH2 0x1A91 JUMP JUMPDEST PUSH2 0x9EA PUSH2 0x1C56 JUMP JUMPDEST PUSH1 0x40 DUP1 MLOAD PUSH1 0x1 PUSH1 0x1 PUSH1 0xA0 SHL SUB SWAP1 SWAP3 AND DUP3 MSTORE MLOAD SWAP1 DUP2 SWAP1 SUB PUSH1 0x20 ADD SWAP1 RETURN JUMPDEST PUSH2 0x44C PUSH2 0x1C65 JUMP JUMPDEST PUSH2 0x9EA PUSH2 0x1C8B JUMP JUMPDEST PUSH2 0x3A1 PUSH1 0x4 DUP1 CALLDATASIZE SUB PUSH1 0x20 DUP2 LT ISZERO PUSH2 0xA2C JUMPI PUSH1 0x0 DUP1 REVERT JUMPDEST POP CALLDATALOAD PUSH1 0x1 PUSH1 0x1 PUSH1 0xA0 SHL SUB AND PUSH2 0x1C9F JUMP JUMPDEST PUSH2 0x3AB PUSH2 0x1D0E JUMP JUMPDEST PUSH2 0x3A1 PUSH1 0x4 DUP1 CALLDATASIZE SUB PUSH1 0x60 DUP2 LT ISZERO PUSH2 0xA5A JUMPI PUSH1 0x0 DUP1 REVERT JUMPDEST PUSH1 0x1 PUSH1 0x1 PUSH1 0xA0 SHL SUB DUP3 CALLDATALOAD AND SWAP2 PUSH1 0x20 DUP2 ADD CALLDATALOAD SWAP2 DUP2 ADD SWAP1 PUSH1 0x60 DUP2 ADD PUSH1 0x40 DUP3 ADD CALLDATALOAD PUSH1 0x1 PUSH1 0x20 SHL DUP2 GT ISZERO PUSH2 0xA89 JUMPI PUSH1 0x0 DUP1 REVERT JUMPDEST DUP3 ADD DUP4 PUSH1 0x20 DUP3 ADD GT ISZERO PUSH2 0xA9B JUMPI PUSH1 0x0 DUP1 REVERT JUMPDEST DUP1 CALLDATALOAD SWAP1 PUSH1 0x20 ADD SWAP2 DUP5 PUSH1 0x1 DUP4 MUL DUP5 ADD GT PUSH1 0x1 PUSH1 0x20 SHL DUP4 GT OR ISZERO PUSH2 0xABC JUMPI PUSH1 0x0 DUP1 REVERT JUMPDEST POP SWAP1 SWAP3 POP SWAP1 POP PUSH2 0x1D6F JUMP JUMPDEST PUSH2 0x3A1 PUSH1 0x4 DUP1 CALLDATASIZE SUB PUSH1 0x20 DUP2 LT ISZERO PUSH2 0xADD JUMPI PUSH1 0x0 DUP1 REVERT JUMPDEST POP CALLDATALOAD PUSH1 0x1 PUSH1 0x1 PUSH1 0xA0 SHL SUB AND PUSH2 0x1DF1 JUMP JUMPDEST PUSH2 0x3A1 PUSH2 0x1E1A JUMP JUMPDEST PUSH2 0x3A1 PUSH1 0x4 DUP1 CALLDATASIZE SUB PUSH1 0x80 DUP2 LT ISZERO PUSH2 0xB0B JUMPI PUSH1 0x0 DUP1 REVERT JUMPDEST DUP2 CALLDATALOAD SWAP2 PUSH1 0x1 PUSH1 0x1 PUSH1 0xA0 SHL SUB PUSH1 0x20 DUP3 ADD CALLDATALOAD AND SWAP2 PUSH1 0x40 DUP3 ADD CALLDATALOAD SWAP2 SWAP1 DUP2 ADD SWAP1 PUSH1 0x80 DUP2 ADD PUSH1 0x60 DUP3 ADD CALLDATALOAD PUSH1 0x1 PUSH1 0x20 SHL DUP2 GT ISZERO PUSH2 0xB41 JUMPI PUSH1 0x0 DUP1 REVERT JUMPDEST DUP3 ADD DUP4 PUSH1 0x20 DUP3 ADD GT ISZERO PUSH2 0xB53 JUMPI PUSH1 0x0 DUP1 REVERT JUMPDEST DUP1 CALLDATALOAD SWAP1 PUSH1 0x20 ADD SWAP2 DUP5 PUSH1 0x1 DUP4 MUL DUP5 ADD GT PUSH1 0x1 PUSH1 0x20 SHL DUP4 GT OR ISZERO PUSH2 0xB74 JUMPI PUSH1 0x0 DUP1 REVERT JUMPDEST POP SWAP1 SWAP3 POP SWAP1 POP PUSH2 0x1E25 JUMP JUMPDEST PUSH2 0x593 PUSH1 0x4 DUP1 CALLDATASIZE SUB PUSH1 0x20 DUP2 LT ISZERO PUSH2 0xB95 JUMPI PUSH1 0x0 DUP1 REVERT JUMPDEST POP CALLDATALOAD PUSH2 0x1EB9 JUMP JUMPDEST PUSH2 0x44C PUSH1 0x4 DUP1 CALLDATASIZE SUB PUSH1 0x40 DUP2 LT ISZERO PUSH2 0xBB2 JUMPI PUSH1 0x0 DUP1 REVERT JUMPDEST POP PUSH1 0x1 PUSH1 0x1 PUSH1 0xA0 SHL SUB DUP2 CALLDATALOAD AND SWAP1 PUSH1 0x20 ADD CALLDATALOAD PUSH2 0x1ECB JUMP JUMPDEST PUSH2 0x44C PUSH1 0x4 DUP1 CALLDATASIZE SUB PUSH1 0x20 DUP2 LT ISZERO PUSH2 0xBDE JUMPI PUSH1 0x0 DUP1 REVERT JUMPDEST POP CALLDATALOAD PUSH1 0x1 PUSH1 0x1 PUSH1 0xA0 SHL SUB AND PUSH2 0x1EF2 JUMP JUMPDEST PUSH2 0xC0B PUSH1 0x4 DUP1 CALLDATASIZE SUB PUSH1 0x20 DUP2 LT ISZERO PUSH2 0xC04 JUMPI PUSH1 0x0 DUP1 REVERT JUMPDEST POP CALLDATALOAD PUSH2 0x1F04 JUMP JUMPDEST PUSH1 0x40 MLOAD DUP1 DUP1 PUSH1 0x20 ADD DUP4 DUP2 MSTORE PUSH1 0x20 ADD DUP3 DUP2 SUB DUP3 MSTORE DUP5 DUP2 DUP2 MLOAD DUP2 MSTORE PUSH1 0x20 ADD SWAP2 POP DUP1 MLOAD SWAP1 PUSH1 0x20 ADD SWAP1 DUP1 DUP4 DUP4 PUSH1 0x0 JUMPDEST DUP4 DUP2 LT ISZERO PUSH2 0xC4E JUMPI DUP2 DUP2 ADD MLOAD DUP4 DUP3 ADD MSTORE PUSH1 0x20 ADD PUSH2 0xC36 JUMP JUMPDEST POP POP POP POP SWAP1 POP SWAP1 DUP2 ADD SWAP1 PUSH1 0x1F AND DUP1 ISZERO PUSH2 0xC7B JUMPI DUP1 DUP3 SUB DUP1 MLOAD PUSH1 0x1 DUP4 PUSH1 0x20 SUB PUSH2 0x100 EXP SUB NOT AND DUP2 MSTORE PUSH1 0x20 ADD SWAP2 POP JUMPDEST POP SWAP4 POP POP POP POP PUSH1 0x40 MLOAD DUP1 SWAP2 SUB SWAP1 RETURN JUMPDEST PUSH2 0x44C PUSH1 0x4 DUP1 CALLDATASIZE SUB PUSH1 0x40 DUP2 LT ISZERO PUSH2 0xCA0 JUMPI PUSH1 0x0 DUP1 REVERT JUMPDEST POP PUSH1 0x1 PUSH1 0x1 PUSH1 0xA0 SHL SUB DUP2 CALLDATALOAD DUP2 AND SWAP2 PUSH1 0x20 ADD CALLDATALOAD AND PUSH2 0x1FE0 JUMP JUMPDEST PUSH2 0x3A1 PUSH1 0x4 DUP1 CALLDATASIZE SUB PUSH1 0x60 DUP2 LT ISZERO PUSH2 0xCCE JUMPI PUSH1 0x0 DUP1 REVERT JUMPDEST PUSH1 0x1 PUSH1 0x1 PUSH1 0xA0 SHL SUB DUP3 CALLDATALOAD AND SWAP2 PUSH1 0x20 DUP2 ADD CALLDATALOAD SWAP2 DUP2 ADD SWAP1 PUSH1 0x60 DUP2 ADD PUSH1 0x40 DUP3 ADD CALLDATALOAD PUSH1 0x1 PUSH1 0x20 SHL DUP2 GT ISZERO PUSH2 0xCFD JUMPI PUSH1 0x0 DUP1 REVERT JUMPDEST DUP3 ADD DUP4 PUSH1 0x20 DUP3 ADD GT ISZERO PUSH2 0xD0F JUMPI PUSH1 0x0 DUP1 REVERT JUMPDEST DUP1 CALLDATALOAD SWAP1 PUSH1 0x20 ADD SWAP2 DUP5 PUSH1 0x1 DUP4 MUL DUP5 ADD GT PUSH1 0x1 PUSH1 0x20 SHL DUP4 GT OR ISZERO PUSH2 0xD30 JUMPI PUSH1 0x0 DUP1 REVERT JUMPDEST POP SWAP1 SWAP3 POP SWAP1 POP PUSH2 0x1FF3 JUMP JUMPDEST PUSH2 0x7FA PUSH2 0x20EA JUMP JUMPDEST PUSH2 0x3A1 PUSH2 0x2140 JUMP JUMPDEST PUSH2 0x593 PUSH1 0x4 DUP1 CALLDATASIZE SUB PUSH1 0x40 DUP2 LT ISZERO PUSH2 0xD61 JUMPI PUSH1 0x0 DUP1 REVERT JUMPDEST POP PUSH1 0x1 PUSH1 0x1 PUSH1 0xA0 SHL SUB DUP2 CALLDATALOAD DUP2 AND SWAP2 PUSH1 0x20 ADD CALLDATALOAD AND PUSH2 0x2196 JUMP JUMPDEST PUSH2 0x3A1 PUSH1 0x4 DUP1 CALLDATASIZE SUB PUSH1 0x40 DUP2 LT ISZERO PUSH2 0xD8F JUMPI PUSH1 0x0 DUP1 REVERT JUMPDEST DUP2 CALLDATALOAD SWAP2 SWAP1 DUP2 ADD SWAP1 PUSH1 0x40 DUP2 ADD PUSH1 0x20 DUP3 ADD CALLDATALOAD PUSH1 0x1 PUSH1 0x20 SHL DUP2 GT ISZERO PUSH2 0xDB0 JUMPI PUSH1 0x0 DUP1 REVERT JUMPDEST DUP3 ADD DUP4 PUSH1 0x20 DUP3 ADD GT ISZERO PUSH2 0xDC2 JUMPI PUSH1 0x0 DUP1 REVERT JUMPDEST DUP1 CALLDATALOAD SWAP1 PUSH1 0x20 ADD SWAP2 DUP5 PUSH1 0x1 DUP4 MUL DUP5 ADD GT PUSH1 0x1 PUSH1 0x20 SHL DUP4 GT OR ISZERO PUSH2 0xDE3 JUMPI PUSH1 0x0 DUP1 REVERT JUMPDEST POP SWAP1 SWAP3 POP SWAP1 POP PUSH2 0x21C1 JUMP JUMPDEST PUSH2 0x3A1 PUSH1 0x4 DUP1 CALLDATASIZE SUB PUSH1 0x20 DUP2 LT ISZERO PUSH2 0xE04 JUMPI PUSH1 0x0 DUP1 REVERT JUMPDEST DUP2 ADD SWAP1 PUSH1 0x20 DUP2 ADD DUP2 CALLDATALOAD PUSH1 0x1 PUSH1 0x20 SHL DUP2 GT ISZERO PUSH2 0xE1E JUMPI PUSH1 0x0 DUP1 REVERT JUMPDEST DUP3 ADD DUP4 PUSH1 0x20 DUP3 ADD GT ISZERO PUSH2 0xE30 JUMPI PUSH1 0x0 DUP1 REVERT JUMPDEST DUP1 CALLDATALOAD SWAP1 PUSH1 0x20 ADD SWAP2 DUP5 PUSH1 0x20 DUP4 MUL DUP5 ADD GT PUSH1 0x1 PUSH1 0x20 SHL DUP4 GT OR ISZERO PUSH2 0xE51 JUMPI PUSH1 0x0 DUP1 REVERT JUMPDEST POP SWAP1 SWAP3 POP SWAP1 POP PUSH2 0x2203 JUMP JUMPDEST PUSH2 0x3A1 PUSH1 0x4 DUP1 CALLDATASIZE SUB PUSH1 0x20 DUP2 LT ISZERO PUSH2 0xE72 JUMPI PUSH1 0x0 DUP1 REVERT JUMPDEST DUP2 ADD SWAP1 PUSH1 0x20 DUP2 ADD DUP2 CALLDATALOAD PUSH1 0x1 PUSH1 0x20 SHL DUP2 GT ISZERO PUSH2 0xE8C JUMPI PUSH1 0x0 DUP1 REVERT JUMPDEST DUP3 ADD DUP4 PUSH1 0x20 DUP3 ADD GT ISZERO PUSH2 0xE9E JUMPI PUSH1 0x0 DUP1 REVERT JUMPDEST DUP1 CALLDATALOAD SWAP1 PUSH1 0x20 ADD SWAP2 DUP5 PUSH1 0x20 DUP4 MUL DUP5 ADD GT PUSH1 0x1 PUSH1 0x20 SHL DUP4 GT OR ISZERO PUSH2 0xEBF JUMPI PUSH1 0x0 DUP1 REVERT JUMPDEST POP SWAP1 SWAP3 POP SWAP1 POP PUSH2 0x228A JUMP JUMPDEST PUSH2 0x3A1 PUSH1 0x4 DUP1 CALLDATASIZE SUB PUSH1 0x80 DUP2 LT ISZERO PUSH2 0xEE0 JUMPI PUSH1 0x0 DUP1 REVERT JUMPDEST PUSH1 0x1 PUSH1 0x1 PUSH1 0xA0 SHL SUB DUP3 CALLDATALOAD DUP2 AND SWAP3 PUSH1 0x20 DUP2 ADD CALLDATALOAD SWAP1 SWAP2 AND SWAP2 PUSH1 0x40 DUP3 ADD CALLDATALOAD SWAP2 SWAP1 DUP2 ADD SWAP1 PUSH1 0x80 DUP2 ADD PUSH1 0x60 DUP3 ADD CALLDATALOAD PUSH1 0x1 PUSH1 0x20 SHL DUP2 GT ISZERO PUSH2 0xF1A JUMPI PUSH1 0x0 DUP1 REVERT JUMPDEST DUP3 ADD DUP4 PUSH1 0x20 DUP3 ADD GT ISZERO PUSH2 0xF2C JUMPI PUSH1 0x0 DUP1 REVERT JUMPDEST DUP1 CALLDATALOAD SWAP1 PUSH1 0x20 ADD SWAP2 DUP5 PUSH1 0x1 DUP4 MUL DUP5 ADD GT PUSH1 0x1 PUSH1 0x20 SHL DUP4 GT OR ISZERO PUSH2 0xF4D JUMPI PUSH1 0x0 DUP1 REVERT JUMPDEST POP SWAP1 SWAP3 POP SWAP1 POP PUSH2 0x22DD JUMP JUMPDEST PUSH2 0x3A1 PUSH1 0x4 DUP1 CALLDATASIZE SUB PUSH1 0x20 DUP2 LT ISZERO PUSH2 0xF6E JUMPI PUSH1 0x0 DUP1 REVERT JUMPDEST POP CALLDATALOAD PUSH1 0x1 PUSH1 0x1 PUSH1 0xA0 SHL SUB AND PUSH2 0x2360 JUMP JUMPDEST PUSH2 0x593 PUSH1 0x4 DUP1 CALLDATASIZE SUB PUSH1 0x80 DUP2 LT ISZERO PUSH2 0xF94 JUMPI PUSH1 0x0 DUP1 REVERT JUMPDEST DUP2 CALLDATALOAD SWAP2 PUSH1 0x1 PUSH1 0x1 PUSH1 0xA0 SHL SUB PUSH1 0x20 DUP3 ADD CALLDATALOAD AND SWAP2 PUSH1 0x40 DUP3 ADD CALLDATALOAD SWAP2 SWAP1 DUP2 ADD SWAP1 PUSH1 0x80 DUP2 ADD PUSH1 0x60 DUP3 ADD CALLDATALOAD PUSH1 0x1 PUSH1 0x20 SHL DUP2 GT ISZERO PUSH2 0xFCA JUMPI PUSH1 0x0 DUP1 REVERT JUMPDEST DUP3 ADD DUP4 PUSH1 0x20 DUP3 ADD GT ISZERO PUSH2 0xFDC JUMPI PUSH1 0x0 DUP1 REVERT JUMPDEST DUP1 CALLDATALOAD SWAP1 PUSH1 0x20 ADD SWAP2 DUP5 PUSH1 0x1 DUP4 MUL DUP5 ADD GT PUSH1 0x1 PUSH1 0x20 SHL DUP4 GT OR ISZERO PUSH2 0xFFD JUMPI PUSH1 0x0 DUP1 REVERT JUMPDEST POP SWAP1 SWAP3 POP SWAP1 POP PUSH2 0x23B0 JUMP JUMPDEST PUSH2 0x3A1 PUSH1 0x4 DUP1 CALLDATASIZE SUB PUSH1 0x20 DUP2 LT ISZERO PUSH2 0x101E JUMPI PUSH1 0x0 DUP1 REVERT JUMPDEST POP CALLDATALOAD PUSH1 0x1 PUSH1 0x1 PUSH1 0xA0 SHL SUB AND PUSH2 0x240E JUMP JUMPDEST CALLER PUSH1 0x0 SWAP1 DUP2 MSTORE PUSH1 0x13 PUSH1 0x20 MSTORE PUSH1 0x40 SWAP1 KECCAK256 SLOAD PUSH1 0xFF AND PUSH2 0x104A JUMPI PUSH1 0x0 DUP1 REVERT JUMPDEST PUSH1 0x40 DUP1 MLOAD PUSH1 0x60 PUSH1 0x20 PUSH1 0x1F DUP7 ADD DUP2 SWAP1 DIV MUL DUP3 ADD DUP2 ADD DUP4 MSTORE SWAP2 DUP2 ADD DUP5 DUP2 MSTORE SWAP1 SWAP2 DUP3 SWAP2 SWAP1 DUP7 SWAP1 DUP7 SWAP1 DUP2 SWAP1 DUP6 ADD DUP4 DUP3 DUP1 DUP3 DUP5 CALLDATACOPY PUSH1 0x0 SWAP3 ADD DUP3 SWAP1 MSTORE POP SWAP4 DUP6 MSTORE POP POP POP PUSH1 0x20 SWAP2 DUP3 ADD DUP5 SWAP1 MSTORE DUP7 DUP2 MSTORE PUSH1 0x9 DUP3 MSTORE PUSH1 0x40 SWAP1 KECCAK256 DUP3 MLOAD DUP1 MLOAD SWAP2 SWAP3 PUSH2 0x10AF SWAP3 DUP5 SWAP3 SWAP1 SWAP2 ADD SWAP1 PUSH2 0x3FB4 JUMP JUMPDEST POP PUSH1 0x20 DUP3 ADD MLOAD DUP2 PUSH1 0x1 ADD SSTORE SWAP1 POP POP DUP4 PUSH32 0x89730C201D2DF6A4CEF4E892559E63E022078B0EE939D11B6CED61FB098B2824 DUP5 DUP5 DUP5 PUSH1 0x40 MLOAD DUP1 DUP1 PUSH1 0x20 ADD DUP4 DUP2 MSTORE PUSH1 0x20 ADD DUP3 DUP2 SUB DUP3 MSTORE DUP6 DUP6 DUP3 DUP2 DUP2 MSTORE PUSH1 0x20 ADD SWAP3 POP DUP1 DUP3 DUP5 CALLDATACOPY PUSH1 0x0 DUP4 DUP3 ADD MSTORE PUSH1 0x40 MLOAD PUSH1 0x1F SWAP1 SWAP2 ADD PUSH1 0x1F NOT AND SWAP1 SWAP3 ADD DUP3 SWAP1 SUB SWAP7 POP SWAP1 SWAP5 POP POP POP POP POP LOG2 POP POP POP POP JUMP JUMPDEST PUSH1 0x2 DUP1 SLOAD PUSH1 0x40 DUP1 MLOAD PUSH1 0x20 PUSH1 0x1F PUSH1 0x0 NOT PUSH2 0x100 PUSH1 0x1 DUP8 AND ISZERO MUL ADD SWAP1 SWAP5 AND DUP6 SWAP1 DIV SWAP4 DUP5 ADD DUP2 SWAP1 DIV DUP2 MUL DUP3 ADD DUP2 ADD SWAP1 SWAP3 MSTORE DUP3 DUP2 MSTORE PUSH1 0x60 SWAP4 SWAP1 SWAP3 SWAP1 SWAP2 DUP4 ADD DUP3 DUP3 DUP1 ISZERO PUSH2 0x11B5 JUMPI DUP1 PUSH1 0x1F LT PUSH2 0x118A JUMPI PUSH2 0x100 DUP1 DUP4 SLOAD DIV MUL DUP4 MSTORE SWAP2 PUSH1 0x20 ADD SWAP2 PUSH2 0x11B5 JUMP JUMPDEST DUP3 ADD SWAP2 SWAP1 PUSH1 0x0 MSTORE PUSH1 0x20 PUSH1 0x0 KECCAK256 SWAP1 JUMPDEST DUP2 SLOAD DUP2 MSTORE SWAP1 PUSH1 0x1 ADD SWAP1 PUSH1 0x20 ADD DUP1 DUP4 GT PUSH2 0x1198 JUMPI DUP3 SWAP1 SUB PUSH1 0x1F AND DUP3 ADD SWAP2 JUMPDEST POP POP POP POP POP SWAP1 POP JUMPDEST SWAP1 JUMP JUMPDEST PUSH1 0x0 PUSH2 0x11CB CALLER PUSH2 0x247A JUMP JUMPDEST DUP1 ISZERO PUSH2 0x11DB JUMPI POP PUSH2 0x11DB DUP4 PUSH2 0x247A JUMP JUMPDEST PUSH2 0x11E4 JUMPI PUSH1 0x0 DUP1 REVERT JUMPDEST PUSH1 0x1 PUSH1 0x1 PUSH1 0xA0 SHL SUB DUP4 AND PUSH2 0x1224 JUMPI PUSH1 0x40 DUP1 MLOAD PUSH3 0x461BCD PUSH1 0xE5 SHL DUP2 MSTORE PUSH1 0x20 PUSH1 0x4 DUP3 ADD MSTORE PUSH1 0x2 PUSH1 0x24 DUP3 ADD MSTORE PUSH2 0x1A9B PUSH1 0xF1 SHL PUSH1 0x44 DUP3 ADD MSTORE SWAP1 MLOAD SWAP1 DUP2 SWAP1 SUB PUSH1 0x64 ADD SWAP1 REVERT JUMPDEST CALLER PUSH1 0x0 DUP2 DUP2 MSTORE PUSH1 0x8 PUSH1 0x20 SWAP1 DUP2 MSTORE PUSH1 0x40 DUP1 DUP4 KECCAK256 PUSH1 0x1 PUSH1 0x1 PUSH1 0xA0 SHL SUB DUP9 AND DUP1 DUP6 MSTORE SWAP1 DUP4 MSTORE SWAP3 DUP2 SWAP1 KECCAK256 DUP7 SWAP1 SSTORE DUP1 MLOAD DUP7 DUP2 MSTORE SWAP1 MLOAD SWAP3 SWAP4 SWAP3 PUSH32 0x8C5BE1E5EBEC7D5BD14F71427D1E84F3DD0314C0F7B2291E5B200AC8C7C3B925 SWAP3 SWAP2 DUP2 SWAP1 SUB SWAP1 SWAP2 ADD SWAP1 LOG3 POP PUSH1 0x1 JUMPDEST SWAP3 SWAP2 POP POP JUMP JUMPDEST CALLER PUSH1 0x0 DUP2 DUP2 MSTORE PUSH1 0x15 PUSH1 0x20 SWAP1 DUP2 MSTORE PUSH1 0x40 DUP1 DUP4 KECCAK256 DUP7 DUP5 MSTORE DUP3 MSTORE DUP1 DUP4 KECCAK256 PUSH1 0x1 PUSH1 0x1 PUSH1 0xA0 SHL SUB DUP7 AND DUP1 DUP6 MSTORE SWAP3 MSTORE DUP1 DUP4 KECCAK256 DUP1 SLOAD PUSH1 0xFF NOT AND PUSH1 0x1 OR SWAP1 SSTORE MLOAD SWAP1 SWAP2 DUP6 SWAP2 PUSH32 0x3646A897C70797ECC134B0ADC32F471B07BF1D6F451133B0384BADAB531E3FD6 SWAP2 SWAP1 LOG4 POP POP JUMP JUMPDEST PUSH1 0x0 PUSH2 0x12FB DUP4 PUSH2 0x247A JUMP JUMPDEST DUP1 ISZERO PUSH2 0x130B JUMPI POP PUSH2 0x130B CALLER PUSH2 0x247A JUMP JUMPDEST PUSH2 0x1314 JUMPI PUSH1 0x0 DUP1 REVERT JUMPDEST PUSH1 0x1 PUSH1 0x1 PUSH1 0xA0 SHL SUB DUP4 AND PUSH2 0x1354 JUMPI PUSH1 0x40 DUP1 MLOAD PUSH3 0x461BCD PUSH1 0xE5 SHL DUP2 MSTORE PUSH1 0x20 PUSH1 0x4 DUP3 ADD MSTORE PUSH1 0x2 PUSH1 0x24 DUP3 ADD MSTORE PUSH2 0x1A9B PUSH1 0xF1 SHL PUSH1 0x44 DUP3 ADD MSTORE SWAP1 MLOAD SWAP1 DUP2 SWAP1 SUB PUSH1 0x64 ADD SWAP1 REVERT JUMPDEST PUSH1 0x0 DUP5 DUP2 MSTORE PUSH1 0x14 PUSH1 0x20 SWAP1 DUP2 MSTORE PUSH1 0x40 DUP1 DUP4 KECCAK256 CALLER DUP1 DUP6 MSTORE SWAP1 DUP4 MSTORE DUP2 DUP5 KECCAK256 PUSH1 0x1 PUSH1 0x1 PUSH1 0xA0 SHL SUB DUP9 AND DUP1 DUP7 MSTORE SWAP1 DUP5 MSTORE SWAP4 DUP3 SWAP1 KECCAK256 DUP7 SWAP1 SSTORE DUP2 MLOAD DUP7 DUP2 MSTORE SWAP2 MLOAD SWAP1 SWAP3 DUP9 SWAP3 PUSH32 0xF061499AA77C2F6F5E25E34955A06623705344A88256CC861A121EC0BCE5CFEC SWAP3 SWAP1 DUP2 SWAP1 SUB SWAP1 SWAP2 ADD SWAP1 LOG4 POP PUSH1 0x1 SWAP4 SWAP3 POP POP POP JUMP JUMPDEST CALLER PUSH1 0x0 DUP2 DUP2 MSTORE PUSH1 0x15 PUSH1 0x20 SWAP1 DUP2 MSTORE PUSH1 0x40 DUP1 DUP4 KECCAK256 DUP7 DUP5 MSTORE DUP3 MSTORE DUP1 DUP4 KECCAK256 PUSH1 0x1 PUSH1 0x1 PUSH1 0xA0 SHL SUB DUP7 AND DUP1 DUP6 MSTORE SWAP3 MSTORE DUP1 DUP4 KECCAK256 DUP1 SLOAD PUSH1 0xFF NOT AND SWAP1 SSTORE MLOAD SWAP1 SWAP2 DUP6 SWAP2 PUSH32 0x3B287C4F1BAB4DF949B33BCEACEF984F544DC5D5479930D00E4EE8C9D8DD96F2 SWAP2 SWAP1 LOG4 POP POP JUMP JUMPDEST PUSH2 0x142F PUSH2 0x1C65 JUMP JUMPDEST PUSH2 0x146E JUMPI PUSH1 0x40 DUP1 MLOAD PUSH3 0x461BCD PUSH1 0xE5 SHL DUP2 MSTORE PUSH1 0x20 PUSH1 0x4 DUP3 ADD DUP2 SWAP1 MSTORE PUSH1 0x24 DUP3 ADD MSTORE PUSH1 0x0 DUP1 MLOAD PUSH1 0x20 PUSH2 0x4195 DUP4 CODECOPY DUP2 MLOAD SWAP2 MSTORE PUSH1 0x44 DUP3 ADD MSTORE SWAP1 MLOAD SWAP1 DUP2 SWAP1 SUB PUSH1 0x64 ADD SWAP1 REVERT JUMPDEST PUSH2 0x14AB DUP4 DUP4 DUP4 DUP1 DUP1 PUSH1 0x20 MUL PUSH1 0x20 ADD PUSH1 0x40 MLOAD SWAP1 DUP2 ADD PUSH1 0x40 MSTORE DUP1 SWAP4 SWAP3 SWAP2 SWAP1 DUP2 DUP2 MSTORE PUSH1 0x20 ADD DUP4 DUP4 PUSH1 0x20 MUL DUP1 DUP3 DUP5 CALLDATACOPY PUSH1 0x0 SWAP3 ADD SWAP2 SWAP1 SWAP2 MSTORE POP PUSH2 0x2503 SWAP3 POP POP POP JUMP JUMPDEST POP POP POP JUMP JUMPDEST PUSH1 0x0 SWAP3 DUP4 MSTORE PUSH1 0x14 PUSH1 0x20 SWAP1 DUP2 MSTORE PUSH1 0x40 DUP1 DUP6 KECCAK256 PUSH1 0x1 PUSH1 0x1 PUSH1 0xA0 SHL SUB SWAP5 DUP6 AND DUP7 MSTORE DUP3 MSTORE DUP1 DUP6 KECCAK256 SWAP3 SWAP1 SWAP4 AND DUP5 MSTORE MSTORE SWAP1 KECCAK256 SLOAD SWAP1 JUMP JUMPDEST PUSH1 0x5 SLOAD SWAP1 JUMP JUMPDEST PUSH1 0x0 PUSH2 0x14F2 CALLER DUP6 PUSH2 0x2606 JUMP JUMPDEST DUP1 PUSH2 0x1520 JUMPI POP PUSH1 0x1 PUSH1 0x1 PUSH1 0xA0 SHL SUB DUP5 AND PUSH1 0x0 SWAP1 DUP2 MSTORE PUSH1 0x8 PUSH1 0x20 SWAP1 DUP2 MSTORE PUSH1 0x40 DUP1 DUP4 KECCAK256 CALLER DUP5 MSTORE SWAP1 SWAP2 MSTORE SWAP1 KECCAK256 SLOAD DUP3 GT ISZERO JUMPDEST PUSH2 0x1556 JUMPI PUSH1 0x40 DUP1 MLOAD PUSH3 0x461BCD PUSH1 0xE5 SHL DUP2 MSTORE PUSH1 0x20 PUSH1 0x4 DUP3 ADD MSTORE PUSH1 0x2 PUSH1 0x24 DUP3 ADD MSTORE PUSH2 0x3533 PUSH1 0xF0 SHL PUSH1 0x44 DUP3 ADD MSTORE SWAP1 MLOAD SWAP1 DUP2 SWAP1 SUB PUSH1 0x64 ADD SWAP1 REVERT JUMPDEST PUSH1 0x1 PUSH1 0x1 PUSH1 0xA0 SHL SUB DUP5 AND PUSH1 0x0 SWAP1 DUP2 MSTORE PUSH1 0x8 PUSH1 0x20 SWAP1 DUP2 MSTORE PUSH1 0x40 DUP1 DUP4 KECCAK256 CALLER DUP5 MSTORE SWAP1 SWAP2 MSTORE SWAP1 KECCAK256 SLOAD DUP3 GT PUSH2 0x15DD JUMPI PUSH1 0x1 PUSH1 0x1 PUSH1 0xA0 SHL SUB DUP5 AND PUSH1 0x0 SWAP1 DUP2 MSTORE PUSH1 0x8 PUSH1 0x20 SWAP1 DUP2 MSTORE PUSH1 0x40 DUP1 DUP4 KECCAK256 CALLER DUP5 MSTORE SWAP1 SWAP2 MSTORE SWAP1 KECCAK256 SLOAD PUSH2 0x15B4 SWAP1 DUP4 PUSH4 0xFFFFFFFF PUSH2 0x2687 AND JUMP JUMPDEST PUSH1 0x1 PUSH1 0x1 PUSH1 0xA0 SHL SUB DUP6 AND PUSH1 0x0 SWAP1 DUP2 MSTORE PUSH1 0x8 PUSH1 0x20 SWAP1 DUP2 MSTORE PUSH1 0x40 DUP1 DUP4 KECCAK256 CALLER DUP5 MSTORE SWAP1 SWAP2 MSTORE SWAP1 KECCAK256 SSTORE PUSH2 0x1602 JUMP JUMPDEST PUSH1 0x1 PUSH1 0x1 PUSH1 0xA0 SHL SUB DUP5 AND PUSH1 0x0 SWAP1 DUP2 MSTORE PUSH1 0x8 PUSH1 0x20 SWAP1 DUP2 MSTORE PUSH1 0x40 DUP1 DUP4 KECCAK256 CALLER DUP5 MSTORE SWAP1 SWAP2 MSTORE DUP2 KECCAK256 SSTORE JUMPDEST PUSH2 0x161E CALLER DUP6 DUP6 DUP6 PUSH1 0x40 MLOAD DUP1 PUSH1 0x20 ADD PUSH1 0x40 MSTORE DUP1 PUSH1 0x0 DUP2 MSTORE POP PUSH2 0x26C9 JUMP JUMPDEST POP PUSH1 0x1 SWAP4 SWAP3 POP POP POP JUMP JUMPDEST PUSH2 0x166B CALLER CALLER DUP7 DUP7 DUP7 DUP7 DUP1 DUP1 PUSH1 0x1F ADD PUSH1 0x20 DUP1 SWAP2 DIV MUL PUSH1 0x20 ADD PUSH1 0x40 MLOAD SWAP1 DUP2 ADD PUSH1 0x40 MSTORE DUP1 SWAP4 SWAP3 SWAP2 SWAP1 DUP2 DUP2 MSTORE PUSH1 0x20 ADD DUP4 DUP4 DUP1 DUP3 DUP5 CALLDATACOPY PUSH1 0x0 SWAP3 ADD SWAP2 SWAP1 SWAP2 MSTORE POP PUSH2 0x26C9 SWAP3 POP POP POP JUMP JUMPDEST POP POP POP POP JUMP JUMPDEST PUSH1 0x6 SLOAD PUSH1 0x1 PUSH1 0xB0 SHL SWAP1 DIV PUSH1 0xFF AND SWAP1 JUMP JUMPDEST PUSH2 0x168A CALLER PUSH2 0x1EF2 JUMP JUMPDEST DUP1 PUSH2 0x1698 JUMPI POP PUSH2 0x1698 PUSH2 0x1C65 JUMP JUMPDEST PUSH2 0x16A1 JUMPI PUSH1 0x0 DUP1 REVERT JUMPDEST PUSH2 0x16AA DUP2 PUSH2 0x285A JUMP JUMPDEST POP JUMP JUMPDEST PUSH1 0x1 PUSH1 0x1 PUSH1 0xA0 SHL SUB AND PUSH1 0x0 SWAP1 DUP2 MSTORE PUSH1 0xF PUSH1 0x20 SWAP1 DUP2 MSTORE PUSH1 0x40 DUP1 DUP4 KECCAK256 SWAP4 DUP4 MSTORE SWAP3 SWAP1 MSTORE KECCAK256 SLOAD SWAP1 JUMP JUMPDEST PUSH1 0x12 SWAP1 JUMP JUMPDEST PUSH1 0x6 SLOAD PUSH1 0x1 PUSH1 0xA8 SHL SWAP1 DIV PUSH1 0xFF AND SWAP1 JUMP JUMPDEST PUSH1 0x4 SLOAD SWAP1 JUMP JUMPDEST PUSH2 0x166B DUP5 CALLER CALLER DUP7 DUP7 DUP7 DUP1 DUP1 PUSH1 0x1F ADD PUSH1 0x20 DUP1 SWAP2 DIV MUL PUSH1 0x20 ADD PUSH1 0x40 MLOAD SWAP1 DUP2 ADD PUSH1 0x40 MSTORE DUP1 SWAP4 SWAP3 SWAP2 SWAP1 DUP2 DUP2 MSTORE PUSH1 0x20 ADD DUP4 DUP4 DUP1 DUP3 DUP5 CALLDATACOPY PUSH1 0x0 SWAP3 ADD DUP3 SWAP1 MSTORE POP PUSH1 0x40 DUP1 MLOAD PUSH1 0x20 DUP2 ADD SWAP1 SWAP2 MSTORE SWAP1 DUP2 MSTORE SWAP3 POP PUSH2 0x28A2 SWAP2 POP POP JUMP JUMPDEST PUSH2 0x1747 CALLER PUSH2 0x1EF2 JUMP JUMPDEST DUP1 PUSH2 0x1755 JUMPI POP PUSH2 0x1755 PUSH2 0x1C65 JUMP JUMPDEST PUSH2 0x175E JUMPI PUSH1 0x0 DUP1 REVERT JUMPDEST PUSH1 0x6 SLOAD PUSH1 0x1 PUSH1 0xB0 SHL SWAP1 DIV PUSH1 0xFF AND PUSH2 0x17A1 JUMPI PUSH1 0x40 DUP1 MLOAD PUSH3 0x461BCD PUSH1 0xE5 SHL DUP2 MSTORE PUSH1 0x20 PUSH1 0x4 DUP3 ADD MSTORE PUSH1 0x2 PUSH1 0x24 DUP3 ADD MSTORE PUSH2 0x3535 PUSH1 0xF0 SHL PUSH1 0x44 DUP3 ADD MSTORE SWAP1 MLOAD SWAP1 DUP2 SWAP1 SUB PUSH1 0x64 ADD SWAP1 REVERT JUMPDEST PUSH2 0x17E4 DUP6 CALLER DUP7 DUP7 DUP7 DUP7 DUP1 DUP1 PUSH1 0x1F ADD PUSH1 0x20 DUP1 SWAP2 DIV MUL PUSH1 0x20 ADD PUSH1 0x40 MLOAD SWAP1 DUP2 ADD PUSH1 0x40 MSTORE DUP1 SWAP4 SWAP3 SWAP2 SWAP1 DUP2 DUP2 MSTORE PUSH1 0x20 ADD DUP4 DUP4 DUP1 DUP3 DUP5 CALLDATACOPY PUSH1 0x0 SWAP3 ADD SWAP2 SWAP1 SWAP2 MSTORE POP PUSH2 0x2A16 SWAP3 POP POP POP JUMP JUMPDEST POP POP POP POP POP JUMP JUMPDEST PUSH1 0x60 PUSH1 0xA DUP1 SLOAD DUP1 PUSH1 0x20 MUL PUSH1 0x20 ADD PUSH1 0x40 MLOAD SWAP1 DUP2 ADD PUSH1 0x40 MSTORE DUP1 SWAP3 SWAP2 SWAP1 DUP2 DUP2 MSTORE PUSH1 0x20 ADD DUP3 DUP1 SLOAD DUP1 ISZERO PUSH2 0x11B5 JUMPI PUSH1 0x20 MUL DUP3 ADD SWAP2 SWAP1 PUSH1 0x0 MSTORE PUSH1 0x20 PUSH1 0x0 KECCAK256 SWAP1 JUMPDEST DUP2 SLOAD DUP2 MSTORE PUSH1 0x20 ADD SWAP1 PUSH1 0x1 ADD SWAP1 DUP1 DUP4 GT PUSH2 0x1825 JUMPI POP POP POP POP POP SWAP1 POP SWAP1 JUMP JUMPDEST PUSH2 0x184A PUSH2 0x1C65 JUMP JUMPDEST PUSH2 0x1889 JUMPI PUSH1 0x40 DUP1 MLOAD PUSH3 0x461BCD PUSH1 0xE5 SHL DUP2 MSTORE PUSH1 0x20 PUSH1 0x4 DUP3 ADD DUP2 SWAP1 MSTORE PUSH1 0x24 DUP3 ADD MSTORE PUSH1 0x0 DUP1 MLOAD PUSH1 0x20 PUSH2 0x4195 DUP4 CODECOPY DUP2 MLOAD SWAP2 MSTORE PUSH1 0x44 DUP3 ADD MSTORE SWAP1 MLOAD SWAP1 DUP2 SWAP1 SUB PUSH1 0x64 ADD SWAP1 REVERT JUMPDEST PUSH1 0x6 DUP1 SLOAD PUSH1 0xFF PUSH1 0xB0 SHL NOT AND SWAP1 SSTORE JUMP JUMPDEST PUSH1 0x0 PUSH2 0x18A5 DUP5 DUP5 DUP5 PUSH2 0x2B59 JUMP JUMPDEST SWAP5 SWAP4 POP POP POP POP JUMP JUMPDEST PUSH1 0x1 PUSH1 0x1 PUSH1 0xA0 SHL SUB AND PUSH1 0x0 SWAP1 DUP2 MSTORE PUSH1 0x7 PUSH1 0x20 MSTORE PUSH1 0x40 SWAP1 KECCAK256 SLOAD SWAP1 JUMP JUMPDEST PUSH2 0x18D0 PUSH2 0x1C65 JUMP JUMPDEST PUSH2 0x190F JUMPI PUSH1 0x40 DUP1 MLOAD PUSH3 0x461BCD PUSH1 0xE5 SHL DUP2 MSTORE PUSH1 0x20 PUSH1 0x4 DUP3 ADD DUP2 SWAP1 MSTORE PUSH1 0x24 DUP3 ADD MSTORE PUSH1 0x0 DUP1 MLOAD PUSH1 0x20 PUSH2 0x4195 DUP4 CODECOPY DUP2 MLOAD SWAP2 MSTORE PUSH1 0x44 DUP3 ADD MSTORE SWAP1 MLOAD SWAP1 DUP2 SWAP1 SUB PUSH1 0x64 ADD SWAP1 REVERT JUMPDEST PUSH1 0x1 SLOAD PUSH1 0x40 MLOAD PUSH1 0x0 SWAP2 PUSH1 0x1 PUSH1 0x1 PUSH1 0xA0 SHL SUB AND SWAP1 PUSH32 0x8BE0079C531659141344CD1FD0A4F28419497F9722A3DAAFE3B4186F6B6457E0 SWAP1 DUP4 SWAP1 LOG3 PUSH1 0x1 DUP1 SLOAD PUSH1 0x1 PUSH1 0x1 PUSH1 0xA0 SHL SUB NOT AND SWAP1 SSTORE JUMP JUMPDEST PUSH1 0x1 PUSH1 0x1 PUSH1 0xA0 SHL SUB DUP2 AND PUSH1 0x0 SWAP1 DUP2 MSTORE PUSH1 0xD PUSH1 0x20 SWAP1 DUP2 MSTORE PUSH1 0x40 SWAP2 DUP3 SWAP1 KECCAK256 DUP1 SLOAD DUP4 MLOAD DUP2 DUP5 MUL DUP2 ADD DUP5 ADD SWAP1 SWAP5 MSTORE DUP1 DUP5 MSTORE PUSH1 0x60 SWAP4 SWAP3 DUP4 ADD DUP3 DUP3 DUP1 ISZERO PUSH2 0x19B9 JUMPI PUSH1 0x20 MUL DUP3 ADD SWAP2 SWAP1 PUSH1 0x0 MSTORE PUSH1 0x20 PUSH1 0x0 KECCAK256 SWAP1 JUMPDEST DUP2 SLOAD DUP2 MSTORE PUSH1 0x20 ADD SWAP1 PUSH1 0x1 ADD SWAP1 DUP1 DUP4 GT PUSH2 0x19A5 JUMPI JUMPDEST POP POP POP POP POP SWAP1 POP SWAP2 SWAP1 POP JUMP JUMPDEST PUSH1 0x60 PUSH1 0x12 DUP1 SLOAD DUP1 PUSH1 0x20 MUL PUSH1 0x20 ADD PUSH1 0x40 MLOAD SWAP1 DUP2 ADD PUSH1 0x40 MSTORE DUP1 SWAP3 SWAP2 SWAP1 DUP2 DUP2 MSTORE PUSH1 0x20 ADD DUP3 DUP1 SLOAD DUP1 ISZERO PUSH2 0x11B5 JUMPI PUSH1 0x20 MUL DUP3 ADD SWAP2 SWAP1 PUSH1 0x0 MSTORE PUSH1 0x20 PUSH1 0x0 KECCAK256 SWAP1 JUMPDEST DUP2 SLOAD PUSH1 0x1 PUSH1 0x1 PUSH1 0xA0 SHL SUB AND DUP2 MSTORE PUSH1 0x1 SWAP1 SWAP2 ADD SWAP1 PUSH1 0x20 ADD DUP1 DUP4 GT PUSH2 0x19FF JUMPI POP POP POP POP POP SWAP1 POP SWAP1 JUMP JUMPDEST PUSH1 0x0 DUP2 DUP2 MSTORE PUSH1 0x16 PUSH1 0x20 SWAP1 DUP2 MSTORE PUSH1 0x40 SWAP2 DUP3 SWAP1 KECCAK256 DUP1 SLOAD DUP4 MLOAD DUP2 DUP5 MUL DUP2 ADD DUP5 ADD SWAP1 SWAP5 MSTORE DUP1 DUP5 MSTORE PUSH1 0x60 SWAP4 SWAP3 DUP4 ADD DUP3 DUP3 DUP1 ISZERO PUSH2 0x19B9 JUMPI PUSH1 0x20 MUL DUP3 ADD SWAP2 SWAP1 PUSH1 0x0 MSTORE PUSH1 0x20 PUSH1 0x0 KECCAK256 SWAP1 JUMPDEST DUP2 SLOAD PUSH1 0x1 PUSH1 0x1 PUSH1 0xA0 SHL SUB AND DUP2 MSTORE PUSH1 0x1 SWAP1 SWAP2 ADD SWAP1 PUSH1 0x20 ADD DUP1 DUP4 GT PUSH2 0x1A68 JUMPI POP POP POP POP POP SWAP1 POP SWAP2 SWAP1 POP JUMP JUMPDEST PUSH1 0x0 PUSH2 0x1A9E DUP10 CALLER DUP11 PUSH2 0x2B59 JUMP JUMPDEST DUP1 PUSH2 0x1AD3 JUMPI POP PUSH1 0x0 DUP10 DUP2 MSTORE PUSH1 0x14 PUSH1 0x20 SWAP1 DUP2 MSTORE PUSH1 0x40 DUP1 DUP4 KECCAK256 PUSH1 0x1 PUSH1 0x1 PUSH1 0xA0 SHL SUB DUP13 AND DUP5 MSTORE DUP3 MSTORE DUP1 DUP4 KECCAK256 CALLER DUP5 MSTORE SWAP1 SWAP2 MSTORE SWAP1 KECCAK256 SLOAD DUP7 GT ISZERO JUMPDEST PUSH2 0x1B09 JUMPI PUSH1 0x40 DUP1 MLOAD PUSH3 0x461BCD PUSH1 0xE5 SHL DUP2 MSTORE PUSH1 0x20 PUSH1 0x4 DUP3 ADD MSTORE PUSH1 0x2 PUSH1 0x24 DUP3 ADD MSTORE PUSH2 0x3533 PUSH1 0xF0 SHL PUSH1 0x44 DUP3 ADD MSTORE SWAP1 MLOAD SWAP1 DUP2 SWAP1 SUB PUSH1 0x64 ADD SWAP1 REVERT JUMPDEST PUSH1 0x0 DUP10 DUP2 MSTORE PUSH1 0x14 PUSH1 0x20 SWAP1 DUP2 MSTORE PUSH1 0x40 DUP1 DUP4 KECCAK256 PUSH1 0x1 PUSH1 0x1 PUSH1 0xA0 SHL SUB DUP13 AND DUP5 MSTORE DUP3 MSTORE DUP1 DUP4 KECCAK256 CALLER DUP5 MSTORE SWAP1 SWAP2 MSTORE SWAP1 KECCAK256 SLOAD DUP7 GT PUSH2 0x1BA5 JUMPI PUSH1 0x0 DUP10 DUP2 MSTORE PUSH1 0x14 PUSH1 0x20 SWAP1 DUP2 MSTORE PUSH1 0x40 DUP1 DUP4 KECCAK256 PUSH1 0x1 PUSH1 0x1 PUSH1 0xA0 SHL SUB DUP13 AND DUP5 MSTORE DUP3 MSTORE DUP1 DUP4 KECCAK256 CALLER DUP5 MSTORE SWAP1 SWAP2 MSTORE SWAP1 KECCAK256 SLOAD PUSH2 0x1B75 SWAP1 DUP8 PUSH4 0xFFFFFFFF PUSH2 0x2687 AND JUMP JUMPDEST PUSH1 0x0 DUP11 DUP2 MSTORE PUSH1 0x14 PUSH1 0x20 SWAP1 DUP2 MSTORE PUSH1 0x40 DUP1 DUP4 KECCAK256 PUSH1 0x1 PUSH1 0x1 PUSH1 0xA0 SHL SUB DUP14 AND DUP5 MSTORE DUP3 MSTORE DUP1 DUP4 KECCAK256 CALLER DUP5 MSTORE SWAP1 SWAP2 MSTORE SWAP1 KECCAK256 SSTORE PUSH2 0x1BD1 JUMP JUMPDEST PUSH1 0x0 DUP10 DUP2 MSTORE PUSH1 0x14 PUSH1 0x20 SWAP1 DUP2 MSTORE PUSH1 0x40 DUP1 DUP4 KECCAK256 PUSH1 0x1 PUSH1 0x1 PUSH1 0xA0 SHL SUB DUP13 AND DUP5 MSTORE DUP3 MSTORE DUP1 DUP4 KECCAK256 CALLER DUP5 MSTORE SWAP1 SWAP2 MSTORE DUP2 KECCAK256 SSTORE JUMPDEST PUSH2 0x1C49 DUP10 CALLER DUP11 DUP11 DUP11 DUP11 DUP11 DUP1 DUP1 PUSH1 0x1F ADD PUSH1 0x20 DUP1 SWAP2 DIV MUL PUSH1 0x20 ADD PUSH1 0x40 MLOAD SWAP1 DUP2 ADD PUSH1 0x40 MSTORE DUP1 SWAP4 SWAP3 SWAP2 SWAP1 DUP2 DUP2 MSTORE PUSH1 0x20 ADD DUP4 DUP4 DUP1 DUP3 DUP5 CALLDATACOPY PUSH1 0x0 SWAP3 ADD SWAP2 SWAP1 SWAP2 MSTORE POP POP PUSH1 0x40 DUP1 MLOAD PUSH1 0x20 PUSH1 0x1F DUP15 ADD DUP2 SWAP1 DIV DUP2 MUL DUP3 ADD DUP2 ADD SWAP1 SWAP3 MSTORE DUP13 DUP2 MSTORE SWAP3 POP DUP13 SWAP2 POP DUP12 SWAP1 DUP2 SWAP1 DUP5 ADD DUP4 DUP3 DUP1 DUP3 DUP5 CALLDATACOPY PUSH1 0x0 SWAP3 ADD SWAP2 SWAP1 SWAP2 MSTORE POP PUSH2 0x2BE4 SWAP3 POP POP POP JUMP JUMPDEST SWAP10 SWAP9 POP POP POP POP POP POP POP POP POP JUMP JUMPDEST PUSH1 0x1 SLOAD PUSH1 0x1 PUSH1 0x1 PUSH1 0xA0 SHL SUB AND SWAP1 JUMP JUMPDEST PUSH1 0x1 SLOAD PUSH1 0x0 SWAP1 PUSH1 0x1 PUSH1 0x1 PUSH1 0xA0 SHL SUB AND PUSH2 0x1C7C PUSH2 0x2E69 JUMP JUMPDEST PUSH1 0x1 PUSH1 0x1 PUSH1 0xA0 SHL SUB AND EQ SWAP1 POP SWAP1 JUMP JUMPDEST PUSH1 0x6 SLOAD PUSH2 0x100 SWAP1 DIV PUSH1 0x1 PUSH1 0x1 PUSH1 0xA0 SHL SUB AND DUP2 JUMP JUMPDEST PUSH1 0x1 PUSH1 0x1 PUSH1 0xA0 SHL SUB DUP2 AND CALLER EQ ISZERO PUSH2 0x1CB5 JUMPI PUSH1 0x0 DUP1 REVERT JUMPDEST PUSH1 0x1 PUSH1 0x1 PUSH1 0xA0 SHL SUB DUP2 AND PUSH1 0x0 DUP2 DUP2 MSTORE PUSH1 0x11 PUSH1 0x20 SWAP1 DUP2 MSTORE PUSH1 0x40 DUP1 DUP4 KECCAK256 CALLER DUP1 DUP6 MSTORE SWAP3 MSTORE DUP1 DUP4 KECCAK256 DUP1 SLOAD PUSH1 0xFF NOT AND PUSH1 0x1 OR SWAP1 SSTORE MLOAD SWAP1 SWAP3 SWAP2 PUSH32 0xF4CAEB2D6CA8932A215A353D0703C326EC2D81FC68170F320EB2AB49E9DF61F9 SWAP2 LOG3 POP JUMP JUMPDEST PUSH1 0x3 DUP1 SLOAD PUSH1 0x40 DUP1 MLOAD PUSH1 0x20 PUSH1 0x1F PUSH1 0x2 PUSH1 0x0 NOT PUSH2 0x100 PUSH1 0x1 DUP9 AND ISZERO MUL ADD SWAP1 SWAP6 AND SWAP5 SWAP1 SWAP5 DIV SWAP4 DUP5 ADD DUP2 SWAP1 DIV DUP2 MUL DUP3 ADD DUP2 ADD SWAP1 SWAP3 MSTORE DUP3 DUP2 MSTORE PUSH1 0x60 SWAP4 SWAP1 SWAP3 SWAP1 SWAP2 DUP4 ADD DUP3 DUP3 DUP1 ISZERO PUSH2 0x11B5 JUMPI DUP1 PUSH1 0x1F LT PUSH2 0x118A JUMPI PUSH2 0x100 DUP1 DUP4 SLOAD DIV MUL DUP4 MSTORE SWAP2 PUSH1 0x20 ADD SWAP2 PUSH2 0x11B5 JUMP JUMPDEST PUSH2 0x1D79 CALLER DUP6 PUSH2 0x2606 JUMP JUMPDEST PUSH2 0x1DAF JUMPI PUSH1 0x40 DUP1 MLOAD PUSH3 0x461BCD PUSH1 0xE5 SHL DUP2 MSTORE PUSH1 0x20 PUSH1 0x4 DUP3 ADD MSTORE PUSH1 0x2 PUSH1 0x24 DUP3 ADD MSTORE PUSH2 0x6A7 PUSH1 0xF3 SHL PUSH1 0x44 DUP3 ADD MSTORE SWAP1 MLOAD SWAP1 DUP2 SWAP1 SUB PUSH1 0x64 ADD SWAP1 REVERT JUMPDEST PUSH2 0x166B CALLER DUP6 DUP6 DUP6 DUP6 DUP1 DUP1 PUSH1 0x1F ADD PUSH1 0x20 DUP1 SWAP2 DIV MUL PUSH1 0x20 ADD PUSH1 0x40 MLOAD SWAP1 DUP2 ADD PUSH1 0x40 MSTORE DUP1 SWAP4 SWAP3 SWAP2 SWAP1 DUP2 DUP2 MSTORE PUSH1 0x20 ADD DUP4 DUP4 DUP1 DUP3 DUP5 CALLDATACOPY PUSH1 0x0 SWAP3 ADD SWAP2 SWAP1 SWAP2 MSTORE POP PUSH2 0x2E6D SWAP3 POP POP POP JUMP JUMPDEST PUSH2 0x1DFA CALLER PUSH2 0x1EF2 JUMP JUMPDEST DUP1 PUSH2 0x1E08 JUMPI POP PUSH2 0x1E08 PUSH2 0x1C65 JUMP JUMPDEST PUSH2 0x1E11 JUMPI PUSH1 0x0 DUP1 REVERT JUMPDEST PUSH2 0x16AA DUP2 PUSH2 0x2FE2 JUMP JUMPDEST PUSH2 0x1E23 CALLER PUSH2 0x285A JUMP JUMPDEST JUMP JUMPDEST PUSH2 0x1E30 DUP6 CALLER DUP7 PUSH2 0x2B59 JUMP JUMPDEST PUSH2 0x1E66 JUMPI PUSH1 0x40 DUP1 MLOAD PUSH3 0x461BCD PUSH1 0xE5 SHL DUP2 MSTORE PUSH1 0x20 PUSH1 0x4 DUP3 ADD MSTORE PUSH1 0x2 PUSH1 0x24 DUP3 ADD MSTORE PUSH2 0x6A7 PUSH1 0xF3 SHL PUSH1 0x44 DUP3 ADD MSTORE SWAP1 MLOAD SWAP1 DUP2 SWAP1 SUB PUSH1 0x64 ADD SWAP1 REVERT JUMPDEST PUSH2 0x17E4 DUP6 CALLER DUP7 DUP7 PUSH1 0x40 MLOAD DUP1 PUSH1 0x20 ADD PUSH1 0x40 MSTORE DUP1 PUSH1 0x0 DUP2 MSTORE POP DUP8 DUP8 DUP1 DUP1 PUSH1 0x1F ADD PUSH1 0x20 DUP1 SWAP2 DIV MUL PUSH1 0x20 ADD PUSH1 0x40 MLOAD SWAP1 DUP2 ADD PUSH1 0x40 MSTORE DUP1 SWAP4 SWAP3 SWAP2 SWAP1 DUP2 DUP2 MSTORE PUSH1 0x20 ADD DUP4 DUP4 DUP1 DUP3 DUP5 CALLDATACOPY PUSH1 0x0 SWAP3 ADD SWAP2 SWAP1 SWAP2 MSTORE POP PUSH2 0x28A2 SWAP3 POP POP POP JUMP JUMPDEST PUSH1 0x0 SWAP1 DUP2 MSTORE PUSH1 0xC PUSH1 0x20 MSTORE PUSH1 0x40 SWAP1 KECCAK256 SLOAD SWAP1 JUMP JUMPDEST PUSH1 0x0 PUSH2 0x1EE9 CALLER CALLER DUP6 DUP6 PUSH1 0x40 MLOAD DUP1 PUSH1 0x20 ADD PUSH1 0x40 MSTORE DUP1 PUSH1 0x0 DUP2 MSTORE POP PUSH2 0x26C9 JUMP JUMPDEST POP PUSH1 0x1 SWAP3 SWAP2 POP POP JUMP JUMPDEST PUSH1 0x0 PUSH2 0x1286 DUP2 DUP4 PUSH4 0xFFFFFFFF PUSH2 0x302A AND JUMP JUMPDEST PUSH1 0x0 DUP2 DUP2 MSTORE PUSH1 0x9 PUSH1 0x20 MSTORE PUSH1 0x40 DUP2 KECCAK256 SLOAD PUSH1 0x60 SWAP2 SWAP1 PUSH1 0x2 PUSH1 0x0 NOT PUSH2 0x100 PUSH1 0x1 DUP5 AND ISZERO MUL ADD SWAP1 SWAP2 AND DIV PUSH2 0x1F33 JUMPI PUSH1 0x0 DUP1 REVERT JUMPDEST PUSH1 0x0 DUP4 DUP2 MSTORE PUSH1 0x9 PUSH1 0x20 SWAP1 DUP2 MSTORE PUSH1 0x40 SWAP2 DUP3 SWAP1 KECCAK256 PUSH1 0x1 DUP1 DUP3 ADD SLOAD DUP3 SLOAD DUP6 MLOAD PUSH1 0x2 SWAP4 DUP3 AND ISZERO PUSH2 0x100 MUL PUSH1 0x0 NOT ADD SWAP1 SWAP2 AND SWAP3 SWAP1 SWAP3 DIV PUSH1 0x1F DUP2 ADD DUP6 SWAP1 DIV DUP6 MUL DUP4 ADD DUP6 ADD SWAP1 SWAP6 MSTORE DUP5 DUP3 MSTORE SWAP2 SWAP4 SWAP2 SWAP3 SWAP1 SWAP2 DUP5 SWAP2 DUP4 ADD DUP3 DUP3 DUP1 ISZERO PUSH2 0x1FD0 JUMPI DUP1 PUSH1 0x1F LT PUSH2 0x1FA5 JUMPI PUSH2 0x100 DUP1 DUP4 SLOAD DIV MUL DUP4 MSTORE SWAP2 PUSH1 0x20 ADD SWAP2 PUSH2 0x1FD0 JUMP JUMPDEST DUP3 ADD SWAP2 SWAP1 PUSH1 0x0 MSTORE PUSH1 0x20 PUSH1 0x0 KECCAK256 SWAP1 JUMPDEST DUP2 SLOAD DUP2 MSTORE SWAP1 PUSH1 0x1 ADD SWAP1 PUSH1 0x20 ADD DUP1 DUP4 GT PUSH2 0x1FB3 JUMPI DUP3 SWAP1 SUB PUSH1 0x1F AND DUP3 ADD SWAP2 JUMPDEST POP POP POP POP POP SWAP2 POP SWAP2 POP SWAP2 POP SWAP2 POP SWAP2 JUMP JUMPDEST PUSH1 0x0 PUSH2 0x1FEC DUP4 DUP4 PUSH2 0x2606 JUMP JUMPDEST SWAP4 SWAP3 POP POP POP JUMP JUMPDEST PUSH2 0x1FFC CALLER PUSH2 0x1EF2 JUMP JUMPDEST DUP1 PUSH2 0x200A JUMPI POP PUSH2 0x200A PUSH2 0x1C65 JUMP JUMPDEST PUSH2 0x2013 JUMPI PUSH1 0x0 DUP1 REVERT JUMPDEST PUSH1 0x6 SLOAD PUSH1 0x1 PUSH1 0xB0 SHL SWAP1 DIV PUSH1 0xFF AND PUSH2 0x2056 JUMPI PUSH1 0x40 DUP1 MLOAD PUSH3 0x461BCD PUSH1 0xE5 SHL DUP2 MSTORE PUSH1 0x20 PUSH1 0x4 DUP3 ADD MSTORE PUSH1 0x2 PUSH1 0x24 DUP3 ADD MSTORE PUSH2 0x3535 PUSH1 0xF0 SHL PUSH1 0x44 DUP3 ADD MSTORE SWAP1 MLOAD SWAP1 DUP2 SWAP1 SUB PUSH1 0x64 ADD SWAP1 REVERT JUMPDEST PUSH1 0x10 SLOAD PUSH2 0x208F JUMPI PUSH1 0x40 DUP1 MLOAD PUSH3 0x461BCD PUSH1 0xE5 SHL DUP2 MSTORE PUSH1 0x20 PUSH1 0x4 DUP3 ADD MSTORE PUSH1 0x2 PUSH1 0x24 DUP3 ADD MSTORE PUSH2 0x3535 PUSH1 0xF0 SHL PUSH1 0x44 DUP3 ADD MSTORE SWAP1 MLOAD SWAP1 DUP2 SWAP1 SUB PUSH1 0x64 ADD SWAP1 REVERT JUMPDEST PUSH2 0x166B PUSH1 0x10 PUSH1 0x0 DUP2 SLOAD DUP2 LT PUSH2 0x20A0 JUMPI INVALID JUMPDEST SWAP1 PUSH1 0x0 MSTORE PUSH1 0x20 PUSH1 0x0 KECCAK256 ADD SLOAD CALLER DUP7 DUP7 DUP7 DUP7 DUP1 DUP1 PUSH1 0x1F ADD PUSH1 0x20 DUP1 SWAP2 DIV MUL PUSH1 0x20 ADD PUSH1 0x40 MLOAD SWAP1 DUP2 ADD PUSH1 0x40 MSTORE DUP1 SWAP4 SWAP3 SWAP2 SWAP1 DUP2 DUP2 MSTORE PUSH1 0x20 ADD DUP4 DUP4 DUP1 DUP3 DUP5 CALLDATACOPY PUSH1 0x0 SWAP3 ADD SWAP2 SWAP1 SWAP2 MSTORE POP PUSH2 0x2A16 SWAP3 POP POP POP JUMP JUMPDEST PUSH1 0x60 PUSH1 0x10 DUP1 SLOAD DUP1 PUSH1 0x20 MUL PUSH1 0x20 ADD PUSH1 0x40 MLOAD SWAP1 DUP2 ADD PUSH1 0x40 MSTORE DUP1 SWAP3 SWAP2 SWAP1 DUP2 DUP2 MSTORE PUSH1 0x20 ADD DUP3 DUP1 SLOAD DUP1 ISZERO PUSH2 0x11B5 JUMPI PUSH1 0x20 MUL DUP3 ADD SWAP2 SWAP1 PUSH1 0x0 MSTORE PUSH1 0x20 PUSH1 0x0 KECCAK256 SWAP1 DUP2 SLOAD DUP2 MSTORE PUSH1 0x20 ADD SWAP1 PUSH1 0x1 ADD SWAP1 DUP1 DUP4 GT PUSH2 0x1825 JUMPI POP POP POP POP POP SWAP1 POP SWAP1 JUMP JUMPDEST PUSH2 0x2148 PUSH2 0x1C65 JUMP JUMPDEST PUSH2 0x2187 JUMPI PUSH1 0x40 DUP1 MLOAD PUSH3 0x461BCD PUSH1 0xE5 SHL DUP2 MSTORE PUSH1 0x20 PUSH1 0x4 DUP3 ADD DUP2 SWAP1 MSTORE PUSH1 0x24 DUP3 ADD MSTORE PUSH1 0x0 DUP1 MLOAD PUSH1 0x20 PUSH2 0x4195 DUP4 CODECOPY DUP2 MLOAD SWAP2 MSTORE PUSH1 0x44 DUP3 ADD MSTORE SWAP1 MLOAD SWAP1 DUP2 SWAP1 SUB PUSH1 0x64 ADD SWAP1 REVERT JUMPDEST PUSH1 0x6 DUP1 SLOAD PUSH1 0xFF PUSH1 0xA8 SHL NOT AND SWAP1 SSTORE JUMP JUMPDEST PUSH1 0x1 PUSH1 0x1 PUSH1 0xA0 SHL SUB SWAP2 DUP3 AND PUSH1 0x0 SWAP1 DUP2 MSTORE PUSH1 0x8 PUSH1 0x20 SWAP1 DUP2 MSTORE PUSH1 0x40 DUP1 DUP4 KECCAK256 SWAP4 SWAP1 SWAP5 AND DUP3 MSTORE SWAP2 SWAP1 SWAP2 MSTORE KECCAK256 SLOAD SWAP1 JUMP JUMPDEST PUSH2 0x14AB CALLER CALLER DUP6 DUP6 DUP6 DUP1 DUP1 PUSH1 0x1F ADD PUSH1 0x20 DUP1 SWAP2 DIV MUL PUSH1 0x20 ADD PUSH1 0x40 MLOAD SWAP1 DUP2 ADD PUSH1 0x40 MSTORE DUP1 SWAP4 SWAP3 SWAP2 SWAP1 DUP2 DUP2 MSTORE PUSH1 0x20 ADD DUP4 DUP4 DUP1 DUP3 DUP5 CALLDATACOPY PUSH1 0x0 SWAP3 ADD SWAP2 SWAP1 SWAP2 MSTORE POP PUSH2 0x2E6D SWAP3 POP POP POP JUMP JUMPDEST PUSH2 0x220B PUSH2 0x1C65 JUMP JUMPDEST PUSH2 0x224A JUMPI PUSH1 0x40 DUP1 MLOAD PUSH3 0x461BCD PUSH1 0xE5 SHL DUP2 MSTORE PUSH1 0x20 PUSH1 0x4 DUP3 ADD DUP2 SWAP1 MSTORE PUSH1 0x24 DUP3 ADD MSTORE PUSH1 0x0 DUP1 MLOAD PUSH1 0x20 PUSH2 0x4195 DUP4 CODECOPY DUP2 MLOAD SWAP2 MSTORE PUSH1 0x44 DUP3 ADD MSTORE SWAP1 MLOAD SWAP1 DUP2 SWAP1 SUB PUSH1 0x64 ADD SWAP1 REVERT JUMPDEST PUSH2 0x2286 DUP3 DUP3 DUP1 DUP1 PUSH1 0x20 MUL PUSH1 0x20 ADD PUSH1 0x40 MLOAD SWAP1 DUP2 ADD PUSH1 0x40 MSTORE DUP1 SWAP4 SWAP3 SWAP2 SWAP1 DUP2 DUP2 MSTORE PUSH1 0x20 ADD DUP4 DUP4 PUSH1 0x20 MUL DUP1 DUP3 DUP5 CALLDATACOPY PUSH1 0x0 SWAP3 ADD SWAP2 SWAP1 SWAP2 MSTORE POP PUSH2 0x3091 SWAP3 POP POP POP JUMP JUMPDEST POP POP JUMP JUMPDEST PUSH2 0x2292 PUSH2 0x1C65 JUMP JUMPDEST PUSH2 0x22D1 JUMPI PUSH1 0x40 DUP1 MLOAD PUSH3 0x461BCD PUSH1 0xE5 SHL DUP2 MSTORE PUSH1 0x20 PUSH1 0x4 DUP3 ADD DUP2 SWAP1 MSTORE PUSH1 0x24 DUP3 ADD MSTORE PUSH1 0x0 DUP1 MLOAD PUSH1 0x20 PUSH2 0x4195 DUP4 CODECOPY DUP2 MLOAD SWAP2 MSTORE PUSH1 0x44 DUP3 ADD MSTORE SWAP1 MLOAD SWAP1 DUP2 SWAP1 SUB PUSH1 0x64 ADD SWAP1 REVERT JUMPDEST PUSH2 0x14AB PUSH1 0x10 DUP4 DUP4 PUSH2 0x4032 JUMP JUMPDEST PUSH2 0x22E7 CALLER DUP7 PUSH2 0x2606 JUMP JUMPDEST PUSH2 0x231D JUMPI PUSH1 0x40 DUP1 MLOAD PUSH3 0x461BCD PUSH1 0xE5 SHL DUP2 MSTORE PUSH1 0x20 PUSH1 0x4 DUP3 ADD MSTORE PUSH1 0x2 PUSH1 0x24 DUP3 ADD MSTORE PUSH2 0x6A7 PUSH1 0xF3 SHL PUSH1 0x44 DUP3 ADD MSTORE SWAP1 MLOAD SWAP1 DUP2 SWAP1 SUB PUSH1 0x64 ADD SWAP1 REVERT JUMPDEST PUSH2 0x17E4 CALLER DUP7 DUP7 DUP7 DUP7 DUP7 DUP1 DUP1 PUSH1 0x1F ADD PUSH1 0x20 DUP1 SWAP2 DIV MUL PUSH1 0x20 ADD PUSH1 0x40 MLOAD SWAP1 DUP2 ADD PUSH1 0x40 MSTORE DUP1 SWAP4 SWAP3 SWAP2 SWAP1 DUP2 DUP2 MSTORE PUSH1 0x20 ADD DUP4 DUP4 DUP1 DUP3 DUP5 CALLDATACOPY PUSH1 0x0 SWAP3 ADD SWAP2 SWAP1 SWAP2 MSTORE POP PUSH2 0x26C9 SWAP3 POP POP POP JUMP JUMPDEST PUSH2 0x2368 PUSH2 0x1C65 JUMP JUMPDEST PUSH2 0x23A7 JUMPI PUSH1 0x40 DUP1 MLOAD PUSH3 0x461BCD PUSH1 0xE5 SHL DUP2 MSTORE PUSH1 0x20 PUSH1 0x4 DUP3 ADD DUP2 SWAP1 MSTORE PUSH1 0x24 DUP3 ADD MSTORE PUSH1 0x0 DUP1 MLOAD PUSH1 0x20 PUSH2 0x4195 DUP4 CODECOPY DUP2 MLOAD SWAP2 MSTORE PUSH1 0x44 DUP3 ADD MSTORE SWAP1 MLOAD SWAP1 DUP2 SWAP1 SUB PUSH1 0x64 ADD SWAP1 REVERT JUMPDEST PUSH2 0x16AA DUP2 PUSH2 0x315A JUMP JUMPDEST PUSH1 0x0 PUSH2 0x2404 DUP7 CALLER CALLER DUP9 DUP9 DUP9 DUP9 DUP1 DUP1 PUSH1 0x1F ADD PUSH1 0x20 DUP1 SWAP2 DIV MUL PUSH1 0x20 ADD PUSH1 0x40 MLOAD SWAP1 DUP2 ADD PUSH1 0x40 MSTORE DUP1 SWAP4 SWAP3 SWAP2 SWAP1 DUP2 DUP2 MSTORE PUSH1 0x20 ADD DUP4 DUP4 DUP1 DUP3 DUP5 CALLDATACOPY PUSH1 0x0 SWAP3 ADD DUP3 SWAP1 MSTORE POP PUSH1 0x40 DUP1 MLOAD PUSH1 0x20 DUP2 ADD SWAP1 SWAP2 MSTORE SWAP1 DUP2 MSTORE SWAP3 POP PUSH2 0x2BE4 SWAP2 POP POP JUMP JUMPDEST SWAP7 SWAP6 POP POP POP POP POP POP JUMP JUMPDEST PUSH1 0x1 PUSH1 0x1 PUSH1 0xA0 SHL SUB DUP2 AND CALLER EQ ISZERO PUSH2 0x2424 JUMPI PUSH1 0x0 DUP1 REVERT JUMPDEST PUSH1 0x1 PUSH1 0x1 PUSH1 0xA0 SHL SUB DUP2 AND PUSH1 0x0 DUP2 DUP2 MSTORE PUSH1 0x11 PUSH1 0x20 SWAP1 DUP2 MSTORE PUSH1 0x40 DUP1 DUP4 KECCAK256 CALLER DUP1 DUP6 MSTORE SWAP3 MSTORE DUP1 DUP4 KECCAK256 DUP1 SLOAD PUSH1 0xFF NOT AND SWAP1 SSTORE MLOAD SWAP1 SWAP3 SWAP2 PUSH32 0x50546E66E5F44D728365DC3908C63BC5CFEEAB470722C1677E3073A6AC294AA1 SWAP2 LOG3 POP JUMP JUMPDEST PUSH1 0x6 SLOAD PUSH1 0x40 DUP1 MLOAD PUSH4 0x1FD3F77 PUSH1 0xE7 SHL DUP2 MSTORE PUSH1 0x1 PUSH1 0x1 PUSH1 0xA0 SHL SUB DUP5 DUP2 AND PUSH1 0x4 DUP4 ADD MSTORE SWAP2 MLOAD PUSH1 0x0 SWAP4 PUSH2 0x100 SWAP1 DIV SWAP1 SWAP3 AND SWAP2 DUP3 SWAP2 PUSH4 0xFE9FBB80 SWAP2 PUSH1 0x24 DUP1 DUP4 ADD SWAP3 PUSH1 0x20 SWAP3 SWAP2 SWAP1 DUP3 SWAP1 SUB ADD DUP2 DUP7 DUP1 EXTCODESIZE ISZERO DUP1 ISZERO PUSH2 0x24D0 JUMPI PUSH1 0x0 DUP1 REVERT JUMPDEST POP GAS STATICCALL ISZERO DUP1 ISZERO PUSH2 0x24E4 JUMPI RETURNDATASIZE PUSH1 0x0 DUP1 RETURNDATACOPY RETURNDATASIZE PUSH1 0x0 REVERT JUMPDEST POP POP POP POP PUSH1 0x40 MLOAD RETURNDATASIZE PUSH1 0x20 DUP2 LT ISZERO PUSH2 0x24FA JUMPI PUSH1 0x0 DUP1 REVERT JUMPDEST POP MLOAD SWAP4 SWAP3 POP POP POP JUMP JUMPDEST PUSH1 0x0 JUMPDEST PUSH1 0x0 DUP4 DUP2 MSTORE PUSH1 0x16 PUSH1 0x20 MSTORE PUSH1 0x40 SWAP1 KECCAK256 SLOAD DUP2 LT ISZERO PUSH2 0x257F JUMPI PUSH1 0x0 DUP4 DUP2 MSTORE PUSH1 0x17 PUSH1 0x20 SWAP1 DUP2 MSTORE PUSH1 0x40 DUP1 DUP4 KECCAK256 PUSH1 0x16 SWAP1 SWAP3 MSTORE DUP3 KECCAK256 DUP1 SLOAD DUP4 SWAP2 SWAP1 DUP6 SWAP1 DUP2 LT PUSH2 0x2543 JUMPI INVALID JUMPDEST PUSH1 0x0 SWAP2 DUP3 MSTORE PUSH1 0x20 DUP1 DUP4 KECCAK256 SWAP2 SWAP1 SWAP2 ADD SLOAD PUSH1 0x1 PUSH1 0x1 PUSH1 0xA0 SHL SUB AND DUP4 MSTORE DUP3 ADD SWAP3 SWAP1 SWAP3 MSTORE PUSH1 0x40 ADD SWAP1 KECCAK256 DUP1 SLOAD PUSH1 0xFF NOT AND SWAP2 ISZERO ISZERO SWAP2 SWAP1 SWAP2 OR SWAP1 SSTORE PUSH1 0x1 ADD PUSH2 0x2506 JUMP JUMPDEST POP PUSH1 0x0 JUMPDEST DUP2 MLOAD DUP2 LT ISZERO PUSH2 0x25E6 JUMPI PUSH1 0x0 DUP4 DUP2 MSTORE PUSH1 0x17 PUSH1 0x20 MSTORE PUSH1 0x40 DUP2 KECCAK256 DUP4 MLOAD PUSH1 0x1 SWAP3 SWAP1 DUP6 SWAP1 DUP6 SWAP1 DUP2 LT PUSH2 0x25AC JUMPI INVALID JUMPDEST PUSH1 0x20 SWAP1 DUP2 MUL SWAP2 SWAP1 SWAP2 ADD DUP2 ADD MLOAD PUSH1 0x1 PUSH1 0x1 PUSH1 0xA0 SHL SUB AND DUP3 MSTORE DUP2 ADD SWAP2 SWAP1 SWAP2 MSTORE PUSH1 0x40 ADD PUSH1 0x0 KECCAK256 DUP1 SLOAD PUSH1 0xFF NOT AND SWAP2 ISZERO ISZERO SWAP2 SWAP1 SWAP2 OR SWAP1 SSTORE PUSH1 0x1 ADD PUSH2 0x2583 JUMP JUMPDEST POP PUSH1 0x0 DUP3 DUP2 MSTORE PUSH1 0x16 PUSH1 0x20 SWAP1 DUP2 MSTORE PUSH1 0x40 SWAP1 SWAP2 KECCAK256 DUP3 MLOAD PUSH2 0x14AB SWAP3 DUP5 ADD SWAP1 PUSH2 0x406D JUMP JUMPDEST PUSH1 0x0 DUP2 PUSH1 0x1 PUSH1 0x1 PUSH1 0xA0 SHL SUB AND DUP4 PUSH1 0x1 PUSH1 0x1 PUSH1 0xA0 SHL SUB AND EQ DUP1 PUSH2 0x264D JUMPI POP PUSH1 0x1 PUSH1 0x1 PUSH1 0xA0 SHL SUB DUP1 DUP5 AND PUSH1 0x0 SWAP1 DUP2 MSTORE PUSH1 0x11 PUSH1 0x20 SWAP1 DUP2 MSTORE PUSH1 0x40 DUP1 DUP4 KECCAK256 SWAP4 DUP7 AND DUP4 MSTORE SWAP3 SWAP1 MSTORE KECCAK256 SLOAD PUSH1 0xFF AND JUMPDEST DUP1 PUSH2 0x1FEC JUMPI POP PUSH1 0x6 SLOAD PUSH1 0x1 PUSH1 0xA8 SHL SWAP1 DIV PUSH1 0xFF AND DUP1 ISZERO PUSH2 0x1FEC JUMPI POP POP POP PUSH1 0x1 PUSH1 0x1 PUSH1 0xA0 SHL SUB AND PUSH1 0x0 SWAP1 DUP2 MSTORE PUSH1 0x13 PUSH1 0x20 MSTORE PUSH1 0x40 SWAP1 KECCAK256 SLOAD PUSH1 0xFF AND SWAP1 JUMP JUMPDEST PUSH1 0x0 PUSH2 0x1FEC DUP4 DUP4 PUSH1 0x40 MLOAD DUP1 PUSH1 0x40 ADD PUSH1 0x40 MSTORE DUP1 PUSH1 0x1E DUP2 MSTORE PUSH1 0x20 ADD PUSH32 0x536166654D6174683A207375627472616374696F6E206F766572666C6F770000 DUP2 MSTORE POP PUSH2 0x31FB JUMP JUMPDEST PUSH1 0x10 SLOAD PUSH2 0x2702 JUMPI PUSH1 0x40 DUP1 MLOAD PUSH3 0x461BCD PUSH1 0xE5 SHL DUP2 MSTORE PUSH1 0x20 PUSH1 0x4 DUP3 ADD MSTORE PUSH1 0x2 PUSH1 0x24 DUP3 ADD MSTORE PUSH2 0x3535 PUSH1 0xF0 SHL PUSH1 0x44 DUP3 ADD MSTORE SWAP1 MLOAD SWAP1 DUP2 SWAP1 SUB PUSH1 0x64 ADD SWAP1 REVERT JUMPDEST PUSH2 0x270B DUP6 PUSH2 0x247A JUMP JUMPDEST DUP1 ISZERO PUSH2 0x271B JUMPI POP PUSH2 0x271B DUP5 PUSH2 0x247A JUMP JUMPDEST DUP1 ISZERO PUSH2 0x272B JUMPI POP PUSH2 0x272B DUP4 PUSH2 0x247A JUMP JUMPDEST PUSH2 0x2734 JUMPI PUSH1 0x0 DUP1 REVERT JUMPDEST DUP2 PUSH1 0x0 DUP1 JUMPDEST PUSH1 0x10 SLOAD DUP2 LT ISZERO PUSH2 0x2818 JUMPI PUSH1 0x1 PUSH1 0x1 PUSH1 0xA0 SHL SUB DUP8 AND PUSH1 0x0 SWAP1 DUP2 MSTORE PUSH1 0xF PUSH1 0x20 MSTORE PUSH1 0x40 DUP2 KECCAK256 PUSH1 0x10 DUP1 SLOAD SWAP2 SWAP3 SWAP2 DUP5 SWAP1 DUP2 LT PUSH2 0x276C JUMPI INVALID JUMPDEST SWAP1 PUSH1 0x0 MSTORE PUSH1 0x20 PUSH1 0x0 KECCAK256 ADD SLOAD DUP2 MSTORE PUSH1 0x20 ADD SWAP1 DUP2 MSTORE PUSH1 0x20 ADD PUSH1 0x0 KECCAK256 SLOAD SWAP2 POP DUP2 DUP4 GT PUSH2 0x27CE JUMPI PUSH2 0x27C4 PUSH1 0x10 DUP3 DUP2 SLOAD DUP2 LT PUSH2 0x279F JUMPI INVALID JUMPDEST SWAP1 PUSH1 0x0 MSTORE PUSH1 0x20 PUSH1 0x0 KECCAK256 ADD SLOAD DUP10 DUP10 DUP10 DUP8 DUP10 PUSH1 0x40 MLOAD DUP1 PUSH1 0x20 ADD PUSH1 0x40 MSTORE DUP1 PUSH1 0x0 DUP2 MSTORE POP PUSH2 0x2BE4 JUMP JUMPDEST POP PUSH1 0x0 SWAP3 POP PUSH2 0x2818 JUMP JUMPDEST DUP2 ISZERO PUSH2 0x2810 JUMPI PUSH2 0x2809 PUSH1 0x10 DUP3 DUP2 SLOAD DUP2 LT PUSH2 0x27E4 JUMPI INVALID JUMPDEST SWAP1 PUSH1 0x0 MSTORE PUSH1 0x20 PUSH1 0x0 KECCAK256 ADD SLOAD DUP10 DUP10 DUP10 DUP7 DUP10 PUSH1 0x40 MLOAD DUP1 PUSH1 0x20 ADD PUSH1 0x40 MSTORE DUP1 PUSH1 0x0 DUP2 MSTORE POP PUSH2 0x2BE4 JUMP JUMPDEST POP DUP2 DUP4 SUB SWAP3 POP JUMPDEST PUSH1 0x1 ADD PUSH2 0x2739 JUMP JUMPDEST POP DUP2 ISZERO PUSH2 0x2851 JUMPI PUSH1 0x40 DUP1 MLOAD PUSH3 0x461BCD PUSH1 0xE5 SHL DUP2 MSTORE PUSH1 0x20 PUSH1 0x4 DUP3 ADD MSTORE PUSH1 0x2 PUSH1 0x24 DUP3 ADD MSTORE PUSH2 0x1A99 PUSH1 0xF1 SHL PUSH1 0x44 DUP3 ADD MSTORE SWAP1 MLOAD SWAP1 DUP2 SWAP1 SUB PUSH1 0x64 ADD SWAP1 REVERT JUMPDEST POP POP POP POP POP POP POP JUMP JUMPDEST PUSH2 0x286B PUSH1 0x0 DUP3 PUSH4 0xFFFFFFFF PUSH2 0x3292 AND JUMP JUMPDEST PUSH1 0x40 MLOAD PUSH1 0x1 PUSH1 0x1 PUSH1 0xA0 SHL SUB DUP3 AND SWAP1 PUSH32 0xE94479A9F7E1952CC78F2D6BAAB678ADC1B772D936C6583DEF489E524CB66692 SWAP1 PUSH1 0x0 SWAP1 LOG2 POP JUMP JUMPDEST PUSH2 0x28AB DUP6 PUSH2 0x247A JUMP JUMPDEST DUP1 ISZERO PUSH2 0x28BB JUMPI POP PUSH2 0x28BB DUP5 PUSH2 0x247A JUMP JUMPDEST PUSH2 0x28C4 JUMPI PUSH1 0x0 DUP1 REVERT JUMPDEST PUSH1 0x1 PUSH1 0x1 PUSH1 0xA0 SHL SUB DUP5 AND PUSH1 0x0 SWAP1 DUP2 MSTORE PUSH1 0xF PUSH1 0x20 SWAP1 DUP2 MSTORE PUSH1 0x40 DUP1 DUP4 KECCAK256 DUP10 DUP5 MSTORE SWAP1 SWAP2 MSTORE SWAP1 KECCAK256 SLOAD DUP4 GT ISZERO PUSH2 0x2921 JUMPI PUSH1 0x40 DUP1 MLOAD PUSH3 0x461BCD PUSH1 0xE5 SHL DUP2 MSTORE PUSH1 0x20 PUSH1 0x4 DUP3 ADD MSTORE PUSH1 0x2 PUSH1 0x24 DUP3 ADD MSTORE PUSH2 0x1A99 PUSH1 0xF1 SHL PUSH1 0x44 DUP3 ADD MSTORE SWAP1 MLOAD SWAP1 DUP2 SWAP1 SUB PUSH1 0x64 ADD SWAP1 REVERT JUMPDEST PUSH2 0x2931 DUP7 DUP7 DUP7 PUSH1 0x0 DUP8 DUP8 DUP8 PUSH2 0x2851 JUMP JUMPDEST PUSH2 0x2941 DUP7 DUP7 DUP7 PUSH1 0x0 DUP8 DUP8 DUP8 PUSH2 0x2851 JUMP JUMPDEST PUSH2 0x294C DUP5 DUP8 DUP6 PUSH2 0x32F9 JUMP JUMPDEST PUSH2 0x2958 DUP6 DUP6 DUP6 DUP6 PUSH2 0x35A3 JUMP JUMPDEST DUP4 PUSH1 0x1 PUSH1 0x1 PUSH1 0xA0 SHL SUB AND DUP6 PUSH1 0x1 PUSH1 0x1 PUSH1 0xA0 SHL SUB AND DUP8 PUSH32 0xCE306C3DBC4A497124B5A4F2BE8388B41084C1D74663DA27ECEE1186C00239BF DUP7 DUP6 PUSH1 0x40 MLOAD DUP1 DUP4 DUP2 MSTORE PUSH1 0x20 ADD DUP1 PUSH1 0x20 ADD DUP3 DUP2 SUB DUP3 MSTORE DUP4 DUP2 DUP2 MLOAD DUP2 MSTORE PUSH1 0x20 ADD SWAP2 POP DUP1 MLOAD SWAP1 PUSH1 0x20 ADD SWAP1 DUP1 DUP4 DUP4 PUSH1 0x0 JUMPDEST DUP4 DUP2 LT ISZERO PUSH2 0x29D3 JUMPI DUP2 DUP2 ADD MLOAD DUP4 DUP3 ADD MSTORE PUSH1 0x20 ADD PUSH2 0x29BB JUMP JUMPDEST POP POP POP POP SWAP1 POP SWAP1 DUP2 ADD SWAP1 PUSH1 0x1F AND DUP1 ISZERO PUSH2 0x2A00 JUMPI DUP1 DUP3 SUB DUP1 MLOAD PUSH1 0x1 DUP4 PUSH1 0x20 SUB PUSH2 0x100 EXP SUB NOT AND DUP2 MSTORE PUSH1 0x20 ADD SWAP2 POP JUMPDEST POP SWAP4 POP POP POP POP PUSH1 0x40 MLOAD DUP1 SWAP2 SUB SWAP1 LOG4 POP POP POP POP POP POP JUMP JUMPDEST PUSH2 0x2A1F DUP5 PUSH2 0x247A JUMP JUMPDEST DUP1 ISZERO PUSH2 0x2A2F JUMPI POP PUSH2 0x2A2F DUP4 PUSH2 0x247A JUMP JUMPDEST PUSH2 0x2A38 JUMPI PUSH1 0x0 DUP1 REVERT JUMPDEST PUSH2 0x2A57 DUP6 DUP6 PUSH1 0x0 DUP7 DUP7 DUP7 PUSH1 0x40 MLOAD DUP1 PUSH1 0x20 ADD PUSH1 0x40 MSTORE DUP1 PUSH1 0x0 DUP2 MSTORE POP PUSH2 0x2851 JUMP JUMPDEST PUSH2 0x2A63 DUP5 DUP5 DUP5 DUP5 PUSH2 0x382A JUMP JUMPDEST PUSH2 0x2A6E DUP4 DUP7 DUP5 PUSH2 0x3A6C JUMP JUMPDEST PUSH2 0x2A8D DUP6 DUP6 PUSH1 0x0 DUP7 DUP7 DUP7 PUSH1 0x40 MLOAD DUP1 PUSH1 0x20 ADD PUSH1 0x40 MSTORE DUP1 PUSH1 0x0 DUP2 MSTORE POP PUSH2 0x2851 JUMP JUMPDEST DUP3 PUSH1 0x1 PUSH1 0x1 PUSH1 0xA0 SHL SUB AND DUP5 PUSH1 0x1 PUSH1 0x1 PUSH1 0xA0 SHL SUB AND DUP7 PUSH32 0xF0DED82AFBB1BB3FF3FC48CB2A26584AA84E4AF0BF309C804ECDB94D0F6A98BB DUP6 DUP6 PUSH1 0x40 MLOAD DUP1 DUP4 DUP2 MSTORE PUSH1 0x20 ADD DUP1 PUSH1 0x20 ADD DUP1 PUSH1 0x20 ADD DUP4 DUP2 SUB DUP4 MSTORE DUP5 DUP2 DUP2 MLOAD DUP2 MSTORE PUSH1 0x20 ADD SWAP2 POP DUP1 MLOAD SWAP1 PUSH1 0x20 ADD SWAP1 DUP1 DUP4 DUP4 PUSH1 0x0 JUMPDEST DUP4 DUP2 LT ISZERO PUSH2 0x2B0C JUMPI DUP2 DUP2 ADD MLOAD DUP4 DUP3 ADD MSTORE PUSH1 0x20 ADD PUSH2 0x2AF4 JUMP JUMPDEST POP POP POP POP SWAP1 POP SWAP1 DUP2 ADD SWAP1 PUSH1 0x1F AND DUP1 ISZERO PUSH2 0x2B39 JUMPI DUP1 DUP3 SUB DUP1 MLOAD PUSH1 0x1 DUP4 PUSH1 0x20 SUB PUSH2 0x100 EXP SUB NOT AND DUP2 MSTORE PUSH1 0x20 ADD SWAP2 POP JUMPDEST POP SWAP3 DUP4 SUB SWAP1 MSTORE POP PUSH1 0x0 DUP2 MSTORE PUSH1 0x40 DUP1 MLOAD SWAP2 DUP3 SWAP1 SUB ADD SWAP3 POP SWAP1 POP LOG4 POP POP POP POP POP JUMP JUMPDEST PUSH1 0x0 PUSH2 0x2B65 DUP4 DUP4 PUSH2 0x2606 JUMP JUMPDEST DUP1 PUSH2 0x2B9D JUMPI POP PUSH1 0x1 PUSH1 0x1 PUSH1 0xA0 SHL SUB DUP1 DUP4 AND PUSH1 0x0 SWAP1 DUP2 MSTORE PUSH1 0x15 PUSH1 0x20 SWAP1 DUP2 MSTORE PUSH1 0x40 DUP1 DUP4 KECCAK256 DUP9 DUP5 MSTORE DUP3 MSTORE DUP1 DUP4 KECCAK256 SWAP4 DUP8 AND DUP4 MSTORE SWAP3 SWAP1 MSTORE KECCAK256 SLOAD PUSH1 0xFF AND JUMPDEST DUP1 PUSH2 0x18A5 JUMPI POP PUSH1 0x6 SLOAD PUSH1 0x1 PUSH1 0xA8 SHL SWAP1 DIV PUSH1 0xFF AND DUP1 ISZERO PUSH2 0x18A5 JUMPI POP POP POP PUSH1 0x0 SWAP2 DUP3 MSTORE PUSH1 0x17 PUSH1 0x20 SWAP1 DUP2 MSTORE PUSH1 0x40 DUP1 DUP5 KECCAK256 PUSH1 0x1 PUSH1 0x1 PUSH1 0xA0 SHL SUB SWAP4 SWAP1 SWAP4 AND DUP5 MSTORE SWAP2 SWAP1 MSTORE SWAP1 KECCAK256 SLOAD PUSH1 0xFF AND SWAP1 JUMP JUMPDEST PUSH1 0x1 PUSH1 0x1 PUSH1 0xA0 SHL SUB DUP6 AND PUSH1 0x0 SWAP1 DUP2 MSTORE PUSH1 0xF PUSH1 0x20 SWAP1 DUP2 MSTORE PUSH1 0x40 DUP1 DUP4 KECCAK256 DUP11 DUP5 MSTORE SWAP1 SWAP2 MSTORE DUP2 KECCAK256 SLOAD DUP5 GT ISZERO PUSH2 0x2C41 JUMPI PUSH1 0x40 DUP1 MLOAD PUSH3 0x461BCD PUSH1 0xE5 SHL DUP2 MSTORE PUSH1 0x20 PUSH1 0x4 DUP3 ADD MSTORE PUSH1 0x2 PUSH1 0x24 DUP3 ADD MSTORE PUSH2 0x1A99 PUSH1 0xF1 SHL PUSH1 0x44 DUP3 ADD MSTORE SWAP1 MLOAD SWAP1 DUP2 SWAP1 SUB PUSH1 0x64 ADD SWAP1 REVERT JUMPDEST PUSH2 0x2C4A DUP8 PUSH2 0x247A JUMP JUMPDEST DUP1 ISZERO PUSH2 0x2C5A JUMPI POP PUSH2 0x2C5A DUP7 PUSH2 0x247A JUMP JUMPDEST DUP1 ISZERO PUSH2 0x2C6A JUMPI POP PUSH2 0x2C6A DUP6 PUSH2 0x247A JUMP JUMPDEST PUSH2 0x2C73 JUMPI PUSH1 0x0 DUP1 REVERT JUMPDEST DUP2 MLOAD DUP9 SWAP1 ISZERO DUP1 ISZERO SWAP1 PUSH2 0x2C87 JUMPI POP PUSH1 0x40 DUP5 MLOAD LT ISZERO JUMPDEST ISZERO PUSH2 0x2C99 JUMPI PUSH2 0x2C96 DUP10 DUP6 PUSH2 0x3BB6 JUMP JUMPDEST SWAP1 POP JUMPDEST PUSH2 0x2CA8 DUP10 DUP10 DUP10 DUP10 DUP10 DUP10 DUP10 PUSH2 0x2851 JUMP JUMPDEST PUSH2 0x2CB7 DUP10 DUP10 DUP10 DUP10 DUP10 DUP10 DUP10 PUSH2 0x2851 JUMP JUMPDEST PUSH2 0x2CC2 DUP8 DUP11 DUP8 PUSH2 0x32F9 JUMP JUMPDEST PUSH2 0x2CCD DUP8 DUP8 DUP8 PUSH2 0x3BE2 JUMP JUMPDEST PUSH2 0x2CD8 DUP7 DUP3 DUP8 PUSH2 0x3A6C JUMP JUMPDEST PUSH2 0x2CE7 DUP2 DUP10 DUP10 DUP10 DUP10 DUP10 DUP10 PUSH2 0x2851 JUMP JUMPDEST DUP6 PUSH1 0x1 PUSH1 0x1 PUSH1 0xA0 SHL SUB AND DUP8 PUSH1 0x1 PUSH1 0x1 PUSH1 0xA0 SHL SUB AND DUP11 PUSH32 0xFF4E9A26AF4EB73B8BACFAA4ABD4FEA03D9448E7B912DC5FF4019048875AA2D4 DUP12 DUP10 DUP10 DUP10 PUSH1 0x40 MLOAD DUP1 DUP6 PUSH1 0x1 PUSH1 0x1 PUSH1 0xA0 SHL SUB AND PUSH1 0x1 PUSH1 0x1 PUSH1 0xA0 SHL SUB AND DUP2 MSTORE PUSH1 0x20 ADD DUP5 DUP2 MSTORE PUSH1 0x20 ADD DUP1 PUSH1 0x20 ADD DUP1 PUSH1 0x20 ADD DUP4 DUP2 SUB DUP4 MSTORE DUP6 DUP2 DUP2 MLOAD DUP2 MSTORE PUSH1 0x20 ADD SWAP2 POP DUP1 MLOAD SWAP1 PUSH1 0x20 ADD SWAP1 DUP1 DUP4 DUP4 PUSH1 0x0 JUMPDEST DUP4 DUP2 LT ISZERO PUSH2 0x2D80 JUMPI DUP2 DUP2 ADD MLOAD DUP4 DUP3 ADD MSTORE PUSH1 0x20 ADD PUSH2 0x2D68 JUMP JUMPDEST POP POP POP POP SWAP1 POP SWAP1 DUP2 ADD SWAP1 PUSH1 0x1F AND DUP1 ISZERO PUSH2 0x2DAD JUMPI DUP1 DUP3 SUB DUP1 MLOAD PUSH1 0x1 DUP4 PUSH1 0x20 SUB PUSH2 0x100 EXP SUB NOT AND DUP2 MSTORE PUSH1 0x20 ADD SWAP2 POP JUMPDEST POP DUP4 DUP2 SUB DUP3 MSTORE DUP5 MLOAD DUP2 MSTORE DUP5 MLOAD PUSH1 0x20 SWAP2 DUP3 ADD SWAP2 DUP7 ADD SWAP1 DUP1 DUP4 DUP4 PUSH1 0x0 JUMPDEST DUP4 DUP2 LT ISZERO PUSH2 0x2DE0 JUMPI DUP2 DUP2 ADD MLOAD DUP4 DUP3 ADD MSTORE PUSH1 0x20 ADD PUSH2 0x2DC8 JUMP JUMPDEST POP POP POP POP SWAP1 POP SWAP1 DUP2 ADD SWAP1 PUSH1 0x1F AND DUP1 ISZERO PUSH2 0x2E0D JUMPI DUP1 DUP3 SUB DUP1 MLOAD PUSH1 0x1 DUP4 PUSH1 0x20 SUB PUSH2 0x100 EXP SUB NOT AND DUP2 MSTORE PUSH1 0x20 ADD SWAP2 POP JUMPDEST POP SWAP7 POP POP POP POP POP POP POP PUSH1 0x40 MLOAD DUP1 SWAP2 SUB SWAP1 LOG4 DUP9 DUP2 EQ PUSH2 0x2E5D JUMPI PUSH1 0x40 DUP1 MLOAD DUP7 DUP2 MSTORE SWAP1 MLOAD DUP3 SWAP2 DUP12 SWAP2 PUSH32 0x67C8BA31D2DD11F1384577B3405B04ED91EED1231E408432AD2458CAB37B2FA1 SWAP2 DUP2 SWAP1 SUB PUSH1 0x20 ADD SWAP1 LOG3 JUMPDEST SWAP9 SWAP8 POP POP POP POP POP POP POP POP JUMP JUMPDEST CALLER SWAP1 JUMP JUMPDEST PUSH2 0x2E76 DUP5 PUSH2 0x247A JUMP JUMPDEST DUP1 ISZERO PUSH2 0x2E86 JUMPI POP PUSH2 0x2E86 DUP4 PUSH2 0x247A JUMP JUMPDEST PUSH2 0x2E8F JUMPI PUSH1 0x0 DUP1 REVERT JUMPDEST PUSH1 0x10 SLOAD PUSH2 0x2EC8 JUMPI PUSH1 0x40 DUP1 MLOAD PUSH3 0x461BCD PUSH1 0xE5 SHL DUP2 MSTORE PUSH1 0x20 PUSH1 0x4 DUP3 ADD MSTORE PUSH1 0x2 PUSH1 0x24 DUP3 ADD MSTORE PUSH2 0x3535 PUSH1 0xF0 SHL PUSH1 0x44 DUP3 ADD MSTORE SWAP1 MLOAD SWAP1 DUP2 SWAP1 SUB PUSH1 0x64 ADD SWAP1 REVERT JUMPDEST DUP2 PUSH1 0x0 DUP1 JUMPDEST PUSH1 0x10 SLOAD DUP2 LT ISZERO PUSH2 0x2FA1 JUMPI PUSH1 0x1 PUSH1 0x1 PUSH1 0xA0 SHL SUB DUP7 AND PUSH1 0x0 SWAP1 DUP2 MSTORE PUSH1 0xF PUSH1 0x20 MSTORE PUSH1 0x40 DUP2 KECCAK256 PUSH1 0x10 DUP1 SLOAD SWAP2 SWAP3 SWAP2 DUP5 SWAP1 DUP2 LT PUSH2 0x2F00 JUMPI INVALID JUMPDEST SWAP1 PUSH1 0x0 MSTORE PUSH1 0x20 PUSH1 0x0 KECCAK256 ADD SLOAD DUP2 MSTORE PUSH1 0x20 ADD SWAP1 DUP2 MSTORE PUSH1 0x20 ADD PUSH1 0x0 KECCAK256 SLOAD SWAP2 POP DUP2 DUP4 GT PUSH2 0x2F60 JUMPI PUSH2 0x2F57 PUSH1 0x10 DUP3 DUP2 SLOAD DUP2 LT PUSH2 0x2F33 JUMPI INVALID JUMPDEST SWAP1 PUSH1 0x0 MSTORE PUSH1 0x20 PUSH1 0x0 KECCAK256 ADD SLOAD DUP9 DUP9 DUP7 DUP9 PUSH1 0x40 MLOAD DUP1 PUSH1 0x20 ADD PUSH1 0x40 MSTORE DUP1 PUSH1 0x0 DUP2 MSTORE POP PUSH2 0x28A2 JUMP JUMPDEST PUSH1 0x0 SWAP3 POP PUSH2 0x2FA1 JUMP JUMPDEST PUSH2 0x2F94 PUSH1 0x10 DUP3 DUP2 SLOAD DUP2 LT PUSH2 0x2F70 JUMPI INVALID JUMPDEST SWAP1 PUSH1 0x0 MSTORE PUSH1 0x20 PUSH1 0x0 KECCAK256 ADD SLOAD DUP9 DUP9 DUP6 DUP9 PUSH1 0x40 MLOAD DUP1 PUSH1 0x20 ADD PUSH1 0x40 MSTORE DUP1 PUSH1 0x0 DUP2 MSTORE POP PUSH2 0x28A2 JUMP JUMPDEST DUP2 DUP4 SUB SWAP3 POP PUSH1 0x1 ADD PUSH2 0x2ECD JUMP JUMPDEST POP DUP2 ISZERO PUSH2 0x2FDA JUMPI PUSH1 0x40 DUP1 MLOAD PUSH3 0x461BCD PUSH1 0xE5 SHL DUP2 MSTORE PUSH1 0x20 PUSH1 0x4 DUP3 ADD MSTORE PUSH1 0x2 PUSH1 0x24 DUP3 ADD MSTORE PUSH2 0x1A99 PUSH1 0xF1 SHL PUSH1 0x44 DUP3 ADD MSTORE SWAP1 MLOAD SWAP1 DUP2 SWAP1 SUB PUSH1 0x64 ADD SWAP1 REVERT JUMPDEST POP POP POP POP POP POP JUMP JUMPDEST PUSH2 0x2FF3 PUSH1 0x0 DUP3 PUSH4 0xFFFFFFFF PUSH2 0x3DAA AND JUMP JUMPDEST PUSH1 0x40 MLOAD PUSH1 0x1 PUSH1 0x1 PUSH1 0xA0 SHL SUB DUP3 AND SWAP1 PUSH32 0x6AE172837EA30B801FBFCDD4108AA1D5BF8FF775444FD70256B44E6BF3DFC3F6 SWAP1 PUSH1 0x0 SWAP1 LOG2 POP JUMP JUMPDEST PUSH1 0x0 PUSH1 0x1 PUSH1 0x1 PUSH1 0xA0 SHL SUB DUP3 AND PUSH2 0x3071 JUMPI PUSH1 0x40 MLOAD PUSH3 0x461BCD PUSH1 0xE5 SHL DUP2 MSTORE PUSH1 0x4 ADD DUP1 DUP1 PUSH1 0x20 ADD DUP3 DUP2 SUB DUP3 MSTORE PUSH1 0x22 DUP2 MSTORE PUSH1 0x20 ADD DUP1 PUSH2 0x41B5 PUSH1 0x22 SWAP2 CODECOPY PUSH1 0x40 ADD SWAP2 POP POP PUSH1 0x40 MLOAD DUP1 SWAP2 SUB SWAP1 REVERT JUMPDEST POP PUSH1 0x1 PUSH1 0x1 PUSH1 0xA0 SHL SUB AND PUSH1 0x0 SWAP1 DUP2 MSTORE PUSH1 0x20 SWAP2 SWAP1 SWAP2 MSTORE PUSH1 0x40 SWAP1 KECCAK256 SLOAD PUSH1 0xFF AND SWAP1 JUMP JUMPDEST PUSH1 0x0 JUMPDEST PUSH1 0x12 SLOAD DUP2 LT ISZERO PUSH2 0x30ED JUMPI PUSH1 0x0 PUSH1 0x13 PUSH1 0x0 PUSH1 0x12 DUP5 DUP2 SLOAD DUP2 LT PUSH2 0x30B1 JUMPI INVALID JUMPDEST PUSH1 0x0 SWAP2 DUP3 MSTORE PUSH1 0x20 DUP1 DUP4 KECCAK256 SWAP2 SWAP1 SWAP2 ADD SLOAD PUSH1 0x1 PUSH1 0x1 PUSH1 0xA0 SHL SUB AND DUP4 MSTORE DUP3 ADD SWAP3 SWAP1 SWAP3 MSTORE PUSH1 0x40 ADD SWAP1 KECCAK256 DUP1 SLOAD PUSH1 0xFF NOT AND SWAP2 ISZERO ISZERO SWAP2 SWAP1 SWAP2 OR SWAP1 SSTORE PUSH1 0x1 ADD PUSH2 0x3094 JUMP JUMPDEST POP PUSH1 0x0 JUMPDEST DUP2 MLOAD DUP2 LT ISZERO PUSH2 0x3146 JUMPI PUSH1 0x1 PUSH1 0x13 PUSH1 0x0 DUP5 DUP5 DUP2 MLOAD DUP2 LT PUSH2 0x310C JUMPI INVALID JUMPDEST PUSH1 0x20 SWAP1 DUP2 MUL SWAP2 SWAP1 SWAP2 ADD DUP2 ADD MLOAD PUSH1 0x1 PUSH1 0x1 PUSH1 0xA0 SHL SUB AND DUP3 MSTORE DUP2 ADD SWAP2 SWAP1 SWAP2 MSTORE PUSH1 0x40 ADD PUSH1 0x0 KECCAK256 DUP1 SLOAD PUSH1 0xFF NOT AND SWAP2 ISZERO ISZERO SWAP2 SWAP1 SWAP2 OR SWAP1 SSTORE PUSH1 0x1 ADD PUSH2 0x30F1 JUMP JUMPDEST POP DUP1 MLOAD PUSH2 0x2286 SWAP1 PUSH1 0x12 SWAP1 PUSH1 0x20 DUP5 ADD SWAP1 PUSH2 0x406D JUMP JUMPDEST PUSH1 0x1 PUSH1 0x1 PUSH1 0xA0 SHL SUB DUP2 AND PUSH2 0x319F JUMPI PUSH1 0x40 MLOAD PUSH3 0x461BCD PUSH1 0xE5 SHL DUP2 MSTORE PUSH1 0x4 ADD DUP1 DUP1 PUSH1 0x20 ADD DUP3 DUP2 SUB DUP3 MSTORE PUSH1 0x26 DUP2 MSTORE PUSH1 0x20 ADD DUP1 PUSH2 0x412D PUSH1 0x26 SWAP2 CODECOPY PUSH1 0x40 ADD SWAP2 POP POP PUSH1 0x40 MLOAD DUP1 SWAP2 SUB SWAP1 REVERT JUMPDEST PUSH1 0x1 SLOAD PUSH1 0x40 MLOAD PUSH1 0x1 PUSH1 0x1 PUSH1 0xA0 SHL SUB DUP1 DUP5 AND SWAP3 AND SWAP1 PUSH32 0x8BE0079C531659141344CD1FD0A4F28419497F9722A3DAAFE3B4186F6B6457E0 SWAP1 PUSH1 0x0 SWAP1 LOG3 PUSH1 0x1 DUP1 SLOAD PUSH1 0x1 PUSH1 0x1 PUSH1 0xA0 SHL SUB NOT AND PUSH1 0x1 PUSH1 0x1 PUSH1 0xA0 SHL SUB SWAP3 SWAP1 SWAP3 AND SWAP2 SWAP1 SWAP2 OR SWAP1 SSTORE JUMP JUMPDEST PUSH1 0x0 DUP2 DUP5 DUP5 GT ISZERO PUSH2 0x328A JUMPI PUSH1 0x40 MLOAD PUSH3 0x461BCD PUSH1 0xE5 SHL DUP2 MSTORE PUSH1 0x4 ADD DUP1 DUP1 PUSH1 0x20 ADD DUP3 DUP2 SUB DUP3 MSTORE DUP4 DUP2 DUP2 MLOAD DUP2 MSTORE PUSH1 0x20 ADD SWAP2 POP DUP1 MLOAD SWAP1 PUSH1 0x20 ADD SWAP1 DUP1 DUP4 DUP4 PUSH1 0x0 JUMPDEST DUP4 DUP2 LT ISZERO PUSH2 0x324F JUMPI DUP2 DUP2 ADD MLOAD DUP4 DUP3 ADD MSTORE PUSH1 0x20 ADD PUSH2 0x3237 JUMP JUMPDEST POP POP POP POP SWAP1 POP SWAP1 DUP2 ADD SWAP1 PUSH1 0x1F AND DUP1 ISZERO PUSH2 0x327C JUMPI DUP1 DUP3 SUB DUP1 MLOAD PUSH1 0x1 DUP4 PUSH1 0x20 SUB PUSH2 0x100 EXP SUB NOT AND DUP2 MSTORE PUSH1 0x20 ADD SWAP2 POP JUMPDEST POP SWAP3 POP POP POP PUSH1 0x40 MLOAD DUP1 SWAP2 SUB SWAP1 REVERT JUMPDEST POP POP POP SWAP1 SUB SWAP1 JUMP JUMPDEST PUSH2 0x329C DUP3 DUP3 PUSH2 0x302A JUMP JUMPDEST PUSH2 0x32D7 JUMPI PUSH1 0x40 MLOAD PUSH3 0x461BCD PUSH1 0xE5 SHL DUP2 MSTORE PUSH1 0x4 ADD DUP1 DUP1 PUSH1 0x20 ADD DUP3 DUP2 SUB DUP3 MSTORE PUSH1 0x21 DUP2 MSTORE PUSH1 0x20 ADD DUP1 PUSH2 0x4153 PUSH1 0x21 SWAP2 CODECOPY PUSH1 0x40 ADD SWAP2 POP POP PUSH1 0x40 MLOAD DUP1 SWAP2 SUB SWAP1 REVERT JUMPDEST PUSH1 0x1 PUSH1 0x1 PUSH1 0xA0 SHL SUB AND PUSH1 0x0 SWAP1 DUP2 MSTORE PUSH1 0x20 SWAP2 SWAP1 SWAP2 MSTORE PUSH1 0x40 SWAP1 KECCAK256 DUP1 SLOAD PUSH1 0xFF NOT AND SWAP1 SSTORE JUMP JUMPDEST PUSH1 0x1 PUSH1 0x1 PUSH1 0xA0 SHL SUB DUP4 AND PUSH1 0x0 SWAP1 DUP2 MSTORE PUSH1 0xF PUSH1 0x20 SWAP1 DUP2 MSTORE PUSH1 0x40 DUP1 DUP4 KECCAK256 DUP6 DUP5 MSTORE SWAP1 SWAP2 MSTORE SWAP1 KECCAK256 SLOAD PUSH2 0x332D SWAP1 DUP3 PUSH4 0xFFFFFFFF PUSH2 0x2687 AND JUMP JUMPDEST PUSH1 0x1 PUSH1 0x1 PUSH1 0xA0 SHL SUB DUP5 AND PUSH1 0x0 SWAP1 DUP2 MSTORE PUSH1 0xF PUSH1 0x20 SWAP1 DUP2 MSTORE PUSH1 0x40 DUP1 DUP4 KECCAK256 DUP7 DUP5 MSTORE DUP3 MSTORE DUP1 DUP4 KECCAK256 SWAP4 SWAP1 SWAP4 SSTORE PUSH1 0xC SWAP1 MSTORE KECCAK256 SLOAD PUSH2 0x336A SWAP1 DUP3 PUSH4 0xFFFFFFFF PUSH2 0x2687 AND JUMP JUMPDEST PUSH1 0x0 DUP4 DUP2 MSTORE PUSH1 0xC PUSH1 0x20 MSTORE PUSH1 0x40 SWAP1 KECCAK256 DUP2 SWAP1 SSTORE PUSH2 0x343F JUMPI PUSH1 0x0 DUP3 DUP2 MSTORE PUSH1 0xB PUSH1 0x20 MSTORE PUSH1 0x40 SWAP1 KECCAK256 SLOAD DUP1 PUSH2 0x33C5 JUMPI PUSH1 0x40 DUP1 MLOAD PUSH3 0x461BCD PUSH1 0xE5 SHL DUP2 MSTORE PUSH1 0x20 PUSH1 0x4 DUP3 ADD MSTORE PUSH1 0x2 PUSH1 0x24 DUP3 ADD MSTORE PUSH2 0x353 PUSH1 0xF4 SHL PUSH1 0x44 DUP3 ADD MSTORE SWAP1 MLOAD SWAP1 DUP2 SWAP1 SUB PUSH1 0x64 ADD SWAP1 REVERT JUMPDEST PUSH1 0xA DUP1 SLOAD PUSH1 0x0 SWAP2 SWAP1 PUSH1 0x0 NOT DUP2 ADD SWAP1 DUP2 LT PUSH2 0x33DB JUMPI INVALID JUMPDEST SWAP1 PUSH1 0x0 MSTORE PUSH1 0x20 PUSH1 0x0 KECCAK256 ADD SLOAD SWAP1 POP DUP1 PUSH1 0xA PUSH1 0x1 DUP5 SUB DUP2 SLOAD DUP2 LT PUSH2 0x33F9 JUMPI INVALID JUMPDEST PUSH1 0x0 SWAP2 DUP3 MSTORE PUSH1 0x20 DUP1 DUP4 KECCAK256 SWAP1 SWAP2 ADD SWAP3 SWAP1 SWAP3 SSTORE DUP3 DUP2 MSTORE PUSH1 0xB SWAP1 SWAP2 MSTORE PUSH1 0x40 SWAP1 KECCAK256 DUP3 SWAP1 SSTORE PUSH1 0xA DUP1 SLOAD PUSH1 0x0 NOT ADD SWAP1 PUSH2 0x342C SWAP1 DUP3 PUSH2 0x40CE JUMP JUMPDEST POP POP POP PUSH1 0x0 DUP3 DUP2 MSTORE PUSH1 0xB PUSH1 0x20 MSTORE PUSH1 0x40 DUP2 KECCAK256 SSTORE JUMPDEST PUSH1 0x1 PUSH1 0x1 PUSH1 0xA0 SHL SUB DUP4 AND PUSH1 0x0 SWAP1 DUP2 MSTORE PUSH1 0xF PUSH1 0x20 SWAP1 DUP2 MSTORE PUSH1 0x40 DUP1 DUP4 KECCAK256 DUP6 DUP5 MSTORE SWAP1 SWAP2 MSTORE SWAP1 KECCAK256 SLOAD PUSH2 0x14AB JUMPI PUSH1 0x1 PUSH1 0x1 PUSH1 0xA0 SHL SUB DUP4 AND PUSH1 0x0 SWAP1 DUP2 MSTORE PUSH1 0xE PUSH1 0x20 SWAP1 DUP2 MSTORE PUSH1 0x40 DUP1 DUP4 KECCAK256 DUP6 DUP5 MSTORE SWAP1 SWAP2 MSTORE SWAP1 KECCAK256 SLOAD DUP1 PUSH2 0x34C2 JUMPI PUSH1 0x40 DUP1 MLOAD PUSH3 0x461BCD PUSH1 0xE5 SHL DUP2 MSTORE PUSH1 0x20 PUSH1 0x4 DUP3 ADD MSTORE PUSH1 0x2 PUSH1 0x24 DUP3 ADD MSTORE PUSH2 0x353 PUSH1 0xF4 SHL PUSH1 0x44 DUP3 ADD MSTORE SWAP1 MLOAD SWAP1 DUP2 SWAP1 SUB PUSH1 0x64 ADD SWAP1 REVERT JUMPDEST PUSH1 0x1 PUSH1 0x1 PUSH1 0xA0 SHL SUB DUP5 AND PUSH1 0x0 SWAP1 DUP2 MSTORE PUSH1 0xD PUSH1 0x20 MSTORE PUSH1 0x40 DUP2 KECCAK256 DUP1 SLOAD PUSH1 0x0 NOT DUP2 ADD SWAP1 DUP2 LT PUSH2 0x34EA JUMPI INVALID JUMPDEST SWAP1 PUSH1 0x0 MSTORE PUSH1 0x20 PUSH1 0x0 KECCAK256 ADD SLOAD SWAP1 POP DUP1 PUSH1 0xD PUSH1 0x0 DUP8 PUSH1 0x1 PUSH1 0x1 PUSH1 0xA0 SHL SUB AND PUSH1 0x1 PUSH1 0x1 PUSH1 0xA0 SHL SUB AND DUP2 MSTORE PUSH1 0x20 ADD SWAP1 DUP2 MSTORE PUSH1 0x20 ADD PUSH1 0x0 KECCAK256 PUSH1 0x1 DUP5 SUB DUP2 SLOAD DUP2 LT PUSH2 0x352B JUMPI INVALID JUMPDEST PUSH1 0x0 SWAP2 DUP3 MSTORE PUSH1 0x20 DUP1 DUP4 KECCAK256 SWAP1 SWAP2 ADD SWAP3 SWAP1 SWAP3 SSTORE PUSH1 0x1 PUSH1 0x1 PUSH1 0xA0 SHL SUB DUP8 AND DUP1 DUP3 MSTORE PUSH1 0xE DUP4 MSTORE PUSH1 0x40 DUP1 DUP4 KECCAK256 DUP6 DUP5 MSTORE DUP5 MSTORE DUP1 DUP4 KECCAK256 DUP7 SWAP1 SSTORE SWAP1 DUP3 MSTORE PUSH1 0xD SWAP1 SWAP3 MSTORE KECCAK256 DUP1 SLOAD PUSH1 0x0 NOT ADD SWAP1 PUSH2 0x3577 SWAP1 DUP3 PUSH2 0x40CE JUMP JUMPDEST POP POP POP PUSH1 0x1 PUSH1 0x1 PUSH1 0xA0 SHL SUB DUP4 AND PUSH1 0x0 SWAP1 DUP2 MSTORE PUSH1 0xE PUSH1 0x20 SWAP1 DUP2 MSTORE PUSH1 0x40 DUP1 DUP4 KECCAK256 DUP6 DUP5 MSTORE SWAP1 SWAP2 MSTORE DUP2 KECCAK256 SSTORE POP POP POP JUMP JUMPDEST PUSH1 0x6 SLOAD PUSH1 0xFF AND ISZERO PUSH2 0x35E0 JUMPI PUSH1 0x40 DUP1 MLOAD PUSH3 0x461BCD PUSH1 0xE5 SHL DUP2 MSTORE PUSH1 0x20 PUSH1 0x4 DUP3 ADD MSTORE PUSH1 0x2 PUSH1 0x24 DUP3 ADD MSTORE PUSH2 0xD4D PUSH1 0xF2 SHL PUSH1 0x44 DUP3 ADD MSTORE SWAP1 MLOAD SWAP1 DUP2 SWAP1 SUB PUSH1 0x64 ADD SWAP1 REVERT JUMPDEST PUSH2 0x35E9 DUP5 PUSH2 0x247A JUMP JUMPDEST DUP1 ISZERO PUSH2 0x35F9 JUMPI POP PUSH2 0x35F9 DUP4 PUSH2 0x247A JUMP JUMPDEST PUSH2 0x3602 JUMPI PUSH1 0x0 DUP1 REVERT JUMPDEST PUSH2 0x360B DUP3 PUSH2 0x3E2B JUMP JUMPDEST PUSH2 0x3641 JUMPI PUSH1 0x40 DUP1 MLOAD PUSH3 0x461BCD PUSH1 0xE5 SHL DUP2 MSTORE PUSH1 0x20 PUSH1 0x4 DUP3 ADD MSTORE PUSH1 0x2 PUSH1 0x24 DUP3 ADD MSTORE PUSH2 0x353 PUSH1 0xF4 SHL PUSH1 0x44 DUP3 ADD MSTORE SWAP1 MLOAD SWAP1 DUP2 SWAP1 SUB PUSH1 0x64 ADD SWAP1 REVERT JUMPDEST PUSH1 0x1 PUSH1 0x1 PUSH1 0xA0 SHL SUB DUP4 AND PUSH2 0x3681 JUMPI PUSH1 0x40 DUP1 MLOAD PUSH3 0x461BCD PUSH1 0xE5 SHL DUP2 MSTORE PUSH1 0x20 PUSH1 0x4 DUP3 ADD MSTORE PUSH1 0x2 PUSH1 0x24 DUP3 ADD MSTORE PUSH2 0x1A9B PUSH1 0xF1 SHL PUSH1 0x44 DUP3 ADD MSTORE SWAP1 MLOAD SWAP1 DUP2 SWAP1 SUB PUSH1 0x64 ADD SWAP1 REVERT JUMPDEST PUSH1 0x1 PUSH1 0x1 PUSH1 0xA0 SHL SUB DUP4 AND PUSH1 0x0 SWAP1 DUP2 MSTORE PUSH1 0x7 PUSH1 0x20 MSTORE PUSH1 0x40 SWAP1 KECCAK256 SLOAD DUP3 GT ISZERO PUSH2 0x36D3 JUMPI PUSH1 0x40 DUP1 MLOAD PUSH3 0x461BCD PUSH1 0xE5 SHL DUP2 MSTORE PUSH1 0x20 PUSH1 0x4 DUP3 ADD MSTORE PUSH1 0x2 PUSH1 0x24 DUP3 ADD MSTORE PUSH2 0x1A99 PUSH1 0xF1 SHL PUSH1 0x44 DUP3 ADD MSTORE SWAP1 MLOAD SWAP1 DUP2 SWAP1 SUB PUSH1 0x64 ADD SWAP1 REVERT JUMPDEST PUSH1 0x1 PUSH1 0x1 PUSH1 0xA0 SHL SUB DUP4 AND PUSH1 0x0 SWAP1 DUP2 MSTORE PUSH1 0x7 PUSH1 0x20 MSTORE PUSH1 0x40 SWAP1 KECCAK256 SLOAD PUSH2 0x36FC SWAP1 DUP4 PUSH4 0xFFFFFFFF PUSH2 0x2687 AND JUMP JUMPDEST PUSH1 0x1 PUSH1 0x1 PUSH1 0xA0 SHL SUB DUP5 AND PUSH1 0x0 SWAP1 DUP2 MSTORE PUSH1 0x7 PUSH1 0x20 MSTORE PUSH1 0x40 SWAP1 KECCAK256 SSTORE PUSH1 0x5 SLOAD PUSH2 0x3728 SWAP1 DUP4 PUSH4 0xFFFFFFFF PUSH2 0x2687 AND JUMP JUMPDEST PUSH1 0x5 DUP2 SWAP1 SSTORE POP DUP3 PUSH1 0x1 PUSH1 0x1 PUSH1 0xA0 SHL SUB AND DUP5 PUSH1 0x1 PUSH1 0x1 PUSH1 0xA0 SHL SUB AND PUSH32 0xB7D0D6B60740753E9F16692A2F479472A1385AEC2420FA43225B02F2FFA1AFE7 DUP5 DUP5 PUSH1 0x40 MLOAD DUP1 DUP4 DUP2 MSTORE PUSH1 0x20 ADD DUP1 PUSH1 0x20 ADD DUP3 DUP2 SUB DUP3 MSTORE DUP4 DUP2 DUP2 MLOAD DUP2 MSTORE PUSH1 0x20 ADD SWAP2 POP DUP1 MLOAD SWAP1 PUSH1 0x20 ADD SWAP1 DUP1 DUP4 DUP4 PUSH1 0x0 JUMPDEST DUP4 DUP2 LT ISZERO PUSH2 0x37A8 JUMPI DUP2 DUP2 ADD MLOAD DUP4 DUP3 ADD MSTORE PUSH1 0x20 ADD PUSH2 0x3790 JUMP JUMPDEST POP POP POP POP SWAP1 POP SWAP1 DUP2 ADD SWAP1 PUSH1 0x1F AND DUP1 ISZERO PUSH2 0x37D5 JUMPI DUP1 DUP3 SUB DUP1 MLOAD PUSH1 0x1 DUP4 PUSH1 0x20 SUB PUSH2 0x100 EXP SUB NOT AND DUP2 MSTORE PUSH1 0x20 ADD SWAP2 POP JUMPDEST POP SWAP4 POP POP POP POP PUSH1 0x40 MLOAD DUP1 SWAP2 SUB SWAP1 LOG3 PUSH1 0x40 DUP1 MLOAD DUP4 DUP2 MSTORE SWAP1 MLOAD PUSH1 0x0 SWAP2 PUSH1 0x1 PUSH1 0x1 PUSH1 0xA0 SHL SUB DUP7 AND SWAP2 PUSH32 0xDDF252AD1BE2C89B69C2B068FC378DAA952BA7F163C4A11628F55A4DF523B3EF SWAP2 DUP2 SWAP1 SUB PUSH1 0x20 ADD SWAP1 LOG3 POP POP POP POP JUMP JUMPDEST PUSH1 0x6 SLOAD PUSH1 0xFF AND ISZERO PUSH2 0x3867 JUMPI PUSH1 0x40 DUP1 MLOAD PUSH3 0x461BCD PUSH1 0xE5 SHL DUP2 MSTORE PUSH1 0x20 PUSH1 0x4 DUP3 ADD MSTORE PUSH1 0x2 PUSH1 0x24 DUP3 ADD MSTORE PUSH2 0xD4D PUSH1 0xF2 SHL PUSH1 0x44 DUP3 ADD MSTORE SWAP1 MLOAD SWAP1 DUP2 SWAP1 SUB PUSH1 0x64 ADD SWAP1 REVERT JUMPDEST PUSH2 0x3870 DUP5 PUSH2 0x247A JUMP JUMPDEST DUP1 ISZERO PUSH2 0x3880 JUMPI POP PUSH2 0x3880 DUP4 PUSH2 0x247A JUMP JUMPDEST PUSH2 0x3889 JUMPI PUSH1 0x0 DUP1 REVERT JUMPDEST PUSH2 0x3892 DUP3 PUSH2 0x3E2B JUMP JUMPDEST PUSH2 0x38C8 JUMPI PUSH1 0x40 DUP1 MLOAD PUSH3 0x461BCD PUSH1 0xE5 SHL DUP2 MSTORE PUSH1 0x20 PUSH1 0x4 DUP3 ADD MSTORE PUSH1 0x2 PUSH1 0x24 DUP3 ADD MSTORE PUSH2 0x353 PUSH1 0xF4 SHL PUSH1 0x44 DUP3 ADD MSTORE SWAP1 MLOAD SWAP1 DUP2 SWAP1 SUB PUSH1 0x64 ADD SWAP1 REVERT JUMPDEST PUSH1 0x1 PUSH1 0x1 PUSH1 0xA0 SHL SUB DUP4 AND PUSH2 0x3908 JUMPI PUSH1 0x40 DUP1 MLOAD PUSH3 0x461BCD PUSH1 0xE5 SHL DUP2 MSTORE PUSH1 0x20 PUSH1 0x4 DUP3 ADD MSTORE PUSH1 0x2 PUSH1 0x24 DUP3 ADD MSTORE PUSH2 0x3537 PUSH1 0xF0 SHL PUSH1 0x44 DUP3 ADD MSTORE SWAP1 MLOAD SWAP1 DUP2 SWAP1 SUB PUSH1 0x64 ADD SWAP1 REVERT JUMPDEST PUSH1 0x5 SLOAD PUSH2 0x391B SWAP1 DUP4 PUSH4 0xFFFFFFFF PUSH2 0x3E5A AND JUMP JUMPDEST PUSH1 0x5 SSTORE PUSH1 0x1 PUSH1 0x1 PUSH1 0xA0 SHL SUB DUP4 AND PUSH1 0x0 SWAP1 DUP2 MSTORE PUSH1 0x7 PUSH1 0x20 MSTORE PUSH1 0x40 SWAP1 KECCAK256 SLOAD PUSH2 0x3947 SWAP1 DUP4 PUSH4 0xFFFFFFFF PUSH2 0x3E5A AND JUMP JUMPDEST PUSH1 0x7 PUSH1 0x0 DUP6 PUSH1 0x1 PUSH1 0x1 PUSH1 0xA0 SHL SUB AND PUSH1 0x1 PUSH1 0x1 PUSH1 0xA0 SHL SUB AND DUP2 MSTORE PUSH1 0x20 ADD SWAP1 DUP2 MSTORE PUSH1 0x20 ADD PUSH1 0x0 KECCAK256 DUP2 SWAP1 SSTORE POP DUP3 PUSH1 0x1 PUSH1 0x1 PUSH1 0xA0 SHL SUB AND DUP5 PUSH1 0x1 PUSH1 0x1 PUSH1 0xA0 SHL SUB AND PUSH32 0xE9905D62635F049C2F4E11678EBF9DC3D1F8C4A653E290759B772E47BA00D00 DUP5 DUP5 PUSH1 0x40 MLOAD DUP1 DUP4 DUP2 MSTORE PUSH1 0x20 ADD DUP1 PUSH1 0x20 ADD DUP3 DUP2 SUB DUP3 MSTORE DUP4 DUP2 DUP2 MLOAD DUP2 MSTORE PUSH1 0x20 ADD SWAP2 POP DUP1 MLOAD SWAP1 PUSH1 0x20 ADD SWAP1 DUP1 DUP4 DUP4 PUSH1 0x0 JUMPDEST DUP4 DUP2 LT ISZERO PUSH2 0x39EA JUMPI DUP2 DUP2 ADD MLOAD DUP4 DUP3 ADD MSTORE PUSH1 0x20 ADD PUSH2 0x39D2 JUMP JUMPDEST POP POP POP POP SWAP1 POP SWAP1 DUP2 ADD SWAP1 PUSH1 0x1F AND DUP1 ISZERO PUSH2 0x3A17 JUMPI DUP1 DUP3 SUB DUP1 MLOAD PUSH1 0x1 DUP4 PUSH1 0x20 SUB PUSH2 0x100 EXP SUB NOT AND DUP2 MSTORE PUSH1 0x20 ADD SWAP2 POP JUMPDEST POP SWAP4 POP POP POP POP PUSH1 0x40 MLOAD DUP1 SWAP2 SUB SWAP1 LOG3 PUSH1 0x40 DUP1 MLOAD DUP4 DUP2 MSTORE SWAP1 MLOAD PUSH1 0x1 PUSH1 0x1 PUSH1 0xA0 SHL SUB DUP6 AND SWAP2 PUSH1 0x0 SWAP2 PUSH32 0xDDF252AD1BE2C89B69C2B068FC378DAA952BA7F163C4A11628F55A4DF523B3EF SWAP2 DUP2 SWAP1 SUB PUSH1 0x20 ADD SWAP1 LOG3 POP POP POP POP JUMP JUMPDEST DUP1 ISZERO PUSH2 0x14AB JUMPI PUSH1 0x1 PUSH1 0x1 PUSH1 0xA0 SHL SUB DUP4 AND PUSH1 0x0 SWAP1 DUP2 MSTORE PUSH1 0xE PUSH1 0x20 SWAP1 DUP2 MSTORE PUSH1 0x40 DUP1 DUP4 KECCAK256 DUP6 DUP5 MSTORE SWAP1 SWAP2 MSTORE SWAP1 KECCAK256 SLOAD PUSH2 0x3ADE JUMPI PUSH1 0x1 PUSH1 0x1 PUSH1 0xA0 SHL SUB DUP4 AND PUSH1 0x0 DUP2 DUP2 MSTORE PUSH1 0xD PUSH1 0x20 SWAP1 DUP2 MSTORE PUSH1 0x40 DUP1 DUP4 KECCAK256 DUP1 SLOAD PUSH1 0x1 DUP2 ADD DUP3 SSTORE DUP2 DUP6 MSTORE DUP4 DUP6 KECCAK256 ADD DUP8 SWAP1 SSTORE SWAP4 DUP4 MSTORE SWAP3 SLOAD PUSH1 0xE DUP3 MSTORE DUP4 DUP4 KECCAK256 DUP7 DUP5 MSTORE SWAP1 SWAP2 MSTORE SWAP2 SWAP1 KECCAK256 SSTORE JUMPDEST PUSH1 0x1 PUSH1 0x1 PUSH1 0xA0 SHL SUB DUP4 AND PUSH1 0x0 SWAP1 DUP2 MSTORE PUSH1 0xF PUSH1 0x20 SWAP1 DUP2 MSTORE PUSH1 0x40 DUP1 DUP4 KECCAK256 DUP6 DUP5 MSTORE SWAP1 SWAP2 MSTORE SWAP1 KECCAK256 SLOAD PUSH2 0x3B12 SWAP1 DUP3 PUSH4 0xFFFFFFFF PUSH2 0x3E5A AND JUMP JUMPDEST PUSH1 0x1 PUSH1 0x1 PUSH1 0xA0 SHL SUB DUP5 AND PUSH1 0x0 SWAP1 DUP2 MSTORE PUSH1 0xF PUSH1 0x20 SWAP1 DUP2 MSTORE PUSH1 0x40 DUP1 DUP4 KECCAK256 DUP7 DUP5 MSTORE DUP3 MSTORE DUP1 DUP4 KECCAK256 SWAP4 SWAP1 SWAP4 SSTORE PUSH1 0xB SWAP1 MSTORE KECCAK256 SLOAD PUSH2 0x3B83 JUMPI PUSH1 0xA DUP1 SLOAD PUSH1 0x1 DUP2 ADD DUP3 SSTORE PUSH32 0xC65A7BB8D6351C1CF70C95A316CC6A92839C986682D98BC35F958F4883F9D2A8 ADD DUP4 SWAP1 SSTORE SLOAD PUSH1 0x0 DUP4 DUP2 MSTORE PUSH1 0xB PUSH1 0x20 MSTORE PUSH1 0x40 SWAP1 KECCAK256 SSTORE JUMPDEST PUSH1 0x0 DUP3 DUP2 MSTORE PUSH1 0xC PUSH1 0x20 MSTORE PUSH1 0x40 SWAP1 KECCAK256 SLOAD PUSH2 0x3BA2 SWAP1 DUP3 PUSH4 0xFFFFFFFF PUSH2 0x3E5A AND JUMP JUMPDEST PUSH1 0x0 DUP4 DUP2 MSTORE PUSH1 0xC PUSH1 0x20 MSTORE PUSH1 0x40 SWAP1 KECCAK256 SSTORE POP POP POP JUMP JUMPDEST PUSH1 0x20 DUP2 ADD MLOAD PUSH1 0x0 SWAP1 PUSH1 0x0 NOT SWAP1 DUP1 DUP3 EQ ISZERO PUSH2 0x3BD6 JUMPI PUSH1 0x40 DUP5 ADD MLOAD SWAP3 POP PUSH2 0x3BDA JUMP JUMPDEST DUP5 SWAP3 POP JUMPDEST POP POP SWAP3 SWAP2 POP POP JUMP JUMPDEST PUSH1 0x6 SLOAD PUSH1 0xFF AND ISZERO PUSH2 0x3C1F JUMPI PUSH1 0x40 DUP1 MLOAD PUSH3 0x461BCD PUSH1 0xE5 SHL DUP2 MSTORE PUSH1 0x20 PUSH1 0x4 DUP3 ADD MSTORE PUSH1 0x2 PUSH1 0x24 DUP3 ADD MSTORE PUSH2 0xD4D PUSH1 0xF2 SHL PUSH1 0x44 DUP3 ADD MSTORE SWAP1 MLOAD SWAP1 DUP2 SWAP1 SUB PUSH1 0x64 ADD SWAP1 REVERT JUMPDEST PUSH2 0x3C28 DUP2 PUSH2 0x3E2B JUMP JUMPDEST PUSH2 0x3C5E JUMPI PUSH1 0x40 DUP1 MLOAD PUSH3 0x461BCD PUSH1 0xE5 SHL DUP2 MSTORE PUSH1 0x20 PUSH1 0x4 DUP3 ADD MSTORE PUSH1 0x2 PUSH1 0x24 DUP3 ADD MSTORE PUSH2 0x353 PUSH1 0xF4 SHL PUSH1 0x44 DUP3 ADD MSTORE SWAP1 MLOAD SWAP1 DUP2 SWAP1 SUB PUSH1 0x64 ADD SWAP1 REVERT JUMPDEST PUSH1 0x1 PUSH1 0x1 PUSH1 0xA0 SHL SUB DUP3 AND PUSH2 0x3C9E JUMPI PUSH1 0x40 DUP1 MLOAD PUSH3 0x461BCD PUSH1 0xE5 SHL DUP2 MSTORE PUSH1 0x20 PUSH1 0x4 DUP3 ADD MSTORE PUSH1 0x2 PUSH1 0x24 DUP3 ADD MSTORE PUSH2 0x3537 PUSH1 0xF0 SHL PUSH1 0x44 DUP3 ADD MSTORE SWAP1 MLOAD SWAP1 DUP2 SWAP1 SUB PUSH1 0x64 ADD SWAP1 REVERT JUMPDEST PUSH1 0x1 PUSH1 0x1 PUSH1 0xA0 SHL SUB DUP4 AND PUSH1 0x0 SWAP1 DUP2 MSTORE PUSH1 0x7 PUSH1 0x20 MSTORE PUSH1 0x40 SWAP1 KECCAK256 SLOAD DUP2 GT ISZERO PUSH2 0x3CF0 JUMPI PUSH1 0x40 DUP1 MLOAD PUSH3 0x461BCD PUSH1 0xE5 SHL DUP2 MSTORE PUSH1 0x20 PUSH1 0x4 DUP3 ADD MSTORE PUSH1 0x2 PUSH1 0x24 DUP3 ADD MSTORE PUSH2 0x1A99 PUSH1 0xF1 SHL PUSH1 0x44 DUP3 ADD MSTORE SWAP1 MLOAD SWAP1 DUP2 SWAP1 SUB PUSH1 0x64 ADD SWAP1 REVERT JUMPDEST PUSH1 0x1 PUSH1 0x1 PUSH1 0xA0 SHL SUB DUP4 AND PUSH1 0x0 SWAP1 DUP2 MSTORE PUSH1 0x7 PUSH1 0x20 MSTORE PUSH1 0x40 SWAP1 KECCAK256 SLOAD PUSH2 0x3D19 SWAP1 DUP3 PUSH4 0xFFFFFFFF PUSH2 0x2687 AND JUMP JUMPDEST PUSH1 0x1 PUSH1 0x1 PUSH1 0xA0 SHL SUB DUP1 DUP6 AND PUSH1 0x0 SWAP1 DUP2 MSTORE PUSH1 0x7 PUSH1 0x20 MSTORE PUSH1 0x40 DUP1 DUP3 KECCAK256 SWAP4 SWAP1 SWAP4 SSTORE SWAP1 DUP5 AND DUP2 MSTORE KECCAK256 SLOAD PUSH2 0x3D4E SWAP1 DUP3 PUSH4 0xFFFFFFFF PUSH2 0x3E5A AND JUMP JUMPDEST PUSH1 0x1 PUSH1 0x1 PUSH1 0xA0 SHL SUB DUP1 DUP5 AND PUSH1 0x0 DUP2 DUP2 MSTORE PUSH1 0x7 PUSH1 0x20 SWAP1 DUP2 MSTORE PUSH1 0x40 SWAP2 DUP3 SWAP1 KECCAK256 SWAP5 SWAP1 SWAP5 SSTORE DUP1 MLOAD DUP6 DUP2 MSTORE SWAP1 MLOAD SWAP2 SWAP4 SWAP3 DUP8 AND SWAP3 PUSH32 0xDDF252AD1BE2C89B69C2B068FC378DAA952BA7F163C4A11628F55A4DF523B3EF SWAP3 SWAP2 DUP3 SWAP1 SUB ADD SWAP1 LOG3 POP POP POP JUMP JUMPDEST PUSH2 0x3DB4 DUP3 DUP3 PUSH2 0x302A JUMP JUMPDEST ISZERO PUSH2 0x3E06 JUMPI PUSH1 0x40 DUP1 MLOAD PUSH3 0x461BCD PUSH1 0xE5 SHL DUP2 MSTORE PUSH1 0x20 PUSH1 0x4 DUP3 ADD MSTORE PUSH1 0x1F PUSH1 0x24 DUP3 ADD MSTORE PUSH32 0x526F6C65733A206163636F756E7420616C72656164792068617320726F6C6500 PUSH1 0x44 DUP3 ADD MSTORE SWAP1 MLOAD SWAP1 DUP2 SWAP1 SUB PUSH1 0x64 ADD SWAP1 REVERT JUMPDEST PUSH1 0x1 PUSH1 0x1 PUSH1 0xA0 SHL SUB AND PUSH1 0x0 SWAP1 DUP2 MSTORE PUSH1 0x20 SWAP2 SWAP1 SWAP2 MSTORE PUSH1 0x40 SWAP1 KECCAK256 DUP1 SLOAD PUSH1 0xFF NOT AND PUSH1 0x1 OR SWAP1 SSTORE JUMP JUMPDEST PUSH1 0x4 SLOAD PUSH1 0x0 SWAP1 DUP3 SWAP1 PUSH2 0x3E53 SWAP1 PUSH2 0x3E47 DUP4 DUP3 PUSH4 0xFFFFFFFF PUSH2 0x3EB4 AND JUMP JUMPDEST SWAP1 PUSH4 0xFFFFFFFF PUSH2 0x3EF6 AND JUMP JUMPDEST EQ SWAP3 SWAP2 POP POP JUMP JUMPDEST PUSH1 0x0 DUP3 DUP3 ADD DUP4 DUP2 LT ISZERO PUSH2 0x1FEC JUMPI PUSH1 0x40 DUP1 MLOAD PUSH3 0x461BCD PUSH1 0xE5 SHL DUP2 MSTORE PUSH1 0x20 PUSH1 0x4 DUP3 ADD MSTORE PUSH1 0x1B PUSH1 0x24 DUP3 ADD MSTORE PUSH32 0x536166654D6174683A206164646974696F6E206F766572666C6F770000000000 PUSH1 0x44 DUP3 ADD MSTORE SWAP1 MLOAD SWAP1 DUP2 SWAP1 SUB PUSH1 0x64 ADD SWAP1 REVERT JUMPDEST PUSH1 0x0 PUSH2 0x1FEC DUP4 DUP4 PUSH1 0x40 MLOAD DUP1 PUSH1 0x40 ADD PUSH1 0x40 MSTORE DUP1 PUSH1 0x1A DUP2 MSTORE PUSH1 0x20 ADD PUSH32 0x536166654D6174683A206469766973696F6E206279207A65726F000000000000 DUP2 MSTORE POP PUSH2 0x3F4F JUMP JUMPDEST PUSH1 0x0 DUP3 PUSH2 0x3F05 JUMPI POP PUSH1 0x0 PUSH2 0x1286 JUMP JUMPDEST DUP3 DUP3 MUL DUP3 DUP5 DUP3 DUP2 PUSH2 0x3F12 JUMPI INVALID JUMPDEST DIV EQ PUSH2 0x1FEC JUMPI PUSH1 0x40 MLOAD PUSH3 0x461BCD PUSH1 0xE5 SHL DUP2 MSTORE PUSH1 0x4 ADD DUP1 DUP1 PUSH1 0x20 ADD DUP3 DUP2 SUB DUP3 MSTORE PUSH1 0x21 DUP2 MSTORE PUSH1 0x20 ADD DUP1 PUSH2 0x4174 PUSH1 0x21 SWAP2 CODECOPY PUSH1 0x40 ADD SWAP2 POP POP PUSH1 0x40 MLOAD DUP1 SWAP2 SUB SWAP1 REVERT JUMPDEST PUSH1 0x0 DUP2 DUP4 PUSH2 0x3F9E JUMPI PUSH1 0x40 MLOAD PUSH3 0x461BCD PUSH1 0xE5 SHL DUP2 MSTORE PUSH1 0x20 PUSH1 0x4 DUP3 ADD DUP2 DUP2 MSTORE DUP4 MLOAD PUSH1 0x24 DUP5 ADD MSTORE DUP4 MLOAD SWAP1 SWAP3 DUP4 SWAP3 PUSH1 0x44 SWAP1 SWAP2 ADD SWAP2 SWAP1 DUP6 ADD SWAP1 DUP1 DUP4 DUP4 PUSH1 0x0 DUP4 ISZERO PUSH2 0x324F JUMPI DUP2 DUP2 ADD MLOAD DUP4 DUP3 ADD MSTORE PUSH1 0x20 ADD PUSH2 0x3237 JUMP JUMPDEST POP PUSH1 0x0 DUP4 DUP6 DUP2 PUSH2 0x3FAA JUMPI INVALID JUMPDEST DIV SWAP6 SWAP5 POP POP POP POP POP JUMP JUMPDEST DUP3 DUP1 SLOAD PUSH1 0x1 DUP2 PUSH1 0x1 AND ISZERO PUSH2 0x100 MUL SUB AND PUSH1 0x2 SWAP1 DIV SWAP1 PUSH1 0x0 MSTORE PUSH1 0x20 PUSH1 0x0 KECCAK256 SWAP1 PUSH1 0x1F ADD PUSH1 0x20 SWAP1 DIV DUP2 ADD SWAP3 DUP3 PUSH1 0x1F LT PUSH2 0x3FF5 JUMPI DUP1 MLOAD PUSH1 0xFF NOT AND DUP4 DUP1 ADD OR DUP6 SSTORE PUSH2 0x4022 JUMP JUMPDEST DUP3 DUP1 ADD PUSH1 0x1 ADD DUP6 SSTORE DUP3 ISZERO PUSH2 0x4022 JUMPI SWAP2 DUP3 ADD JUMPDEST DUP3 DUP2 GT ISZERO PUSH2 0x4022 JUMPI DUP3 MLOAD DUP3 SSTORE SWAP2 PUSH1 0x20 ADD SWAP2 SWAP1 PUSH1 0x1 ADD SWAP1 PUSH2 0x4007 JUMP JUMPDEST POP PUSH2 0x402E SWAP3 SWAP2 POP PUSH2 0x40EE JUMP JUMPDEST POP SWAP1 JUMP JUMPDEST DUP3 DUP1 SLOAD DUP3 DUP3 SSTORE SWAP1 PUSH1 0x0 MSTORE PUSH1 0x20 PUSH1 0x0 KECCAK256 SWAP1 DUP2 ADD SWAP3 DUP3 ISZERO PUSH2 0x4022 JUMPI SWAP2 PUSH1 0x20 MUL DUP3 ADD JUMPDEST DUP3 DUP2 GT ISZERO PUSH2 0x4022 JUMPI DUP3 CALLDATALOAD DUP3 SSTORE SWAP2 PUSH1 0x20 ADD SWAP2 SWAP1 PUSH1 0x1 ADD SWAP1 PUSH2 0x4052 JUMP JUMPDEST DUP3 DUP1 SLOAD DUP3 DUP3 SSTORE SWAP1 PUSH1 0x0 MSTORE PUSH1 0x20 PUSH1 0x0 KECCAK256 SWAP1 DUP2 ADD SWAP3 DUP3 ISZERO PUSH2 0x40C2 JUMPI SWAP2 PUSH1 0x20 MUL DUP3 ADD JUMPDEST DUP3 DUP2 GT ISZERO PUSH2 0x40C2 JUMPI DUP3 MLOAD DUP3 SLOAD PUSH1 0x1 PUSH1 0x1 PUSH1 0xA0 SHL SUB NOT AND PUSH1 0x1 PUSH1 0x1 PUSH1 0xA0 SHL SUB SWAP1 SWAP2 AND OR DUP3 SSTORE PUSH1 0x20 SWAP1 SWAP3 ADD SWAP2 PUSH1 0x1 SWAP1 SWAP2 ADD SWAP1 PUSH2 0x408D JUMP JUMPDEST POP PUSH2 0x402E SWAP3 SWAP2 POP PUSH2 0x4108 JUMP JUMPDEST DUP2 SLOAD DUP2 DUP4 SSTORE DUP2 DUP2 GT ISZERO PUSH2 0x14AB JUMPI PUSH1 0x0 DUP4 DUP2 MSTORE PUSH1 0x20 SWAP1 KECCAK256 PUSH2 0x14AB SWAP2 DUP2 ADD SWAP1 DUP4 ADD JUMPDEST PUSH2 0x11BD SWAP2 SWAP1 JUMPDEST DUP1 DUP3 GT ISZERO PUSH2 0x402E JUMPI PUSH1 0x0 DUP2 SSTORE PUSH1 0x1 ADD PUSH2 0x40F4 JUMP JUMPDEST PUSH2 0x11BD SWAP2 SWAP1 JUMPDEST DUP1 DUP3 GT ISZERO PUSH2 0x402E JUMPI DUP1 SLOAD PUSH1 0x1 PUSH1 0x1 PUSH1 0xA0 SHL SUB NOT AND DUP2 SSTORE PUSH1 0x1 ADD PUSH2 0x410E JUMP INVALID 0x4F PUSH24 0x6E61626C653A206E6577206F776E65722069732074686520 PUSH27 0x65726F2061646472657373526F6C65733A206163636F756E742064 PUSH16 0x6573206E6F74206861766520726F6C65 MSTORE8 PUSH2 0x6665 0x4D PUSH2 0x7468 GASPRICE KECCAK256 PUSH14 0x756C7469706C69636174696F6E20 PUSH16 0x766572666C6F774F776E61626C653A20 PUSH4 0x616C6C65 PUSH19 0x206973206E6F7420746865206F776E6572526F PUSH13 0x65733A206163636F756E742069 PUSH20 0x20746865207A65726F2061646472657373A26562 PUSH27 0x7A723158205A7DCE77B3C07CD0C512CDDFC1A26ACC352A7E3FFDAB PUSH3 0xBE2DD8 DUP15 SUB 0xEE SWAP9 0x22 SWAP10 PUSH5 0x736F6C6343 STOP SDIV GT STOP ORIGIN ",
  "sha1": "4d1b30b2a0f82aec56b9605811a511baac468bff",
  "source": "/*\n * This code has not been reviewed.\n * Do not use or deploy this code before reviewing it personally first.\n */\npragma solidity ^0.5.0;\n\nimport \"OpenZeppelin/openzeppelin-contracts@2.5.1/contracts/math/SafeMath.sol\";\n\nimport \"OpenZeppelin/openzeppelin-contracts@2.5.1/contracts/token/ERC20/IERC20.sol\";\nimport \"OpenZeppelin/openzeppelin-contracts@2.5.1/contracts/ownership/Ownable.sol\";\nimport \"./Caller.sol\";\nimport \"./roles/MinterRole.sol\";\nimport \"./CallerInterface.sol\";\nimport \"./IERC1400.sol\";\n\n// Extensions\n\n/**\n * @title ERC1400\n * @dev ERC1400 logic\n */\ncontract ERC1400 is IERC20, IERC1400, MinterRole, Ownable {\n  using SafeMath for uint256;\n\n  // Token\n  string constant internal ERC1400_INTERFACE_NAME = \"ERC1400Token\";\n  string constant internal ERC20_INTERFACE_NAME = \"ERC20Token\";\n\n\n\n  /************************************* Token description ****************************************/\n  string internal _name;\n  string internal _symbol;\n  uint256 internal _granularity;\n  uint256 internal _totalSupply;\n  bool internal _migrated;\n  address public whitelist;\n  /************************************************************************************************/\n\n\n  /**************************************** Token behaviours **************************************/\n  // Indicate whether the token can still be controlled by operators or not anymore.\n  bool internal _isControllable;\n\n  // Indicate whether the token can still be issued by the issuer or not anymore.\n  bool internal _isIssuable;\n  /************************************************************************************************/\n\n\n  /********************************** ERC20 Token mappings ****************************************/\n  // Mapping from tokenHolder to balance.\n  mapping(address => uint256) internal _balances;\n\n  // Mapping from (tokenHolder, spender) to allowed value.\n  mapping (address => mapping (address => uint256)) internal _allowed;\n  /************************************************************************************************/\n\n\n  /**************************************** Documents *********************************************/\n  struct Doc {\n    string docURI;\n    bytes32 docHash;\n  }\n  // Mapping for token URIs.\n  mapping(bytes32 => Doc) internal _documents;\n  /************************************************************************************************/\n\n\n  /*********************************** Partitions  mappings ***************************************/\n  // List of partitions.\n  bytes32[] internal _totalPartitions;\n\n  // Mapping from partition to their index.\n  mapping (bytes32 => uint256) internal _indexOfTotalPartitions;\n\n  // Mapping from partition to global balance of corresponding partition.\n  mapping (bytes32 => uint256) internal _totalSupplyByPartition;\n\n  // Mapping from tokenHolder to their partitions.\n  mapping (address => bytes32[]) internal _partitionsOf;\n\n  // Mapping from (tokenHolder, partition) to their index.\n  mapping (address => mapping (bytes32 => uint256)) internal _indexOfPartitionsOf;\n\n  // Mapping from (tokenHolder, partition) to balance of corresponding partition.\n  mapping (address => mapping (bytes32 => uint256)) internal _balanceOfByPartition;\n\n  // List of token default partitions (for ERC20 compatibility).\n  bytes32[] internal _defaultPartitions;\n  /************************************************************************************************/\n\n\n  /********************************* Global operators mappings ************************************/\n  // Mapping from (operator, tokenHolder) to authorized status. [TOKEN-HOLDER-SPECIFIC]\n  mapping(address => mapping(address => bool)) internal _authorizedOperator;\n\n  // Array of controllers. [GLOBAL - NOT TOKEN-HOLDER-SPECIFIC]\n  address[] internal _controllers;\n\n  // Mapping from operator to controller status. [GLOBAL - NOT TOKEN-HOLDER-SPECIFIC]\n  mapping(address => bool) internal _isController;\n  /************************************************************************************************/\n\n\n  /******************************** Partition operators mappings **********************************/\n  // Mapping from (partition, tokenHolder, spender) to allowed value. [TOKEN-HOLDER-SPECIFIC]\n  mapping(bytes32 => mapping (address => mapping (address => uint256))) internal _allowedByPartition;\n\n  // Mapping from (tokenHolder, partition, operator) to 'approved for partition' status. [TOKEN-HOLDER-SPECIFIC]\n  mapping (address => mapping (bytes32 => mapping (address => bool))) internal _authorizedOperatorByPartition;\n\n  // Mapping from partition to controllers for the partition. [NOT TOKEN-HOLDER-SPECIFIC]\n  mapping (bytes32 => address[]) internal _controllersByPartition;\n\n  // Mapping from (partition, operator) to PartitionController status. [NOT TOKEN-HOLDER-SPECIFIC]\n  mapping (bytes32 => mapping (address => bool)) internal _isControllerByPartition;\n  /************************************************************************************************/\n\n  \n\n  /***************************************** Modifiers ********************************************/\n  /**\n   * @dev Modifier to verify if token is issuable.\n   */\n  modifier isIssuableToken() {\n    require(_isIssuable, \"55\"); // 0x55\tfunds locked (lockup period)\n    _;\n  }\n  /**\n   * @dev Modifier to make a function callable only when the contract is not migrated.\n   */\n  modifier isNotMigratedToken() {\n      require(!_migrated, \"54\"); // 0x54\ttransfers halted (contract paused)\n      _;\n  }\n  /**\n   * @dev Modifier to verifiy if sender is a minter.\n   */\n  modifier onlyMinter() {\n      require(isMinter(msg.sender) || isOwner());\n      _;\n  }\n  /************************************************************************************************/\n\n\n  /**************************** Events (additional - not mandatory) *******************************/\n  event ApprovalByPartition(bytes32 indexed partition, address indexed owner, address indexed spender, uint256 value);\n  /************************************************************************************************/\n\n\n  /**\n   * @dev Initialize ERC1400 + register the contract implementation in ERC1820Registry.\n   * @param name Name of the token.\n   * @param symbol Symbol of the token.\n   * @param granularity Granularity of the token.\n   * @param controllers Array of initial controllers.\n   * @param defaultPartitions Partitions chosen by default, when partition is\n   * not specified, like the case ERC20 tranfers.\n   */\n  constructor(\n    string memory name,\n    string memory symbol,\n    uint256 granularity,\n    address[] memory controllers,\n    bytes32[] memory defaultPartitions,\n    address _whitelist\n  )\n    public\n  {\n    _name = name;\n    _symbol = symbol;\n    _totalSupply = 0;\n    require(granularity >= 1); // Constructor Blocked - Token granularity can not be lower than 1\n    _granularity = granularity;\n\n    _setControllers(controllers);\n\n    _defaultPartitions = defaultPartitions;\n\n    _isControllable = true;\n    _isIssuable = true;\n    whitelist = _whitelist;\n\n    // Register contract in ERC1820 registry\n\n\n    // Indicate token verifies ERC1400 and ERC20 interfaces\n   \n  }\n\n  function _isAuthorized(address _customer) internal view returns(bool) {\n    CallerInterface callerInstance;\n    callerInstance = CallerInterface(whitelist);\n    return callerInstance.isAuthorized(_customer);\n  }\n  /************************************************************************************************/\n  /****************************** EXTERNAL FUNCTIONS (ERC20 INTERFACE) ****************************/\n  /************************************************************************************************/\n\n\n  /**\n   * @dev Get the total number of issued tokens.\n   * @return Total supply of tokens currently in circulation.\n   */\n  function totalSupply() external view returns (uint256) {\n    return _totalSupply;\n  }\n  /**\n   * @dev Get the balance of the account with address 'tokenHolder'.\n   * @param tokenHolder Address for which the balance is returned.\n   * @return Amount of token held by 'tokenHolder' in the token contract.\n   */\n  function balanceOf(address tokenHolder) external view returns (uint256) {\n    return _balances[tokenHolder];\n  }\n  /**\n   * @dev Transfer token for a specified address.\n   * @param to The address to transfer to.\n   * @param value The value to be transferred.\n   * @return A boolean that indicates if the operation was successful.\n   */\n  function transfer(address to, uint256 value) external returns (bool) {\n    \n    _transferByDefaultPartitions(msg.sender, msg.sender, to, value, \"\");\n    return true;\n  }\n  /**\n   * @dev Check the value of tokens that an owner allowed to a spender.\n   * @param owner address The address which owns the funds.\n   * @param spender address The address which will spend the funds.\n   * @return A uint256 specifying the value of tokens still available for the spender.\n   */\n  function allowance(address owner, address spender) external view returns (uint256) {\n    return _allowed[owner][spender];\n  }\n  /**\n   * @dev Approve the passed address to spend the specified amount of tokens on behalf of 'msg.sender'.\n   * @param spender The address which will spend the funds.\n   * @param value The amount of tokens to be spent.\n   * @return A boolean that indicates if the operation was successful.\n   */\n  function approve(address spender, uint256 value) external returns (bool) {\n    require(_isAuthorized(msg.sender) && _isAuthorized(spender));\n    require(spender != address(0), \"56\"); // 0x56\tinvalid sender\n    _allowed[msg.sender][spender] = value;\n    emit Approval(msg.sender, spender, value);\n    return true;\n  }\n  /**\n   * @dev Transfer tokens from one address to another.\n   * @param from The address which you want to transfer tokens from.\n   * @param to The address which you want to transfer to.\n   * @param value The amount of tokens to be transferred.\n   * @return A boolean that indicates if the operation was successful.\n   */\n  function transferFrom(address from, address to, uint256 value) external returns (bool) {\n    \n    require( _isOperator(msg.sender, from)\n      || (value <= _allowed[from][msg.sender]), \"53\"); // 0x53\tinsufficient allowance\n\n    if(_allowed[from][msg.sender] >= value) {\n      _allowed[from][msg.sender] = _allowed[from][msg.sender].sub(value);\n    } else {\n      _allowed[from][msg.sender] = 0;\n    }\n\n    _transferByDefaultPartitions(msg.sender, from, to, value, \"\");\n    return true;\n  }\n\n\n  /************************************************************************************************/\n  /****************************** EXTERNAL FUNCTIONS (ERC1400 INTERFACE) **************************/\n  /************************************************************************************************/\n\n\n  /************************************* Document Management **************************************/\n  /**\n   * @dev Access a document associated with the token.\n   * @param name Short name (represented as a bytes32) associated to the document.\n   * @return Requested document + document hash.\n   */\n  function getDocument(bytes32 name) external view returns (string memory, bytes32) {\n    require(bytes(_documents[name].docURI).length != 0); // Action Blocked - Empty document\n    return (\n      _documents[name].docURI,\n      _documents[name].docHash\n    );\n  }\n  /**\n   * @dev Associate a document with the token.\n   * @param name Short name (represented as a bytes32) associated to the document.\n   * @param uri Document content.\n   * @param documentHash Hash of the document [optional parameter].\n   */\n  function setDocument(bytes32 name, string calldata uri, bytes32 documentHash) external {\n    require(_isController[msg.sender]);\n    _documents[name] = Doc({\n      docURI: uri,\n      docHash: documentHash\n    });\n    emit Document(name, uri, documentHash);\n  }\n  /************************************************************************************************/\n\n\n  /************************************** Token Information ***************************************/\n  /**\n   * @dev Get balance of a tokenholder for a specific partition.\n   * @param partition Name of the partition.\n   * @param tokenHolder Address for which the balance is returned.\n   * @return Amount of token of partition 'partition' held by 'tokenHolder' in the token contract.\n   */\n  function balanceOfByPartition(bytes32 partition, address tokenHolder) external view returns (uint256) {\n    return _balanceOfByPartition[tokenHolder][partition];\n  }\n  /**\n   * @dev Get partitions index of a tokenholder.\n   * @param tokenHolder Address for which the partitions index are returned.\n   * @return Array of partitions index of 'tokenHolder'.\n   */\n  function partitionsOf(address tokenHolder) external view returns (bytes32[] memory) {\n    return _partitionsOf[tokenHolder];\n  }\n  /************************************************************************************************/\n\n\n  /****************************************** Transfers *******************************************/\n  /**\n   * @dev Transfer the amount of tokens from the address 'msg.sender' to the address 'to'.\n   * @param to Token recipient.\n   * @param value Number of tokens to transfer.\n   * @param data Information attached to the transfer, by the token holder.\n   */\n  function transferWithData(address to, uint256 value, bytes calldata data) external {\n    \n    _transferByDefaultPartitions(msg.sender, msg.sender, to, value, data);\n  }\n  /**\n   * @dev Transfer the amount of tokens on behalf of the address 'from' to the address 'to'.\n   * @param from Token holder (or 'address(0)' to set from to 'msg.sender').\n   * @param to Token recipient.\n   * @param value Number of tokens to transfer.\n   * @param data Information attached to the transfer, and intended for the token holder ('from').\n   */\n  function transferFromWithData(address from, address to, uint256 value, bytes calldata data) external {\n    \n    require(_isOperator(msg.sender, from), \"58\"); // 0x58\tinvalid operator (transfer agent)\n\n    _transferByDefaultPartitions(msg.sender, from, to, value, data);\n  }\n  /************************************************************************************************/\n\n\n  /********************************** Partition Token Transfers ***********************************/\n  /**\n   * @dev Transfer tokens from a specific partition.\n   * @param partition Name of the partition.\n   * @param to Token recipient.\n   * @param value Number of tokens to transfer.\n   * @param data Information attached to the transfer, by the token holder.\n   * @return Destination partition.\n   */\n  function transferByPartition(\n    bytes32 partition,\n    address to,\n    uint256 value,\n    bytes calldata data\n  )\n    external\n    returns (bytes32)\n  {\n  \n    return _transferByPartition(partition, msg.sender, msg.sender, to, value, data, \"\");\n  }\n  /**\n   * @dev Transfer tokens from a specific partition through an operator.\n   * @param partition Name of the partition.\n   * @param from Token holder.\n   * @param to Token recipient.\n   * @param value Number of tokens to transfer.\n   * @param data Information attached to the transfer. [CAN CONTAIN THE DESTINATION PARTITION]\n   * @param operatorData Information attached to the transfer, by the operator.\n   * @return Destination partition.\n   */\n  function operatorTransferByPartition(\n    bytes32 partition,\n    address from,\n    address to,\n    uint256 value,\n    bytes calldata data,\n    bytes calldata operatorData\n  )\n    external\n    returns (bytes32)\n  {\n    \n    require(_isOperatorForPartition(partition, msg.sender, from)\n      || (value <= _allowedByPartition[partition][from][msg.sender]), \"53\"); // 0x53\tinsufficient allowance\n\n    if(_allowedByPartition[partition][from][msg.sender] >= value) {\n      _allowedByPartition[partition][from][msg.sender] = _allowedByPartition[partition][from][msg.sender].sub(value);\n    } else {\n      _allowedByPartition[partition][from][msg.sender] = 0;\n    }\n\n    return _transferByPartition(partition, msg.sender, from, to, value, data, operatorData);\n  }\n  /************************************************************************************************/\n\n\n  /************************************* Controller Operation *************************************/\n  /**\n   * @dev Know if the token can be controlled by operators.\n   * If a token returns 'false' for 'isControllable()'' then it MUST always return 'false' in the future.\n   * @return bool 'true' if the token can still be controlled by operators, 'false' if it can't anymore.\n   */\n  function isControllable() external view returns (bool) {\n    return _isControllable;\n  }\n  /************************************************************************************************/\n\n\n  /************************************* Operator Management **************************************/\n  /**\n   * @dev Set a third party operator address as an operator of 'msg.sender' to transfer\n   * and redeem tokens on its behalf.\n   * @param operator Address to set as an operator for 'msg.sender'.\n   */\n  function authorizeOperator(address operator) external {\n    require(operator != msg.sender);\n    _authorizedOperator[operator][msg.sender] = true;\n    emit AuthorizedOperator(operator, msg.sender);\n  }\n  /**\n   * @dev Remove the right of the operator address to be an operator for 'msg.sender'\n   * and to transfer and redeem tokens on its behalf.\n   * @param operator Address to rescind as an operator for 'msg.sender'.\n   */\n  function revokeOperator(address operator) external {\n    require(operator != msg.sender);\n    _authorizedOperator[operator][msg.sender] = false;\n    emit RevokedOperator(operator, msg.sender);\n  }\n  /**\n   * @dev Set 'operator' as an operator for 'msg.sender' for a given partition.\n   * @param partition Name of the partition.\n   * @param operator Address to set as an operator for 'msg.sender'.\n   */\n  function authorizeOperatorByPartition(bytes32 partition, address operator) external {\n    _authorizedOperatorByPartition[msg.sender][partition][operator] = true;\n    emit AuthorizedOperatorByPartition(partition, operator, msg.sender);\n  }\n  /**\n   * @dev Remove the right of the operator address to be an operator on a given\n   * partition for 'msg.sender' and to transfer and redeem tokens on its behalf.\n   * @param partition Name of the partition.\n   * @param operator Address to rescind as an operator on given partition for 'msg.sender'.\n   */\n  function revokeOperatorByPartition(bytes32 partition, address operator) external {\n    _authorizedOperatorByPartition[msg.sender][partition][operator] = false;\n    emit RevokedOperatorByPartition(partition, operator, msg.sender);\n  }\n  /************************************************************************************************/\n\n\n  /************************************* Operator Information *************************************/\n  /**\n   * @dev Indicate whether the operator address is an operator of the tokenHolder address.\n   * @param operator Address which may be an operator of tokenHolder.\n   * @param tokenHolder Address of a token holder which may have the operator address as an operator.\n   * @return 'true' if operator is an operator of 'tokenHolder' and 'false' otherwise.\n   */\n  function isOperator(address operator, address tokenHolder) external view returns (bool) {\n    return _isOperator(operator, tokenHolder);\n  }\n  /**\n   * @dev Indicate whether the operator address is an operator of the tokenHolder\n   * address for the given partition.\n   * @param partition Name of the partition.\n   * @param operator Address which may be an operator of tokenHolder for the given partition.\n   * @param tokenHolder Address of a token holder which may have the operator address as an operator for the given partition.\n   * @return 'true' if 'operator' is an operator of 'tokenHolder' for partition 'partition' and 'false' otherwise.\n   */\n  function isOperatorForPartition(bytes32 partition, address operator, address tokenHolder) external view returns (bool) {\n    return _isOperatorForPartition(partition, operator, tokenHolder);\n  }\n  /************************************************************************************************/\n\n\n  /**************************************** Token Issuance ****************************************/\n  /**\n   * @dev Know if new tokens can be issued in the future.\n   * @return bool 'true' if tokens can still be issued by the issuer, 'false' if they can't anymore.\n   */\n  function isIssuable() external view returns (bool) {\n    return _isIssuable;\n  }\n  /**\n   * @dev Issue tokens from default partition.\n   * @param tokenHolder Address for which we want to issue tokens.\n   * @param value Number of tokens issued.\n   * @param data Information attached to the issuance, by the issuer.\n   */\n  function issue(address tokenHolder, uint256 value, bytes calldata data)\n    external\n    onlyMinter\n    isIssuableToken\n  {\n    \n    require(_defaultPartitions.length != 0, \"55\"); // 0x55\tfunds locked (lockup period)\n\n    _issueByPartition(_defaultPartitions[0], msg.sender, tokenHolder, value, data);\n  }\n  /**\n   * @dev Issue tokens from a specific partition.\n   * @param partition Name of the partition.\n   * @param tokenHolder Address for which we want to issue tokens.\n   * @param value Number of tokens issued.\n   * @param data Information attached to the issuance, by the issuer.\n   */\n  function issueByPartition(bytes32 partition, address tokenHolder, uint256 value, bytes calldata data)\n    external\n    onlyMinter\n    isIssuableToken\n  {\n    \n    _issueByPartition(partition, msg.sender, tokenHolder, value, data);\n  }\n  /************************************************************************************************/\n  \n\n  /*************************************** Token Redemption ***************************************/\n  /**\n   * @dev Redeem the amount of tokens from the address 'msg.sender'.\n   * @param value Number of tokens to redeem.\n   * @param data Information attached to the redemption, by the token holder.\n   */\n  function redeem(uint256 value, bytes calldata data)\n    external\n  {\n   \n    _redeemByDefaultPartitions(msg.sender, msg.sender, value, data);\n  }\n  /**\n   * @dev Redeem the amount of tokens on behalf of the address from.\n   * @param from Token holder whose tokens will be redeemed (or address(0) to set from to msg.sender).\n   * @param value Number of tokens to redeem.\n   * @param data Information attached to the redemption.\n   */\n  function redeemFrom(address from, uint256 value, bytes calldata data)\n    external\n  {\n    \n    require(_isOperator(msg.sender, from), \"58\"); // 0x58\tinvalid operator (transfer agent)\n\n    _redeemByDefaultPartitions(msg.sender, from, value, data);\n  }\n  /**\n   * @dev Redeem tokens of a specific partition.\n   * @param partition Name of the partition.\n   * @param value Number of tokens redeemed.\n   * @param data Information attached to the redemption, by the redeemer.\n   */\n  function redeemByPartition(bytes32 partition, uint256 value, bytes calldata data)\n    external\n  {\n   \n    _redeemByPartition(partition, msg.sender, msg.sender, value, data, \"\");\n  }\n  /**\n   * @dev Redeem tokens of a specific partition.\n   * @param partition Name of the partition.\n   * @param tokenHolder Address for which we want to redeem tokens.\n   * @param value Number of tokens redeemed\n   * @param operatorData Information attached to the redemption, by the operator.\n   */\n  function operatorRedeemByPartition(bytes32 partition, address tokenHolder, uint256 value, bytes calldata operatorData)\n    external\n  {\n    \n    require(_isOperatorForPartition(partition, msg.sender, tokenHolder), \"58\"); // 0x58\tinvalid operator (transfer agent)\n\n    _redeemByPartition(partition, msg.sender, tokenHolder, value, \"\", operatorData);\n  }\n  /************************************************************************************************/\n\n\n  /************************************************************************************************/\n  /************************ EXTERNAL FUNCTIONS (ADDITIONAL - NOT MANDATORY) ***********************/\n  /************************************************************************************************/\n\n\n  /************************************ Token description *****************************************/\n  /**\n   * @dev Get the name of the token, e.g., \"MyToken\".\n   * @return Name of the token.\n   */\n  function name() external view returns(string memory) {\n    return _name;\n  }\n  /**\n   * @dev Get the symbol of the token, e.g., \"MYT\".\n   * @return Symbol of the token.\n   */\n  function symbol() external view returns(string memory) {\n    return _symbol;\n  }\n  /**\n   * @dev Get the number of decimals of the token.\n   * @return The number of decimals of the token. For retrocompatibility, decimals are forced to 18 in ERC1400.\n   */\n  function decimals() external pure returns(uint8) {\n    return uint8(18);\n  }\n  /**\n   * @dev Get the smallest part of the token that’s not divisible.\n   * @return The smallest non-divisible part of the token.\n   */\n  function granularity() external view returns(uint256) {\n    return _granularity;\n  }\n  /**\n   * @dev Get list of existing partitions.\n   * @return Array of all exisiting partitions.\n   */\n  function totalPartitions() external view returns (bytes32[] memory) {\n    return _totalPartitions;\n  }\n  /**\n   * @dev Get the total number of issued tokens for a given partition.\n   * @param partition Name of the partition.\n   * @return Total supply of tokens currently in circulation, for a given partition.\n   */\n  function totalSupplyByPartition(bytes32 partition) external view returns (uint256) {\n    return _totalSupplyByPartition[partition];\n  }\n  /************************************************************************************************/\n\n\n  /**************************************** Token behaviours **************************************/\n  /**\n   * @dev Definitely renounce the possibility to control tokens on behalf of tokenHolders.\n   * Once set to false, '_isControllable' can never be set to 'true' again.\n   */\n  function renounceControl() external onlyOwner {\n    _isControllable = false;\n  }\n  /**\n   * @dev Definitely renounce the possibility to issue new tokens.\n   * Once set to false, '_isIssuable' can never be set to 'true' again.\n   */\n  function renounceIssuance() external onlyOwner {\n    _isIssuable = false;\n  }\n  /************************************************************************************************/\n\n\n  /************************************ Token controllers *****************************************/\n  /**\n   * @dev Get the list of controllers as defined by the token contract.\n   * @return List of addresses of all the controllers.\n   */\n  function controllers() external view returns (address[] memory) {\n    return _controllers;\n  }\n  /**\n   * @dev Get controllers for a given partition.\n   * @param partition Name of the partition.\n   * @return Array of controllers for partition.\n   */\n  function controllersByPartition(bytes32 partition) external view returns (address[] memory) {\n    return _controllersByPartition[partition];\n  }\n  /**\n   * @dev Set list of token controllers.\n   * @param operators Controller addresses.\n   */\n  function setControllers(address[] calldata operators) external onlyOwner {\n    _setControllers(operators);\n  }\n  /**\n   * @dev Set list of token partition controllers.\n   * @param partition Name of the partition.\n   * @param operators Controller addresses.\n   */\n   function setPartitionControllers(bytes32 partition, address[] calldata operators) external onlyOwner {\n     _setPartitionControllers(partition, operators);\n   }\n  /************************************************************************************************/\n\n\n  /********************************* Token default partitions *************************************/\n  /**\n   * @dev Get default partitions to transfer from.\n   * Function used for ERC20 retrocompatibility.\n   * For example, a security token may return the bytes32(\"unrestricted\").\n   * @return Array of default partitions.\n   */\n  function getDefaultPartitions() external view returns (bytes32[] memory) {\n    return _defaultPartitions;\n  }\n  /**\n   * @dev Set default partitions to transfer from.\n   * Function used for ERC20 retrocompatibility.\n   * @param partitions partitions to use by default when not specified.\n   */\n  function setDefaultPartitions(bytes32[] calldata partitions) external onlyOwner {\n    _defaultPartitions = partitions;\n  }\n  /************************************************************************************************/\n\n\n  /******************************** Partition Token Allowances ************************************/\n  /**\n   * @dev Check the value of tokens that an owner allowed to a spender.\n   * @param partition Name of the partition.\n   * @param owner address The address which owns the funds.\n   * @param spender address The address which will spend the funds.\n   * @return A uint256 specifying the value of tokens still available for the spender.\n   */\n  function allowanceByPartition(bytes32 partition, address owner, address spender) external view returns (uint256) {\n    return _allowedByPartition[partition][owner][spender];\n  }\n  /**\n   * @dev Approve the passed address to spend the specified amount of tokens on behalf of 'msg.sender'.\n   * @param partition Name of the partition.\n   * @param spender The address which will spend the funds.\n   * @param value The amount of tokens to be spent.\n   * @return A boolean that indicates if the operation was successful.\n   */\n  function approveByPartition(bytes32 partition, address spender, uint256 value) external returns (bool) {\n    require(_isAuthorized(spender) && _isAuthorized(msg.sender));\n    require(spender != address(0), \"56\"); // 0x56\tinvalid sender\n    _allowedByPartition[partition][msg.sender][spender] = value;\n    emit ApprovalByPartition(partition, msg.sender, spender, value);\n    return true;\n  }\n  /************************************************************************************************/\n\n\n\n  /************************************* Token migration ******************************************/\n  \n  /************************************************************************************************/\n\n\n  /************************************************************************************************/\n  /************************************* INTERNAL FUNCTIONS ***************************************/\n  /************************************************************************************************/\n\n\n  /**************************************** Token Transfers ***************************************/\n  /**\n   * @dev Perform the transfer of tokens.\n   * @param from Token holder.\n   * @param to Token recipient.\n   * @param value Number of tokens to transfer.\n   */\n  function _transferWithData(\n    address from,\n    address to,\n    uint256 value\n  )\n    internal\n    isNotMigratedToken\n  {\n    \n    require(_isMultiple(value), \"50\"); // 0x50\ttransfer failure\n    require(to != address(0), \"57\"); // 0x57\tinvalid receiver\n    require(_balances[from] >= value, \"52\"); // 0x52\tinsufficient balance\n\n    _balances[from] = _balances[from].sub(value);\n    _balances[to] = _balances[to].add(value);\n\n    emit Transfer(from, to, value); // ERC20 retrocompatibility \n  }\n  /**\n   * @dev Transfer tokens from a specific partition.\n   * @param fromPartition Partition of the tokens to transfer.\n   * @param operator The address performing the transfer.\n   * @param from Token holder.\n   * @param to Token recipient.\n   * @param value Number of tokens to transfer.\n   * @param data Information attached to the transfer. [CAN CONTAIN THE DESTINATION PARTITION]\n   * @param operatorData Information attached to the transfer, by the operator (if any).\n   * @return Destination partition.\n   */\n  function _transferByPartition(\n    bytes32 fromPartition,\n    address operator,\n    address from,\n    address to,\n    uint256 value,\n    bytes memory data,\n    bytes memory operatorData\n  )\n    internal\n    returns (bytes32)\n  {\n   \n    require(_balanceOfByPartition[from][fromPartition] >= value, \"52\"); // 0x52\tinsufficient balance\n    require(_isAuthorized(operator) && _isAuthorized(from) && _isAuthorized(to));\n    bytes32 toPartition = fromPartition;\n\n    if(operatorData.length != 0 && data.length >= 64) {\n      toPartition = _getDestinationPartition(fromPartition, data);\n    }\n\n    _callSenderExtension(fromPartition, operator, from, to, value, data, operatorData);\n    _callTokenExtension(fromPartition, operator, from, to, value, data, operatorData);\n\n    _removeTokenFromPartition(from, fromPartition, value);\n    _transferWithData(from, to, value);\n    _addTokenToPartition(to, toPartition, value);\n\n    _callRecipientExtension(toPartition, operator, from, to, value, data, operatorData);\n\n    emit TransferByPartition(fromPartition, operator, from, to, value, data, operatorData);\n\n    if(toPartition != fromPartition) {\n      emit ChangedPartition(fromPartition, toPartition, value);\n    }\n\n    return toPartition;\n  }\n  /**\n   * @dev Transfer tokens from default partitions.\n   * Function used for ERC20 retrocompatibility.\n   * @param operator The address performing the transfer.\n   * @param from Token holder.\n   * @param to Token recipient.\n   * @param value Number of tokens to transfer.\n   * @param data Information attached to the transfer, and intended for the token holder ('from') [CAN CONTAIN THE DESTINATION PARTITION].\n   */\n  function _transferByDefaultPartitions(\n    address operator,\n    address from,\n    address to,\n    uint256 value,\n    bytes memory data\n  )\n    internal\n  {\n    \n    require(_defaultPartitions.length != 0, \"55\"); // // 0x55\tfunds locked (lockup period)\n    require(_isAuthorized(operator) && _isAuthorized(from) && _isAuthorized(to));\n    uint256 _remainingValue = value;\n    uint256 _localBalance;\n\n    for (uint i = 0; i < _defaultPartitions.length; i++) {\n      _localBalance = _balanceOfByPartition[from][_defaultPartitions[i]];\n      if(_remainingValue <= _localBalance) {\n        _transferByPartition(_defaultPartitions[i], operator, from, to, _remainingValue, data, \"\");\n        _remainingValue = 0;\n        break;\n      } else if (_localBalance != 0) {\n        _transferByPartition(_defaultPartitions[i], operator, from, to, _localBalance, data, \"\");\n        _remainingValue = _remainingValue - _localBalance;\n      }\n    }\n\n    require(_remainingValue == 0, \"52\"); // 0x52\tinsufficient balance\n  }\n  /**\n   * @dev Retrieve the destination partition from the 'data' field.\n   * By convention, a partition change is requested ONLY when 'data' starts\n   * with the flag: 0xffffffffffffffffffffffffffffffffffffffffffffffffffffffffffffffff\n   * When the flag is detected, the destination tranche is extracted from the\n   * 32 bytes following the flag.\n   * @param fromPartition Partition of the tokens to transfer.\n   * @param data Information attached to the transfer. [CAN CONTAIN THE DESTINATION PARTITION]\n   * @return Destination partition.\n   */\n  function _getDestinationPartition(bytes32 fromPartition, bytes memory data) internal pure returns(bytes32 toPartition) {\n    bytes32 changePartitionFlag = 0xffffffffffffffffffffffffffffffffffffffffffffffffffffffffffffffff;\n    bytes32 flag;\n    assembly {\n      flag := mload(add(data, 32))\n    }\n    if(flag == changePartitionFlag) {\n      assembly {\n        toPartition := mload(add(data, 64))\n      }\n    } else {\n      toPartition = fromPartition;\n    }\n  }\n  /**\n   * @dev Remove a token from a specific partition.\n   * @param from Token holder.\n   * @param partition Name of the partition.\n   * @param value Number of tokens to transfer.\n   */\n  function _removeTokenFromPartition(address from, bytes32 partition, uint256 value) internal {\n    _balanceOfByPartition[from][partition] = _balanceOfByPartition[from][partition].sub(value);\n    _totalSupplyByPartition[partition] = _totalSupplyByPartition[partition].sub(value);\n\n    // If the total supply is zero, finds and deletes the partition.\n    if(_totalSupplyByPartition[partition] == 0) {\n      uint256 index1 = _indexOfTotalPartitions[partition];\n      require(index1 > 0, \"50\"); // 0x50\ttransfer failure\n\n      // move the last item into the index being vacated\n      bytes32 lastValue = _totalPartitions[_totalPartitions.length - 1];\n      _totalPartitions[index1 - 1] = lastValue; // adjust for 1-based indexing\n      _indexOfTotalPartitions[lastValue] = index1;\n\n      _totalPartitions.length -= 1;\n      _indexOfTotalPartitions[partition] = 0;\n    }\n\n    // If the balance of the TokenHolder's partition is zero, finds and deletes the partition.\n    if(_balanceOfByPartition[from][partition] == 0) {\n      uint256 index2 = _indexOfPartitionsOf[from][partition];\n      require(index2 > 0, \"50\"); // 0x50\ttransfer failure\n\n      // move the last item into the index being vacated\n      bytes32 lastValue = _partitionsOf[from][_partitionsOf[from].length - 1];\n      _partitionsOf[from][index2 - 1] = lastValue;  // adjust for 1-based indexing\n      _indexOfPartitionsOf[from][lastValue] = index2;\n\n      _partitionsOf[from].length -= 1;\n      _indexOfPartitionsOf[from][partition] = 0;\n    }\n  }\n  /**\n   * @dev Add a token to a specific partition.\n   * @param to Token recipient.\n   * @param partition Name of the partition.\n   * @param value Number of tokens to transfer.\n   */\n  function _addTokenToPartition(address to, bytes32 partition, uint256 value) internal {\n    if(value != 0) {\n      if (_indexOfPartitionsOf[to][partition] == 0) {\n        _partitionsOf[to].push(partition);\n        _indexOfPartitionsOf[to][partition] = _partitionsOf[to].length;\n      }\n      _balanceOfByPartition[to][partition] = _balanceOfByPartition[to][partition].add(value);\n\n      if (_indexOfTotalPartitions[partition] == 0) {\n        _totalPartitions.push(partition);\n        _indexOfTotalPartitions[partition] = _totalPartitions.length;\n      }\n      _totalSupplyByPartition[partition] = _totalSupplyByPartition[partition].add(value);\n    }\n  }\n  /**\n   * @dev Check if 'value' is multiple of the granularity.\n   * @param value The quantity that want's to be checked.\n   * @return 'true' if 'value' is a multiple of the granularity.\n   */\n  function _isMultiple(uint256 value) internal view returns(bool) {\n    return(value.div(_granularity).mul(_granularity) == value);\n  }\n  /************************************************************************************************/\n\n\n  /****************************************** Hooks ***********************************************/\n  /**\n   * @dev Check for 'ERC1400TokensSender' user extension in ERC1820 registry and call it.\n   * @param partition Name of the partition (bytes32 to be left empty for transfers where partition is not specified).\n   * @param operator Address which triggered the balance decrease (through transfer or redemption).\n   * @param from Token holder.\n   * @param to Token recipient for a transfer and 0x for a redemption.\n   * @param value Number of tokens the token holder balance is decreased by.\n   * @param data Extra information.\n   * @param operatorData Extra information, attached by the operator (if any).\n   */\n  function _callSenderExtension(\n    bytes32 partition,\n    address operator,\n    address from,\n    address to,\n    uint256 value,\n    bytes memory data,\n    bytes memory operatorData\n  )\n    internal\n  {\n    address senderImplementation;\n\n    \n  }\n  /**\n   * @dev Check for 'ERC1400TokensValidator' token extension in ERC1820 registry and call it.\n   * @param partition Name of the partition (bytes32 to be left empty for transfers where partition is not specified).\n   * @param operator Address which triggered the balance decrease (through transfer or redemption).\n   * @param from Token holder.\n   * @param to Token recipient for a transfer and 0x for a redemption.\n   * @param value Number of tokens the token holder balance is decreased by.\n   * @param data Extra information.\n   * @param operatorData Extra information, attached by the operator (if any).\n   */\n  function _callTokenExtension(\n    bytes32 partition,\n    address operator,\n    address from,\n    address to,\n    uint256 value,\n    bytes memory data,\n    bytes memory operatorData\n  )\n    internal\n  {\n    address validatorImplementation;\n    \n  }\n  /**\n   * @dev Check for 'ERC1400TokensRecipient' user extension in ERC1820 registry and call it.\n   * @param partition Name of the partition (bytes32 to be left empty for transfers where partition is not specified).\n   * @param operator Address which triggered the balance increase (through transfer or issuance).\n   * @param from Token holder for a transfer and 0x for an issuance.\n   * @param to Token recipient.\n   * @param value Number of tokens the recipient balance is increased by.\n   * @param data Extra information, intended for the token holder ('from').\n   * @param operatorData Extra information attached by the operator (if any).\n   */\n  function _callRecipientExtension(\n    bytes32 partition,\n    address operator,\n    address from,\n    address to,\n    uint256 value,\n    bytes memory data,\n    bytes memory operatorData\n  )\n    internal\n  {\n    address recipientImplementation;\n\n    \n  }\n  /************************************************************************************************/\n\n\n  /************************************* Operator Information *************************************/\n  /**\n   * @dev Indicate whether the operator address is an operator of the tokenHolder address.\n   * @param operator Address which may be an operator of 'tokenHolder'.\n   * @param tokenHolder Address of a token holder which may have the 'operator' address as an operator.\n   * @return 'true' if 'operator' is an operator of 'tokenHolder' and 'false' otherwise.\n   */\n  function _isOperator(address operator, address tokenHolder) internal view returns (bool) {\n    return (operator == tokenHolder\n      || _authorizedOperator[operator][tokenHolder]\n      || (_isControllable && _isController[operator])\n    );\n  }\n  /**\n   * @dev Indicate whether the operator address is an operator of the tokenHolder\n   * address for the given partition.\n   * @param partition Name of the partition.\n   * @param operator Address which may be an operator of tokenHolder for the given partition.\n   * @param tokenHolder Address of a token holder which may have the operator address as an operator for the given partition.\n   * @return 'true' if 'operator' is an operator of 'tokenHolder' for partition 'partition' and 'false' otherwise.\n   */\n   function _isOperatorForPartition(bytes32 partition, address operator, address tokenHolder) internal view returns (bool) {\n     return (_isOperator(operator, tokenHolder)\n       || _authorizedOperatorByPartition[tokenHolder][partition][operator]\n       || (_isControllable && _isControllerByPartition[partition][operator])\n     );\n   }\n  /************************************************************************************************/\n\n\n  /**************************************** Token Issuance ****************************************/\n  /**\n   * @dev Perform the issuance of tokens.\n   * @param operator Address which triggered the issuance.\n   * @param to Token recipient.\n   * @param value Number of tokens issued.\n   * @param data Information attached to the issuance, and intended for the recipient (to).\n   */\n  function _issue(address operator, address to, uint256 value, bytes memory data)\n    internal\n    isNotMigratedToken  \n  {\n    require(_isAuthorized(operator) && _isAuthorized(to));\n    require(_isMultiple(value), \"50\"); // 0x50\ttransfer failure\n    require(to != address(0), \"57\"); // 0x57\tinvalid receiver\n\n    _totalSupply = _totalSupply.add(value);\n    _balances[to] = _balances[to].add(value);\n\n    emit Issued(operator, to, value, data);\n    emit Transfer(address(0), to, value); // ERC20 retrocompatibility\n  }\n  /**\n   * @dev Issue tokens from a specific partition.\n   * @param toPartition Name of the partition.\n   * @param operator The address performing the issuance.\n   * @param to Token recipient.\n   * @param value Number of tokens to issue.\n   * @param data Information attached to the issuance.\n   */\n  function _issueByPartition(\n    bytes32 toPartition,\n    address operator,\n    address to,\n    uint256 value,\n    bytes memory data\n  )\n    internal\n  {\n    require(_isAuthorized(operator) && _isAuthorized(to));\n    _callTokenExtension(toPartition, operator, address(0), to, value, data, \"\");\n\n    _issue(operator, to, value, data);\n    _addTokenToPartition(to, toPartition, value);\n\n    _callRecipientExtension(toPartition, operator, address(0), to, value, data, \"\");\n\n    emit IssuedByPartition(toPartition, operator, to, value, data, \"\");\n  }\n  /************************************************************************************************/\n\n\n  /*************************************** Token Redemption ***************************************/\n  /**\n   * @dev Perform the token redemption.\n   * @param operator The address performing the redemption.\n   * @param from Token holder whose tokens will be redeemed.\n   * @param value Number of tokens to redeem.\n   * @param data Information attached to the redemption.\n   */\n  function _redeem(address operator, address from, uint256 value, bytes memory data)\n    internal\n    isNotMigratedToken\n  {\n    require(_isAuthorized(operator) && _isAuthorized(from));\n    require(_isMultiple(value), \"50\"); // 0x50\ttransfer failure\n    require(from != address(0), \"56\"); // 0x56\tinvalid sender\n    require(_balances[from] >= value, \"52\"); // 0x52\tinsufficient balance\n\n    _balances[from] = _balances[from].sub(value);\n    _totalSupply = _totalSupply.sub(value);\n\n    emit Redeemed(operator, from, value, data);\n    emit Transfer(from, address(0), value);  // ERC20 retrocompatibility\n  }\n  /**\n   * @dev Redeem tokens of a specific partition.\n   * @param fromPartition Name of the partition.\n   * @param operator The address performing the redemption.\n   * @param from Token holder whose tokens will be redeemed.\n   * @param value Number of tokens to redeem.\n   * @param data Information attached to the redemption.\n   * @param operatorData Information attached to the redemption, by the operator (if any).\n   */\n  function _redeemByPartition(\n    bytes32 fromPartition,\n    address operator,\n    address from,\n    uint256 value,\n    bytes memory data,\n    bytes memory operatorData\n  )\n    internal\n  {\n    require(_isAuthorized(operator) && _isAuthorized(from));\n    require(_balanceOfByPartition[from][fromPartition] >= value, \"52\"); // 0x52\tinsufficient balance\n\n    _callSenderExtension(fromPartition, operator, from, address(0), value, data, operatorData);\n    _callTokenExtension(fromPartition, operator, from, address(0), value, data, operatorData);\n\n    _removeTokenFromPartition(from, fromPartition, value);\n    _redeem(operator, from, value, data);\n\n    emit RedeemedByPartition(fromPartition, operator, from, value, operatorData);\n  }\n  /**\n   * @dev Redeem tokens from a default partitions.\n   * @param operator The address performing the redeem.\n   * @param from Token holder.\n   * @param value Number of tokens to redeem.\n   * @param data Information attached to the redemption.\n   */\n  function _redeemByDefaultPartitions(\n    address operator,\n    address from,\n    uint256 value,\n    bytes memory data\n  )\n    internal\n  {\n    require(_isAuthorized(operator) && _isAuthorized(from));\n    require(_defaultPartitions.length != 0, \"55\"); // 0x55\tfunds locked (lockup period)\n\n    uint256 _remainingValue = value;\n    uint256 _localBalance;\n\n    for (uint i = 0; i < _defaultPartitions.length; i++) {\n      _localBalance = _balanceOfByPartition[from][_defaultPartitions[i]];\n      if(_remainingValue <= _localBalance) {\n        _redeemByPartition(_defaultPartitions[i], operator, from, _remainingValue, data, \"\");\n        _remainingValue = 0;\n        break;\n      } else {\n        _redeemByPartition(_defaultPartitions[i], operator, from, _localBalance, data, \"\");\n        _remainingValue = _remainingValue - _localBalance;\n      }\n    }\n\n    require(_remainingValue == 0, \"52\"); // 0x52\tinsufficient balance\n  }\n  /************************************************************************************************/\n\n      \n  \n\n\n  /************************************************************************************************/\n  /************************ INTERNAL FUNCTIONS (ADDITIONAL - NOT MANDATORY) ***********************/\n  /************************************************************************************************/\n\n\n  /************************************ Token controllers *****************************************/\n  /**\n   * @dev Set list of token controllers.\n   * @param operators Controller addresses.\n   */\n  function _setControllers(address[] memory operators) internal {\n    for (uint i = 0; i<_controllers.length; i++){\n      _isController[_controllers[i]] = false;\n    }\n    for (uint j = 0; j<operators.length; j++){\n      _isController[operators[j]] = true;\n    }\n    _controllers = operators;\n  }\n  /**\n   * @dev Set list of token partition controllers.\n   * @param partition Name of the partition.\n   * @param operators Controller addresses.\n   */\n   function _setPartitionControllers(bytes32 partition, address[] memory operators) internal {\n     for (uint i = 0; i<_controllersByPartition[partition].length; i++){\n       _isControllerByPartition[partition][_controllersByPartition[partition][i]] = false;\n     }\n     for (uint j = 0; j<operators.length; j++){\n       _isControllerByPartition[partition][operators[j]] = true;\n     }\n     _controllersByPartition[partition] = operators;\n   }\n  /************************************************************************************************/\n\n\n\n\n  /************************************************************************************************/\n\n}\n",
  "sourcePath": "contracts/ERC1400.sol",
  "type": "contract"
}