{
  "abi": [
    {
      "anonymous": false,
      "inputs": [
        {
          "indexed": false,
          "internalType": "bool",
          "name": "isKYC",
          "type": "bool"
        },
        {
          "indexed": false,
          "internalType": "uint256",
          "name": "id",
          "type": "uint256"
        }
      ],
      "name": "KYCUpdatedEvent",
      "type": "event"
    },
    {
      "anonymous": false,
      "inputs": [
        {
          "indexed": true,
          "internalType": "address",
          "name": "previousOwner",
          "type": "address"
        },
        {
          "indexed": true,
          "internalType": "address",
          "name": "newOwner",
          "type": "address"
        }
      ],
      "name": "OwnershipTransferred",
      "type": "event"
    },
    {
      "anonymous": false,
      "inputs": [
        {
          "indexed": false,
          "internalType": "uint256",
          "name": "id",
          "type": "uint256"
        },
        {
          "indexed": false,
          "internalType": "address",
          "name": "customer",
          "type": "address"
        }
      ],
      "name": "ReceivedNewRequestIdEvent",
      "type": "event"
    },
    {
      "anonymous": false,
      "inputs": [
        {
          "indexed": false,
          "internalType": "address",
          "name": "oracleAddress",
          "type": "address"
        }
      ],
      "name": "newOracleAddressEvent",
      "type": "event"
    },
    {
      "inputs": [
        {
          "internalType": "uint256",
          "name": "_customerId",
          "type": "uint256"
        },
        {
          "internalType": "bool",
          "name": "_isKYC",
          "type": "bool"
        },
        {
          "internalType": "address",
          "name": "_customer",
          "type": "address"
        },
        {
          "internalType": "uint256",
          "name": "_id",
          "type": "uint256"
        }
      ],
      "name": "callback",
      "outputs": [],
      "stateMutability": "nonpayable",
      "type": "function"
    },
    {
      "inputs": [
        {
          "internalType": "address",
          "name": "_customer",
          "type": "address"
        }
      ],
      "name": "getCustomerAuthorization",
      "outputs": [
        {
          "internalType": "bool",
          "name": "",
          "type": "bool"
        }
      ],
      "stateMutability": "view",
      "type": "function"
    },
    {
      "inputs": [
        {
          "internalType": "address",
          "name": "_customer",
          "type": "address"
        }
      ],
      "name": "getCustomerDate",
      "outputs": [
        {
          "internalType": "uint32",
          "name": "",
          "type": "uint32"
        }
      ],
      "stateMutability": "view",
      "type": "function"
    },
    {
      "inputs": [
        {
          "internalType": "address",
          "name": "_customer",
          "type": "address"
        }
      ],
      "name": "getCustomerId",
      "outputs": [
        {
          "internalType": "uint256",
          "name": "",
          "type": "uint256"
        }
      ],
      "stateMutability": "view",
      "type": "function"
    },
    {
      "inputs": [],
      "name": "getOracleAddress",
      "outputs": [
        {
          "internalType": "address",
          "name": "",
          "type": "address"
        }
      ],
      "stateMutability": "view",
      "type": "function"
    },
    {
      "inputs": [
        {
          "internalType": "address",
          "name": "_customer",
          "type": "address"
        }
      ],
      "name": "isAuthorized",
      "outputs": [
        {
          "internalType": "bool",
          "name": "",
          "type": "bool"
        }
      ],
      "stateMutability": "view",
      "type": "function"
    },
    {
      "inputs": [],
      "name": "owner",
      "outputs": [
        {
          "internalType": "address",
          "name": "",
          "type": "address"
        }
      ],
      "stateMutability": "view",
      "type": "function"
    },
    {
      "inputs": [],
      "name": "renounceOwnership",
      "outputs": [],
      "stateMutability": "nonpayable",
      "type": "function"
    },
    {
      "inputs": [
        {
          "internalType": "address",
          "name": "_oracleInstanceAddress",
          "type": "address"
        }
      ],
      "name": "setOracleInstanceAddress",
      "outputs": [],
      "stateMutability": "nonpayable",
      "type": "function"
    },
    {
      "inputs": [
        {
          "internalType": "address",
          "name": "newOwner",
          "type": "address"
        }
      ],
      "name": "transferOwnership",
      "outputs": [],
      "stateMutability": "nonpayable",
      "type": "function"
    },
    {
      "inputs": [
        {
          "internalType": "address",
          "name": "_customer",
          "type": "address"
        }
      ],
      "name": "updateKYC",
      "outputs": [],
      "stateMutability": "nonpayable",
      "type": "function"
    }
  ],
  "bytecode": "60806040526000805460ff60a01b1916905534801561001d57600080fd5b506100273361002c565b61007c565b600080546001600160a01b038381166001600160a01b0319831681178455604051919092169283917f8be0079c531659141344cd1fd0a4f28419497f9722a3daafe3b4186f6b6457e09190a35050565b6106f08061008b6000396000f3fe608060405234801561001057600080fd5b50600436106100a95760003560e01c8063b18b78dd11610071578063b18b78dd14610173578063c944d2ca14610184578063ddef9ac0146101cb578063e9e17a9e146101de578063f2fde38b146101f1578063fe9fbb80146100ff57600080fd5b80630272ee97146100ae5780633a521b87146100c3578063650314d6146100ff578063715018a6146101465780638da5cb5b1461014e575b600080fd5b6100c16100bc3660046105d9565b610204565b005b6100ec6100d13660046105d9565b6001600160a01b031660009081526004602052604090205490565b6040519081526020015b60405180910390f35b61013661010d3660046105d9565b6001600160a01b0316600090815260046020526040902060010154640100000000900460ff1690565b60405190151581526020016100f6565b6100c16102f0565b6000546001600160a01b03165b6040516001600160a01b0390911681526020016100f6565b6002546001600160a01b031661015b565b6101b66101923660046105d9565b6001600160a01b031660009081526004602052604090206001015463ffffffff1690565b60405163ffffffff90911681526020016100f6565b6100c16101d9366004610614565b61032f565b6100c16101ec3660046105d9565b610448565b6100c16101ff3660046105d9565b6104d2565b600154604051634d1a687d60e01b81526001600160a01b0383811660048301526000921690634d1a687d90602401602060405180830381600087803b15801561024c57600080fd5b505af1158015610260573d6000803e3d6000fd5b505050506040513d601f19601f8201168201806040525081019061028491906105fb565b60008181526003602052604090819020805460ff19166001179055519091507f023f92af5f59336c90c38c89410acf21801e112289cf776fbe3dfa7f300dbff7906102e490839085909182526001600160a01b0316602082015260400190565b60405180910390a15050565b6000546001600160a01b031633146103235760405162461bcd60e51b815260040161031a9061065f565b60405180910390fd5b61032d600061056d565b565b6002546001600160a01b0316331461034657600080fd5b60008181526003602052604090205460ff1661036157600080fd5b6000805460ff60a01b1916600160a01b8515159081029190911782556001600160a01b038416825260046020526040909120858155600101805464ff0000000019166401000000009092029190911790556103c0426301dfe200610694565b6001600160a01b0383166000908152600460209081526040808320600101805463ffffffff191663ffffffff95909516949094179093558382526003815290829020805460ff19169055815185151581529081018390527fbf59b978135d33813ee8e3ded58396d9328c70d082d236f1bf1db922a392c4aa910160405180910390a150505050565b6000546001600160a01b031633146104725760405162461bcd60e51b815260040161031a9061065f565b600280546001600160a01b0383166001600160a01b0319918216811790925560018054909116821790556040519081527f441e3b056b114797955165bd03bb8393fc1658a713f09225de4745a8d068bf7d9060200160405180910390a150565b6000546001600160a01b031633146104fc5760405162461bcd60e51b815260040161031a9061065f565b6001600160a01b0381166105615760405162461bcd60e51b815260206004820152602660248201527f4f776e61626c653a206e6577206f776e657220697320746865207a65726f206160448201526564647265737360d01b606482015260840161031a565b61056a8161056d565b50565b600080546001600160a01b038381166001600160a01b0319831681178455604051919092169283917f8be0079c531659141344cd1fd0a4f28419497f9722a3daafe3b4186f6b6457e09190a35050565b80356001600160a01b03811681146105d457600080fd5b919050565b6000602082840312156105eb57600080fd5b6105f4826105bd565b9392505050565b60006020828403121561060d57600080fd5b5051919050565b6000806000806080858703121561062a57600080fd5b843593506020850135801515811461064157600080fd5b925061064f604086016105bd565b9396929550929360600135925050565b6020808252818101527f4f776e61626c653a2063616c6c6572206973206e6f7420746865206f776e6572604082015260600190565b600082198211156106b557634e487b7160e01b600052601160045260246000fd5b50019056fea264697066735822122054b25af33e5ab1110ae7a52c83989b148efe98fae7e3c77dd864d5dcbef63c8264736f6c63430008070033",
  "bytecodeSha1": "42d086b4c6eff40690dac7930d44ff24e381cb88",
  "compiler": {
    "evm_version": "istanbul",
    "optimizer": {
      "enabled": true,
      "runs": 200
    },
    "version": "0.8.7+commit.e28d00a7"
  },
  "contractName": "CallerContract",
  "language": "Solidity",
  "natspec": {
    "kind": "dev",
    "methods": {
      "owner()": {
        "details": "Returns the address of the current owner."
      },
      "renounceOwnership()": {
        "details": "Leaves the contract without owner. It will not be possible to call `onlyOwner` functions anymore. Can only be called by the current owner. NOTE: Renouncing ownership will leave the contract without an owner, thereby removing any functionality that is only available to the owner."
      },
      "transferOwnership(address)": {
        "details": "Transfers ownership of the contract to a new account (`newOwner`). Can only be called by the current owner."
      }
    },
    "version": 1
  },
  "opcodes": "PUSH1 0x80 PUSH1 0x40 MSTORE CALLVALUE DUP1 ISZERO PUSH2 0x10 JUMPI PUSH1 0x0 DUP1 REVERT JUMPDEST POP PUSH1 0x4 CALLDATASIZE LT PUSH2 0xA9 JUMPI PUSH1 0x0 CALLDATALOAD PUSH1 0xE0 SHR DUP1 PUSH4 0xB18B78DD GT PUSH2 0x71 JUMPI DUP1 PUSH4 0xB18B78DD EQ PUSH2 0x173 JUMPI DUP1 PUSH4 0xC944D2CA EQ PUSH2 0x184 JUMPI DUP1 PUSH4 0xDDEF9AC0 EQ PUSH2 0x1CB JUMPI DUP1 PUSH4 0xE9E17A9E EQ PUSH2 0x1DE JUMPI DUP1 PUSH4 0xF2FDE38B EQ PUSH2 0x1F1 JUMPI DUP1 PUSH4 0xFE9FBB80 EQ PUSH2 0xFF JUMPI PUSH1 0x0 DUP1 REVERT JUMPDEST DUP1 PUSH4 0x272EE97 EQ PUSH2 0xAE JUMPI DUP1 PUSH4 0x3A521B87 EQ PUSH2 0xC3 JUMPI DUP1 PUSH4 0x650314D6 EQ PUSH2 0xFF JUMPI DUP1 PUSH4 0x715018A6 EQ PUSH2 0x146 JUMPI DUP1 PUSH4 0x8DA5CB5B EQ PUSH2 0x14E JUMPI JUMPDEST PUSH1 0x0 DUP1 REVERT JUMPDEST PUSH2 0xC1 PUSH2 0xBC CALLDATASIZE PUSH1 0x4 PUSH2 0x5D9 JUMP JUMPDEST PUSH2 0x204 JUMP JUMPDEST STOP JUMPDEST PUSH2 0xEC PUSH2 0xD1 CALLDATASIZE PUSH1 0x4 PUSH2 0x5D9 JUMP JUMPDEST PUSH1 0x1 PUSH1 0x1 PUSH1 0xA0 SHL SUB AND PUSH1 0x0 SWAP1 DUP2 MSTORE PUSH1 0x4 PUSH1 0x20 MSTORE PUSH1 0x40 SWAP1 KECCAK256 SLOAD SWAP1 JUMP JUMPDEST PUSH1 0x40 MLOAD SWAP1 DUP2 MSTORE PUSH1 0x20 ADD JUMPDEST PUSH1 0x40 MLOAD DUP1 SWAP2 SUB SWAP1 RETURN JUMPDEST PUSH2 0x136 PUSH2 0x10D CALLDATASIZE PUSH1 0x4 PUSH2 0x5D9 JUMP JUMPDEST PUSH1 0x1 PUSH1 0x1 PUSH1 0xA0 SHL SUB AND PUSH1 0x0 SWAP1 DUP2 MSTORE PUSH1 0x4 PUSH1 0x20 MSTORE PUSH1 0x40 SWAP1 KECCAK256 PUSH1 0x1 ADD SLOAD PUSH5 0x100000000 SWAP1 DIV PUSH1 0xFF AND SWAP1 JUMP JUMPDEST PUSH1 0x40 MLOAD SWAP1 ISZERO ISZERO DUP2 MSTORE PUSH1 0x20 ADD PUSH2 0xF6 JUMP JUMPDEST PUSH2 0xC1 PUSH2 0x2F0 JUMP JUMPDEST PUSH1 0x0 SLOAD PUSH1 0x1 PUSH1 0x1 PUSH1 0xA0 SHL SUB AND JUMPDEST PUSH1 0x40 MLOAD PUSH1 0x1 PUSH1 0x1 PUSH1 0xA0 SHL SUB SWAP1 SWAP2 AND DUP2 MSTORE PUSH1 0x20 ADD PUSH2 0xF6 JUMP JUMPDEST PUSH1 0x2 SLOAD PUSH1 0x1 PUSH1 0x1 PUSH1 0xA0 SHL SUB AND PUSH2 0x15B JUMP JUMPDEST PUSH2 0x1B6 PUSH2 0x192 CALLDATASIZE PUSH1 0x4 PUSH2 0x5D9 JUMP JUMPDEST PUSH1 0x1 PUSH1 0x1 PUSH1 0xA0 SHL SUB AND PUSH1 0x0 SWAP1 DUP2 MSTORE PUSH1 0x4 PUSH1 0x20 MSTORE PUSH1 0x40 SWAP1 KECCAK256 PUSH1 0x1 ADD SLOAD PUSH4 0xFFFFFFFF AND SWAP1 JUMP JUMPDEST PUSH1 0x40 MLOAD PUSH4 0xFFFFFFFF SWAP1 SWAP2 AND DUP2 MSTORE PUSH1 0x20 ADD PUSH2 0xF6 JUMP JUMPDEST PUSH2 0xC1 PUSH2 0x1D9 CALLDATASIZE PUSH1 0x4 PUSH2 0x614 JUMP JUMPDEST PUSH2 0x32F JUMP JUMPDEST PUSH2 0xC1 PUSH2 0x1EC CALLDATASIZE PUSH1 0x4 PUSH2 0x5D9 JUMP JUMPDEST PUSH2 0x448 JUMP JUMPDEST PUSH2 0xC1 PUSH2 0x1FF CALLDATASIZE PUSH1 0x4 PUSH2 0x5D9 JUMP JUMPDEST PUSH2 0x4D2 JUMP JUMPDEST PUSH1 0x1 SLOAD PUSH1 0x40 MLOAD PUSH4 0x4D1A687D PUSH1 0xE0 SHL DUP2 MSTORE PUSH1 0x1 PUSH1 0x1 PUSH1 0xA0 SHL SUB DUP4 DUP2 AND PUSH1 0x4 DUP4 ADD MSTORE PUSH1 0x0 SWAP3 AND SWAP1 PUSH4 0x4D1A687D SWAP1 PUSH1 0x24 ADD PUSH1 0x20 PUSH1 0x40 MLOAD DUP1 DUP4 SUB DUP2 PUSH1 0x0 DUP8 DUP1 EXTCODESIZE ISZERO DUP1 ISZERO PUSH2 0x24C JUMPI PUSH1 0x0 DUP1 REVERT JUMPDEST POP GAS CALL ISZERO DUP1 ISZERO PUSH2 0x260 JUMPI RETURNDATASIZE PUSH1 0x0 DUP1 RETURNDATACOPY RETURNDATASIZE PUSH1 0x0 REVERT JUMPDEST POP POP POP POP PUSH1 0x40 MLOAD RETURNDATASIZE PUSH1 0x1F NOT PUSH1 0x1F DUP3 ADD AND DUP3 ADD DUP1 PUSH1 0x40 MSTORE POP DUP2 ADD SWAP1 PUSH2 0x284 SWAP2 SWAP1 PUSH2 0x5FB JUMP JUMPDEST PUSH1 0x0 DUP2 DUP2 MSTORE PUSH1 0x3 PUSH1 0x20 MSTORE PUSH1 0x40 SWAP1 DUP2 SWAP1 KECCAK256 DUP1 SLOAD PUSH1 0xFF NOT AND PUSH1 0x1 OR SWAP1 SSTORE MLOAD SWAP1 SWAP2 POP PUSH32 0x23F92AF5F59336C90C38C89410ACF21801E112289CF776FBE3DFA7F300DBFF7 SWAP1 PUSH2 0x2E4 SWAP1 DUP4 SWAP1 DUP6 SWAP1 SWAP2 DUP3 MSTORE PUSH1 0x1 PUSH1 0x1 PUSH1 0xA0 SHL SUB AND PUSH1 0x20 DUP3 ADD MSTORE PUSH1 0x40 ADD SWAP1 JUMP JUMPDEST PUSH1 0x40 MLOAD DUP1 SWAP2 SUB SWAP1 LOG1 POP POP JUMP JUMPDEST PUSH1 0x0 SLOAD PUSH1 0x1 PUSH1 0x1 PUSH1 0xA0 SHL SUB AND CALLER EQ PUSH2 0x323 JUMPI PUSH1 0x40 MLOAD PUSH3 0x461BCD PUSH1 0xE5 SHL DUP2 MSTORE PUSH1 0x4 ADD PUSH2 0x31A SWAP1 PUSH2 0x65F JUMP JUMPDEST PUSH1 0x40 MLOAD DUP1 SWAP2 SUB SWAP1 REVERT JUMPDEST PUSH2 0x32D PUSH1 0x0 PUSH2 0x56D JUMP JUMPDEST JUMP JUMPDEST PUSH1 0x2 SLOAD PUSH1 0x1 PUSH1 0x1 PUSH1 0xA0 SHL SUB AND CALLER EQ PUSH2 0x346 JUMPI PUSH1 0x0 DUP1 REVERT JUMPDEST PUSH1 0x0 DUP2 DUP2 MSTORE PUSH1 0x3 PUSH1 0x20 MSTORE PUSH1 0x40 SWAP1 KECCAK256 SLOAD PUSH1 0xFF AND PUSH2 0x361 JUMPI PUSH1 0x0 DUP1 REVERT JUMPDEST PUSH1 0x0 DUP1 SLOAD PUSH1 0xFF PUSH1 0xA0 SHL NOT AND PUSH1 0x1 PUSH1 0xA0 SHL DUP6 ISZERO ISZERO SWAP1 DUP2 MUL SWAP2 SWAP1 SWAP2 OR DUP3 SSTORE PUSH1 0x1 PUSH1 0x1 PUSH1 0xA0 SHL SUB DUP5 AND DUP3 MSTORE PUSH1 0x4 PUSH1 0x20 MSTORE PUSH1 0x40 SWAP1 SWAP2 KECCAK256 DUP6 DUP2 SSTORE PUSH1 0x1 ADD DUP1 SLOAD PUSH5 0xFF00000000 NOT AND PUSH5 0x100000000 SWAP1 SWAP3 MUL SWAP2 SWAP1 SWAP2 OR SWAP1 SSTORE PUSH2 0x3C0 TIMESTAMP PUSH4 0x1DFE200 PUSH2 0x694 JUMP JUMPDEST PUSH1 0x1 PUSH1 0x1 PUSH1 0xA0 SHL SUB DUP4 AND PUSH1 0x0 SWAP1 DUP2 MSTORE PUSH1 0x4 PUSH1 0x20 SWAP1 DUP2 MSTORE PUSH1 0x40 DUP1 DUP4 KECCAK256 PUSH1 0x1 ADD DUP1 SLOAD PUSH4 0xFFFFFFFF NOT AND PUSH4 0xFFFFFFFF SWAP6 SWAP1 SWAP6 AND SWAP5 SWAP1 SWAP5 OR SWAP1 SWAP4 SSTORE DUP4 DUP3 MSTORE PUSH1 0x3 DUP2 MSTORE SWAP1 DUP3 SWAP1 KECCAK256 DUP1 SLOAD PUSH1 0xFF NOT AND SWAP1 SSTORE DUP2 MLOAD DUP6 ISZERO ISZERO DUP2 MSTORE SWAP1 DUP2 ADD DUP4 SWAP1 MSTORE PUSH32 0xBF59B978135D33813EE8E3DED58396D9328C70D082D236F1BF1DB922A392C4AA SWAP2 ADD PUSH1 0x40 MLOAD DUP1 SWAP2 SUB SWAP1 LOG1 POP POP POP POP JUMP JUMPDEST PUSH1 0x0 SLOAD PUSH1 0x1 PUSH1 0x1 PUSH1 0xA0 SHL SUB AND CALLER EQ PUSH2 0x472 JUMPI PUSH1 0x40 MLOAD PUSH3 0x461BCD PUSH1 0xE5 SHL DUP2 MSTORE PUSH1 0x4 ADD PUSH2 0x31A SWAP1 PUSH2 0x65F JUMP JUMPDEST PUSH1 0x2 DUP1 SLOAD PUSH1 0x1 PUSH1 0x1 PUSH1 0xA0 SHL SUB DUP4 AND PUSH1 0x1 PUSH1 0x1 PUSH1 0xA0 SHL SUB NOT SWAP2 DUP3 AND DUP2 OR SWAP1 SWAP3 SSTORE PUSH1 0x1 DUP1 SLOAD SWAP1 SWAP2 AND DUP3 OR SWAP1 SSTORE PUSH1 0x40 MLOAD SWAP1 DUP2 MSTORE PUSH32 0x441E3B056B114797955165BD03BB8393FC1658A713F09225DE4745A8D068BF7D SWAP1 PUSH1 0x20 ADD PUSH1 0x40 MLOAD DUP1 SWAP2 SUB SWAP1 LOG1 POP JUMP JUMPDEST PUSH1 0x0 SLOAD PUSH1 0x1 PUSH1 0x1 PUSH1 0xA0 SHL SUB AND CALLER EQ PUSH2 0x4FC JUMPI PUSH1 0x40 MLOAD PUSH3 0x461BCD PUSH1 0xE5 SHL DUP2 MSTORE PUSH1 0x4 ADD PUSH2 0x31A SWAP1 PUSH2 0x65F JUMP JUMPDEST PUSH1 0x1 PUSH1 0x1 PUSH1 0xA0 SHL SUB DUP2 AND PUSH2 0x561 JUMPI PUSH1 0x40 MLOAD PUSH3 0x461BCD PUSH1 0xE5 SHL DUP2 MSTORE PUSH1 0x20 PUSH1 0x4 DUP3 ADD MSTORE PUSH1 0x26 PUSH1 0x24 DUP3 ADD MSTORE PUSH32 0x4F776E61626C653A206E6577206F776E657220697320746865207A65726F2061 PUSH1 0x44 DUP3 ADD MSTORE PUSH6 0x646472657373 PUSH1 0xD0 SHL PUSH1 0x64 DUP3 ADD MSTORE PUSH1 0x84 ADD PUSH2 0x31A JUMP JUMPDEST PUSH2 0x56A DUP2 PUSH2 0x56D JUMP JUMPDEST POP JUMP JUMPDEST PUSH1 0x0 DUP1 SLOAD PUSH1 0x1 PUSH1 0x1 PUSH1 0xA0 SHL SUB DUP4 DUP2 AND PUSH1 0x1 PUSH1 0x1 PUSH1 0xA0 SHL SUB NOT DUP4 AND DUP2 OR DUP5 SSTORE PUSH1 0x40 MLOAD SWAP2 SWAP1 SWAP3 AND SWAP3 DUP4 SWAP2 PUSH32 0x8BE0079C531659141344CD1FD0A4F28419497F9722A3DAAFE3B4186F6B6457E0 SWAP2 SWAP1 LOG3 POP POP JUMP JUMPDEST DUP1 CALLDATALOAD PUSH1 0x1 PUSH1 0x1 PUSH1 0xA0 SHL SUB DUP2 AND DUP2 EQ PUSH2 0x5D4 JUMPI PUSH1 0x0 DUP1 REVERT JUMPDEST SWAP2 SWAP1 POP JUMP JUMPDEST PUSH1 0x0 PUSH1 0x20 DUP3 DUP5 SUB SLT ISZERO PUSH2 0x5EB JUMPI PUSH1 0x0 DUP1 REVERT JUMPDEST PUSH2 0x5F4 DUP3 PUSH2 0x5BD JUMP JUMPDEST SWAP4 SWAP3 POP POP POP JUMP JUMPDEST PUSH1 0x0 PUSH1 0x20 DUP3 DUP5 SUB SLT ISZERO PUSH2 0x60D JUMPI PUSH1 0x0 DUP1 REVERT JUMPDEST POP MLOAD SWAP2 SWAP1 POP JUMP JUMPDEST PUSH1 0x0 DUP1 PUSH1 0x0 DUP1 PUSH1 0x80 DUP6 DUP8 SUB SLT ISZERO PUSH2 0x62A JUMPI PUSH1 0x0 DUP1 REVERT JUMPDEST DUP5 CALLDATALOAD SWAP4 POP PUSH1 0x20 DUP6 ADD CALLDATALOAD DUP1 ISZERO ISZERO DUP2 EQ PUSH2 0x641 JUMPI PUSH1 0x0 DUP1 REVERT JUMPDEST SWAP3 POP PUSH2 0x64F PUSH1 0x40 DUP7 ADD PUSH2 0x5BD JUMP JUMPDEST SWAP4 SWAP7 SWAP3 SWAP6 POP SWAP3 SWAP4 PUSH1 0x60 ADD CALLDATALOAD SWAP3 POP POP JUMP JUMPDEST PUSH1 0x20 DUP1 DUP3 MSTORE DUP2 DUP2 ADD MSTORE PUSH32 0x4F776E61626C653A2063616C6C6572206973206E6F7420746865206F776E6572 PUSH1 0x40 DUP3 ADD MSTORE PUSH1 0x60 ADD SWAP1 JUMP JUMPDEST PUSH1 0x0 DUP3 NOT DUP3 GT ISZERO PUSH2 0x6B5 JUMPI PUSH4 0x4E487B71 PUSH1 0xE0 SHL PUSH1 0x0 MSTORE PUSH1 0x11 PUSH1 0x4 MSTORE PUSH1 0x24 PUSH1 0x0 REVERT JUMPDEST POP ADD SWAP1 JUMP INVALID LOG2 PUSH5 0x6970667358 0x22 SLT KECCAK256 SLOAD 0xB2 GAS RETURN RETURNDATACOPY GAS 0xB1 GT EXP 0xE7 0xA5 0x2C DUP4 SWAP9 SWAP12 EQ DUP15 INVALID SWAP9 STATICCALL 0xE7 0xE3 0xC7 PUSH30 0xD864D5DCBEF63C8264736F6C634300080700330000000000000000000000 ",
  "sha1": "86b8a229978ab176c4ee1a71849c1ef3e184eb80",
  "source": "pragma solidity ^0.8.0;\n\nimport \"OpenZeppelin/openzeppelin-contracts@4.3.0/contracts/access/Ownable.sol\";\nimport \"./OracleInterface.sol\";\n\ncontract CallerContract is Ownable {\n\n    bool private isKYC = false;\n    OracleInterface private oracleInstance;\n    address private oracleAddress;\n    mapping(uint256=>bool) myRequests;\n\n    struct customer {\n        uint256 customerId;\n        uint32 expireyDate;\n        bool isAuthorized;\n    }\n\n    mapping (address => customer) customerRegistry;\n\n\n    event newOracleAddressEvent(address oracleAddress);\n    event ReceivedNewRequestIdEvent(uint256 id, address customer);\n    event KYCUpdatedEvent(bool isKYC, uint256 id);\n\n    function setOracleInstanceAddress(address _oracleInstanceAddress) public onlyOwner {\n        oracleAddress = _oracleInstanceAddress;\n        oracleInstance = OracleInterface(oracleAddress);\n        emit newOracleAddressEvent(oracleAddress);\n    }\n\n    function updateKYC(address _customer) public {\n        uint256 id = oracleInstance.getKYC(_customer);\n        myRequests[id] = true; \n        emit ReceivedNewRequestIdEvent(id, _customer);\n    }\n\n    function callback(uint256 _customerId, bool _isKYC, address _customer, uint256 _id) public onlyOracle {\n        require(myRequests[_id]);\n        isKYC = _isKYC;\n        customerRegistry[_customer].customerId= _customerId;\n        customerRegistry[_customer].isAuthorized = _isKYC;\n        customerRegistry[_customer].expireyDate = uint32(block.timestamp + 52 weeks);\n        delete myRequests[_id];\n        emit KYCUpdatedEvent(_isKYC, _id);\n    }\n\n    modifier onlyOracle() {\n        require(msg.sender == oracleAddress);\n        _;\n    }\n    function _isAuthorized(address _customer) internal view returns (bool) {\n        return customerRegistry[_customer].isAuthorized;\n    }\n\n    function isAuthorized(address _customer) public view returns(bool) {\n        return _isAuthorized(_customer);\n    }\n\n    function getOracleAddress() public view returns (address) {\n        return oracleAddress;\n    }\n\n    function getCustomerId(address _customer) public view returns (uint256) {\n        return customerRegistry[_customer].customerId;\n    }\n    function getCustomerDate(address _customer) public view returns (uint32) {\n        return customerRegistry[_customer].expireyDate;\n    }\n    function getCustomerAuthorization(address _customer) public view returns (bool) {\n        return customerRegistry[_customer].isAuthorized;\n    }\n}",
  "sourcePath": "contracts/Caller.sol",
  "type": "contract"
}