{
  "abi": [
    {
      "inputs": [
        {
          "internalType": "string",
          "name": "name_",
          "type": "string"
        },
        {
          "internalType": "string",
          "name": "symbol_",
          "type": "string"
        },
        {
          "internalType": "uint256",
          "name": "granularity",
          "type": "uint256"
        },
        {
          "internalType": "address[]",
          "name": "controllers",
          "type": "address[]"
        },
        {
          "internalType": "bytes32[]",
          "name": "defaultPartitions",
          "type": "bytes32[]"
        },
        {
          "internalType": "address",
          "name": "_whitelist",
          "type": "address"
        }
      ],
      "stateMutability": "nonpayable",
      "type": "constructor"
    },
    {
      "anonymous": false,
      "inputs": [
        {
          "indexed": true,
          "internalType": "address",
          "name": "owner",
          "type": "address"
        },
        {
          "indexed": true,
          "internalType": "address",
          "name": "spender",
          "type": "address"
        },
        {
          "indexed": false,
          "internalType": "uint256",
          "name": "value",
          "type": "uint256"
        }
      ],
      "name": "Approval",
      "type": "event"
    },
    {
      "anonymous": false,
      "inputs": [
        {
          "indexed": true,
          "internalType": "bytes32",
          "name": "partition",
          "type": "bytes32"
        },
        {
          "indexed": true,
          "internalType": "address",
          "name": "owner",
          "type": "address"
        },
        {
          "indexed": true,
          "internalType": "address",
          "name": "spender",
          "type": "address"
        },
        {
          "indexed": false,
          "internalType": "uint256",
          "name": "value",
          "type": "uint256"
        }
      ],
      "name": "ApprovalByPartition",
      "type": "event"
    },
    {
      "anonymous": false,
      "inputs": [
        {
          "indexed": true,
          "internalType": "address",
          "name": "operator",
          "type": "address"
        },
        {
          "indexed": true,
          "internalType": "address",
          "name": "tokenHolder",
          "type": "address"
        }
      ],
      "name": "AuthorizedOperator",
      "type": "event"
    },
    {
      "anonymous": false,
      "inputs": [
        {
          "indexed": true,
          "internalType": "bytes32",
          "name": "partition",
          "type": "bytes32"
        },
        {
          "indexed": true,
          "internalType": "address",
          "name": "operator",
          "type": "address"
        },
        {
          "indexed": true,
          "internalType": "address",
          "name": "tokenHolder",
          "type": "address"
        }
      ],
      "name": "AuthorizedOperatorByPartition",
      "type": "event"
    },
    {
      "anonymous": false,
      "inputs": [
        {
          "indexed": true,
          "internalType": "bytes32",
          "name": "fromPartition",
          "type": "bytes32"
        },
        {
          "indexed": true,
          "internalType": "bytes32",
          "name": "toPartition",
          "type": "bytes32"
        },
        {
          "indexed": false,
          "internalType": "uint256",
          "name": "value",
          "type": "uint256"
        }
      ],
      "name": "ChangedPartition",
      "type": "event"
    },
    {
      "anonymous": false,
      "inputs": [
        {
          "indexed": true,
          "internalType": "bytes32",
          "name": "name",
          "type": "bytes32"
        },
        {
          "indexed": false,
          "internalType": "string",
          "name": "uri",
          "type": "string"
        },
        {
          "indexed": false,
          "internalType": "bytes32",
          "name": "documentHash",
          "type": "bytes32"
        }
      ],
      "name": "Document",
      "type": "event"
    },
    {
      "anonymous": false,
      "inputs": [
        {
          "indexed": true,
          "internalType": "address",
          "name": "operator",
          "type": "address"
        },
        {
          "indexed": true,
          "internalType": "address",
          "name": "to",
          "type": "address"
        },
        {
          "indexed": false,
          "internalType": "uint256",
          "name": "value",
          "type": "uint256"
        },
        {
          "indexed": false,
          "internalType": "bytes",
          "name": "data",
          "type": "bytes"
        }
      ],
      "name": "Issued",
      "type": "event"
    },
    {
      "anonymous": false,
      "inputs": [
        {
          "indexed": true,
          "internalType": "bytes32",
          "name": "partition",
          "type": "bytes32"
        },
        {
          "indexed": true,
          "internalType": "address",
          "name": "operator",
          "type": "address"
        },
        {
          "indexed": true,
          "internalType": "address",
          "name": "to",
          "type": "address"
        },
        {
          "indexed": false,
          "internalType": "uint256",
          "name": "value",
          "type": "uint256"
        },
        {
          "indexed": false,
          "internalType": "bytes",
          "name": "data",
          "type": "bytes"
        },
        {
          "indexed": false,
          "internalType": "bytes",
          "name": "operatorData",
          "type": "bytes"
        }
      ],
      "name": "IssuedByPartition",
      "type": "event"
    },
    {
      "anonymous": false,
      "inputs": [
        {
          "indexed": true,
          "internalType": "address",
          "name": "account",
          "type": "address"
        }
      ],
      "name": "MinterAdded",
      "type": "event"
    },
    {
      "anonymous": false,
      "inputs": [
        {
          "indexed": true,
          "internalType": "address",
          "name": "account",
          "type": "address"
        }
      ],
      "name": "MinterRemoved",
      "type": "event"
    },
    {
      "anonymous": false,
      "inputs": [
        {
          "indexed": true,
          "internalType": "address",
          "name": "previousOwner",
          "type": "address"
        },
        {
          "indexed": true,
          "internalType": "address",
          "name": "newOwner",
          "type": "address"
        }
      ],
      "name": "OwnershipTransferred",
      "type": "event"
    },
    {
      "anonymous": false,
      "inputs": [
        {
          "indexed": true,
          "internalType": "address",
          "name": "operator",
          "type": "address"
        },
        {
          "indexed": true,
          "internalType": "address",
          "name": "from",
          "type": "address"
        },
        {
          "indexed": false,
          "internalType": "uint256",
          "name": "value",
          "type": "uint256"
        },
        {
          "indexed": false,
          "internalType": "bytes",
          "name": "data",
          "type": "bytes"
        }
      ],
      "name": "Redeemed",
      "type": "event"
    },
    {
      "anonymous": false,
      "inputs": [
        {
          "indexed": true,
          "internalType": "bytes32",
          "name": "partition",
          "type": "bytes32"
        },
        {
          "indexed": true,
          "internalType": "address",
          "name": "operator",
          "type": "address"
        },
        {
          "indexed": true,
          "internalType": "address",
          "name": "from",
          "type": "address"
        },
        {
          "indexed": false,
          "internalType": "uint256",
          "name": "value",
          "type": "uint256"
        },
        {
          "indexed": false,
          "internalType": "bytes",
          "name": "operatorData",
          "type": "bytes"
        }
      ],
      "name": "RedeemedByPartition",
      "type": "event"
    },
    {
      "anonymous": false,
      "inputs": [
        {
          "indexed": true,
          "internalType": "address",
          "name": "operator",
          "type": "address"
        },
        {
          "indexed": true,
          "internalType": "address",
          "name": "tokenHolder",
          "type": "address"
        }
      ],
      "name": "RevokedOperator",
      "type": "event"
    },
    {
      "anonymous": false,
      "inputs": [
        {
          "indexed": true,
          "internalType": "bytes32",
          "name": "partition",
          "type": "bytes32"
        },
        {
          "indexed": true,
          "internalType": "address",
          "name": "operator",
          "type": "address"
        },
        {
          "indexed": true,
          "internalType": "address",
          "name": "tokenHolder",
          "type": "address"
        }
      ],
      "name": "RevokedOperatorByPartition",
      "type": "event"
    },
    {
      "anonymous": false,
      "inputs": [
        {
          "indexed": true,
          "internalType": "bytes32",
          "name": "role",
          "type": "bytes32"
        },
        {
          "indexed": true,
          "internalType": "bytes32",
          "name": "previousAdminRole",
          "type": "bytes32"
        },
        {
          "indexed": true,
          "internalType": "bytes32",
          "name": "newAdminRole",
          "type": "bytes32"
        }
      ],
      "name": "RoleAdminChanged",
      "type": "event"
    },
    {
      "anonymous": false,
      "inputs": [
        {
          "indexed": true,
          "internalType": "bytes32",
          "name": "role",
          "type": "bytes32"
        },
        {
          "indexed": true,
          "internalType": "address",
          "name": "account",
          "type": "address"
        },
        {
          "indexed": true,
          "internalType": "address",
          "name": "sender",
          "type": "address"
        }
      ],
      "name": "RoleGranted",
      "type": "event"
    },
    {
      "anonymous": false,
      "inputs": [
        {
          "indexed": true,
          "internalType": "bytes32",
          "name": "role",
          "type": "bytes32"
        },
        {
          "indexed": true,
          "internalType": "address",
          "name": "account",
          "type": "address"
        },
        {
          "indexed": true,
          "internalType": "address",
          "name": "sender",
          "type": "address"
        }
      ],
      "name": "RoleRevoked",
      "type": "event"
    },
    {
      "anonymous": false,
      "inputs": [
        {
          "indexed": true,
          "internalType": "address",
          "name": "from",
          "type": "address"
        },
        {
          "indexed": true,
          "internalType": "address",
          "name": "to",
          "type": "address"
        },
        {
          "indexed": false,
          "internalType": "uint256",
          "name": "value",
          "type": "uint256"
        }
      ],
      "name": "Transfer",
      "type": "event"
    },
    {
      "anonymous": false,
      "inputs": [
        {
          "indexed": true,
          "internalType": "bytes32",
          "name": "fromPartition",
          "type": "bytes32"
        },
        {
          "indexed": false,
          "internalType": "address",
          "name": "operator",
          "type": "address"
        },
        {
          "indexed": true,
          "internalType": "address",
          "name": "from",
          "type": "address"
        },
        {
          "indexed": true,
          "internalType": "address",
          "name": "to",
          "type": "address"
        },
        {
          "indexed": false,
          "internalType": "uint256",
          "name": "value",
          "type": "uint256"
        },
        {
          "indexed": false,
          "internalType": "bytes",
          "name": "data",
          "type": "bytes"
        },
        {
          "indexed": false,
          "internalType": "bytes",
          "name": "operatorData",
          "type": "bytes"
        }
      ],
      "name": "TransferByPartition",
      "type": "event"
    },
    {
      "anonymous": false,
      "inputs": [
        {
          "indexed": false,
          "internalType": "address",
          "name": "_whitelist",
          "type": "address"
        }
      ],
      "name": "WhitelistChanged",
      "type": "event"
    },
    {
      "inputs": [],
      "name": "DEFAULT_ADMIN_ROLE",
      "outputs": [
        {
          "internalType": "bytes32",
          "name": "",
          "type": "bytes32"
        }
      ],
      "stateMutability": "view",
      "type": "function"
    },
    {
      "inputs": [],
      "name": "MINTER_ROLE",
      "outputs": [
        {
          "internalType": "bytes32",
          "name": "",
          "type": "bytes32"
        }
      ],
      "stateMutability": "view",
      "type": "function"
    },
    {
      "inputs": [
        {
          "internalType": "address",
          "name": "account",
          "type": "address"
        }
      ],
      "name": "addMinter",
      "outputs": [],
      "stateMutability": "nonpayable",
      "type": "function"
    },
    {
      "inputs": [
        {
          "internalType": "address",
          "name": "owner",
          "type": "address"
        },
        {
          "internalType": "address",
          "name": "spender",
          "type": "address"
        }
      ],
      "name": "allowance",
      "outputs": [
        {
          "internalType": "uint256",
          "name": "",
          "type": "uint256"
        }
      ],
      "stateMutability": "view",
      "type": "function"
    },
    {
      "inputs": [
        {
          "internalType": "bytes32",
          "name": "partition",
          "type": "bytes32"
        },
        {
          "internalType": "address",
          "name": "owner",
          "type": "address"
        },
        {
          "internalType": "address",
          "name": "spender",
          "type": "address"
        }
      ],
      "name": "allowanceByPartition",
      "outputs": [
        {
          "internalType": "uint256",
          "name": "",
          "type": "uint256"
        }
      ],
      "stateMutability": "view",
      "type": "function"
    },
    {
      "inputs": [
        {
          "internalType": "address",
          "name": "spender",
          "type": "address"
        },
        {
          "internalType": "uint256",
          "name": "value",
          "type": "uint256"
        }
      ],
      "name": "approve",
      "outputs": [
        {
          "internalType": "bool",
          "name": "",
          "type": "bool"
        }
      ],
      "stateMutability": "nonpayable",
      "type": "function"
    },
    {
      "inputs": [
        {
          "internalType": "bytes32",
          "name": "partition",
          "type": "bytes32"
        },
        {
          "internalType": "address",
          "name": "spender",
          "type": "address"
        },
        {
          "internalType": "uint256",
          "name": "value",
          "type": "uint256"
        }
      ],
      "name": "approveByPartition",
      "outputs": [
        {
          "internalType": "bool",
          "name": "",
          "type": "bool"
        }
      ],
      "stateMutability": "nonpayable",
      "type": "function"
    },
    {
      "inputs": [
        {
          "internalType": "address",
          "name": "operator",
          "type": "address"
        }
      ],
      "name": "authorizeOperator",
      "outputs": [],
      "stateMutability": "nonpayable",
      "type": "function"
    },
    {
      "inputs": [
        {
          "internalType": "bytes32",
          "name": "partition",
          "type": "bytes32"
        },
        {
          "internalType": "address",
          "name": "operator",
          "type": "address"
        }
      ],
      "name": "authorizeOperatorByPartition",
      "outputs": [],
      "stateMutability": "nonpayable",
      "type": "function"
    },
    {
      "inputs": [
        {
          "internalType": "address",
          "name": "tokenHolder",
          "type": "address"
        }
      ],
      "name": "balanceOf",
      "outputs": [
        {
          "internalType": "uint256",
          "name": "",
          "type": "uint256"
        }
      ],
      "stateMutability": "view",
      "type": "function"
    },
    {
      "inputs": [
        {
          "internalType": "bytes32",
          "name": "partition",
          "type": "bytes32"
        },
        {
          "internalType": "address",
          "name": "tokenHolder",
          "type": "address"
        }
      ],
      "name": "balanceOfByPartition",
      "outputs": [
        {
          "internalType": "uint256",
          "name": "",
          "type": "uint256"
        }
      ],
      "stateMutability": "view",
      "type": "function"
    },
    {
      "inputs": [
        {
          "internalType": "address",
          "name": "_whitelist",
          "type": "address"
        }
      ],
      "name": "changeWhitelist",
      "outputs": [],
      "stateMutability": "nonpayable",
      "type": "function"
    },
    {
      "inputs": [],
      "name": "controllers",
      "outputs": [
        {
          "internalType": "address[]",
          "name": "",
          "type": "address[]"
        }
      ],
      "stateMutability": "view",
      "type": "function"
    },
    {
      "inputs": [
        {
          "internalType": "bytes32",
          "name": "partition",
          "type": "bytes32"
        }
      ],
      "name": "controllersByPartition",
      "outputs": [
        {
          "internalType": "address[]",
          "name": "",
          "type": "address[]"
        }
      ],
      "stateMutability": "view",
      "type": "function"
    },
    {
      "inputs": [],
      "name": "getDefaultPartitions",
      "outputs": [
        {
          "internalType": "bytes32[]",
          "name": "",
          "type": "bytes32[]"
        }
      ],
      "stateMutability": "view",
      "type": "function"
    },
    {
      "inputs": [
        {
          "internalType": "bytes32",
          "name": "name",
          "type": "bytes32"
        }
      ],
      "name": "getDocument",
      "outputs": [
        {
          "internalType": "string",
          "name": "",
          "type": "string"
        },
        {
          "internalType": "bytes32",
          "name": "",
          "type": "bytes32"
        }
      ],
      "stateMutability": "view",
      "type": "function"
    },
    {
      "inputs": [
        {
          "internalType": "bytes32",
          "name": "role",
          "type": "bytes32"
        }
      ],
      "name": "getRoleAdmin",
      "outputs": [
        {
          "internalType": "bytes32",
          "name": "",
          "type": "bytes32"
        }
      ],
      "stateMutability": "view",
      "type": "function"
    },
    {
      "inputs": [
        {
          "internalType": "bytes32",
          "name": "role",
          "type": "bytes32"
        },
        {
          "internalType": "address",
          "name": "account",
          "type": "address"
        }
      ],
      "name": "grantRole",
      "outputs": [],
      "stateMutability": "nonpayable",
      "type": "function"
    },
    {
      "inputs": [
        {
          "internalType": "bytes32",
          "name": "role",
          "type": "bytes32"
        },
        {
          "internalType": "address",
          "name": "account",
          "type": "address"
        }
      ],
      "name": "hasRole",
      "outputs": [
        {
          "internalType": "bool",
          "name": "",
          "type": "bool"
        }
      ],
      "stateMutability": "view",
      "type": "function"
    },
    {
      "inputs": [],
      "name": "isControllable",
      "outputs": [
        {
          "internalType": "bool",
          "name": "",
          "type": "bool"
        }
      ],
      "stateMutability": "view",
      "type": "function"
    },
    {
      "inputs": [],
      "name": "isIssuable",
      "outputs": [
        {
          "internalType": "bool",
          "name": "",
          "type": "bool"
        }
      ],
      "stateMutability": "view",
      "type": "function"
    },
    {
      "inputs": [
        {
          "internalType": "address",
          "name": "account",
          "type": "address"
        }
      ],
      "name": "isMinter",
      "outputs": [
        {
          "internalType": "bool",
          "name": "",
          "type": "bool"
        }
      ],
      "stateMutability": "view",
      "type": "function"
    },
    {
      "inputs": [
        {
          "internalType": "address",
          "name": "operator",
          "type": "address"
        },
        {
          "internalType": "address",
          "name": "tokenHolder",
          "type": "address"
        }
      ],
      "name": "isOperator",
      "outputs": [
        {
          "internalType": "bool",
          "name": "",
          "type": "bool"
        }
      ],
      "stateMutability": "view",
      "type": "function"
    },
    {
      "inputs": [
        {
          "internalType": "bytes32",
          "name": "partition",
          "type": "bytes32"
        },
        {
          "internalType": "address",
          "name": "operator",
          "type": "address"
        },
        {
          "internalType": "address",
          "name": "tokenHolder",
          "type": "address"
        }
      ],
      "name": "isOperatorForPartition",
      "outputs": [
        {
          "internalType": "bool",
          "name": "",
          "type": "bool"
        }
      ],
      "stateMutability": "view",
      "type": "function"
    },
    {
      "inputs": [
        {
          "internalType": "address",
          "name": "tokenHolder",
          "type": "address"
        },
        {
          "internalType": "uint256",
          "name": "value",
          "type": "uint256"
        },
        {
          "internalType": "bytes",
          "name": "data",
          "type": "bytes"
        }
      ],
      "name": "issue",
      "outputs": [],
      "stateMutability": "nonpayable",
      "type": "function"
    },
    {
      "inputs": [
        {
          "internalType": "bytes32",
          "name": "partition",
          "type": "bytes32"
        },
        {
          "internalType": "address",
          "name": "tokenHolder",
          "type": "address"
        },
        {
          "internalType": "uint256",
          "name": "value",
          "type": "uint256"
        },
        {
          "internalType": "bytes",
          "name": "data",
          "type": "bytes"
        }
      ],
      "name": "issueByPartition",
      "outputs": [],
      "stateMutability": "nonpayable",
      "type": "function"
    },
    {
      "inputs": [],
      "name": "name",
      "outputs": [
        {
          "internalType": "string",
          "name": "",
          "type": "string"
        }
      ],
      "stateMutability": "view",
      "type": "function"
    },
    {
      "inputs": [
        {
          "internalType": "bytes32",
          "name": "partition",
          "type": "bytes32"
        },
        {
          "internalType": "address",
          "name": "tokenHolder",
          "type": "address"
        },
        {
          "internalType": "uint256",
          "name": "value",
          "type": "uint256"
        },
        {
          "internalType": "bytes",
          "name": "operatorData",
          "type": "bytes"
        }
      ],
      "name": "operatorRedeemByPartition",
      "outputs": [],
      "stateMutability": "nonpayable",
      "type": "function"
    },
    {
      "inputs": [
        {
          "internalType": "bytes32",
          "name": "partition",
          "type": "bytes32"
        },
        {
          "internalType": "address",
          "name": "from",
          "type": "address"
        },
        {
          "internalType": "address",
          "name": "to",
          "type": "address"
        },
        {
          "internalType": "uint256",
          "name": "value",
          "type": "uint256"
        },
        {
          "internalType": "bytes",
          "name": "data",
          "type": "bytes"
        },
        {
          "internalType": "bytes",
          "name": "operatorData",
          "type": "bytes"
        }
      ],
      "name": "operatorTransferByPartition",
      "outputs": [
        {
          "internalType": "bytes32",
          "name": "",
          "type": "bytes32"
        }
      ],
      "stateMutability": "nonpayable",
      "type": "function"
    },
    {
      "inputs": [],
      "name": "owner",
      "outputs": [
        {
          "internalType": "address",
          "name": "",
          "type": "address"
        }
      ],
      "stateMutability": "view",
      "type": "function"
    },
    {
      "inputs": [
        {
          "internalType": "address",
          "name": "tokenHolder",
          "type": "address"
        }
      ],
      "name": "partitionsOf",
      "outputs": [
        {
          "internalType": "bytes32[]",
          "name": "",
          "type": "bytes32[]"
        }
      ],
      "stateMutability": "view",
      "type": "function"
    },
    {
      "inputs": [
        {
          "internalType": "uint256",
          "name": "value",
          "type": "uint256"
        },
        {
          "internalType": "bytes",
          "name": "data",
          "type": "bytes"
        }
      ],
      "name": "redeem",
      "outputs": [],
      "stateMutability": "nonpayable",
      "type": "function"
    },
    {
      "inputs": [
        {
          "internalType": "bytes32",
          "name": "partition",
          "type": "bytes32"
        },
        {
          "internalType": "uint256",
          "name": "value",
          "type": "uint256"
        },
        {
          "internalType": "bytes",
          "name": "data",
          "type": "bytes"
        }
      ],
      "name": "redeemByPartition",
      "outputs": [],
      "stateMutability": "nonpayable",
      "type": "function"
    },
    {
      "inputs": [
        {
          "internalType": "address",
          "name": "from",
          "type": "address"
        },
        {
          "internalType": "uint256",
          "name": "value",
          "type": "uint256"
        },
        {
          "internalType": "bytes",
          "name": "data",
          "type": "bytes"
        }
      ],
      "name": "redeemFrom",
      "outputs": [],
      "stateMutability": "nonpayable",
      "type": "function"
    },
    {
      "inputs": [
        {
          "internalType": "address",
          "name": "account",
          "type": "address"
        }
      ],
      "name": "removeMinter",
      "outputs": [],
      "stateMutability": "nonpayable",
      "type": "function"
    },
    {
      "inputs": [],
      "name": "renounceControl",
      "outputs": [],
      "stateMutability": "nonpayable",
      "type": "function"
    },
    {
      "inputs": [],
      "name": "renounceIssuance",
      "outputs": [],
      "stateMutability": "nonpayable",
      "type": "function"
    },
    {
      "inputs": [],
      "name": "renounceMinter",
      "outputs": [],
      "stateMutability": "nonpayable",
      "type": "function"
    },
    {
      "inputs": [],
      "name": "renounceOwnership",
      "outputs": [],
      "stateMutability": "nonpayable",
      "type": "function"
    },
    {
      "inputs": [
        {
          "internalType": "bytes32",
          "name": "role",
          "type": "bytes32"
        },
        {
          "internalType": "address",
          "name": "account",
          "type": "address"
        }
      ],
      "name": "renounceRole",
      "outputs": [],
      "stateMutability": "nonpayable",
      "type": "function"
    },
    {
      "inputs": [
        {
          "internalType": "address",
          "name": "operator",
          "type": "address"
        }
      ],
      "name": "revokeOperator",
      "outputs": [],
      "stateMutability": "nonpayable",
      "type": "function"
    },
    {
      "inputs": [
        {
          "internalType": "bytes32",
          "name": "partition",
          "type": "bytes32"
        },
        {
          "internalType": "address",
          "name": "operator",
          "type": "address"
        }
      ],
      "name": "revokeOperatorByPartition",
      "outputs": [],
      "stateMutability": "nonpayable",
      "type": "function"
    },
    {
      "inputs": [
        {
          "internalType": "bytes32",
          "name": "role",
          "type": "bytes32"
        },
        {
          "internalType": "address",
          "name": "account",
          "type": "address"
        }
      ],
      "name": "revokeRole",
      "outputs": [],
      "stateMutability": "nonpayable",
      "type": "function"
    },
    {
      "inputs": [
        {
          "internalType": "address[]",
          "name": "operators",
          "type": "address[]"
        }
      ],
      "name": "setControllers",
      "outputs": [],
      "stateMutability": "nonpayable",
      "type": "function"
    },
    {
      "inputs": [
        {
          "internalType": "bytes32[]",
          "name": "partitions",
          "type": "bytes32[]"
        }
      ],
      "name": "setDefaultPartitions",
      "outputs": [],
      "stateMutability": "nonpayable",
      "type": "function"
    },
    {
      "inputs": [
        {
          "internalType": "bytes32",
          "name": "name",
          "type": "bytes32"
        },
        {
          "internalType": "string",
          "name": "uri",
          "type": "string"
        },
        {
          "internalType": "bytes32",
          "name": "documentHash",
          "type": "bytes32"
        }
      ],
      "name": "setDocument",
      "outputs": [],
      "stateMutability": "nonpayable",
      "type": "function"
    },
    {
      "inputs": [
        {
          "internalType": "bytes32",
          "name": "partition",
          "type": "bytes32"
        },
        {
          "internalType": "address[]",
          "name": "operators",
          "type": "address[]"
        }
      ],
      "name": "setPartitionControllers",
      "outputs": [],
      "stateMutability": "nonpayable",
      "type": "function"
    },
    {
      "inputs": [
        {
          "internalType": "bytes4",
          "name": "interfaceId",
          "type": "bytes4"
        }
      ],
      "name": "supportsInterface",
      "outputs": [
        {
          "internalType": "bool",
          "name": "",
          "type": "bool"
        }
      ],
      "stateMutability": "view",
      "type": "function"
    },
    {
      "inputs": [],
      "name": "symbol",
      "outputs": [
        {
          "internalType": "string",
          "name": "",
          "type": "string"
        }
      ],
      "stateMutability": "view",
      "type": "function"
    },
    {
      "inputs": [],
      "name": "totalSupply",
      "outputs": [
        {
          "internalType": "uint256",
          "name": "",
          "type": "uint256"
        }
      ],
      "stateMutability": "view",
      "type": "function"
    },
    {
      "inputs": [
        {
          "internalType": "address",
          "name": "to",
          "type": "address"
        },
        {
          "internalType": "uint256",
          "name": "value",
          "type": "uint256"
        }
      ],
      "name": "transfer",
      "outputs": [
        {
          "internalType": "bool",
          "name": "",
          "type": "bool"
        }
      ],
      "stateMutability": "nonpayable",
      "type": "function"
    },
    {
      "inputs": [
        {
          "internalType": "bytes32",
          "name": "partition",
          "type": "bytes32"
        },
        {
          "internalType": "address",
          "name": "to",
          "type": "address"
        },
        {
          "internalType": "uint256",
          "name": "value",
          "type": "uint256"
        },
        {
          "internalType": "bytes",
          "name": "data",
          "type": "bytes"
        }
      ],
      "name": "transferByPartition",
      "outputs": [
        {
          "internalType": "bytes32",
          "name": "",
          "type": "bytes32"
        }
      ],
      "stateMutability": "nonpayable",
      "type": "function"
    },
    {
      "inputs": [
        {
          "internalType": "address",
          "name": "from",
          "type": "address"
        },
        {
          "internalType": "address",
          "name": "to",
          "type": "address"
        },
        {
          "internalType": "uint256",
          "name": "value",
          "type": "uint256"
        }
      ],
      "name": "transferFrom",
      "outputs": [
        {
          "internalType": "bool",
          "name": "",
          "type": "bool"
        }
      ],
      "stateMutability": "nonpayable",
      "type": "function"
    },
    {
      "inputs": [
        {
          "internalType": "address",
          "name": "from",
          "type": "address"
        },
        {
          "internalType": "address",
          "name": "to",
          "type": "address"
        },
        {
          "internalType": "uint256",
          "name": "value",
          "type": "uint256"
        },
        {
          "internalType": "bytes",
          "name": "data",
          "type": "bytes"
        }
      ],
      "name": "transferFromWithData",
      "outputs": [],
      "stateMutability": "nonpayable",
      "type": "function"
    },
    {
      "inputs": [
        {
          "internalType": "address",
          "name": "newOwner",
          "type": "address"
        }
      ],
      "name": "transferOwnership",
      "outputs": [],
      "stateMutability": "nonpayable",
      "type": "function"
    },
    {
      "inputs": [
        {
          "internalType": "address",
          "name": "to",
          "type": "address"
        },
        {
          "internalType": "uint256",
          "name": "value",
          "type": "uint256"
        },
        {
          "internalType": "bytes",
          "name": "data",
          "type": "bytes"
        }
      ],
      "name": "transferWithData",
      "outputs": [],
      "stateMutability": "nonpayable",
      "type": "function"
    }
  ],
  "bytecode": "60806040523480156200001157600080fd5b5060405162004a8838038062004a888339810160408190526200003491620006f9565b6200003f336200014e565b6200004c6000336200019e565b620000573362000227565b6200007260008051602062004a688339815191528062000279565b855162000087906002906020890190620003bf565b5084516200009d906003906020880190620003bf565b5060006005556001841015620000b257600080fd5b6004849055620000c283620002c6565b8151620000d79060109060208501906200044e565b50600680546001600160a01b03838116610100908102610100600160b81b03199093169290921761010160a81b17928390556040519190920490911681527fdd8c807c33d35ad7642d985aca3455e9281f5298b1c22a4aadb5a86d52df7ed19060200160405180910390a15050505050506200084a565b600080546001600160a01b038381166001600160a01b0319831681178455604051919092169283917f8be0079c531659141344cd1fd0a4f28419497f9722a3daafe3b4186f6b6457e09190a35050565b60008281526001602090815260408083206001600160a01b038516845290915290205460ff16620002235760008281526001602081815260408084206001600160a01b0386168086529252808420805460ff19169093179092559051339285917f2f8788117e7eff1d82e926ec794901d17c78024a50270940304540a733656f0d9190a45b5050565b6200024260008051602062004a68833981519152826200019e565b6040516001600160a01b038216907f6ae172837ea30b801fbfcdd4108aa1d5bf8ff775444fd70256b44e6bf3dfc3f690600090a250565b6000828152600160208190526040808320909101805490849055905190918391839186917fbd79b86ffe0ab8e8776151514217cd7cacd52c909f66475c3af44e129f0b00ff9190a4505050565b60005b601254811015620003395760006013600060128481548110620002f057620002f0620007cd565b6000918252602080832091909101546001600160a01b031683528201929092526040019020805460ff1916911515919091179055806200033081620007e3565b915050620002c9565b5060005b8151811015620003a957600160136000848481518110620003625762000362620007cd565b6020908102919091018101516001600160a01b03168252810191909152604001600020805460ff191691151591909117905580620003a081620007e3565b9150506200033d565b508051620002239060129060208401906200048b565b828054620003cd906200080d565b90600052602060002090601f016020900481019282620003f157600085556200043c565b82601f106200040c57805160ff19168380011785556200043c565b828001600101855582156200043c579182015b828111156200043c5782518255916020019190600101906200041f565b506200044a929150620004e3565b5090565b8280548282559060005260206000209081019282156200043c57916020028201828111156200043c5782518255916020019190600101906200041f565b8280548282559060005260206000209081019282156200043c579160200282015b828111156200043c57825182546001600160a01b0319166001600160a01b03909116178255602090920191600190910190620004ac565b5b808211156200044a5760008155600101620004e4565b634e487b7160e01b600052604160045260246000fd5b604051601f8201601f191681016001600160401b03811182821017156200053b576200053b620004fa565b604052919050565b600082601f8301126200055557600080fd5b81516001600160401b03811115620005715762000571620004fa565b602062000587601f8301601f1916820162000510565b82815285828487010111156200059c57600080fd5b60005b83811015620005bc5785810183015182820184015282016200059f565b83811115620005ce5760008385840101525b5095945050505050565b60006001600160401b03821115620005f457620005f4620004fa565b5060051b60200190565b80516001600160a01b03811681146200061657600080fd5b919050565b600082601f8301126200062d57600080fd5b81516020620006466200064083620005d8565b62000510565b82815260059290921b840181019181810190868411156200066657600080fd5b8286015b848110156200068c576200067e81620005fe565b83529183019183016200066a565b509695505050505050565b600082601f830112620006a957600080fd5b81516020620006bc6200064083620005d8565b82815260059290921b84018101918181019086841115620006dc57600080fd5b8286015b848110156200068c5780518352918301918301620006e0565b60008060008060008060c087890312156200071357600080fd5b86516001600160401b03808211156200072b57600080fd5b620007398a838b0162000543565b975060208901519150808211156200075057600080fd5b6200075e8a838b0162000543565b96506040890151955060608901519150808211156200077c57600080fd5b6200078a8a838b016200061b565b94506080890151915080821115620007a157600080fd5b50620007b089828a0162000697565b925050620007c160a08801620005fe565b90509295509295509295565b634e487b7160e01b600052603260045260246000fd5b60006000198214156200080657634e487b7160e01b600052601160045260246000fd5b5060010190565b600181811c908216806200082257607f821691505b602082108114156200084457634e487b7160e01b600052602260045260246000fd5b50919050565b61420e806200085a6000396000f3fe608060405234801561001057600080fd5b50600436106103785760003560e01c8063861ed3ea116101d3578063b6363cf211610104578063e77c646d116100a2578063ee532f311161007c578063ee532f311461081d578063f2fde38b14610830578063f3d490db14610843578063fad8b32a1461085657600080fd5b8063e77c646d146107e4578063ea74838a146107f7578063ec9a6e871461080a57600080fd5b8063ca281fd9116100de578063ca281fd914610769578063d539139314610771578063d547741f14610798578063dd62ed3e146107ab57600080fd5b8063b6363cf21461073b578063bb3acde91461074e578063bcfdc0cf1461076157600080fd5b8063983b2d5611610171578063a217fddf1161014b578063a217fddf146106ec578063a9059cbb146106f4578063aa271e1a14610707578063b10d6b411461071a57600080fd5b8063983b2d56146106be57806398650275146106d157806398ddcec7146106d957600080fd5b806391d14854116101ad57806391d1485414610657578063959b8c3f1461069057806395d89b41146106a35780639675193c146106ab57600080fd5b8063861ed3ea146106165780638c0dee9c146106295780638da5cb5b1461063c57600080fd5b80632f1cae85116102ad57806367c849191161024b57806370a082311161022557806370a08231146105b0578063715018a6146105d9578063740ab8f4146105e15780637cc0c3a71461060157600080fd5b806367c84919146105825780636c30d170146105955780636d77cad61461059d57600080fd5b806330e828031161028757806330e828031461051757806336568abe1461054a5780634c783bf51461055d57806362eb00681461056f57600080fd5b80632f1cae85146104df5780632f2ff15d146104f15780633092afd51461050457600080fd5b8063168ecec51161031a57806318160ddd116102f457806318160ddd1461048d57806323b872dd14610495578063248a9ca3146104a85780632535f762146104cc57600080fd5b8063168ecec51461041b57806316e1aed41461042e57806317ec83ca1461044157600080fd5b806308d0a7cf1161035657806308d0a7cf146103cf578063095ea7b3146103e2578063103ef9e1146103f557806314d1e62f1461040857600080fd5b8063010648ca1461037d57806301ffc9a71461039257806306fdde03146103ba575b600080fd5b61039061038b36600461396e565b610869565b005b6103a56103a03660046139c1565b61093a565b60405190151581526020015b60405180910390f35b6103c2610971565b6040516103b19190613a43565b6103906103dd366004613a72565b610a03565b6103a56103f0366004613a8d565b610ad8565b610390610403366004613ab7565b610b79565b6103a5610416366004613ae3565b610bdd565b610390610429366004613ab7565b610c8a565b61039061043c366004613b5d565b610ceb565b61047f61044f366004613ba9565b60009283526014602090815260408085206001600160a01b03948516865282528085209290931684525290205490565b6040519081526020016103b1565b60055461047f565b6103a56104a3366004613be5565b610d87565b61047f6104b6366004613c11565b6000908152600160208190526040909120015490565b6103906104da366004613c2a565b610ebe565b600654600160b01b900460ff166103a5565b6103906104ff366004613ab7565b610f07565b610390610512366004613a72565b610f2e565b61047f610525366004613ab7565b6001600160a01b03166000908152600f60209081526040808320938352929052205490565b610390610558366004613ab7565b610f7c565b600654600160a81b900460ff166103a5565b61039061057d366004613c84565b611008565b610390610590366004613cbf565b611059565b610390611123565b6103a56105ab366004613ba9565b6111a7565b61047f6105be366004613a72565b6001600160a01b031660009081526007602052604090205490565b6103906111bc565b6105f46105ef366004613a72565b611222565b6040516103b19190613d27565b61060961128e565b6040516103b19190613d6b565b610609610624366004613c11565b6112ef565b61047f610637366004613dac565b61135a565b6000546040516001600160a01b0390911681526020016103b1565b6103a5610665366004613ab7565b60009182526001602090815260408084206001600160a01b0393909316845291905290205460ff1690565b61039061069e366004613a72565b611514565b6103c2611583565b6103906106b9366004613c2a565b611592565b6103906106cc366004613a72565b61160f565b61039061165a565b6103906106e7366004613cbf565b611663565b61047f600081565b6103a5610702366004613a8d565b6116f2565b6103a5610715366004613a72565b611719565b61072d610728366004613c11565b611759565b6040516103b1929190613e50565b6103a5610749366004613e72565b61182d565b61039061075c366004613c2a565b611840565b6105f46119a0565b6103906119f7565b61047f7f6e58ad548d72b425ea94c15f453bf26caddb061d82b2551db7fdd3cefe0e994081565b6103906107a6366004613ab7565b611a7b565b61047f6107b9366004613e72565b6001600160a01b03918216600090815260086020908152604080832093909416825291909152205490565b6103906107f2366004613e9c565b611aa2565b610390610805366004613edb565b611ae4565b610390610818366004613edb565b611b7a565b61039061082b366004613f1d565b611be0565b61039061083e366004613a72565b611d32565b61047f610851366004613cbf565b611e11565b610390610864366004613a72565b611e6f565b3360009081526013602052604090205460ff1661088557600080fd5b6040805160606020601f860181900402820181018352918101848152909182919086908690819085018382808284376000920182905250938552505050602091820184905286815260098252604090208251805191926108ea928492909101906137ef565b5060208201518160010155905050837f89730c201d2df6a4cef4e892559e63e022078b0ee939d11b6ced61fb098b282484848460405161092c93929190613f4c565b60405180910390a250505050565b60006001600160e01b03198216637965db0b60e01b148061096b57506301ffc9a760e01b6001600160e01b03198316145b92915050565b60606002805461098090613f85565b80601f01602080910402602001604051908101604052809291908181526020018280546109ac90613f85565b80156109f95780601f106109ce576101008083540402835291602001916109f9565b820191906000526020600020905b8154815290600101906020018083116109dc57829003601f168201915b5050505050905090565b6000546001600160a01b03163314610a625760405162461bcd60e51b815260206004820181905260248201527f4f776e61626c653a2063616c6c6572206973206e6f7420746865206f776e657260448201526064015b60405180910390fd5b600680547fffffffffffffffffffffff0000000000000000000000000000000000000000ff166101006001600160a01b038481168202929092179283905560405192041681527fdd8c807c33d35ad7642d985aca3455e9281f5298b1c22a4aadb5a86d52df7ed19060200160405180910390a150565b60006001600160a01b038316610b155760405162461bcd60e51b81526020600482015260026024820152611a9b60f11b6044820152606401610a59565b3360008181526008602090815260408083206001600160a01b03881680855290835292819020869055518581529192917f8c5be1e5ebec7d5bd14f71427d1e84f3dd0314c0f7b2291e5b200ac8c7c3b925910160405180910390a350600192915050565b33600081815260156020908152604080832086845282528083206001600160a01b0386168085529252808320805460ff1916600117905551909185917f3646a897c70797ecc134b0adc32f471b07bf1d6f451133b0384badab531e3fd69190a45050565b60006001600160a01b038316610c1a5760405162461bcd60e51b81526020600482015260026024820152611a9b60f11b6044820152606401610a59565b6000848152601460209081526040808320338085529083528184206001600160a01b038816808652908452938290208690559051858152909187917ff061499aa77c2f6f5e25e34955a06623705344a88256cc861a121ec0bce5cfec910160405180910390a45060019392505050565b33600081815260156020908152604080832086845282528083206001600160a01b0386168085529252808320805460ff1916905551909185917f3b287c4f1bab4df949b33bceacef984f544dc5d5479930d00e4ee8c9d8dd96f29190a45050565b6000546001600160a01b03163314610d455760405162461bcd60e51b815260206004820181905260248201527f4f776e61626c653a2063616c6c6572206973206e6f7420746865206f776e65726044820152606401610a59565b610d8283838380806020026020016040519081016040528093929190818152602001838360200280828437600092019190915250611edb92505050565b505050565b6000610d933385611ffe565b80610dc157506001600160a01b03841660009081526008602090815260408083203384529091529020548211155b610df25760405162461bcd60e51b8152602060048201526002602482015261353360f01b6044820152606401610a59565b6001600160a01b03841660009081526008602090815260408083203384529091529020548211610e73576001600160a01b0384166000908152600860209081526040808320338452909152902054610e4a908361207f565b6001600160a01b0385166000908152600860209081526040808320338452909152902055610e98565b6001600160a01b03841660009081526008602090815260408083203384529091528120555b610eb4338585856040518060200160405280600081525061208b565b5060019392505050565b610f013333868686868080601f01602080910402602001604051908101604052809392919081815260200183838082843760009201919091525061208b92505050565b50505050565b60008281526001602081905260409091200154610f248133612203565b610d828383612283565b610f3733611719565b610f705760405162461bcd60e51b815260206004820152600a6024820152693737ba1036b4b73a32b960b11b6044820152606401610a59565b610f798161230a565b50565b6001600160a01b0381163314610ffa5760405162461bcd60e51b815260206004820152602f60248201527f416363657373436f6e74726f6c3a2063616e206f6e6c792072656e6f756e636560448201527f20726f6c657320666f722073656c6600000000000000000000000000000000006064820152608401610a59565b611004828261236b565b5050565b610f018433338686868080601f0160208091040260200160405190810160405280939291908181526020018383808284376000920182905250604080516020810190915290815292506123ee915050565b61106233611719565b61109b5760405162461bcd60e51b815260206004820152600a6024820152693737ba1036b4b73a32b960b11b6044820152606401610a59565b600654600160b01b900460ff166110d95760405162461bcd60e51b8152602060048201526002602482015261353560f01b6044820152606401610a59565b61111c8533868686868080601f01602080910402602001604051908101604052809392919081815260200183838082843760009201919091525061250e92505050565b5050505050565b6000546001600160a01b0316331461117d5760405162461bcd60e51b815260206004820181905260248201527f4f776e61626c653a2063616c6c6572206973206e6f7420746865206f776e65726044820152606401610a59565b600680547fffffffffffffffffff00ffffffffffffffffffffffffffffffffffffffffffff169055565b60006111b48484846125d5565b949350505050565b6000546001600160a01b031633146112165760405162461bcd60e51b815260206004820181905260248201527f4f776e61626c653a2063616c6c6572206973206e6f7420746865206f776e65726044820152606401610a59565b6112206000612660565b565b6001600160a01b0381166000908152600d602090815260409182902080548351818402810184019094528084526060939283018282801561128257602002820191906000526020600020905b81548152602001906001019080831161126e575b50505050509050919050565b606060128054806020026020016040519081016040528092919081815260200182805480156109f957602002820191906000526020600020905b81546001600160a01b031681526001909101906020018083116112c8575050505050905090565b60008181526016602090815260409182902080548351818402810184019094528084526060939283018282801561128257602002820191906000526020600020905b81546001600160a01b031681526001909101906020018083116113315750505050509050919050565b600061136789338a6125d5565b8061139c575060008981526014602090815260408083206001600160a01b038c16845282528083203384529091529020548611155b6113cd5760405162461bcd60e51b8152602060048201526002602482015261353360f01b6044820152606401610a59565b60008981526014602090815260408083206001600160a01b038c168452825280832033845290915290205486116114635760008981526014602090815260408083206001600160a01b038c1684528252808320338452909152902054611433908761207f565b60008a81526014602090815260408083206001600160a01b038d168452825280832033845290915290205561148f565b60008981526014602090815260408083206001600160a01b038c16845282528083203384529091528120555b61150789338a8a8a8a8a8080601f01602080910402602001604051908101604052809392919081815260200183838082843760009201919091525050604080516020601f8e018190048102820181019092528c815292508c91508b90819084018382808284376000920191909152506126bd92505050565b9998505050505050505050565b6001600160a01b03811633141561152a57600080fd5b6001600160a01b0381166000818152601160209081526040808320338085529252808320805460ff19166001179055519092917ff4caeb2d6ca8932a215a353d0703c326ec2d81fc68170f320eb2ab49e9df61f991a350565b60606003805461098090613f85565b61159c3385611ffe565b6115cd5760405162461bcd60e51b815260206004820152600260248201526106a760f31b6044820152606401610a59565b610f0133858585858080601f01602080910402602001604051908101604052809392919081815260200183838082843760009201919091525061286892505050565b61161833611719565b6116515760405162461bcd60e51b815260206004820152600a6024820152693737ba1036b4b73a32b960b11b6044820152606401610a59565b610f7981612a2f565b6112203361230a565b61166e8533866125d5565b61169f5760405162461bcd60e51b815260206004820152600260248201526106a760f31b6044820152606401610a59565b61111c853386866040518060200160405280600081525087878080601f0160208091040260200160405190810160405280939291908181526020018383808284376000920191909152506123ee92505050565b6000611710333385856040518060200160405280600081525061208b565b50600192915050565b6001600160a01b03811660009081527f26966c7ca00f80a840807fe1d2876298d981892bf639875a3c73ba2ac1fa3a0c602052604081205460ff1661096b565b60008181526009602052604081208054606092919061177790613f85565b1515905061178457600080fd5b60008381526009602052604090206001810154815482906117a490613f85565b80601f01602080910402602001604051908101604052809291908181526020018280546117d090613f85565b801561181d5780601f106117f25761010080835404028352916020019161181d565b820191906000526020600020905b81548152906001019060200180831161180057829003601f168201915b5050505050915091509150915091565b60006118398383611ffe565b9392505050565b61184933611719565b6118825760405162461bcd60e51b815260206004820152600a6024820152693737ba1036b4b73a32b960b11b6044820152606401610a59565b600654600160b01b900460ff166118c05760405162461bcd60e51b8152602060048201526002602482015261353560f01b6044820152606401610a59565b6010546118f45760405162461bcd60e51b8152602060048201526002602482015261353560f01b6044820152606401610a59565b6118fd84612a90565b61193f5760405162461bcd60e51b81526020600482015260136024820152722ab730baba3437b934bd32b2102830b93a3c9760691b6044820152606401610a59565b610f01601060008154811061195657611956613fc0565b906000526020600020015433868686868080601f01602080910402602001604051908101604052809392919081815260200183838082843760009201919091525061250e92505050565b606060108054806020026020016040519081016040528092919081815260200182805480156109f957602002820191906000526020600020905b8154815260200190600101908083116119da575050505050905090565b6000546001600160a01b03163314611a515760405162461bcd60e51b815260206004820181905260248201527f4f776e61626c653a2063616c6c6572206973206e6f7420746865206f776e65726044820152606401610a59565b600680547fffffffffffffffffffff00ffffffffffffffffffffffffffffffffffffffffff169055565b60008281526001602081905260409091200154611a988133612203565b610d82838361236b565b610d8233338585858080601f01602080910402602001604051908101604052809392919081815260200183838082843760009201919091525061286892505050565b6000546001600160a01b03163314611b3e5760405162461bcd60e51b815260206004820181905260248201527f4f776e61626c653a2063616c6c6572206973206e6f7420746865206f776e65726044820152606401610a59565b611004828280806020026020016040519081016040528093929190818152602001838360200280828437600092019190915250612b1592505050565b6000546001600160a01b03163314611bd45760405162461bcd60e51b815260206004820181905260248201527f4f776e61626c653a2063616c6c6572206973206e6f7420746865206f776e65726044820152606401610a59565b610d8260108383613873565b611bea3386611ffe565b80611c1857506001600160a01b03851660009081526008602090815260408083203384529091529020548311155b611c495760405162461bcd60e51b8152602060048201526002602482015261353360f01b6044820152606401610a59565b6001600160a01b03851660009081526008602090815260408083203384529091529020548311611cca576001600160a01b0385166000908152600860209081526040808320338452909152902054611ca1908461207f565b6001600160a01b0386166000908152600860209081526040808320338452909152902055611cef565b6001600160a01b03851660009081526008602090815260408083203384529091528120555b61111c3386868686868080601f01602080910402602001604051908101604052809392919081815260200183838082843760009201919091525061208b92505050565b6000546001600160a01b03163314611d8c5760405162461bcd60e51b815260206004820181905260248201527f4f776e61626c653a2063616c6c6572206973206e6f7420746865206f776e65726044820152606401610a59565b6001600160a01b038116611e085760405162461bcd60e51b815260206004820152602660248201527f4f776e61626c653a206e6577206f776e657220697320746865207a65726f206160448201527f64647265737300000000000000000000000000000000000000000000000000006064820152608401610a59565b610f7981612660565b6000611e65863333888888888080601f0160208091040260200160405190810160405280939291908181526020018383808284376000920182905250604080516020810190915290815292506126bd915050565b9695505050505050565b6001600160a01b038116331415611e8557600080fd5b6001600160a01b0381166000818152601160209081526040808320338085529252808320805460ff19169055519092917f50546e66e5f44d728365dc3908c63bc5cfeeab470722c1677e3073a6ac294aa191a350565b60005b600083815260166020526040902054811015611f6757600083815260176020908152604080832060169092528220805483919085908110611f2157611f21613fc0565b6000918252602080832091909101546001600160a01b031683528201929092526040019020805460ff191691151591909117905580611f5f81613fec565b915050611ede565b5060005b8151811015611fde576000838152601760205260408120835160019290859085908110611f9a57611f9a613fc0565b6020908102919091018101516001600160a01b03168252810191909152604001600020805460ff191691151591909117905580611fd681613fec565b915050611f6b565b5060008281526016602090815260409091208251610d82928401906138ae565b6000816001600160a01b0316836001600160a01b0316148061204557506001600160a01b0380841660009081526011602090815260408083209386168352929052205460ff165b806118395750600654600160a81b900460ff168015611839575050506001600160a01b031660009081526013602052604090205460ff1690565b60006118398284614007565b6010546120bf5760405162461bcd60e51b8152602060048201526002602482015261353560f01b6044820152606401610a59565b816000805b6010548110156121c6576001600160a01b0387166000908152600f6020526040812060108054919291849081106120fd576120fd613fc0565b906000526020600020015481526020019081526020016000205491508183116121655761215b6010828154811061213657612136613fc0565b90600052602060002001548989898789604051806020016040528060008152506126bd565b50600092506121c6565b81156121b4576121a66010828154811061218157612181613fc0565b90600052602060002001548989898689604051806020016040528060008152506126bd565b506121b18284614007565b92505b806121be81613fec565b9150506120c4565b5081156121fa5760405162461bcd60e51b81526020600482015260026024820152611a9960f11b6044820152606401610a59565b50505050505050565b60008281526001602090815260408083206001600160a01b038516845290915290205460ff1661100457612241816001600160a01b03166014612bfe565b61224c836020612bfe565b60405160200161225d92919061401e565b60408051601f198184030181529082905262461bcd60e51b8252610a5991600401613a43565b60008281526001602090815260408083206001600160a01b038516845290915290205460ff166110045760008281526001602081815260408084206001600160a01b0386168086529252808420805460ff19169093179092559051339285917f2f8788117e7eff1d82e926ec794901d17c78024a50270940304540a733656f0d9190a45050565b6123347f6e58ad548d72b425ea94c15f453bf26caddb061d82b2551db7fdd3cefe0e994082611a7b565b6040516001600160a01b038216907fe94479a9f7e1952cc78f2d6baab678adc1b772d936c6583def489e524cb6669290600090a250565b60008281526001602090815260408083206001600160a01b038516845290915290205460ff16156110045760008281526001602090815260408083206001600160a01b0385168085529252808320805460ff1916905551339285917ff6391f5c32d9c69d2a47ea670b442974b53935d1edc7fd64eb21e047a839171b9190a45050565b6123f785612a90565b8015612407575061240784612a90565b6124495760405162461bcd60e51b81526020600482015260136024820152722ab730baba3437b934bd32b2102830b93a3c9760691b6044820152606401610a59565b6001600160a01b0384166000908152600f602090815260408083208984529091529020548311156124a15760405162461bcd60e51b81526020600482015260026024820152611a9960f11b6044820152606401610a59565b6124ac848785612da7565b6124b885858585613083565b836001600160a01b0316856001600160a01b0316877fce306c3dbc4a497124b5a4f2be8388b41084c1d74663da27ecee1186c00239bf86856040516124fe92919061409f565b60405180910390a4505050505050565b61251784612a90565b8015612527575061252783612a90565b6125695760405162461bcd60e51b81526020600482015260136024820152722ab730baba3437b934bd32b2102830b93a3c9760691b6044820152606401610a59565b612575848484846132bc565b612580838684613491565b826001600160a01b0316846001600160a01b0316867ff0ded82afbb1bb3ff3fc48cb2a26584aa84e4af0bf309c804ecdb94d0f6a98bb85856040516125c69291906140b8565b60405180910390a45050505050565b60006125e18383611ffe565b8061261957506001600160a01b03808316600090815260156020908152604080832088845282528083209387168352929052205460ff165b806111b45750600654600160a81b900460ff1680156111b45750505060009182526017602090815260408084206001600160a01b0393909316845291905290205460ff1690565b600080546001600160a01b0383811673ffffffffffffffffffffffffffffffffffffffff19831681178455604051919092169283917f8be0079c531659141344cd1fd0a4f28419497f9722a3daafe3b4186f6b6457e09190a35050565b6001600160a01b0385166000908152600f602090815260408083208a84529091528120548411156127155760405162461bcd60e51b81526020600482015260026024820152611a9960f11b6044820152606401610a59565b61271e87612a90565b801561272e575061272e86612a90565b801561273e575061273e85612a90565b6127805760405162461bcd60e51b81526020600482015260136024820152722ab730baba3437b934bd32b2102830b93a3c9760691b6044820152606401610a59565b815188901580159061279457506040845110155b156127a6576127a389856135cf565b90505b6127b1878a87612da7565b6127bc8787876135fb565b6127c7868287613491565b856001600160a01b0316876001600160a01b03168a7fff4e9a26af4eb73b8bacfaa4abd4fea03d9448e7b912dc5ff4019048875aa2d48b89898960405161281194939291906140eb565b60405180910390a488811461285c5780897f67c8ba31d2dd11f1384577b3405b04ed91eed1231e408432ad2458cab37b2fa18760405161285391815260200190565b60405180910390a35b98975050505050505050565b61287184612a90565b8015612881575061288183612a90565b6128c35760405162461bcd60e51b81526020600482015260136024820152722ab730baba3437b934bd32b2102830b93a3c9760691b6044820152606401610a59565b6010546128f75760405162461bcd60e51b8152602060048201526002602482015261353560f01b6044820152606401610a59565b816000805b6010548110156129f3576001600160a01b0386166000908152600f60205260408120601080549192918490811061293557612935613fc0565b9060005260206000200154815260200190815260200160002054915081831161299b576129926010828154811061296e5761296e613fc0565b906000526020600020015488888688604051806020016040528060008152506123ee565b600092506129f3565b6129d5601082815481106129b1576129b1613fc0565b906000526020600020015488888588604051806020016040528060008152506123ee565b6129df8284614007565b9250806129eb81613fec565b9150506128fc565b508115612a275760405162461bcd60e51b81526020600482015260026024820152611a9960f11b6044820152606401610a59565b505050505050565b612a597f6e58ad548d72b425ea94c15f453bf26caddb061d82b2551db7fdd3cefe0e994082612283565b6040516001600160a01b038216907f6ae172837ea30b801fbfcdd4108aa1d5bf8ff775444fd70256b44e6bf3dfc3f690600090a250565b6006546040516301fd3f7760e71b81526001600160a01b03838116600483015260009261010090041690819063fe9fbb809060240160206040518083038186803b158015612add57600080fd5b505afa158015612af1573d6000803e3d6000fd5b505050506040513d601f19601f820116820180604052508101906118399190614130565b60005b601254811015612b815760006013600060128481548110612b3b57612b3b613fc0565b6000918252602080832091909101546001600160a01b031683528201929092526040019020805460ff191691151591909117905580612b7981613fec565b915050612b18565b5060005b8151811015612bea57600160136000848481518110612ba657612ba6613fc0565b6020908102919091018101516001600160a01b03168252810191909152604001600020805460ff191691151591909117905580612be281613fec565b915050612b85565b5080516110049060129060208401906138ae565b60606000612c0d836002614152565b612c18906002614171565b67ffffffffffffffff811115612c3057612c30614189565b6040519080825280601f01601f191660200182016040528015612c5a576020820181803683370190505b509050600360fc1b81600081518110612c7557612c75613fc0565b60200101906001600160f81b031916908160001a905350600f60fb1b81600181518110612ca457612ca4613fc0565b60200101906001600160f81b031916908160001a9053506000612cc8846002614152565b612cd3906001614171565b90505b6001811115612d58577f303132333435363738396162636465660000000000000000000000000000000085600f1660108110612d1457612d14613fc0565b1a60f81b828281518110612d2a57612d2a613fc0565b60200101906001600160f81b031916908160001a90535060049490941c93612d518161419f565b9050612cd6565b5083156118395760405162461bcd60e51b815260206004820181905260248201527f537472696e67733a20686578206c656e67746820696e73756666696369656e746044820152606401610a59565b6001600160a01b0383166000908152600f60209081526040808320858452909152902054612dd5908261207f565b6001600160a01b0384166000908152600f60209081526040808320868452825280832093909355600c90522054612e0c908261207f565b6000838152600c60205260409020819055612f08576000828152600b602052604090205480612e625760405162461bcd60e51b8152602060048201526002602482015261035360f41b6044820152606401610a59565b600a805460009190612e7690600190614007565b81548110612e8657612e86613fc0565b9060005260206000200154905080600a600184612ea39190614007565b81548110612eb357612eb3613fc0565b600091825260209091200155600a8054612ecf90600190614007565b81548110612edf57612edf613fc0565b60009182526020808320909101829055918152600b909152604080822092909255838152908120555b6001600160a01b0383166000908152600f60209081526040808320858452909152902054610d82576001600160a01b0383166000908152600e6020908152604080832085845290915290205480612f865760405162461bcd60e51b8152602060048201526002602482015261035360f41b6044820152606401610a59565b6001600160a01b0384166000908152600d602052604081208054612fac90600190614007565b81548110612fbc57612fbc613fc0565b60009182526020808320909101546001600160a01b0388168352600d90915260409091209091508190612ff0600185614007565b8154811061300057613000613fc0565b60009182526020808320909101929092556001600160a01b0387168152600d90915260409020805461303490600190614007565b8154811061304457613044613fc0565b60009182526020808320919091018290556001600160a01b03969096168152600e86526040808220928252919095528085209190915591835250812055565b60065460ff16156130bb5760405162461bcd60e51b81526020600482015260026024820152610d4d60f21b6044820152606401610a59565b6130c484612a90565b80156130d457506130d483612a90565b6131165760405162461bcd60e51b81526020600482015260136024820152722ab730baba3437b934bd32b2102830b93a3c9760691b6044820152606401610a59565b61311f826137a8565b6131505760405162461bcd60e51b8152602060048201526002602482015261035360f41b6044820152606401610a59565b6001600160a01b03831661318b5760405162461bcd60e51b81526020600482015260026024820152611a9b60f11b6044820152606401610a59565b6001600160a01b0383166000908152600760205260409020548211156131d85760405162461bcd60e51b81526020600482015260026024820152611a9960f11b6044820152606401610a59565b6001600160a01b0383166000908152600760205260409020546131fb908361207f565b6001600160a01b038416600090815260076020526040902055600554613221908361207f565b600581905550826001600160a01b0316846001600160a01b03167fb7d0d6b60740753e9f16692a2f479472a1385aec2420fa43225b02f2ffa1afe7848460405161326c92919061409f565b60405180910390a36040518281526000906001600160a01b038516907fddf252ad1be2c89b69c2b068fc378daa952ba7f163c4a11628f55a4df523b3ef906020015b60405180910390a350505050565b60065460ff16156132f45760405162461bcd60e51b81526020600482015260026024820152610d4d60f21b6044820152606401610a59565b6132fd84612a90565b801561330d575061330d83612a90565b61334f5760405162461bcd60e51b81526020600482015260136024820152722ab730baba3437b934bd32b2102830b93a3c9760691b6044820152606401610a59565b613358826137a8565b6133895760405162461bcd60e51b8152602060048201526002602482015261035360f41b6044820152606401610a59565b6001600160a01b0383166133c45760405162461bcd60e51b8152602060048201526002602482015261353760f01b6044820152606401610a59565b6005546133d190836137cb565b6005556001600160a01b0383166000908152600760205260409020546133f790836137cb565b6001600160a01b0380851660008181526007602052604090819020939093559151908616907f0e9905d62635f049c2f4e11678ebf9dc3d1f8c4a653e290759b772e47ba00d009061344b908690869061409f565b60405180910390a36040518281526001600160a01b038416906000907fddf252ad1be2c89b69c2b068fc378daa952ba7f163c4a11628f55a4df523b3ef906020016132ae565b8015610d82576001600160a01b0383166000908152600e60209081526040808320858452909152902054613503576001600160a01b0383166000818152600d602090815260408083208054600181018255818552838520018790559383529254600e8252838320868452909152919020555b6001600160a01b0383166000908152600f6020908152604080832085845290915290205461353190826137cb565b6001600160a01b0384166000908152600f60209081526040808320868452825280832093909355600b905220546135a257600a80546001810182557fc65a7bb8d6351c1cf70c95a316cc6a92839c986682d98bc35f958f4883f9d2a801839055546000838152600b60205260409020555b6000828152600c60205260409020546135bb90826137cb565b6000838152600c6020526040902055505050565b602081015160009060001990808214156135ef57604084015192506135f3565b8492505b505092915050565b60065460ff16156136335760405162461bcd60e51b81526020600482015260026024820152610d4d60f21b6044820152606401610a59565b61363c816137a8565b61366d5760405162461bcd60e51b8152602060048201526002602482015261035360f41b6044820152606401610a59565b6001600160a01b0382166136a85760405162461bcd60e51b8152602060048201526002602482015261353760f01b6044820152606401610a59565b6001600160a01b0383166000908152600760205260409020548111156136f55760405162461bcd60e51b81526020600482015260026024820152611a9960f11b6044820152606401610a59565b6001600160a01b038316600090815260076020526040902054613718908261207f565b6001600160a01b03808516600090815260076020526040808220939093559084168152205461374790826137cb565b6001600160a01b0380841660008181526007602052604090819020939093559151908516907fddf252ad1be2c89b69c2b068fc378daa952ba7f163c4a11628f55a4df523b3ef9061379b9085815260200190565b60405180910390a3505050565b60045460009082906137c4906137be83826137d7565b906137e3565b1492915050565b60006118398284614171565b600061183982846141b6565b60006118398284614152565b8280546137fb90613f85565b90600052602060002090601f01602090048101928261381d5760008555613863565b82601f1061383657805160ff1916838001178555613863565b82800160010185558215613863579182015b82811115613863578251825591602001919060010190613848565b5061386f929150613910565b5090565b828054828255906000526020600020908101928215613863579160200282015b82811115613863578235825591602001919060010190613893565b828054828255906000526020600020908101928215613863579160200282015b82811115613863578251825473ffffffffffffffffffffffffffffffffffffffff19166001600160a01b039091161782556020909201916001909101906138ce565b5b8082111561386f5760008155600101613911565b60008083601f84011261393757600080fd5b50813567ffffffffffffffff81111561394f57600080fd5b60208301915083602082850101111561396757600080fd5b9250929050565b6000806000806060858703121561398457600080fd5b84359350602085013567ffffffffffffffff8111156139a257600080fd5b6139ae87828801613925565b9598909750949560400135949350505050565b6000602082840312156139d357600080fd5b81356001600160e01b03198116811461183957600080fd5b60005b83811015613a065781810151838201526020016139ee565b83811115610f015750506000910152565b60008151808452613a2f8160208601602086016139eb565b601f01601f19169290920160200192915050565b6020815260006118396020830184613a17565b80356001600160a01b0381168114613a6d57600080fd5b919050565b600060208284031215613a8457600080fd5b61183982613a56565b60008060408385031215613aa057600080fd5b613aa983613a56565b946020939093013593505050565b60008060408385031215613aca57600080fd5b82359150613ada60208401613a56565b90509250929050565b600080600060608486031215613af857600080fd5b83359250613b0860208501613a56565b9150604084013590509250925092565b60008083601f840112613b2a57600080fd5b50813567ffffffffffffffff811115613b4257600080fd5b6020830191508360208260051b850101111561396757600080fd5b600080600060408486031215613b7257600080fd5b83359250602084013567ffffffffffffffff811115613b9057600080fd5b613b9c86828701613b18565b9497909650939450505050565b600080600060608486031215613bbe57600080fd5b83359250613bce60208501613a56565b9150613bdc60408501613a56565b90509250925092565b600080600060608486031215613bfa57600080fd5b613c0384613a56565b9250613b0860208501613a56565b600060208284031215613c2357600080fd5b5035919050565b60008060008060608587031215613c4057600080fd5b613c4985613a56565b935060208501359250604085013567ffffffffffffffff811115613c6c57600080fd5b613c7887828801613925565b95989497509550505050565b60008060008060608587031215613c9a57600080fd5b8435935060208501359250604085013567ffffffffffffffff811115613c6c57600080fd5b600080600080600060808688031215613cd757600080fd5b85359450613ce760208701613a56565b935060408601359250606086013567ffffffffffffffff811115613d0a57600080fd5b613d1688828901613925565b969995985093965092949392505050565b6020808252825182820181905260009190848201906040850190845b81811015613d5f57835183529284019291840191600101613d43565b50909695505050505050565b6020808252825182820181905260009190848201906040850190845b81811015613d5f5783516001600160a01b031683529284019291840191600101613d87565b60008060008060008060008060c0898b031215613dc857600080fd5b88359750613dd860208a01613a56565b9650613de660408a01613a56565b955060608901359450608089013567ffffffffffffffff80821115613e0a57600080fd5b613e168c838d01613925565b909650945060a08b0135915080821115613e2f57600080fd5b50613e3c8b828c01613925565b999c989b5096995094979396929594505050565b604081526000613e636040830185613a17565b90508260208301529392505050565b60008060408385031215613e8557600080fd5b613e8e83613a56565b9150613ada60208401613a56565b600080600060408486031215613eb157600080fd5b83359250602084013567ffffffffffffffff811115613ecf57600080fd5b613b9c86828701613925565b60008060208385031215613eee57600080fd5b823567ffffffffffffffff811115613f0557600080fd5b613f1185828601613b18565b90969095509350505050565b600080600080600060808688031215613f3557600080fd5b613f3e86613a56565b9450613ce760208701613a56565b604081528260408201528284606083013760006060848301015260006060601f19601f8601168301019050826020830152949350505050565b600181811c90821680613f9957607f821691505b60208210811415613fba57634e487b7160e01b600052602260045260246000fd5b50919050565b634e487b7160e01b600052603260045260246000fd5b634e487b7160e01b600052601160045260246000fd5b600060001982141561400057614000613fd6565b5060010190565b60008282101561401957614019613fd6565b500390565b7f416363657373436f6e74726f6c3a206163636f756e74200000000000000000008152600083516140568160178501602088016139eb565b7f206973206d697373696e6720726f6c652000000000000000000000000000000060179184019182015283516140938160288401602088016139eb565b01602801949350505050565b8281526040602082015260006111b46040830184613a17565b8281526060602082015260006140d16060830184613a17565b828103604084015260008152602081019150509392505050565b6001600160a01b03851681528360208201526080604082015260006141136080830185613a17565b82810360608401526141258185613a17565b979650505050505050565b60006020828403121561414257600080fd5b8151801515811461183957600080fd5b600081600019048311821515161561416c5761416c613fd6565b500290565b6000821982111561418457614184613fd6565b500190565b634e487b7160e01b600052604160045260246000fd5b6000816141ae576141ae613fd6565b506000190190565b6000826141d357634e487b7160e01b600052601260045260246000fd5b50049056fea264697066735822122050e8764ca98ec464c0f5ee34e3469a28740cbff9265d0d36e79a1a6e03dc651664736f6c634300080900336e58ad548d72b425ea94c15f453bf26caddb061d82b2551db7fdd3cefe0e9940",
  "bytecodeSha1": "da39a3ee5e6b4b0d3255bfef95601890afd80709",
  "compiler": {
    "evm_version": "istanbul",
    "optimizer": {
      "enabled": true,
      "runs": 800
    },
    "version": "0.8.9+commit.e5eed63a"
  },
  "contractName": "ERC1400",
  "language": "Solidity",
  "natspec": {
    "kind": "dev",
    "methods": {
      "allowance(address,address)": {
        "details": "Check the value of tokens that an owner allowed to a spender.",
        "params": {
          "owner": "address The address which owns the funds.",
          "spender": "address The address which will spend the funds."
        },
        "returns": {
          "_0": "A uint256 specifying the value of tokens still available for the spender."
        }
      },
      "allowanceByPartition(bytes32,address,address)": {
        "details": "Check the value of tokens that an owner allowed to a spender.",
        "params": {
          "owner": "address The address which owns the funds.",
          "partition": "Name of the partition.",
          "spender": "address The address which will spend the funds."
        },
        "returns": {
          "_0": "A uint256 specifying the value of tokens still available for the spender."
        }
      },
      "approve(address,uint256)": {
        "details": "Approve the passed address to spend the specified amount of tokens on behalf of 'msg.sender'.",
        "params": {
          "spender": "The address which will spend the funds.",
          "value": "The amount of tokens to be spent."
        },
        "returns": {
          "_0": "A boolean that indicates if the operation was successful."
        }
      },
      "approveByPartition(bytes32,address,uint256)": {
        "details": "Approve the passed address to spend the specified amount of tokens on behalf of 'msg.sender'.",
        "params": {
          "partition": "Name of the partition.",
          "spender": "The address which will spend the funds.",
          "value": "The amount of tokens to be spent."
        },
        "returns": {
          "_0": "A boolean that indicates if the operation was successful."
        }
      },
      "authorizeOperator(address)": {
        "details": "Set a third party operator address as an operator of 'msg.sender' to transfer and redeem tokens on its behalf.",
        "params": {
          "operator": "Address to set as an operator for 'msg.sender'."
        }
      },
      "authorizeOperatorByPartition(bytes32,address)": {
        "details": "Set 'operator' as an operator for 'msg.sender' for a given partition.",
        "params": {
          "operator": "Address to set as an operator for 'msg.sender'.",
          "partition": "Name of the partition."
        }
      },
      "balanceOf(address)": {
        "details": "Get the balance of the account with address 'tokenHolder'.",
        "params": {
          "tokenHolder": "Address for which the balance is returned."
        },
        "returns": {
          "_0": "Amount of token held by 'tokenHolder' in the token contract."
        }
      },
      "balanceOfByPartition(bytes32,address)": {
        "details": "Get balance of a tokenholder for a specific partition.",
        "params": {
          "partition": "Name of the partition.",
          "tokenHolder": "Address for which the balance is returned."
        },
        "returns": {
          "_0": "Amount of token of partition 'partition' held by 'tokenHolder' in the token contract."
        }
      },
      "constructor": {
        "details": "Initialize ERC1400 + register the contract implementation in ERC1820Registry.",
        "params": {
          "controllers": "Array of initial controllers.",
          "defaultPartitions": "Partitions chosen by default, when partition is not specified, like the case ERC20 tranfers.",
          "granularity": "Granularity of the token.",
          "name_": "Name of the token.",
          "symbol_": "Symbol of the token."
        }
      },
      "controllers()": {
        "details": "Get the list of controllers as defined by the token contract.",
        "returns": {
          "_0": "List of addresses of all the controllers."
        }
      },
      "controllersByPartition(bytes32)": {
        "details": "Get controllers for a given partition.",
        "params": {
          "partition": "Name of the partition."
        },
        "returns": {
          "_0": "Array of controllers for partition."
        }
      },
      "getDefaultPartitions()": {
        "details": "Get default partitions to transfer from. Function used for ERC20 retrocompatibility. For example, a security token may return the bytes32(\"unrestricted\").",
        "returns": {
          "_0": "Array of default partitions."
        }
      },
      "getDocument(bytes32)": {
        "details": "Access a document associated with the token.",
        "params": {
          "name": "Short name (represented as a bytes32) associated to the document."
        },
        "returns": {
          "_0": "Requested document + document hash."
        }
      },
      "getRoleAdmin(bytes32)": {
        "details": "Returns the admin role that controls `role`. See {grantRole} and {revokeRole}. To change a role's admin, use {_setRoleAdmin}."
      },
      "grantRole(bytes32,address)": {
        "details": "Grants `role` to `account`. If `account` had not been already granted `role`, emits a {RoleGranted} event. Requirements: - the caller must have ``role``'s admin role."
      },
      "hasRole(bytes32,address)": {
        "details": "Returns `true` if `account` has been granted `role`."
      },
      "isControllable()": {
        "details": "Know if the token can be controlled by operators. If a token returns 'false' for 'isControllable()'' then it MUST always return 'false' in the future.",
        "returns": {
          "_0": "bool 'true' if the token can still be controlled by operators, 'false' if it can't anymore."
        }
      },
      "isIssuable()": {
        "details": "Know if new tokens can be issued in the future.",
        "returns": {
          "_0": "bool 'true' if tokens can still be issued by the issuer, 'false' if they can't anymore."
        }
      },
      "isOperator(address,address)": {
        "details": "Indicate whether the operator address is an operator of the tokenHolder address.",
        "params": {
          "operator": "Address which may be an operator of tokenHolder.",
          "tokenHolder": "Address of a token holder which may have the operator address as an operator."
        },
        "returns": {
          "_0": "'true' if operator is an operator of 'tokenHolder' and 'false' otherwise."
        }
      },
      "isOperatorForPartition(bytes32,address,address)": {
        "details": "Indicate whether the operator address is an operator of the tokenHolder address for the given partition.",
        "params": {
          "operator": "Address which may be an operator of tokenHolder for the given partition.",
          "partition": "Name of the partition.",
          "tokenHolder": "Address of a token holder which may have the operator address as an operator for the given partition."
        },
        "returns": {
          "_0": "'true' if 'operator' is an operator of 'tokenHolder' for partition 'partition' and 'false' otherwise."
        }
      },
      "issue(address,uint256,bytes)": {
        "details": "Issue tokens from default partition.",
        "params": {
          "data": "Information attached to the issuance, by the issuer.",
          "tokenHolder": "Address for which we want to issue tokens.",
          "value": "Number of tokens issued."
        }
      },
      "issueByPartition(bytes32,address,uint256,bytes)": {
        "details": "Issue tokens from a specific partition.",
        "params": {
          "data": "Information attached to the issuance, by the issuer.",
          "partition": "Name of the partition.",
          "tokenHolder": "Address for which we want to issue tokens.",
          "value": "Number of tokens issued."
        }
      },
      "operatorRedeemByPartition(bytes32,address,uint256,bytes)": {
        "details": "Redeem tokens of a specific partition.",
        "params": {
          "operatorData": "Information attached to the redemption, by the operator.",
          "partition": "Name of the partition.",
          "tokenHolder": "Address for which we want to redeem tokens.",
          "value": "Number of tokens redeemed"
        }
      },
      "operatorTransferByPartition(bytes32,address,address,uint256,bytes,bytes)": {
        "details": "Transfer tokens from a specific partition through an operator.",
        "params": {
          "data": "Information attached to the transfer. [CAN CONTAIN THE DESTINATION PARTITION]",
          "from": "Token holder.",
          "operatorData": "Information attached to the transfer, by the operator.",
          "partition": "Name of the partition.",
          "to": "Token recipient.",
          "value": "Number of tokens to transfer."
        },
        "returns": {
          "_0": "Destination partition."
        }
      },
      "owner()": {
        "details": "Returns the address of the current owner."
      },
      "partitionsOf(address)": {
        "details": "Get partitions index of a tokenholder.",
        "params": {
          "tokenHolder": "Address for which the partitions index are returned."
        },
        "returns": {
          "_0": "Array of partitions index of 'tokenHolder'."
        }
      },
      "redeem(uint256,bytes)": {
        "details": "Redeem the amount of tokens from the address 'msg.sender'.",
        "params": {
          "data": "Information attached to the redemption, by the token holder.",
          "value": "Number of tokens to redeem."
        }
      },
      "redeemByPartition(bytes32,uint256,bytes)": {
        "details": "Redeem tokens of a specific partition.",
        "params": {
          "data": "Information attached to the redemption, by the redeemer.",
          "partition": "Name of the partition.",
          "value": "Number of tokens redeemed."
        }
      },
      "redeemFrom(address,uint256,bytes)": {
        "details": "Redeem the amount of tokens on behalf of the address from.",
        "params": {
          "data": "Information attached to the redemption.",
          "from": "Token holder whose tokens will be redeemed (or address(0) to set from to msg.sender).",
          "value": "Number of tokens to redeem."
        }
      },
      "renounceControl()": {
        "details": "Definitely renounce the possibility to control tokens on behalf of tokenHolders. Once set to false, '_isControllable' can never be set to 'true' again."
      },
      "renounceIssuance()": {
        "details": "Definitely renounce the possibility to issue new tokens. Once set to false, '_isIssuable' can never be set to 'true' again."
      },
      "renounceOwnership()": {
        "details": "Leaves the contract without owner. It will not be possible to call `onlyOwner` functions anymore. Can only be called by the current owner. NOTE: Renouncing ownership will leave the contract without an owner, thereby removing any functionality that is only available to the owner."
      },
      "renounceRole(bytes32,address)": {
        "details": "Revokes `role` from the calling account. Roles are often managed via {grantRole} and {revokeRole}: this function's purpose is to provide a mechanism for accounts to lose their privileges if they are compromised (such as when a trusted device is misplaced). If the calling account had been granted `role`, emits a {RoleRevoked} event. Requirements: - the caller must be `account`."
      },
      "revokeOperator(address)": {
        "details": "Remove the right of the operator address to be an operator for 'msg.sender' and to transfer and redeem tokens on its behalf.",
        "params": {
          "operator": "Address to rescind as an operator for 'msg.sender'."
        }
      },
      "revokeOperatorByPartition(bytes32,address)": {
        "details": "Remove the right of the operator address to be an operator on a given partition for 'msg.sender' and to transfer and redeem tokens on its behalf.",
        "params": {
          "operator": "Address to rescind as an operator on given partition for 'msg.sender'.",
          "partition": "Name of the partition."
        }
      },
      "revokeRole(bytes32,address)": {
        "details": "Revokes `role` from `account`. If `account` had been granted `role`, emits a {RoleRevoked} event. Requirements: - the caller must have ``role``'s admin role."
      },
      "setControllers(address[])": {
        "details": "Set list of token controllers.",
        "params": {
          "operators": "Controller addresses."
        }
      },
      "setDefaultPartitions(bytes32[])": {
        "details": "Set default partitions to transfer from. Function used for ERC20 retrocompatibility.",
        "params": {
          "partitions": "partitions to use by default when not specified."
        }
      },
      "setDocument(bytes32,string,bytes32)": {
        "details": "Associate a document with the token.",
        "params": {
          "documentHash": "Hash of the document [optional parameter].",
          "name": "Short name (represented as a bytes32) associated to the document.",
          "uri": "Document content."
        }
      },
      "setPartitionControllers(bytes32,address[])": {
        "details": "Set list of token partition controllers.",
        "params": {
          "operators": "Controller addresses.",
          "partition": "Name of the partition."
        }
      },
      "supportsInterface(bytes4)": {
        "details": "See {IERC165-supportsInterface}."
      },
      "totalSupply()": {
        "details": "Get the total number of issued tokens.",
        "returns": {
          "_0": "Total supply of tokens currently in circulation."
        }
      },
      "transfer(address,uint256)": {
        "details": "Transfer token for a specified address.",
        "params": {
          "to": "The address to transfer to.",
          "value": "The value to be transferred."
        },
        "returns": {
          "_0": "A boolean that indicates if the operation was successful."
        }
      },
      "transferByPartition(bytes32,address,uint256,bytes)": {
        "details": "Transfer tokens from a specific partition.",
        "params": {
          "data": "Information attached to the transfer, by the token holder.",
          "partition": "Name of the partition.",
          "to": "Token recipient.",
          "value": "Number of tokens to transfer."
        },
        "returns": {
          "_0": "Destination partition."
        }
      },
      "transferFrom(address,address,uint256)": {
        "details": "Transfer tokens from one address to another.",
        "params": {
          "from": "The address which you want to transfer tokens from.",
          "to": "The address which you want to transfer to.",
          "value": "The amount of tokens to be transferred."
        },
        "returns": {
          "_0": "A boolean that indicates if the operation was successful."
        }
      },
      "transferFromWithData(address,address,uint256,bytes)": {
        "details": "Transfer the amount of tokens on behalf of the address 'from' to the address 'to'.",
        "params": {
          "data": "Information attached to the transfer, and intended for the token holder ('from').",
          "from": "Token holder (or 'address(0)' to set from to 'msg.sender').",
          "to": "Token recipient.",
          "value": "Number of tokens to transfer."
        }
      },
      "transferOwnership(address)": {
        "details": "Transfers ownership of the contract to a new account (`newOwner`). Can only be called by the current owner."
      },
      "transferWithData(address,uint256,bytes)": {
        "details": "Transfer the amount of tokens from the address 'msg.sender' to the address 'to'.",
        "params": {
          "data": "Information attached to the transfer, by the token holder.",
          "to": "Token recipient.",
          "value": "Number of tokens to transfer."
        }
      }
    },
    "version": 1
  },
  "opcodes": "PUSH1 0x80 PUSH1 0x40 MSTORE CALLVALUE DUP1 ISZERO PUSH2 0x10 JUMPI PUSH1 0x0 DUP1 REVERT JUMPDEST POP PUSH1 0x4 CALLDATASIZE LT PUSH2 0x378 JUMPI PUSH1 0x0 CALLDATALOAD PUSH1 0xE0 SHR DUP1 PUSH4 0x861ED3EA GT PUSH2 0x1D3 JUMPI DUP1 PUSH4 0xB6363CF2 GT PUSH2 0x104 JUMPI DUP1 PUSH4 0xE77C646D GT PUSH2 0xA2 JUMPI DUP1 PUSH4 0xEE532F31 GT PUSH2 0x7C JUMPI DUP1 PUSH4 0xEE532F31 EQ PUSH2 0x81D JUMPI DUP1 PUSH4 0xF2FDE38B EQ PUSH2 0x830 JUMPI DUP1 PUSH4 0xF3D490DB EQ PUSH2 0x843 JUMPI DUP1 PUSH4 0xFAD8B32A EQ PUSH2 0x856 JUMPI PUSH1 0x0 DUP1 REVERT JUMPDEST DUP1 PUSH4 0xE77C646D EQ PUSH2 0x7E4 JUMPI DUP1 PUSH4 0xEA74838A EQ PUSH2 0x7F7 JUMPI DUP1 PUSH4 0xEC9A6E87 EQ PUSH2 0x80A JUMPI PUSH1 0x0 DUP1 REVERT JUMPDEST DUP1 PUSH4 0xCA281FD9 GT PUSH2 0xDE JUMPI DUP1 PUSH4 0xCA281FD9 EQ PUSH2 0x769 JUMPI DUP1 PUSH4 0xD5391393 EQ PUSH2 0x771 JUMPI DUP1 PUSH4 0xD547741F EQ PUSH2 0x798 JUMPI DUP1 PUSH4 0xDD62ED3E EQ PUSH2 0x7AB JUMPI PUSH1 0x0 DUP1 REVERT JUMPDEST DUP1 PUSH4 0xB6363CF2 EQ PUSH2 0x73B JUMPI DUP1 PUSH4 0xBB3ACDE9 EQ PUSH2 0x74E JUMPI DUP1 PUSH4 0xBCFDC0CF EQ PUSH2 0x761 JUMPI PUSH1 0x0 DUP1 REVERT JUMPDEST DUP1 PUSH4 0x983B2D56 GT PUSH2 0x171 JUMPI DUP1 PUSH4 0xA217FDDF GT PUSH2 0x14B JUMPI DUP1 PUSH4 0xA217FDDF EQ PUSH2 0x6EC JUMPI DUP1 PUSH4 0xA9059CBB EQ PUSH2 0x6F4 JUMPI DUP1 PUSH4 0xAA271E1A EQ PUSH2 0x707 JUMPI DUP1 PUSH4 0xB10D6B41 EQ PUSH2 0x71A JUMPI PUSH1 0x0 DUP1 REVERT JUMPDEST DUP1 PUSH4 0x983B2D56 EQ PUSH2 0x6BE JUMPI DUP1 PUSH4 0x98650275 EQ PUSH2 0x6D1 JUMPI DUP1 PUSH4 0x98DDCEC7 EQ PUSH2 0x6D9 JUMPI PUSH1 0x0 DUP1 REVERT JUMPDEST DUP1 PUSH4 0x91D14854 GT PUSH2 0x1AD JUMPI DUP1 PUSH4 0x91D14854 EQ PUSH2 0x657 JUMPI DUP1 PUSH4 0x959B8C3F EQ PUSH2 0x690 JUMPI DUP1 PUSH4 0x95D89B41 EQ PUSH2 0x6A3 JUMPI DUP1 PUSH4 0x9675193C EQ PUSH2 0x6AB JUMPI PUSH1 0x0 DUP1 REVERT JUMPDEST DUP1 PUSH4 0x861ED3EA EQ PUSH2 0x616 JUMPI DUP1 PUSH4 0x8C0DEE9C EQ PUSH2 0x629 JUMPI DUP1 PUSH4 0x8DA5CB5B EQ PUSH2 0x63C JUMPI PUSH1 0x0 DUP1 REVERT JUMPDEST DUP1 PUSH4 0x2F1CAE85 GT PUSH2 0x2AD JUMPI DUP1 PUSH4 0x67C84919 GT PUSH2 0x24B JUMPI DUP1 PUSH4 0x70A08231 GT PUSH2 0x225 JUMPI DUP1 PUSH4 0x70A08231 EQ PUSH2 0x5B0 JUMPI DUP1 PUSH4 0x715018A6 EQ PUSH2 0x5D9 JUMPI DUP1 PUSH4 0x740AB8F4 EQ PUSH2 0x5E1 JUMPI DUP1 PUSH4 0x7CC0C3A7 EQ PUSH2 0x601 JUMPI PUSH1 0x0 DUP1 REVERT JUMPDEST DUP1 PUSH4 0x67C84919 EQ PUSH2 0x582 JUMPI DUP1 PUSH4 0x6C30D170 EQ PUSH2 0x595 JUMPI DUP1 PUSH4 0x6D77CAD6 EQ PUSH2 0x59D JUMPI PUSH1 0x0 DUP1 REVERT JUMPDEST DUP1 PUSH4 0x30E82803 GT PUSH2 0x287 JUMPI DUP1 PUSH4 0x30E82803 EQ PUSH2 0x517 JUMPI DUP1 PUSH4 0x36568ABE EQ PUSH2 0x54A JUMPI DUP1 PUSH4 0x4C783BF5 EQ PUSH2 0x55D JUMPI DUP1 PUSH4 0x62EB0068 EQ PUSH2 0x56F JUMPI PUSH1 0x0 DUP1 REVERT JUMPDEST DUP1 PUSH4 0x2F1CAE85 EQ PUSH2 0x4DF JUMPI DUP1 PUSH4 0x2F2FF15D EQ PUSH2 0x4F1 JUMPI DUP1 PUSH4 0x3092AFD5 EQ PUSH2 0x504 JUMPI PUSH1 0x0 DUP1 REVERT JUMPDEST DUP1 PUSH4 0x168ECEC5 GT PUSH2 0x31A JUMPI DUP1 PUSH4 0x18160DDD GT PUSH2 0x2F4 JUMPI DUP1 PUSH4 0x18160DDD EQ PUSH2 0x48D JUMPI DUP1 PUSH4 0x23B872DD EQ PUSH2 0x495 JUMPI DUP1 PUSH4 0x248A9CA3 EQ PUSH2 0x4A8 JUMPI DUP1 PUSH4 0x2535F762 EQ PUSH2 0x4CC JUMPI PUSH1 0x0 DUP1 REVERT JUMPDEST DUP1 PUSH4 0x168ECEC5 EQ PUSH2 0x41B JUMPI DUP1 PUSH4 0x16E1AED4 EQ PUSH2 0x42E JUMPI DUP1 PUSH4 0x17EC83CA EQ PUSH2 0x441 JUMPI PUSH1 0x0 DUP1 REVERT JUMPDEST DUP1 PUSH4 0x8D0A7CF GT PUSH2 0x356 JUMPI DUP1 PUSH4 0x8D0A7CF EQ PUSH2 0x3CF JUMPI DUP1 PUSH4 0x95EA7B3 EQ PUSH2 0x3E2 JUMPI DUP1 PUSH4 0x103EF9E1 EQ PUSH2 0x3F5 JUMPI DUP1 PUSH4 0x14D1E62F EQ PUSH2 0x408 JUMPI PUSH1 0x0 DUP1 REVERT JUMPDEST DUP1 PUSH4 0x10648CA EQ PUSH2 0x37D JUMPI DUP1 PUSH4 0x1FFC9A7 EQ PUSH2 0x392 JUMPI DUP1 PUSH4 0x6FDDE03 EQ PUSH2 0x3BA JUMPI JUMPDEST PUSH1 0x0 DUP1 REVERT JUMPDEST PUSH2 0x390 PUSH2 0x38B CALLDATASIZE PUSH1 0x4 PUSH2 0x396E JUMP JUMPDEST PUSH2 0x869 JUMP JUMPDEST STOP JUMPDEST PUSH2 0x3A5 PUSH2 0x3A0 CALLDATASIZE PUSH1 0x4 PUSH2 0x39C1 JUMP JUMPDEST PUSH2 0x93A JUMP JUMPDEST PUSH1 0x40 MLOAD SWAP1 ISZERO ISZERO DUP2 MSTORE PUSH1 0x20 ADD JUMPDEST PUSH1 0x40 MLOAD DUP1 SWAP2 SUB SWAP1 RETURN JUMPDEST PUSH2 0x3C2 PUSH2 0x971 JUMP JUMPDEST PUSH1 0x40 MLOAD PUSH2 0x3B1 SWAP2 SWAP1 PUSH2 0x3A43 JUMP JUMPDEST PUSH2 0x390 PUSH2 0x3DD CALLDATASIZE PUSH1 0x4 PUSH2 0x3A72 JUMP JUMPDEST PUSH2 0xA03 JUMP JUMPDEST PUSH2 0x3A5 PUSH2 0x3F0 CALLDATASIZE PUSH1 0x4 PUSH2 0x3A8D JUMP JUMPDEST PUSH2 0xAD8 JUMP JUMPDEST PUSH2 0x390 PUSH2 0x403 CALLDATASIZE PUSH1 0x4 PUSH2 0x3AB7 JUMP JUMPDEST PUSH2 0xB79 JUMP JUMPDEST PUSH2 0x3A5 PUSH2 0x416 CALLDATASIZE PUSH1 0x4 PUSH2 0x3AE3 JUMP JUMPDEST PUSH2 0xBDD JUMP JUMPDEST PUSH2 0x390 PUSH2 0x429 CALLDATASIZE PUSH1 0x4 PUSH2 0x3AB7 JUMP JUMPDEST PUSH2 0xC8A JUMP JUMPDEST PUSH2 0x390 PUSH2 0x43C CALLDATASIZE PUSH1 0x4 PUSH2 0x3B5D JUMP JUMPDEST PUSH2 0xCEB JUMP JUMPDEST PUSH2 0x47F PUSH2 0x44F CALLDATASIZE PUSH1 0x4 PUSH2 0x3BA9 JUMP JUMPDEST PUSH1 0x0 SWAP3 DUP4 MSTORE PUSH1 0x14 PUSH1 0x20 SWAP1 DUP2 MSTORE PUSH1 0x40 DUP1 DUP6 KECCAK256 PUSH1 0x1 PUSH1 0x1 PUSH1 0xA0 SHL SUB SWAP5 DUP6 AND DUP7 MSTORE DUP3 MSTORE DUP1 DUP6 KECCAK256 SWAP3 SWAP1 SWAP4 AND DUP5 MSTORE MSTORE SWAP1 KECCAK256 SLOAD SWAP1 JUMP JUMPDEST PUSH1 0x40 MLOAD SWAP1 DUP2 MSTORE PUSH1 0x20 ADD PUSH2 0x3B1 JUMP JUMPDEST PUSH1 0x5 SLOAD PUSH2 0x47F JUMP JUMPDEST PUSH2 0x3A5 PUSH2 0x4A3 CALLDATASIZE PUSH1 0x4 PUSH2 0x3BE5 JUMP JUMPDEST PUSH2 0xD87 JUMP JUMPDEST PUSH2 0x47F PUSH2 0x4B6 CALLDATASIZE PUSH1 0x4 PUSH2 0x3C11 JUMP JUMPDEST PUSH1 0x0 SWAP1 DUP2 MSTORE PUSH1 0x1 PUSH1 0x20 DUP2 SWAP1 MSTORE PUSH1 0x40 SWAP1 SWAP2 KECCAK256 ADD SLOAD SWAP1 JUMP JUMPDEST PUSH2 0x390 PUSH2 0x4DA CALLDATASIZE PUSH1 0x4 PUSH2 0x3C2A JUMP JUMPDEST PUSH2 0xEBE JUMP JUMPDEST PUSH1 0x6 SLOAD PUSH1 0x1 PUSH1 0xB0 SHL SWAP1 DIV PUSH1 0xFF AND PUSH2 0x3A5 JUMP JUMPDEST PUSH2 0x390 PUSH2 0x4FF CALLDATASIZE PUSH1 0x4 PUSH2 0x3AB7 JUMP JUMPDEST PUSH2 0xF07 JUMP JUMPDEST PUSH2 0x390 PUSH2 0x512 CALLDATASIZE PUSH1 0x4 PUSH2 0x3A72 JUMP JUMPDEST PUSH2 0xF2E JUMP JUMPDEST PUSH2 0x47F PUSH2 0x525 CALLDATASIZE PUSH1 0x4 PUSH2 0x3AB7 JUMP JUMPDEST PUSH1 0x1 PUSH1 0x1 PUSH1 0xA0 SHL SUB AND PUSH1 0x0 SWAP1 DUP2 MSTORE PUSH1 0xF PUSH1 0x20 SWAP1 DUP2 MSTORE PUSH1 0x40 DUP1 DUP4 KECCAK256 SWAP4 DUP4 MSTORE SWAP3 SWAP1 MSTORE KECCAK256 SLOAD SWAP1 JUMP JUMPDEST PUSH2 0x390 PUSH2 0x558 CALLDATASIZE PUSH1 0x4 PUSH2 0x3AB7 JUMP JUMPDEST PUSH2 0xF7C JUMP JUMPDEST PUSH1 0x6 SLOAD PUSH1 0x1 PUSH1 0xA8 SHL SWAP1 DIV PUSH1 0xFF AND PUSH2 0x3A5 JUMP JUMPDEST PUSH2 0x390 PUSH2 0x57D CALLDATASIZE PUSH1 0x4 PUSH2 0x3C84 JUMP JUMPDEST PUSH2 0x1008 JUMP JUMPDEST PUSH2 0x390 PUSH2 0x590 CALLDATASIZE PUSH1 0x4 PUSH2 0x3CBF JUMP JUMPDEST PUSH2 0x1059 JUMP JUMPDEST PUSH2 0x390 PUSH2 0x1123 JUMP JUMPDEST PUSH2 0x3A5 PUSH2 0x5AB CALLDATASIZE PUSH1 0x4 PUSH2 0x3BA9 JUMP JUMPDEST PUSH2 0x11A7 JUMP JUMPDEST PUSH2 0x47F PUSH2 0x5BE CALLDATASIZE PUSH1 0x4 PUSH2 0x3A72 JUMP JUMPDEST PUSH1 0x1 PUSH1 0x1 PUSH1 0xA0 SHL SUB AND PUSH1 0x0 SWAP1 DUP2 MSTORE PUSH1 0x7 PUSH1 0x20 MSTORE PUSH1 0x40 SWAP1 KECCAK256 SLOAD SWAP1 JUMP JUMPDEST PUSH2 0x390 PUSH2 0x11BC JUMP JUMPDEST PUSH2 0x5F4 PUSH2 0x5EF CALLDATASIZE PUSH1 0x4 PUSH2 0x3A72 JUMP JUMPDEST PUSH2 0x1222 JUMP JUMPDEST PUSH1 0x40 MLOAD PUSH2 0x3B1 SWAP2 SWAP1 PUSH2 0x3D27 JUMP JUMPDEST PUSH2 0x609 PUSH2 0x128E JUMP JUMPDEST PUSH1 0x40 MLOAD PUSH2 0x3B1 SWAP2 SWAP1 PUSH2 0x3D6B JUMP JUMPDEST PUSH2 0x609 PUSH2 0x624 CALLDATASIZE PUSH1 0x4 PUSH2 0x3C11 JUMP JUMPDEST PUSH2 0x12EF JUMP JUMPDEST PUSH2 0x47F PUSH2 0x637 CALLDATASIZE PUSH1 0x4 PUSH2 0x3DAC JUMP JUMPDEST PUSH2 0x135A JUMP JUMPDEST PUSH1 0x0 SLOAD PUSH1 0x40 MLOAD PUSH1 0x1 PUSH1 0x1 PUSH1 0xA0 SHL SUB SWAP1 SWAP2 AND DUP2 MSTORE PUSH1 0x20 ADD PUSH2 0x3B1 JUMP JUMPDEST PUSH2 0x3A5 PUSH2 0x665 CALLDATASIZE PUSH1 0x4 PUSH2 0x3AB7 JUMP JUMPDEST PUSH1 0x0 SWAP2 DUP3 MSTORE PUSH1 0x1 PUSH1 0x20 SWAP1 DUP2 MSTORE PUSH1 0x40 DUP1 DUP5 KECCAK256 PUSH1 0x1 PUSH1 0x1 PUSH1 0xA0 SHL SUB SWAP4 SWAP1 SWAP4 AND DUP5 MSTORE SWAP2 SWAP1 MSTORE SWAP1 KECCAK256 SLOAD PUSH1 0xFF AND SWAP1 JUMP JUMPDEST PUSH2 0x390 PUSH2 0x69E CALLDATASIZE PUSH1 0x4 PUSH2 0x3A72 JUMP JUMPDEST PUSH2 0x1514 JUMP JUMPDEST PUSH2 0x3C2 PUSH2 0x1583 JUMP JUMPDEST PUSH2 0x390 PUSH2 0x6B9 CALLDATASIZE PUSH1 0x4 PUSH2 0x3C2A JUMP JUMPDEST PUSH2 0x1592 JUMP JUMPDEST PUSH2 0x390 PUSH2 0x6CC CALLDATASIZE PUSH1 0x4 PUSH2 0x3A72 JUMP JUMPDEST PUSH2 0x160F JUMP JUMPDEST PUSH2 0x390 PUSH2 0x165A JUMP JUMPDEST PUSH2 0x390 PUSH2 0x6E7 CALLDATASIZE PUSH1 0x4 PUSH2 0x3CBF JUMP JUMPDEST PUSH2 0x1663 JUMP JUMPDEST PUSH2 0x47F PUSH1 0x0 DUP2 JUMP JUMPDEST PUSH2 0x3A5 PUSH2 0x702 CALLDATASIZE PUSH1 0x4 PUSH2 0x3A8D JUMP JUMPDEST PUSH2 0x16F2 JUMP JUMPDEST PUSH2 0x3A5 PUSH2 0x715 CALLDATASIZE PUSH1 0x4 PUSH2 0x3A72 JUMP JUMPDEST PUSH2 0x1719 JUMP JUMPDEST PUSH2 0x72D PUSH2 0x728 CALLDATASIZE PUSH1 0x4 PUSH2 0x3C11 JUMP JUMPDEST PUSH2 0x1759 JUMP JUMPDEST PUSH1 0x40 MLOAD PUSH2 0x3B1 SWAP3 SWAP2 SWAP1 PUSH2 0x3E50 JUMP JUMPDEST PUSH2 0x3A5 PUSH2 0x749 CALLDATASIZE PUSH1 0x4 PUSH2 0x3E72 JUMP JUMPDEST PUSH2 0x182D JUMP JUMPDEST PUSH2 0x390 PUSH2 0x75C CALLDATASIZE PUSH1 0x4 PUSH2 0x3C2A JUMP JUMPDEST PUSH2 0x1840 JUMP JUMPDEST PUSH2 0x5F4 PUSH2 0x19A0 JUMP JUMPDEST PUSH2 0x390 PUSH2 0x19F7 JUMP JUMPDEST PUSH2 0x47F PUSH32 0x6E58AD548D72B425EA94C15F453BF26CADDB061D82B2551DB7FDD3CEFE0E9940 DUP2 JUMP JUMPDEST PUSH2 0x390 PUSH2 0x7A6 CALLDATASIZE PUSH1 0x4 PUSH2 0x3AB7 JUMP JUMPDEST PUSH2 0x1A7B JUMP JUMPDEST PUSH2 0x47F PUSH2 0x7B9 CALLDATASIZE PUSH1 0x4 PUSH2 0x3E72 JUMP JUMPDEST PUSH1 0x1 PUSH1 0x1 PUSH1 0xA0 SHL SUB SWAP2 DUP3 AND PUSH1 0x0 SWAP1 DUP2 MSTORE PUSH1 0x8 PUSH1 0x20 SWAP1 DUP2 MSTORE PUSH1 0x40 DUP1 DUP4 KECCAK256 SWAP4 SWAP1 SWAP5 AND DUP3 MSTORE SWAP2 SWAP1 SWAP2 MSTORE KECCAK256 SLOAD SWAP1 JUMP JUMPDEST PUSH2 0x390 PUSH2 0x7F2 CALLDATASIZE PUSH1 0x4 PUSH2 0x3E9C JUMP JUMPDEST PUSH2 0x1AA2 JUMP JUMPDEST PUSH2 0x390 PUSH2 0x805 CALLDATASIZE PUSH1 0x4 PUSH2 0x3EDB JUMP JUMPDEST PUSH2 0x1AE4 JUMP JUMPDEST PUSH2 0x390 PUSH2 0x818 CALLDATASIZE PUSH1 0x4 PUSH2 0x3EDB JUMP JUMPDEST PUSH2 0x1B7A JUMP JUMPDEST PUSH2 0x390 PUSH2 0x82B CALLDATASIZE PUSH1 0x4 PUSH2 0x3F1D JUMP JUMPDEST PUSH2 0x1BE0 JUMP JUMPDEST PUSH2 0x390 PUSH2 0x83E CALLDATASIZE PUSH1 0x4 PUSH2 0x3A72 JUMP JUMPDEST PUSH2 0x1D32 JUMP JUMPDEST PUSH2 0x47F PUSH2 0x851 CALLDATASIZE PUSH1 0x4 PUSH2 0x3CBF JUMP JUMPDEST PUSH2 0x1E11 JUMP JUMPDEST PUSH2 0x390 PUSH2 0x864 CALLDATASIZE PUSH1 0x4 PUSH2 0x3A72 JUMP JUMPDEST PUSH2 0x1E6F JUMP JUMPDEST CALLER PUSH1 0x0 SWAP1 DUP2 MSTORE PUSH1 0x13 PUSH1 0x20 MSTORE PUSH1 0x40 SWAP1 KECCAK256 SLOAD PUSH1 0xFF AND PUSH2 0x885 JUMPI PUSH1 0x0 DUP1 REVERT JUMPDEST PUSH1 0x40 DUP1 MLOAD PUSH1 0x60 PUSH1 0x20 PUSH1 0x1F DUP7 ADD DUP2 SWAP1 DIV MUL DUP3 ADD DUP2 ADD DUP4 MSTORE SWAP2 DUP2 ADD DUP5 DUP2 MSTORE SWAP1 SWAP2 DUP3 SWAP2 SWAP1 DUP7 SWAP1 DUP7 SWAP1 DUP2 SWAP1 DUP6 ADD DUP4 DUP3 DUP1 DUP3 DUP5 CALLDATACOPY PUSH1 0x0 SWAP3 ADD DUP3 SWAP1 MSTORE POP SWAP4 DUP6 MSTORE POP POP POP PUSH1 0x20 SWAP2 DUP3 ADD DUP5 SWAP1 MSTORE DUP7 DUP2 MSTORE PUSH1 0x9 DUP3 MSTORE PUSH1 0x40 SWAP1 KECCAK256 DUP3 MLOAD DUP1 MLOAD SWAP2 SWAP3 PUSH2 0x8EA SWAP3 DUP5 SWAP3 SWAP1 SWAP2 ADD SWAP1 PUSH2 0x37EF JUMP JUMPDEST POP PUSH1 0x20 DUP3 ADD MLOAD DUP2 PUSH1 0x1 ADD SSTORE SWAP1 POP POP DUP4 PUSH32 0x89730C201D2DF6A4CEF4E892559E63E022078B0EE939D11B6CED61FB098B2824 DUP5 DUP5 DUP5 PUSH1 0x40 MLOAD PUSH2 0x92C SWAP4 SWAP3 SWAP2 SWAP1 PUSH2 0x3F4C JUMP JUMPDEST PUSH1 0x40 MLOAD DUP1 SWAP2 SUB SWAP1 LOG2 POP POP POP POP JUMP JUMPDEST PUSH1 0x0 PUSH1 0x1 PUSH1 0x1 PUSH1 0xE0 SHL SUB NOT DUP3 AND PUSH4 0x7965DB0B PUSH1 0xE0 SHL EQ DUP1 PUSH2 0x96B JUMPI POP PUSH4 0x1FFC9A7 PUSH1 0xE0 SHL PUSH1 0x1 PUSH1 0x1 PUSH1 0xE0 SHL SUB NOT DUP4 AND EQ JUMPDEST SWAP3 SWAP2 POP POP JUMP JUMPDEST PUSH1 0x60 PUSH1 0x2 DUP1 SLOAD PUSH2 0x980 SWAP1 PUSH2 0x3F85 JUMP JUMPDEST DUP1 PUSH1 0x1F ADD PUSH1 0x20 DUP1 SWAP2 DIV MUL PUSH1 0x20 ADD PUSH1 0x40 MLOAD SWAP1 DUP2 ADD PUSH1 0x40 MSTORE DUP1 SWAP3 SWAP2 SWAP1 DUP2 DUP2 MSTORE PUSH1 0x20 ADD DUP3 DUP1 SLOAD PUSH2 0x9AC SWAP1 PUSH2 0x3F85 JUMP JUMPDEST DUP1 ISZERO PUSH2 0x9F9 JUMPI DUP1 PUSH1 0x1F LT PUSH2 0x9CE JUMPI PUSH2 0x100 DUP1 DUP4 SLOAD DIV MUL DUP4 MSTORE SWAP2 PUSH1 0x20 ADD SWAP2 PUSH2 0x9F9 JUMP JUMPDEST DUP3 ADD SWAP2 SWAP1 PUSH1 0x0 MSTORE PUSH1 0x20 PUSH1 0x0 KECCAK256 SWAP1 JUMPDEST DUP2 SLOAD DUP2 MSTORE SWAP1 PUSH1 0x1 ADD SWAP1 PUSH1 0x20 ADD DUP1 DUP4 GT PUSH2 0x9DC JUMPI DUP3 SWAP1 SUB PUSH1 0x1F AND DUP3 ADD SWAP2 JUMPDEST POP POP POP POP POP SWAP1 POP SWAP1 JUMP JUMPDEST PUSH1 0x0 SLOAD PUSH1 0x1 PUSH1 0x1 PUSH1 0xA0 SHL SUB AND CALLER EQ PUSH2 0xA62 JUMPI PUSH1 0x40 MLOAD PUSH3 0x461BCD PUSH1 0xE5 SHL DUP2 MSTORE PUSH1 0x20 PUSH1 0x4 DUP3 ADD DUP2 SWAP1 MSTORE PUSH1 0x24 DUP3 ADD MSTORE PUSH32 0x4F776E61626C653A2063616C6C6572206973206E6F7420746865206F776E6572 PUSH1 0x44 DUP3 ADD MSTORE PUSH1 0x64 ADD JUMPDEST PUSH1 0x40 MLOAD DUP1 SWAP2 SUB SWAP1 REVERT JUMPDEST PUSH1 0x6 DUP1 SLOAD PUSH32 0xFFFFFFFFFFFFFFFFFFFFFF0000000000000000000000000000000000000000FF AND PUSH2 0x100 PUSH1 0x1 PUSH1 0x1 PUSH1 0xA0 SHL SUB DUP5 DUP2 AND DUP3 MUL SWAP3 SWAP1 SWAP3 OR SWAP3 DUP4 SWAP1 SSTORE PUSH1 0x40 MLOAD SWAP3 DIV AND DUP2 MSTORE PUSH32 0xDD8C807C33D35AD7642D985ACA3455E9281F5298B1C22A4AADB5A86D52DF7ED1 SWAP1 PUSH1 0x20 ADD PUSH1 0x40 MLOAD DUP1 SWAP2 SUB SWAP1 LOG1 POP JUMP JUMPDEST PUSH1 0x0 PUSH1 0x1 PUSH1 0x1 PUSH1 0xA0 SHL SUB DUP4 AND PUSH2 0xB15 JUMPI PUSH1 0x40 MLOAD PUSH3 0x461BCD PUSH1 0xE5 SHL DUP2 MSTORE PUSH1 0x20 PUSH1 0x4 DUP3 ADD MSTORE PUSH1 0x2 PUSH1 0x24 DUP3 ADD MSTORE PUSH2 0x1A9B PUSH1 0xF1 SHL PUSH1 0x44 DUP3 ADD MSTORE PUSH1 0x64 ADD PUSH2 0xA59 JUMP JUMPDEST CALLER PUSH1 0x0 DUP2 DUP2 MSTORE PUSH1 0x8 PUSH1 0x20 SWAP1 DUP2 MSTORE PUSH1 0x40 DUP1 DUP4 KECCAK256 PUSH1 0x1 PUSH1 0x1 PUSH1 0xA0 SHL SUB DUP9 AND DUP1 DUP6 MSTORE SWAP1 DUP4 MSTORE SWAP3 DUP2 SWAP1 KECCAK256 DUP7 SWAP1 SSTORE MLOAD DUP6 DUP2 MSTORE SWAP2 SWAP3 SWAP2 PUSH32 0x8C5BE1E5EBEC7D5BD14F71427D1E84F3DD0314C0F7B2291E5B200AC8C7C3B925 SWAP2 ADD PUSH1 0x40 MLOAD DUP1 SWAP2 SUB SWAP1 LOG3 POP PUSH1 0x1 SWAP3 SWAP2 POP POP JUMP JUMPDEST CALLER PUSH1 0x0 DUP2 DUP2 MSTORE PUSH1 0x15 PUSH1 0x20 SWAP1 DUP2 MSTORE PUSH1 0x40 DUP1 DUP4 KECCAK256 DUP7 DUP5 MSTORE DUP3 MSTORE DUP1 DUP4 KECCAK256 PUSH1 0x1 PUSH1 0x1 PUSH1 0xA0 SHL SUB DUP7 AND DUP1 DUP6 MSTORE SWAP3 MSTORE DUP1 DUP4 KECCAK256 DUP1 SLOAD PUSH1 0xFF NOT AND PUSH1 0x1 OR SWAP1 SSTORE MLOAD SWAP1 SWAP2 DUP6 SWAP2 PUSH32 0x3646A897C70797ECC134B0ADC32F471B07BF1D6F451133B0384BADAB531E3FD6 SWAP2 SWAP1 LOG4 POP POP JUMP JUMPDEST PUSH1 0x0 PUSH1 0x1 PUSH1 0x1 PUSH1 0xA0 SHL SUB DUP4 AND PUSH2 0xC1A JUMPI PUSH1 0x40 MLOAD PUSH3 0x461BCD PUSH1 0xE5 SHL DUP2 MSTORE PUSH1 0x20 PUSH1 0x4 DUP3 ADD MSTORE PUSH1 0x2 PUSH1 0x24 DUP3 ADD MSTORE PUSH2 0x1A9B PUSH1 0xF1 SHL PUSH1 0x44 DUP3 ADD MSTORE PUSH1 0x64 ADD PUSH2 0xA59 JUMP JUMPDEST PUSH1 0x0 DUP5 DUP2 MSTORE PUSH1 0x14 PUSH1 0x20 SWAP1 DUP2 MSTORE PUSH1 0x40 DUP1 DUP4 KECCAK256 CALLER DUP1 DUP6 MSTORE SWAP1 DUP4 MSTORE DUP2 DUP5 KECCAK256 PUSH1 0x1 PUSH1 0x1 PUSH1 0xA0 SHL SUB DUP9 AND DUP1 DUP7 MSTORE SWAP1 DUP5 MSTORE SWAP4 DUP3 SWAP1 KECCAK256 DUP7 SWAP1 SSTORE SWAP1 MLOAD DUP6 DUP2 MSTORE SWAP1 SWAP2 DUP8 SWAP2 PUSH32 0xF061499AA77C2F6F5E25E34955A06623705344A88256CC861A121EC0BCE5CFEC SWAP2 ADD PUSH1 0x40 MLOAD DUP1 SWAP2 SUB SWAP1 LOG4 POP PUSH1 0x1 SWAP4 SWAP3 POP POP POP JUMP JUMPDEST CALLER PUSH1 0x0 DUP2 DUP2 MSTORE PUSH1 0x15 PUSH1 0x20 SWAP1 DUP2 MSTORE PUSH1 0x40 DUP1 DUP4 KECCAK256 DUP7 DUP5 MSTORE DUP3 MSTORE DUP1 DUP4 KECCAK256 PUSH1 0x1 PUSH1 0x1 PUSH1 0xA0 SHL SUB DUP7 AND DUP1 DUP6 MSTORE SWAP3 MSTORE DUP1 DUP4 KECCAK256 DUP1 SLOAD PUSH1 0xFF NOT AND SWAP1 SSTORE MLOAD SWAP1 SWAP2 DUP6 SWAP2 PUSH32 0x3B287C4F1BAB4DF949B33BCEACEF984F544DC5D5479930D00E4EE8C9D8DD96F2 SWAP2 SWAP1 LOG4 POP POP JUMP JUMPDEST PUSH1 0x0 SLOAD PUSH1 0x1 PUSH1 0x1 PUSH1 0xA0 SHL SUB AND CALLER EQ PUSH2 0xD45 JUMPI PUSH1 0x40 MLOAD PUSH3 0x461BCD PUSH1 0xE5 SHL DUP2 MSTORE PUSH1 0x20 PUSH1 0x4 DUP3 ADD DUP2 SWAP1 MSTORE PUSH1 0x24 DUP3 ADD MSTORE PUSH32 0x4F776E61626C653A2063616C6C6572206973206E6F7420746865206F776E6572 PUSH1 0x44 DUP3 ADD MSTORE PUSH1 0x64 ADD PUSH2 0xA59 JUMP JUMPDEST PUSH2 0xD82 DUP4 DUP4 DUP4 DUP1 DUP1 PUSH1 0x20 MUL PUSH1 0x20 ADD PUSH1 0x40 MLOAD SWAP1 DUP2 ADD PUSH1 0x40 MSTORE DUP1 SWAP4 SWAP3 SWAP2 SWAP1 DUP2 DUP2 MSTORE PUSH1 0x20 ADD DUP4 DUP4 PUSH1 0x20 MUL DUP1 DUP3 DUP5 CALLDATACOPY PUSH1 0x0 SWAP3 ADD SWAP2 SWAP1 SWAP2 MSTORE POP PUSH2 0x1EDB SWAP3 POP POP POP JUMP JUMPDEST POP POP POP JUMP JUMPDEST PUSH1 0x0 PUSH2 0xD93 CALLER DUP6 PUSH2 0x1FFE JUMP JUMPDEST DUP1 PUSH2 0xDC1 JUMPI POP PUSH1 0x1 PUSH1 0x1 PUSH1 0xA0 SHL SUB DUP5 AND PUSH1 0x0 SWAP1 DUP2 MSTORE PUSH1 0x8 PUSH1 0x20 SWAP1 DUP2 MSTORE PUSH1 0x40 DUP1 DUP4 KECCAK256 CALLER DUP5 MSTORE SWAP1 SWAP2 MSTORE SWAP1 KECCAK256 SLOAD DUP3 GT ISZERO JUMPDEST PUSH2 0xDF2 JUMPI PUSH1 0x40 MLOAD PUSH3 0x461BCD PUSH1 0xE5 SHL DUP2 MSTORE PUSH1 0x20 PUSH1 0x4 DUP3 ADD MSTORE PUSH1 0x2 PUSH1 0x24 DUP3 ADD MSTORE PUSH2 0x3533 PUSH1 0xF0 SHL PUSH1 0x44 DUP3 ADD MSTORE PUSH1 0x64 ADD PUSH2 0xA59 JUMP JUMPDEST PUSH1 0x1 PUSH1 0x1 PUSH1 0xA0 SHL SUB DUP5 AND PUSH1 0x0 SWAP1 DUP2 MSTORE PUSH1 0x8 PUSH1 0x20 SWAP1 DUP2 MSTORE PUSH1 0x40 DUP1 DUP4 KECCAK256 CALLER DUP5 MSTORE SWAP1 SWAP2 MSTORE SWAP1 KECCAK256 SLOAD DUP3 GT PUSH2 0xE73 JUMPI PUSH1 0x1 PUSH1 0x1 PUSH1 0xA0 SHL SUB DUP5 AND PUSH1 0x0 SWAP1 DUP2 MSTORE PUSH1 0x8 PUSH1 0x20 SWAP1 DUP2 MSTORE PUSH1 0x40 DUP1 DUP4 KECCAK256 CALLER DUP5 MSTORE SWAP1 SWAP2 MSTORE SWAP1 KECCAK256 SLOAD PUSH2 0xE4A SWAP1 DUP4 PUSH2 0x207F JUMP JUMPDEST PUSH1 0x1 PUSH1 0x1 PUSH1 0xA0 SHL SUB DUP6 AND PUSH1 0x0 SWAP1 DUP2 MSTORE PUSH1 0x8 PUSH1 0x20 SWAP1 DUP2 MSTORE PUSH1 0x40 DUP1 DUP4 KECCAK256 CALLER DUP5 MSTORE SWAP1 SWAP2 MSTORE SWAP1 KECCAK256 SSTORE PUSH2 0xE98 JUMP JUMPDEST PUSH1 0x1 PUSH1 0x1 PUSH1 0xA0 SHL SUB DUP5 AND PUSH1 0x0 SWAP1 DUP2 MSTORE PUSH1 0x8 PUSH1 0x20 SWAP1 DUP2 MSTORE PUSH1 0x40 DUP1 DUP4 KECCAK256 CALLER DUP5 MSTORE SWAP1 SWAP2 MSTORE DUP2 KECCAK256 SSTORE JUMPDEST PUSH2 0xEB4 CALLER DUP6 DUP6 DUP6 PUSH1 0x40 MLOAD DUP1 PUSH1 0x20 ADD PUSH1 0x40 MSTORE DUP1 PUSH1 0x0 DUP2 MSTORE POP PUSH2 0x208B JUMP JUMPDEST POP PUSH1 0x1 SWAP4 SWAP3 POP POP POP JUMP JUMPDEST PUSH2 0xF01 CALLER CALLER DUP7 DUP7 DUP7 DUP7 DUP1 DUP1 PUSH1 0x1F ADD PUSH1 0x20 DUP1 SWAP2 DIV MUL PUSH1 0x20 ADD PUSH1 0x40 MLOAD SWAP1 DUP2 ADD PUSH1 0x40 MSTORE DUP1 SWAP4 SWAP3 SWAP2 SWAP1 DUP2 DUP2 MSTORE PUSH1 0x20 ADD DUP4 DUP4 DUP1 DUP3 DUP5 CALLDATACOPY PUSH1 0x0 SWAP3 ADD SWAP2 SWAP1 SWAP2 MSTORE POP PUSH2 0x208B SWAP3 POP POP POP JUMP JUMPDEST POP POP POP POP JUMP JUMPDEST PUSH1 0x0 DUP3 DUP2 MSTORE PUSH1 0x1 PUSH1 0x20 DUP2 SWAP1 MSTORE PUSH1 0x40 SWAP1 SWAP2 KECCAK256 ADD SLOAD PUSH2 0xF24 DUP2 CALLER PUSH2 0x2203 JUMP JUMPDEST PUSH2 0xD82 DUP4 DUP4 PUSH2 0x2283 JUMP JUMPDEST PUSH2 0xF37 CALLER PUSH2 0x1719 JUMP JUMPDEST PUSH2 0xF70 JUMPI PUSH1 0x40 MLOAD PUSH3 0x461BCD PUSH1 0xE5 SHL DUP2 MSTORE PUSH1 0x20 PUSH1 0x4 DUP3 ADD MSTORE PUSH1 0xA PUSH1 0x24 DUP3 ADD MSTORE PUSH10 0x3737BA1036B4B73A32B9 PUSH1 0xB1 SHL PUSH1 0x44 DUP3 ADD MSTORE PUSH1 0x64 ADD PUSH2 0xA59 JUMP JUMPDEST PUSH2 0xF79 DUP2 PUSH2 0x230A JUMP JUMPDEST POP JUMP JUMPDEST PUSH1 0x1 PUSH1 0x1 PUSH1 0xA0 SHL SUB DUP2 AND CALLER EQ PUSH2 0xFFA JUMPI PUSH1 0x40 MLOAD PUSH3 0x461BCD PUSH1 0xE5 SHL DUP2 MSTORE PUSH1 0x20 PUSH1 0x4 DUP3 ADD MSTORE PUSH1 0x2F PUSH1 0x24 DUP3 ADD MSTORE PUSH32 0x416363657373436F6E74726F6C3A2063616E206F6E6C792072656E6F756E6365 PUSH1 0x44 DUP3 ADD MSTORE PUSH32 0x20726F6C657320666F722073656C660000000000000000000000000000000000 PUSH1 0x64 DUP3 ADD MSTORE PUSH1 0x84 ADD PUSH2 0xA59 JUMP JUMPDEST PUSH2 0x1004 DUP3 DUP3 PUSH2 0x236B JUMP JUMPDEST POP POP JUMP JUMPDEST PUSH2 0xF01 DUP5 CALLER CALLER DUP7 DUP7 DUP7 DUP1 DUP1 PUSH1 0x1F ADD PUSH1 0x20 DUP1 SWAP2 DIV MUL PUSH1 0x20 ADD PUSH1 0x40 MLOAD SWAP1 DUP2 ADD PUSH1 0x40 MSTORE DUP1 SWAP4 SWAP3 SWAP2 SWAP1 DUP2 DUP2 MSTORE PUSH1 0x20 ADD DUP4 DUP4 DUP1 DUP3 DUP5 CALLDATACOPY PUSH1 0x0 SWAP3 ADD DUP3 SWAP1 MSTORE POP PUSH1 0x40 DUP1 MLOAD PUSH1 0x20 DUP2 ADD SWAP1 SWAP2 MSTORE SWAP1 DUP2 MSTORE SWAP3 POP PUSH2 0x23EE SWAP2 POP POP JUMP JUMPDEST PUSH2 0x1062 CALLER PUSH2 0x1719 JUMP JUMPDEST PUSH2 0x109B JUMPI PUSH1 0x40 MLOAD PUSH3 0x461BCD PUSH1 0xE5 SHL DUP2 MSTORE PUSH1 0x20 PUSH1 0x4 DUP3 ADD MSTORE PUSH1 0xA PUSH1 0x24 DUP3 ADD MSTORE PUSH10 0x3737BA1036B4B73A32B9 PUSH1 0xB1 SHL PUSH1 0x44 DUP3 ADD MSTORE PUSH1 0x64 ADD PUSH2 0xA59 JUMP JUMPDEST PUSH1 0x6 SLOAD PUSH1 0x1 PUSH1 0xB0 SHL SWAP1 DIV PUSH1 0xFF AND PUSH2 0x10D9 JUMPI PUSH1 0x40 MLOAD PUSH3 0x461BCD PUSH1 0xE5 SHL DUP2 MSTORE PUSH1 0x20 PUSH1 0x4 DUP3 ADD MSTORE PUSH1 0x2 PUSH1 0x24 DUP3 ADD MSTORE PUSH2 0x3535 PUSH1 0xF0 SHL PUSH1 0x44 DUP3 ADD MSTORE PUSH1 0x64 ADD PUSH2 0xA59 JUMP JUMPDEST PUSH2 0x111C DUP6 CALLER DUP7 DUP7 DUP7 DUP7 DUP1 DUP1 PUSH1 0x1F ADD PUSH1 0x20 DUP1 SWAP2 DIV MUL PUSH1 0x20 ADD PUSH1 0x40 MLOAD SWAP1 DUP2 ADD PUSH1 0x40 MSTORE DUP1 SWAP4 SWAP3 SWAP2 SWAP1 DUP2 DUP2 MSTORE PUSH1 0x20 ADD DUP4 DUP4 DUP1 DUP3 DUP5 CALLDATACOPY PUSH1 0x0 SWAP3 ADD SWAP2 SWAP1 SWAP2 MSTORE POP PUSH2 0x250E SWAP3 POP POP POP JUMP JUMPDEST POP POP POP POP POP JUMP JUMPDEST PUSH1 0x0 SLOAD PUSH1 0x1 PUSH1 0x1 PUSH1 0xA0 SHL SUB AND CALLER EQ PUSH2 0x117D JUMPI PUSH1 0x40 MLOAD PUSH3 0x461BCD PUSH1 0xE5 SHL DUP2 MSTORE PUSH1 0x20 PUSH1 0x4 DUP3 ADD DUP2 SWAP1 MSTORE PUSH1 0x24 DUP3 ADD MSTORE PUSH32 0x4F776E61626C653A2063616C6C6572206973206E6F7420746865206F776E6572 PUSH1 0x44 DUP3 ADD MSTORE PUSH1 0x64 ADD PUSH2 0xA59 JUMP JUMPDEST PUSH1 0x6 DUP1 SLOAD PUSH32 0xFFFFFFFFFFFFFFFFFF00FFFFFFFFFFFFFFFFFFFFFFFFFFFFFFFFFFFFFFFFFFFF AND SWAP1 SSTORE JUMP JUMPDEST PUSH1 0x0 PUSH2 0x11B4 DUP5 DUP5 DUP5 PUSH2 0x25D5 JUMP JUMPDEST SWAP5 SWAP4 POP POP POP POP JUMP JUMPDEST PUSH1 0x0 SLOAD PUSH1 0x1 PUSH1 0x1 PUSH1 0xA0 SHL SUB AND CALLER EQ PUSH2 0x1216 JUMPI PUSH1 0x40 MLOAD PUSH3 0x461BCD PUSH1 0xE5 SHL DUP2 MSTORE PUSH1 0x20 PUSH1 0x4 DUP3 ADD DUP2 SWAP1 MSTORE PUSH1 0x24 DUP3 ADD MSTORE PUSH32 0x4F776E61626C653A2063616C6C6572206973206E6F7420746865206F776E6572 PUSH1 0x44 DUP3 ADD MSTORE PUSH1 0x64 ADD PUSH2 0xA59 JUMP JUMPDEST PUSH2 0x1220 PUSH1 0x0 PUSH2 0x2660 JUMP JUMPDEST JUMP JUMPDEST PUSH1 0x1 PUSH1 0x1 PUSH1 0xA0 SHL SUB DUP2 AND PUSH1 0x0 SWAP1 DUP2 MSTORE PUSH1 0xD PUSH1 0x20 SWAP1 DUP2 MSTORE PUSH1 0x40 SWAP2 DUP3 SWAP1 KECCAK256 DUP1 SLOAD DUP4 MLOAD DUP2 DUP5 MUL DUP2 ADD DUP5 ADD SWAP1 SWAP5 MSTORE DUP1 DUP5 MSTORE PUSH1 0x60 SWAP4 SWAP3 DUP4 ADD DUP3 DUP3 DUP1 ISZERO PUSH2 0x1282 JUMPI PUSH1 0x20 MUL DUP3 ADD SWAP2 SWAP1 PUSH1 0x0 MSTORE PUSH1 0x20 PUSH1 0x0 KECCAK256 SWAP1 JUMPDEST DUP2 SLOAD DUP2 MSTORE PUSH1 0x20 ADD SWAP1 PUSH1 0x1 ADD SWAP1 DUP1 DUP4 GT PUSH2 0x126E JUMPI JUMPDEST POP POP POP POP POP SWAP1 POP SWAP2 SWAP1 POP JUMP JUMPDEST PUSH1 0x60 PUSH1 0x12 DUP1 SLOAD DUP1 PUSH1 0x20 MUL PUSH1 0x20 ADD PUSH1 0x40 MLOAD SWAP1 DUP2 ADD PUSH1 0x40 MSTORE DUP1 SWAP3 SWAP2 SWAP1 DUP2 DUP2 MSTORE PUSH1 0x20 ADD DUP3 DUP1 SLOAD DUP1 ISZERO PUSH2 0x9F9 JUMPI PUSH1 0x20 MUL DUP3 ADD SWAP2 SWAP1 PUSH1 0x0 MSTORE PUSH1 0x20 PUSH1 0x0 KECCAK256 SWAP1 JUMPDEST DUP2 SLOAD PUSH1 0x1 PUSH1 0x1 PUSH1 0xA0 SHL SUB AND DUP2 MSTORE PUSH1 0x1 SWAP1 SWAP2 ADD SWAP1 PUSH1 0x20 ADD DUP1 DUP4 GT PUSH2 0x12C8 JUMPI POP POP POP POP POP SWAP1 POP SWAP1 JUMP JUMPDEST PUSH1 0x0 DUP2 DUP2 MSTORE PUSH1 0x16 PUSH1 0x20 SWAP1 DUP2 MSTORE PUSH1 0x40 SWAP2 DUP3 SWAP1 KECCAK256 DUP1 SLOAD DUP4 MLOAD DUP2 DUP5 MUL DUP2 ADD DUP5 ADD SWAP1 SWAP5 MSTORE DUP1 DUP5 MSTORE PUSH1 0x60 SWAP4 SWAP3 DUP4 ADD DUP3 DUP3 DUP1 ISZERO PUSH2 0x1282 JUMPI PUSH1 0x20 MUL DUP3 ADD SWAP2 SWAP1 PUSH1 0x0 MSTORE PUSH1 0x20 PUSH1 0x0 KECCAK256 SWAP1 JUMPDEST DUP2 SLOAD PUSH1 0x1 PUSH1 0x1 PUSH1 0xA0 SHL SUB AND DUP2 MSTORE PUSH1 0x1 SWAP1 SWAP2 ADD SWAP1 PUSH1 0x20 ADD DUP1 DUP4 GT PUSH2 0x1331 JUMPI POP POP POP POP POP SWAP1 POP SWAP2 SWAP1 POP JUMP JUMPDEST PUSH1 0x0 PUSH2 0x1367 DUP10 CALLER DUP11 PUSH2 0x25D5 JUMP JUMPDEST DUP1 PUSH2 0x139C JUMPI POP PUSH1 0x0 DUP10 DUP2 MSTORE PUSH1 0x14 PUSH1 0x20 SWAP1 DUP2 MSTORE PUSH1 0x40 DUP1 DUP4 KECCAK256 PUSH1 0x1 PUSH1 0x1 PUSH1 0xA0 SHL SUB DUP13 AND DUP5 MSTORE DUP3 MSTORE DUP1 DUP4 KECCAK256 CALLER DUP5 MSTORE SWAP1 SWAP2 MSTORE SWAP1 KECCAK256 SLOAD DUP7 GT ISZERO JUMPDEST PUSH2 0x13CD JUMPI PUSH1 0x40 MLOAD PUSH3 0x461BCD PUSH1 0xE5 SHL DUP2 MSTORE PUSH1 0x20 PUSH1 0x4 DUP3 ADD MSTORE PUSH1 0x2 PUSH1 0x24 DUP3 ADD MSTORE PUSH2 0x3533 PUSH1 0xF0 SHL PUSH1 0x44 DUP3 ADD MSTORE PUSH1 0x64 ADD PUSH2 0xA59 JUMP JUMPDEST PUSH1 0x0 DUP10 DUP2 MSTORE PUSH1 0x14 PUSH1 0x20 SWAP1 DUP2 MSTORE PUSH1 0x40 DUP1 DUP4 KECCAK256 PUSH1 0x1 PUSH1 0x1 PUSH1 0xA0 SHL SUB DUP13 AND DUP5 MSTORE DUP3 MSTORE DUP1 DUP4 KECCAK256 CALLER DUP5 MSTORE SWAP1 SWAP2 MSTORE SWAP1 KECCAK256 SLOAD DUP7 GT PUSH2 0x1463 JUMPI PUSH1 0x0 DUP10 DUP2 MSTORE PUSH1 0x14 PUSH1 0x20 SWAP1 DUP2 MSTORE PUSH1 0x40 DUP1 DUP4 KECCAK256 PUSH1 0x1 PUSH1 0x1 PUSH1 0xA0 SHL SUB DUP13 AND DUP5 MSTORE DUP3 MSTORE DUP1 DUP4 KECCAK256 CALLER DUP5 MSTORE SWAP1 SWAP2 MSTORE SWAP1 KECCAK256 SLOAD PUSH2 0x1433 SWAP1 DUP8 PUSH2 0x207F JUMP JUMPDEST PUSH1 0x0 DUP11 DUP2 MSTORE PUSH1 0x14 PUSH1 0x20 SWAP1 DUP2 MSTORE PUSH1 0x40 DUP1 DUP4 KECCAK256 PUSH1 0x1 PUSH1 0x1 PUSH1 0xA0 SHL SUB DUP14 AND DUP5 MSTORE DUP3 MSTORE DUP1 DUP4 KECCAK256 CALLER DUP5 MSTORE SWAP1 SWAP2 MSTORE SWAP1 KECCAK256 SSTORE PUSH2 0x148F JUMP JUMPDEST PUSH1 0x0 DUP10 DUP2 MSTORE PUSH1 0x14 PUSH1 0x20 SWAP1 DUP2 MSTORE PUSH1 0x40 DUP1 DUP4 KECCAK256 PUSH1 0x1 PUSH1 0x1 PUSH1 0xA0 SHL SUB DUP13 AND DUP5 MSTORE DUP3 MSTORE DUP1 DUP4 KECCAK256 CALLER DUP5 MSTORE SWAP1 SWAP2 MSTORE DUP2 KECCAK256 SSTORE JUMPDEST PUSH2 0x1507 DUP10 CALLER DUP11 DUP11 DUP11 DUP11 DUP11 DUP1 DUP1 PUSH1 0x1F ADD PUSH1 0x20 DUP1 SWAP2 DIV MUL PUSH1 0x20 ADD PUSH1 0x40 MLOAD SWAP1 DUP2 ADD PUSH1 0x40 MSTORE DUP1 SWAP4 SWAP3 SWAP2 SWAP1 DUP2 DUP2 MSTORE PUSH1 0x20 ADD DUP4 DUP4 DUP1 DUP3 DUP5 CALLDATACOPY PUSH1 0x0 SWAP3 ADD SWAP2 SWAP1 SWAP2 MSTORE POP POP PUSH1 0x40 DUP1 MLOAD PUSH1 0x20 PUSH1 0x1F DUP15 ADD DUP2 SWAP1 DIV DUP2 MUL DUP3 ADD DUP2 ADD SWAP1 SWAP3 MSTORE DUP13 DUP2 MSTORE SWAP3 POP DUP13 SWAP2 POP DUP12 SWAP1 DUP2 SWAP1 DUP5 ADD DUP4 DUP3 DUP1 DUP3 DUP5 CALLDATACOPY PUSH1 0x0 SWAP3 ADD SWAP2 SWAP1 SWAP2 MSTORE POP PUSH2 0x26BD SWAP3 POP POP POP JUMP JUMPDEST SWAP10 SWAP9 POP POP POP POP POP POP POP POP POP JUMP JUMPDEST PUSH1 0x1 PUSH1 0x1 PUSH1 0xA0 SHL SUB DUP2 AND CALLER EQ ISZERO PUSH2 0x152A JUMPI PUSH1 0x0 DUP1 REVERT JUMPDEST PUSH1 0x1 PUSH1 0x1 PUSH1 0xA0 SHL SUB DUP2 AND PUSH1 0x0 DUP2 DUP2 MSTORE PUSH1 0x11 PUSH1 0x20 SWAP1 DUP2 MSTORE PUSH1 0x40 DUP1 DUP4 KECCAK256 CALLER DUP1 DUP6 MSTORE SWAP3 MSTORE DUP1 DUP4 KECCAK256 DUP1 SLOAD PUSH1 0xFF NOT AND PUSH1 0x1 OR SWAP1 SSTORE MLOAD SWAP1 SWAP3 SWAP2 PUSH32 0xF4CAEB2D6CA8932A215A353D0703C326EC2D81FC68170F320EB2AB49E9DF61F9 SWAP2 LOG3 POP JUMP JUMPDEST PUSH1 0x60 PUSH1 0x3 DUP1 SLOAD PUSH2 0x980 SWAP1 PUSH2 0x3F85 JUMP JUMPDEST PUSH2 0x159C CALLER DUP6 PUSH2 0x1FFE JUMP JUMPDEST PUSH2 0x15CD JUMPI PUSH1 0x40 MLOAD PUSH3 0x461BCD PUSH1 0xE5 SHL DUP2 MSTORE PUSH1 0x20 PUSH1 0x4 DUP3 ADD MSTORE PUSH1 0x2 PUSH1 0x24 DUP3 ADD MSTORE PUSH2 0x6A7 PUSH1 0xF3 SHL PUSH1 0x44 DUP3 ADD MSTORE PUSH1 0x64 ADD PUSH2 0xA59 JUMP JUMPDEST PUSH2 0xF01 CALLER DUP6 DUP6 DUP6 DUP6 DUP1 DUP1 PUSH1 0x1F ADD PUSH1 0x20 DUP1 SWAP2 DIV MUL PUSH1 0x20 ADD PUSH1 0x40 MLOAD SWAP1 DUP2 ADD PUSH1 0x40 MSTORE DUP1 SWAP4 SWAP3 SWAP2 SWAP1 DUP2 DUP2 MSTORE PUSH1 0x20 ADD DUP4 DUP4 DUP1 DUP3 DUP5 CALLDATACOPY PUSH1 0x0 SWAP3 ADD SWAP2 SWAP1 SWAP2 MSTORE POP PUSH2 0x2868 SWAP3 POP POP POP JUMP JUMPDEST PUSH2 0x1618 CALLER PUSH2 0x1719 JUMP JUMPDEST PUSH2 0x1651 JUMPI PUSH1 0x40 MLOAD PUSH3 0x461BCD PUSH1 0xE5 SHL DUP2 MSTORE PUSH1 0x20 PUSH1 0x4 DUP3 ADD MSTORE PUSH1 0xA PUSH1 0x24 DUP3 ADD MSTORE PUSH10 0x3737BA1036B4B73A32B9 PUSH1 0xB1 SHL PUSH1 0x44 DUP3 ADD MSTORE PUSH1 0x64 ADD PUSH2 0xA59 JUMP JUMPDEST PUSH2 0xF79 DUP2 PUSH2 0x2A2F JUMP JUMPDEST PUSH2 0x1220 CALLER PUSH2 0x230A JUMP JUMPDEST PUSH2 0x166E DUP6 CALLER DUP7 PUSH2 0x25D5 JUMP JUMPDEST PUSH2 0x169F JUMPI PUSH1 0x40 MLOAD PUSH3 0x461BCD PUSH1 0xE5 SHL DUP2 MSTORE PUSH1 0x20 PUSH1 0x4 DUP3 ADD MSTORE PUSH1 0x2 PUSH1 0x24 DUP3 ADD MSTORE PUSH2 0x6A7 PUSH1 0xF3 SHL PUSH1 0x44 DUP3 ADD MSTORE PUSH1 0x64 ADD PUSH2 0xA59 JUMP JUMPDEST PUSH2 0x111C DUP6 CALLER DUP7 DUP7 PUSH1 0x40 MLOAD DUP1 PUSH1 0x20 ADD PUSH1 0x40 MSTORE DUP1 PUSH1 0x0 DUP2 MSTORE POP DUP8 DUP8 DUP1 DUP1 PUSH1 0x1F ADD PUSH1 0x20 DUP1 SWAP2 DIV MUL PUSH1 0x20 ADD PUSH1 0x40 MLOAD SWAP1 DUP2 ADD PUSH1 0x40 MSTORE DUP1 SWAP4 SWAP3 SWAP2 SWAP1 DUP2 DUP2 MSTORE PUSH1 0x20 ADD DUP4 DUP4 DUP1 DUP3 DUP5 CALLDATACOPY PUSH1 0x0 SWAP3 ADD SWAP2 SWAP1 SWAP2 MSTORE POP PUSH2 0x23EE SWAP3 POP POP POP JUMP JUMPDEST PUSH1 0x0 PUSH2 0x1710 CALLER CALLER DUP6 DUP6 PUSH1 0x40 MLOAD DUP1 PUSH1 0x20 ADD PUSH1 0x40 MSTORE DUP1 PUSH1 0x0 DUP2 MSTORE POP PUSH2 0x208B JUMP JUMPDEST POP PUSH1 0x1 SWAP3 SWAP2 POP POP JUMP JUMPDEST PUSH1 0x1 PUSH1 0x1 PUSH1 0xA0 SHL SUB DUP2 AND PUSH1 0x0 SWAP1 DUP2 MSTORE PUSH32 0x26966C7CA00F80A840807FE1D2876298D981892BF639875A3C73BA2AC1FA3A0C PUSH1 0x20 MSTORE PUSH1 0x40 DUP2 KECCAK256 SLOAD PUSH1 0xFF AND PUSH2 0x96B JUMP JUMPDEST PUSH1 0x0 DUP2 DUP2 MSTORE PUSH1 0x9 PUSH1 0x20 MSTORE PUSH1 0x40 DUP2 KECCAK256 DUP1 SLOAD PUSH1 0x60 SWAP3 SWAP2 SWAP1 PUSH2 0x1777 SWAP1 PUSH2 0x3F85 JUMP JUMPDEST ISZERO ISZERO SWAP1 POP PUSH2 0x1784 JUMPI PUSH1 0x0 DUP1 REVERT JUMPDEST PUSH1 0x0 DUP4 DUP2 MSTORE PUSH1 0x9 PUSH1 0x20 MSTORE PUSH1 0x40 SWAP1 KECCAK256 PUSH1 0x1 DUP2 ADD SLOAD DUP2 SLOAD DUP3 SWAP1 PUSH2 0x17A4 SWAP1 PUSH2 0x3F85 JUMP JUMPDEST DUP1 PUSH1 0x1F ADD PUSH1 0x20 DUP1 SWAP2 DIV MUL PUSH1 0x20 ADD PUSH1 0x40 MLOAD SWAP1 DUP2 ADD PUSH1 0x40 MSTORE DUP1 SWAP3 SWAP2 SWAP1 DUP2 DUP2 MSTORE PUSH1 0x20 ADD DUP3 DUP1 SLOAD PUSH2 0x17D0 SWAP1 PUSH2 0x3F85 JUMP JUMPDEST DUP1 ISZERO PUSH2 0x181D JUMPI DUP1 PUSH1 0x1F LT PUSH2 0x17F2 JUMPI PUSH2 0x100 DUP1 DUP4 SLOAD DIV MUL DUP4 MSTORE SWAP2 PUSH1 0x20 ADD SWAP2 PUSH2 0x181D JUMP JUMPDEST DUP3 ADD SWAP2 SWAP1 PUSH1 0x0 MSTORE PUSH1 0x20 PUSH1 0x0 KECCAK256 SWAP1 JUMPDEST DUP2 SLOAD DUP2 MSTORE SWAP1 PUSH1 0x1 ADD SWAP1 PUSH1 0x20 ADD DUP1 DUP4 GT PUSH2 0x1800 JUMPI DUP3 SWAP1 SUB PUSH1 0x1F AND DUP3 ADD SWAP2 JUMPDEST POP POP POP POP POP SWAP2 POP SWAP2 POP SWAP2 POP SWAP2 POP SWAP2 JUMP JUMPDEST PUSH1 0x0 PUSH2 0x1839 DUP4 DUP4 PUSH2 0x1FFE JUMP JUMPDEST SWAP4 SWAP3 POP POP POP JUMP JUMPDEST PUSH2 0x1849 CALLER PUSH2 0x1719 JUMP JUMPDEST PUSH2 0x1882 JUMPI PUSH1 0x40 MLOAD PUSH3 0x461BCD PUSH1 0xE5 SHL DUP2 MSTORE PUSH1 0x20 PUSH1 0x4 DUP3 ADD MSTORE PUSH1 0xA PUSH1 0x24 DUP3 ADD MSTORE PUSH10 0x3737BA1036B4B73A32B9 PUSH1 0xB1 SHL PUSH1 0x44 DUP3 ADD MSTORE PUSH1 0x64 ADD PUSH2 0xA59 JUMP JUMPDEST PUSH1 0x6 SLOAD PUSH1 0x1 PUSH1 0xB0 SHL SWAP1 DIV PUSH1 0xFF AND PUSH2 0x18C0 JUMPI PUSH1 0x40 MLOAD PUSH3 0x461BCD PUSH1 0xE5 SHL DUP2 MSTORE PUSH1 0x20 PUSH1 0x4 DUP3 ADD MSTORE PUSH1 0x2 PUSH1 0x24 DUP3 ADD MSTORE PUSH2 0x3535 PUSH1 0xF0 SHL PUSH1 0x44 DUP3 ADD MSTORE PUSH1 0x64 ADD PUSH2 0xA59 JUMP JUMPDEST PUSH1 0x10 SLOAD PUSH2 0x18F4 JUMPI PUSH1 0x40 MLOAD PUSH3 0x461BCD PUSH1 0xE5 SHL DUP2 MSTORE PUSH1 0x20 PUSH1 0x4 DUP3 ADD MSTORE PUSH1 0x2 PUSH1 0x24 DUP3 ADD MSTORE PUSH2 0x3535 PUSH1 0xF0 SHL PUSH1 0x44 DUP3 ADD MSTORE PUSH1 0x64 ADD PUSH2 0xA59 JUMP JUMPDEST PUSH2 0x18FD DUP5 PUSH2 0x2A90 JUMP JUMPDEST PUSH2 0x193F JUMPI PUSH1 0x40 MLOAD PUSH3 0x461BCD PUSH1 0xE5 SHL DUP2 MSTORE PUSH1 0x20 PUSH1 0x4 DUP3 ADD MSTORE PUSH1 0x13 PUSH1 0x24 DUP3 ADD MSTORE PUSH19 0x2AB730BABA3437B934BD32B2102830B93A3C97 PUSH1 0x69 SHL PUSH1 0x44 DUP3 ADD MSTORE PUSH1 0x64 ADD PUSH2 0xA59 JUMP JUMPDEST PUSH2 0xF01 PUSH1 0x10 PUSH1 0x0 DUP2 SLOAD DUP2 LT PUSH2 0x1956 JUMPI PUSH2 0x1956 PUSH2 0x3FC0 JUMP JUMPDEST SWAP1 PUSH1 0x0 MSTORE PUSH1 0x20 PUSH1 0x0 KECCAK256 ADD SLOAD CALLER DUP7 DUP7 DUP7 DUP7 DUP1 DUP1 PUSH1 0x1F ADD PUSH1 0x20 DUP1 SWAP2 DIV MUL PUSH1 0x20 ADD PUSH1 0x40 MLOAD SWAP1 DUP2 ADD PUSH1 0x40 MSTORE DUP1 SWAP4 SWAP3 SWAP2 SWAP1 DUP2 DUP2 MSTORE PUSH1 0x20 ADD DUP4 DUP4 DUP1 DUP3 DUP5 CALLDATACOPY PUSH1 0x0 SWAP3 ADD SWAP2 SWAP1 SWAP2 MSTORE POP PUSH2 0x250E SWAP3 POP POP POP JUMP JUMPDEST PUSH1 0x60 PUSH1 0x10 DUP1 SLOAD DUP1 PUSH1 0x20 MUL PUSH1 0x20 ADD PUSH1 0x40 MLOAD SWAP1 DUP2 ADD PUSH1 0x40 MSTORE DUP1 SWAP3 SWAP2 SWAP1 DUP2 DUP2 MSTORE PUSH1 0x20 ADD DUP3 DUP1 SLOAD DUP1 ISZERO PUSH2 0x9F9 JUMPI PUSH1 0x20 MUL DUP3 ADD SWAP2 SWAP1 PUSH1 0x0 MSTORE PUSH1 0x20 PUSH1 0x0 KECCAK256 SWAP1 JUMPDEST DUP2 SLOAD DUP2 MSTORE PUSH1 0x20 ADD SWAP1 PUSH1 0x1 ADD SWAP1 DUP1 DUP4 GT PUSH2 0x19DA JUMPI POP POP POP POP POP SWAP1 POP SWAP1 JUMP JUMPDEST PUSH1 0x0 SLOAD PUSH1 0x1 PUSH1 0x1 PUSH1 0xA0 SHL SUB AND CALLER EQ PUSH2 0x1A51 JUMPI PUSH1 0x40 MLOAD PUSH3 0x461BCD PUSH1 0xE5 SHL DUP2 MSTORE PUSH1 0x20 PUSH1 0x4 DUP3 ADD DUP2 SWAP1 MSTORE PUSH1 0x24 DUP3 ADD MSTORE PUSH32 0x4F776E61626C653A2063616C6C6572206973206E6F7420746865206F776E6572 PUSH1 0x44 DUP3 ADD MSTORE PUSH1 0x64 ADD PUSH2 0xA59 JUMP JUMPDEST PUSH1 0x6 DUP1 SLOAD PUSH32 0xFFFFFFFFFFFFFFFFFFFF00FFFFFFFFFFFFFFFFFFFFFFFFFFFFFFFFFFFFFFFFFF AND SWAP1 SSTORE JUMP JUMPDEST PUSH1 0x0 DUP3 DUP2 MSTORE PUSH1 0x1 PUSH1 0x20 DUP2 SWAP1 MSTORE PUSH1 0x40 SWAP1 SWAP2 KECCAK256 ADD SLOAD PUSH2 0x1A98 DUP2 CALLER PUSH2 0x2203 JUMP JUMPDEST PUSH2 0xD82 DUP4 DUP4 PUSH2 0x236B JUMP JUMPDEST PUSH2 0xD82 CALLER CALLER DUP6 DUP6 DUP6 DUP1 DUP1 PUSH1 0x1F ADD PUSH1 0x20 DUP1 SWAP2 DIV MUL PUSH1 0x20 ADD PUSH1 0x40 MLOAD SWAP1 DUP2 ADD PUSH1 0x40 MSTORE DUP1 SWAP4 SWAP3 SWAP2 SWAP1 DUP2 DUP2 MSTORE PUSH1 0x20 ADD DUP4 DUP4 DUP1 DUP3 DUP5 CALLDATACOPY PUSH1 0x0 SWAP3 ADD SWAP2 SWAP1 SWAP2 MSTORE POP PUSH2 0x2868 SWAP3 POP POP POP JUMP JUMPDEST PUSH1 0x0 SLOAD PUSH1 0x1 PUSH1 0x1 PUSH1 0xA0 SHL SUB AND CALLER EQ PUSH2 0x1B3E JUMPI PUSH1 0x40 MLOAD PUSH3 0x461BCD PUSH1 0xE5 SHL DUP2 MSTORE PUSH1 0x20 PUSH1 0x4 DUP3 ADD DUP2 SWAP1 MSTORE PUSH1 0x24 DUP3 ADD MSTORE PUSH32 0x4F776E61626C653A2063616C6C6572206973206E6F7420746865206F776E6572 PUSH1 0x44 DUP3 ADD MSTORE PUSH1 0x64 ADD PUSH2 0xA59 JUMP JUMPDEST PUSH2 0x1004 DUP3 DUP3 DUP1 DUP1 PUSH1 0x20 MUL PUSH1 0x20 ADD PUSH1 0x40 MLOAD SWAP1 DUP2 ADD PUSH1 0x40 MSTORE DUP1 SWAP4 SWAP3 SWAP2 SWAP1 DUP2 DUP2 MSTORE PUSH1 0x20 ADD DUP4 DUP4 PUSH1 0x20 MUL DUP1 DUP3 DUP5 CALLDATACOPY PUSH1 0x0 SWAP3 ADD SWAP2 SWAP1 SWAP2 MSTORE POP PUSH2 0x2B15 SWAP3 POP POP POP JUMP JUMPDEST PUSH1 0x0 SLOAD PUSH1 0x1 PUSH1 0x1 PUSH1 0xA0 SHL SUB AND CALLER EQ PUSH2 0x1BD4 JUMPI PUSH1 0x40 MLOAD PUSH3 0x461BCD PUSH1 0xE5 SHL DUP2 MSTORE PUSH1 0x20 PUSH1 0x4 DUP3 ADD DUP2 SWAP1 MSTORE PUSH1 0x24 DUP3 ADD MSTORE PUSH32 0x4F776E61626C653A2063616C6C6572206973206E6F7420746865206F776E6572 PUSH1 0x44 DUP3 ADD MSTORE PUSH1 0x64 ADD PUSH2 0xA59 JUMP JUMPDEST PUSH2 0xD82 PUSH1 0x10 DUP4 DUP4 PUSH2 0x3873 JUMP JUMPDEST PUSH2 0x1BEA CALLER DUP7 PUSH2 0x1FFE JUMP JUMPDEST DUP1 PUSH2 0x1C18 JUMPI POP PUSH1 0x1 PUSH1 0x1 PUSH1 0xA0 SHL SUB DUP6 AND PUSH1 0x0 SWAP1 DUP2 MSTORE PUSH1 0x8 PUSH1 0x20 SWAP1 DUP2 MSTORE PUSH1 0x40 DUP1 DUP4 KECCAK256 CALLER DUP5 MSTORE SWAP1 SWAP2 MSTORE SWAP1 KECCAK256 SLOAD DUP4 GT ISZERO JUMPDEST PUSH2 0x1C49 JUMPI PUSH1 0x40 MLOAD PUSH3 0x461BCD PUSH1 0xE5 SHL DUP2 MSTORE PUSH1 0x20 PUSH1 0x4 DUP3 ADD MSTORE PUSH1 0x2 PUSH1 0x24 DUP3 ADD MSTORE PUSH2 0x3533 PUSH1 0xF0 SHL PUSH1 0x44 DUP3 ADD MSTORE PUSH1 0x64 ADD PUSH2 0xA59 JUMP JUMPDEST PUSH1 0x1 PUSH1 0x1 PUSH1 0xA0 SHL SUB DUP6 AND PUSH1 0x0 SWAP1 DUP2 MSTORE PUSH1 0x8 PUSH1 0x20 SWAP1 DUP2 MSTORE PUSH1 0x40 DUP1 DUP4 KECCAK256 CALLER DUP5 MSTORE SWAP1 SWAP2 MSTORE SWAP1 KECCAK256 SLOAD DUP4 GT PUSH2 0x1CCA JUMPI PUSH1 0x1 PUSH1 0x1 PUSH1 0xA0 SHL SUB DUP6 AND PUSH1 0x0 SWAP1 DUP2 MSTORE PUSH1 0x8 PUSH1 0x20 SWAP1 DUP2 MSTORE PUSH1 0x40 DUP1 DUP4 KECCAK256 CALLER DUP5 MSTORE SWAP1 SWAP2 MSTORE SWAP1 KECCAK256 SLOAD PUSH2 0x1CA1 SWAP1 DUP5 PUSH2 0x207F JUMP JUMPDEST PUSH1 0x1 PUSH1 0x1 PUSH1 0xA0 SHL SUB DUP7 AND PUSH1 0x0 SWAP1 DUP2 MSTORE PUSH1 0x8 PUSH1 0x20 SWAP1 DUP2 MSTORE PUSH1 0x40 DUP1 DUP4 KECCAK256 CALLER DUP5 MSTORE SWAP1 SWAP2 MSTORE SWAP1 KECCAK256 SSTORE PUSH2 0x1CEF JUMP JUMPDEST PUSH1 0x1 PUSH1 0x1 PUSH1 0xA0 SHL SUB DUP6 AND PUSH1 0x0 SWAP1 DUP2 MSTORE PUSH1 0x8 PUSH1 0x20 SWAP1 DUP2 MSTORE PUSH1 0x40 DUP1 DUP4 KECCAK256 CALLER DUP5 MSTORE SWAP1 SWAP2 MSTORE DUP2 KECCAK256 SSTORE JUMPDEST PUSH2 0x111C CALLER DUP7 DUP7 DUP7 DUP7 DUP7 DUP1 DUP1 PUSH1 0x1F ADD PUSH1 0x20 DUP1 SWAP2 DIV MUL PUSH1 0x20 ADD PUSH1 0x40 MLOAD SWAP1 DUP2 ADD PUSH1 0x40 MSTORE DUP1 SWAP4 SWAP3 SWAP2 SWAP1 DUP2 DUP2 MSTORE PUSH1 0x20 ADD DUP4 DUP4 DUP1 DUP3 DUP5 CALLDATACOPY PUSH1 0x0 SWAP3 ADD SWAP2 SWAP1 SWAP2 MSTORE POP PUSH2 0x208B SWAP3 POP POP POP JUMP JUMPDEST PUSH1 0x0 SLOAD PUSH1 0x1 PUSH1 0x1 PUSH1 0xA0 SHL SUB AND CALLER EQ PUSH2 0x1D8C JUMPI PUSH1 0x40 MLOAD PUSH3 0x461BCD PUSH1 0xE5 SHL DUP2 MSTORE PUSH1 0x20 PUSH1 0x4 DUP3 ADD DUP2 SWAP1 MSTORE PUSH1 0x24 DUP3 ADD MSTORE PUSH32 0x4F776E61626C653A2063616C6C6572206973206E6F7420746865206F776E6572 PUSH1 0x44 DUP3 ADD MSTORE PUSH1 0x64 ADD PUSH2 0xA59 JUMP JUMPDEST PUSH1 0x1 PUSH1 0x1 PUSH1 0xA0 SHL SUB DUP2 AND PUSH2 0x1E08 JUMPI PUSH1 0x40 MLOAD PUSH3 0x461BCD PUSH1 0xE5 SHL DUP2 MSTORE PUSH1 0x20 PUSH1 0x4 DUP3 ADD MSTORE PUSH1 0x26 PUSH1 0x24 DUP3 ADD MSTORE PUSH32 0x4F776E61626C653A206E6577206F776E657220697320746865207A65726F2061 PUSH1 0x44 DUP3 ADD MSTORE PUSH32 0x6464726573730000000000000000000000000000000000000000000000000000 PUSH1 0x64 DUP3 ADD MSTORE PUSH1 0x84 ADD PUSH2 0xA59 JUMP JUMPDEST PUSH2 0xF79 DUP2 PUSH2 0x2660 JUMP JUMPDEST PUSH1 0x0 PUSH2 0x1E65 DUP7 CALLER CALLER DUP9 DUP9 DUP9 DUP9 DUP1 DUP1 PUSH1 0x1F ADD PUSH1 0x20 DUP1 SWAP2 DIV MUL PUSH1 0x20 ADD PUSH1 0x40 MLOAD SWAP1 DUP2 ADD PUSH1 0x40 MSTORE DUP1 SWAP4 SWAP3 SWAP2 SWAP1 DUP2 DUP2 MSTORE PUSH1 0x20 ADD DUP4 DUP4 DUP1 DUP3 DUP5 CALLDATACOPY PUSH1 0x0 SWAP3 ADD DUP3 SWAP1 MSTORE POP PUSH1 0x40 DUP1 MLOAD PUSH1 0x20 DUP2 ADD SWAP1 SWAP2 MSTORE SWAP1 DUP2 MSTORE SWAP3 POP PUSH2 0x26BD SWAP2 POP POP JUMP JUMPDEST SWAP7 SWAP6 POP POP POP POP POP POP JUMP JUMPDEST PUSH1 0x1 PUSH1 0x1 PUSH1 0xA0 SHL SUB DUP2 AND CALLER EQ ISZERO PUSH2 0x1E85 JUMPI PUSH1 0x0 DUP1 REVERT JUMPDEST PUSH1 0x1 PUSH1 0x1 PUSH1 0xA0 SHL SUB DUP2 AND PUSH1 0x0 DUP2 DUP2 MSTORE PUSH1 0x11 PUSH1 0x20 SWAP1 DUP2 MSTORE PUSH1 0x40 DUP1 DUP4 KECCAK256 CALLER DUP1 DUP6 MSTORE SWAP3 MSTORE DUP1 DUP4 KECCAK256 DUP1 SLOAD PUSH1 0xFF NOT AND SWAP1 SSTORE MLOAD SWAP1 SWAP3 SWAP2 PUSH32 0x50546E66E5F44D728365DC3908C63BC5CFEEAB470722C1677E3073A6AC294AA1 SWAP2 LOG3 POP JUMP JUMPDEST PUSH1 0x0 JUMPDEST PUSH1 0x0 DUP4 DUP2 MSTORE PUSH1 0x16 PUSH1 0x20 MSTORE PUSH1 0x40 SWAP1 KECCAK256 SLOAD DUP2 LT ISZERO PUSH2 0x1F67 JUMPI PUSH1 0x0 DUP4 DUP2 MSTORE PUSH1 0x17 PUSH1 0x20 SWAP1 DUP2 MSTORE PUSH1 0x40 DUP1 DUP4 KECCAK256 PUSH1 0x16 SWAP1 SWAP3 MSTORE DUP3 KECCAK256 DUP1 SLOAD DUP4 SWAP2 SWAP1 DUP6 SWAP1 DUP2 LT PUSH2 0x1F21 JUMPI PUSH2 0x1F21 PUSH2 0x3FC0 JUMP JUMPDEST PUSH1 0x0 SWAP2 DUP3 MSTORE PUSH1 0x20 DUP1 DUP4 KECCAK256 SWAP2 SWAP1 SWAP2 ADD SLOAD PUSH1 0x1 PUSH1 0x1 PUSH1 0xA0 SHL SUB AND DUP4 MSTORE DUP3 ADD SWAP3 SWAP1 SWAP3 MSTORE PUSH1 0x40 ADD SWAP1 KECCAK256 DUP1 SLOAD PUSH1 0xFF NOT AND SWAP2 ISZERO ISZERO SWAP2 SWAP1 SWAP2 OR SWAP1 SSTORE DUP1 PUSH2 0x1F5F DUP2 PUSH2 0x3FEC JUMP JUMPDEST SWAP2 POP POP PUSH2 0x1EDE JUMP JUMPDEST POP PUSH1 0x0 JUMPDEST DUP2 MLOAD DUP2 LT ISZERO PUSH2 0x1FDE JUMPI PUSH1 0x0 DUP4 DUP2 MSTORE PUSH1 0x17 PUSH1 0x20 MSTORE PUSH1 0x40 DUP2 KECCAK256 DUP4 MLOAD PUSH1 0x1 SWAP3 SWAP1 DUP6 SWAP1 DUP6 SWAP1 DUP2 LT PUSH2 0x1F9A JUMPI PUSH2 0x1F9A PUSH2 0x3FC0 JUMP JUMPDEST PUSH1 0x20 SWAP1 DUP2 MUL SWAP2 SWAP1 SWAP2 ADD DUP2 ADD MLOAD PUSH1 0x1 PUSH1 0x1 PUSH1 0xA0 SHL SUB AND DUP3 MSTORE DUP2 ADD SWAP2 SWAP1 SWAP2 MSTORE PUSH1 0x40 ADD PUSH1 0x0 KECCAK256 DUP1 SLOAD PUSH1 0xFF NOT AND SWAP2 ISZERO ISZERO SWAP2 SWAP1 SWAP2 OR SWAP1 SSTORE DUP1 PUSH2 0x1FD6 DUP2 PUSH2 0x3FEC JUMP JUMPDEST SWAP2 POP POP PUSH2 0x1F6B JUMP JUMPDEST POP PUSH1 0x0 DUP3 DUP2 MSTORE PUSH1 0x16 PUSH1 0x20 SWAP1 DUP2 MSTORE PUSH1 0x40 SWAP1 SWAP2 KECCAK256 DUP3 MLOAD PUSH2 0xD82 SWAP3 DUP5 ADD SWAP1 PUSH2 0x38AE JUMP JUMPDEST PUSH1 0x0 DUP2 PUSH1 0x1 PUSH1 0x1 PUSH1 0xA0 SHL SUB AND DUP4 PUSH1 0x1 PUSH1 0x1 PUSH1 0xA0 SHL SUB AND EQ DUP1 PUSH2 0x2045 JUMPI POP PUSH1 0x1 PUSH1 0x1 PUSH1 0xA0 SHL SUB DUP1 DUP5 AND PUSH1 0x0 SWAP1 DUP2 MSTORE PUSH1 0x11 PUSH1 0x20 SWAP1 DUP2 MSTORE PUSH1 0x40 DUP1 DUP4 KECCAK256 SWAP4 DUP7 AND DUP4 MSTORE SWAP3 SWAP1 MSTORE KECCAK256 SLOAD PUSH1 0xFF AND JUMPDEST DUP1 PUSH2 0x1839 JUMPI POP PUSH1 0x6 SLOAD PUSH1 0x1 PUSH1 0xA8 SHL SWAP1 DIV PUSH1 0xFF AND DUP1 ISZERO PUSH2 0x1839 JUMPI POP POP POP PUSH1 0x1 PUSH1 0x1 PUSH1 0xA0 SHL SUB AND PUSH1 0x0 SWAP1 DUP2 MSTORE PUSH1 0x13 PUSH1 0x20 MSTORE PUSH1 0x40 SWAP1 KECCAK256 SLOAD PUSH1 0xFF AND SWAP1 JUMP JUMPDEST PUSH1 0x0 PUSH2 0x1839 DUP3 DUP5 PUSH2 0x4007 JUMP JUMPDEST PUSH1 0x10 SLOAD PUSH2 0x20BF JUMPI PUSH1 0x40 MLOAD PUSH3 0x461BCD PUSH1 0xE5 SHL DUP2 MSTORE PUSH1 0x20 PUSH1 0x4 DUP3 ADD MSTORE PUSH1 0x2 PUSH1 0x24 DUP3 ADD MSTORE PUSH2 0x3535 PUSH1 0xF0 SHL PUSH1 0x44 DUP3 ADD MSTORE PUSH1 0x64 ADD PUSH2 0xA59 JUMP JUMPDEST DUP2 PUSH1 0x0 DUP1 JUMPDEST PUSH1 0x10 SLOAD DUP2 LT ISZERO PUSH2 0x21C6 JUMPI PUSH1 0x1 PUSH1 0x1 PUSH1 0xA0 SHL SUB DUP8 AND PUSH1 0x0 SWAP1 DUP2 MSTORE PUSH1 0xF PUSH1 0x20 MSTORE PUSH1 0x40 DUP2 KECCAK256 PUSH1 0x10 DUP1 SLOAD SWAP2 SWAP3 SWAP2 DUP5 SWAP1 DUP2 LT PUSH2 0x20FD JUMPI PUSH2 0x20FD PUSH2 0x3FC0 JUMP JUMPDEST SWAP1 PUSH1 0x0 MSTORE PUSH1 0x20 PUSH1 0x0 KECCAK256 ADD SLOAD DUP2 MSTORE PUSH1 0x20 ADD SWAP1 DUP2 MSTORE PUSH1 0x20 ADD PUSH1 0x0 KECCAK256 SLOAD SWAP2 POP DUP2 DUP4 GT PUSH2 0x2165 JUMPI PUSH2 0x215B PUSH1 0x10 DUP3 DUP2 SLOAD DUP2 LT PUSH2 0x2136 JUMPI PUSH2 0x2136 PUSH2 0x3FC0 JUMP JUMPDEST SWAP1 PUSH1 0x0 MSTORE PUSH1 0x20 PUSH1 0x0 KECCAK256 ADD SLOAD DUP10 DUP10 DUP10 DUP8 DUP10 PUSH1 0x40 MLOAD DUP1 PUSH1 0x20 ADD PUSH1 0x40 MSTORE DUP1 PUSH1 0x0 DUP2 MSTORE POP PUSH2 0x26BD JUMP JUMPDEST POP PUSH1 0x0 SWAP3 POP PUSH2 0x21C6 JUMP JUMPDEST DUP2 ISZERO PUSH2 0x21B4 JUMPI PUSH2 0x21A6 PUSH1 0x10 DUP3 DUP2 SLOAD DUP2 LT PUSH2 0x2181 JUMPI PUSH2 0x2181 PUSH2 0x3FC0 JUMP JUMPDEST SWAP1 PUSH1 0x0 MSTORE PUSH1 0x20 PUSH1 0x0 KECCAK256 ADD SLOAD DUP10 DUP10 DUP10 DUP7 DUP10 PUSH1 0x40 MLOAD DUP1 PUSH1 0x20 ADD PUSH1 0x40 MSTORE DUP1 PUSH1 0x0 DUP2 MSTORE POP PUSH2 0x26BD JUMP JUMPDEST POP PUSH2 0x21B1 DUP3 DUP5 PUSH2 0x4007 JUMP JUMPDEST SWAP3 POP JUMPDEST DUP1 PUSH2 0x21BE DUP2 PUSH2 0x3FEC JUMP JUMPDEST SWAP2 POP POP PUSH2 0x20C4 JUMP JUMPDEST POP DUP2 ISZERO PUSH2 0x21FA JUMPI PUSH1 0x40 MLOAD PUSH3 0x461BCD PUSH1 0xE5 SHL DUP2 MSTORE PUSH1 0x20 PUSH1 0x4 DUP3 ADD MSTORE PUSH1 0x2 PUSH1 0x24 DUP3 ADD MSTORE PUSH2 0x1A99 PUSH1 0xF1 SHL PUSH1 0x44 DUP3 ADD MSTORE PUSH1 0x64 ADD PUSH2 0xA59 JUMP JUMPDEST POP POP POP POP POP POP POP JUMP JUMPDEST PUSH1 0x0 DUP3 DUP2 MSTORE PUSH1 0x1 PUSH1 0x20 SWAP1 DUP2 MSTORE PUSH1 0x40 DUP1 DUP4 KECCAK256 PUSH1 0x1 PUSH1 0x1 PUSH1 0xA0 SHL SUB DUP6 AND DUP5 MSTORE SWAP1 SWAP2 MSTORE SWAP1 KECCAK256 SLOAD PUSH1 0xFF AND PUSH2 0x1004 JUMPI PUSH2 0x2241 DUP2 PUSH1 0x1 PUSH1 0x1 PUSH1 0xA0 SHL SUB AND PUSH1 0x14 PUSH2 0x2BFE JUMP JUMPDEST PUSH2 0x224C DUP4 PUSH1 0x20 PUSH2 0x2BFE JUMP JUMPDEST PUSH1 0x40 MLOAD PUSH1 0x20 ADD PUSH2 0x225D SWAP3 SWAP2 SWAP1 PUSH2 0x401E JUMP JUMPDEST PUSH1 0x40 DUP1 MLOAD PUSH1 0x1F NOT DUP2 DUP5 SUB ADD DUP2 MSTORE SWAP1 DUP3 SWAP1 MSTORE PUSH3 0x461BCD PUSH1 0xE5 SHL DUP3 MSTORE PUSH2 0xA59 SWAP2 PUSH1 0x4 ADD PUSH2 0x3A43 JUMP JUMPDEST PUSH1 0x0 DUP3 DUP2 MSTORE PUSH1 0x1 PUSH1 0x20 SWAP1 DUP2 MSTORE PUSH1 0x40 DUP1 DUP4 KECCAK256 PUSH1 0x1 PUSH1 0x1 PUSH1 0xA0 SHL SUB DUP6 AND DUP5 MSTORE SWAP1 SWAP2 MSTORE SWAP1 KECCAK256 SLOAD PUSH1 0xFF AND PUSH2 0x1004 JUMPI PUSH1 0x0 DUP3 DUP2 MSTORE PUSH1 0x1 PUSH1 0x20 DUP2 DUP2 MSTORE PUSH1 0x40 DUP1 DUP5 KECCAK256 PUSH1 0x1 PUSH1 0x1 PUSH1 0xA0 SHL SUB DUP7 AND DUP1 DUP7 MSTORE SWAP3 MSTORE DUP1 DUP5 KECCAK256 DUP1 SLOAD PUSH1 0xFF NOT AND SWAP1 SWAP4 OR SWAP1 SWAP3 SSTORE SWAP1 MLOAD CALLER SWAP3 DUP6 SWAP2 PUSH32 0x2F8788117E7EFF1D82E926EC794901D17C78024A50270940304540A733656F0D SWAP2 SWAP1 LOG4 POP POP JUMP JUMPDEST PUSH2 0x2334 PUSH32 0x6E58AD548D72B425EA94C15F453BF26CADDB061D82B2551DB7FDD3CEFE0E9940 DUP3 PUSH2 0x1A7B JUMP JUMPDEST PUSH1 0x40 MLOAD PUSH1 0x1 PUSH1 0x1 PUSH1 0xA0 SHL SUB DUP3 AND SWAP1 PUSH32 0xE94479A9F7E1952CC78F2D6BAAB678ADC1B772D936C6583DEF489E524CB66692 SWAP1 PUSH1 0x0 SWAP1 LOG2 POP JUMP JUMPDEST PUSH1 0x0 DUP3 DUP2 MSTORE PUSH1 0x1 PUSH1 0x20 SWAP1 DUP2 MSTORE PUSH1 0x40 DUP1 DUP4 KECCAK256 PUSH1 0x1 PUSH1 0x1 PUSH1 0xA0 SHL SUB DUP6 AND DUP5 MSTORE SWAP1 SWAP2 MSTORE SWAP1 KECCAK256 SLOAD PUSH1 0xFF AND ISZERO PUSH2 0x1004 JUMPI PUSH1 0x0 DUP3 DUP2 MSTORE PUSH1 0x1 PUSH1 0x20 SWAP1 DUP2 MSTORE PUSH1 0x40 DUP1 DUP4 KECCAK256 PUSH1 0x1 PUSH1 0x1 PUSH1 0xA0 SHL SUB DUP6 AND DUP1 DUP6 MSTORE SWAP3 MSTORE DUP1 DUP4 KECCAK256 DUP1 SLOAD PUSH1 0xFF NOT AND SWAP1 SSTORE MLOAD CALLER SWAP3 DUP6 SWAP2 PUSH32 0xF6391F5C32D9C69D2A47EA670B442974B53935D1EDC7FD64EB21E047A839171B SWAP2 SWAP1 LOG4 POP POP JUMP JUMPDEST PUSH2 0x23F7 DUP6 PUSH2 0x2A90 JUMP JUMPDEST DUP1 ISZERO PUSH2 0x2407 JUMPI POP PUSH2 0x2407 DUP5 PUSH2 0x2A90 JUMP JUMPDEST PUSH2 0x2449 JUMPI PUSH1 0x40 MLOAD PUSH3 0x461BCD PUSH1 0xE5 SHL DUP2 MSTORE PUSH1 0x20 PUSH1 0x4 DUP3 ADD MSTORE PUSH1 0x13 PUSH1 0x24 DUP3 ADD MSTORE PUSH19 0x2AB730BABA3437B934BD32B2102830B93A3C97 PUSH1 0x69 SHL PUSH1 0x44 DUP3 ADD MSTORE PUSH1 0x64 ADD PUSH2 0xA59 JUMP JUMPDEST PUSH1 0x1 PUSH1 0x1 PUSH1 0xA0 SHL SUB DUP5 AND PUSH1 0x0 SWAP1 DUP2 MSTORE PUSH1 0xF PUSH1 0x20 SWAP1 DUP2 MSTORE PUSH1 0x40 DUP1 DUP4 KECCAK256 DUP10 DUP5 MSTORE SWAP1 SWAP2 MSTORE SWAP1 KECCAK256 SLOAD DUP4 GT ISZERO PUSH2 0x24A1 JUMPI PUSH1 0x40 MLOAD PUSH3 0x461BCD PUSH1 0xE5 SHL DUP2 MSTORE PUSH1 0x20 PUSH1 0x4 DUP3 ADD MSTORE PUSH1 0x2 PUSH1 0x24 DUP3 ADD MSTORE PUSH2 0x1A99 PUSH1 0xF1 SHL PUSH1 0x44 DUP3 ADD MSTORE PUSH1 0x64 ADD PUSH2 0xA59 JUMP JUMPDEST PUSH2 0x24AC DUP5 DUP8 DUP6 PUSH2 0x2DA7 JUMP JUMPDEST PUSH2 0x24B8 DUP6 DUP6 DUP6 DUP6 PUSH2 0x3083 JUMP JUMPDEST DUP4 PUSH1 0x1 PUSH1 0x1 PUSH1 0xA0 SHL SUB AND DUP6 PUSH1 0x1 PUSH1 0x1 PUSH1 0xA0 SHL SUB AND DUP8 PUSH32 0xCE306C3DBC4A497124B5A4F2BE8388B41084C1D74663DA27ECEE1186C00239BF DUP7 DUP6 PUSH1 0x40 MLOAD PUSH2 0x24FE SWAP3 SWAP2 SWAP1 PUSH2 0x409F JUMP JUMPDEST PUSH1 0x40 MLOAD DUP1 SWAP2 SUB SWAP1 LOG4 POP POP POP POP POP POP JUMP JUMPDEST PUSH2 0x2517 DUP5 PUSH2 0x2A90 JUMP JUMPDEST DUP1 ISZERO PUSH2 0x2527 JUMPI POP PUSH2 0x2527 DUP4 PUSH2 0x2A90 JUMP JUMPDEST PUSH2 0x2569 JUMPI PUSH1 0x40 MLOAD PUSH3 0x461BCD PUSH1 0xE5 SHL DUP2 MSTORE PUSH1 0x20 PUSH1 0x4 DUP3 ADD MSTORE PUSH1 0x13 PUSH1 0x24 DUP3 ADD MSTORE PUSH19 0x2AB730BABA3437B934BD32B2102830B93A3C97 PUSH1 0x69 SHL PUSH1 0x44 DUP3 ADD MSTORE PUSH1 0x64 ADD PUSH2 0xA59 JUMP JUMPDEST PUSH2 0x2575 DUP5 DUP5 DUP5 DUP5 PUSH2 0x32BC JUMP JUMPDEST PUSH2 0x2580 DUP4 DUP7 DUP5 PUSH2 0x3491 JUMP JUMPDEST DUP3 PUSH1 0x1 PUSH1 0x1 PUSH1 0xA0 SHL SUB AND DUP5 PUSH1 0x1 PUSH1 0x1 PUSH1 0xA0 SHL SUB AND DUP7 PUSH32 0xF0DED82AFBB1BB3FF3FC48CB2A26584AA84E4AF0BF309C804ECDB94D0F6A98BB DUP6 DUP6 PUSH1 0x40 MLOAD PUSH2 0x25C6 SWAP3 SWAP2 SWAP1 PUSH2 0x40B8 JUMP JUMPDEST PUSH1 0x40 MLOAD DUP1 SWAP2 SUB SWAP1 LOG4 POP POP POP POP POP JUMP JUMPDEST PUSH1 0x0 PUSH2 0x25E1 DUP4 DUP4 PUSH2 0x1FFE JUMP JUMPDEST DUP1 PUSH2 0x2619 JUMPI POP PUSH1 0x1 PUSH1 0x1 PUSH1 0xA0 SHL SUB DUP1 DUP4 AND PUSH1 0x0 SWAP1 DUP2 MSTORE PUSH1 0x15 PUSH1 0x20 SWAP1 DUP2 MSTORE PUSH1 0x40 DUP1 DUP4 KECCAK256 DUP9 DUP5 MSTORE DUP3 MSTORE DUP1 DUP4 KECCAK256 SWAP4 DUP8 AND DUP4 MSTORE SWAP3 SWAP1 MSTORE KECCAK256 SLOAD PUSH1 0xFF AND JUMPDEST DUP1 PUSH2 0x11B4 JUMPI POP PUSH1 0x6 SLOAD PUSH1 0x1 PUSH1 0xA8 SHL SWAP1 DIV PUSH1 0xFF AND DUP1 ISZERO PUSH2 0x11B4 JUMPI POP POP POP PUSH1 0x0 SWAP2 DUP3 MSTORE PUSH1 0x17 PUSH1 0x20 SWAP1 DUP2 MSTORE PUSH1 0x40 DUP1 DUP5 KECCAK256 PUSH1 0x1 PUSH1 0x1 PUSH1 0xA0 SHL SUB SWAP4 SWAP1 SWAP4 AND DUP5 MSTORE SWAP2 SWAP1 MSTORE SWAP1 KECCAK256 SLOAD PUSH1 0xFF AND SWAP1 JUMP JUMPDEST PUSH1 0x0 DUP1 SLOAD PUSH1 0x1 PUSH1 0x1 PUSH1 0xA0 SHL SUB DUP4 DUP2 AND PUSH20 0xFFFFFFFFFFFFFFFFFFFFFFFFFFFFFFFFFFFFFFFF NOT DUP4 AND DUP2 OR DUP5 SSTORE PUSH1 0x40 MLOAD SWAP2 SWAP1 SWAP3 AND SWAP3 DUP4 SWAP2 PUSH32 0x8BE0079C531659141344CD1FD0A4F28419497F9722A3DAAFE3B4186F6B6457E0 SWAP2 SWAP1 LOG3 POP POP JUMP JUMPDEST PUSH1 0x1 PUSH1 0x1 PUSH1 0xA0 SHL SUB DUP6 AND PUSH1 0x0 SWAP1 DUP2 MSTORE PUSH1 0xF PUSH1 0x20 SWAP1 DUP2 MSTORE PUSH1 0x40 DUP1 DUP4 KECCAK256 DUP11 DUP5 MSTORE SWAP1 SWAP2 MSTORE DUP2 KECCAK256 SLOAD DUP5 GT ISZERO PUSH2 0x2715 JUMPI PUSH1 0x40 MLOAD PUSH3 0x461BCD PUSH1 0xE5 SHL DUP2 MSTORE PUSH1 0x20 PUSH1 0x4 DUP3 ADD MSTORE PUSH1 0x2 PUSH1 0x24 DUP3 ADD MSTORE PUSH2 0x1A99 PUSH1 0xF1 SHL PUSH1 0x44 DUP3 ADD MSTORE PUSH1 0x64 ADD PUSH2 0xA59 JUMP JUMPDEST PUSH2 0x271E DUP8 PUSH2 0x2A90 JUMP JUMPDEST DUP1 ISZERO PUSH2 0x272E JUMPI POP PUSH2 0x272E DUP7 PUSH2 0x2A90 JUMP JUMPDEST DUP1 ISZERO PUSH2 0x273E JUMPI POP PUSH2 0x273E DUP6 PUSH2 0x2A90 JUMP JUMPDEST PUSH2 0x2780 JUMPI PUSH1 0x40 MLOAD PUSH3 0x461BCD PUSH1 0xE5 SHL DUP2 MSTORE PUSH1 0x20 PUSH1 0x4 DUP3 ADD MSTORE PUSH1 0x13 PUSH1 0x24 DUP3 ADD MSTORE PUSH19 0x2AB730BABA3437B934BD32B2102830B93A3C97 PUSH1 0x69 SHL PUSH1 0x44 DUP3 ADD MSTORE PUSH1 0x64 ADD PUSH2 0xA59 JUMP JUMPDEST DUP2 MLOAD DUP9 SWAP1 ISZERO DUP1 ISZERO SWAP1 PUSH2 0x2794 JUMPI POP PUSH1 0x40 DUP5 MLOAD LT ISZERO JUMPDEST ISZERO PUSH2 0x27A6 JUMPI PUSH2 0x27A3 DUP10 DUP6 PUSH2 0x35CF JUMP JUMPDEST SWAP1 POP JUMPDEST PUSH2 0x27B1 DUP8 DUP11 DUP8 PUSH2 0x2DA7 JUMP JUMPDEST PUSH2 0x27BC DUP8 DUP8 DUP8 PUSH2 0x35FB JUMP JUMPDEST PUSH2 0x27C7 DUP7 DUP3 DUP8 PUSH2 0x3491 JUMP JUMPDEST DUP6 PUSH1 0x1 PUSH1 0x1 PUSH1 0xA0 SHL SUB AND DUP8 PUSH1 0x1 PUSH1 0x1 PUSH1 0xA0 SHL SUB AND DUP11 PUSH32 0xFF4E9A26AF4EB73B8BACFAA4ABD4FEA03D9448E7B912DC5FF4019048875AA2D4 DUP12 DUP10 DUP10 DUP10 PUSH1 0x40 MLOAD PUSH2 0x2811 SWAP5 SWAP4 SWAP3 SWAP2 SWAP1 PUSH2 0x40EB JUMP JUMPDEST PUSH1 0x40 MLOAD DUP1 SWAP2 SUB SWAP1 LOG4 DUP9 DUP2 EQ PUSH2 0x285C JUMPI DUP1 DUP10 PUSH32 0x67C8BA31D2DD11F1384577B3405B04ED91EED1231E408432AD2458CAB37B2FA1 DUP8 PUSH1 0x40 MLOAD PUSH2 0x2853 SWAP2 DUP2 MSTORE PUSH1 0x20 ADD SWAP1 JUMP JUMPDEST PUSH1 0x40 MLOAD DUP1 SWAP2 SUB SWAP1 LOG3 JUMPDEST SWAP9 SWAP8 POP POP POP POP POP POP POP POP JUMP JUMPDEST PUSH2 0x2871 DUP5 PUSH2 0x2A90 JUMP JUMPDEST DUP1 ISZERO PUSH2 0x2881 JUMPI POP PUSH2 0x2881 DUP4 PUSH2 0x2A90 JUMP JUMPDEST PUSH2 0x28C3 JUMPI PUSH1 0x40 MLOAD PUSH3 0x461BCD PUSH1 0xE5 SHL DUP2 MSTORE PUSH1 0x20 PUSH1 0x4 DUP3 ADD MSTORE PUSH1 0x13 PUSH1 0x24 DUP3 ADD MSTORE PUSH19 0x2AB730BABA3437B934BD32B2102830B93A3C97 PUSH1 0x69 SHL PUSH1 0x44 DUP3 ADD MSTORE PUSH1 0x64 ADD PUSH2 0xA59 JUMP JUMPDEST PUSH1 0x10 SLOAD PUSH2 0x28F7 JUMPI PUSH1 0x40 MLOAD PUSH3 0x461BCD PUSH1 0xE5 SHL DUP2 MSTORE PUSH1 0x20 PUSH1 0x4 DUP3 ADD MSTORE PUSH1 0x2 PUSH1 0x24 DUP3 ADD MSTORE PUSH2 0x3535 PUSH1 0xF0 SHL PUSH1 0x44 DUP3 ADD MSTORE PUSH1 0x64 ADD PUSH2 0xA59 JUMP JUMPDEST DUP2 PUSH1 0x0 DUP1 JUMPDEST PUSH1 0x10 SLOAD DUP2 LT ISZERO PUSH2 0x29F3 JUMPI PUSH1 0x1 PUSH1 0x1 PUSH1 0xA0 SHL SUB DUP7 AND PUSH1 0x0 SWAP1 DUP2 MSTORE PUSH1 0xF PUSH1 0x20 MSTORE PUSH1 0x40 DUP2 KECCAK256 PUSH1 0x10 DUP1 SLOAD SWAP2 SWAP3 SWAP2 DUP5 SWAP1 DUP2 LT PUSH2 0x2935 JUMPI PUSH2 0x2935 PUSH2 0x3FC0 JUMP JUMPDEST SWAP1 PUSH1 0x0 MSTORE PUSH1 0x20 PUSH1 0x0 KECCAK256 ADD SLOAD DUP2 MSTORE PUSH1 0x20 ADD SWAP1 DUP2 MSTORE PUSH1 0x20 ADD PUSH1 0x0 KECCAK256 SLOAD SWAP2 POP DUP2 DUP4 GT PUSH2 0x299B JUMPI PUSH2 0x2992 PUSH1 0x10 DUP3 DUP2 SLOAD DUP2 LT PUSH2 0x296E JUMPI PUSH2 0x296E PUSH2 0x3FC0 JUMP JUMPDEST SWAP1 PUSH1 0x0 MSTORE PUSH1 0x20 PUSH1 0x0 KECCAK256 ADD SLOAD DUP9 DUP9 DUP7 DUP9 PUSH1 0x40 MLOAD DUP1 PUSH1 0x20 ADD PUSH1 0x40 MSTORE DUP1 PUSH1 0x0 DUP2 MSTORE POP PUSH2 0x23EE JUMP JUMPDEST PUSH1 0x0 SWAP3 POP PUSH2 0x29F3 JUMP JUMPDEST PUSH2 0x29D5 PUSH1 0x10 DUP3 DUP2 SLOAD DUP2 LT PUSH2 0x29B1 JUMPI PUSH2 0x29B1 PUSH2 0x3FC0 JUMP JUMPDEST SWAP1 PUSH1 0x0 MSTORE PUSH1 0x20 PUSH1 0x0 KECCAK256 ADD SLOAD DUP9 DUP9 DUP6 DUP9 PUSH1 0x40 MLOAD DUP1 PUSH1 0x20 ADD PUSH1 0x40 MSTORE DUP1 PUSH1 0x0 DUP2 MSTORE POP PUSH2 0x23EE JUMP JUMPDEST PUSH2 0x29DF DUP3 DUP5 PUSH2 0x4007 JUMP JUMPDEST SWAP3 POP DUP1 PUSH2 0x29EB DUP2 PUSH2 0x3FEC JUMP JUMPDEST SWAP2 POP POP PUSH2 0x28FC JUMP JUMPDEST POP DUP2 ISZERO PUSH2 0x2A27 JUMPI PUSH1 0x40 MLOAD PUSH3 0x461BCD PUSH1 0xE5 SHL DUP2 MSTORE PUSH1 0x20 PUSH1 0x4 DUP3 ADD MSTORE PUSH1 0x2 PUSH1 0x24 DUP3 ADD MSTORE PUSH2 0x1A99 PUSH1 0xF1 SHL PUSH1 0x44 DUP3 ADD MSTORE PUSH1 0x64 ADD PUSH2 0xA59 JUMP JUMPDEST POP POP POP POP POP POP JUMP JUMPDEST PUSH2 0x2A59 PUSH32 0x6E58AD548D72B425EA94C15F453BF26CADDB061D82B2551DB7FDD3CEFE0E9940 DUP3 PUSH2 0x2283 JUMP JUMPDEST PUSH1 0x40 MLOAD PUSH1 0x1 PUSH1 0x1 PUSH1 0xA0 SHL SUB DUP3 AND SWAP1 PUSH32 0x6AE172837EA30B801FBFCDD4108AA1D5BF8FF775444FD70256B44E6BF3DFC3F6 SWAP1 PUSH1 0x0 SWAP1 LOG2 POP JUMP JUMPDEST PUSH1 0x6 SLOAD PUSH1 0x40 MLOAD PUSH4 0x1FD3F77 PUSH1 0xE7 SHL DUP2 MSTORE PUSH1 0x1 PUSH1 0x1 PUSH1 0xA0 SHL SUB DUP4 DUP2 AND PUSH1 0x4 DUP4 ADD MSTORE PUSH1 0x0 SWAP3 PUSH2 0x100 SWAP1 DIV AND SWAP1 DUP2 SWAP1 PUSH4 0xFE9FBB80 SWAP1 PUSH1 0x24 ADD PUSH1 0x20 PUSH1 0x40 MLOAD DUP1 DUP4 SUB DUP2 DUP7 DUP1 EXTCODESIZE ISZERO DUP1 ISZERO PUSH2 0x2ADD JUMPI PUSH1 0x0 DUP1 REVERT JUMPDEST POP GAS STATICCALL ISZERO DUP1 ISZERO PUSH2 0x2AF1 JUMPI RETURNDATASIZE PUSH1 0x0 DUP1 RETURNDATACOPY RETURNDATASIZE PUSH1 0x0 REVERT JUMPDEST POP POP POP POP PUSH1 0x40 MLOAD RETURNDATASIZE PUSH1 0x1F NOT PUSH1 0x1F DUP3 ADD AND DUP3 ADD DUP1 PUSH1 0x40 MSTORE POP DUP2 ADD SWAP1 PUSH2 0x1839 SWAP2 SWAP1 PUSH2 0x4130 JUMP JUMPDEST PUSH1 0x0 JUMPDEST PUSH1 0x12 SLOAD DUP2 LT ISZERO PUSH2 0x2B81 JUMPI PUSH1 0x0 PUSH1 0x13 PUSH1 0x0 PUSH1 0x12 DUP5 DUP2 SLOAD DUP2 LT PUSH2 0x2B3B JUMPI PUSH2 0x2B3B PUSH2 0x3FC0 JUMP JUMPDEST PUSH1 0x0 SWAP2 DUP3 MSTORE PUSH1 0x20 DUP1 DUP4 KECCAK256 SWAP2 SWAP1 SWAP2 ADD SLOAD PUSH1 0x1 PUSH1 0x1 PUSH1 0xA0 SHL SUB AND DUP4 MSTORE DUP3 ADD SWAP3 SWAP1 SWAP3 MSTORE PUSH1 0x40 ADD SWAP1 KECCAK256 DUP1 SLOAD PUSH1 0xFF NOT AND SWAP2 ISZERO ISZERO SWAP2 SWAP1 SWAP2 OR SWAP1 SSTORE DUP1 PUSH2 0x2B79 DUP2 PUSH2 0x3FEC JUMP JUMPDEST SWAP2 POP POP PUSH2 0x2B18 JUMP JUMPDEST POP PUSH1 0x0 JUMPDEST DUP2 MLOAD DUP2 LT ISZERO PUSH2 0x2BEA JUMPI PUSH1 0x1 PUSH1 0x13 PUSH1 0x0 DUP5 DUP5 DUP2 MLOAD DUP2 LT PUSH2 0x2BA6 JUMPI PUSH2 0x2BA6 PUSH2 0x3FC0 JUMP JUMPDEST PUSH1 0x20 SWAP1 DUP2 MUL SWAP2 SWAP1 SWAP2 ADD DUP2 ADD MLOAD PUSH1 0x1 PUSH1 0x1 PUSH1 0xA0 SHL SUB AND DUP3 MSTORE DUP2 ADD SWAP2 SWAP1 SWAP2 MSTORE PUSH1 0x40 ADD PUSH1 0x0 KECCAK256 DUP1 SLOAD PUSH1 0xFF NOT AND SWAP2 ISZERO ISZERO SWAP2 SWAP1 SWAP2 OR SWAP1 SSTORE DUP1 PUSH2 0x2BE2 DUP2 PUSH2 0x3FEC JUMP JUMPDEST SWAP2 POP POP PUSH2 0x2B85 JUMP JUMPDEST POP DUP1 MLOAD PUSH2 0x1004 SWAP1 PUSH1 0x12 SWAP1 PUSH1 0x20 DUP5 ADD SWAP1 PUSH2 0x38AE JUMP JUMPDEST PUSH1 0x60 PUSH1 0x0 PUSH2 0x2C0D DUP4 PUSH1 0x2 PUSH2 0x4152 JUMP JUMPDEST PUSH2 0x2C18 SWAP1 PUSH1 0x2 PUSH2 0x4171 JUMP JUMPDEST PUSH8 0xFFFFFFFFFFFFFFFF DUP2 GT ISZERO PUSH2 0x2C30 JUMPI PUSH2 0x2C30 PUSH2 0x4189 JUMP JUMPDEST PUSH1 0x40 MLOAD SWAP1 DUP1 DUP3 MSTORE DUP1 PUSH1 0x1F ADD PUSH1 0x1F NOT AND PUSH1 0x20 ADD DUP3 ADD PUSH1 0x40 MSTORE DUP1 ISZERO PUSH2 0x2C5A JUMPI PUSH1 0x20 DUP3 ADD DUP2 DUP1 CALLDATASIZE DUP4 CALLDATACOPY ADD SWAP1 POP JUMPDEST POP SWAP1 POP PUSH1 0x3 PUSH1 0xFC SHL DUP2 PUSH1 0x0 DUP2 MLOAD DUP2 LT PUSH2 0x2C75 JUMPI PUSH2 0x2C75 PUSH2 0x3FC0 JUMP JUMPDEST PUSH1 0x20 ADD ADD SWAP1 PUSH1 0x1 PUSH1 0x1 PUSH1 0xF8 SHL SUB NOT AND SWAP1 DUP2 PUSH1 0x0 BYTE SWAP1 MSTORE8 POP PUSH1 0xF PUSH1 0xFB SHL DUP2 PUSH1 0x1 DUP2 MLOAD DUP2 LT PUSH2 0x2CA4 JUMPI PUSH2 0x2CA4 PUSH2 0x3FC0 JUMP JUMPDEST PUSH1 0x20 ADD ADD SWAP1 PUSH1 0x1 PUSH1 0x1 PUSH1 0xF8 SHL SUB NOT AND SWAP1 DUP2 PUSH1 0x0 BYTE SWAP1 MSTORE8 POP PUSH1 0x0 PUSH2 0x2CC8 DUP5 PUSH1 0x2 PUSH2 0x4152 JUMP JUMPDEST PUSH2 0x2CD3 SWAP1 PUSH1 0x1 PUSH2 0x4171 JUMP JUMPDEST SWAP1 POP JUMPDEST PUSH1 0x1 DUP2 GT ISZERO PUSH2 0x2D58 JUMPI PUSH32 0x3031323334353637383961626364656600000000000000000000000000000000 DUP6 PUSH1 0xF AND PUSH1 0x10 DUP2 LT PUSH2 0x2D14 JUMPI PUSH2 0x2D14 PUSH2 0x3FC0 JUMP JUMPDEST BYTE PUSH1 0xF8 SHL DUP3 DUP3 DUP2 MLOAD DUP2 LT PUSH2 0x2D2A JUMPI PUSH2 0x2D2A PUSH2 0x3FC0 JUMP JUMPDEST PUSH1 0x20 ADD ADD SWAP1 PUSH1 0x1 PUSH1 0x1 PUSH1 0xF8 SHL SUB NOT AND SWAP1 DUP2 PUSH1 0x0 BYTE SWAP1 MSTORE8 POP PUSH1 0x4 SWAP5 SWAP1 SWAP5 SHR SWAP4 PUSH2 0x2D51 DUP2 PUSH2 0x419F JUMP JUMPDEST SWAP1 POP PUSH2 0x2CD6 JUMP JUMPDEST POP DUP4 ISZERO PUSH2 0x1839 JUMPI PUSH1 0x40 MLOAD PUSH3 0x461BCD PUSH1 0xE5 SHL DUP2 MSTORE PUSH1 0x20 PUSH1 0x4 DUP3 ADD DUP2 SWAP1 MSTORE PUSH1 0x24 DUP3 ADD MSTORE PUSH32 0x537472696E67733A20686578206C656E67746820696E73756666696369656E74 PUSH1 0x44 DUP3 ADD MSTORE PUSH1 0x64 ADD PUSH2 0xA59 JUMP JUMPDEST PUSH1 0x1 PUSH1 0x1 PUSH1 0xA0 SHL SUB DUP4 AND PUSH1 0x0 SWAP1 DUP2 MSTORE PUSH1 0xF PUSH1 0x20 SWAP1 DUP2 MSTORE PUSH1 0x40 DUP1 DUP4 KECCAK256 DUP6 DUP5 MSTORE SWAP1 SWAP2 MSTORE SWAP1 KECCAK256 SLOAD PUSH2 0x2DD5 SWAP1 DUP3 PUSH2 0x207F JUMP JUMPDEST PUSH1 0x1 PUSH1 0x1 PUSH1 0xA0 SHL SUB DUP5 AND PUSH1 0x0 SWAP1 DUP2 MSTORE PUSH1 0xF PUSH1 0x20 SWAP1 DUP2 MSTORE PUSH1 0x40 DUP1 DUP4 KECCAK256 DUP7 DUP5 MSTORE DUP3 MSTORE DUP1 DUP4 KECCAK256 SWAP4 SWAP1 SWAP4 SSTORE PUSH1 0xC SWAP1 MSTORE KECCAK256 SLOAD PUSH2 0x2E0C SWAP1 DUP3 PUSH2 0x207F JUMP JUMPDEST PUSH1 0x0 DUP4 DUP2 MSTORE PUSH1 0xC PUSH1 0x20 MSTORE PUSH1 0x40 SWAP1 KECCAK256 DUP2 SWAP1 SSTORE PUSH2 0x2F08 JUMPI PUSH1 0x0 DUP3 DUP2 MSTORE PUSH1 0xB PUSH1 0x20 MSTORE PUSH1 0x40 SWAP1 KECCAK256 SLOAD DUP1 PUSH2 0x2E62 JUMPI PUSH1 0x40 MLOAD PUSH3 0x461BCD PUSH1 0xE5 SHL DUP2 MSTORE PUSH1 0x20 PUSH1 0x4 DUP3 ADD MSTORE PUSH1 0x2 PUSH1 0x24 DUP3 ADD MSTORE PUSH2 0x353 PUSH1 0xF4 SHL PUSH1 0x44 DUP3 ADD MSTORE PUSH1 0x64 ADD PUSH2 0xA59 JUMP JUMPDEST PUSH1 0xA DUP1 SLOAD PUSH1 0x0 SWAP2 SWAP1 PUSH2 0x2E76 SWAP1 PUSH1 0x1 SWAP1 PUSH2 0x4007 JUMP JUMPDEST DUP2 SLOAD DUP2 LT PUSH2 0x2E86 JUMPI PUSH2 0x2E86 PUSH2 0x3FC0 JUMP JUMPDEST SWAP1 PUSH1 0x0 MSTORE PUSH1 0x20 PUSH1 0x0 KECCAK256 ADD SLOAD SWAP1 POP DUP1 PUSH1 0xA PUSH1 0x1 DUP5 PUSH2 0x2EA3 SWAP2 SWAP1 PUSH2 0x4007 JUMP JUMPDEST DUP2 SLOAD DUP2 LT PUSH2 0x2EB3 JUMPI PUSH2 0x2EB3 PUSH2 0x3FC0 JUMP JUMPDEST PUSH1 0x0 SWAP2 DUP3 MSTORE PUSH1 0x20 SWAP1 SWAP2 KECCAK256 ADD SSTORE PUSH1 0xA DUP1 SLOAD PUSH2 0x2ECF SWAP1 PUSH1 0x1 SWAP1 PUSH2 0x4007 JUMP JUMPDEST DUP2 SLOAD DUP2 LT PUSH2 0x2EDF JUMPI PUSH2 0x2EDF PUSH2 0x3FC0 JUMP JUMPDEST PUSH1 0x0 SWAP2 DUP3 MSTORE PUSH1 0x20 DUP1 DUP4 KECCAK256 SWAP1 SWAP2 ADD DUP3 SWAP1 SSTORE SWAP2 DUP2 MSTORE PUSH1 0xB SWAP1 SWAP2 MSTORE PUSH1 0x40 DUP1 DUP3 KECCAK256 SWAP3 SWAP1 SWAP3 SSTORE DUP4 DUP2 MSTORE SWAP1 DUP2 KECCAK256 SSTORE JUMPDEST PUSH1 0x1 PUSH1 0x1 PUSH1 0xA0 SHL SUB DUP4 AND PUSH1 0x0 SWAP1 DUP2 MSTORE PUSH1 0xF PUSH1 0x20 SWAP1 DUP2 MSTORE PUSH1 0x40 DUP1 DUP4 KECCAK256 DUP6 DUP5 MSTORE SWAP1 SWAP2 MSTORE SWAP1 KECCAK256 SLOAD PUSH2 0xD82 JUMPI PUSH1 0x1 PUSH1 0x1 PUSH1 0xA0 SHL SUB DUP4 AND PUSH1 0x0 SWAP1 DUP2 MSTORE PUSH1 0xE PUSH1 0x20 SWAP1 DUP2 MSTORE PUSH1 0x40 DUP1 DUP4 KECCAK256 DUP6 DUP5 MSTORE SWAP1 SWAP2 MSTORE SWAP1 KECCAK256 SLOAD DUP1 PUSH2 0x2F86 JUMPI PUSH1 0x40 MLOAD PUSH3 0x461BCD PUSH1 0xE5 SHL DUP2 MSTORE PUSH1 0x20 PUSH1 0x4 DUP3 ADD MSTORE PUSH1 0x2 PUSH1 0x24 DUP3 ADD MSTORE PUSH2 0x353 PUSH1 0xF4 SHL PUSH1 0x44 DUP3 ADD MSTORE PUSH1 0x64 ADD PUSH2 0xA59 JUMP JUMPDEST PUSH1 0x1 PUSH1 0x1 PUSH1 0xA0 SHL SUB DUP5 AND PUSH1 0x0 SWAP1 DUP2 MSTORE PUSH1 0xD PUSH1 0x20 MSTORE PUSH1 0x40 DUP2 KECCAK256 DUP1 SLOAD PUSH2 0x2FAC SWAP1 PUSH1 0x1 SWAP1 PUSH2 0x4007 JUMP JUMPDEST DUP2 SLOAD DUP2 LT PUSH2 0x2FBC JUMPI PUSH2 0x2FBC PUSH2 0x3FC0 JUMP JUMPDEST PUSH1 0x0 SWAP2 DUP3 MSTORE PUSH1 0x20 DUP1 DUP4 KECCAK256 SWAP1 SWAP2 ADD SLOAD PUSH1 0x1 PUSH1 0x1 PUSH1 0xA0 SHL SUB DUP9 AND DUP4 MSTORE PUSH1 0xD SWAP1 SWAP2 MSTORE PUSH1 0x40 SWAP1 SWAP2 KECCAK256 SWAP1 SWAP2 POP DUP2 SWAP1 PUSH2 0x2FF0 PUSH1 0x1 DUP6 PUSH2 0x4007 JUMP JUMPDEST DUP2 SLOAD DUP2 LT PUSH2 0x3000 JUMPI PUSH2 0x3000 PUSH2 0x3FC0 JUMP JUMPDEST PUSH1 0x0 SWAP2 DUP3 MSTORE PUSH1 0x20 DUP1 DUP4 KECCAK256 SWAP1 SWAP2 ADD SWAP3 SWAP1 SWAP3 SSTORE PUSH1 0x1 PUSH1 0x1 PUSH1 0xA0 SHL SUB DUP8 AND DUP2 MSTORE PUSH1 0xD SWAP1 SWAP2 MSTORE PUSH1 0x40 SWAP1 KECCAK256 DUP1 SLOAD PUSH2 0x3034 SWAP1 PUSH1 0x1 SWAP1 PUSH2 0x4007 JUMP JUMPDEST DUP2 SLOAD DUP2 LT PUSH2 0x3044 JUMPI PUSH2 0x3044 PUSH2 0x3FC0 JUMP JUMPDEST PUSH1 0x0 SWAP2 DUP3 MSTORE PUSH1 0x20 DUP1 DUP4 KECCAK256 SWAP2 SWAP1 SWAP2 ADD DUP3 SWAP1 SSTORE PUSH1 0x1 PUSH1 0x1 PUSH1 0xA0 SHL SUB SWAP7 SWAP1 SWAP7 AND DUP2 MSTORE PUSH1 0xE DUP7 MSTORE PUSH1 0x40 DUP1 DUP3 KECCAK256 SWAP3 DUP3 MSTORE SWAP2 SWAP1 SWAP6 MSTORE DUP1 DUP6 KECCAK256 SWAP2 SWAP1 SWAP2 SSTORE SWAP2 DUP4 MSTORE POP DUP2 KECCAK256 SSTORE JUMP JUMPDEST PUSH1 0x6 SLOAD PUSH1 0xFF AND ISZERO PUSH2 0x30BB JUMPI PUSH1 0x40 MLOAD PUSH3 0x461BCD PUSH1 0xE5 SHL DUP2 MSTORE PUSH1 0x20 PUSH1 0x4 DUP3 ADD MSTORE PUSH1 0x2 PUSH1 0x24 DUP3 ADD MSTORE PUSH2 0xD4D PUSH1 0xF2 SHL PUSH1 0x44 DUP3 ADD MSTORE PUSH1 0x64 ADD PUSH2 0xA59 JUMP JUMPDEST PUSH2 0x30C4 DUP5 PUSH2 0x2A90 JUMP JUMPDEST DUP1 ISZERO PUSH2 0x30D4 JUMPI POP PUSH2 0x30D4 DUP4 PUSH2 0x2A90 JUMP JUMPDEST PUSH2 0x3116 JUMPI PUSH1 0x40 MLOAD PUSH3 0x461BCD PUSH1 0xE5 SHL DUP2 MSTORE PUSH1 0x20 PUSH1 0x4 DUP3 ADD MSTORE PUSH1 0x13 PUSH1 0x24 DUP3 ADD MSTORE PUSH19 0x2AB730BABA3437B934BD32B2102830B93A3C97 PUSH1 0x69 SHL PUSH1 0x44 DUP3 ADD MSTORE PUSH1 0x64 ADD PUSH2 0xA59 JUMP JUMPDEST PUSH2 0x311F DUP3 PUSH2 0x37A8 JUMP JUMPDEST PUSH2 0x3150 JUMPI PUSH1 0x40 MLOAD PUSH3 0x461BCD PUSH1 0xE5 SHL DUP2 MSTORE PUSH1 0x20 PUSH1 0x4 DUP3 ADD MSTORE PUSH1 0x2 PUSH1 0x24 DUP3 ADD MSTORE PUSH2 0x353 PUSH1 0xF4 SHL PUSH1 0x44 DUP3 ADD MSTORE PUSH1 0x64 ADD PUSH2 0xA59 JUMP JUMPDEST PUSH1 0x1 PUSH1 0x1 PUSH1 0xA0 SHL SUB DUP4 AND PUSH2 0x318B JUMPI PUSH1 0x40 MLOAD PUSH3 0x461BCD PUSH1 0xE5 SHL DUP2 MSTORE PUSH1 0x20 PUSH1 0x4 DUP3 ADD MSTORE PUSH1 0x2 PUSH1 0x24 DUP3 ADD MSTORE PUSH2 0x1A9B PUSH1 0xF1 SHL PUSH1 0x44 DUP3 ADD MSTORE PUSH1 0x64 ADD PUSH2 0xA59 JUMP JUMPDEST PUSH1 0x1 PUSH1 0x1 PUSH1 0xA0 SHL SUB DUP4 AND PUSH1 0x0 SWAP1 DUP2 MSTORE PUSH1 0x7 PUSH1 0x20 MSTORE PUSH1 0x40 SWAP1 KECCAK256 SLOAD DUP3 GT ISZERO PUSH2 0x31D8 JUMPI PUSH1 0x40 MLOAD PUSH3 0x461BCD PUSH1 0xE5 SHL DUP2 MSTORE PUSH1 0x20 PUSH1 0x4 DUP3 ADD MSTORE PUSH1 0x2 PUSH1 0x24 DUP3 ADD MSTORE PUSH2 0x1A99 PUSH1 0xF1 SHL PUSH1 0x44 DUP3 ADD MSTORE PUSH1 0x64 ADD PUSH2 0xA59 JUMP JUMPDEST PUSH1 0x1 PUSH1 0x1 PUSH1 0xA0 SHL SUB DUP4 AND PUSH1 0x0 SWAP1 DUP2 MSTORE PUSH1 0x7 PUSH1 0x20 MSTORE PUSH1 0x40 SWAP1 KECCAK256 SLOAD PUSH2 0x31FB SWAP1 DUP4 PUSH2 0x207F JUMP JUMPDEST PUSH1 0x1 PUSH1 0x1 PUSH1 0xA0 SHL SUB DUP5 AND PUSH1 0x0 SWAP1 DUP2 MSTORE PUSH1 0x7 PUSH1 0x20 MSTORE PUSH1 0x40 SWAP1 KECCAK256 SSTORE PUSH1 0x5 SLOAD PUSH2 0x3221 SWAP1 DUP4 PUSH2 0x207F JUMP JUMPDEST PUSH1 0x5 DUP2 SWAP1 SSTORE POP DUP3 PUSH1 0x1 PUSH1 0x1 PUSH1 0xA0 SHL SUB AND DUP5 PUSH1 0x1 PUSH1 0x1 PUSH1 0xA0 SHL SUB AND PUSH32 0xB7D0D6B60740753E9F16692A2F479472A1385AEC2420FA43225B02F2FFA1AFE7 DUP5 DUP5 PUSH1 0x40 MLOAD PUSH2 0x326C SWAP3 SWAP2 SWAP1 PUSH2 0x409F JUMP JUMPDEST PUSH1 0x40 MLOAD DUP1 SWAP2 SUB SWAP1 LOG3 PUSH1 0x40 MLOAD DUP3 DUP2 MSTORE PUSH1 0x0 SWAP1 PUSH1 0x1 PUSH1 0x1 PUSH1 0xA0 SHL SUB DUP6 AND SWAP1 PUSH32 0xDDF252AD1BE2C89B69C2B068FC378DAA952BA7F163C4A11628F55A4DF523B3EF SWAP1 PUSH1 0x20 ADD JUMPDEST PUSH1 0x40 MLOAD DUP1 SWAP2 SUB SWAP1 LOG3 POP POP POP POP JUMP JUMPDEST PUSH1 0x6 SLOAD PUSH1 0xFF AND ISZERO PUSH2 0x32F4 JUMPI PUSH1 0x40 MLOAD PUSH3 0x461BCD PUSH1 0xE5 SHL DUP2 MSTORE PUSH1 0x20 PUSH1 0x4 DUP3 ADD MSTORE PUSH1 0x2 PUSH1 0x24 DUP3 ADD MSTORE PUSH2 0xD4D PUSH1 0xF2 SHL PUSH1 0x44 DUP3 ADD MSTORE PUSH1 0x64 ADD PUSH2 0xA59 JUMP JUMPDEST PUSH2 0x32FD DUP5 PUSH2 0x2A90 JUMP JUMPDEST DUP1 ISZERO PUSH2 0x330D JUMPI POP PUSH2 0x330D DUP4 PUSH2 0x2A90 JUMP JUMPDEST PUSH2 0x334F JUMPI PUSH1 0x40 MLOAD PUSH3 0x461BCD PUSH1 0xE5 SHL DUP2 MSTORE PUSH1 0x20 PUSH1 0x4 DUP3 ADD MSTORE PUSH1 0x13 PUSH1 0x24 DUP3 ADD MSTORE PUSH19 0x2AB730BABA3437B934BD32B2102830B93A3C97 PUSH1 0x69 SHL PUSH1 0x44 DUP3 ADD MSTORE PUSH1 0x64 ADD PUSH2 0xA59 JUMP JUMPDEST PUSH2 0x3358 DUP3 PUSH2 0x37A8 JUMP JUMPDEST PUSH2 0x3389 JUMPI PUSH1 0x40 MLOAD PUSH3 0x461BCD PUSH1 0xE5 SHL DUP2 MSTORE PUSH1 0x20 PUSH1 0x4 DUP3 ADD MSTORE PUSH1 0x2 PUSH1 0x24 DUP3 ADD MSTORE PUSH2 0x353 PUSH1 0xF4 SHL PUSH1 0x44 DUP3 ADD MSTORE PUSH1 0x64 ADD PUSH2 0xA59 JUMP JUMPDEST PUSH1 0x1 PUSH1 0x1 PUSH1 0xA0 SHL SUB DUP4 AND PUSH2 0x33C4 JUMPI PUSH1 0x40 MLOAD PUSH3 0x461BCD PUSH1 0xE5 SHL DUP2 MSTORE PUSH1 0x20 PUSH1 0x4 DUP3 ADD MSTORE PUSH1 0x2 PUSH1 0x24 DUP3 ADD MSTORE PUSH2 0x3537 PUSH1 0xF0 SHL PUSH1 0x44 DUP3 ADD MSTORE PUSH1 0x64 ADD PUSH2 0xA59 JUMP JUMPDEST PUSH1 0x5 SLOAD PUSH2 0x33D1 SWAP1 DUP4 PUSH2 0x37CB JUMP JUMPDEST PUSH1 0x5 SSTORE PUSH1 0x1 PUSH1 0x1 PUSH1 0xA0 SHL SUB DUP4 AND PUSH1 0x0 SWAP1 DUP2 MSTORE PUSH1 0x7 PUSH1 0x20 MSTORE PUSH1 0x40 SWAP1 KECCAK256 SLOAD PUSH2 0x33F7 SWAP1 DUP4 PUSH2 0x37CB JUMP JUMPDEST PUSH1 0x1 PUSH1 0x1 PUSH1 0xA0 SHL SUB DUP1 DUP6 AND PUSH1 0x0 DUP2 DUP2 MSTORE PUSH1 0x7 PUSH1 0x20 MSTORE PUSH1 0x40 SWAP1 DUP2 SWAP1 KECCAK256 SWAP4 SWAP1 SWAP4 SSTORE SWAP2 MLOAD SWAP1 DUP7 AND SWAP1 PUSH32 0xE9905D62635F049C2F4E11678EBF9DC3D1F8C4A653E290759B772E47BA00D00 SWAP1 PUSH2 0x344B SWAP1 DUP7 SWAP1 DUP7 SWAP1 PUSH2 0x409F JUMP JUMPDEST PUSH1 0x40 MLOAD DUP1 SWAP2 SUB SWAP1 LOG3 PUSH1 0x40 MLOAD DUP3 DUP2 MSTORE PUSH1 0x1 PUSH1 0x1 PUSH1 0xA0 SHL SUB DUP5 AND SWAP1 PUSH1 0x0 SWAP1 PUSH32 0xDDF252AD1BE2C89B69C2B068FC378DAA952BA7F163C4A11628F55A4DF523B3EF SWAP1 PUSH1 0x20 ADD PUSH2 0x32AE JUMP JUMPDEST DUP1 ISZERO PUSH2 0xD82 JUMPI PUSH1 0x1 PUSH1 0x1 PUSH1 0xA0 SHL SUB DUP4 AND PUSH1 0x0 SWAP1 DUP2 MSTORE PUSH1 0xE PUSH1 0x20 SWAP1 DUP2 MSTORE PUSH1 0x40 DUP1 DUP4 KECCAK256 DUP6 DUP5 MSTORE SWAP1 SWAP2 MSTORE SWAP1 KECCAK256 SLOAD PUSH2 0x3503 JUMPI PUSH1 0x1 PUSH1 0x1 PUSH1 0xA0 SHL SUB DUP4 AND PUSH1 0x0 DUP2 DUP2 MSTORE PUSH1 0xD PUSH1 0x20 SWAP1 DUP2 MSTORE PUSH1 0x40 DUP1 DUP4 KECCAK256 DUP1 SLOAD PUSH1 0x1 DUP2 ADD DUP3 SSTORE DUP2 DUP6 MSTORE DUP4 DUP6 KECCAK256 ADD DUP8 SWAP1 SSTORE SWAP4 DUP4 MSTORE SWAP3 SLOAD PUSH1 0xE DUP3 MSTORE DUP4 DUP4 KECCAK256 DUP7 DUP5 MSTORE SWAP1 SWAP2 MSTORE SWAP2 SWAP1 KECCAK256 SSTORE JUMPDEST PUSH1 0x1 PUSH1 0x1 PUSH1 0xA0 SHL SUB DUP4 AND PUSH1 0x0 SWAP1 DUP2 MSTORE PUSH1 0xF PUSH1 0x20 SWAP1 DUP2 MSTORE PUSH1 0x40 DUP1 DUP4 KECCAK256 DUP6 DUP5 MSTORE SWAP1 SWAP2 MSTORE SWAP1 KECCAK256 SLOAD PUSH2 0x3531 SWAP1 DUP3 PUSH2 0x37CB JUMP JUMPDEST PUSH1 0x1 PUSH1 0x1 PUSH1 0xA0 SHL SUB DUP5 AND PUSH1 0x0 SWAP1 DUP2 MSTORE PUSH1 0xF PUSH1 0x20 SWAP1 DUP2 MSTORE PUSH1 0x40 DUP1 DUP4 KECCAK256 DUP7 DUP5 MSTORE DUP3 MSTORE DUP1 DUP4 KECCAK256 SWAP4 SWAP1 SWAP4 SSTORE PUSH1 0xB SWAP1 MSTORE KECCAK256 SLOAD PUSH2 0x35A2 JUMPI PUSH1 0xA DUP1 SLOAD PUSH1 0x1 DUP2 ADD DUP3 SSTORE PUSH32 0xC65A7BB8D6351C1CF70C95A316CC6A92839C986682D98BC35F958F4883F9D2A8 ADD DUP4 SWAP1 SSTORE SLOAD PUSH1 0x0 DUP4 DUP2 MSTORE PUSH1 0xB PUSH1 0x20 MSTORE PUSH1 0x40 SWAP1 KECCAK256 SSTORE JUMPDEST PUSH1 0x0 DUP3 DUP2 MSTORE PUSH1 0xC PUSH1 0x20 MSTORE PUSH1 0x40 SWAP1 KECCAK256 SLOAD PUSH2 0x35BB SWAP1 DUP3 PUSH2 0x37CB JUMP JUMPDEST PUSH1 0x0 DUP4 DUP2 MSTORE PUSH1 0xC PUSH1 0x20 MSTORE PUSH1 0x40 SWAP1 KECCAK256 SSTORE POP POP POP JUMP JUMPDEST PUSH1 0x20 DUP2 ADD MLOAD PUSH1 0x0 SWAP1 PUSH1 0x0 NOT SWAP1 DUP1 DUP3 EQ ISZERO PUSH2 0x35EF JUMPI PUSH1 0x40 DUP5 ADD MLOAD SWAP3 POP PUSH2 0x35F3 JUMP JUMPDEST DUP5 SWAP3 POP JUMPDEST POP POP SWAP3 SWAP2 POP POP JUMP JUMPDEST PUSH1 0x6 SLOAD PUSH1 0xFF AND ISZERO PUSH2 0x3633 JUMPI PUSH1 0x40 MLOAD PUSH3 0x461BCD PUSH1 0xE5 SHL DUP2 MSTORE PUSH1 0x20 PUSH1 0x4 DUP3 ADD MSTORE PUSH1 0x2 PUSH1 0x24 DUP3 ADD MSTORE PUSH2 0xD4D PUSH1 0xF2 SHL PUSH1 0x44 DUP3 ADD MSTORE PUSH1 0x64 ADD PUSH2 0xA59 JUMP JUMPDEST PUSH2 0x363C DUP2 PUSH2 0x37A8 JUMP JUMPDEST PUSH2 0x366D JUMPI PUSH1 0x40 MLOAD PUSH3 0x461BCD PUSH1 0xE5 SHL DUP2 MSTORE PUSH1 0x20 PUSH1 0x4 DUP3 ADD MSTORE PUSH1 0x2 PUSH1 0x24 DUP3 ADD MSTORE PUSH2 0x353 PUSH1 0xF4 SHL PUSH1 0x44 DUP3 ADD MSTORE PUSH1 0x64 ADD PUSH2 0xA59 JUMP JUMPDEST PUSH1 0x1 PUSH1 0x1 PUSH1 0xA0 SHL SUB DUP3 AND PUSH2 0x36A8 JUMPI PUSH1 0x40 MLOAD PUSH3 0x461BCD PUSH1 0xE5 SHL DUP2 MSTORE PUSH1 0x20 PUSH1 0x4 DUP3 ADD MSTORE PUSH1 0x2 PUSH1 0x24 DUP3 ADD MSTORE PUSH2 0x3537 PUSH1 0xF0 SHL PUSH1 0x44 DUP3 ADD MSTORE PUSH1 0x64 ADD PUSH2 0xA59 JUMP JUMPDEST PUSH1 0x1 PUSH1 0x1 PUSH1 0xA0 SHL SUB DUP4 AND PUSH1 0x0 SWAP1 DUP2 MSTORE PUSH1 0x7 PUSH1 0x20 MSTORE PUSH1 0x40 SWAP1 KECCAK256 SLOAD DUP2 GT ISZERO PUSH2 0x36F5 JUMPI PUSH1 0x40 MLOAD PUSH3 0x461BCD PUSH1 0xE5 SHL DUP2 MSTORE PUSH1 0x20 PUSH1 0x4 DUP3 ADD MSTORE PUSH1 0x2 PUSH1 0x24 DUP3 ADD MSTORE PUSH2 0x1A99 PUSH1 0xF1 SHL PUSH1 0x44 DUP3 ADD MSTORE PUSH1 0x64 ADD PUSH2 0xA59 JUMP JUMPDEST PUSH1 0x1 PUSH1 0x1 PUSH1 0xA0 SHL SUB DUP4 AND PUSH1 0x0 SWAP1 DUP2 MSTORE PUSH1 0x7 PUSH1 0x20 MSTORE PUSH1 0x40 SWAP1 KECCAK256 SLOAD PUSH2 0x3718 SWAP1 DUP3 PUSH2 0x207F JUMP JUMPDEST PUSH1 0x1 PUSH1 0x1 PUSH1 0xA0 SHL SUB DUP1 DUP6 AND PUSH1 0x0 SWAP1 DUP2 MSTORE PUSH1 0x7 PUSH1 0x20 MSTORE PUSH1 0x40 DUP1 DUP3 KECCAK256 SWAP4 SWAP1 SWAP4 SSTORE SWAP1 DUP5 AND DUP2 MSTORE KECCAK256 SLOAD PUSH2 0x3747 SWAP1 DUP3 PUSH2 0x37CB JUMP JUMPDEST PUSH1 0x1 PUSH1 0x1 PUSH1 0xA0 SHL SUB DUP1 DUP5 AND PUSH1 0x0 DUP2 DUP2 MSTORE PUSH1 0x7 PUSH1 0x20 MSTORE PUSH1 0x40 SWAP1 DUP2 SWAP1 KECCAK256 SWAP4 SWAP1 SWAP4 SSTORE SWAP2 MLOAD SWAP1 DUP6 AND SWAP1 PUSH32 0xDDF252AD1BE2C89B69C2B068FC378DAA952BA7F163C4A11628F55A4DF523B3EF SWAP1 PUSH2 0x379B SWAP1 DUP6 DUP2 MSTORE PUSH1 0x20 ADD SWAP1 JUMP JUMPDEST PUSH1 0x40 MLOAD DUP1 SWAP2 SUB SWAP1 LOG3 POP POP POP JUMP JUMPDEST PUSH1 0x4 SLOAD PUSH1 0x0 SWAP1 DUP3 SWAP1 PUSH2 0x37C4 SWAP1 PUSH2 0x37BE DUP4 DUP3 PUSH2 0x37D7 JUMP JUMPDEST SWAP1 PUSH2 0x37E3 JUMP JUMPDEST EQ SWAP3 SWAP2 POP POP JUMP JUMPDEST PUSH1 0x0 PUSH2 0x1839 DUP3 DUP5 PUSH2 0x4171 JUMP JUMPDEST PUSH1 0x0 PUSH2 0x1839 DUP3 DUP5 PUSH2 0x41B6 JUMP JUMPDEST PUSH1 0x0 PUSH2 0x1839 DUP3 DUP5 PUSH2 0x4152 JUMP JUMPDEST DUP3 DUP1 SLOAD PUSH2 0x37FB SWAP1 PUSH2 0x3F85 JUMP JUMPDEST SWAP1 PUSH1 0x0 MSTORE PUSH1 0x20 PUSH1 0x0 KECCAK256 SWAP1 PUSH1 0x1F ADD PUSH1 0x20 SWAP1 DIV DUP2 ADD SWAP3 DUP3 PUSH2 0x381D JUMPI PUSH1 0x0 DUP6 SSTORE PUSH2 0x3863 JUMP JUMPDEST DUP3 PUSH1 0x1F LT PUSH2 0x3836 JUMPI DUP1 MLOAD PUSH1 0xFF NOT AND DUP4 DUP1 ADD OR DUP6 SSTORE PUSH2 0x3863 JUMP JUMPDEST DUP3 DUP1 ADD PUSH1 0x1 ADD DUP6 SSTORE DUP3 ISZERO PUSH2 0x3863 JUMPI SWAP2 DUP3 ADD JUMPDEST DUP3 DUP2 GT ISZERO PUSH2 0x3863 JUMPI DUP3 MLOAD DUP3 SSTORE SWAP2 PUSH1 0x20 ADD SWAP2 SWAP1 PUSH1 0x1 ADD SWAP1 PUSH2 0x3848 JUMP JUMPDEST POP PUSH2 0x386F SWAP3 SWAP2 POP PUSH2 0x3910 JUMP JUMPDEST POP SWAP1 JUMP JUMPDEST DUP3 DUP1 SLOAD DUP3 DUP3 SSTORE SWAP1 PUSH1 0x0 MSTORE PUSH1 0x20 PUSH1 0x0 KECCAK256 SWAP1 DUP2 ADD SWAP3 DUP3 ISZERO PUSH2 0x3863 JUMPI SWAP2 PUSH1 0x20 MUL DUP3 ADD JUMPDEST DUP3 DUP2 GT ISZERO PUSH2 0x3863 JUMPI DUP3 CALLDATALOAD DUP3 SSTORE SWAP2 PUSH1 0x20 ADD SWAP2 SWAP1 PUSH1 0x1 ADD SWAP1 PUSH2 0x3893 JUMP JUMPDEST DUP3 DUP1 SLOAD DUP3 DUP3 SSTORE SWAP1 PUSH1 0x0 MSTORE PUSH1 0x20 PUSH1 0x0 KECCAK256 SWAP1 DUP2 ADD SWAP3 DUP3 ISZERO PUSH2 0x3863 JUMPI SWAP2 PUSH1 0x20 MUL DUP3 ADD JUMPDEST DUP3 DUP2 GT ISZERO PUSH2 0x3863 JUMPI DUP3 MLOAD DUP3 SLOAD PUSH20 0xFFFFFFFFFFFFFFFFFFFFFFFFFFFFFFFFFFFFFFFF NOT AND PUSH1 0x1 PUSH1 0x1 PUSH1 0xA0 SHL SUB SWAP1 SWAP2 AND OR DUP3 SSTORE PUSH1 0x20 SWAP1 SWAP3 ADD SWAP2 PUSH1 0x1 SWAP1 SWAP2 ADD SWAP1 PUSH2 0x38CE JUMP JUMPDEST JUMPDEST DUP1 DUP3 GT ISZERO PUSH2 0x386F JUMPI PUSH1 0x0 DUP2 SSTORE PUSH1 0x1 ADD PUSH2 0x3911 JUMP JUMPDEST PUSH1 0x0 DUP1 DUP4 PUSH1 0x1F DUP5 ADD SLT PUSH2 0x3937 JUMPI PUSH1 0x0 DUP1 REVERT JUMPDEST POP DUP2 CALLDATALOAD PUSH8 0xFFFFFFFFFFFFFFFF DUP2 GT ISZERO PUSH2 0x394F JUMPI PUSH1 0x0 DUP1 REVERT JUMPDEST PUSH1 0x20 DUP4 ADD SWAP2 POP DUP4 PUSH1 0x20 DUP3 DUP6 ADD ADD GT ISZERO PUSH2 0x3967 JUMPI PUSH1 0x0 DUP1 REVERT JUMPDEST SWAP3 POP SWAP3 SWAP1 POP JUMP JUMPDEST PUSH1 0x0 DUP1 PUSH1 0x0 DUP1 PUSH1 0x60 DUP6 DUP8 SUB SLT ISZERO PUSH2 0x3984 JUMPI PUSH1 0x0 DUP1 REVERT JUMPDEST DUP5 CALLDATALOAD SWAP4 POP PUSH1 0x20 DUP6 ADD CALLDATALOAD PUSH8 0xFFFFFFFFFFFFFFFF DUP2 GT ISZERO PUSH2 0x39A2 JUMPI PUSH1 0x0 DUP1 REVERT JUMPDEST PUSH2 0x39AE DUP8 DUP3 DUP9 ADD PUSH2 0x3925 JUMP JUMPDEST SWAP6 SWAP9 SWAP1 SWAP8 POP SWAP5 SWAP6 PUSH1 0x40 ADD CALLDATALOAD SWAP5 SWAP4 POP POP POP POP JUMP JUMPDEST PUSH1 0x0 PUSH1 0x20 DUP3 DUP5 SUB SLT ISZERO PUSH2 0x39D3 JUMPI PUSH1 0x0 DUP1 REVERT JUMPDEST DUP2 CALLDATALOAD PUSH1 0x1 PUSH1 0x1 PUSH1 0xE0 SHL SUB NOT DUP2 AND DUP2 EQ PUSH2 0x1839 JUMPI PUSH1 0x0 DUP1 REVERT JUMPDEST PUSH1 0x0 JUMPDEST DUP4 DUP2 LT ISZERO PUSH2 0x3A06 JUMPI DUP2 DUP2 ADD MLOAD DUP4 DUP3 ADD MSTORE PUSH1 0x20 ADD PUSH2 0x39EE JUMP JUMPDEST DUP4 DUP2 GT ISZERO PUSH2 0xF01 JUMPI POP POP PUSH1 0x0 SWAP2 ADD MSTORE JUMP JUMPDEST PUSH1 0x0 DUP2 MLOAD DUP1 DUP5 MSTORE PUSH2 0x3A2F DUP2 PUSH1 0x20 DUP7 ADD PUSH1 0x20 DUP7 ADD PUSH2 0x39EB JUMP JUMPDEST PUSH1 0x1F ADD PUSH1 0x1F NOT AND SWAP3 SWAP1 SWAP3 ADD PUSH1 0x20 ADD SWAP3 SWAP2 POP POP JUMP JUMPDEST PUSH1 0x20 DUP2 MSTORE PUSH1 0x0 PUSH2 0x1839 PUSH1 0x20 DUP4 ADD DUP5 PUSH2 0x3A17 JUMP JUMPDEST DUP1 CALLDATALOAD PUSH1 0x1 PUSH1 0x1 PUSH1 0xA0 SHL SUB DUP2 AND DUP2 EQ PUSH2 0x3A6D JUMPI PUSH1 0x0 DUP1 REVERT JUMPDEST SWAP2 SWAP1 POP JUMP JUMPDEST PUSH1 0x0 PUSH1 0x20 DUP3 DUP5 SUB SLT ISZERO PUSH2 0x3A84 JUMPI PUSH1 0x0 DUP1 REVERT JUMPDEST PUSH2 0x1839 DUP3 PUSH2 0x3A56 JUMP JUMPDEST PUSH1 0x0 DUP1 PUSH1 0x40 DUP4 DUP6 SUB SLT ISZERO PUSH2 0x3AA0 JUMPI PUSH1 0x0 DUP1 REVERT JUMPDEST PUSH2 0x3AA9 DUP4 PUSH2 0x3A56 JUMP JUMPDEST SWAP5 PUSH1 0x20 SWAP4 SWAP1 SWAP4 ADD CALLDATALOAD SWAP4 POP POP POP JUMP JUMPDEST PUSH1 0x0 DUP1 PUSH1 0x40 DUP4 DUP6 SUB SLT ISZERO PUSH2 0x3ACA JUMPI PUSH1 0x0 DUP1 REVERT JUMPDEST DUP3 CALLDATALOAD SWAP2 POP PUSH2 0x3ADA PUSH1 0x20 DUP5 ADD PUSH2 0x3A56 JUMP JUMPDEST SWAP1 POP SWAP3 POP SWAP3 SWAP1 POP JUMP JUMPDEST PUSH1 0x0 DUP1 PUSH1 0x0 PUSH1 0x60 DUP5 DUP7 SUB SLT ISZERO PUSH2 0x3AF8 JUMPI PUSH1 0x0 DUP1 REVERT JUMPDEST DUP4 CALLDATALOAD SWAP3 POP PUSH2 0x3B08 PUSH1 0x20 DUP6 ADD PUSH2 0x3A56 JUMP JUMPDEST SWAP2 POP PUSH1 0x40 DUP5 ADD CALLDATALOAD SWAP1 POP SWAP3 POP SWAP3 POP SWAP3 JUMP JUMPDEST PUSH1 0x0 DUP1 DUP4 PUSH1 0x1F DUP5 ADD SLT PUSH2 0x3B2A JUMPI PUSH1 0x0 DUP1 REVERT JUMPDEST POP DUP2 CALLDATALOAD PUSH8 0xFFFFFFFFFFFFFFFF DUP2 GT ISZERO PUSH2 0x3B42 JUMPI PUSH1 0x0 DUP1 REVERT JUMPDEST PUSH1 0x20 DUP4 ADD SWAP2 POP DUP4 PUSH1 0x20 DUP3 PUSH1 0x5 SHL DUP6 ADD ADD GT ISZERO PUSH2 0x3967 JUMPI PUSH1 0x0 DUP1 REVERT JUMPDEST PUSH1 0x0 DUP1 PUSH1 0x0 PUSH1 0x40 DUP5 DUP7 SUB SLT ISZERO PUSH2 0x3B72 JUMPI PUSH1 0x0 DUP1 REVERT JUMPDEST DUP4 CALLDATALOAD SWAP3 POP PUSH1 0x20 DUP5 ADD CALLDATALOAD PUSH8 0xFFFFFFFFFFFFFFFF DUP2 GT ISZERO PUSH2 0x3B90 JUMPI PUSH1 0x0 DUP1 REVERT JUMPDEST PUSH2 0x3B9C DUP7 DUP3 DUP8 ADD PUSH2 0x3B18 JUMP JUMPDEST SWAP5 SWAP8 SWAP1 SWAP7 POP SWAP4 SWAP5 POP POP POP POP JUMP JUMPDEST PUSH1 0x0 DUP1 PUSH1 0x0 PUSH1 0x60 DUP5 DUP7 SUB SLT ISZERO PUSH2 0x3BBE JUMPI PUSH1 0x0 DUP1 REVERT JUMPDEST DUP4 CALLDATALOAD SWAP3 POP PUSH2 0x3BCE PUSH1 0x20 DUP6 ADD PUSH2 0x3A56 JUMP JUMPDEST SWAP2 POP PUSH2 0x3BDC PUSH1 0x40 DUP6 ADD PUSH2 0x3A56 JUMP JUMPDEST SWAP1 POP SWAP3 POP SWAP3 POP SWAP3 JUMP JUMPDEST PUSH1 0x0 DUP1 PUSH1 0x0 PUSH1 0x60 DUP5 DUP7 SUB SLT ISZERO PUSH2 0x3BFA JUMPI PUSH1 0x0 DUP1 REVERT JUMPDEST PUSH2 0x3C03 DUP5 PUSH2 0x3A56 JUMP JUMPDEST SWAP3 POP PUSH2 0x3B08 PUSH1 0x20 DUP6 ADD PUSH2 0x3A56 JUMP JUMPDEST PUSH1 0x0 PUSH1 0x20 DUP3 DUP5 SUB SLT ISZERO PUSH2 0x3C23 JUMPI PUSH1 0x0 DUP1 REVERT JUMPDEST POP CALLDATALOAD SWAP2 SWAP1 POP JUMP JUMPDEST PUSH1 0x0 DUP1 PUSH1 0x0 DUP1 PUSH1 0x60 DUP6 DUP8 SUB SLT ISZERO PUSH2 0x3C40 JUMPI PUSH1 0x0 DUP1 REVERT JUMPDEST PUSH2 0x3C49 DUP6 PUSH2 0x3A56 JUMP JUMPDEST SWAP4 POP PUSH1 0x20 DUP6 ADD CALLDATALOAD SWAP3 POP PUSH1 0x40 DUP6 ADD CALLDATALOAD PUSH8 0xFFFFFFFFFFFFFFFF DUP2 GT ISZERO PUSH2 0x3C6C JUMPI PUSH1 0x0 DUP1 REVERT JUMPDEST PUSH2 0x3C78 DUP8 DUP3 DUP9 ADD PUSH2 0x3925 JUMP JUMPDEST SWAP6 SWAP9 SWAP5 SWAP8 POP SWAP6 POP POP POP POP JUMP JUMPDEST PUSH1 0x0 DUP1 PUSH1 0x0 DUP1 PUSH1 0x60 DUP6 DUP8 SUB SLT ISZERO PUSH2 0x3C9A JUMPI PUSH1 0x0 DUP1 REVERT JUMPDEST DUP5 CALLDATALOAD SWAP4 POP PUSH1 0x20 DUP6 ADD CALLDATALOAD SWAP3 POP PUSH1 0x40 DUP6 ADD CALLDATALOAD PUSH8 0xFFFFFFFFFFFFFFFF DUP2 GT ISZERO PUSH2 0x3C6C JUMPI PUSH1 0x0 DUP1 REVERT JUMPDEST PUSH1 0x0 DUP1 PUSH1 0x0 DUP1 PUSH1 0x0 PUSH1 0x80 DUP7 DUP9 SUB SLT ISZERO PUSH2 0x3CD7 JUMPI PUSH1 0x0 DUP1 REVERT JUMPDEST DUP6 CALLDATALOAD SWAP5 POP PUSH2 0x3CE7 PUSH1 0x20 DUP8 ADD PUSH2 0x3A56 JUMP JUMPDEST SWAP4 POP PUSH1 0x40 DUP7 ADD CALLDATALOAD SWAP3 POP PUSH1 0x60 DUP7 ADD CALLDATALOAD PUSH8 0xFFFFFFFFFFFFFFFF DUP2 GT ISZERO PUSH2 0x3D0A JUMPI PUSH1 0x0 DUP1 REVERT JUMPDEST PUSH2 0x3D16 DUP9 DUP3 DUP10 ADD PUSH2 0x3925 JUMP JUMPDEST SWAP7 SWAP10 SWAP6 SWAP9 POP SWAP4 SWAP7 POP SWAP3 SWAP5 SWAP4 SWAP3 POP POP POP JUMP JUMPDEST PUSH1 0x20 DUP1 DUP3 MSTORE DUP3 MLOAD DUP3 DUP3 ADD DUP2 SWAP1 MSTORE PUSH1 0x0 SWAP2 SWAP1 DUP5 DUP3 ADD SWAP1 PUSH1 0x40 DUP6 ADD SWAP1 DUP5 JUMPDEST DUP2 DUP2 LT ISZERO PUSH2 0x3D5F JUMPI DUP4 MLOAD DUP4 MSTORE SWAP3 DUP5 ADD SWAP3 SWAP2 DUP5 ADD SWAP2 PUSH1 0x1 ADD PUSH2 0x3D43 JUMP JUMPDEST POP SWAP1 SWAP7 SWAP6 POP POP POP POP POP POP JUMP JUMPDEST PUSH1 0x20 DUP1 DUP3 MSTORE DUP3 MLOAD DUP3 DUP3 ADD DUP2 SWAP1 MSTORE PUSH1 0x0 SWAP2 SWAP1 DUP5 DUP3 ADD SWAP1 PUSH1 0x40 DUP6 ADD SWAP1 DUP5 JUMPDEST DUP2 DUP2 LT ISZERO PUSH2 0x3D5F JUMPI DUP4 MLOAD PUSH1 0x1 PUSH1 0x1 PUSH1 0xA0 SHL SUB AND DUP4 MSTORE SWAP3 DUP5 ADD SWAP3 SWAP2 DUP5 ADD SWAP2 PUSH1 0x1 ADD PUSH2 0x3D87 JUMP JUMPDEST PUSH1 0x0 DUP1 PUSH1 0x0 DUP1 PUSH1 0x0 DUP1 PUSH1 0x0 DUP1 PUSH1 0xC0 DUP10 DUP12 SUB SLT ISZERO PUSH2 0x3DC8 JUMPI PUSH1 0x0 DUP1 REVERT JUMPDEST DUP9 CALLDATALOAD SWAP8 POP PUSH2 0x3DD8 PUSH1 0x20 DUP11 ADD PUSH2 0x3A56 JUMP JUMPDEST SWAP7 POP PUSH2 0x3DE6 PUSH1 0x40 DUP11 ADD PUSH2 0x3A56 JUMP JUMPDEST SWAP6 POP PUSH1 0x60 DUP10 ADD CALLDATALOAD SWAP5 POP PUSH1 0x80 DUP10 ADD CALLDATALOAD PUSH8 0xFFFFFFFFFFFFFFFF DUP1 DUP3 GT ISZERO PUSH2 0x3E0A JUMPI PUSH1 0x0 DUP1 REVERT JUMPDEST PUSH2 0x3E16 DUP13 DUP4 DUP14 ADD PUSH2 0x3925 JUMP JUMPDEST SWAP1 SWAP7 POP SWAP5 POP PUSH1 0xA0 DUP12 ADD CALLDATALOAD SWAP2 POP DUP1 DUP3 GT ISZERO PUSH2 0x3E2F JUMPI PUSH1 0x0 DUP1 REVERT JUMPDEST POP PUSH2 0x3E3C DUP12 DUP3 DUP13 ADD PUSH2 0x3925 JUMP JUMPDEST SWAP10 SWAP13 SWAP9 SWAP12 POP SWAP7 SWAP10 POP SWAP5 SWAP8 SWAP4 SWAP7 SWAP3 SWAP6 SWAP5 POP POP POP JUMP JUMPDEST PUSH1 0x40 DUP2 MSTORE PUSH1 0x0 PUSH2 0x3E63 PUSH1 0x40 DUP4 ADD DUP6 PUSH2 0x3A17 JUMP JUMPDEST SWAP1 POP DUP3 PUSH1 0x20 DUP4 ADD MSTORE SWAP4 SWAP3 POP POP POP JUMP JUMPDEST PUSH1 0x0 DUP1 PUSH1 0x40 DUP4 DUP6 SUB SLT ISZERO PUSH2 0x3E85 JUMPI PUSH1 0x0 DUP1 REVERT JUMPDEST PUSH2 0x3E8E DUP4 PUSH2 0x3A56 JUMP JUMPDEST SWAP2 POP PUSH2 0x3ADA PUSH1 0x20 DUP5 ADD PUSH2 0x3A56 JUMP JUMPDEST PUSH1 0x0 DUP1 PUSH1 0x0 PUSH1 0x40 DUP5 DUP7 SUB SLT ISZERO PUSH2 0x3EB1 JUMPI PUSH1 0x0 DUP1 REVERT JUMPDEST DUP4 CALLDATALOAD SWAP3 POP PUSH1 0x20 DUP5 ADD CALLDATALOAD PUSH8 0xFFFFFFFFFFFFFFFF DUP2 GT ISZERO PUSH2 0x3ECF JUMPI PUSH1 0x0 DUP1 REVERT JUMPDEST PUSH2 0x3B9C DUP7 DUP3 DUP8 ADD PUSH2 0x3925 JUMP JUMPDEST PUSH1 0x0 DUP1 PUSH1 0x20 DUP4 DUP6 SUB SLT ISZERO PUSH2 0x3EEE JUMPI PUSH1 0x0 DUP1 REVERT JUMPDEST DUP3 CALLDATALOAD PUSH8 0xFFFFFFFFFFFFFFFF DUP2 GT ISZERO PUSH2 0x3F05 JUMPI PUSH1 0x0 DUP1 REVERT JUMPDEST PUSH2 0x3F11 DUP6 DUP3 DUP7 ADD PUSH2 0x3B18 JUMP JUMPDEST SWAP1 SWAP7 SWAP1 SWAP6 POP SWAP4 POP POP POP POP JUMP JUMPDEST PUSH1 0x0 DUP1 PUSH1 0x0 DUP1 PUSH1 0x0 PUSH1 0x80 DUP7 DUP9 SUB SLT ISZERO PUSH2 0x3F35 JUMPI PUSH1 0x0 DUP1 REVERT JUMPDEST PUSH2 0x3F3E DUP7 PUSH2 0x3A56 JUMP JUMPDEST SWAP5 POP PUSH2 0x3CE7 PUSH1 0x20 DUP8 ADD PUSH2 0x3A56 JUMP JUMPDEST PUSH1 0x40 DUP2 MSTORE DUP3 PUSH1 0x40 DUP3 ADD MSTORE DUP3 DUP5 PUSH1 0x60 DUP4 ADD CALLDATACOPY PUSH1 0x0 PUSH1 0x60 DUP5 DUP4 ADD ADD MSTORE PUSH1 0x0 PUSH1 0x60 PUSH1 0x1F NOT PUSH1 0x1F DUP7 ADD AND DUP4 ADD ADD SWAP1 POP DUP3 PUSH1 0x20 DUP4 ADD MSTORE SWAP5 SWAP4 POP POP POP POP JUMP JUMPDEST PUSH1 0x1 DUP2 DUP2 SHR SWAP1 DUP3 AND DUP1 PUSH2 0x3F99 JUMPI PUSH1 0x7F DUP3 AND SWAP2 POP JUMPDEST PUSH1 0x20 DUP3 LT DUP2 EQ ISZERO PUSH2 0x3FBA JUMPI PUSH4 0x4E487B71 PUSH1 0xE0 SHL PUSH1 0x0 MSTORE PUSH1 0x22 PUSH1 0x4 MSTORE PUSH1 0x24 PUSH1 0x0 REVERT JUMPDEST POP SWAP2 SWAP1 POP JUMP JUMPDEST PUSH4 0x4E487B71 PUSH1 0xE0 SHL PUSH1 0x0 MSTORE PUSH1 0x32 PUSH1 0x4 MSTORE PUSH1 0x24 PUSH1 0x0 REVERT JUMPDEST PUSH4 0x4E487B71 PUSH1 0xE0 SHL PUSH1 0x0 MSTORE PUSH1 0x11 PUSH1 0x4 MSTORE PUSH1 0x24 PUSH1 0x0 REVERT JUMPDEST PUSH1 0x0 PUSH1 0x0 NOT DUP3 EQ ISZERO PUSH2 0x4000 JUMPI PUSH2 0x4000 PUSH2 0x3FD6 JUMP JUMPDEST POP PUSH1 0x1 ADD SWAP1 JUMP JUMPDEST PUSH1 0x0 DUP3 DUP3 LT ISZERO PUSH2 0x4019 JUMPI PUSH2 0x4019 PUSH2 0x3FD6 JUMP JUMPDEST POP SUB SWAP1 JUMP JUMPDEST PUSH32 0x416363657373436F6E74726F6C3A206163636F756E7420000000000000000000 DUP2 MSTORE PUSH1 0x0 DUP4 MLOAD PUSH2 0x4056 DUP2 PUSH1 0x17 DUP6 ADD PUSH1 0x20 DUP9 ADD PUSH2 0x39EB JUMP JUMPDEST PUSH32 0x206973206D697373696E6720726F6C6520000000000000000000000000000000 PUSH1 0x17 SWAP2 DUP5 ADD SWAP2 DUP3 ADD MSTORE DUP4 MLOAD PUSH2 0x4093 DUP2 PUSH1 0x28 DUP5 ADD PUSH1 0x20 DUP9 ADD PUSH2 0x39EB JUMP JUMPDEST ADD PUSH1 0x28 ADD SWAP5 SWAP4 POP POP POP POP JUMP JUMPDEST DUP3 DUP2 MSTORE PUSH1 0x40 PUSH1 0x20 DUP3 ADD MSTORE PUSH1 0x0 PUSH2 0x11B4 PUSH1 0x40 DUP4 ADD DUP5 PUSH2 0x3A17 JUMP JUMPDEST DUP3 DUP2 MSTORE PUSH1 0x60 PUSH1 0x20 DUP3 ADD MSTORE PUSH1 0x0 PUSH2 0x40D1 PUSH1 0x60 DUP4 ADD DUP5 PUSH2 0x3A17 JUMP JUMPDEST DUP3 DUP2 SUB PUSH1 0x40 DUP5 ADD MSTORE PUSH1 0x0 DUP2 MSTORE PUSH1 0x20 DUP2 ADD SWAP2 POP POP SWAP4 SWAP3 POP POP POP JUMP JUMPDEST PUSH1 0x1 PUSH1 0x1 PUSH1 0xA0 SHL SUB DUP6 AND DUP2 MSTORE DUP4 PUSH1 0x20 DUP3 ADD MSTORE PUSH1 0x80 PUSH1 0x40 DUP3 ADD MSTORE PUSH1 0x0 PUSH2 0x4113 PUSH1 0x80 DUP4 ADD DUP6 PUSH2 0x3A17 JUMP JUMPDEST DUP3 DUP2 SUB PUSH1 0x60 DUP5 ADD MSTORE PUSH2 0x4125 DUP2 DUP6 PUSH2 0x3A17 JUMP JUMPDEST SWAP8 SWAP7 POP POP POP POP POP POP POP JUMP JUMPDEST PUSH1 0x0 PUSH1 0x20 DUP3 DUP5 SUB SLT ISZERO PUSH2 0x4142 JUMPI PUSH1 0x0 DUP1 REVERT JUMPDEST DUP2 MLOAD DUP1 ISZERO ISZERO DUP2 EQ PUSH2 0x1839 JUMPI PUSH1 0x0 DUP1 REVERT JUMPDEST PUSH1 0x0 DUP2 PUSH1 0x0 NOT DIV DUP4 GT DUP3 ISZERO ISZERO AND ISZERO PUSH2 0x416C JUMPI PUSH2 0x416C PUSH2 0x3FD6 JUMP JUMPDEST POP MUL SWAP1 JUMP JUMPDEST PUSH1 0x0 DUP3 NOT DUP3 GT ISZERO PUSH2 0x4184 JUMPI PUSH2 0x4184 PUSH2 0x3FD6 JUMP JUMPDEST POP ADD SWAP1 JUMP JUMPDEST PUSH4 0x4E487B71 PUSH1 0xE0 SHL PUSH1 0x0 MSTORE PUSH1 0x41 PUSH1 0x4 MSTORE PUSH1 0x24 PUSH1 0x0 REVERT JUMPDEST PUSH1 0x0 DUP2 PUSH2 0x41AE JUMPI PUSH2 0x41AE PUSH2 0x3FD6 JUMP JUMPDEST POP PUSH1 0x0 NOT ADD SWAP1 JUMP JUMPDEST PUSH1 0x0 DUP3 PUSH2 0x41D3 JUMPI PUSH4 0x4E487B71 PUSH1 0xE0 SHL PUSH1 0x0 MSTORE PUSH1 0x12 PUSH1 0x4 MSTORE PUSH1 0x24 PUSH1 0x0 REVERT JUMPDEST POP DIV SWAP1 JUMP INVALID LOG2 PUSH5 0x6970667358 0x22 SLT KECCAK256 POP 0xE8 PUSH23 0x4CA98EC464C0F5EE34E3469A28740CBFF9265D0D36E79A BYTE PUSH15 0x3DC651664736F6C63430008090033 ",
  "sha1": "f2e205dd18c8a0b4cca7ce79257af5d7dc12ae31",
  "source": "pragma solidity ^0.8.0;\n\nimport \"OpenZeppelin/openzeppelin-contracts@4.3.0/contracts/token/ERC20/IERC20.sol\";\nimport \"OpenZeppelin/openzeppelin-contracts@4.3.0/contracts/utils/math/SafeMath.sol\";\nimport \"OpenZeppelin/openzeppelin-contracts@4.3.0/contracts/access/Ownable.sol\";\nimport \"../Access/MinterRole.sol\";\nimport \"./IERC1400.sol\";\nimport \"../Oracle/CallerInterface.sol\";\n\ncontract ERC1400 is IERC20, IERC1400, Ownable, MinterRole {\n  using SafeMath for uint256;\n\n\n  // Token\n  string constant internal ERC1400_INTERFACE_NAME = \"ERC1400Token\";\n  string constant internal ERC20_INTERFACE_NAME = \"ERC20Token\";\n\n\n\n  /************************************* Token description ****************************************/\n  string internal _name;\n  string internal _symbol;\n  uint256 internal _granularity;\n  uint256 internal _totalSupply;\n  bool internal _migrated;\n  address internal whitelist;\n  /************************************************************************************************/\n\n\n  /**************************************** Token behaviours **************************************/\n  // Indicate whether the token can still be controlled by operators or not anymore.\n  bool internal _isControllable;\n\n  // Indicate whether the token can still be issued by the issuer or not anymore.\n  bool internal _isIssuable;\n  /************************************************************************************************/\n\n\n  /********************************** ERC20 Token mappings ****************************************/\n  // Mapping from tokenHolder to balance.\n  mapping(address => uint256) internal _balances;\n\n  // Mapping from (tokenHolder, spender) to allowed value.\n  mapping (address => mapping (address => uint256)) internal _allowed;\n  /************************************************************************************************/\n\n\n  /**************************************** Documents *********************************************/\n  struct Doc {\n    string docURI;\n    bytes32 docHash;\n  }\n  // Mapping for token URIs.\n  mapping(bytes32 => Doc) internal _documents;\n  /************************************************************************************************/\n\n\n  /*********************************** Partitions  mappings ***************************************/\n  // List of partitions.\n  bytes32[] internal _totalPartitions;\n\n  // Mapping from partition to their index.\n  mapping (bytes32 => uint256) internal _indexOfTotalPartitions;\n\n  // Mapping from partition to global balance of corresponding partition.\n  mapping (bytes32 => uint256) internal _totalSupplyByPartition;\n\n  // Mapping from tokenHolder to their partitions.\n  mapping (address => bytes32[]) internal _partitionsOf;\n\n  // Mapping from (tokenHolder, partition) to their index.\n  mapping (address => mapping (bytes32 => uint256)) internal _indexOfPartitionsOf;\n\n  // Mapping from (tokenHolder, partition) to balance of corresponding partition.\n  mapping (address => mapping (bytes32 => uint256)) internal _balanceOfByPartition;\n\n  // List of token default partitions (for ERC20 compatibility).\n  bytes32[] internal _defaultPartitions;\n  /************************************************************************************************/\n\n\n  /********************************* Global operators mappings ************************************/\n  // Mapping from (operator, tokenHolder) to authorized status. [TOKEN-HOLDER-SPECIFIC]\n  mapping(address => mapping(address => bool)) internal _authorizedOperator;\n\n  // Array of controllers. [GLOBAL - NOT TOKEN-HOLDER-SPECIFIC]\n  address[] internal _controllers;\n\n  // Mapping from operator to controller status. [GLOBAL - NOT TOKEN-HOLDER-SPECIFIC]\n  mapping(address => bool) internal _isController;\n  /************************************************************************************************/\n\n\n  /******************************** Partition operators mappings **********************************/\n  // Mapping from (partition, tokenHolder, spender) to allowed value. [TOKEN-HOLDER-SPECIFIC]\n  mapping(bytes32 => mapping (address => mapping (address => uint256))) internal _allowedByPartition;\n\n  // Mapping from (tokenHolder, partition, operator) to 'approved for partition' status. [TOKEN-HOLDER-SPECIFIC]\n  mapping (address => mapping (bytes32 => mapping (address => bool))) internal _authorizedOperatorByPartition;\n\n  // Mapping from partition to controllers for the partition. [NOT TOKEN-HOLDER-SPECIFIC]\n  mapping (bytes32 => address[]) internal _controllersByPartition;\n\n  // Mapping from (partition, operator) to PartitionController status. [NOT TOKEN-HOLDER-SPECIFIC]\n  mapping (bytes32 => mapping (address => bool)) internal _isControllerByPartition;\n  /************************************************************************************************/\n\n  \n\n  /***************************************** Modifiers ********************************************/\n  /**\n   * @dev Modifier to verify if token is issuable.\n   */\n  modifier isIssuableToken() {\n    require(_isIssuable, \"55\"); // 0x55\tfunds locked (lockup period)\n    _;\n  }\n  /**\n   * @dev Modifier to make a function callable only when the contract is not migrated.\n   */\n  modifier isNotMigratedToken() {\n      require(!_migrated, \"54\"); // 0x54\ttransfers halted (contract paused)\n      _;\n  }\n  \n  function _isAuthorized(address _customer) internal view returns(bool) {\n    CallerInterface callerInstance;\n    callerInstance = CallerInterface(whitelist);\n    return callerInstance.isAuthorized(_customer);\n  }\n  function changeWhitelist(address _whitelist) external onlyOwner {\n      whitelist = _whitelist;\n      emit WhitelistChanged(whitelist);\n  }\n  event WhitelistChanged(address _whitelist);\n  /************************************************************************************************/\n\n\n  /**************************** Events (additional - not mandatory) *******************************/\n  event ApprovalByPartition(bytes32 indexed partition, address indexed owner, address indexed spender, uint256 value);\n  /************************************************************************************************/\n\n\n  /**\n   * @dev Initialize ERC1400 + register the contract implementation in ERC1820Registry.\n   * @param name_ Name of the token.\n   * @param symbol_ Symbol of the token.\n   * @param granularity Granularity of the token.\n   * @param controllers Array of initial controllers.\n   * @param defaultPartitions Partitions chosen by default, when partition is\n   * not specified, like the case ERC20 tranfers.\n   */\n  constructor(\n    string memory name_,\n    string memory symbol_,\n    uint256 granularity,\n    address[] memory controllers,\n    bytes32[] memory defaultPartitions,\n    address _whitelist\n  \n  ) \n  {\n    _name = name_;\n    _symbol = symbol_;\n    _totalSupply = 0;\n    require(granularity >= 1); // Constructor Blocked - Token granularity can not be lower than 1\n    _granularity = granularity;\n\n    _setControllers(controllers);\n\n    _defaultPartitions = defaultPartitions;\n\n    _isControllable = true;\n    _isIssuable = true;\n    whitelist = _whitelist;\n    emit WhitelistChanged(whitelist);\n    // Register contract in ERC1820 registry\n\n\n    // Indicate token verifies ERC1400 and ERC20 interfaces\n   \n  }\n\n  \n  /************************************************************************************************/\n  /****************************** EXTERNAL FUNCTIONS (ERC20 INTERFACE) ****************************/\n  /************************************************************************************************/\n\n\n  /**\n   * @dev Get the total number of issued tokens.\n   * @return Total supply of tokens currently in circulation.\n   */\n  function totalSupply() external override view returns (uint256) {\n    return _totalSupply;\n  }\n  /**\n   * @dev Get the balance of the account with address 'tokenHolder'.\n   * @param tokenHolder Address for which the balance is returned.\n   * @return Amount of token held by 'tokenHolder' in the token contract.\n   */\n  function balanceOf(address tokenHolder) external override view returns (uint256) {\n    return _balances[tokenHolder];\n  }\n  /**\n   * @dev Transfer token for a specified address.\n   * @param to The address to transfer to.\n   * @param value The value to be transferred.\n   * @return A boolean that indicates if the operation was successful.\n   */\n  function transfer(address to, uint256 value) external override returns (bool) {\n    \n    _transferByDefaultPartitions(msg.sender, msg.sender, to, value, \"\");\n    return true;\n  }\n  /**\n   * @dev Check the value of tokens that an owner allowed to a spender.\n   * @param owner address The address which owns the funds.\n   * @param spender address The address which will spend the funds.\n   * @return A uint256 specifying the value of tokens still available for the spender.\n   */\n  function allowance(address owner, address spender) external override view returns (uint256) {\n    return _allowed[owner][spender];\n  }\n  /**\n   * @dev Approve the passed address to spend the specified amount of tokens on behalf of 'msg.sender'.\n   * @param spender The address which will spend the funds.\n   * @param value The amount of tokens to be spent.\n   * @return A boolean that indicates if the operation was successful.\n   */\n  function approve(address spender, uint256 value) external override returns (bool) {\n    require(spender != address(0), \"56\"); // 0x56\tinvalid sender\n    _allowed[msg.sender][spender] = value;\n    emit Approval(msg.sender, spender, value);\n    return true;\n  }\n  /**\n   * @dev Transfer tokens from one address to another.\n   * @param from The address which you want to transfer tokens from.\n   * @param to The address which you want to transfer to.\n   * @param value The amount of tokens to be transferred.\n   * @return A boolean that indicates if the operation was successful.\n   */\n  function transferFrom(address from, address to, uint256 value) external override returns (bool) {\n    \n    require( _isOperator(msg.sender, from)\n      || (value <= _allowed[from][msg.sender]), \"53\"); // 0x53\tinsufficient allowance\n\n    if(_allowed[from][msg.sender] >= value) {\n      _allowed[from][msg.sender] = _allowed[from][msg.sender].sub(value);\n    } else {\n      _allowed[from][msg.sender] = 0;\n    }\n\n    _transferByDefaultPartitions(msg.sender, from, to, value, \"\");\n    return true;\n  }\n\n\n  /************************************************************************************************/\n  /****************************** EXTERNAL FUNCTIONS (ERC1400 INTERFACE) **************************/\n  /************************************************************************************************/\n\n  function name() external view returns (string memory) {\n    return _name;\n  }\n\n  function symbol() external view returns (string memory) {\n    return _symbol;\n  }\n\n  /************************************* Document Management **************************************/\n  /**\n   * @dev Access a document associated with the token.\n   * @param name Short name (represented as a bytes32) associated to the document.\n   * @return Requested document + document hash.\n   */\n  function getDocument(bytes32 name) external override view returns (string memory, bytes32) {\n    require(bytes(_documents[name].docURI).length != 0); // Action Blocked - Empty document\n    return (\n      _documents[name].docURI,\n      _documents[name].docHash\n    );\n  }\n  /**\n   * @dev Associate a document with the token.\n   * @param name Short name (represented as a bytes32) associated to the document.\n   * @param uri Document content.\n   * @param documentHash Hash of the document [optional parameter].\n   */\n  function setDocument(bytes32 name, string calldata uri, bytes32 documentHash) external override {\n    require(_isController[msg.sender]);\n    _documents[name] = Doc({\n      docURI: uri,\n      docHash: documentHash\n    });\n    emit Document(name, uri, documentHash);\n  }\n  /************************************************************************************************/\n\n\n  /************************************** Token Information ***************************************/\n  /**\n   * @dev Get balance of a tokenholder for a specific partition.\n   * @param partition Name of the partition.\n   * @param tokenHolder Address for which the balance is returned.\n   * @return Amount of token of partition 'partition' held by 'tokenHolder' in the token contract.\n   */\n  function balanceOfByPartition(bytes32 partition, address tokenHolder) external override view returns (uint256) {\n    return _balanceOfByPartition[tokenHolder][partition];\n  }\n  /**\n   * @dev Get partitions index of a tokenholder.\n   * @param tokenHolder Address for which the partitions index are returned.\n   * @return Array of partitions index of 'tokenHolder'.\n   */\n  function partitionsOf(address tokenHolder) external override view returns (bytes32[] memory) {\n    return _partitionsOf[tokenHolder];\n  }\n  /************************************************************************************************/\n/****************************************** Transfers *******************************************/\n  /**\n   * @dev Transfer the amount of tokens from the address 'msg.sender' to the address 'to'.\n   * @param to Token recipient.\n   * @param value Number of tokens to transfer.\n   * @param data Information attached to the transfer, by the token holder.\n   */\n  function transferWithData(address to, uint256 value, bytes calldata data) external override {\n    \n    _transferByDefaultPartitions(msg.sender, msg.sender, to, value, data);\n  }\n  /**\n   * @dev Transfer the amount of tokens on behalf of the address 'from' to the address 'to'.\n   * @param from Token holder (or 'address(0)' to set from to 'msg.sender').\n   * @param to Token recipient.\n   * @param value Number of tokens to transfer.\n   * @param data Information attached to the transfer, and intended for the token holder ('from').\n   */\n  function transferFromWithData(address from, address to, uint256 value, bytes calldata data) external override {\n    \n    require( _isOperator(msg.sender, from)\n      || (value <= _allowed[from][msg.sender]), \"53\");// 0x58\tinvalid operator (transfer agent)\n\n    if(_allowed[from][msg.sender] >= value) {\n      _allowed[from][msg.sender] = _allowed[from][msg.sender].sub(value);\n    } else {\n      _allowed[from][msg.sender] = 0;\n    }\n\n    _transferByDefaultPartitions(msg.sender, from, to, value, data);\n  }\n  /************************************************************************************************/\n\n\n  /********************************** Partition Token Transfers ***********************************/\n  /**\n   * @dev Transfer tokens from a specific partition.\n   * @param partition Name of the partition.\n   * @param to Token recipient.\n   * @param value Number of tokens to transfer.\n   * @param data Information attached to the transfer, by the token holder.\n   * @return Destination partition.\n   */\n  function transferByPartition(\n    bytes32 partition,\n    address to,\n    uint256 value,\n    bytes calldata data\n  )\n    external override\n    returns (bytes32)\n  {\n  \n    return _transferByPartition(partition, msg.sender, msg.sender, to, value, data, \"\");\n  }\n  /**\n   * @dev Transfer tokens from a specific partition through an operator.\n   * @param partition Name of the partition.\n   * @param from Token holder.\n   * @param to Token recipient.\n   * @param value Number of tokens to transfer.\n   * @param data Information attached to the transfer. [CAN CONTAIN THE DESTINATION PARTITION]\n   * @param operatorData Information attached to the transfer, by the operator.\n   * @return Destination partition.\n   */\n  function operatorTransferByPartition(\n    bytes32 partition,\n    address from,\n    address to,\n    uint256 value,\n    bytes calldata data,\n    bytes calldata operatorData\n  )\n    external override\n    returns (bytes32)\n  {\n    \n    require(_isOperatorForPartition(partition, msg.sender, from)\n      || (value <= _allowedByPartition[partition][from][msg.sender]), \"53\"); // 0x53\tinsufficient allowance\n\n    if(_allowedByPartition[partition][from][msg.sender] >= value) {\n      _allowedByPartition[partition][from][msg.sender] = _allowedByPartition[partition][from][msg.sender].sub(value);\n    } else {\n      _allowedByPartition[partition][from][msg.sender] = 0;\n    }\n\n    return _transferByPartition(partition, msg.sender, from, to, value, data, operatorData);\n  }\n  /************************************************************************************************/\n   /******************************** Partition Token Allowances ************************************/\n  /**\n   * @dev Check the value of tokens that an owner allowed to a spender.\n   * @param partition Name of the partition.\n   * @param owner address The address which owns the funds.\n   * @param spender address The address which will spend the funds.\n   * @return A uint256 specifying the value of tokens still available for the spender.\n   */\n  function allowanceByPartition(bytes32 partition, address owner, address spender) external view returns (uint256) {\n    return _allowedByPartition[partition][owner][spender];\n  }\n  /**\n   * @dev Approve the passed address to spend the specified amount of tokens on behalf of 'msg.sender'.\n   * @param partition Name of the partition.\n   * @param spender The address which will spend the funds.\n   * @param value The amount of tokens to be spent.\n   * @return A boolean that indicates if the operation was successful.\n   */\n  function approveByPartition(bytes32 partition, address spender, uint256 value) external returns (bool) {\n    require(spender != address(0), \"56\"); // 0x56\tinvalid sender\n    _allowedByPartition[partition][msg.sender][spender] = value;\n    emit ApprovalByPartition(partition, msg.sender, spender, value);\n    return true;\n  }\n/**************************************** Token Issuance ****************************************/\n  /**\n   * @dev Know if new tokens can be issued in the future.\n   * @return bool 'true' if tokens can still be issued by the issuer, 'false' if they can't anymore.\n   */\n  function isIssuable() external override view returns (bool) {\n    return _isIssuable;\n  }\n  /**\n   * @dev Issue tokens from default partition.\n   * @param tokenHolder Address for which we want to issue tokens.\n   * @param value Number of tokens issued.\n   * @param data Information attached to the issuance, by the issuer.\n   */\n  function issue(address tokenHolder, uint256 value, bytes calldata data)\n    external override\n    onlyMinter\n    isIssuableToken\n  {\n    \n    require(_defaultPartitions.length != 0, \"55\"); // 0x55\tfunds locked (lockup period)\n    require(_isAuthorized(tokenHolder),\"Unauthorized Party.\");\n    _issueByPartition(_defaultPartitions[0], msg.sender, tokenHolder, value, data);\n  }\n  /**\n   * @dev Issue tokens from a specific partition.\n   * @param partition Name of the partition.\n   * @param tokenHolder Address for which we want to issue tokens.\n   * @param value Number of tokens issued.\n   * @param data Information attached to the issuance, by the issuer.\n   */\n  function issueByPartition(bytes32 partition, address tokenHolder, uint256 value, bytes calldata data)\n    external override\n    onlyMinter\n    isIssuableToken\n  {\n    \n    _issueByPartition(partition, msg.sender, tokenHolder, value, data);\n  }\n  /************************************************************************************************/\n  \n\n  /*************************************** Token Redemption ***************************************/\n  /**\n   * @dev Redeem the amount of tokens from the address 'msg.sender'.\n   * @param value Number of tokens to redeem.\n   * @param data Information attached to the redemption, by the token holder.\n   */\n  function redeem(uint256 value, bytes calldata data)\n    external override\n  {\n   \n    _redeemByDefaultPartitions(msg.sender, msg.sender, value, data);\n  }\n  /**\n   * @dev Redeem the amount of tokens on behalf of the address from.\n   * @param from Token holder whose tokens will be redeemed (or address(0) to set from to msg.sender).\n   * @param value Number of tokens to redeem.\n   * @param data Information attached to the redemption.\n   */\n  function redeemFrom(address from, uint256 value, bytes calldata data)\n    external override\n  {\n    \n    require(_isOperator(msg.sender, from), \"58\"); // 0x58\tinvalid operator (transfer agent)\n\n    _redeemByDefaultPartitions(msg.sender, from, value, data);\n  }\n  /**\n   * @dev Redeem tokens of a specific partition.\n   * @param partition Name of the partition.\n   * @param value Number of tokens redeemed.\n   * @param data Information attached to the redemption, by the redeemer.\n   */\n  function redeemByPartition(bytes32 partition, uint256 value, bytes calldata data)\n    external override\n  {\n   \n    _redeemByPartition(partition, msg.sender, msg.sender, value, data, \"\");\n  }\n  /**\n   * @dev Redeem tokens of a specific partition.\n   * @param partition Name of the partition.\n   * @param tokenHolder Address for which we want to redeem tokens.\n   * @param value Number of tokens redeemed\n   * @param operatorData Information attached to the redemption, by the operator.\n   */\n  function operatorRedeemByPartition(bytes32 partition, address tokenHolder, uint256 value, bytes calldata operatorData)\n    external override\n  {\n    \n    require(_isOperatorForPartition(partition, msg.sender, tokenHolder), \"58\"); // 0x58\tinvalid operator (transfer agent)\n\n    _redeemByPartition(partition, msg.sender, tokenHolder, value, \"\", operatorData);\n  }\n  /************************************************************************************************/\n\n\n /**************************************** Token Transfers ***************************************/\n  /**\n   * @dev Perform the transfer of tokens.\n   * @param from Token holder.\n   * @param to Token recipient.\n   * @param value Number of tokens to transfer.\n   */\n  function _transferWithData(\n    address from,\n    address to,\n    uint256 value\n  )\n    internal\n    isNotMigratedToken\n  {\n    \n    require(_isMultiple(value), \"50\"); // 0x50\ttransfer failure\n    require(to != address(0), \"57\"); // 0x57\tinvalid receiver\n    require(_balances[from] >= value, \"52\"); // 0x52\tinsufficient balance\n\n    _balances[from] = _balances[from].sub(value);\n    _balances[to] = _balances[to].add(value);\n\n    emit Transfer(from, to, value); // ERC20 retrocompatibility \n  }\n  /**\n   * @dev Transfer tokens from a specific partition.\n   * @param fromPartition Partition of the tokens to transfer.\n   * @param operator The address performing the transfer.\n   * @param from Token holder.\n   * @param to Token recipient.\n   * @param value Number of tokens to transfer.\n   * @param data Information attached to the transfer. [CAN CONTAIN THE DESTINATION PARTITION]\n   * @param operatorData Information attached to the transfer, by the operator (if any).\n   * @return Destination partition.\n   */\n  function _transferByPartition(\n    bytes32 fromPartition,\n    address operator,\n    address from,\n    address to,\n    uint256 value,\n    bytes memory data,\n    bytes memory operatorData\n  )\n    internal virtual\n    returns (bytes32)\n  {\n   \n    require(_balanceOfByPartition[from][fromPartition] >= value, \"52\"); // 0x52\tinsufficient balance\n    require(_isAuthorized(operator) && _isAuthorized(from) && _isAuthorized(to),\"Unauthorized Party.\");\n    bytes32 toPartition = fromPartition;\n\n    if(operatorData.length != 0 && data.length >= 64) {\n      toPartition = _getDestinationPartition(fromPartition, data);\n    }\n\n    //_callSenderExtension(fromPartition, operator, from, to, value, data, operatorData);\n    //_callTokenExtension(fromPartition, operator, from, to, value, data, operatorData);\n\n    _removeTokenFromPartition(from, fromPartition, value);\n    _transferWithData(from, to, value);\n    _addTokenToPartition(to, toPartition, value);\n\n    //_callRecipientExtension(toPartition, operator, from, to, value, data, operatorData);\n\n    emit TransferByPartition(fromPartition, operator, from, to, value, data, operatorData);\n\n    if(toPartition != fromPartition) {\n      emit ChangedPartition(fromPartition, toPartition, value);\n    }\n\n    return toPartition;\n  }\n  /**\n   * @dev Transfer tokens from default partitions.\n   * Function used for ERC20 retrocompatibility.\n   * @param operator The address performing the transfer.\n   * @param from Token holder.\n   * @param to Token recipient.\n   * @param value Number of tokens to transfer.\n   * @param data Information attached to the transfer, and intended for the token holder ('from') [CAN CONTAIN THE DESTINATION PARTITION].\n   */\n  function _transferByDefaultPartitions(\n    address operator,\n    address from,\n    address to,\n    uint256 value,\n    bytes memory data\n  )\n    internal\n  {\n    \n    require(_defaultPartitions.length != 0, \"55\"); // // 0x55\tfunds locked (lockup period)\n    uint256 _remainingValue = value;\n    uint256 _localBalance;\n\n    for (uint i = 0; i < _defaultPartitions.length; i++) {\n      _localBalance = _balanceOfByPartition[from][_defaultPartitions[i]];\n      if(_remainingValue <= _localBalance) {\n        _transferByPartition(_defaultPartitions[i], operator, from, to, _remainingValue, data, \"\");\n        _remainingValue = 0;\n        break;\n      } else if (_localBalance != 0) {\n        _transferByPartition(_defaultPartitions[i], operator, from, to, _localBalance, data, \"\");\n        _remainingValue = _remainingValue - _localBalance;\n      }\n    }\n\n    require(_remainingValue == 0, \"52\"); // 0x52\tinsufficient balance\n  }\n  /**\n   * @dev Retrieve the destination partition from the 'data' field.\n   * By convention, a partition change is requested ONLY when 'data' starts\n   * with the flag: 0xffffffffffffffffffffffffffffffffffffffffffffffffffffffffffffffff\n   * When the flag is detected, the destination tranche is extracted from the\n   * 32 bytes following the flag.\n   * @param fromPartition Partition of the tokens to transfer.\n   * @param data Information attached to the transfer. [CAN CONTAIN THE DESTINATION PARTITION]\n   * @return toPartition  Destination partition.\n   */\n  function _getDestinationPartition(bytes32 fromPartition, bytes memory data) internal pure returns(bytes32 toPartition) {\n    bytes32 changePartitionFlag = 0xffffffffffffffffffffffffffffffffffffffffffffffffffffffffffffffff;\n    bytes32 flag;\n    assembly {\n      flag := mload(add(data, 32))\n    }\n    if(flag == changePartitionFlag) {\n      assembly {\n        toPartition := mload(add(data, 64))\n      }\n    } else {\n      toPartition = fromPartition;\n    }\n  }\n  /**\n   * @dev Remove a token from a specific partition.\n   * @param from Token holder.\n   * @param partition Name of the partition.\n   * @param value Number of tokens to transfer.\n   */\n  function _removeTokenFromPartition(address from, bytes32 partition, uint256 value) internal {\n    _balanceOfByPartition[from][partition] = _balanceOfByPartition[from][partition].sub(value);\n    _totalSupplyByPartition[partition] = _totalSupplyByPartition[partition].sub(value);\n\n    // If the total supply is zero, finds and deletes the partition.\n    if(_totalSupplyByPartition[partition] == 0) {\n      uint256 index1 = _indexOfTotalPartitions[partition];\n      require(index1 > 0, \"50\"); // 0x50\ttransfer failure\n\n      // move the last item into the index being vacated\n      bytes32 lastValue = _totalPartitions[_totalPartitions.length - 1];\n      _totalPartitions[index1 - 1] = lastValue; // adjust for 1-based indexing\n      delete _totalPartitions[_totalPartitions.length -1];\n      _indexOfTotalPartitions[lastValue] = index1;\n\n      //_totalPartitions.length -= 1;\n      _indexOfTotalPartitions[partition] = 0;\n    }\n\n    // If the balance of the TokenHolder's partition is zero, finds and deletes the partition.\n    if(_balanceOfByPartition[from][partition] == 0) {\n      uint256 index2 = _indexOfPartitionsOf[from][partition];\n      require(index2 > 0, \"50\"); // 0x50\ttransfer failure\n\n      // move the last item into the index being vacated\n      bytes32 lastValue = _partitionsOf[from][_partitionsOf[from].length - 1];\n      _partitionsOf[from][index2 - 1] = lastValue;  // adjust for 1-based indexing\n      delete _partitionsOf[from][_partitionsOf[from].length -1];\n      _indexOfPartitionsOf[from][lastValue] = index2;\n\n      //_partitionsOf[from].length -= 1;\n      _indexOfPartitionsOf[from][partition] = 0;\n    }\n  }\n  /**\n   * @dev Add a token to a specific partition.\n   * @param to Token recipient.\n   * @param partition Name of the partition.\n   * @param value Number of tokens to transfer.\n   */\n  function _addTokenToPartition(address to, bytes32 partition, uint256 value) internal {\n    if(value != 0) {\n      if (_indexOfPartitionsOf[to][partition] == 0) {\n        _partitionsOf[to].push(partition);\n        _indexOfPartitionsOf[to][partition] = _partitionsOf[to].length;\n      }\n      _balanceOfByPartition[to][partition] = _balanceOfByPartition[to][partition].add(value);\n\n      if (_indexOfTotalPartitions[partition] == 0) {\n        _totalPartitions.push(partition);\n        _indexOfTotalPartitions[partition] = _totalPartitions.length;\n      }\n      _totalSupplyByPartition[partition] = _totalSupplyByPartition[partition].add(value);\n    }\n  }\n  /**\n   * @dev Check if 'value' is multiple of the granularity.\n   * @param value The quantity that want's to be checked.\n   * @return 'true' if 'value' is a multiple of the granularity.\n   */\n  function _isMultiple(uint256 value) internal view returns(bool) {\n    return(value.div(_granularity).mul(_granularity) == value);\n  }\n\n\n/************************************ Token controllers *****************************************/\n  /**\n   * @dev Get the list of controllers as defined by the token contract.\n   * @return List of addresses of all the controllers.\n   */\n  function controllers() external view returns (address[] memory) {\n    return _controllers;\n  }\n  /**\n   * @dev Get controllers for a given partition.\n   * @param partition Name of the partition.\n   * @return Array of controllers for partition.\n   */\n  function controllersByPartition(bytes32 partition) external view returns (address[] memory) {\n    return _controllersByPartition[partition];\n  }\n  /**\n   * @dev Set list of token controllers.\n   * @param operators Controller addresses.\n   */\n  function setControllers(address[] calldata operators) external onlyOwner {\n    _setControllers(operators);\n  }\n  /**\n   * @dev Set list of token partition controllers.\n   * @param partition Name of the partition.\n   * @param operators Controller addresses.\n   */\n   function setPartitionControllers(bytes32 partition, address[] calldata operators) external onlyOwner {\n     _setPartitionControllers(partition, operators);\n   }\n  /************************************ Token controllers *****************************************/\n  /**\n   * @dev Set list of token controllers.\n   * @param operators Controller addresses.\n   */\n  function _setControllers(address[] memory operators) internal {\n    for (uint i = 0; i<_controllers.length; i++){\n      _isController[_controllers[i]] = false;\n    }\n    for (uint j = 0; j<operators.length; j++){\n      _isController[operators[j]] = true;\n    }\n    _controllers = operators;\n  }\n  /**\n   * @dev Set list of token partition controllers.\n   * @param partition Name of the partition.\n   * @param operators Controller addresses.\n   */\n   function _setPartitionControllers(bytes32 partition, address[] memory operators) internal {\n     for (uint i = 0; i<_controllersByPartition[partition].length; i++){\n       _isControllerByPartition[partition][_controllersByPartition[partition][i]] = false;\n     }\n     for (uint j = 0; j<operators.length; j++){\n       _isControllerByPartition[partition][operators[j]] = true;\n     }\n     _controllersByPartition[partition] = operators;\n   }\n  /************************************************************************************************/\n\n\n  /**************************************** Token behaviours **************************************/\n  /**\n   * @dev Definitely renounce the possibility to control tokens on behalf of tokenHolders.\n   * Once set to false, '_isControllable' can never be set to 'true' again.\n   */\n  function renounceControl() external onlyOwner {\n    _isControllable = false;\n  }\n  /**\n   * @dev Definitely renounce the possibility to issue new tokens.\n   * Once set to false, '_isIssuable' can never be set to 'true' again.\n   */\n  function renounceIssuance() external onlyOwner {\n    _isIssuable = false;\n  }\n  /************************************* Operator Information *************************************/\n  /**\n   * @dev Indicate whether the operator address is an operator of the tokenHolder address.\n   * @param operator Address which may be an operator of 'tokenHolder'.\n   * @param tokenHolder Address of a token holder which may have the 'operator' address as an operator.\n   * @return 'true' if 'operator' is an operator of 'tokenHolder' and 'false' otherwise.\n   */\n  function _isOperator(address operator, address tokenHolder) internal view returns (bool) {\n    return (operator == tokenHolder\n      || _authorizedOperator[operator][tokenHolder]\n      || (_isControllable && _isController[operator])\n    );\n  }\n  /**\n   * @dev Indicate whether the operator address is an operator of the tokenHolder\n   * address for the given partition.\n   * @param partition Name of the partition.\n   * @param operator Address which may be an operator of tokenHolder for the given partition.\n   * @param tokenHolder Address of a token holder which may have the operator address as an operator for the given partition.\n   * @return 'true' if 'operator' is an operator of 'tokenHolder' for partition 'partition' and 'false' otherwise.\n   */\n   function _isOperatorForPartition(bytes32 partition, address operator, address tokenHolder) internal view returns (bool) {\n     return (_isOperator(operator, tokenHolder)\n       || _authorizedOperatorByPartition[tokenHolder][partition][operator]\n       || (_isControllable && _isControllerByPartition[partition][operator])\n     );\n   }\n\n\n  /************************************* Controller Operation *************************************/\n  /**\n   * @dev Know if the token can be controlled by operators.\n   * If a token returns 'false' for 'isControllable()'' then it MUST always return 'false' in the future.\n   * @return bool 'true' if the token can still be controlled by operators, 'false' if it can't anymore.\n   */\n  function isControllable() external override view returns (bool) {\n    return _isControllable;\n  }\n  /************************************************************************************************/\n\n\n  /************************************* Operator Management **************************************/\n  /**\n   * @dev Set a third party operator address as an operator of 'msg.sender' to transfer\n   * and redeem tokens on its behalf.\n   * @param operator Address to set as an operator for 'msg.sender'.\n   */\n  function authorizeOperator(address operator) external override {\n    require(operator != msg.sender);\n    _authorizedOperator[operator][msg.sender] = true;\n    emit AuthorizedOperator(operator, msg.sender);\n  }\n  /**\n   * @dev Remove the right of the operator address to be an operator for 'msg.sender'\n   * and to transfer and redeem tokens on its behalf.\n   * @param operator Address to rescind as an operator for 'msg.sender'.\n   */\n  function revokeOperator(address operator) external override {\n    require(operator != msg.sender);\n    _authorizedOperator[operator][msg.sender] = false;\n    emit RevokedOperator(operator, msg.sender);\n  }\n  /**\n   * @dev Set 'operator' as an operator for 'msg.sender' for a given partition.\n   * @param partition Name of the partition.\n   * @param operator Address to set as an operator for 'msg.sender'.\n   */\n  function authorizeOperatorByPartition(bytes32 partition, address operator) external override {\n    _authorizedOperatorByPartition[msg.sender][partition][operator] = true;\n    emit AuthorizedOperatorByPartition(partition, operator, msg.sender);\n  }\n  /**\n   * @dev Remove the right of the operator address to be an operator on a given\n   * partition for 'msg.sender' and to transfer and redeem tokens on its behalf.\n   * @param partition Name of the partition.\n   * @param operator Address to rescind as an operator on given partition for 'msg.sender'.\n   */\n  function revokeOperatorByPartition(bytes32 partition, address operator) external override {\n    _authorizedOperatorByPartition[msg.sender][partition][operator] = false;\n    emit RevokedOperatorByPartition(partition, operator, msg.sender);\n  }\n  /************************************************************************************************/\n\n\n  /************************************* Operator Information *************************************/\n  /**\n   * @dev Indicate whether the operator address is an operator of the tokenHolder address.\n   * @param operator Address which may be an operator of tokenHolder.\n   * @param tokenHolder Address of a token holder which may have the operator address as an operator.\n   * @return 'true' if operator is an operator of 'tokenHolder' and 'false' otherwise.\n   */\n  function isOperator(address operator, address tokenHolder) external override view returns (bool) {\n    return _isOperator(operator, tokenHolder);\n  }\n  /**\n   * @dev Indicate whether the operator address is an operator of the tokenHolder\n   * address for the given partition.\n   * @param partition Name of the partition.\n   * @param operator Address which may be an operator of tokenHolder for the given partition.\n   * @param tokenHolder Address of a token holder which may have the operator address as an operator for the given partition.\n   * @return 'true' if 'operator' is an operator of 'tokenHolder' for partition 'partition' and 'false' otherwise.\n   */\n  function isOperatorForPartition(bytes32 partition, address operator, address tokenHolder) external override view returns (bool) {\n    return _isOperatorForPartition(partition, operator, tokenHolder);\n  }\n  /************************************************************************************************/\n\n\n  \n\n     /**************************************** Token Issuance ****************************************/\n  /**\n   * @dev Perform the issuance of tokens.\n   * @param operator Address which triggered the issuance.\n   * @param to Token recipient.\n   * @param value Number of tokens issued.\n   * @param data Information attached to the issuance, and intended for the recipient (to).\n   */\n  function _issue(address operator, address to, uint256 value, bytes memory data)\n    internal\n    isNotMigratedToken  \n  {\n    require(_isAuthorized(operator) && _isAuthorized(to),\"Unauthorized Party.\");\n    require(_isMultiple(value), \"50\"); // 0x50\ttransfer failure\n    require(to != address(0), \"57\"); // 0x57\tinvalid receiver\n\n    _totalSupply = _totalSupply.add(value);\n    _balances[to] = _balances[to].add(value);\n\n    emit Issued(operator, to, value, data);\n    emit Transfer(address(0), to, value); // ERC20 retrocompatibility\n  }\n  /**\n   * @dev Issue tokens from a specific partition.\n   * @param toPartition Name of the partition.\n   * @param operator The address performing the issuance.\n   * @param to Token recipient.\n   * @param value Number of tokens to issue.\n   * @param data Information attached to the issuance.\n   */\n  function _issueByPartition(\n    bytes32 toPartition,\n    address operator,\n    address to,\n    uint256 value,\n    bytes memory data\n  )\n    internal\n  {\n    require(_isAuthorized(operator) && _isAuthorized(to),\"Unauthorized Party.\");\n    //_callTokenExtension(toPartition, operator, address(0), to, value, data, \"\");\n\n    _issue(operator, to, value, data);\n    _addTokenToPartition(to, toPartition, value);\n\n    //_callRecipientExtension(toPartition, operator, address(0), to, value, data, \"\");\n\n    emit IssuedByPartition(toPartition, operator, to, value, data, \"\");\n  }\n  /************************************************************************************************/\n\n\n  /*************************************** Token Redemption ***************************************/\n  /**\n   * @dev Perform the token redemption.\n   * @param operator The address performing the redemption.\n   * @param from Token holder whose tokens will be redeemed.\n   * @param value Number of tokens to redeem.\n   * @param data Information attached to the redemption.\n   */\n  function _redeem(address operator, address from, uint256 value, bytes memory data)\n    internal\n    isNotMigratedToken\n  {\n    require(_isAuthorized(operator) && _isAuthorized(from),\"Unauthorized Party.\");\n    require(_isMultiple(value), \"50\"); // 0x50\ttransfer failure\n    require(from != address(0), \"56\"); // 0x56\tinvalid sender\n    require(_balances[from] >= value, \"52\"); // 0x52\tinsufficient balance\n\n    _balances[from] = _balances[from].sub(value);\n    _totalSupply = _totalSupply.sub(value);\n\n    emit Redeemed(operator, from, value, data);\n    emit Transfer(from, address(0), value);  // ERC20 retrocompatibility\n  }\n  /**\n   * @dev Redeem tokens of a specific partition.\n   * @param fromPartition Name of the partition.\n   * @param operator The address performing the redemption.\n   * @param from Token holder whose tokens will be redeemed.\n   * @param value Number of tokens to redeem.\n   * @param data Information attached to the redemption.\n   * @param operatorData Information attached to the redemption, by the operator (if any).\n   */\n  function _redeemByPartition(\n    bytes32 fromPartition,\n    address operator,\n    address from,\n    uint256 value,\n    bytes memory data,\n    bytes memory operatorData\n  )\n    internal\n  {\n    require(_isAuthorized(operator) && _isAuthorized(from),\"Unauthorized Party.\");\n    require(_balanceOfByPartition[from][fromPartition] >= value, \"52\"); // 0x52\tinsufficient balance\n\n    //_callSenderExtension(fromPartition, operator, from, address(0), value, data, operatorData);\n    //_callTokenExtension(fromPartition, operator, from, address(0), value, data, operatorData);\n\n    _removeTokenFromPartition(from, fromPartition, value);\n    _redeem(operator, from, value, data);\n\n    emit RedeemedByPartition(fromPartition, operator, from, value, operatorData);\n  }\n  /**\n   * @dev Redeem tokens from a default partitions.\n   * @param operator The address performing the redeem.\n   * @param from Token holder.\n   * @param value Number of tokens to redeem.\n   * @param data Information attached to the redemption.\n   */\n  function _redeemByDefaultPartitions(\n    address operator,\n    address from,\n    uint256 value,\n    bytes memory data\n  )\n    internal\n  {\n    require(_isAuthorized(operator) && _isAuthorized(from),\"Unauthorized Party.\");\n    require(_defaultPartitions.length != 0, \"55\"); // 0x55\tfunds locked (lockup period)\n\n    uint256 _remainingValue = value;\n    uint256 _localBalance;\n\n    for (uint i = 0; i < _defaultPartitions.length; i++) {\n      _localBalance = _balanceOfByPartition[from][_defaultPartitions[i]];\n      if(_remainingValue <= _localBalance) {\n        _redeemByPartition(_defaultPartitions[i], operator, from, _remainingValue, data, \"\");\n        _remainingValue = 0;\n        break;\n      } else {\n        _redeemByPartition(_defaultPartitions[i], operator, from, _localBalance, data, \"\");\n        _remainingValue = _remainingValue - _localBalance;\n      }\n    }\n\n    require(_remainingValue == 0, \"52\"); // 0x52\tinsufficient balance\n  }\n  /************************************************************************************************/\n\n      /********************************* Token default partitions *************************************/\n  /**\n   * @dev Get default partitions to transfer from.\n   * Function used for ERC20 retrocompatibility.\n   * For example, a security token may return the bytes32(\"unrestricted\").\n   * @return Array of default partitions.\n   */\n  function getDefaultPartitions() external view returns (bytes32[] memory) {\n    return _defaultPartitions;\n  }\n  /**\n   * @dev Set default partitions to transfer from.\n   * Function used for ERC20 retrocompatibility.\n   * @param partitions partitions to use by default when not specified.\n   */\n  function setDefaultPartitions(bytes32[] calldata partitions) external onlyOwner {\n    _defaultPartitions = partitions;\n  }\n\n}\n",
  "sourcePath": "contracts/Token/ERC1400.sol",
  "type": "contract"
}