{
  "abi": [
    {
      "anonymous": false,
      "inputs": [
        {
          "indexed": false,
          "internalType": "address",
          "name": "callerAddress",
          "type": "address"
        },
        {
          "indexed": false,
          "internalType": "uint256",
          "name": "id",
          "type": "uint256"
        },
        {
          "indexed": false,
          "internalType": "address",
          "name": "customer",
          "type": "address"
        }
      ],
      "name": "GetKYCEvent",
      "type": "event"
    },
    {
      "anonymous": false,
      "inputs": [
        {
          "indexed": true,
          "internalType": "address",
          "name": "previousOwner",
          "type": "address"
        },
        {
          "indexed": true,
          "internalType": "address",
          "name": "newOwner",
          "type": "address"
        }
      ],
      "name": "OwnershipTransferred",
      "type": "event"
    },
    {
      "anonymous": false,
      "inputs": [
        {
          "indexed": false,
          "internalType": "bool",
          "name": "isKYC",
          "type": "bool"
        },
        {
          "indexed": false,
          "internalType": "address",
          "name": "callerAddress",
          "type": "address"
        },
        {
          "indexed": false,
          "internalType": "address",
          "name": "customer",
          "type": "address"
        },
        {
          "indexed": false,
          "internalType": "uint256",
          "name": "customerId",
          "type": "uint256"
        }
      ],
      "name": "SetKYCEvent",
      "type": "event"
    },
    {
      "inputs": [
        {
          "internalType": "address",
          "name": "_customer",
          "type": "address"
        }
      ],
      "name": "getKYC",
      "outputs": [
        {
          "internalType": "uint256",
          "name": "",
          "type": "uint256"
        }
      ],
      "stateMutability": "nonpayable",
      "type": "function"
    },
    {
      "inputs": [],
      "name": "owner",
      "outputs": [
        {
          "internalType": "address",
          "name": "",
          "type": "address"
        }
      ],
      "stateMutability": "view",
      "type": "function"
    },
    {
      "inputs": [],
      "name": "renounceOwnership",
      "outputs": [],
      "stateMutability": "nonpayable",
      "type": "function"
    },
    {
      "inputs": [
        {
          "internalType": "bool",
          "name": "_isKYC",
          "type": "bool"
        },
        {
          "internalType": "uint256",
          "name": "_customerId",
          "type": "uint256"
        },
        {
          "internalType": "address",
          "name": "_callerAddress",
          "type": "address"
        },
        {
          "internalType": "uint256",
          "name": "_id",
          "type": "uint256"
        },
        {
          "internalType": "address",
          "name": "_customer",
          "type": "address"
        }
      ],
      "name": "setKYC",
      "outputs": [],
      "stateMutability": "nonpayable",
      "type": "function"
    },
    {
      "inputs": [
        {
          "internalType": "address",
          "name": "newOwner",
          "type": "address"
        }
      ],
      "name": "transferOwnership",
      "outputs": [],
      "stateMutability": "nonpayable",
      "type": "function"
    }
  ],
  "bytecode": "608060405260006001556103e860025534801561001b57600080fd5b506100253361002a565b61007a565b600080546001600160a01b038381166001600160a01b0319831681178455604051919092169283917f8be0079c531659141344cd1fd0a4f28419497f9722a3daafe3b4186f6b6457e09190a35050565b61055a806100896000396000f3fe608060405234801561001057600080fd5b50600436106100575760003560e01c80634d1a687d1461005c578063715018a6146100825780638da5cb5b1461008c578063f2fde38b146100a7578063f6cfe581146100ba575b600080fd5b61006f61006a366004610424565b6100cd565b6040519081526020015b60405180910390f35b61008a6101b4565b005b6000546040516001600160a01b039091168152602001610079565b61008a6100b5366004610424565b6101f3565b61008a6100c8366004610446565b61028e565b60018054600091826100de836104d9565b9190505550600060025442336001546040516020016101229392919092835260609190911b6bffffffffffffffffffffffff19166020830152603482015260540190565b6040516020818303038152906040528051906020012060001c6101459190610502565b600081815260036020908152604091829020805460ff1916600117905581513381529081018390526001600160a01b038616918101919091529091507f2f11752a78f42d29f99212b37fa1798c30e13941d158100c1a72f3de3b82afeb9060600160405180910390a192915050565b6000546001600160a01b031633146101e75760405162461bcd60e51b81526004016101de906104a4565b60405180910390fd5b6101f160006103b8565b565b6000546001600160a01b0316331461021d5760405162461bcd60e51b81526004016101de906104a4565b6001600160a01b0381166102825760405162461bcd60e51b815260206004820152602660248201527f4f776e61626c653a206e6577206f776e657220697320746865207a65726f206160448201526564647265737360d01b60648201526084016101de565b61028b816103b8565b50565b6000546001600160a01b031633146102b85760405162461bcd60e51b81526004016101de906104a4565b60008281526003602052604090205460ff166102d357600080fd5b60008281526003602052604090819020805460ff1916905551630377be6b60e61b81526004810185905285151560248201526001600160a01b0382811660448301526064820184905284919082169063ddef9ac090608401600060405180830381600087803b15801561034557600080fd5b505af1158015610359573d6000803e3d6000fd5b50506040805189151581526001600160a01b0388811660208301528616818301526060810189905290517f0453f80d195908f6ad58e9a5122d5c46e7bef1167ec036d8b7d602292e2b8f779350908190036080019150a1505050505050565b600080546001600160a01b038381166001600160a01b0319831681178455604051919092169283917f8be0079c531659141344cd1fd0a4f28419497f9722a3daafe3b4186f6b6457e09190a35050565b80356001600160a01b038116811461041f57600080fd5b919050565b60006020828403121561043657600080fd5b61043f82610408565b9392505050565b600080600080600060a0868803121561045e57600080fd5b8535801515811461046e57600080fd5b94506020860135935061048360408701610408565b92506060860135915061049860808701610408565b90509295509295909350565b6020808252818101527f4f776e61626c653a2063616c6c6572206973206e6f7420746865206f776e6572604082015260600190565b60006000198214156104fb57634e487b7160e01b600052601160045260246000fd5b5060010190565b60008261051f57634e487b7160e01b600052601260045260246000fd5b50069056fea2646970667358221220ae93546747333a49d0183f007c57ab09f102702ccf10652d761f9b2fc0b5e0da64736f6c63430008070033",
  "bytecodeSha1": "510e348214299b2055020d342577045f53ab8415",
  "compiler": {
    "evm_version": "istanbul",
    "optimizer": {
      "enabled": true,
      "runs": 200
    },
    "version": "0.8.7+commit.e28d00a7"
  },
  "contractName": "KYCOracle",
  "language": "Solidity",
  "natspec": {
    "kind": "dev",
    "methods": {
      "owner()": {
        "details": "Returns the address of the current owner."
      },
      "renounceOwnership()": {
        "details": "Leaves the contract without owner. It will not be possible to call `onlyOwner` functions anymore. Can only be called by the current owner. NOTE: Renouncing ownership will leave the contract without an owner, thereby removing any functionality that is only available to the owner."
      },
      "transferOwnership(address)": {
        "details": "Transfers ownership of the contract to a new account (`newOwner`). Can only be called by the current owner."
      }
    },
    "version": 1
  },
  "opcodes": "PUSH1 0x80 PUSH1 0x40 MSTORE CALLVALUE DUP1 ISZERO PUSH2 0x10 JUMPI PUSH1 0x0 DUP1 REVERT JUMPDEST POP PUSH1 0x4 CALLDATASIZE LT PUSH2 0x57 JUMPI PUSH1 0x0 CALLDATALOAD PUSH1 0xE0 SHR DUP1 PUSH4 0x4D1A687D EQ PUSH2 0x5C JUMPI DUP1 PUSH4 0x715018A6 EQ PUSH2 0x82 JUMPI DUP1 PUSH4 0x8DA5CB5B EQ PUSH2 0x8C JUMPI DUP1 PUSH4 0xF2FDE38B EQ PUSH2 0xA7 JUMPI DUP1 PUSH4 0xF6CFE581 EQ PUSH2 0xBA JUMPI JUMPDEST PUSH1 0x0 DUP1 REVERT JUMPDEST PUSH2 0x6F PUSH2 0x6A CALLDATASIZE PUSH1 0x4 PUSH2 0x424 JUMP JUMPDEST PUSH2 0xCD JUMP JUMPDEST PUSH1 0x40 MLOAD SWAP1 DUP2 MSTORE PUSH1 0x20 ADD JUMPDEST PUSH1 0x40 MLOAD DUP1 SWAP2 SUB SWAP1 RETURN JUMPDEST PUSH2 0x8A PUSH2 0x1B4 JUMP JUMPDEST STOP JUMPDEST PUSH1 0x0 SLOAD PUSH1 0x40 MLOAD PUSH1 0x1 PUSH1 0x1 PUSH1 0xA0 SHL SUB SWAP1 SWAP2 AND DUP2 MSTORE PUSH1 0x20 ADD PUSH2 0x79 JUMP JUMPDEST PUSH2 0x8A PUSH2 0xB5 CALLDATASIZE PUSH1 0x4 PUSH2 0x424 JUMP JUMPDEST PUSH2 0x1F3 JUMP JUMPDEST PUSH2 0x8A PUSH2 0xC8 CALLDATASIZE PUSH1 0x4 PUSH2 0x446 JUMP JUMPDEST PUSH2 0x28E JUMP JUMPDEST PUSH1 0x1 DUP1 SLOAD PUSH1 0x0 SWAP2 DUP3 PUSH2 0xDE DUP4 PUSH2 0x4D9 JUMP JUMPDEST SWAP2 SWAP1 POP SSTORE POP PUSH1 0x0 PUSH1 0x2 SLOAD TIMESTAMP CALLER PUSH1 0x1 SLOAD PUSH1 0x40 MLOAD PUSH1 0x20 ADD PUSH2 0x122 SWAP4 SWAP3 SWAP2 SWAP1 SWAP3 DUP4 MSTORE PUSH1 0x60 SWAP2 SWAP1 SWAP2 SHL PUSH12 0xFFFFFFFFFFFFFFFFFFFFFFFF NOT AND PUSH1 0x20 DUP4 ADD MSTORE PUSH1 0x34 DUP3 ADD MSTORE PUSH1 0x54 ADD SWAP1 JUMP JUMPDEST PUSH1 0x40 MLOAD PUSH1 0x20 DUP2 DUP4 SUB SUB DUP2 MSTORE SWAP1 PUSH1 0x40 MSTORE DUP1 MLOAD SWAP1 PUSH1 0x20 ADD KECCAK256 PUSH1 0x0 SHR PUSH2 0x145 SWAP2 SWAP1 PUSH2 0x502 JUMP JUMPDEST PUSH1 0x0 DUP2 DUP2 MSTORE PUSH1 0x3 PUSH1 0x20 SWAP1 DUP2 MSTORE PUSH1 0x40 SWAP2 DUP3 SWAP1 KECCAK256 DUP1 SLOAD PUSH1 0xFF NOT AND PUSH1 0x1 OR SWAP1 SSTORE DUP2 MLOAD CALLER DUP2 MSTORE SWAP1 DUP2 ADD DUP4 SWAP1 MSTORE PUSH1 0x1 PUSH1 0x1 PUSH1 0xA0 SHL SUB DUP7 AND SWAP2 DUP2 ADD SWAP2 SWAP1 SWAP2 MSTORE SWAP1 SWAP2 POP PUSH32 0x2F11752A78F42D29F99212B37FA1798C30E13941D158100C1A72F3DE3B82AFEB SWAP1 PUSH1 0x60 ADD PUSH1 0x40 MLOAD DUP1 SWAP2 SUB SWAP1 LOG1 SWAP3 SWAP2 POP POP JUMP JUMPDEST PUSH1 0x0 SLOAD PUSH1 0x1 PUSH1 0x1 PUSH1 0xA0 SHL SUB AND CALLER EQ PUSH2 0x1E7 JUMPI PUSH1 0x40 MLOAD PUSH3 0x461BCD PUSH1 0xE5 SHL DUP2 MSTORE PUSH1 0x4 ADD PUSH2 0x1DE SWAP1 PUSH2 0x4A4 JUMP JUMPDEST PUSH1 0x40 MLOAD DUP1 SWAP2 SUB SWAP1 REVERT JUMPDEST PUSH2 0x1F1 PUSH1 0x0 PUSH2 0x3B8 JUMP JUMPDEST JUMP JUMPDEST PUSH1 0x0 SLOAD PUSH1 0x1 PUSH1 0x1 PUSH1 0xA0 SHL SUB AND CALLER EQ PUSH2 0x21D JUMPI PUSH1 0x40 MLOAD PUSH3 0x461BCD PUSH1 0xE5 SHL DUP2 MSTORE PUSH1 0x4 ADD PUSH2 0x1DE SWAP1 PUSH2 0x4A4 JUMP JUMPDEST PUSH1 0x1 PUSH1 0x1 PUSH1 0xA0 SHL SUB DUP2 AND PUSH2 0x282 JUMPI PUSH1 0x40 MLOAD PUSH3 0x461BCD PUSH1 0xE5 SHL DUP2 MSTORE PUSH1 0x20 PUSH1 0x4 DUP3 ADD MSTORE PUSH1 0x26 PUSH1 0x24 DUP3 ADD MSTORE PUSH32 0x4F776E61626C653A206E6577206F776E657220697320746865207A65726F2061 PUSH1 0x44 DUP3 ADD MSTORE PUSH6 0x646472657373 PUSH1 0xD0 SHL PUSH1 0x64 DUP3 ADD MSTORE PUSH1 0x84 ADD PUSH2 0x1DE JUMP JUMPDEST PUSH2 0x28B DUP2 PUSH2 0x3B8 JUMP JUMPDEST POP JUMP JUMPDEST PUSH1 0x0 SLOAD PUSH1 0x1 PUSH1 0x1 PUSH1 0xA0 SHL SUB AND CALLER EQ PUSH2 0x2B8 JUMPI PUSH1 0x40 MLOAD PUSH3 0x461BCD PUSH1 0xE5 SHL DUP2 MSTORE PUSH1 0x4 ADD PUSH2 0x1DE SWAP1 PUSH2 0x4A4 JUMP JUMPDEST PUSH1 0x0 DUP3 DUP2 MSTORE PUSH1 0x3 PUSH1 0x20 MSTORE PUSH1 0x40 SWAP1 KECCAK256 SLOAD PUSH1 0xFF AND PUSH2 0x2D3 JUMPI PUSH1 0x0 DUP1 REVERT JUMPDEST PUSH1 0x0 DUP3 DUP2 MSTORE PUSH1 0x3 PUSH1 0x20 MSTORE PUSH1 0x40 SWAP1 DUP2 SWAP1 KECCAK256 DUP1 SLOAD PUSH1 0xFF NOT AND SWAP1 SSTORE MLOAD PUSH4 0x377BE6B PUSH1 0xE6 SHL DUP2 MSTORE PUSH1 0x4 DUP2 ADD DUP6 SWAP1 MSTORE DUP6 ISZERO ISZERO PUSH1 0x24 DUP3 ADD MSTORE PUSH1 0x1 PUSH1 0x1 PUSH1 0xA0 SHL SUB DUP3 DUP2 AND PUSH1 0x44 DUP4 ADD MSTORE PUSH1 0x64 DUP3 ADD DUP5 SWAP1 MSTORE DUP5 SWAP2 SWAP1 DUP3 AND SWAP1 PUSH4 0xDDEF9AC0 SWAP1 PUSH1 0x84 ADD PUSH1 0x0 PUSH1 0x40 MLOAD DUP1 DUP4 SUB DUP2 PUSH1 0x0 DUP8 DUP1 EXTCODESIZE ISZERO DUP1 ISZERO PUSH2 0x345 JUMPI PUSH1 0x0 DUP1 REVERT JUMPDEST POP GAS CALL ISZERO DUP1 ISZERO PUSH2 0x359 JUMPI RETURNDATASIZE PUSH1 0x0 DUP1 RETURNDATACOPY RETURNDATASIZE PUSH1 0x0 REVERT JUMPDEST POP POP PUSH1 0x40 DUP1 MLOAD DUP10 ISZERO ISZERO DUP2 MSTORE PUSH1 0x1 PUSH1 0x1 PUSH1 0xA0 SHL SUB DUP9 DUP2 AND PUSH1 0x20 DUP4 ADD MSTORE DUP7 AND DUP2 DUP4 ADD MSTORE PUSH1 0x60 DUP2 ADD DUP10 SWAP1 MSTORE SWAP1 MLOAD PUSH32 0x453F80D195908F6AD58E9A5122D5C46E7BEF1167EC036D8B7D602292E2B8F77 SWAP4 POP SWAP1 DUP2 SWAP1 SUB PUSH1 0x80 ADD SWAP2 POP LOG1 POP POP POP POP POP POP JUMP JUMPDEST PUSH1 0x0 DUP1 SLOAD PUSH1 0x1 PUSH1 0x1 PUSH1 0xA0 SHL SUB DUP4 DUP2 AND PUSH1 0x1 PUSH1 0x1 PUSH1 0xA0 SHL SUB NOT DUP4 AND DUP2 OR DUP5 SSTORE PUSH1 0x40 MLOAD SWAP2 SWAP1 SWAP3 AND SWAP3 DUP4 SWAP2 PUSH32 0x8BE0079C531659141344CD1FD0A4F28419497F9722A3DAAFE3B4186F6B6457E0 SWAP2 SWAP1 LOG3 POP POP JUMP JUMPDEST DUP1 CALLDATALOAD PUSH1 0x1 PUSH1 0x1 PUSH1 0xA0 SHL SUB DUP2 AND DUP2 EQ PUSH2 0x41F JUMPI PUSH1 0x0 DUP1 REVERT JUMPDEST SWAP2 SWAP1 POP JUMP JUMPDEST PUSH1 0x0 PUSH1 0x20 DUP3 DUP5 SUB SLT ISZERO PUSH2 0x436 JUMPI PUSH1 0x0 DUP1 REVERT JUMPDEST PUSH2 0x43F DUP3 PUSH2 0x408 JUMP JUMPDEST SWAP4 SWAP3 POP POP POP JUMP JUMPDEST PUSH1 0x0 DUP1 PUSH1 0x0 DUP1 PUSH1 0x0 PUSH1 0xA0 DUP7 DUP9 SUB SLT ISZERO PUSH2 0x45E JUMPI PUSH1 0x0 DUP1 REVERT JUMPDEST DUP6 CALLDATALOAD DUP1 ISZERO ISZERO DUP2 EQ PUSH2 0x46E JUMPI PUSH1 0x0 DUP1 REVERT JUMPDEST SWAP5 POP PUSH1 0x20 DUP7 ADD CALLDATALOAD SWAP4 POP PUSH2 0x483 PUSH1 0x40 DUP8 ADD PUSH2 0x408 JUMP JUMPDEST SWAP3 POP PUSH1 0x60 DUP7 ADD CALLDATALOAD SWAP2 POP PUSH2 0x498 PUSH1 0x80 DUP8 ADD PUSH2 0x408 JUMP JUMPDEST SWAP1 POP SWAP3 SWAP6 POP SWAP3 SWAP6 SWAP1 SWAP4 POP JUMP JUMPDEST PUSH1 0x20 DUP1 DUP3 MSTORE DUP2 DUP2 ADD MSTORE PUSH32 0x4F776E61626C653A2063616C6C6572206973206E6F7420746865206F776E6572 PUSH1 0x40 DUP3 ADD MSTORE PUSH1 0x60 ADD SWAP1 JUMP JUMPDEST PUSH1 0x0 PUSH1 0x0 NOT DUP3 EQ ISZERO PUSH2 0x4FB JUMPI PUSH4 0x4E487B71 PUSH1 0xE0 SHL PUSH1 0x0 MSTORE PUSH1 0x11 PUSH1 0x4 MSTORE PUSH1 0x24 PUSH1 0x0 REVERT JUMPDEST POP PUSH1 0x1 ADD SWAP1 JUMP JUMPDEST PUSH1 0x0 DUP3 PUSH2 0x51F JUMPI PUSH4 0x4E487B71 PUSH1 0xE0 SHL PUSH1 0x0 MSTORE PUSH1 0x12 PUSH1 0x4 MSTORE PUSH1 0x24 PUSH1 0x0 REVERT JUMPDEST POP MOD SWAP1 JUMP INVALID LOG2 PUSH5 0x6970667358 0x22 SLT KECCAK256 0xAE SWAP4 SLOAD PUSH8 0x47333A49D0183F00 PUSH29 0x57AB09F102702CCF10652D761F9B2FC0B5E0DA64736F6C634300080700 CALLER ",
  "sha1": "e2080b8864476a1458c3b14cefb3569ce2b348bd",
  "source": "pragma solidity ^0.8.0;\n\nimport \"OpenZeppelin/openzeppelin-contracts@4.3.0/contracts/access/Ownable.sol\";\nimport \"./CallerInterface.sol\";\n\ncontract KYCOracle is Ownable {\n    uint private randNonce = 0;\n    uint private modulus = 1000;\n    mapping(uint256=>bool) pendingRequests;\n    \n    event GetKYCEvent(address callerAddress, uint id, address customer);\n    event SetKYCEvent(bool isKYC, address callerAddress, address customer, uint256 customerId);\n\n    function getKYC(address _customer) public returns (uint256) {\n        randNonce++;\n        uint id = uint(keccak256(abi.encodePacked(block.timestamp ,msg.sender,randNonce))) % modulus; \n        pendingRequests[id] = true;\n        emit GetKYCEvent(msg.sender, id, _customer);\n        return id;\n    }\n\n    function setKYC(bool _isKYC, uint256 _customerId, address _callerAddress, uint256 _id, address _customer) public onlyOwner {\n        require(pendingRequests[_id]);\n        delete pendingRequests[_id];\n        CallerInterface callerInstance;\n        callerInstance = CallerInterface(_callerAddress);\n        callerInstance.callback(_customerId, _isKYC, _customer,  _id);\n        emit SetKYCEvent(_isKYC, _callerAddress, _customer, _customerId);\n    }\n}",
  "sourcePath": "contracts/Oracle.sol",
  "type": "contract"
}