{
  "abi": [
    {
      "inputs": [
        {
          "internalType": "string",
          "name": "name",
          "type": "string"
        },
        {
          "internalType": "string",
          "name": "symbol",
          "type": "string"
        },
        {
          "internalType": "uint256",
          "name": "granularity",
          "type": "uint256"
        },
        {
          "internalType": "address[]",
          "name": "controllers",
          "type": "address[]"
        },
        {
          "internalType": "bytes32[]",
          "name": "defaultPartitions",
          "type": "bytes32[]"
        },
        {
          "internalType": "address",
          "name": "_whitelist",
          "type": "address"
        }
      ],
      "stateMutability": "nonpayable",
      "type": "constructor"
    },
    {
      "anonymous": false,
      "inputs": [
        {
          "indexed": true,
          "internalType": "address",
          "name": "owner",
          "type": "address"
        },
        {
          "indexed": true,
          "internalType": "address",
          "name": "spender",
          "type": "address"
        },
        {
          "indexed": false,
          "internalType": "uint256",
          "name": "value",
          "type": "uint256"
        }
      ],
      "name": "Approval",
      "type": "event"
    },
    {
      "anonymous": false,
      "inputs": [
        {
          "indexed": true,
          "internalType": "bytes32",
          "name": "partition",
          "type": "bytes32"
        },
        {
          "indexed": true,
          "internalType": "address",
          "name": "owner",
          "type": "address"
        },
        {
          "indexed": true,
          "internalType": "address",
          "name": "spender",
          "type": "address"
        },
        {
          "indexed": false,
          "internalType": "uint256",
          "name": "value",
          "type": "uint256"
        }
      ],
      "name": "ApprovalByPartition",
      "type": "event"
    },
    {
      "anonymous": false,
      "inputs": [
        {
          "indexed": true,
          "internalType": "address",
          "name": "operator",
          "type": "address"
        },
        {
          "indexed": true,
          "internalType": "address",
          "name": "tokenHolder",
          "type": "address"
        }
      ],
      "name": "AuthorizedOperator",
      "type": "event"
    },
    {
      "anonymous": false,
      "inputs": [
        {
          "indexed": true,
          "internalType": "bytes32",
          "name": "partition",
          "type": "bytes32"
        },
        {
          "indexed": true,
          "internalType": "address",
          "name": "operator",
          "type": "address"
        },
        {
          "indexed": true,
          "internalType": "address",
          "name": "tokenHolder",
          "type": "address"
        }
      ],
      "name": "AuthorizedOperatorByPartition",
      "type": "event"
    },
    {
      "anonymous": false,
      "inputs": [
        {
          "indexed": true,
          "internalType": "bytes32",
          "name": "fromPartition",
          "type": "bytes32"
        },
        {
          "indexed": true,
          "internalType": "bytes32",
          "name": "toPartition",
          "type": "bytes32"
        },
        {
          "indexed": false,
          "internalType": "uint256",
          "name": "value",
          "type": "uint256"
        }
      ],
      "name": "ChangedPartition",
      "type": "event"
    },
    {
      "anonymous": false,
      "inputs": [
        {
          "indexed": true,
          "internalType": "bytes32",
          "name": "name",
          "type": "bytes32"
        },
        {
          "indexed": false,
          "internalType": "string",
          "name": "uri",
          "type": "string"
        },
        {
          "indexed": false,
          "internalType": "bytes32",
          "name": "documentHash",
          "type": "bytes32"
        }
      ],
      "name": "Document",
      "type": "event"
    },
    {
      "anonymous": false,
      "inputs": [
        {
          "indexed": true,
          "internalType": "address",
          "name": "operator",
          "type": "address"
        },
        {
          "indexed": true,
          "internalType": "address",
          "name": "to",
          "type": "address"
        },
        {
          "indexed": false,
          "internalType": "uint256",
          "name": "value",
          "type": "uint256"
        },
        {
          "indexed": false,
          "internalType": "bytes",
          "name": "data",
          "type": "bytes"
        }
      ],
      "name": "Issued",
      "type": "event"
    },
    {
      "anonymous": false,
      "inputs": [
        {
          "indexed": true,
          "internalType": "bytes32",
          "name": "partition",
          "type": "bytes32"
        },
        {
          "indexed": true,
          "internalType": "address",
          "name": "operator",
          "type": "address"
        },
        {
          "indexed": true,
          "internalType": "address",
          "name": "to",
          "type": "address"
        },
        {
          "indexed": false,
          "internalType": "uint256",
          "name": "value",
          "type": "uint256"
        },
        {
          "indexed": false,
          "internalType": "bytes",
          "name": "data",
          "type": "bytes"
        },
        {
          "indexed": false,
          "internalType": "bytes",
          "name": "operatorData",
          "type": "bytes"
        }
      ],
      "name": "IssuedByPartition",
      "type": "event"
    },
    {
      "anonymous": false,
      "inputs": [
        {
          "indexed": true,
          "internalType": "address",
          "name": "account",
          "type": "address"
        }
      ],
      "name": "MinterAdded",
      "type": "event"
    },
    {
      "anonymous": false,
      "inputs": [
        {
          "indexed": true,
          "internalType": "address",
          "name": "account",
          "type": "address"
        }
      ],
      "name": "MinterRemoved",
      "type": "event"
    },
    {
      "anonymous": false,
      "inputs": [
        {
          "indexed": true,
          "internalType": "address",
          "name": "previousOwner",
          "type": "address"
        },
        {
          "indexed": true,
          "internalType": "address",
          "name": "newOwner",
          "type": "address"
        }
      ],
      "name": "OwnershipTransferred",
      "type": "event"
    },
    {
      "anonymous": false,
      "inputs": [
        {
          "indexed": false,
          "internalType": "address",
          "name": "account",
          "type": "address"
        }
      ],
      "name": "Paused",
      "type": "event"
    },
    {
      "anonymous": false,
      "inputs": [
        {
          "indexed": true,
          "internalType": "address",
          "name": "operator",
          "type": "address"
        },
        {
          "indexed": true,
          "internalType": "address",
          "name": "from",
          "type": "address"
        },
        {
          "indexed": false,
          "internalType": "uint256",
          "name": "value",
          "type": "uint256"
        },
        {
          "indexed": false,
          "internalType": "bytes",
          "name": "data",
          "type": "bytes"
        }
      ],
      "name": "Redeemed",
      "type": "event"
    },
    {
      "anonymous": false,
      "inputs": [
        {
          "indexed": true,
          "internalType": "bytes32",
          "name": "partition",
          "type": "bytes32"
        },
        {
          "indexed": true,
          "internalType": "address",
          "name": "operator",
          "type": "address"
        },
        {
          "indexed": true,
          "internalType": "address",
          "name": "from",
          "type": "address"
        },
        {
          "indexed": false,
          "internalType": "uint256",
          "name": "value",
          "type": "uint256"
        },
        {
          "indexed": false,
          "internalType": "bytes",
          "name": "operatorData",
          "type": "bytes"
        }
      ],
      "name": "RedeemedByPartition",
      "type": "event"
    },
    {
      "anonymous": false,
      "inputs": [
        {
          "indexed": true,
          "internalType": "address",
          "name": "operator",
          "type": "address"
        },
        {
          "indexed": true,
          "internalType": "address",
          "name": "tokenHolder",
          "type": "address"
        }
      ],
      "name": "RevokedOperator",
      "type": "event"
    },
    {
      "anonymous": false,
      "inputs": [
        {
          "indexed": true,
          "internalType": "bytes32",
          "name": "partition",
          "type": "bytes32"
        },
        {
          "indexed": true,
          "internalType": "address",
          "name": "operator",
          "type": "address"
        },
        {
          "indexed": true,
          "internalType": "address",
          "name": "tokenHolder",
          "type": "address"
        }
      ],
      "name": "RevokedOperatorByPartition",
      "type": "event"
    },
    {
      "anonymous": false,
      "inputs": [
        {
          "indexed": true,
          "internalType": "bytes32",
          "name": "role",
          "type": "bytes32"
        },
        {
          "indexed": true,
          "internalType": "bytes32",
          "name": "previousAdminRole",
          "type": "bytes32"
        },
        {
          "indexed": true,
          "internalType": "bytes32",
          "name": "newAdminRole",
          "type": "bytes32"
        }
      ],
      "name": "RoleAdminChanged",
      "type": "event"
    },
    {
      "anonymous": false,
      "inputs": [
        {
          "indexed": true,
          "internalType": "bytes32",
          "name": "role",
          "type": "bytes32"
        },
        {
          "indexed": true,
          "internalType": "address",
          "name": "account",
          "type": "address"
        },
        {
          "indexed": true,
          "internalType": "address",
          "name": "sender",
          "type": "address"
        }
      ],
      "name": "RoleGranted",
      "type": "event"
    },
    {
      "anonymous": false,
      "inputs": [
        {
          "indexed": true,
          "internalType": "bytes32",
          "name": "role",
          "type": "bytes32"
        },
        {
          "indexed": true,
          "internalType": "address",
          "name": "account",
          "type": "address"
        },
        {
          "indexed": true,
          "internalType": "address",
          "name": "sender",
          "type": "address"
        }
      ],
      "name": "RoleRevoked",
      "type": "event"
    },
    {
      "anonymous": false,
      "inputs": [
        {
          "indexed": true,
          "internalType": "address",
          "name": "account",
          "type": "address"
        }
      ],
      "name": "SellerAdded",
      "type": "event"
    },
    {
      "anonymous": false,
      "inputs": [
        {
          "indexed": true,
          "internalType": "address",
          "name": "account",
          "type": "address"
        }
      ],
      "name": "SellerRemoved",
      "type": "event"
    },
    {
      "anonymous": false,
      "inputs": [
        {
          "indexed": true,
          "internalType": "address",
          "name": "from",
          "type": "address"
        },
        {
          "indexed": true,
          "internalType": "address",
          "name": "to",
          "type": "address"
        },
        {
          "indexed": false,
          "internalType": "uint256",
          "name": "value",
          "type": "uint256"
        }
      ],
      "name": "Transfer",
      "type": "event"
    },
    {
      "anonymous": false,
      "inputs": [
        {
          "indexed": true,
          "internalType": "bytes32",
          "name": "fromPartition",
          "type": "bytes32"
        },
        {
          "indexed": false,
          "internalType": "address",
          "name": "operator",
          "type": "address"
        },
        {
          "indexed": true,
          "internalType": "address",
          "name": "from",
          "type": "address"
        },
        {
          "indexed": true,
          "internalType": "address",
          "name": "to",
          "type": "address"
        },
        {
          "indexed": false,
          "internalType": "uint256",
          "name": "value",
          "type": "uint256"
        },
        {
          "indexed": false,
          "internalType": "bytes",
          "name": "data",
          "type": "bytes"
        },
        {
          "indexed": false,
          "internalType": "bytes",
          "name": "operatorData",
          "type": "bytes"
        }
      ],
      "name": "TransferByPartition",
      "type": "event"
    },
    {
      "anonymous": false,
      "inputs": [
        {
          "indexed": false,
          "internalType": "address",
          "name": "account",
          "type": "address"
        }
      ],
      "name": "Unpaused",
      "type": "event"
    },
    {
      "anonymous": false,
      "inputs": [
        {
          "indexed": false,
          "internalType": "address",
          "name": "_whitelist",
          "type": "address"
        }
      ],
      "name": "WhitelistChanged",
      "type": "event"
    },
    {
      "inputs": [],
      "name": "DEFAULT_ADMIN_ROLE",
      "outputs": [
        {
          "internalType": "bytes32",
          "name": "",
          "type": "bytes32"
        }
      ],
      "stateMutability": "view",
      "type": "function"
    },
    {
      "inputs": [],
      "name": "MINTER_ROLE",
      "outputs": [
        {
          "internalType": "bytes32",
          "name": "",
          "type": "bytes32"
        }
      ],
      "stateMutability": "view",
      "type": "function"
    },
    {
      "inputs": [],
      "name": "SELLER_ROLE",
      "outputs": [
        {
          "internalType": "bytes32",
          "name": "",
          "type": "bytes32"
        }
      ],
      "stateMutability": "view",
      "type": "function"
    },
    {
      "inputs": [
        {
          "internalType": "address",
          "name": "account",
          "type": "address"
        }
      ],
      "name": "addMinter",
      "outputs": [],
      "stateMutability": "nonpayable",
      "type": "function"
    },
    {
      "inputs": [
        {
          "internalType": "address",
          "name": "account",
          "type": "address"
        }
      ],
      "name": "addSeller",
      "outputs": [],
      "stateMutability": "nonpayable",
      "type": "function"
    },
    {
      "inputs": [
        {
          "internalType": "address",
          "name": "owner",
          "type": "address"
        },
        {
          "internalType": "address",
          "name": "spender",
          "type": "address"
        }
      ],
      "name": "allowance",
      "outputs": [
        {
          "internalType": "uint256",
          "name": "",
          "type": "uint256"
        }
      ],
      "stateMutability": "view",
      "type": "function"
    },
    {
      "inputs": [
        {
          "internalType": "bytes32",
          "name": "partition",
          "type": "bytes32"
        },
        {
          "internalType": "address",
          "name": "owner",
          "type": "address"
        },
        {
          "internalType": "address",
          "name": "spender",
          "type": "address"
        }
      ],
      "name": "allowanceByPartition",
      "outputs": [
        {
          "internalType": "uint256",
          "name": "",
          "type": "uint256"
        }
      ],
      "stateMutability": "view",
      "type": "function"
    },
    {
      "inputs": [
        {
          "internalType": "address",
          "name": "spender",
          "type": "address"
        },
        {
          "internalType": "uint256",
          "name": "value",
          "type": "uint256"
        }
      ],
      "name": "approve",
      "outputs": [
        {
          "internalType": "bool",
          "name": "",
          "type": "bool"
        }
      ],
      "stateMutability": "nonpayable",
      "type": "function"
    },
    {
      "inputs": [
        {
          "internalType": "bytes32",
          "name": "partition",
          "type": "bytes32"
        },
        {
          "internalType": "address",
          "name": "spender",
          "type": "address"
        },
        {
          "internalType": "uint256",
          "name": "value",
          "type": "uint256"
        }
      ],
      "name": "approveByPartition",
      "outputs": [
        {
          "internalType": "bool",
          "name": "",
          "type": "bool"
        }
      ],
      "stateMutability": "nonpayable",
      "type": "function"
    },
    {
      "inputs": [
        {
          "internalType": "address",
          "name": "operator",
          "type": "address"
        }
      ],
      "name": "authorizeOperator",
      "outputs": [],
      "stateMutability": "nonpayable",
      "type": "function"
    },
    {
      "inputs": [
        {
          "internalType": "bytes32",
          "name": "partition",
          "type": "bytes32"
        },
        {
          "internalType": "address",
          "name": "operator",
          "type": "address"
        }
      ],
      "name": "authorizeOperatorByPartition",
      "outputs": [],
      "stateMutability": "nonpayable",
      "type": "function"
    },
    {
      "inputs": [
        {
          "internalType": "address",
          "name": "tokenHolder",
          "type": "address"
        }
      ],
      "name": "balanceOf",
      "outputs": [
        {
          "internalType": "uint256",
          "name": "",
          "type": "uint256"
        }
      ],
      "stateMutability": "view",
      "type": "function"
    },
    {
      "inputs": [
        {
          "internalType": "bytes32",
          "name": "partition",
          "type": "bytes32"
        },
        {
          "internalType": "address",
          "name": "tokenHolder",
          "type": "address"
        }
      ],
      "name": "balanceOfByPartition",
      "outputs": [
        {
          "internalType": "uint256",
          "name": "",
          "type": "uint256"
        }
      ],
      "stateMutability": "view",
      "type": "function"
    },
    {
      "inputs": [
        {
          "internalType": "address",
          "name": "_whitelist",
          "type": "address"
        }
      ],
      "name": "changeWhitelist",
      "outputs": [],
      "stateMutability": "nonpayable",
      "type": "function"
    },
    {
      "inputs": [],
      "name": "controllers",
      "outputs": [
        {
          "internalType": "address[]",
          "name": "",
          "type": "address[]"
        }
      ],
      "stateMutability": "view",
      "type": "function"
    },
    {
      "inputs": [
        {
          "internalType": "bytes32",
          "name": "partition",
          "type": "bytes32"
        }
      ],
      "name": "controllersByPartition",
      "outputs": [
        {
          "internalType": "address[]",
          "name": "",
          "type": "address[]"
        }
      ],
      "stateMutability": "view",
      "type": "function"
    },
    {
      "inputs": [],
      "name": "getDefaultPartitions",
      "outputs": [
        {
          "internalType": "bytes32[]",
          "name": "",
          "type": "bytes32[]"
        }
      ],
      "stateMutability": "view",
      "type": "function"
    },
    {
      "inputs": [
        {
          "internalType": "bytes32",
          "name": "name",
          "type": "bytes32"
        }
      ],
      "name": "getDocument",
      "outputs": [
        {
          "internalType": "string",
          "name": "",
          "type": "string"
        },
        {
          "internalType": "bytes32",
          "name": "",
          "type": "bytes32"
        }
      ],
      "stateMutability": "view",
      "type": "function"
    },
    {
      "inputs": [
        {
          "internalType": "bytes32",
          "name": "role",
          "type": "bytes32"
        }
      ],
      "name": "getRoleAdmin",
      "outputs": [
        {
          "internalType": "bytes32",
          "name": "",
          "type": "bytes32"
        }
      ],
      "stateMutability": "view",
      "type": "function"
    },
    {
      "inputs": [
        {
          "internalType": "bytes32",
          "name": "role",
          "type": "bytes32"
        },
        {
          "internalType": "address",
          "name": "account",
          "type": "address"
        }
      ],
      "name": "grantRole",
      "outputs": [],
      "stateMutability": "nonpayable",
      "type": "function"
    },
    {
      "inputs": [
        {
          "internalType": "bytes32",
          "name": "role",
          "type": "bytes32"
        },
        {
          "internalType": "address",
          "name": "account",
          "type": "address"
        }
      ],
      "name": "hasRole",
      "outputs": [
        {
          "internalType": "bool",
          "name": "",
          "type": "bool"
        }
      ],
      "stateMutability": "view",
      "type": "function"
    },
    {
      "inputs": [],
      "name": "isControllable",
      "outputs": [
        {
          "internalType": "bool",
          "name": "",
          "type": "bool"
        }
      ],
      "stateMutability": "view",
      "type": "function"
    },
    {
      "inputs": [],
      "name": "isIssuable",
      "outputs": [
        {
          "internalType": "bool",
          "name": "",
          "type": "bool"
        }
      ],
      "stateMutability": "view",
      "type": "function"
    },
    {
      "inputs": [
        {
          "internalType": "address",
          "name": "account",
          "type": "address"
        }
      ],
      "name": "isMinter",
      "outputs": [
        {
          "internalType": "bool",
          "name": "",
          "type": "bool"
        }
      ],
      "stateMutability": "view",
      "type": "function"
    },
    {
      "inputs": [
        {
          "internalType": "address",
          "name": "operator",
          "type": "address"
        },
        {
          "internalType": "address",
          "name": "tokenHolder",
          "type": "address"
        }
      ],
      "name": "isOperator",
      "outputs": [
        {
          "internalType": "bool",
          "name": "",
          "type": "bool"
        }
      ],
      "stateMutability": "view",
      "type": "function"
    },
    {
      "inputs": [
        {
          "internalType": "bytes32",
          "name": "partition",
          "type": "bytes32"
        },
        {
          "internalType": "address",
          "name": "operator",
          "type": "address"
        },
        {
          "internalType": "address",
          "name": "tokenHolder",
          "type": "address"
        }
      ],
      "name": "isOperatorForPartition",
      "outputs": [
        {
          "internalType": "bool",
          "name": "",
          "type": "bool"
        }
      ],
      "stateMutability": "view",
      "type": "function"
    },
    {
      "inputs": [
        {
          "internalType": "address",
          "name": "account",
          "type": "address"
        }
      ],
      "name": "isSeller",
      "outputs": [
        {
          "internalType": "bool",
          "name": "",
          "type": "bool"
        }
      ],
      "stateMutability": "view",
      "type": "function"
    },
    {
      "inputs": [
        {
          "internalType": "address",
          "name": "tokenHolder",
          "type": "address"
        },
        {
          "internalType": "uint256",
          "name": "value",
          "type": "uint256"
        },
        {
          "internalType": "bytes",
          "name": "data",
          "type": "bytes"
        }
      ],
      "name": "issue",
      "outputs": [],
      "stateMutability": "nonpayable",
      "type": "function"
    },
    {
      "inputs": [
        {
          "internalType": "bytes32",
          "name": "partition",
          "type": "bytes32"
        },
        {
          "internalType": "address",
          "name": "tokenHolder",
          "type": "address"
        },
        {
          "internalType": "uint256",
          "name": "value",
          "type": "uint256"
        },
        {
          "internalType": "bytes",
          "name": "data",
          "type": "bytes"
        }
      ],
      "name": "issueByPartition",
      "outputs": [],
      "stateMutability": "nonpayable",
      "type": "function"
    },
    {
      "inputs": [],
      "name": "name",
      "outputs": [
        {
          "internalType": "string",
          "name": "",
          "type": "string"
        }
      ],
      "stateMutability": "view",
      "type": "function"
    },
    {
      "inputs": [
        {
          "internalType": "bytes32",
          "name": "partition",
          "type": "bytes32"
        },
        {
          "internalType": "address",
          "name": "tokenHolder",
          "type": "address"
        },
        {
          "internalType": "uint256",
          "name": "value",
          "type": "uint256"
        },
        {
          "internalType": "bytes",
          "name": "operatorData",
          "type": "bytes"
        }
      ],
      "name": "operatorRedeemByPartition",
      "outputs": [],
      "stateMutability": "nonpayable",
      "type": "function"
    },
    {
      "inputs": [
        {
          "internalType": "bytes32",
          "name": "partition",
          "type": "bytes32"
        },
        {
          "internalType": "address",
          "name": "from",
          "type": "address"
        },
        {
          "internalType": "address",
          "name": "to",
          "type": "address"
        },
        {
          "internalType": "uint256",
          "name": "value",
          "type": "uint256"
        },
        {
          "internalType": "bytes",
          "name": "data",
          "type": "bytes"
        },
        {
          "internalType": "bytes",
          "name": "operatorData",
          "type": "bytes"
        }
      ],
      "name": "operatorTransferByPartition",
      "outputs": [
        {
          "internalType": "bytes32",
          "name": "",
          "type": "bytes32"
        }
      ],
      "stateMutability": "nonpayable",
      "type": "function"
    },
    {
      "inputs": [],
      "name": "owner",
      "outputs": [
        {
          "internalType": "address",
          "name": "",
          "type": "address"
        }
      ],
      "stateMutability": "view",
      "type": "function"
    },
    {
      "inputs": [
        {
          "internalType": "address",
          "name": "tokenHolder",
          "type": "address"
        }
      ],
      "name": "partitionsOf",
      "outputs": [
        {
          "internalType": "bytes32[]",
          "name": "",
          "type": "bytes32[]"
        }
      ],
      "stateMutability": "view",
      "type": "function"
    },
    {
      "inputs": [],
      "name": "paused",
      "outputs": [
        {
          "internalType": "bool",
          "name": "",
          "type": "bool"
        }
      ],
      "stateMutability": "view",
      "type": "function"
    },
    {
      "inputs": [
        {
          "internalType": "uint256",
          "name": "value",
          "type": "uint256"
        },
        {
          "internalType": "bytes",
          "name": "data",
          "type": "bytes"
        }
      ],
      "name": "redeem",
      "outputs": [],
      "stateMutability": "nonpayable",
      "type": "function"
    },
    {
      "inputs": [
        {
          "internalType": "bytes32",
          "name": "partition",
          "type": "bytes32"
        },
        {
          "internalType": "uint256",
          "name": "value",
          "type": "uint256"
        },
        {
          "internalType": "bytes",
          "name": "data",
          "type": "bytes"
        }
      ],
      "name": "redeemByPartition",
      "outputs": [],
      "stateMutability": "nonpayable",
      "type": "function"
    },
    {
      "inputs": [
        {
          "internalType": "address",
          "name": "from",
          "type": "address"
        },
        {
          "internalType": "uint256",
          "name": "value",
          "type": "uint256"
        },
        {
          "internalType": "bytes",
          "name": "data",
          "type": "bytes"
        }
      ],
      "name": "redeemFrom",
      "outputs": [],
      "stateMutability": "nonpayable",
      "type": "function"
    },
    {
      "inputs": [
        {
          "internalType": "address",
          "name": "account",
          "type": "address"
        }
      ],
      "name": "removeMinter",
      "outputs": [],
      "stateMutability": "nonpayable",
      "type": "function"
    },
    {
      "inputs": [
        {
          "internalType": "address",
          "name": "account",
          "type": "address"
        }
      ],
      "name": "removeSeller",
      "outputs": [],
      "stateMutability": "nonpayable",
      "type": "function"
    },
    {
      "inputs": [],
      "name": "renounceControl",
      "outputs": [],
      "stateMutability": "nonpayable",
      "type": "function"
    },
    {
      "inputs": [],
      "name": "renounceIssuance",
      "outputs": [],
      "stateMutability": "nonpayable",
      "type": "function"
    },
    {
      "inputs": [],
      "name": "renounceMinter",
      "outputs": [],
      "stateMutability": "nonpayable",
      "type": "function"
    },
    {
      "inputs": [],
      "name": "renounceOwnership",
      "outputs": [],
      "stateMutability": "nonpayable",
      "type": "function"
    },
    {
      "inputs": [
        {
          "internalType": "bytes32",
          "name": "role",
          "type": "bytes32"
        },
        {
          "internalType": "address",
          "name": "account",
          "type": "address"
        }
      ],
      "name": "renounceRole",
      "outputs": [],
      "stateMutability": "nonpayable",
      "type": "function"
    },
    {
      "inputs": [],
      "name": "renounceSeller",
      "outputs": [],
      "stateMutability": "nonpayable",
      "type": "function"
    },
    {
      "inputs": [
        {
          "internalType": "address",
          "name": "operator",
          "type": "address"
        }
      ],
      "name": "revokeOperator",
      "outputs": [],
      "stateMutability": "nonpayable",
      "type": "function"
    },
    {
      "inputs": [
        {
          "internalType": "bytes32",
          "name": "partition",
          "type": "bytes32"
        },
        {
          "internalType": "address",
          "name": "operator",
          "type": "address"
        }
      ],
      "name": "revokeOperatorByPartition",
      "outputs": [],
      "stateMutability": "nonpayable",
      "type": "function"
    },
    {
      "inputs": [
        {
          "internalType": "bytes32",
          "name": "role",
          "type": "bytes32"
        },
        {
          "internalType": "address",
          "name": "account",
          "type": "address"
        }
      ],
      "name": "revokeRole",
      "outputs": [],
      "stateMutability": "nonpayable",
      "type": "function"
    },
    {
      "inputs": [
        {
          "internalType": "address[]",
          "name": "operators",
          "type": "address[]"
        }
      ],
      "name": "setControllers",
      "outputs": [],
      "stateMutability": "nonpayable",
      "type": "function"
    },
    {
      "inputs": [
        {
          "internalType": "bytes32[]",
          "name": "partitions",
          "type": "bytes32[]"
        }
      ],
      "name": "setDefaultPartitions",
      "outputs": [],
      "stateMutability": "nonpayable",
      "type": "function"
    },
    {
      "inputs": [
        {
          "internalType": "bytes32",
          "name": "name",
          "type": "bytes32"
        },
        {
          "internalType": "string",
          "name": "uri",
          "type": "string"
        },
        {
          "internalType": "bytes32",
          "name": "documentHash",
          "type": "bytes32"
        }
      ],
      "name": "setDocument",
      "outputs": [],
      "stateMutability": "nonpayable",
      "type": "function"
    },
    {
      "inputs": [
        {
          "internalType": "bytes32",
          "name": "partition",
          "type": "bytes32"
        },
        {
          "internalType": "address[]",
          "name": "operators",
          "type": "address[]"
        }
      ],
      "name": "setPartitionControllers",
      "outputs": [],
      "stateMutability": "nonpayable",
      "type": "function"
    },
    {
      "inputs": [
        {
          "internalType": "bytes4",
          "name": "interfaceId",
          "type": "bytes4"
        }
      ],
      "name": "supportsInterface",
      "outputs": [
        {
          "internalType": "bool",
          "name": "",
          "type": "bool"
        }
      ],
      "stateMutability": "view",
      "type": "function"
    },
    {
      "inputs": [],
      "name": "symbol",
      "outputs": [
        {
          "internalType": "string",
          "name": "",
          "type": "string"
        }
      ],
      "stateMutability": "view",
      "type": "function"
    },
    {
      "inputs": [],
      "name": "totalSupply",
      "outputs": [
        {
          "internalType": "uint256",
          "name": "",
          "type": "uint256"
        }
      ],
      "stateMutability": "view",
      "type": "function"
    },
    {
      "inputs": [
        {
          "internalType": "address",
          "name": "to",
          "type": "address"
        },
        {
          "internalType": "uint256",
          "name": "value",
          "type": "uint256"
        }
      ],
      "name": "transfer",
      "outputs": [
        {
          "internalType": "bool",
          "name": "",
          "type": "bool"
        }
      ],
      "stateMutability": "nonpayable",
      "type": "function"
    },
    {
      "inputs": [
        {
          "internalType": "bytes32",
          "name": "partition",
          "type": "bytes32"
        },
        {
          "internalType": "address",
          "name": "to",
          "type": "address"
        },
        {
          "internalType": "uint256",
          "name": "value",
          "type": "uint256"
        },
        {
          "internalType": "bytes",
          "name": "data",
          "type": "bytes"
        }
      ],
      "name": "transferByPartition",
      "outputs": [
        {
          "internalType": "bytes32",
          "name": "",
          "type": "bytes32"
        }
      ],
      "stateMutability": "nonpayable",
      "type": "function"
    },
    {
      "inputs": [
        {
          "internalType": "address",
          "name": "from",
          "type": "address"
        },
        {
          "internalType": "address",
          "name": "to",
          "type": "address"
        },
        {
          "internalType": "uint256",
          "name": "value",
          "type": "uint256"
        }
      ],
      "name": "transferFrom",
      "outputs": [
        {
          "internalType": "bool",
          "name": "",
          "type": "bool"
        }
      ],
      "stateMutability": "nonpayable",
      "type": "function"
    },
    {
      "inputs": [
        {
          "internalType": "address",
          "name": "from",
          "type": "address"
        },
        {
          "internalType": "address",
          "name": "to",
          "type": "address"
        },
        {
          "internalType": "uint256",
          "name": "value",
          "type": "uint256"
        },
        {
          "internalType": "bytes",
          "name": "data",
          "type": "bytes"
        }
      ],
      "name": "transferFromWithData",
      "outputs": [],
      "stateMutability": "nonpayable",
      "type": "function"
    },
    {
      "inputs": [
        {
          "internalType": "address",
          "name": "newOwner",
          "type": "address"
        }
      ],
      "name": "transferOwnership",
      "outputs": [],
      "stateMutability": "nonpayable",
      "type": "function"
    },
    {
      "inputs": [
        {
          "internalType": "address",
          "name": "to",
          "type": "address"
        },
        {
          "internalType": "uint256",
          "name": "value",
          "type": "uint256"
        },
        {
          "internalType": "bytes",
          "name": "data",
          "type": "bytes"
        }
      ],
      "name": "transferWithData",
      "outputs": [],
      "stateMutability": "nonpayable",
      "type": "function"
    },
    {
      "inputs": [],
      "name": "unpause",
      "outputs": [],
      "stateMutability": "nonpayable",
      "type": "function"
    }
  ],
  "bytecode": "60806040523480156200001157600080fd5b506040516200537a3803806200537a833981016040819052620000349162000a6b565b8585858585856200004533620001b5565b6200005260003362000205565b6200005d336200028e565b620000786000805160206200535a83398151915280620002e0565b85516200008d906002906020890190620007b5565b508451620000a3906003906020880190620007b5565b5060006005556001841015620000b857600080fd5b6004849055620000c8836200032d565b8151620000dd90601090602085019062000844565b50600680546001600160a01b03838116610100908102610100600160b81b03199093169290921761010160a81b17928390556040519190920490911681527fdd8c807c33d35ad7642d985aca3455e9281f5298b1c22a4aadb5a86d52df7ed19060200160405180910390a150506018805460ff19169055506200016892506000915033905062000205565b620001733362000426565b6200019f7fab727555e1a579ca2f00d4f6682bede92e5e46e287e8b1a6f243044c1ec5b7ac80620002e0565b620001a962000489565b50505050505062000d6d565b600080546001600160a01b038381166001600160a01b0319831681178455604051919092169283917f8be0079c531659141344cd1fd0a4f28419497f9722a3daafe3b4186f6b6457e09190a35050565b60008281526001602090815260408083206001600160a01b038516845290915290205460ff166200028a5760008281526001602081815260408084206001600160a01b0386168086529252808420805460ff19169093179092559051339285917f2f8788117e7eff1d82e926ec794901d17c78024a50270940304540a733656f0d9190a45b5050565b620002a96000805160206200535a8339815191528262000528565b6040516001600160a01b038216907f6ae172837ea30b801fbfcdd4108aa1d5bf8ff775444fd70256b44e6bf3dfc3f690600090a250565b6000828152600160208190526040808320909101805490849055905190918391839186917fbd79b86ffe0ab8e8776151514217cd7cacd52c909f66475c3af44e129f0b00ff9190a4505050565b60005b601254811015620003a0576000601360006012848154811062000357576200035762000d41565b6000918252602080832091909101546001600160a01b031683528201929092526040019020805460ff191691151591909117905580620003978162000d0d565b91505062000330565b5060005b81518110156200041057600160136000848481518110620003c957620003c962000d41565b6020908102919091018101516001600160a01b03168252810191909152604001600020805460ff191691151591909117905580620004078162000d0d565b915050620003a4565b5080516200028a90601290602084019062000881565b620004527fab727555e1a579ca2f00d4f6682bede92e5e46e287e8b1a6f243044c1ec5b7ac8262000528565b6040516001600160a01b038216907f3d78526f2568d430fd8e20719601f7bc3f979936f8880236cc284e8127251b4290600090a250565b60185460ff1615620004d55760405162461bcd60e51b815260206004820152601060248201526f14185d5cd8589b194e881c185d5cd95960821b60448201526064015b60405180910390fd5b6018805460ff191660011790557f62e78cea01bee320cd4e420270b5ea74000d11b0c9f74754ebdbfc544b05a2586200050b3390565b6040516001600160a01b03909116815260200160405180910390a1565b6000828152600160208190526040909120015462000547813362000558565b62000553838362000205565b505050565b60008281526001602090815260408083206001600160a01b038516845290915290205460ff166200028a57620005a4816001600160a01b03166014620005f560201b620020cc1760201c565b620005ba836020620020cc620005f5821b17811c565b604051602001620005cd92919062000b3f565b60408051601f198184030181529082905262461bcd60e51b8252620004cc9160040162000bb8565b606060006200060683600262000c61565b6200061390600262000c46565b6001600160401b038111156200062d576200062d62000d57565b6040519080825280601f01601f19166020018201604052801562000658576020820181803683370190505b509050600360fc1b8160008151811062000676576200067662000d41565b60200101906001600160f81b031916908160001a905350600f60fb1b81600181518110620006a857620006a862000d41565b60200101906001600160f81b031916908160001a9053506000620006ce84600262000c61565b620006db90600162000c46565b90505b60018111156200075d576f181899199a1a9b1b9c1cb0b131b232b360811b85600f166010811062000713576200071362000d41565b1a60f81b8282815181106200072c576200072c62000d41565b60200101906001600160f81b031916908160001a90535060049490941c93620007558162000cb6565b9050620006de565b508315620007ae5760405162461bcd60e51b815260206004820181905260248201527f537472696e67733a20686578206c656e67746820696e73756666696369656e746044820152606401620004cc565b9392505050565b828054620007c39062000cd0565b90600052602060002090601f016020900481019282620007e7576000855562000832565b82601f106200080257805160ff191683800117855562000832565b8280016001018555821562000832579182015b828111156200083257825182559160200191906001019062000815565b5062000840929150620008d9565b5090565b8280548282559060005260206000209081019282156200083257916020028201828111156200083257825182559160200191906001019062000815565b82805482825590600052602060002090810192821562000832579160200282015b828111156200083257825182546001600160a01b0319166001600160a01b03909116178255602090920191600190910190620008a2565b5b80821115620008405760008155600101620008da565b80516001600160a01b03811681146200090857600080fd5b919050565b600082601f8301126200091f57600080fd5b8151602062000938620009328362000c20565b62000bed565b80838252828201915082860187848660051b89010111156200095957600080fd5b60005b8581101562000983576200097082620008f0565b845292840192908401906001016200095c565b5090979650505050505050565b600082601f830112620009a257600080fd5b81516020620009b5620009328362000c20565b80838252828201915082860187848660051b8901011115620009d657600080fd5b60005b858110156200098357815184529284019290840190600101620009d9565b600082601f83011262000a0957600080fd5b81516001600160401b0381111562000a255762000a2562000d57565b62000a3a601f8201601f191660200162000bed565b81815284602083860101111562000a5057600080fd5b62000a6382602083016020870162000c83565b949350505050565b60008060008060008060c0878903121562000a8557600080fd5b86516001600160401b038082111562000a9d57600080fd5b62000aab8a838b01620009f7565b9750602089015191508082111562000ac257600080fd5b62000ad08a838b01620009f7565b965060408901519550606089015191508082111562000aee57600080fd5b62000afc8a838b016200090d565b9450608089015191508082111562000b1357600080fd5b5062000b2289828a0162000990565b92505062000b3360a08801620008f0565b90509295509295509295565b7f416363657373436f6e74726f6c3a206163636f756e742000000000000000000081526000835162000b7981601785016020880162000c83565b7001034b99036b4b9b9b4b733903937b6329607d1b601791840191820152835162000bac81602884016020880162000c83565b01602801949350505050565b602081526000825180602084015262000bd981604085016020870162000c83565b601f01601f19169190910160400192915050565b604051601f8201601f191681016001600160401b038111828210171562000c185762000c1862000d57565b604052919050565b60006001600160401b0382111562000c3c5762000c3c62000d57565b5060051b60200190565b6000821982111562000c5c5762000c5c62000d2b565b500190565b600081600019048311821515161562000c7e5762000c7e62000d2b565b500290565b60005b8381101562000ca057818101518382015260200162000c86565b8381111562000cb0576000848401525b50505050565b60008162000cc85762000cc862000d2b565b506000190190565b600181811c9082168062000ce557607f821691505b6020821081141562000d0757634e487b7160e01b600052602260045260246000fd5b50919050565b600060001982141562000d245762000d2462000d2b565b5060010190565b634e487b7160e01b600052601160045260246000fd5b634e487b7160e01b600052603260045260246000fd5b634e487b7160e01b600052604160045260246000fd5b6145dd8062000d7d6000396000f3fe608060405234801561001057600080fd5b50600436106103c55760003560e01c80637cc0c3a7116101ff578063bb3acde91161011a578063e77c646d116100ad578063ee95feaf1161007c578063ee95feaf146108e5578063f2fde38b146108f8578063f3d490db1461090b578063fad8b32a1461091e57600080fd5b8063e77c646d14610899578063ea74838a146108ac578063ec9a6e87146108bf578063ee532f31146108d257600080fd5b8063d547741f116100e9578063d547741f14610813578063d93fabfa14610826578063dbe4613d14610839578063dd62ed3e1461086057600080fd5b8063bb3acde9146107c9578063bcfdc0cf146107dc578063ca281fd9146107e4578063d5391393146107ec57600080fd5b8063983b2d5611610192578063a9059cbb11610161578063a9059cbb1461076f578063aa271e1a14610782578063b10d6b4114610795578063b6363cf2146107b657600080fd5b8063983b2d5614610739578063986502751461074c57806398ddcec714610754578063a217fddf1461076757600080fd5b806391d14854116101ce57806391d14854146106d2578063959b8c3f1461070b57806395d89b411461071e5780639675193c1461072657600080fd5b80637cc0c3a71461067c578063861ed3ea146106915780638c0dee9c146106a45780638da5cb5b146106b757600080fd5b80632f2ff15d116102ef57806364c78f8c1161028257806370a082311161025157806370a0823114610618578063715018a614610641578063740ab8f4146106495780637cb9cf541461066957600080fd5b806364c78f8c146105e257806367c84919146105ea5780636c30d170146105fd5780636d77cad61461060557600080fd5b80633f4ba83a116102be5780633f4ba83a146105aa5780634c783bf5146105b25780635c975abb146105c457806362eb0068146105cf57600080fd5b80632f2ff15d1461053e5780633092afd51461055157806330e828031461056457806336568abe1461059757600080fd5b8063168ecec51161036757806323b872dd1161033657806323b872dd146104e2578063248a9ca3146104f55780632535f762146105195780632f1cae851461052c57600080fd5b8063168ecec51461046857806316e1aed41461047b57806317ec83ca1461048e57806318160ddd146104da57600080fd5b806308d0a7cf116103a357806308d0a7cf1461041c578063095ea7b31461042f578063103ef9e11461044257806314d1e62f1461045557600080fd5b8063010648ca146103ca57806301ffc9a7146103df57806306fdde0314610407575b600080fd5b6103dd6103d836600461413f565b610931565b005b6103f26103ed3660046141cd565b610a02565b60405190151581526020015b60405180910390f35b61040f610a39565b6040516103fe91906143db565b6103dd61042a366004613da9565b610acb565b6103f261043d366004613ea2565b610ba0565b6103dd610450366004613fa3565b610c41565b6103f26104633660046140a6565b610ca5565b6103dd610476366004613fa3565b610d52565b6103dd6104893660046140f3565b610db3565b6104cc61049c366004613fc6565b60009283526014602090815260408085206001600160a01b03948516865282528085209290931684525290205490565b6040519081526020016103fe565b6005546104cc565b6103f26104f0366004613df7565b610e4f565b6104cc610503366004613f8a565b6000908152600160208190526040909120015490565b6103dd610527366004613ecc565b610f86565b600654600160b01b900460ff166103f2565b6103dd61054c366004613fa3565b610fcf565b6103dd61055f366004613da9565b610ff6565b6104cc610572366004613fa3565b6001600160a01b03166000908152600f60209081526040808320938352929052205490565b6103dd6105a5366004613fa3565b611044565b6103dd6110d0565b600654600160a81b900460ff166103f2565b60185460ff166103f2565b6103dd6105dd366004614192565b61111c565b6103dd61116d565b6103dd6105f83660046140cb565b611176565b6103dd611240565b6103f2610613366004613fc6565b6112c4565b6104cc610626366004613da9565b6001600160a01b031660009081526007602052604090205490565b6103dd6112d9565b61065c610657366004613da9565b61133d565b6040516103fe919061436a565b6103dd610677366004613da9565b6113a9565b6106846113f4565b6040516103fe919061431d565b61068461069f366004613f8a565b611455565b6104cc6106b2366004614002565b6114c0565b6000546040516001600160a01b0390911681526020016103fe565b6103f26106e0366004613fa3565b60009182526001602090815260408084206001600160a01b0393909316845291905290205460ff1690565b6103dd610719366004613da9565b61167a565b61040f6116e9565b6103dd610734366004613ecc565b6116f8565b6103dd610747366004613da9565b611775565b6103dd6117c0565b6103dd6107623660046140cb565b6117c9565b6104cc600081565b6103f261077d366004613ea2565b611858565b6103f2610790366004613da9565b61187f565b6107a86107a3366004613f8a565b6118bf565b6040516103fe9291906143ee565b6103f26107c4366004613dc4565b611993565b6103dd6107d7366004613ecc565b6119a6565b61065c611b06565b6103dd611b5d565b6104cc7f6e58ad548d72b425ea94c15f453bf26caddb061d82b2551db7fdd3cefe0e994081565b6103dd610821366004613fa3565b611be1565b6103dd610834366004613da9565b611c08565b6104cc7fab727555e1a579ca2f00d4f6682bede92e5e46e287e8b1a6f243044c1ec5b7ac81565b6104cc61086e366004613dc4565b6001600160a01b03918216600090815260086020908152604080832093909416825291909152205490565b6103dd6108a73660046141f7565b611c53565b6103dd6108ba366004613f26565b611c95565b6103dd6108cd366004613f26565b611d2b565b6103dd6108e0366004613e33565b611d91565b6103f26108f3366004613da9565b611ee3565b6103dd610906366004613da9565b611f23565b6104cc6109193660046140cb565b612002565b6103dd61092c366004613da9565b612060565b3360009081526013602052604090205460ff1661094d57600080fd5b6040805160606020601f860181900402820181018352918101848152909182919086908690819085018382808284376000920182905250938552505050602091820184905286815260098252604090208251805191926109b292849290910190613bc9565b5060208201518160010155905050837f89730c201d2df6a4cef4e892559e63e022078b0ee939d11b6ced61fb098b28248484846040516109f4939291906143a2565b60405180910390a250505050565b60006001600160e01b03198216637965db0b60e01b1480610a3357506301ffc9a760e01b6001600160e01b03198316145b92915050565b606060028054610a489061450f565b80601f0160208091040260200160405190810160405280929190818152602001828054610a749061450f565b8015610ac15780601f10610a9657610100808354040283529160200191610ac1565b820191906000526020600020905b815481529060010190602001808311610aa457829003601f168201915b5050505050905090565b6000546001600160a01b03163314610b2a5760405162461bcd60e51b815260206004820181905260248201527f4f776e61626c653a2063616c6c6572206973206e6f7420746865206f776e657260448201526064015b60405180910390fd5b600680547fffffffffffffffffffffff0000000000000000000000000000000000000000ff166101006001600160a01b038481168202929092179283905560405192041681527fdd8c807c33d35ad7642d985aca3455e9281f5298b1c22a4aadb5a86d52df7ed19060200160405180910390a150565b60006001600160a01b038316610bdd5760405162461bcd60e51b81526020600482015260026024820152611a9b60f11b6044820152606401610b21565b3360008181526008602090815260408083206001600160a01b03881680855290835292819020869055518581529192917f8c5be1e5ebec7d5bd14f71427d1e84f3dd0314c0f7b2291e5b200ac8c7c3b925910160405180910390a350600192915050565b33600081815260156020908152604080832086845282528083206001600160a01b0386168085529252808320805460ff1916600117905551909185917f3646a897c70797ecc134b0adc32f471b07bf1d6f451133b0384badab531e3fd69190a45050565b60006001600160a01b038316610ce25760405162461bcd60e51b81526020600482015260026024820152611a9b60f11b6044820152606401610b21565b6000848152601460209081526040808320338085529083528184206001600160a01b038816808652908452938290208690559051858152909187917ff061499aa77c2f6f5e25e34955a06623705344a88256cc861a121ec0bce5cfec910160405180910390a45060019392505050565b33600081815260156020908152604080832086845282528083206001600160a01b0386168085529252808320805460ff1916905551909185917f3b287c4f1bab4df949b33bceacef984f544dc5d5479930d00e4ee8c9d8dd96f29190a45050565b6000546001600160a01b03163314610e0d5760405162461bcd60e51b815260206004820181905260248201527f4f776e61626c653a2063616c6c6572206973206e6f7420746865206f776e65726044820152606401610b21565b610e4a8383838080602002602001604051908101604052809392919081815260200183836020028082843760009201919091525061227592505050565b505050565b6000610e5b3385612398565b80610e8957506001600160a01b03841660009081526008602090815260408083203384529091529020548211155b610eba5760405162461bcd60e51b8152602060048201526002602482015261353360f01b6044820152606401610b21565b6001600160a01b03841660009081526008602090815260408083203384529091529020548211610f3b576001600160a01b0384166000908152600860209081526040808320338452909152902054610f129083612419565b6001600160a01b0385166000908152600860209081526040808320338452909152902055610f60565b6001600160a01b03841660009081526008602090815260408083203384529091528120555b610f7c3385858560405180602001604052806000815250612425565b5060019392505050565b610fc93333868686868080601f01602080910402602001604051908101604052809392919081815260200183838082843760009201919091525061242592505050565b50505050565b60008281526001602081905260409091200154610fec813361259d565b610e4a838361261d565b610fff3361187f565b6110385760405162461bcd60e51b815260206004820152600a6024820152693737ba1036b4b73a32b960b11b6044820152606401610b21565b611041816126a4565b50565b6001600160a01b03811633146110c25760405162461bcd60e51b815260206004820152602f60248201527f416363657373436f6e74726f6c3a2063616e206f6e6c792072656e6f756e636560448201527f20726f6c657320666f722073656c6600000000000000000000000000000000006064820152608401610b21565b6110cc8282612705565b5050565b6110d933611ee3565b6111125760405162461bcd60e51b815260206004820152600a6024820152693737ba1039b2b63632b960b11b6044820152606401610b21565b61111a612788565b565b610fc98433338686868080601f016020809104026020016040519081016040528093929190818152602001838380828437600092018290525060408051602081019091529081529250612819915050565b61111a33612939565b61117f3361187f565b6111b85760405162461bcd60e51b815260206004820152600a6024820152693737ba1036b4b73a32b960b11b6044820152606401610b21565b600654600160b01b900460ff166111f65760405162461bcd60e51b8152602060048201526002602482015261353560f01b6044820152606401610b21565b6112398533868686868080601f01602080910402602001604051908101604052809392919081815260200183838082843760009201919091525061299a92505050565b5050505050565b6000546001600160a01b0316331461129a5760405162461bcd60e51b815260206004820181905260248201527f4f776e61626c653a2063616c6c6572206973206e6f7420746865206f776e65726044820152606401610b21565b600680547fffffffffffffffffff00ffffffffffffffffffffffffffffffffffffffffffff169055565b60006112d1848484612a61565b949350505050565b6000546001600160a01b031633146113335760405162461bcd60e51b815260206004820181905260248201527f4f776e61626c653a2063616c6c6572206973206e6f7420746865206f776e65726044820152606401610b21565b61111a6000612aec565b6001600160a01b0381166000908152600d602090815260409182902080548351818402810184019094528084526060939283018282801561139d57602002820191906000526020600020905b815481526020019060010190808311611389575b50505050509050919050565b6113b233611ee3565b6113eb5760405162461bcd60e51b815260206004820152600a6024820152693737ba1039b2b63632b960b11b6044820152606401610b21565b61104181612939565b60606012805480602002602001604051908101604052809291908181526020018280548015610ac157602002820191906000526020600020905b81546001600160a01b0316815260019091019060200180831161142e575050505050905090565b60008181526016602090815260409182902080548351818402810184019094528084526060939283018282801561139d57602002820191906000526020600020905b81546001600160a01b031681526001909101906020018083116114975750505050509050919050565b60006114cd89338a612a61565b80611502575060008981526014602090815260408083206001600160a01b038c16845282528083203384529091529020548611155b6115335760405162461bcd60e51b8152602060048201526002602482015261353360f01b6044820152606401610b21565b60008981526014602090815260408083206001600160a01b038c168452825280832033845290915290205486116115c95760008981526014602090815260408083206001600160a01b038c16845282528083203384529091529020546115999087612419565b60008a81526014602090815260408083206001600160a01b038d16845282528083203384529091529020556115f5565b60008981526014602090815260408083206001600160a01b038c16845282528083203384529091528120555b61166d89338a8a8a8a8a8080601f01602080910402602001604051908101604052809392919081815260200183838082843760009201919091525050604080516020601f8e018190048102820181019092528c815292508c91508b9081908401838280828437600092019190915250612b4992505050565b9998505050505050505050565b6001600160a01b03811633141561169057600080fd5b6001600160a01b0381166000818152601160209081526040808320338085529252808320805460ff19166001179055519092917ff4caeb2d6ca8932a215a353d0703c326ec2d81fc68170f320eb2ab49e9df61f991a350565b606060038054610a489061450f565b6117023385612398565b6117335760405162461bcd60e51b815260206004820152600260248201526106a760f31b6044820152606401610b21565b610fc933858585858080601f016020809104026020016040519081016040528093929190818152602001838380828437600092019190915250612bdf92505050565b61177e3361187f565b6117b75760405162461bcd60e51b815260206004820152600a6024820152693737ba1036b4b73a32b960b11b6044820152606401610b21565b61104181612da6565b61111a336126a4565b6117d4853386612a61565b6118055760405162461bcd60e51b815260206004820152600260248201526106a760f31b6044820152606401610b21565b611239853386866040518060200160405280600081525087878080601f01602080910402602001604051908101604052809392919081815260200183838082843760009201919091525061281992505050565b60006118763333858560405180602001604052806000815250612425565b50600192915050565b6001600160a01b03811660009081527f26966c7ca00f80a840807fe1d2876298d981892bf639875a3c73ba2ac1fa3a0c602052604081205460ff16610a33565b6000818152600960205260408120805460609291906118dd9061450f565b151590506118ea57600080fd5b600083815260096020526040902060018101548154829061190a9061450f565b80601f01602080910402602001604051908101604052809291908181526020018280546119369061450f565b80156119835780601f1061195857610100808354040283529160200191611983565b820191906000526020600020905b81548152906001019060200180831161196657829003601f168201915b5050505050915091509150915091565b600061199f8383612398565b9392505050565b6119af3361187f565b6119e85760405162461bcd60e51b815260206004820152600a6024820152693737ba1036b4b73a32b960b11b6044820152606401610b21565b600654600160b01b900460ff16611a265760405162461bcd60e51b8152602060048201526002602482015261353560f01b6044820152606401610b21565b601054611a5a5760405162461bcd60e51b8152602060048201526002602482015261353560f01b6044820152606401610b21565b611a6384612e07565b611aa55760405162461bcd60e51b81526020600482015260136024820152722ab730baba3437b934bd32b2102830b93a3c9760691b6044820152606401610b21565b610fc96010600081548110611abc57611abc61457b565b906000526020600020015433868686868080601f01602080910402602001604051908101604052809392919081815260200183838082843760009201919091525061299a92505050565b60606010805480602002602001604051908101604052809291908181526020018280548015610ac157602002820191906000526020600020905b815481526020019060010190808311611b40575050505050905090565b6000546001600160a01b03163314611bb75760405162461bcd60e51b815260206004820181905260248201527f4f776e61626c653a2063616c6c6572206973206e6f7420746865206f776e65726044820152606401610b21565b600680547fffffffffffffffffffff00ffffffffffffffffffffffffffffffffffffffffff169055565b60008281526001602081905260409091200154611bfe813361259d565b610e4a8383612705565b611c1133611ee3565b611c4a5760405162461bcd60e51b815260206004820152600a6024820152693737ba1039b2b63632b960b11b6044820152606401610b21565b61104181612e8c565b610e4a33338585858080601f016020809104026020016040519081016040528093929190818152602001838380828437600092019190915250612bdf92505050565b6000546001600160a01b03163314611cef5760405162461bcd60e51b815260206004820181905260248201527f4f776e61626c653a2063616c6c6572206973206e6f7420746865206f776e65726044820152606401610b21565b6110cc828280806020026020016040519081016040528093929190818152602001838360200280828437600092019190915250612eed92505050565b6000546001600160a01b03163314611d855760405162461bcd60e51b815260206004820181905260248201527f4f776e61626c653a2063616c6c6572206973206e6f7420746865206f776e65726044820152606401610b21565b610e4a60108383613c4d565b611d9b3386612398565b80611dc957506001600160a01b03851660009081526008602090815260408083203384529091529020548311155b611dfa5760405162461bcd60e51b8152602060048201526002602482015261353360f01b6044820152606401610b21565b6001600160a01b03851660009081526008602090815260408083203384529091529020548311611e7b576001600160a01b0385166000908152600860209081526040808320338452909152902054611e529084612419565b6001600160a01b0386166000908152600860209081526040808320338452909152902055611ea0565b6001600160a01b03851660009081526008602090815260408083203384529091528120555b6112393386868686868080601f01602080910402602001604051908101604052809392919081815260200183838082843760009201919091525061242592505050565b6001600160a01b03811660009081527fe955d3eaac45bb7fcb2feb7adc177d6fedc26712dbb754b5e3ecd058e0c31db8602052604081205460ff16610a33565b6000546001600160a01b03163314611f7d5760405162461bcd60e51b815260206004820181905260248201527f4f776e61626c653a2063616c6c6572206973206e6f7420746865206f776e65726044820152606401610b21565b6001600160a01b038116611ff95760405162461bcd60e51b815260206004820152602660248201527f4f776e61626c653a206e6577206f776e657220697320746865207a65726f206160448201527f64647265737300000000000000000000000000000000000000000000000000006064820152608401610b21565b61104181612aec565b6000612056863333888888888080601f016020809104026020016040519081016040528093929190818152602001838380828437600092018290525060408051602081019091529081529250612b49915050565b9695505050505050565b6001600160a01b03811633141561207657600080fd5b6001600160a01b0381166000818152601160209081526040808320338085529252808320805460ff19169055519092917f50546e66e5f44d728365dc3908c63bc5cfeeab470722c1677e3073a6ac294aa191a350565b606060006120db836002614496565b6120e690600261445c565b67ffffffffffffffff8111156120fe576120fe614591565b6040519080825280601f01601f191660200182016040528015612128576020820181803683370190505b509050600360fc1b816000815181106121435761214361457b565b60200101906001600160f81b031916908160001a905350600f60fb1b816001815181106121725761217261457b565b60200101906001600160f81b031916908160001a9053506000612196846002614496565b6121a190600161445c565b90505b6001811115612226577f303132333435363738396162636465660000000000000000000000000000000085600f16601081106121e2576121e261457b565b1a60f81b8282815181106121f8576121f861457b565b60200101906001600160f81b031916908160001a90535060049490941c9361221f816144f8565b90506121a4565b50831561199f5760405162461bcd60e51b815260206004820181905260248201527f537472696e67733a20686578206c656e67746820696e73756666696369656e746044820152606401610b21565b60005b600083815260166020526040902054811015612301576000838152601760209081526040808320601690925282208054839190859081106122bb576122bb61457b565b6000918252602080832091909101546001600160a01b031683528201929092526040019020805460ff1916911515919091179055806122f98161454a565b915050612278565b5060005b81518110156123785760008381526017602052604081208351600192908590859081106123345761233461457b565b6020908102919091018101516001600160a01b03168252810191909152604001600020805460ff1916911515919091179055806123708161454a565b915050612305565b5060008281526016602090815260409091208251610e4a92840190613c88565b6000816001600160a01b0316836001600160a01b031614806123df57506001600160a01b0380841660009081526011602090815260408083209386168352929052205460ff165b8061199f5750600654600160a81b900460ff16801561199f575050506001600160a01b031660009081526013602052604090205460ff1690565b600061199f82846144b5565b6010546124595760405162461bcd60e51b8152602060048201526002602482015261353560f01b6044820152606401610b21565b816000805b601054811015612560576001600160a01b0387166000908152600f6020526040812060108054919291849081106124975761249761457b565b906000526020600020015481526020019081526020016000205491508183116124ff576124f5601082815481106124d0576124d061457b565b9060005260206000200154898989878960405180602001604052806000815250612b49565b5060009250612560565b811561254e576125406010828154811061251b5761251b61457b565b9060005260206000200154898989868960405180602001604052806000815250612b49565b5061254b82846144b5565b92505b806125588161454a565b91505061245e565b5081156125945760405162461bcd60e51b81526020600482015260026024820152611a9960f11b6044820152606401610b21565b50505050505050565b60008281526001602090815260408083206001600160a01b038516845290915290205460ff166110cc576125db816001600160a01b031660146120cc565b6125e68360206120cc565b6040516020016125f7929190614262565b60408051601f198184030181529082905262461bcd60e51b8252610b21916004016143db565b60008281526001602090815260408083206001600160a01b038516845290915290205460ff166110cc5760008281526001602081815260408084206001600160a01b0386168086529252808420805460ff19169093179092559051339285917f2f8788117e7eff1d82e926ec794901d17c78024a50270940304540a733656f0d9190a45050565b6126ce7f6e58ad548d72b425ea94c15f453bf26caddb061d82b2551db7fdd3cefe0e994082611be1565b6040516001600160a01b038216907fe94479a9f7e1952cc78f2d6baab678adc1b772d936c6583def489e524cb6669290600090a250565b60008281526001602090815260408083206001600160a01b038516845290915290205460ff16156110cc5760008281526001602090815260408083206001600160a01b0385168085529252808320805460ff1916905551339285917ff6391f5c32d9c69d2a47ea670b442974b53935d1edc7fd64eb21e047a839171b9190a45050565b60185460ff166127da5760405162461bcd60e51b815260206004820152601460248201527f5061757361626c653a206e6f74207061757365640000000000000000000000006044820152606401610b21565b6018805460ff191690556040805133815290517f5db9ee0a495bf2e6ff9c91a7834c1ba4fdd244a5e8aa4e537bd38aeae4b073aa9181900360200190a1565b61282285612e07565b8015612832575061283284612e07565b6128745760405162461bcd60e51b81526020600482015260136024820152722ab730baba3437b934bd32b2102830b93a3c9760691b6044820152606401610b21565b6001600160a01b0384166000908152600f602090815260408083208984529091529020548311156128cc5760405162461bcd60e51b81526020600482015260026024820152611a9960f11b6044820152606401610b21565b6128d7848785612fd6565b6128e3858585856132b2565b836001600160a01b0316856001600160a01b0316877fce306c3dbc4a497124b5a4f2be8388b41084c1d74663da27ecee1186c00239bf8685604051612929929190614410565b60405180910390a4505050505050565b6129637fab727555e1a579ca2f00d4f6682bede92e5e46e287e8b1a6f243044c1ec5b7ac82611be1565b6040516001600160a01b038216907fa6f3b3030df964d974376ba4db21cbe49207bd79998f0d619c1c3a422259707f90600090a250565b6129a384612e07565b80156129b357506129b383612e07565b6129f55760405162461bcd60e51b81526020600482015260136024820152722ab730baba3437b934bd32b2102830b93a3c9760691b6044820152606401610b21565b612a01848484846134eb565b612a0c8386846136c0565b826001600160a01b0316846001600160a01b0316867ff0ded82afbb1bb3ff3fc48cb2a26584aa84e4af0bf309c804ecdb94d0f6a98bb8585604051612a52929190614429565b60405180910390a45050505050565b6000612a6d8383612398565b80612aa557506001600160a01b03808316600090815260156020908152604080832088845282528083209387168352929052205460ff165b806112d15750600654600160a81b900460ff1680156112d15750505060009182526017602090815260408084206001600160a01b0393909316845291905290205460ff1690565b600080546001600160a01b0383811673ffffffffffffffffffffffffffffffffffffffff19831681178455604051919092169283917f8be0079c531659141344cd1fd0a4f28419497f9722a3daafe3b4186f6b6457e09190a35050565b6000612b5a888888888888886137fe565b5060185460ff1615612bd45760405162461bcd60e51b815260206004820152602c60248201527f455243313430305061757361626c653a20746f6b656e207472616e736665722060448201527f7768696c652070617573656400000000000000000000000000000000000000006064820152608401610b21565b979650505050505050565b612be884612e07565b8015612bf85750612bf883612e07565b612c3a5760405162461bcd60e51b81526020600482015260136024820152722ab730baba3437b934bd32b2102830b93a3c9760691b6044820152606401610b21565b601054612c6e5760405162461bcd60e51b8152602060048201526002602482015261353560f01b6044820152606401610b21565b816000805b601054811015612d6a576001600160a01b0386166000908152600f602052604081206010805491929184908110612cac57612cac61457b565b90600052602060002001548152602001908152602001600020549150818311612d1257612d0960108281548110612ce557612ce561457b565b90600052602060002001548888868860405180602001604052806000815250612819565b60009250612d6a565b612d4c60108281548110612d2857612d2861457b565b90600052602060002001548888858860405180602001604052806000815250612819565b612d5682846144b5565b925080612d628161454a565b915050612c73565b508115612d9e5760405162461bcd60e51b81526020600482015260026024820152611a9960f11b6044820152606401610b21565b505050505050565b612dd07f6e58ad548d72b425ea94c15f453bf26caddb061d82b2551db7fdd3cefe0e994082610fcf565b6040516001600160a01b038216907f6ae172837ea30b801fbfcdd4108aa1d5bf8ff775444fd70256b44e6bf3dfc3f690600090a250565b6006546040516301fd3f7760e71b81526001600160a01b03838116600483015260009261010090041690819063fe9fbb809060240160206040518083038186803b158015612e5457600080fd5b505afa158015612e68573d6000803e3d6000fd5b505050506040513d601f19601f8201168201806040525081019061199f9190613f68565b612eb67fab727555e1a579ca2f00d4f6682bede92e5e46e287e8b1a6f243044c1ec5b7ac82610fcf565b6040516001600160a01b038216907f3d78526f2568d430fd8e20719601f7bc3f979936f8880236cc284e8127251b4290600090a250565b60005b601254811015612f595760006013600060128481548110612f1357612f1361457b565b6000918252602080832091909101546001600160a01b031683528201929092526040019020805460ff191691151591909117905580612f518161454a565b915050612ef0565b5060005b8151811015612fc257600160136000848481518110612f7e57612f7e61457b565b6020908102919091018101516001600160a01b03168252810191909152604001600020805460ff191691151591909117905580612fba8161454a565b915050612f5d565b5080516110cc906012906020840190613c88565b6001600160a01b0383166000908152600f602090815260408083208584529091529020546130049082612419565b6001600160a01b0384166000908152600f60209081526040808320868452825280832093909355600c9052205461303b9082612419565b6000838152600c60205260409020819055613137576000828152600b6020526040902054806130915760405162461bcd60e51b8152602060048201526002602482015261035360f41b6044820152606401610b21565b600a8054600091906130a5906001906144b5565b815481106130b5576130b561457b565b9060005260206000200154905080600a6001846130d291906144b5565b815481106130e2576130e261457b565b600091825260209091200155600a80546130fe906001906144b5565b8154811061310e5761310e61457b565b60009182526020808320909101829055918152600b909152604080822092909255838152908120555b6001600160a01b0383166000908152600f60209081526040808320858452909152902054610e4a576001600160a01b0383166000908152600e60209081526040808320858452909152902054806131b55760405162461bcd60e51b8152602060048201526002602482015261035360f41b6044820152606401610b21565b6001600160a01b0384166000908152600d6020526040812080546131db906001906144b5565b815481106131eb576131eb61457b565b60009182526020808320909101546001600160a01b0388168352600d9091526040909120909150819061321f6001856144b5565b8154811061322f5761322f61457b565b60009182526020808320909101929092556001600160a01b0387168152600d909152604090208054613263906001906144b5565b815481106132735761327361457b565b60009182526020808320919091018290556001600160a01b03969096168152600e86526040808220928252919095528085209190915591835250812055565b60065460ff16156132ea5760405162461bcd60e51b81526020600482015260026024820152610d4d60f21b6044820152606401610b21565b6132f384612e07565b8015613303575061330383612e07565b6133455760405162461bcd60e51b81526020600482015260136024820152722ab730baba3437b934bd32b2102830b93a3c9760691b6044820152606401610b21565b61334e826139a9565b61337f5760405162461bcd60e51b8152602060048201526002602482015261035360f41b6044820152606401610b21565b6001600160a01b0383166133ba5760405162461bcd60e51b81526020600482015260026024820152611a9b60f11b6044820152606401610b21565b6001600160a01b0383166000908152600760205260409020548211156134075760405162461bcd60e51b81526020600482015260026024820152611a9960f11b6044820152606401610b21565b6001600160a01b03831660009081526007602052604090205461342a9083612419565b6001600160a01b0384166000908152600760205260409020556005546134509083612419565b600581905550826001600160a01b0316846001600160a01b03167fb7d0d6b60740753e9f16692a2f479472a1385aec2420fa43225b02f2ffa1afe7848460405161349b929190614410565b60405180910390a36040518281526000906001600160a01b038516907fddf252ad1be2c89b69c2b068fc378daa952ba7f163c4a11628f55a4df523b3ef906020015b60405180910390a350505050565b60065460ff16156135235760405162461bcd60e51b81526020600482015260026024820152610d4d60f21b6044820152606401610b21565b61352c84612e07565b801561353c575061353c83612e07565b61357e5760405162461bcd60e51b81526020600482015260136024820152722ab730baba3437b934bd32b2102830b93a3c9760691b6044820152606401610b21565b613587826139a9565b6135b85760405162461bcd60e51b8152602060048201526002602482015261035360f41b6044820152606401610b21565b6001600160a01b0383166135f35760405162461bcd60e51b8152602060048201526002602482015261353760f01b6044820152606401610b21565b60055461360090836139cc565b6005556001600160a01b03831660009081526007602052604090205461362690836139cc565b6001600160a01b0380851660008181526007602052604090819020939093559151908616907f0e9905d62635f049c2f4e11678ebf9dc3d1f8c4a653e290759b772e47ba00d009061367a9086908690614410565b60405180910390a36040518281526001600160a01b038416906000907fddf252ad1be2c89b69c2b068fc378daa952ba7f163c4a11628f55a4df523b3ef906020016134dd565b8015610e4a576001600160a01b0383166000908152600e60209081526040808320858452909152902054613732576001600160a01b0383166000818152600d602090815260408083208054600181018255818552838520018790559383529254600e8252838320868452909152919020555b6001600160a01b0383166000908152600f6020908152604080832085845290915290205461376090826139cc565b6001600160a01b0384166000908152600f60209081526040808320868452825280832093909355600b905220546137d157600a80546001810182557fc65a7bb8d6351c1cf70c95a316cc6a92839c986682d98bc35f958f4883f9d2a801839055546000838152600b60205260409020555b6000828152600c60205260409020546137ea90826139cc565b6000838152600c6020526040902055505050565b6001600160a01b0385166000908152600f602090815260408083208a84529091528120548411156138565760405162461bcd60e51b81526020600482015260026024820152611a9960f11b6044820152606401610b21565b61385f87612e07565b801561386f575061386f86612e07565b801561387f575061387f85612e07565b6138c15760405162461bcd60e51b81526020600482015260136024820152722ab730baba3437b934bd32b2102830b93a3c9760691b6044820152606401610b21565b81518890158015906138d557506040845110155b156138e7576138e489856139d8565b90505b6138f2878a87612fd6565b6138fd878787613a04565b6139088682876136c0565b856001600160a01b0316876001600160a01b03168a7fff4e9a26af4eb73b8bacfaa4abd4fea03d9448e7b912dc5ff4019048875aa2d48b89898960405161395294939291906142e3565b60405180910390a488811461399d5780897f67c8ba31d2dd11f1384577b3405b04ed91eed1231e408432ad2458cab37b2fa18760405161399491815260200190565b60405180910390a35b98975050505050505050565b60045460009082906139c5906139bf8382613bb1565b90613bbd565b1492915050565b600061199f828461445c565b602081015160009060001990808214156139f857604084015192506139fc565b8492505b505092915050565b60065460ff1615613a3c5760405162461bcd60e51b81526020600482015260026024820152610d4d60f21b6044820152606401610b21565b613a45816139a9565b613a765760405162461bcd60e51b8152602060048201526002602482015261035360f41b6044820152606401610b21565b6001600160a01b038216613ab15760405162461bcd60e51b8152602060048201526002602482015261353760f01b6044820152606401610b21565b6001600160a01b038316600090815260076020526040902054811115613afe5760405162461bcd60e51b81526020600482015260026024820152611a9960f11b6044820152606401610b21565b6001600160a01b038316600090815260076020526040902054613b219082612419565b6001600160a01b038085166000908152600760205260408082209390935590841681522054613b5090826139cc565b6001600160a01b0380841660008181526007602052604090819020939093559151908516907fddf252ad1be2c89b69c2b068fc378daa952ba7f163c4a11628f55a4df523b3ef90613ba49085815260200190565b60405180910390a3505050565b600061199f8284614474565b600061199f8284614496565b828054613bd59061450f565b90600052602060002090601f016020900481019282613bf75760008555613c3d565b82601f10613c1057805160ff1916838001178555613c3d565b82800160010185558215613c3d579182015b82811115613c3d578251825591602001919060010190613c22565b50613c49929150613cea565b5090565b828054828255906000526020600020908101928215613c3d579160200282015b82811115613c3d578235825591602001919060010190613c6d565b828054828255906000526020600020908101928215613c3d579160200282015b82811115613c3d578251825473ffffffffffffffffffffffffffffffffffffffff19166001600160a01b03909116178255602090920191600190910190613ca8565b5b80821115613c495760008155600101613ceb565b80356001600160a01b0381168114613d1657600080fd5b919050565b60008083601f840112613d2d57600080fd5b50813567ffffffffffffffff811115613d4557600080fd5b6020830191508360208260051b8501011115613d6057600080fd5b9250929050565b60008083601f840112613d7957600080fd5b50813567ffffffffffffffff811115613d9157600080fd5b602083019150836020828501011115613d6057600080fd5b600060208284031215613dbb57600080fd5b61199f82613cff565b60008060408385031215613dd757600080fd5b613de083613cff565b9150613dee60208401613cff565b90509250929050565b600080600060608486031215613e0c57600080fd5b613e1584613cff565b9250613e2360208501613cff565b9150604084013590509250925092565b600080600080600060808688031215613e4b57600080fd5b613e5486613cff565b9450613e6260208701613cff565b935060408601359250606086013567ffffffffffffffff811115613e8557600080fd5b613e9188828901613d67565b969995985093965092949392505050565b60008060408385031215613eb557600080fd5b613ebe83613cff565b946020939093013593505050565b60008060008060608587031215613ee257600080fd5b613eeb85613cff565b935060208501359250604085013567ffffffffffffffff811115613f0e57600080fd5b613f1a87828801613d67565b95989497509550505050565b60008060208385031215613f3957600080fd5b823567ffffffffffffffff811115613f5057600080fd5b613f5c85828601613d1b565b90969095509350505050565b600060208284031215613f7a57600080fd5b8151801515811461199f57600080fd5b600060208284031215613f9c57600080fd5b5035919050565b60008060408385031215613fb657600080fd5b82359150613dee60208401613cff565b600080600060608486031215613fdb57600080fd5b83359250613feb60208501613cff565b9150613ff960408501613cff565b90509250925092565b60008060008060008060008060c0898b03121561401e57600080fd5b8835975061402e60208a01613cff565b965061403c60408a01613cff565b955060608901359450608089013567ffffffffffffffff8082111561406057600080fd5b61406c8c838d01613d67565b909650945060a08b013591508082111561408557600080fd5b506140928b828c01613d67565b999c989b5096995094979396929594505050565b6000806000606084860312156140bb57600080fd5b83359250613e2360208501613cff565b6000806000806000608086880312156140e357600080fd5b85359450613e6260208701613cff565b60008060006040848603121561410857600080fd5b83359250602084013567ffffffffffffffff81111561412657600080fd5b61413286828701613d1b565b9497909650939450505050565b6000806000806060858703121561415557600080fd5b84359350602085013567ffffffffffffffff81111561417357600080fd5b61417f87828801613d67565b9598909750949560400135949350505050565b600080600080606085870312156141a857600080fd5b8435935060208501359250604085013567ffffffffffffffff811115613f0e57600080fd5b6000602082840312156141df57600080fd5b81356001600160e01b03198116811461199f57600080fd5b60008060006040848603121561420c57600080fd5b83359250602084013567ffffffffffffffff81111561422a57600080fd5b61413286828701613d67565b6000815180845261424e8160208601602086016144cc565b601f01601f19169290920160200192915050565b7f416363657373436f6e74726f6c3a206163636f756e742000000000000000000081526000835161429a8160178501602088016144cc565b7f206973206d697373696e6720726f6c652000000000000000000000000000000060179184019182015283516142d78160288401602088016144cc565b01602801949350505050565b6001600160a01b038516815283602082015260806040820152600061430b6080830185614236565b8281036060840152612bd48185614236565b6020808252825182820181905260009190848201906040850190845b8181101561435e5783516001600160a01b031683529284019291840191600101614339565b50909695505050505050565b6020808252825182820181905260009190848201906040850190845b8181101561435e57835183529284019291840191600101614386565b604081528260408201528284606083013760006060848301015260006060601f19601f8601168301019050826020830152949350505050565b60208152600061199f6020830184614236565b6040815260006144016040830185614236565b90508260208301529392505050565b8281526040602082015260006112d16040830184614236565b8281526060602082015260006144426060830184614236565b828103604084015260008152602081019150509392505050565b6000821982111561446f5761446f614565565b500190565b60008261449157634e487b7160e01b600052601260045260246000fd5b500490565b60008160001904831182151516156144b0576144b0614565565b500290565b6000828210156144c7576144c7614565565b500390565b60005b838110156144e75781810151838201526020016144cf565b83811115610fc95750506000910152565b60008161450757614507614565565b506000190190565b600181811c9082168061452357607f821691505b6020821081141561454457634e487b7160e01b600052602260045260246000fd5b50919050565b600060001982141561455e5761455e614565565b5060010190565b634e487b7160e01b600052601160045260246000fd5b634e487b7160e01b600052603260045260246000fd5b634e487b7160e01b600052604160045260246000fdfea2646970667358221220499f358ed4fc5e9181a96cec47d3c7d880b0d58d78d04b7bf88834f05389407b64736f6c634300080700336e58ad548d72b425ea94c15f453bf26caddb061d82b2551db7fdd3cefe0e9940",
  "bytecodeSha1": "da39a3ee5e6b4b0d3255bfef95601890afd80709",
  "compiler": {
    "evm_version": "istanbul",
    "optimizer": {
      "enabled": true,
      "runs": 800
    },
    "version": "0.8.7+commit.e28d00a7"
  },
  "contractName": "PausableERC1400",
  "language": "Solidity",
  "natspec": {
    "kind": "dev",
    "methods": {
      "allowance(address,address)": {
        "details": "Check the value of tokens that an owner allowed to a spender.",
        "params": {
          "owner": "address The address which owns the funds.",
          "spender": "address The address which will spend the funds."
        },
        "returns": {
          "_0": "A uint256 specifying the value of tokens still available for the spender."
        }
      },
      "allowanceByPartition(bytes32,address,address)": {
        "details": "Check the value of tokens that an owner allowed to a spender.",
        "params": {
          "owner": "address The address which owns the funds.",
          "partition": "Name of the partition.",
          "spender": "address The address which will spend the funds."
        },
        "returns": {
          "_0": "A uint256 specifying the value of tokens still available for the spender."
        }
      },
      "approve(address,uint256)": {
        "details": "Approve the passed address to spend the specified amount of tokens on behalf of 'msg.sender'.",
        "params": {
          "spender": "The address which will spend the funds.",
          "value": "The amount of tokens to be spent."
        },
        "returns": {
          "_0": "A boolean that indicates if the operation was successful."
        }
      },
      "approveByPartition(bytes32,address,uint256)": {
        "details": "Approve the passed address to spend the specified amount of tokens on behalf of 'msg.sender'.",
        "params": {
          "partition": "Name of the partition.",
          "spender": "The address which will spend the funds.",
          "value": "The amount of tokens to be spent."
        },
        "returns": {
          "_0": "A boolean that indicates if the operation was successful."
        }
      },
      "authorizeOperator(address)": {
        "details": "Set a third party operator address as an operator of 'msg.sender' to transfer and redeem tokens on its behalf.",
        "params": {
          "operator": "Address to set as an operator for 'msg.sender'."
        }
      },
      "authorizeOperatorByPartition(bytes32,address)": {
        "details": "Set 'operator' as an operator for 'msg.sender' for a given partition.",
        "params": {
          "operator": "Address to set as an operator for 'msg.sender'.",
          "partition": "Name of the partition."
        }
      },
      "balanceOf(address)": {
        "details": "Get the balance of the account with address 'tokenHolder'.",
        "params": {
          "tokenHolder": "Address for which the balance is returned."
        },
        "returns": {
          "_0": "Amount of token held by 'tokenHolder' in the token contract."
        }
      },
      "balanceOfByPartition(bytes32,address)": {
        "details": "Get balance of a tokenholder for a specific partition.",
        "params": {
          "partition": "Name of the partition.",
          "tokenHolder": "Address for which the balance is returned."
        },
        "returns": {
          "_0": "Amount of token of partition 'partition' held by 'tokenHolder' in the token contract."
        }
      },
      "controllers()": {
        "details": "Get the list of controllers as defined by the token contract.",
        "returns": {
          "_0": "List of addresses of all the controllers."
        }
      },
      "controllersByPartition(bytes32)": {
        "details": "Get controllers for a given partition.",
        "params": {
          "partition": "Name of the partition."
        },
        "returns": {
          "_0": "Array of controllers for partition."
        }
      },
      "getDefaultPartitions()": {
        "details": "Get default partitions to transfer from. Function used for ERC20 retrocompatibility. For example, a security token may return the bytes32(\"unrestricted\").",
        "returns": {
          "_0": "Array of default partitions."
        }
      },
      "getDocument(bytes32)": {
        "details": "Access a document associated with the token.",
        "params": {
          "name": "Short name (represented as a bytes32) associated to the document."
        },
        "returns": {
          "_0": "Requested document + document hash."
        }
      },
      "getRoleAdmin(bytes32)": {
        "details": "Returns the admin role that controls `role`. See {grantRole} and {revokeRole}. To change a role's admin, use {_setRoleAdmin}."
      },
      "grantRole(bytes32,address)": {
        "details": "Grants `role` to `account`. If `account` had not been already granted `role`, emits a {RoleGranted} event. Requirements: - the caller must have ``role``'s admin role."
      },
      "hasRole(bytes32,address)": {
        "details": "Returns `true` if `account` has been granted `role`."
      },
      "isControllable()": {
        "details": "Know if the token can be controlled by operators. If a token returns 'false' for 'isControllable()'' then it MUST always return 'false' in the future.",
        "returns": {
          "_0": "bool 'true' if the token can still be controlled by operators, 'false' if it can't anymore."
        }
      },
      "isIssuable()": {
        "details": "Know if new tokens can be issued in the future.",
        "returns": {
          "_0": "bool 'true' if tokens can still be issued by the issuer, 'false' if they can't anymore."
        }
      },
      "isOperator(address,address)": {
        "details": "Indicate whether the operator address is an operator of the tokenHolder address.",
        "params": {
          "operator": "Address which may be an operator of tokenHolder.",
          "tokenHolder": "Address of a token holder which may have the operator address as an operator."
        },
        "returns": {
          "_0": "'true' if operator is an operator of 'tokenHolder' and 'false' otherwise."
        }
      },
      "isOperatorForPartition(bytes32,address,address)": {
        "details": "Indicate whether the operator address is an operator of the tokenHolder address for the given partition.",
        "params": {
          "operator": "Address which may be an operator of tokenHolder for the given partition.",
          "partition": "Name of the partition.",
          "tokenHolder": "Address of a token holder which may have the operator address as an operator for the given partition."
        },
        "returns": {
          "_0": "'true' if 'operator' is an operator of 'tokenHolder' for partition 'partition' and 'false' otherwise."
        }
      },
      "issue(address,uint256,bytes)": {
        "details": "Issue tokens from default partition.",
        "params": {
          "data": "Information attached to the issuance, by the issuer.",
          "tokenHolder": "Address for which we want to issue tokens.",
          "value": "Number of tokens issued."
        }
      },
      "issueByPartition(bytes32,address,uint256,bytes)": {
        "details": "Issue tokens from a specific partition.",
        "params": {
          "data": "Information attached to the issuance, by the issuer.",
          "partition": "Name of the partition.",
          "tokenHolder": "Address for which we want to issue tokens.",
          "value": "Number of tokens issued."
        }
      },
      "operatorRedeemByPartition(bytes32,address,uint256,bytes)": {
        "details": "Redeem tokens of a specific partition.",
        "params": {
          "operatorData": "Information attached to the redemption, by the operator.",
          "partition": "Name of the partition.",
          "tokenHolder": "Address for which we want to redeem tokens.",
          "value": "Number of tokens redeemed"
        }
      },
      "operatorTransferByPartition(bytes32,address,address,uint256,bytes,bytes)": {
        "details": "Transfer tokens from a specific partition through an operator.",
        "params": {
          "data": "Information attached to the transfer. [CAN CONTAIN THE DESTINATION PARTITION]",
          "from": "Token holder.",
          "operatorData": "Information attached to the transfer, by the operator.",
          "partition": "Name of the partition.",
          "to": "Token recipient.",
          "value": "Number of tokens to transfer."
        },
        "returns": {
          "_0": "Destination partition."
        }
      },
      "owner()": {
        "details": "Returns the address of the current owner."
      },
      "partitionsOf(address)": {
        "details": "Get partitions index of a tokenholder.",
        "params": {
          "tokenHolder": "Address for which the partitions index are returned."
        },
        "returns": {
          "_0": "Array of partitions index of 'tokenHolder'."
        }
      },
      "paused()": {
        "details": "Returns true if the contract is paused, and false otherwise."
      },
      "redeem(uint256,bytes)": {
        "details": "Redeem the amount of tokens from the address 'msg.sender'.",
        "params": {
          "data": "Information attached to the redemption, by the token holder.",
          "value": "Number of tokens to redeem."
        }
      },
      "redeemByPartition(bytes32,uint256,bytes)": {
        "details": "Redeem tokens of a specific partition.",
        "params": {
          "data": "Information attached to the redemption, by the redeemer.",
          "partition": "Name of the partition.",
          "value": "Number of tokens redeemed."
        }
      },
      "redeemFrom(address,uint256,bytes)": {
        "details": "Redeem the amount of tokens on behalf of the address from.",
        "params": {
          "data": "Information attached to the redemption.",
          "from": "Token holder whose tokens will be redeemed (or address(0) to set from to msg.sender).",
          "value": "Number of tokens to redeem."
        }
      },
      "renounceControl()": {
        "details": "Definitely renounce the possibility to control tokens on behalf of tokenHolders. Once set to false, '_isControllable' can never be set to 'true' again."
      },
      "renounceIssuance()": {
        "details": "Definitely renounce the possibility to issue new tokens. Once set to false, '_isIssuable' can never be set to 'true' again."
      },
      "renounceOwnership()": {
        "details": "Leaves the contract without owner. It will not be possible to call `onlyOwner` functions anymore. Can only be called by the current owner. NOTE: Renouncing ownership will leave the contract without an owner, thereby removing any functionality that is only available to the owner."
      },
      "renounceRole(bytes32,address)": {
        "details": "Revokes `role` from the calling account. Roles are often managed via {grantRole} and {revokeRole}: this function's purpose is to provide a mechanism for accounts to lose their privileges if they are compromised (such as when a trusted device is misplaced). If the calling account had been granted `role`, emits a {RoleRevoked} event. Requirements: - the caller must be `account`."
      },
      "revokeOperator(address)": {
        "details": "Remove the right of the operator address to be an operator for 'msg.sender' and to transfer and redeem tokens on its behalf.",
        "params": {
          "operator": "Address to rescind as an operator for 'msg.sender'."
        }
      },
      "revokeOperatorByPartition(bytes32,address)": {
        "details": "Remove the right of the operator address to be an operator on a given partition for 'msg.sender' and to transfer and redeem tokens on its behalf.",
        "params": {
          "operator": "Address to rescind as an operator on given partition for 'msg.sender'.",
          "partition": "Name of the partition."
        }
      },
      "revokeRole(bytes32,address)": {
        "details": "Revokes `role` from `account`. If `account` had been granted `role`, emits a {RoleRevoked} event. Requirements: - the caller must have ``role``'s admin role."
      },
      "setControllers(address[])": {
        "details": "Set list of token controllers.",
        "params": {
          "operators": "Controller addresses."
        }
      },
      "setDefaultPartitions(bytes32[])": {
        "details": "Set default partitions to transfer from. Function used for ERC20 retrocompatibility.",
        "params": {
          "partitions": "partitions to use by default when not specified."
        }
      },
      "setDocument(bytes32,string,bytes32)": {
        "details": "Associate a document with the token.",
        "params": {
          "documentHash": "Hash of the document [optional parameter].",
          "name": "Short name (represented as a bytes32) associated to the document.",
          "uri": "Document content."
        }
      },
      "setPartitionControllers(bytes32,address[])": {
        "details": "Set list of token partition controllers.",
        "params": {
          "operators": "Controller addresses.",
          "partition": "Name of the partition."
        }
      },
      "supportsInterface(bytes4)": {
        "details": "See {IERC165-supportsInterface}."
      },
      "totalSupply()": {
        "details": "Get the total number of issued tokens.",
        "returns": {
          "_0": "Total supply of tokens currently in circulation."
        }
      },
      "transfer(address,uint256)": {
        "details": "Transfer token for a specified address.",
        "params": {
          "to": "The address to transfer to.",
          "value": "The value to be transferred."
        },
        "returns": {
          "_0": "A boolean that indicates if the operation was successful."
        }
      },
      "transferByPartition(bytes32,address,uint256,bytes)": {
        "details": "Transfer tokens from a specific partition.",
        "params": {
          "data": "Information attached to the transfer, by the token holder.",
          "partition": "Name of the partition.",
          "to": "Token recipient.",
          "value": "Number of tokens to transfer."
        },
        "returns": {
          "_0": "Destination partition."
        }
      },
      "transferFrom(address,address,uint256)": {
        "details": "Transfer tokens from one address to another.",
        "params": {
          "from": "The address which you want to transfer tokens from.",
          "to": "The address which you want to transfer to.",
          "value": "The amount of tokens to be transferred."
        },
        "returns": {
          "_0": "A boolean that indicates if the operation was successful."
        }
      },
      "transferFromWithData(address,address,uint256,bytes)": {
        "details": "Transfer the amount of tokens on behalf of the address 'from' to the address 'to'.",
        "params": {
          "data": "Information attached to the transfer, and intended for the token holder ('from').",
          "from": "Token holder (or 'address(0)' to set from to 'msg.sender').",
          "to": "Token recipient.",
          "value": "Number of tokens to transfer."
        }
      },
      "transferOwnership(address)": {
        "details": "Transfers ownership of the contract to a new account (`newOwner`). Can only be called by the current owner."
      },
      "transferWithData(address,uint256,bytes)": {
        "details": "Transfer the amount of tokens from the address 'msg.sender' to the address 'to'.",
        "params": {
          "data": "Information attached to the transfer, by the token holder.",
          "to": "Token recipient.",
          "value": "Number of tokens to transfer."
        }
      }
    },
    "version": 1
  },
  "opcodes": "PUSH1 0x80 PUSH1 0x40 MSTORE CALLVALUE DUP1 ISZERO PUSH2 0x10 JUMPI PUSH1 0x0 DUP1 REVERT JUMPDEST POP PUSH1 0x4 CALLDATASIZE LT PUSH2 0x3C5 JUMPI PUSH1 0x0 CALLDATALOAD PUSH1 0xE0 SHR DUP1 PUSH4 0x7CC0C3A7 GT PUSH2 0x1FF JUMPI DUP1 PUSH4 0xBB3ACDE9 GT PUSH2 0x11A JUMPI DUP1 PUSH4 0xE77C646D GT PUSH2 0xAD JUMPI DUP1 PUSH4 0xEE95FEAF GT PUSH2 0x7C JUMPI DUP1 PUSH4 0xEE95FEAF EQ PUSH2 0x8E5 JUMPI DUP1 PUSH4 0xF2FDE38B EQ PUSH2 0x8F8 JUMPI DUP1 PUSH4 0xF3D490DB EQ PUSH2 0x90B JUMPI DUP1 PUSH4 0xFAD8B32A EQ PUSH2 0x91E JUMPI PUSH1 0x0 DUP1 REVERT JUMPDEST DUP1 PUSH4 0xE77C646D EQ PUSH2 0x899 JUMPI DUP1 PUSH4 0xEA74838A EQ PUSH2 0x8AC JUMPI DUP1 PUSH4 0xEC9A6E87 EQ PUSH2 0x8BF JUMPI DUP1 PUSH4 0xEE532F31 EQ PUSH2 0x8D2 JUMPI PUSH1 0x0 DUP1 REVERT JUMPDEST DUP1 PUSH4 0xD547741F GT PUSH2 0xE9 JUMPI DUP1 PUSH4 0xD547741F EQ PUSH2 0x813 JUMPI DUP1 PUSH4 0xD93FABFA EQ PUSH2 0x826 JUMPI DUP1 PUSH4 0xDBE4613D EQ PUSH2 0x839 JUMPI DUP1 PUSH4 0xDD62ED3E EQ PUSH2 0x860 JUMPI PUSH1 0x0 DUP1 REVERT JUMPDEST DUP1 PUSH4 0xBB3ACDE9 EQ PUSH2 0x7C9 JUMPI DUP1 PUSH4 0xBCFDC0CF EQ PUSH2 0x7DC JUMPI DUP1 PUSH4 0xCA281FD9 EQ PUSH2 0x7E4 JUMPI DUP1 PUSH4 0xD5391393 EQ PUSH2 0x7EC JUMPI PUSH1 0x0 DUP1 REVERT JUMPDEST DUP1 PUSH4 0x983B2D56 GT PUSH2 0x192 JUMPI DUP1 PUSH4 0xA9059CBB GT PUSH2 0x161 JUMPI DUP1 PUSH4 0xA9059CBB EQ PUSH2 0x76F JUMPI DUP1 PUSH4 0xAA271E1A EQ PUSH2 0x782 JUMPI DUP1 PUSH4 0xB10D6B41 EQ PUSH2 0x795 JUMPI DUP1 PUSH4 0xB6363CF2 EQ PUSH2 0x7B6 JUMPI PUSH1 0x0 DUP1 REVERT JUMPDEST DUP1 PUSH4 0x983B2D56 EQ PUSH2 0x739 JUMPI DUP1 PUSH4 0x98650275 EQ PUSH2 0x74C JUMPI DUP1 PUSH4 0x98DDCEC7 EQ PUSH2 0x754 JUMPI DUP1 PUSH4 0xA217FDDF EQ PUSH2 0x767 JUMPI PUSH1 0x0 DUP1 REVERT JUMPDEST DUP1 PUSH4 0x91D14854 GT PUSH2 0x1CE JUMPI DUP1 PUSH4 0x91D14854 EQ PUSH2 0x6D2 JUMPI DUP1 PUSH4 0x959B8C3F EQ PUSH2 0x70B JUMPI DUP1 PUSH4 0x95D89B41 EQ PUSH2 0x71E JUMPI DUP1 PUSH4 0x9675193C EQ PUSH2 0x726 JUMPI PUSH1 0x0 DUP1 REVERT JUMPDEST DUP1 PUSH4 0x7CC0C3A7 EQ PUSH2 0x67C JUMPI DUP1 PUSH4 0x861ED3EA EQ PUSH2 0x691 JUMPI DUP1 PUSH4 0x8C0DEE9C EQ PUSH2 0x6A4 JUMPI DUP1 PUSH4 0x8DA5CB5B EQ PUSH2 0x6B7 JUMPI PUSH1 0x0 DUP1 REVERT JUMPDEST DUP1 PUSH4 0x2F2FF15D GT PUSH2 0x2EF JUMPI DUP1 PUSH4 0x64C78F8C GT PUSH2 0x282 JUMPI DUP1 PUSH4 0x70A08231 GT PUSH2 0x251 JUMPI DUP1 PUSH4 0x70A08231 EQ PUSH2 0x618 JUMPI DUP1 PUSH4 0x715018A6 EQ PUSH2 0x641 JUMPI DUP1 PUSH4 0x740AB8F4 EQ PUSH2 0x649 JUMPI DUP1 PUSH4 0x7CB9CF54 EQ PUSH2 0x669 JUMPI PUSH1 0x0 DUP1 REVERT JUMPDEST DUP1 PUSH4 0x64C78F8C EQ PUSH2 0x5E2 JUMPI DUP1 PUSH4 0x67C84919 EQ PUSH2 0x5EA JUMPI DUP1 PUSH4 0x6C30D170 EQ PUSH2 0x5FD JUMPI DUP1 PUSH4 0x6D77CAD6 EQ PUSH2 0x605 JUMPI PUSH1 0x0 DUP1 REVERT JUMPDEST DUP1 PUSH4 0x3F4BA83A GT PUSH2 0x2BE JUMPI DUP1 PUSH4 0x3F4BA83A EQ PUSH2 0x5AA JUMPI DUP1 PUSH4 0x4C783BF5 EQ PUSH2 0x5B2 JUMPI DUP1 PUSH4 0x5C975ABB EQ PUSH2 0x5C4 JUMPI DUP1 PUSH4 0x62EB0068 EQ PUSH2 0x5CF JUMPI PUSH1 0x0 DUP1 REVERT JUMPDEST DUP1 PUSH4 0x2F2FF15D EQ PUSH2 0x53E JUMPI DUP1 PUSH4 0x3092AFD5 EQ PUSH2 0x551 JUMPI DUP1 PUSH4 0x30E82803 EQ PUSH2 0x564 JUMPI DUP1 PUSH4 0x36568ABE EQ PUSH2 0x597 JUMPI PUSH1 0x0 DUP1 REVERT JUMPDEST DUP1 PUSH4 0x168ECEC5 GT PUSH2 0x367 JUMPI DUP1 PUSH4 0x23B872DD GT PUSH2 0x336 JUMPI DUP1 PUSH4 0x23B872DD EQ PUSH2 0x4E2 JUMPI DUP1 PUSH4 0x248A9CA3 EQ PUSH2 0x4F5 JUMPI DUP1 PUSH4 0x2535F762 EQ PUSH2 0x519 JUMPI DUP1 PUSH4 0x2F1CAE85 EQ PUSH2 0x52C JUMPI PUSH1 0x0 DUP1 REVERT JUMPDEST DUP1 PUSH4 0x168ECEC5 EQ PUSH2 0x468 JUMPI DUP1 PUSH4 0x16E1AED4 EQ PUSH2 0x47B JUMPI DUP1 PUSH4 0x17EC83CA EQ PUSH2 0x48E JUMPI DUP1 PUSH4 0x18160DDD EQ PUSH2 0x4DA JUMPI PUSH1 0x0 DUP1 REVERT JUMPDEST DUP1 PUSH4 0x8D0A7CF GT PUSH2 0x3A3 JUMPI DUP1 PUSH4 0x8D0A7CF EQ PUSH2 0x41C JUMPI DUP1 PUSH4 0x95EA7B3 EQ PUSH2 0x42F JUMPI DUP1 PUSH4 0x103EF9E1 EQ PUSH2 0x442 JUMPI DUP1 PUSH4 0x14D1E62F EQ PUSH2 0x455 JUMPI PUSH1 0x0 DUP1 REVERT JUMPDEST DUP1 PUSH4 0x10648CA EQ PUSH2 0x3CA JUMPI DUP1 PUSH4 0x1FFC9A7 EQ PUSH2 0x3DF JUMPI DUP1 PUSH4 0x6FDDE03 EQ PUSH2 0x407 JUMPI JUMPDEST PUSH1 0x0 DUP1 REVERT JUMPDEST PUSH2 0x3DD PUSH2 0x3D8 CALLDATASIZE PUSH1 0x4 PUSH2 0x413F JUMP JUMPDEST PUSH2 0x931 JUMP JUMPDEST STOP JUMPDEST PUSH2 0x3F2 PUSH2 0x3ED CALLDATASIZE PUSH1 0x4 PUSH2 0x41CD JUMP JUMPDEST PUSH2 0xA02 JUMP JUMPDEST PUSH1 0x40 MLOAD SWAP1 ISZERO ISZERO DUP2 MSTORE PUSH1 0x20 ADD JUMPDEST PUSH1 0x40 MLOAD DUP1 SWAP2 SUB SWAP1 RETURN JUMPDEST PUSH2 0x40F PUSH2 0xA39 JUMP JUMPDEST PUSH1 0x40 MLOAD PUSH2 0x3FE SWAP2 SWAP1 PUSH2 0x43DB JUMP JUMPDEST PUSH2 0x3DD PUSH2 0x42A CALLDATASIZE PUSH1 0x4 PUSH2 0x3DA9 JUMP JUMPDEST PUSH2 0xACB JUMP JUMPDEST PUSH2 0x3F2 PUSH2 0x43D CALLDATASIZE PUSH1 0x4 PUSH2 0x3EA2 JUMP JUMPDEST PUSH2 0xBA0 JUMP JUMPDEST PUSH2 0x3DD PUSH2 0x450 CALLDATASIZE PUSH1 0x4 PUSH2 0x3FA3 JUMP JUMPDEST PUSH2 0xC41 JUMP JUMPDEST PUSH2 0x3F2 PUSH2 0x463 CALLDATASIZE PUSH1 0x4 PUSH2 0x40A6 JUMP JUMPDEST PUSH2 0xCA5 JUMP JUMPDEST PUSH2 0x3DD PUSH2 0x476 CALLDATASIZE PUSH1 0x4 PUSH2 0x3FA3 JUMP JUMPDEST PUSH2 0xD52 JUMP JUMPDEST PUSH2 0x3DD PUSH2 0x489 CALLDATASIZE PUSH1 0x4 PUSH2 0x40F3 JUMP JUMPDEST PUSH2 0xDB3 JUMP JUMPDEST PUSH2 0x4CC PUSH2 0x49C CALLDATASIZE PUSH1 0x4 PUSH2 0x3FC6 JUMP JUMPDEST PUSH1 0x0 SWAP3 DUP4 MSTORE PUSH1 0x14 PUSH1 0x20 SWAP1 DUP2 MSTORE PUSH1 0x40 DUP1 DUP6 KECCAK256 PUSH1 0x1 PUSH1 0x1 PUSH1 0xA0 SHL SUB SWAP5 DUP6 AND DUP7 MSTORE DUP3 MSTORE DUP1 DUP6 KECCAK256 SWAP3 SWAP1 SWAP4 AND DUP5 MSTORE MSTORE SWAP1 KECCAK256 SLOAD SWAP1 JUMP JUMPDEST PUSH1 0x40 MLOAD SWAP1 DUP2 MSTORE PUSH1 0x20 ADD PUSH2 0x3FE JUMP JUMPDEST PUSH1 0x5 SLOAD PUSH2 0x4CC JUMP JUMPDEST PUSH2 0x3F2 PUSH2 0x4F0 CALLDATASIZE PUSH1 0x4 PUSH2 0x3DF7 JUMP JUMPDEST PUSH2 0xE4F JUMP JUMPDEST PUSH2 0x4CC PUSH2 0x503 CALLDATASIZE PUSH1 0x4 PUSH2 0x3F8A JUMP JUMPDEST PUSH1 0x0 SWAP1 DUP2 MSTORE PUSH1 0x1 PUSH1 0x20 DUP2 SWAP1 MSTORE PUSH1 0x40 SWAP1 SWAP2 KECCAK256 ADD SLOAD SWAP1 JUMP JUMPDEST PUSH2 0x3DD PUSH2 0x527 CALLDATASIZE PUSH1 0x4 PUSH2 0x3ECC JUMP JUMPDEST PUSH2 0xF86 JUMP JUMPDEST PUSH1 0x6 SLOAD PUSH1 0x1 PUSH1 0xB0 SHL SWAP1 DIV PUSH1 0xFF AND PUSH2 0x3F2 JUMP JUMPDEST PUSH2 0x3DD PUSH2 0x54C CALLDATASIZE PUSH1 0x4 PUSH2 0x3FA3 JUMP JUMPDEST PUSH2 0xFCF JUMP JUMPDEST PUSH2 0x3DD PUSH2 0x55F CALLDATASIZE PUSH1 0x4 PUSH2 0x3DA9 JUMP JUMPDEST PUSH2 0xFF6 JUMP JUMPDEST PUSH2 0x4CC PUSH2 0x572 CALLDATASIZE PUSH1 0x4 PUSH2 0x3FA3 JUMP JUMPDEST PUSH1 0x1 PUSH1 0x1 PUSH1 0xA0 SHL SUB AND PUSH1 0x0 SWAP1 DUP2 MSTORE PUSH1 0xF PUSH1 0x20 SWAP1 DUP2 MSTORE PUSH1 0x40 DUP1 DUP4 KECCAK256 SWAP4 DUP4 MSTORE SWAP3 SWAP1 MSTORE KECCAK256 SLOAD SWAP1 JUMP JUMPDEST PUSH2 0x3DD PUSH2 0x5A5 CALLDATASIZE PUSH1 0x4 PUSH2 0x3FA3 JUMP JUMPDEST PUSH2 0x1044 JUMP JUMPDEST PUSH2 0x3DD PUSH2 0x10D0 JUMP JUMPDEST PUSH1 0x6 SLOAD PUSH1 0x1 PUSH1 0xA8 SHL SWAP1 DIV PUSH1 0xFF AND PUSH2 0x3F2 JUMP JUMPDEST PUSH1 0x18 SLOAD PUSH1 0xFF AND PUSH2 0x3F2 JUMP JUMPDEST PUSH2 0x3DD PUSH2 0x5DD CALLDATASIZE PUSH1 0x4 PUSH2 0x4192 JUMP JUMPDEST PUSH2 0x111C JUMP JUMPDEST PUSH2 0x3DD PUSH2 0x116D JUMP JUMPDEST PUSH2 0x3DD PUSH2 0x5F8 CALLDATASIZE PUSH1 0x4 PUSH2 0x40CB JUMP JUMPDEST PUSH2 0x1176 JUMP JUMPDEST PUSH2 0x3DD PUSH2 0x1240 JUMP JUMPDEST PUSH2 0x3F2 PUSH2 0x613 CALLDATASIZE PUSH1 0x4 PUSH2 0x3FC6 JUMP JUMPDEST PUSH2 0x12C4 JUMP JUMPDEST PUSH2 0x4CC PUSH2 0x626 CALLDATASIZE PUSH1 0x4 PUSH2 0x3DA9 JUMP JUMPDEST PUSH1 0x1 PUSH1 0x1 PUSH1 0xA0 SHL SUB AND PUSH1 0x0 SWAP1 DUP2 MSTORE PUSH1 0x7 PUSH1 0x20 MSTORE PUSH1 0x40 SWAP1 KECCAK256 SLOAD SWAP1 JUMP JUMPDEST PUSH2 0x3DD PUSH2 0x12D9 JUMP JUMPDEST PUSH2 0x65C PUSH2 0x657 CALLDATASIZE PUSH1 0x4 PUSH2 0x3DA9 JUMP JUMPDEST PUSH2 0x133D JUMP JUMPDEST PUSH1 0x40 MLOAD PUSH2 0x3FE SWAP2 SWAP1 PUSH2 0x436A JUMP JUMPDEST PUSH2 0x3DD PUSH2 0x677 CALLDATASIZE PUSH1 0x4 PUSH2 0x3DA9 JUMP JUMPDEST PUSH2 0x13A9 JUMP JUMPDEST PUSH2 0x684 PUSH2 0x13F4 JUMP JUMPDEST PUSH1 0x40 MLOAD PUSH2 0x3FE SWAP2 SWAP1 PUSH2 0x431D JUMP JUMPDEST PUSH2 0x684 PUSH2 0x69F CALLDATASIZE PUSH1 0x4 PUSH2 0x3F8A JUMP JUMPDEST PUSH2 0x1455 JUMP JUMPDEST PUSH2 0x4CC PUSH2 0x6B2 CALLDATASIZE PUSH1 0x4 PUSH2 0x4002 JUMP JUMPDEST PUSH2 0x14C0 JUMP JUMPDEST PUSH1 0x0 SLOAD PUSH1 0x40 MLOAD PUSH1 0x1 PUSH1 0x1 PUSH1 0xA0 SHL SUB SWAP1 SWAP2 AND DUP2 MSTORE PUSH1 0x20 ADD PUSH2 0x3FE JUMP JUMPDEST PUSH2 0x3F2 PUSH2 0x6E0 CALLDATASIZE PUSH1 0x4 PUSH2 0x3FA3 JUMP JUMPDEST PUSH1 0x0 SWAP2 DUP3 MSTORE PUSH1 0x1 PUSH1 0x20 SWAP1 DUP2 MSTORE PUSH1 0x40 DUP1 DUP5 KECCAK256 PUSH1 0x1 PUSH1 0x1 PUSH1 0xA0 SHL SUB SWAP4 SWAP1 SWAP4 AND DUP5 MSTORE SWAP2 SWAP1 MSTORE SWAP1 KECCAK256 SLOAD PUSH1 0xFF AND SWAP1 JUMP JUMPDEST PUSH2 0x3DD PUSH2 0x719 CALLDATASIZE PUSH1 0x4 PUSH2 0x3DA9 JUMP JUMPDEST PUSH2 0x167A JUMP JUMPDEST PUSH2 0x40F PUSH2 0x16E9 JUMP JUMPDEST PUSH2 0x3DD PUSH2 0x734 CALLDATASIZE PUSH1 0x4 PUSH2 0x3ECC JUMP JUMPDEST PUSH2 0x16F8 JUMP JUMPDEST PUSH2 0x3DD PUSH2 0x747 CALLDATASIZE PUSH1 0x4 PUSH2 0x3DA9 JUMP JUMPDEST PUSH2 0x1775 JUMP JUMPDEST PUSH2 0x3DD PUSH2 0x17C0 JUMP JUMPDEST PUSH2 0x3DD PUSH2 0x762 CALLDATASIZE PUSH1 0x4 PUSH2 0x40CB JUMP JUMPDEST PUSH2 0x17C9 JUMP JUMPDEST PUSH2 0x4CC PUSH1 0x0 DUP2 JUMP JUMPDEST PUSH2 0x3F2 PUSH2 0x77D CALLDATASIZE PUSH1 0x4 PUSH2 0x3EA2 JUMP JUMPDEST PUSH2 0x1858 JUMP JUMPDEST PUSH2 0x3F2 PUSH2 0x790 CALLDATASIZE PUSH1 0x4 PUSH2 0x3DA9 JUMP JUMPDEST PUSH2 0x187F JUMP JUMPDEST PUSH2 0x7A8 PUSH2 0x7A3 CALLDATASIZE PUSH1 0x4 PUSH2 0x3F8A JUMP JUMPDEST PUSH2 0x18BF JUMP JUMPDEST PUSH1 0x40 MLOAD PUSH2 0x3FE SWAP3 SWAP2 SWAP1 PUSH2 0x43EE JUMP JUMPDEST PUSH2 0x3F2 PUSH2 0x7C4 CALLDATASIZE PUSH1 0x4 PUSH2 0x3DC4 JUMP JUMPDEST PUSH2 0x1993 JUMP JUMPDEST PUSH2 0x3DD PUSH2 0x7D7 CALLDATASIZE PUSH1 0x4 PUSH2 0x3ECC JUMP JUMPDEST PUSH2 0x19A6 JUMP JUMPDEST PUSH2 0x65C PUSH2 0x1B06 JUMP JUMPDEST PUSH2 0x3DD PUSH2 0x1B5D JUMP JUMPDEST PUSH2 0x4CC PUSH32 0x6E58AD548D72B425EA94C15F453BF26CADDB061D82B2551DB7FDD3CEFE0E9940 DUP2 JUMP JUMPDEST PUSH2 0x3DD PUSH2 0x821 CALLDATASIZE PUSH1 0x4 PUSH2 0x3FA3 JUMP JUMPDEST PUSH2 0x1BE1 JUMP JUMPDEST PUSH2 0x3DD PUSH2 0x834 CALLDATASIZE PUSH1 0x4 PUSH2 0x3DA9 JUMP JUMPDEST PUSH2 0x1C08 JUMP JUMPDEST PUSH2 0x4CC PUSH32 0xAB727555E1A579CA2F00D4F6682BEDE92E5E46E287E8B1A6F243044C1EC5B7AC DUP2 JUMP JUMPDEST PUSH2 0x4CC PUSH2 0x86E CALLDATASIZE PUSH1 0x4 PUSH2 0x3DC4 JUMP JUMPDEST PUSH1 0x1 PUSH1 0x1 PUSH1 0xA0 SHL SUB SWAP2 DUP3 AND PUSH1 0x0 SWAP1 DUP2 MSTORE PUSH1 0x8 PUSH1 0x20 SWAP1 DUP2 MSTORE PUSH1 0x40 DUP1 DUP4 KECCAK256 SWAP4 SWAP1 SWAP5 AND DUP3 MSTORE SWAP2 SWAP1 SWAP2 MSTORE KECCAK256 SLOAD SWAP1 JUMP JUMPDEST PUSH2 0x3DD PUSH2 0x8A7 CALLDATASIZE PUSH1 0x4 PUSH2 0x41F7 JUMP JUMPDEST PUSH2 0x1C53 JUMP JUMPDEST PUSH2 0x3DD PUSH2 0x8BA CALLDATASIZE PUSH1 0x4 PUSH2 0x3F26 JUMP JUMPDEST PUSH2 0x1C95 JUMP JUMPDEST PUSH2 0x3DD PUSH2 0x8CD CALLDATASIZE PUSH1 0x4 PUSH2 0x3F26 JUMP JUMPDEST PUSH2 0x1D2B JUMP JUMPDEST PUSH2 0x3DD PUSH2 0x8E0 CALLDATASIZE PUSH1 0x4 PUSH2 0x3E33 JUMP JUMPDEST PUSH2 0x1D91 JUMP JUMPDEST PUSH2 0x3F2 PUSH2 0x8F3 CALLDATASIZE PUSH1 0x4 PUSH2 0x3DA9 JUMP JUMPDEST PUSH2 0x1EE3 JUMP JUMPDEST PUSH2 0x3DD PUSH2 0x906 CALLDATASIZE PUSH1 0x4 PUSH2 0x3DA9 JUMP JUMPDEST PUSH2 0x1F23 JUMP JUMPDEST PUSH2 0x4CC PUSH2 0x919 CALLDATASIZE PUSH1 0x4 PUSH2 0x40CB JUMP JUMPDEST PUSH2 0x2002 JUMP JUMPDEST PUSH2 0x3DD PUSH2 0x92C CALLDATASIZE PUSH1 0x4 PUSH2 0x3DA9 JUMP JUMPDEST PUSH2 0x2060 JUMP JUMPDEST CALLER PUSH1 0x0 SWAP1 DUP2 MSTORE PUSH1 0x13 PUSH1 0x20 MSTORE PUSH1 0x40 SWAP1 KECCAK256 SLOAD PUSH1 0xFF AND PUSH2 0x94D JUMPI PUSH1 0x0 DUP1 REVERT JUMPDEST PUSH1 0x40 DUP1 MLOAD PUSH1 0x60 PUSH1 0x20 PUSH1 0x1F DUP7 ADD DUP2 SWAP1 DIV MUL DUP3 ADD DUP2 ADD DUP4 MSTORE SWAP2 DUP2 ADD DUP5 DUP2 MSTORE SWAP1 SWAP2 DUP3 SWAP2 SWAP1 DUP7 SWAP1 DUP7 SWAP1 DUP2 SWAP1 DUP6 ADD DUP4 DUP3 DUP1 DUP3 DUP5 CALLDATACOPY PUSH1 0x0 SWAP3 ADD DUP3 SWAP1 MSTORE POP SWAP4 DUP6 MSTORE POP POP POP PUSH1 0x20 SWAP2 DUP3 ADD DUP5 SWAP1 MSTORE DUP7 DUP2 MSTORE PUSH1 0x9 DUP3 MSTORE PUSH1 0x40 SWAP1 KECCAK256 DUP3 MLOAD DUP1 MLOAD SWAP2 SWAP3 PUSH2 0x9B2 SWAP3 DUP5 SWAP3 SWAP1 SWAP2 ADD SWAP1 PUSH2 0x3BC9 JUMP JUMPDEST POP PUSH1 0x20 DUP3 ADD MLOAD DUP2 PUSH1 0x1 ADD SSTORE SWAP1 POP POP DUP4 PUSH32 0x89730C201D2DF6A4CEF4E892559E63E022078B0EE939D11B6CED61FB098B2824 DUP5 DUP5 DUP5 PUSH1 0x40 MLOAD PUSH2 0x9F4 SWAP4 SWAP3 SWAP2 SWAP1 PUSH2 0x43A2 JUMP JUMPDEST PUSH1 0x40 MLOAD DUP1 SWAP2 SUB SWAP1 LOG2 POP POP POP POP JUMP JUMPDEST PUSH1 0x0 PUSH1 0x1 PUSH1 0x1 PUSH1 0xE0 SHL SUB NOT DUP3 AND PUSH4 0x7965DB0B PUSH1 0xE0 SHL EQ DUP1 PUSH2 0xA33 JUMPI POP PUSH4 0x1FFC9A7 PUSH1 0xE0 SHL PUSH1 0x1 PUSH1 0x1 PUSH1 0xE0 SHL SUB NOT DUP4 AND EQ JUMPDEST SWAP3 SWAP2 POP POP JUMP JUMPDEST PUSH1 0x60 PUSH1 0x2 DUP1 SLOAD PUSH2 0xA48 SWAP1 PUSH2 0x450F JUMP JUMPDEST DUP1 PUSH1 0x1F ADD PUSH1 0x20 DUP1 SWAP2 DIV MUL PUSH1 0x20 ADD PUSH1 0x40 MLOAD SWAP1 DUP2 ADD PUSH1 0x40 MSTORE DUP1 SWAP3 SWAP2 SWAP1 DUP2 DUP2 MSTORE PUSH1 0x20 ADD DUP3 DUP1 SLOAD PUSH2 0xA74 SWAP1 PUSH2 0x450F JUMP JUMPDEST DUP1 ISZERO PUSH2 0xAC1 JUMPI DUP1 PUSH1 0x1F LT PUSH2 0xA96 JUMPI PUSH2 0x100 DUP1 DUP4 SLOAD DIV MUL DUP4 MSTORE SWAP2 PUSH1 0x20 ADD SWAP2 PUSH2 0xAC1 JUMP JUMPDEST DUP3 ADD SWAP2 SWAP1 PUSH1 0x0 MSTORE PUSH1 0x20 PUSH1 0x0 KECCAK256 SWAP1 JUMPDEST DUP2 SLOAD DUP2 MSTORE SWAP1 PUSH1 0x1 ADD SWAP1 PUSH1 0x20 ADD DUP1 DUP4 GT PUSH2 0xAA4 JUMPI DUP3 SWAP1 SUB PUSH1 0x1F AND DUP3 ADD SWAP2 JUMPDEST POP POP POP POP POP SWAP1 POP SWAP1 JUMP JUMPDEST PUSH1 0x0 SLOAD PUSH1 0x1 PUSH1 0x1 PUSH1 0xA0 SHL SUB AND CALLER EQ PUSH2 0xB2A JUMPI PUSH1 0x40 MLOAD PUSH3 0x461BCD PUSH1 0xE5 SHL DUP2 MSTORE PUSH1 0x20 PUSH1 0x4 DUP3 ADD DUP2 SWAP1 MSTORE PUSH1 0x24 DUP3 ADD MSTORE PUSH32 0x4F776E61626C653A2063616C6C6572206973206E6F7420746865206F776E6572 PUSH1 0x44 DUP3 ADD MSTORE PUSH1 0x64 ADD JUMPDEST PUSH1 0x40 MLOAD DUP1 SWAP2 SUB SWAP1 REVERT JUMPDEST PUSH1 0x6 DUP1 SLOAD PUSH32 0xFFFFFFFFFFFFFFFFFFFFFF0000000000000000000000000000000000000000FF AND PUSH2 0x100 PUSH1 0x1 PUSH1 0x1 PUSH1 0xA0 SHL SUB DUP5 DUP2 AND DUP3 MUL SWAP3 SWAP1 SWAP3 OR SWAP3 DUP4 SWAP1 SSTORE PUSH1 0x40 MLOAD SWAP3 DIV AND DUP2 MSTORE PUSH32 0xDD8C807C33D35AD7642D985ACA3455E9281F5298B1C22A4AADB5A86D52DF7ED1 SWAP1 PUSH1 0x20 ADD PUSH1 0x40 MLOAD DUP1 SWAP2 SUB SWAP1 LOG1 POP JUMP JUMPDEST PUSH1 0x0 PUSH1 0x1 PUSH1 0x1 PUSH1 0xA0 SHL SUB DUP4 AND PUSH2 0xBDD JUMPI PUSH1 0x40 MLOAD PUSH3 0x461BCD PUSH1 0xE5 SHL DUP2 MSTORE PUSH1 0x20 PUSH1 0x4 DUP3 ADD MSTORE PUSH1 0x2 PUSH1 0x24 DUP3 ADD MSTORE PUSH2 0x1A9B PUSH1 0xF1 SHL PUSH1 0x44 DUP3 ADD MSTORE PUSH1 0x64 ADD PUSH2 0xB21 JUMP JUMPDEST CALLER PUSH1 0x0 DUP2 DUP2 MSTORE PUSH1 0x8 PUSH1 0x20 SWAP1 DUP2 MSTORE PUSH1 0x40 DUP1 DUP4 KECCAK256 PUSH1 0x1 PUSH1 0x1 PUSH1 0xA0 SHL SUB DUP9 AND DUP1 DUP6 MSTORE SWAP1 DUP4 MSTORE SWAP3 DUP2 SWAP1 KECCAK256 DUP7 SWAP1 SSTORE MLOAD DUP6 DUP2 MSTORE SWAP2 SWAP3 SWAP2 PUSH32 0x8C5BE1E5EBEC7D5BD14F71427D1E84F3DD0314C0F7B2291E5B200AC8C7C3B925 SWAP2 ADD PUSH1 0x40 MLOAD DUP1 SWAP2 SUB SWAP1 LOG3 POP PUSH1 0x1 SWAP3 SWAP2 POP POP JUMP JUMPDEST CALLER PUSH1 0x0 DUP2 DUP2 MSTORE PUSH1 0x15 PUSH1 0x20 SWAP1 DUP2 MSTORE PUSH1 0x40 DUP1 DUP4 KECCAK256 DUP7 DUP5 MSTORE DUP3 MSTORE DUP1 DUP4 KECCAK256 PUSH1 0x1 PUSH1 0x1 PUSH1 0xA0 SHL SUB DUP7 AND DUP1 DUP6 MSTORE SWAP3 MSTORE DUP1 DUP4 KECCAK256 DUP1 SLOAD PUSH1 0xFF NOT AND PUSH1 0x1 OR SWAP1 SSTORE MLOAD SWAP1 SWAP2 DUP6 SWAP2 PUSH32 0x3646A897C70797ECC134B0ADC32F471B07BF1D6F451133B0384BADAB531E3FD6 SWAP2 SWAP1 LOG4 POP POP JUMP JUMPDEST PUSH1 0x0 PUSH1 0x1 PUSH1 0x1 PUSH1 0xA0 SHL SUB DUP4 AND PUSH2 0xCE2 JUMPI PUSH1 0x40 MLOAD PUSH3 0x461BCD PUSH1 0xE5 SHL DUP2 MSTORE PUSH1 0x20 PUSH1 0x4 DUP3 ADD MSTORE PUSH1 0x2 PUSH1 0x24 DUP3 ADD MSTORE PUSH2 0x1A9B PUSH1 0xF1 SHL PUSH1 0x44 DUP3 ADD MSTORE PUSH1 0x64 ADD PUSH2 0xB21 JUMP JUMPDEST PUSH1 0x0 DUP5 DUP2 MSTORE PUSH1 0x14 PUSH1 0x20 SWAP1 DUP2 MSTORE PUSH1 0x40 DUP1 DUP4 KECCAK256 CALLER DUP1 DUP6 MSTORE SWAP1 DUP4 MSTORE DUP2 DUP5 KECCAK256 PUSH1 0x1 PUSH1 0x1 PUSH1 0xA0 SHL SUB DUP9 AND DUP1 DUP7 MSTORE SWAP1 DUP5 MSTORE SWAP4 DUP3 SWAP1 KECCAK256 DUP7 SWAP1 SSTORE SWAP1 MLOAD DUP6 DUP2 MSTORE SWAP1 SWAP2 DUP8 SWAP2 PUSH32 0xF061499AA77C2F6F5E25E34955A06623705344A88256CC861A121EC0BCE5CFEC SWAP2 ADD PUSH1 0x40 MLOAD DUP1 SWAP2 SUB SWAP1 LOG4 POP PUSH1 0x1 SWAP4 SWAP3 POP POP POP JUMP JUMPDEST CALLER PUSH1 0x0 DUP2 DUP2 MSTORE PUSH1 0x15 PUSH1 0x20 SWAP1 DUP2 MSTORE PUSH1 0x40 DUP1 DUP4 KECCAK256 DUP7 DUP5 MSTORE DUP3 MSTORE DUP1 DUP4 KECCAK256 PUSH1 0x1 PUSH1 0x1 PUSH1 0xA0 SHL SUB DUP7 AND DUP1 DUP6 MSTORE SWAP3 MSTORE DUP1 DUP4 KECCAK256 DUP1 SLOAD PUSH1 0xFF NOT AND SWAP1 SSTORE MLOAD SWAP1 SWAP2 DUP6 SWAP2 PUSH32 0x3B287C4F1BAB4DF949B33BCEACEF984F544DC5D5479930D00E4EE8C9D8DD96F2 SWAP2 SWAP1 LOG4 POP POP JUMP JUMPDEST PUSH1 0x0 SLOAD PUSH1 0x1 PUSH1 0x1 PUSH1 0xA0 SHL SUB AND CALLER EQ PUSH2 0xE0D JUMPI PUSH1 0x40 MLOAD PUSH3 0x461BCD PUSH1 0xE5 SHL DUP2 MSTORE PUSH1 0x20 PUSH1 0x4 DUP3 ADD DUP2 SWAP1 MSTORE PUSH1 0x24 DUP3 ADD MSTORE PUSH32 0x4F776E61626C653A2063616C6C6572206973206E6F7420746865206F776E6572 PUSH1 0x44 DUP3 ADD MSTORE PUSH1 0x64 ADD PUSH2 0xB21 JUMP JUMPDEST PUSH2 0xE4A DUP4 DUP4 DUP4 DUP1 DUP1 PUSH1 0x20 MUL PUSH1 0x20 ADD PUSH1 0x40 MLOAD SWAP1 DUP2 ADD PUSH1 0x40 MSTORE DUP1 SWAP4 SWAP3 SWAP2 SWAP1 DUP2 DUP2 MSTORE PUSH1 0x20 ADD DUP4 DUP4 PUSH1 0x20 MUL DUP1 DUP3 DUP5 CALLDATACOPY PUSH1 0x0 SWAP3 ADD SWAP2 SWAP1 SWAP2 MSTORE POP PUSH2 0x2275 SWAP3 POP POP POP JUMP JUMPDEST POP POP POP JUMP JUMPDEST PUSH1 0x0 PUSH2 0xE5B CALLER DUP6 PUSH2 0x2398 JUMP JUMPDEST DUP1 PUSH2 0xE89 JUMPI POP PUSH1 0x1 PUSH1 0x1 PUSH1 0xA0 SHL SUB DUP5 AND PUSH1 0x0 SWAP1 DUP2 MSTORE PUSH1 0x8 PUSH1 0x20 SWAP1 DUP2 MSTORE PUSH1 0x40 DUP1 DUP4 KECCAK256 CALLER DUP5 MSTORE SWAP1 SWAP2 MSTORE SWAP1 KECCAK256 SLOAD DUP3 GT ISZERO JUMPDEST PUSH2 0xEBA JUMPI PUSH1 0x40 MLOAD PUSH3 0x461BCD PUSH1 0xE5 SHL DUP2 MSTORE PUSH1 0x20 PUSH1 0x4 DUP3 ADD MSTORE PUSH1 0x2 PUSH1 0x24 DUP3 ADD MSTORE PUSH2 0x3533 PUSH1 0xF0 SHL PUSH1 0x44 DUP3 ADD MSTORE PUSH1 0x64 ADD PUSH2 0xB21 JUMP JUMPDEST PUSH1 0x1 PUSH1 0x1 PUSH1 0xA0 SHL SUB DUP5 AND PUSH1 0x0 SWAP1 DUP2 MSTORE PUSH1 0x8 PUSH1 0x20 SWAP1 DUP2 MSTORE PUSH1 0x40 DUP1 DUP4 KECCAK256 CALLER DUP5 MSTORE SWAP1 SWAP2 MSTORE SWAP1 KECCAK256 SLOAD DUP3 GT PUSH2 0xF3B JUMPI PUSH1 0x1 PUSH1 0x1 PUSH1 0xA0 SHL SUB DUP5 AND PUSH1 0x0 SWAP1 DUP2 MSTORE PUSH1 0x8 PUSH1 0x20 SWAP1 DUP2 MSTORE PUSH1 0x40 DUP1 DUP4 KECCAK256 CALLER DUP5 MSTORE SWAP1 SWAP2 MSTORE SWAP1 KECCAK256 SLOAD PUSH2 0xF12 SWAP1 DUP4 PUSH2 0x2419 JUMP JUMPDEST PUSH1 0x1 PUSH1 0x1 PUSH1 0xA0 SHL SUB DUP6 AND PUSH1 0x0 SWAP1 DUP2 MSTORE PUSH1 0x8 PUSH1 0x20 SWAP1 DUP2 MSTORE PUSH1 0x40 DUP1 DUP4 KECCAK256 CALLER DUP5 MSTORE SWAP1 SWAP2 MSTORE SWAP1 KECCAK256 SSTORE PUSH2 0xF60 JUMP JUMPDEST PUSH1 0x1 PUSH1 0x1 PUSH1 0xA0 SHL SUB DUP5 AND PUSH1 0x0 SWAP1 DUP2 MSTORE PUSH1 0x8 PUSH1 0x20 SWAP1 DUP2 MSTORE PUSH1 0x40 DUP1 DUP4 KECCAK256 CALLER DUP5 MSTORE SWAP1 SWAP2 MSTORE DUP2 KECCAK256 SSTORE JUMPDEST PUSH2 0xF7C CALLER DUP6 DUP6 DUP6 PUSH1 0x40 MLOAD DUP1 PUSH1 0x20 ADD PUSH1 0x40 MSTORE DUP1 PUSH1 0x0 DUP2 MSTORE POP PUSH2 0x2425 JUMP JUMPDEST POP PUSH1 0x1 SWAP4 SWAP3 POP POP POP JUMP JUMPDEST PUSH2 0xFC9 CALLER CALLER DUP7 DUP7 DUP7 DUP7 DUP1 DUP1 PUSH1 0x1F ADD PUSH1 0x20 DUP1 SWAP2 DIV MUL PUSH1 0x20 ADD PUSH1 0x40 MLOAD SWAP1 DUP2 ADD PUSH1 0x40 MSTORE DUP1 SWAP4 SWAP3 SWAP2 SWAP1 DUP2 DUP2 MSTORE PUSH1 0x20 ADD DUP4 DUP4 DUP1 DUP3 DUP5 CALLDATACOPY PUSH1 0x0 SWAP3 ADD SWAP2 SWAP1 SWAP2 MSTORE POP PUSH2 0x2425 SWAP3 POP POP POP JUMP JUMPDEST POP POP POP POP JUMP JUMPDEST PUSH1 0x0 DUP3 DUP2 MSTORE PUSH1 0x1 PUSH1 0x20 DUP2 SWAP1 MSTORE PUSH1 0x40 SWAP1 SWAP2 KECCAK256 ADD SLOAD PUSH2 0xFEC DUP2 CALLER PUSH2 0x259D JUMP JUMPDEST PUSH2 0xE4A DUP4 DUP4 PUSH2 0x261D JUMP JUMPDEST PUSH2 0xFFF CALLER PUSH2 0x187F JUMP JUMPDEST PUSH2 0x1038 JUMPI PUSH1 0x40 MLOAD PUSH3 0x461BCD PUSH1 0xE5 SHL DUP2 MSTORE PUSH1 0x20 PUSH1 0x4 DUP3 ADD MSTORE PUSH1 0xA PUSH1 0x24 DUP3 ADD MSTORE PUSH10 0x3737BA1036B4B73A32B9 PUSH1 0xB1 SHL PUSH1 0x44 DUP3 ADD MSTORE PUSH1 0x64 ADD PUSH2 0xB21 JUMP JUMPDEST PUSH2 0x1041 DUP2 PUSH2 0x26A4 JUMP JUMPDEST POP JUMP JUMPDEST PUSH1 0x1 PUSH1 0x1 PUSH1 0xA0 SHL SUB DUP2 AND CALLER EQ PUSH2 0x10C2 JUMPI PUSH1 0x40 MLOAD PUSH3 0x461BCD PUSH1 0xE5 SHL DUP2 MSTORE PUSH1 0x20 PUSH1 0x4 DUP3 ADD MSTORE PUSH1 0x2F PUSH1 0x24 DUP3 ADD MSTORE PUSH32 0x416363657373436F6E74726F6C3A2063616E206F6E6C792072656E6F756E6365 PUSH1 0x44 DUP3 ADD MSTORE PUSH32 0x20726F6C657320666F722073656C660000000000000000000000000000000000 PUSH1 0x64 DUP3 ADD MSTORE PUSH1 0x84 ADD PUSH2 0xB21 JUMP JUMPDEST PUSH2 0x10CC DUP3 DUP3 PUSH2 0x2705 JUMP JUMPDEST POP POP JUMP JUMPDEST PUSH2 0x10D9 CALLER PUSH2 0x1EE3 JUMP JUMPDEST PUSH2 0x1112 JUMPI PUSH1 0x40 MLOAD PUSH3 0x461BCD PUSH1 0xE5 SHL DUP2 MSTORE PUSH1 0x20 PUSH1 0x4 DUP3 ADD MSTORE PUSH1 0xA PUSH1 0x24 DUP3 ADD MSTORE PUSH10 0x3737BA1039B2B63632B9 PUSH1 0xB1 SHL PUSH1 0x44 DUP3 ADD MSTORE PUSH1 0x64 ADD PUSH2 0xB21 JUMP JUMPDEST PUSH2 0x111A PUSH2 0x2788 JUMP JUMPDEST JUMP JUMPDEST PUSH2 0xFC9 DUP5 CALLER CALLER DUP7 DUP7 DUP7 DUP1 DUP1 PUSH1 0x1F ADD PUSH1 0x20 DUP1 SWAP2 DIV MUL PUSH1 0x20 ADD PUSH1 0x40 MLOAD SWAP1 DUP2 ADD PUSH1 0x40 MSTORE DUP1 SWAP4 SWAP3 SWAP2 SWAP1 DUP2 DUP2 MSTORE PUSH1 0x20 ADD DUP4 DUP4 DUP1 DUP3 DUP5 CALLDATACOPY PUSH1 0x0 SWAP3 ADD DUP3 SWAP1 MSTORE POP PUSH1 0x40 DUP1 MLOAD PUSH1 0x20 DUP2 ADD SWAP1 SWAP2 MSTORE SWAP1 DUP2 MSTORE SWAP3 POP PUSH2 0x2819 SWAP2 POP POP JUMP JUMPDEST PUSH2 0x111A CALLER PUSH2 0x2939 JUMP JUMPDEST PUSH2 0x117F CALLER PUSH2 0x187F JUMP JUMPDEST PUSH2 0x11B8 JUMPI PUSH1 0x40 MLOAD PUSH3 0x461BCD PUSH1 0xE5 SHL DUP2 MSTORE PUSH1 0x20 PUSH1 0x4 DUP3 ADD MSTORE PUSH1 0xA PUSH1 0x24 DUP3 ADD MSTORE PUSH10 0x3737BA1036B4B73A32B9 PUSH1 0xB1 SHL PUSH1 0x44 DUP3 ADD MSTORE PUSH1 0x64 ADD PUSH2 0xB21 JUMP JUMPDEST PUSH1 0x6 SLOAD PUSH1 0x1 PUSH1 0xB0 SHL SWAP1 DIV PUSH1 0xFF AND PUSH2 0x11F6 JUMPI PUSH1 0x40 MLOAD PUSH3 0x461BCD PUSH1 0xE5 SHL DUP2 MSTORE PUSH1 0x20 PUSH1 0x4 DUP3 ADD MSTORE PUSH1 0x2 PUSH1 0x24 DUP3 ADD MSTORE PUSH2 0x3535 PUSH1 0xF0 SHL PUSH1 0x44 DUP3 ADD MSTORE PUSH1 0x64 ADD PUSH2 0xB21 JUMP JUMPDEST PUSH2 0x1239 DUP6 CALLER DUP7 DUP7 DUP7 DUP7 DUP1 DUP1 PUSH1 0x1F ADD PUSH1 0x20 DUP1 SWAP2 DIV MUL PUSH1 0x20 ADD PUSH1 0x40 MLOAD SWAP1 DUP2 ADD PUSH1 0x40 MSTORE DUP1 SWAP4 SWAP3 SWAP2 SWAP1 DUP2 DUP2 MSTORE PUSH1 0x20 ADD DUP4 DUP4 DUP1 DUP3 DUP5 CALLDATACOPY PUSH1 0x0 SWAP3 ADD SWAP2 SWAP1 SWAP2 MSTORE POP PUSH2 0x299A SWAP3 POP POP POP JUMP JUMPDEST POP POP POP POP POP JUMP JUMPDEST PUSH1 0x0 SLOAD PUSH1 0x1 PUSH1 0x1 PUSH1 0xA0 SHL SUB AND CALLER EQ PUSH2 0x129A JUMPI PUSH1 0x40 MLOAD PUSH3 0x461BCD PUSH1 0xE5 SHL DUP2 MSTORE PUSH1 0x20 PUSH1 0x4 DUP3 ADD DUP2 SWAP1 MSTORE PUSH1 0x24 DUP3 ADD MSTORE PUSH32 0x4F776E61626C653A2063616C6C6572206973206E6F7420746865206F776E6572 PUSH1 0x44 DUP3 ADD MSTORE PUSH1 0x64 ADD PUSH2 0xB21 JUMP JUMPDEST PUSH1 0x6 DUP1 SLOAD PUSH32 0xFFFFFFFFFFFFFFFFFF00FFFFFFFFFFFFFFFFFFFFFFFFFFFFFFFFFFFFFFFFFFFF AND SWAP1 SSTORE JUMP JUMPDEST PUSH1 0x0 PUSH2 0x12D1 DUP5 DUP5 DUP5 PUSH2 0x2A61 JUMP JUMPDEST SWAP5 SWAP4 POP POP POP POP JUMP JUMPDEST PUSH1 0x0 SLOAD PUSH1 0x1 PUSH1 0x1 PUSH1 0xA0 SHL SUB AND CALLER EQ PUSH2 0x1333 JUMPI PUSH1 0x40 MLOAD PUSH3 0x461BCD PUSH1 0xE5 SHL DUP2 MSTORE PUSH1 0x20 PUSH1 0x4 DUP3 ADD DUP2 SWAP1 MSTORE PUSH1 0x24 DUP3 ADD MSTORE PUSH32 0x4F776E61626C653A2063616C6C6572206973206E6F7420746865206F776E6572 PUSH1 0x44 DUP3 ADD MSTORE PUSH1 0x64 ADD PUSH2 0xB21 JUMP JUMPDEST PUSH2 0x111A PUSH1 0x0 PUSH2 0x2AEC JUMP JUMPDEST PUSH1 0x1 PUSH1 0x1 PUSH1 0xA0 SHL SUB DUP2 AND PUSH1 0x0 SWAP1 DUP2 MSTORE PUSH1 0xD PUSH1 0x20 SWAP1 DUP2 MSTORE PUSH1 0x40 SWAP2 DUP3 SWAP1 KECCAK256 DUP1 SLOAD DUP4 MLOAD DUP2 DUP5 MUL DUP2 ADD DUP5 ADD SWAP1 SWAP5 MSTORE DUP1 DUP5 MSTORE PUSH1 0x60 SWAP4 SWAP3 DUP4 ADD DUP3 DUP3 DUP1 ISZERO PUSH2 0x139D JUMPI PUSH1 0x20 MUL DUP3 ADD SWAP2 SWAP1 PUSH1 0x0 MSTORE PUSH1 0x20 PUSH1 0x0 KECCAK256 SWAP1 JUMPDEST DUP2 SLOAD DUP2 MSTORE PUSH1 0x20 ADD SWAP1 PUSH1 0x1 ADD SWAP1 DUP1 DUP4 GT PUSH2 0x1389 JUMPI JUMPDEST POP POP POP POP POP SWAP1 POP SWAP2 SWAP1 POP JUMP JUMPDEST PUSH2 0x13B2 CALLER PUSH2 0x1EE3 JUMP JUMPDEST PUSH2 0x13EB JUMPI PUSH1 0x40 MLOAD PUSH3 0x461BCD PUSH1 0xE5 SHL DUP2 MSTORE PUSH1 0x20 PUSH1 0x4 DUP3 ADD MSTORE PUSH1 0xA PUSH1 0x24 DUP3 ADD MSTORE PUSH10 0x3737BA1039B2B63632B9 PUSH1 0xB1 SHL PUSH1 0x44 DUP3 ADD MSTORE PUSH1 0x64 ADD PUSH2 0xB21 JUMP JUMPDEST PUSH2 0x1041 DUP2 PUSH2 0x2939 JUMP JUMPDEST PUSH1 0x60 PUSH1 0x12 DUP1 SLOAD DUP1 PUSH1 0x20 MUL PUSH1 0x20 ADD PUSH1 0x40 MLOAD SWAP1 DUP2 ADD PUSH1 0x40 MSTORE DUP1 SWAP3 SWAP2 SWAP1 DUP2 DUP2 MSTORE PUSH1 0x20 ADD DUP3 DUP1 SLOAD DUP1 ISZERO PUSH2 0xAC1 JUMPI PUSH1 0x20 MUL DUP3 ADD SWAP2 SWAP1 PUSH1 0x0 MSTORE PUSH1 0x20 PUSH1 0x0 KECCAK256 SWAP1 JUMPDEST DUP2 SLOAD PUSH1 0x1 PUSH1 0x1 PUSH1 0xA0 SHL SUB AND DUP2 MSTORE PUSH1 0x1 SWAP1 SWAP2 ADD SWAP1 PUSH1 0x20 ADD DUP1 DUP4 GT PUSH2 0x142E JUMPI POP POP POP POP POP SWAP1 POP SWAP1 JUMP JUMPDEST PUSH1 0x0 DUP2 DUP2 MSTORE PUSH1 0x16 PUSH1 0x20 SWAP1 DUP2 MSTORE PUSH1 0x40 SWAP2 DUP3 SWAP1 KECCAK256 DUP1 SLOAD DUP4 MLOAD DUP2 DUP5 MUL DUP2 ADD DUP5 ADD SWAP1 SWAP5 MSTORE DUP1 DUP5 MSTORE PUSH1 0x60 SWAP4 SWAP3 DUP4 ADD DUP3 DUP3 DUP1 ISZERO PUSH2 0x139D JUMPI PUSH1 0x20 MUL DUP3 ADD SWAP2 SWAP1 PUSH1 0x0 MSTORE PUSH1 0x20 PUSH1 0x0 KECCAK256 SWAP1 JUMPDEST DUP2 SLOAD PUSH1 0x1 PUSH1 0x1 PUSH1 0xA0 SHL SUB AND DUP2 MSTORE PUSH1 0x1 SWAP1 SWAP2 ADD SWAP1 PUSH1 0x20 ADD DUP1 DUP4 GT PUSH2 0x1497 JUMPI POP POP POP POP POP SWAP1 POP SWAP2 SWAP1 POP JUMP JUMPDEST PUSH1 0x0 PUSH2 0x14CD DUP10 CALLER DUP11 PUSH2 0x2A61 JUMP JUMPDEST DUP1 PUSH2 0x1502 JUMPI POP PUSH1 0x0 DUP10 DUP2 MSTORE PUSH1 0x14 PUSH1 0x20 SWAP1 DUP2 MSTORE PUSH1 0x40 DUP1 DUP4 KECCAK256 PUSH1 0x1 PUSH1 0x1 PUSH1 0xA0 SHL SUB DUP13 AND DUP5 MSTORE DUP3 MSTORE DUP1 DUP4 KECCAK256 CALLER DUP5 MSTORE SWAP1 SWAP2 MSTORE SWAP1 KECCAK256 SLOAD DUP7 GT ISZERO JUMPDEST PUSH2 0x1533 JUMPI PUSH1 0x40 MLOAD PUSH3 0x461BCD PUSH1 0xE5 SHL DUP2 MSTORE PUSH1 0x20 PUSH1 0x4 DUP3 ADD MSTORE PUSH1 0x2 PUSH1 0x24 DUP3 ADD MSTORE PUSH2 0x3533 PUSH1 0xF0 SHL PUSH1 0x44 DUP3 ADD MSTORE PUSH1 0x64 ADD PUSH2 0xB21 JUMP JUMPDEST PUSH1 0x0 DUP10 DUP2 MSTORE PUSH1 0x14 PUSH1 0x20 SWAP1 DUP2 MSTORE PUSH1 0x40 DUP1 DUP4 KECCAK256 PUSH1 0x1 PUSH1 0x1 PUSH1 0xA0 SHL SUB DUP13 AND DUP5 MSTORE DUP3 MSTORE DUP1 DUP4 KECCAK256 CALLER DUP5 MSTORE SWAP1 SWAP2 MSTORE SWAP1 KECCAK256 SLOAD DUP7 GT PUSH2 0x15C9 JUMPI PUSH1 0x0 DUP10 DUP2 MSTORE PUSH1 0x14 PUSH1 0x20 SWAP1 DUP2 MSTORE PUSH1 0x40 DUP1 DUP4 KECCAK256 PUSH1 0x1 PUSH1 0x1 PUSH1 0xA0 SHL SUB DUP13 AND DUP5 MSTORE DUP3 MSTORE DUP1 DUP4 KECCAK256 CALLER DUP5 MSTORE SWAP1 SWAP2 MSTORE SWAP1 KECCAK256 SLOAD PUSH2 0x1599 SWAP1 DUP8 PUSH2 0x2419 JUMP JUMPDEST PUSH1 0x0 DUP11 DUP2 MSTORE PUSH1 0x14 PUSH1 0x20 SWAP1 DUP2 MSTORE PUSH1 0x40 DUP1 DUP4 KECCAK256 PUSH1 0x1 PUSH1 0x1 PUSH1 0xA0 SHL SUB DUP14 AND DUP5 MSTORE DUP3 MSTORE DUP1 DUP4 KECCAK256 CALLER DUP5 MSTORE SWAP1 SWAP2 MSTORE SWAP1 KECCAK256 SSTORE PUSH2 0x15F5 JUMP JUMPDEST PUSH1 0x0 DUP10 DUP2 MSTORE PUSH1 0x14 PUSH1 0x20 SWAP1 DUP2 MSTORE PUSH1 0x40 DUP1 DUP4 KECCAK256 PUSH1 0x1 PUSH1 0x1 PUSH1 0xA0 SHL SUB DUP13 AND DUP5 MSTORE DUP3 MSTORE DUP1 DUP4 KECCAK256 CALLER DUP5 MSTORE SWAP1 SWAP2 MSTORE DUP2 KECCAK256 SSTORE JUMPDEST PUSH2 0x166D DUP10 CALLER DUP11 DUP11 DUP11 DUP11 DUP11 DUP1 DUP1 PUSH1 0x1F ADD PUSH1 0x20 DUP1 SWAP2 DIV MUL PUSH1 0x20 ADD PUSH1 0x40 MLOAD SWAP1 DUP2 ADD PUSH1 0x40 MSTORE DUP1 SWAP4 SWAP3 SWAP2 SWAP1 DUP2 DUP2 MSTORE PUSH1 0x20 ADD DUP4 DUP4 DUP1 DUP3 DUP5 CALLDATACOPY PUSH1 0x0 SWAP3 ADD SWAP2 SWAP1 SWAP2 MSTORE POP POP PUSH1 0x40 DUP1 MLOAD PUSH1 0x20 PUSH1 0x1F DUP15 ADD DUP2 SWAP1 DIV DUP2 MUL DUP3 ADD DUP2 ADD SWAP1 SWAP3 MSTORE DUP13 DUP2 MSTORE SWAP3 POP DUP13 SWAP2 POP DUP12 SWAP1 DUP2 SWAP1 DUP5 ADD DUP4 DUP3 DUP1 DUP3 DUP5 CALLDATACOPY PUSH1 0x0 SWAP3 ADD SWAP2 SWAP1 SWAP2 MSTORE POP PUSH2 0x2B49 SWAP3 POP POP POP JUMP JUMPDEST SWAP10 SWAP9 POP POP POP POP POP POP POP POP POP JUMP JUMPDEST PUSH1 0x1 PUSH1 0x1 PUSH1 0xA0 SHL SUB DUP2 AND CALLER EQ ISZERO PUSH2 0x1690 JUMPI PUSH1 0x0 DUP1 REVERT JUMPDEST PUSH1 0x1 PUSH1 0x1 PUSH1 0xA0 SHL SUB DUP2 AND PUSH1 0x0 DUP2 DUP2 MSTORE PUSH1 0x11 PUSH1 0x20 SWAP1 DUP2 MSTORE PUSH1 0x40 DUP1 DUP4 KECCAK256 CALLER DUP1 DUP6 MSTORE SWAP3 MSTORE DUP1 DUP4 KECCAK256 DUP1 SLOAD PUSH1 0xFF NOT AND PUSH1 0x1 OR SWAP1 SSTORE MLOAD SWAP1 SWAP3 SWAP2 PUSH32 0xF4CAEB2D6CA8932A215A353D0703C326EC2D81FC68170F320EB2AB49E9DF61F9 SWAP2 LOG3 POP JUMP JUMPDEST PUSH1 0x60 PUSH1 0x3 DUP1 SLOAD PUSH2 0xA48 SWAP1 PUSH2 0x450F JUMP JUMPDEST PUSH2 0x1702 CALLER DUP6 PUSH2 0x2398 JUMP JUMPDEST PUSH2 0x1733 JUMPI PUSH1 0x40 MLOAD PUSH3 0x461BCD PUSH1 0xE5 SHL DUP2 MSTORE PUSH1 0x20 PUSH1 0x4 DUP3 ADD MSTORE PUSH1 0x2 PUSH1 0x24 DUP3 ADD MSTORE PUSH2 0x6A7 PUSH1 0xF3 SHL PUSH1 0x44 DUP3 ADD MSTORE PUSH1 0x64 ADD PUSH2 0xB21 JUMP JUMPDEST PUSH2 0xFC9 CALLER DUP6 DUP6 DUP6 DUP6 DUP1 DUP1 PUSH1 0x1F ADD PUSH1 0x20 DUP1 SWAP2 DIV MUL PUSH1 0x20 ADD PUSH1 0x40 MLOAD SWAP1 DUP2 ADD PUSH1 0x40 MSTORE DUP1 SWAP4 SWAP3 SWAP2 SWAP1 DUP2 DUP2 MSTORE PUSH1 0x20 ADD DUP4 DUP4 DUP1 DUP3 DUP5 CALLDATACOPY PUSH1 0x0 SWAP3 ADD SWAP2 SWAP1 SWAP2 MSTORE POP PUSH2 0x2BDF SWAP3 POP POP POP JUMP JUMPDEST PUSH2 0x177E CALLER PUSH2 0x187F JUMP JUMPDEST PUSH2 0x17B7 JUMPI PUSH1 0x40 MLOAD PUSH3 0x461BCD PUSH1 0xE5 SHL DUP2 MSTORE PUSH1 0x20 PUSH1 0x4 DUP3 ADD MSTORE PUSH1 0xA PUSH1 0x24 DUP3 ADD MSTORE PUSH10 0x3737BA1036B4B73A32B9 PUSH1 0xB1 SHL PUSH1 0x44 DUP3 ADD MSTORE PUSH1 0x64 ADD PUSH2 0xB21 JUMP JUMPDEST PUSH2 0x1041 DUP2 PUSH2 0x2DA6 JUMP JUMPDEST PUSH2 0x111A CALLER PUSH2 0x26A4 JUMP JUMPDEST PUSH2 0x17D4 DUP6 CALLER DUP7 PUSH2 0x2A61 JUMP JUMPDEST PUSH2 0x1805 JUMPI PUSH1 0x40 MLOAD PUSH3 0x461BCD PUSH1 0xE5 SHL DUP2 MSTORE PUSH1 0x20 PUSH1 0x4 DUP3 ADD MSTORE PUSH1 0x2 PUSH1 0x24 DUP3 ADD MSTORE PUSH2 0x6A7 PUSH1 0xF3 SHL PUSH1 0x44 DUP3 ADD MSTORE PUSH1 0x64 ADD PUSH2 0xB21 JUMP JUMPDEST PUSH2 0x1239 DUP6 CALLER DUP7 DUP7 PUSH1 0x40 MLOAD DUP1 PUSH1 0x20 ADD PUSH1 0x40 MSTORE DUP1 PUSH1 0x0 DUP2 MSTORE POP DUP8 DUP8 DUP1 DUP1 PUSH1 0x1F ADD PUSH1 0x20 DUP1 SWAP2 DIV MUL PUSH1 0x20 ADD PUSH1 0x40 MLOAD SWAP1 DUP2 ADD PUSH1 0x40 MSTORE DUP1 SWAP4 SWAP3 SWAP2 SWAP1 DUP2 DUP2 MSTORE PUSH1 0x20 ADD DUP4 DUP4 DUP1 DUP3 DUP5 CALLDATACOPY PUSH1 0x0 SWAP3 ADD SWAP2 SWAP1 SWAP2 MSTORE POP PUSH2 0x2819 SWAP3 POP POP POP JUMP JUMPDEST PUSH1 0x0 PUSH2 0x1876 CALLER CALLER DUP6 DUP6 PUSH1 0x40 MLOAD DUP1 PUSH1 0x20 ADD PUSH1 0x40 MSTORE DUP1 PUSH1 0x0 DUP2 MSTORE POP PUSH2 0x2425 JUMP JUMPDEST POP PUSH1 0x1 SWAP3 SWAP2 POP POP JUMP JUMPDEST PUSH1 0x1 PUSH1 0x1 PUSH1 0xA0 SHL SUB DUP2 AND PUSH1 0x0 SWAP1 DUP2 MSTORE PUSH32 0x26966C7CA00F80A840807FE1D2876298D981892BF639875A3C73BA2AC1FA3A0C PUSH1 0x20 MSTORE PUSH1 0x40 DUP2 KECCAK256 SLOAD PUSH1 0xFF AND PUSH2 0xA33 JUMP JUMPDEST PUSH1 0x0 DUP2 DUP2 MSTORE PUSH1 0x9 PUSH1 0x20 MSTORE PUSH1 0x40 DUP2 KECCAK256 DUP1 SLOAD PUSH1 0x60 SWAP3 SWAP2 SWAP1 PUSH2 0x18DD SWAP1 PUSH2 0x450F JUMP JUMPDEST ISZERO ISZERO SWAP1 POP PUSH2 0x18EA JUMPI PUSH1 0x0 DUP1 REVERT JUMPDEST PUSH1 0x0 DUP4 DUP2 MSTORE PUSH1 0x9 PUSH1 0x20 MSTORE PUSH1 0x40 SWAP1 KECCAK256 PUSH1 0x1 DUP2 ADD SLOAD DUP2 SLOAD DUP3 SWAP1 PUSH2 0x190A SWAP1 PUSH2 0x450F JUMP JUMPDEST DUP1 PUSH1 0x1F ADD PUSH1 0x20 DUP1 SWAP2 DIV MUL PUSH1 0x20 ADD PUSH1 0x40 MLOAD SWAP1 DUP2 ADD PUSH1 0x40 MSTORE DUP1 SWAP3 SWAP2 SWAP1 DUP2 DUP2 MSTORE PUSH1 0x20 ADD DUP3 DUP1 SLOAD PUSH2 0x1936 SWAP1 PUSH2 0x450F JUMP JUMPDEST DUP1 ISZERO PUSH2 0x1983 JUMPI DUP1 PUSH1 0x1F LT PUSH2 0x1958 JUMPI PUSH2 0x100 DUP1 DUP4 SLOAD DIV MUL DUP4 MSTORE SWAP2 PUSH1 0x20 ADD SWAP2 PUSH2 0x1983 JUMP JUMPDEST DUP3 ADD SWAP2 SWAP1 PUSH1 0x0 MSTORE PUSH1 0x20 PUSH1 0x0 KECCAK256 SWAP1 JUMPDEST DUP2 SLOAD DUP2 MSTORE SWAP1 PUSH1 0x1 ADD SWAP1 PUSH1 0x20 ADD DUP1 DUP4 GT PUSH2 0x1966 JUMPI DUP3 SWAP1 SUB PUSH1 0x1F AND DUP3 ADD SWAP2 JUMPDEST POP POP POP POP POP SWAP2 POP SWAP2 POP SWAP2 POP SWAP2 POP SWAP2 JUMP JUMPDEST PUSH1 0x0 PUSH2 0x199F DUP4 DUP4 PUSH2 0x2398 JUMP JUMPDEST SWAP4 SWAP3 POP POP POP JUMP JUMPDEST PUSH2 0x19AF CALLER PUSH2 0x187F JUMP JUMPDEST PUSH2 0x19E8 JUMPI PUSH1 0x40 MLOAD PUSH3 0x461BCD PUSH1 0xE5 SHL DUP2 MSTORE PUSH1 0x20 PUSH1 0x4 DUP3 ADD MSTORE PUSH1 0xA PUSH1 0x24 DUP3 ADD MSTORE PUSH10 0x3737BA1036B4B73A32B9 PUSH1 0xB1 SHL PUSH1 0x44 DUP3 ADD MSTORE PUSH1 0x64 ADD PUSH2 0xB21 JUMP JUMPDEST PUSH1 0x6 SLOAD PUSH1 0x1 PUSH1 0xB0 SHL SWAP1 DIV PUSH1 0xFF AND PUSH2 0x1A26 JUMPI PUSH1 0x40 MLOAD PUSH3 0x461BCD PUSH1 0xE5 SHL DUP2 MSTORE PUSH1 0x20 PUSH1 0x4 DUP3 ADD MSTORE PUSH1 0x2 PUSH1 0x24 DUP3 ADD MSTORE PUSH2 0x3535 PUSH1 0xF0 SHL PUSH1 0x44 DUP3 ADD MSTORE PUSH1 0x64 ADD PUSH2 0xB21 JUMP JUMPDEST PUSH1 0x10 SLOAD PUSH2 0x1A5A JUMPI PUSH1 0x40 MLOAD PUSH3 0x461BCD PUSH1 0xE5 SHL DUP2 MSTORE PUSH1 0x20 PUSH1 0x4 DUP3 ADD MSTORE PUSH1 0x2 PUSH1 0x24 DUP3 ADD MSTORE PUSH2 0x3535 PUSH1 0xF0 SHL PUSH1 0x44 DUP3 ADD MSTORE PUSH1 0x64 ADD PUSH2 0xB21 JUMP JUMPDEST PUSH2 0x1A63 DUP5 PUSH2 0x2E07 JUMP JUMPDEST PUSH2 0x1AA5 JUMPI PUSH1 0x40 MLOAD PUSH3 0x461BCD PUSH1 0xE5 SHL DUP2 MSTORE PUSH1 0x20 PUSH1 0x4 DUP3 ADD MSTORE PUSH1 0x13 PUSH1 0x24 DUP3 ADD MSTORE PUSH19 0x2AB730BABA3437B934BD32B2102830B93A3C97 PUSH1 0x69 SHL PUSH1 0x44 DUP3 ADD MSTORE PUSH1 0x64 ADD PUSH2 0xB21 JUMP JUMPDEST PUSH2 0xFC9 PUSH1 0x10 PUSH1 0x0 DUP2 SLOAD DUP2 LT PUSH2 0x1ABC JUMPI PUSH2 0x1ABC PUSH2 0x457B JUMP JUMPDEST SWAP1 PUSH1 0x0 MSTORE PUSH1 0x20 PUSH1 0x0 KECCAK256 ADD SLOAD CALLER DUP7 DUP7 DUP7 DUP7 DUP1 DUP1 PUSH1 0x1F ADD PUSH1 0x20 DUP1 SWAP2 DIV MUL PUSH1 0x20 ADD PUSH1 0x40 MLOAD SWAP1 DUP2 ADD PUSH1 0x40 MSTORE DUP1 SWAP4 SWAP3 SWAP2 SWAP1 DUP2 DUP2 MSTORE PUSH1 0x20 ADD DUP4 DUP4 DUP1 DUP3 DUP5 CALLDATACOPY PUSH1 0x0 SWAP3 ADD SWAP2 SWAP1 SWAP2 MSTORE POP PUSH2 0x299A SWAP3 POP POP POP JUMP JUMPDEST PUSH1 0x60 PUSH1 0x10 DUP1 SLOAD DUP1 PUSH1 0x20 MUL PUSH1 0x20 ADD PUSH1 0x40 MLOAD SWAP1 DUP2 ADD PUSH1 0x40 MSTORE DUP1 SWAP3 SWAP2 SWAP1 DUP2 DUP2 MSTORE PUSH1 0x20 ADD DUP3 DUP1 SLOAD DUP1 ISZERO PUSH2 0xAC1 JUMPI PUSH1 0x20 MUL DUP3 ADD SWAP2 SWAP1 PUSH1 0x0 MSTORE PUSH1 0x20 PUSH1 0x0 KECCAK256 SWAP1 JUMPDEST DUP2 SLOAD DUP2 MSTORE PUSH1 0x20 ADD SWAP1 PUSH1 0x1 ADD SWAP1 DUP1 DUP4 GT PUSH2 0x1B40 JUMPI POP POP POP POP POP SWAP1 POP SWAP1 JUMP JUMPDEST PUSH1 0x0 SLOAD PUSH1 0x1 PUSH1 0x1 PUSH1 0xA0 SHL SUB AND CALLER EQ PUSH2 0x1BB7 JUMPI PUSH1 0x40 MLOAD PUSH3 0x461BCD PUSH1 0xE5 SHL DUP2 MSTORE PUSH1 0x20 PUSH1 0x4 DUP3 ADD DUP2 SWAP1 MSTORE PUSH1 0x24 DUP3 ADD MSTORE PUSH32 0x4F776E61626C653A2063616C6C6572206973206E6F7420746865206F776E6572 PUSH1 0x44 DUP3 ADD MSTORE PUSH1 0x64 ADD PUSH2 0xB21 JUMP JUMPDEST PUSH1 0x6 DUP1 SLOAD PUSH32 0xFFFFFFFFFFFFFFFFFFFF00FFFFFFFFFFFFFFFFFFFFFFFFFFFFFFFFFFFFFFFFFF AND SWAP1 SSTORE JUMP JUMPDEST PUSH1 0x0 DUP3 DUP2 MSTORE PUSH1 0x1 PUSH1 0x20 DUP2 SWAP1 MSTORE PUSH1 0x40 SWAP1 SWAP2 KECCAK256 ADD SLOAD PUSH2 0x1BFE DUP2 CALLER PUSH2 0x259D JUMP JUMPDEST PUSH2 0xE4A DUP4 DUP4 PUSH2 0x2705 JUMP JUMPDEST PUSH2 0x1C11 CALLER PUSH2 0x1EE3 JUMP JUMPDEST PUSH2 0x1C4A JUMPI PUSH1 0x40 MLOAD PUSH3 0x461BCD PUSH1 0xE5 SHL DUP2 MSTORE PUSH1 0x20 PUSH1 0x4 DUP3 ADD MSTORE PUSH1 0xA PUSH1 0x24 DUP3 ADD MSTORE PUSH10 0x3737BA1039B2B63632B9 PUSH1 0xB1 SHL PUSH1 0x44 DUP3 ADD MSTORE PUSH1 0x64 ADD PUSH2 0xB21 JUMP JUMPDEST PUSH2 0x1041 DUP2 PUSH2 0x2E8C JUMP JUMPDEST PUSH2 0xE4A CALLER CALLER DUP6 DUP6 DUP6 DUP1 DUP1 PUSH1 0x1F ADD PUSH1 0x20 DUP1 SWAP2 DIV MUL PUSH1 0x20 ADD PUSH1 0x40 MLOAD SWAP1 DUP2 ADD PUSH1 0x40 MSTORE DUP1 SWAP4 SWAP3 SWAP2 SWAP1 DUP2 DUP2 MSTORE PUSH1 0x20 ADD DUP4 DUP4 DUP1 DUP3 DUP5 CALLDATACOPY PUSH1 0x0 SWAP3 ADD SWAP2 SWAP1 SWAP2 MSTORE POP PUSH2 0x2BDF SWAP3 POP POP POP JUMP JUMPDEST PUSH1 0x0 SLOAD PUSH1 0x1 PUSH1 0x1 PUSH1 0xA0 SHL SUB AND CALLER EQ PUSH2 0x1CEF JUMPI PUSH1 0x40 MLOAD PUSH3 0x461BCD PUSH1 0xE5 SHL DUP2 MSTORE PUSH1 0x20 PUSH1 0x4 DUP3 ADD DUP2 SWAP1 MSTORE PUSH1 0x24 DUP3 ADD MSTORE PUSH32 0x4F776E61626C653A2063616C6C6572206973206E6F7420746865206F776E6572 PUSH1 0x44 DUP3 ADD MSTORE PUSH1 0x64 ADD PUSH2 0xB21 JUMP JUMPDEST PUSH2 0x10CC DUP3 DUP3 DUP1 DUP1 PUSH1 0x20 MUL PUSH1 0x20 ADD PUSH1 0x40 MLOAD SWAP1 DUP2 ADD PUSH1 0x40 MSTORE DUP1 SWAP4 SWAP3 SWAP2 SWAP1 DUP2 DUP2 MSTORE PUSH1 0x20 ADD DUP4 DUP4 PUSH1 0x20 MUL DUP1 DUP3 DUP5 CALLDATACOPY PUSH1 0x0 SWAP3 ADD SWAP2 SWAP1 SWAP2 MSTORE POP PUSH2 0x2EED SWAP3 POP POP POP JUMP JUMPDEST PUSH1 0x0 SLOAD PUSH1 0x1 PUSH1 0x1 PUSH1 0xA0 SHL SUB AND CALLER EQ PUSH2 0x1D85 JUMPI PUSH1 0x40 MLOAD PUSH3 0x461BCD PUSH1 0xE5 SHL DUP2 MSTORE PUSH1 0x20 PUSH1 0x4 DUP3 ADD DUP2 SWAP1 MSTORE PUSH1 0x24 DUP3 ADD MSTORE PUSH32 0x4F776E61626C653A2063616C6C6572206973206E6F7420746865206F776E6572 PUSH1 0x44 DUP3 ADD MSTORE PUSH1 0x64 ADD PUSH2 0xB21 JUMP JUMPDEST PUSH2 0xE4A PUSH1 0x10 DUP4 DUP4 PUSH2 0x3C4D JUMP JUMPDEST PUSH2 0x1D9B CALLER DUP7 PUSH2 0x2398 JUMP JUMPDEST DUP1 PUSH2 0x1DC9 JUMPI POP PUSH1 0x1 PUSH1 0x1 PUSH1 0xA0 SHL SUB DUP6 AND PUSH1 0x0 SWAP1 DUP2 MSTORE PUSH1 0x8 PUSH1 0x20 SWAP1 DUP2 MSTORE PUSH1 0x40 DUP1 DUP4 KECCAK256 CALLER DUP5 MSTORE SWAP1 SWAP2 MSTORE SWAP1 KECCAK256 SLOAD DUP4 GT ISZERO JUMPDEST PUSH2 0x1DFA JUMPI PUSH1 0x40 MLOAD PUSH3 0x461BCD PUSH1 0xE5 SHL DUP2 MSTORE PUSH1 0x20 PUSH1 0x4 DUP3 ADD MSTORE PUSH1 0x2 PUSH1 0x24 DUP3 ADD MSTORE PUSH2 0x3533 PUSH1 0xF0 SHL PUSH1 0x44 DUP3 ADD MSTORE PUSH1 0x64 ADD PUSH2 0xB21 JUMP JUMPDEST PUSH1 0x1 PUSH1 0x1 PUSH1 0xA0 SHL SUB DUP6 AND PUSH1 0x0 SWAP1 DUP2 MSTORE PUSH1 0x8 PUSH1 0x20 SWAP1 DUP2 MSTORE PUSH1 0x40 DUP1 DUP4 KECCAK256 CALLER DUP5 MSTORE SWAP1 SWAP2 MSTORE SWAP1 KECCAK256 SLOAD DUP4 GT PUSH2 0x1E7B JUMPI PUSH1 0x1 PUSH1 0x1 PUSH1 0xA0 SHL SUB DUP6 AND PUSH1 0x0 SWAP1 DUP2 MSTORE PUSH1 0x8 PUSH1 0x20 SWAP1 DUP2 MSTORE PUSH1 0x40 DUP1 DUP4 KECCAK256 CALLER DUP5 MSTORE SWAP1 SWAP2 MSTORE SWAP1 KECCAK256 SLOAD PUSH2 0x1E52 SWAP1 DUP5 PUSH2 0x2419 JUMP JUMPDEST PUSH1 0x1 PUSH1 0x1 PUSH1 0xA0 SHL SUB DUP7 AND PUSH1 0x0 SWAP1 DUP2 MSTORE PUSH1 0x8 PUSH1 0x20 SWAP1 DUP2 MSTORE PUSH1 0x40 DUP1 DUP4 KECCAK256 CALLER DUP5 MSTORE SWAP1 SWAP2 MSTORE SWAP1 KECCAK256 SSTORE PUSH2 0x1EA0 JUMP JUMPDEST PUSH1 0x1 PUSH1 0x1 PUSH1 0xA0 SHL SUB DUP6 AND PUSH1 0x0 SWAP1 DUP2 MSTORE PUSH1 0x8 PUSH1 0x20 SWAP1 DUP2 MSTORE PUSH1 0x40 DUP1 DUP4 KECCAK256 CALLER DUP5 MSTORE SWAP1 SWAP2 MSTORE DUP2 KECCAK256 SSTORE JUMPDEST PUSH2 0x1239 CALLER DUP7 DUP7 DUP7 DUP7 DUP7 DUP1 DUP1 PUSH1 0x1F ADD PUSH1 0x20 DUP1 SWAP2 DIV MUL PUSH1 0x20 ADD PUSH1 0x40 MLOAD SWAP1 DUP2 ADD PUSH1 0x40 MSTORE DUP1 SWAP4 SWAP3 SWAP2 SWAP1 DUP2 DUP2 MSTORE PUSH1 0x20 ADD DUP4 DUP4 DUP1 DUP3 DUP5 CALLDATACOPY PUSH1 0x0 SWAP3 ADD SWAP2 SWAP1 SWAP2 MSTORE POP PUSH2 0x2425 SWAP3 POP POP POP JUMP JUMPDEST PUSH1 0x1 PUSH1 0x1 PUSH1 0xA0 SHL SUB DUP2 AND PUSH1 0x0 SWAP1 DUP2 MSTORE PUSH32 0xE955D3EAAC45BB7FCB2FEB7ADC177D6FEDC26712DBB754B5E3ECD058E0C31DB8 PUSH1 0x20 MSTORE PUSH1 0x40 DUP2 KECCAK256 SLOAD PUSH1 0xFF AND PUSH2 0xA33 JUMP JUMPDEST PUSH1 0x0 SLOAD PUSH1 0x1 PUSH1 0x1 PUSH1 0xA0 SHL SUB AND CALLER EQ PUSH2 0x1F7D JUMPI PUSH1 0x40 MLOAD PUSH3 0x461BCD PUSH1 0xE5 SHL DUP2 MSTORE PUSH1 0x20 PUSH1 0x4 DUP3 ADD DUP2 SWAP1 MSTORE PUSH1 0x24 DUP3 ADD MSTORE PUSH32 0x4F776E61626C653A2063616C6C6572206973206E6F7420746865206F776E6572 PUSH1 0x44 DUP3 ADD MSTORE PUSH1 0x64 ADD PUSH2 0xB21 JUMP JUMPDEST PUSH1 0x1 PUSH1 0x1 PUSH1 0xA0 SHL SUB DUP2 AND PUSH2 0x1FF9 JUMPI PUSH1 0x40 MLOAD PUSH3 0x461BCD PUSH1 0xE5 SHL DUP2 MSTORE PUSH1 0x20 PUSH1 0x4 DUP3 ADD MSTORE PUSH1 0x26 PUSH1 0x24 DUP3 ADD MSTORE PUSH32 0x4F776E61626C653A206E6577206F776E657220697320746865207A65726F2061 PUSH1 0x44 DUP3 ADD MSTORE PUSH32 0x6464726573730000000000000000000000000000000000000000000000000000 PUSH1 0x64 DUP3 ADD MSTORE PUSH1 0x84 ADD PUSH2 0xB21 JUMP JUMPDEST PUSH2 0x1041 DUP2 PUSH2 0x2AEC JUMP JUMPDEST PUSH1 0x0 PUSH2 0x2056 DUP7 CALLER CALLER DUP9 DUP9 DUP9 DUP9 DUP1 DUP1 PUSH1 0x1F ADD PUSH1 0x20 DUP1 SWAP2 DIV MUL PUSH1 0x20 ADD PUSH1 0x40 MLOAD SWAP1 DUP2 ADD PUSH1 0x40 MSTORE DUP1 SWAP4 SWAP3 SWAP2 SWAP1 DUP2 DUP2 MSTORE PUSH1 0x20 ADD DUP4 DUP4 DUP1 DUP3 DUP5 CALLDATACOPY PUSH1 0x0 SWAP3 ADD DUP3 SWAP1 MSTORE POP PUSH1 0x40 DUP1 MLOAD PUSH1 0x20 DUP2 ADD SWAP1 SWAP2 MSTORE SWAP1 DUP2 MSTORE SWAP3 POP PUSH2 0x2B49 SWAP2 POP POP JUMP JUMPDEST SWAP7 SWAP6 POP POP POP POP POP POP JUMP JUMPDEST PUSH1 0x1 PUSH1 0x1 PUSH1 0xA0 SHL SUB DUP2 AND CALLER EQ ISZERO PUSH2 0x2076 JUMPI PUSH1 0x0 DUP1 REVERT JUMPDEST PUSH1 0x1 PUSH1 0x1 PUSH1 0xA0 SHL SUB DUP2 AND PUSH1 0x0 DUP2 DUP2 MSTORE PUSH1 0x11 PUSH1 0x20 SWAP1 DUP2 MSTORE PUSH1 0x40 DUP1 DUP4 KECCAK256 CALLER DUP1 DUP6 MSTORE SWAP3 MSTORE DUP1 DUP4 KECCAK256 DUP1 SLOAD PUSH1 0xFF NOT AND SWAP1 SSTORE MLOAD SWAP1 SWAP3 SWAP2 PUSH32 0x50546E66E5F44D728365DC3908C63BC5CFEEAB470722C1677E3073A6AC294AA1 SWAP2 LOG3 POP JUMP JUMPDEST PUSH1 0x60 PUSH1 0x0 PUSH2 0x20DB DUP4 PUSH1 0x2 PUSH2 0x4496 JUMP JUMPDEST PUSH2 0x20E6 SWAP1 PUSH1 0x2 PUSH2 0x445C JUMP JUMPDEST PUSH8 0xFFFFFFFFFFFFFFFF DUP2 GT ISZERO PUSH2 0x20FE JUMPI PUSH2 0x20FE PUSH2 0x4591 JUMP JUMPDEST PUSH1 0x40 MLOAD SWAP1 DUP1 DUP3 MSTORE DUP1 PUSH1 0x1F ADD PUSH1 0x1F NOT AND PUSH1 0x20 ADD DUP3 ADD PUSH1 0x40 MSTORE DUP1 ISZERO PUSH2 0x2128 JUMPI PUSH1 0x20 DUP3 ADD DUP2 DUP1 CALLDATASIZE DUP4 CALLDATACOPY ADD SWAP1 POP JUMPDEST POP SWAP1 POP PUSH1 0x3 PUSH1 0xFC SHL DUP2 PUSH1 0x0 DUP2 MLOAD DUP2 LT PUSH2 0x2143 JUMPI PUSH2 0x2143 PUSH2 0x457B JUMP JUMPDEST PUSH1 0x20 ADD ADD SWAP1 PUSH1 0x1 PUSH1 0x1 PUSH1 0xF8 SHL SUB NOT AND SWAP1 DUP2 PUSH1 0x0 BYTE SWAP1 MSTORE8 POP PUSH1 0xF PUSH1 0xFB SHL DUP2 PUSH1 0x1 DUP2 MLOAD DUP2 LT PUSH2 0x2172 JUMPI PUSH2 0x2172 PUSH2 0x457B JUMP JUMPDEST PUSH1 0x20 ADD ADD SWAP1 PUSH1 0x1 PUSH1 0x1 PUSH1 0xF8 SHL SUB NOT AND SWAP1 DUP2 PUSH1 0x0 BYTE SWAP1 MSTORE8 POP PUSH1 0x0 PUSH2 0x2196 DUP5 PUSH1 0x2 PUSH2 0x4496 JUMP JUMPDEST PUSH2 0x21A1 SWAP1 PUSH1 0x1 PUSH2 0x445C JUMP JUMPDEST SWAP1 POP JUMPDEST PUSH1 0x1 DUP2 GT ISZERO PUSH2 0x2226 JUMPI PUSH32 0x3031323334353637383961626364656600000000000000000000000000000000 DUP6 PUSH1 0xF AND PUSH1 0x10 DUP2 LT PUSH2 0x21E2 JUMPI PUSH2 0x21E2 PUSH2 0x457B JUMP JUMPDEST BYTE PUSH1 0xF8 SHL DUP3 DUP3 DUP2 MLOAD DUP2 LT PUSH2 0x21F8 JUMPI PUSH2 0x21F8 PUSH2 0x457B JUMP JUMPDEST PUSH1 0x20 ADD ADD SWAP1 PUSH1 0x1 PUSH1 0x1 PUSH1 0xF8 SHL SUB NOT AND SWAP1 DUP2 PUSH1 0x0 BYTE SWAP1 MSTORE8 POP PUSH1 0x4 SWAP5 SWAP1 SWAP5 SHR SWAP4 PUSH2 0x221F DUP2 PUSH2 0x44F8 JUMP JUMPDEST SWAP1 POP PUSH2 0x21A4 JUMP JUMPDEST POP DUP4 ISZERO PUSH2 0x199F JUMPI PUSH1 0x40 MLOAD PUSH3 0x461BCD PUSH1 0xE5 SHL DUP2 MSTORE PUSH1 0x20 PUSH1 0x4 DUP3 ADD DUP2 SWAP1 MSTORE PUSH1 0x24 DUP3 ADD MSTORE PUSH32 0x537472696E67733A20686578206C656E67746820696E73756666696369656E74 PUSH1 0x44 DUP3 ADD MSTORE PUSH1 0x64 ADD PUSH2 0xB21 JUMP JUMPDEST PUSH1 0x0 JUMPDEST PUSH1 0x0 DUP4 DUP2 MSTORE PUSH1 0x16 PUSH1 0x20 MSTORE PUSH1 0x40 SWAP1 KECCAK256 SLOAD DUP2 LT ISZERO PUSH2 0x2301 JUMPI PUSH1 0x0 DUP4 DUP2 MSTORE PUSH1 0x17 PUSH1 0x20 SWAP1 DUP2 MSTORE PUSH1 0x40 DUP1 DUP4 KECCAK256 PUSH1 0x16 SWAP1 SWAP3 MSTORE DUP3 KECCAK256 DUP1 SLOAD DUP4 SWAP2 SWAP1 DUP6 SWAP1 DUP2 LT PUSH2 0x22BB JUMPI PUSH2 0x22BB PUSH2 0x457B JUMP JUMPDEST PUSH1 0x0 SWAP2 DUP3 MSTORE PUSH1 0x20 DUP1 DUP4 KECCAK256 SWAP2 SWAP1 SWAP2 ADD SLOAD PUSH1 0x1 PUSH1 0x1 PUSH1 0xA0 SHL SUB AND DUP4 MSTORE DUP3 ADD SWAP3 SWAP1 SWAP3 MSTORE PUSH1 0x40 ADD SWAP1 KECCAK256 DUP1 SLOAD PUSH1 0xFF NOT AND SWAP2 ISZERO ISZERO SWAP2 SWAP1 SWAP2 OR SWAP1 SSTORE DUP1 PUSH2 0x22F9 DUP2 PUSH2 0x454A JUMP JUMPDEST SWAP2 POP POP PUSH2 0x2278 JUMP JUMPDEST POP PUSH1 0x0 JUMPDEST DUP2 MLOAD DUP2 LT ISZERO PUSH2 0x2378 JUMPI PUSH1 0x0 DUP4 DUP2 MSTORE PUSH1 0x17 PUSH1 0x20 MSTORE PUSH1 0x40 DUP2 KECCAK256 DUP4 MLOAD PUSH1 0x1 SWAP3 SWAP1 DUP6 SWAP1 DUP6 SWAP1 DUP2 LT PUSH2 0x2334 JUMPI PUSH2 0x2334 PUSH2 0x457B JUMP JUMPDEST PUSH1 0x20 SWAP1 DUP2 MUL SWAP2 SWAP1 SWAP2 ADD DUP2 ADD MLOAD PUSH1 0x1 PUSH1 0x1 PUSH1 0xA0 SHL SUB AND DUP3 MSTORE DUP2 ADD SWAP2 SWAP1 SWAP2 MSTORE PUSH1 0x40 ADD PUSH1 0x0 KECCAK256 DUP1 SLOAD PUSH1 0xFF NOT AND SWAP2 ISZERO ISZERO SWAP2 SWAP1 SWAP2 OR SWAP1 SSTORE DUP1 PUSH2 0x2370 DUP2 PUSH2 0x454A JUMP JUMPDEST SWAP2 POP POP PUSH2 0x2305 JUMP JUMPDEST POP PUSH1 0x0 DUP3 DUP2 MSTORE PUSH1 0x16 PUSH1 0x20 SWAP1 DUP2 MSTORE PUSH1 0x40 SWAP1 SWAP2 KECCAK256 DUP3 MLOAD PUSH2 0xE4A SWAP3 DUP5 ADD SWAP1 PUSH2 0x3C88 JUMP JUMPDEST PUSH1 0x0 DUP2 PUSH1 0x1 PUSH1 0x1 PUSH1 0xA0 SHL SUB AND DUP4 PUSH1 0x1 PUSH1 0x1 PUSH1 0xA0 SHL SUB AND EQ DUP1 PUSH2 0x23DF JUMPI POP PUSH1 0x1 PUSH1 0x1 PUSH1 0xA0 SHL SUB DUP1 DUP5 AND PUSH1 0x0 SWAP1 DUP2 MSTORE PUSH1 0x11 PUSH1 0x20 SWAP1 DUP2 MSTORE PUSH1 0x40 DUP1 DUP4 KECCAK256 SWAP4 DUP7 AND DUP4 MSTORE SWAP3 SWAP1 MSTORE KECCAK256 SLOAD PUSH1 0xFF AND JUMPDEST DUP1 PUSH2 0x199F JUMPI POP PUSH1 0x6 SLOAD PUSH1 0x1 PUSH1 0xA8 SHL SWAP1 DIV PUSH1 0xFF AND DUP1 ISZERO PUSH2 0x199F JUMPI POP POP POP PUSH1 0x1 PUSH1 0x1 PUSH1 0xA0 SHL SUB AND PUSH1 0x0 SWAP1 DUP2 MSTORE PUSH1 0x13 PUSH1 0x20 MSTORE PUSH1 0x40 SWAP1 KECCAK256 SLOAD PUSH1 0xFF AND SWAP1 JUMP JUMPDEST PUSH1 0x0 PUSH2 0x199F DUP3 DUP5 PUSH2 0x44B5 JUMP JUMPDEST PUSH1 0x10 SLOAD PUSH2 0x2459 JUMPI PUSH1 0x40 MLOAD PUSH3 0x461BCD PUSH1 0xE5 SHL DUP2 MSTORE PUSH1 0x20 PUSH1 0x4 DUP3 ADD MSTORE PUSH1 0x2 PUSH1 0x24 DUP3 ADD MSTORE PUSH2 0x3535 PUSH1 0xF0 SHL PUSH1 0x44 DUP3 ADD MSTORE PUSH1 0x64 ADD PUSH2 0xB21 JUMP JUMPDEST DUP2 PUSH1 0x0 DUP1 JUMPDEST PUSH1 0x10 SLOAD DUP2 LT ISZERO PUSH2 0x2560 JUMPI PUSH1 0x1 PUSH1 0x1 PUSH1 0xA0 SHL SUB DUP8 AND PUSH1 0x0 SWAP1 DUP2 MSTORE PUSH1 0xF PUSH1 0x20 MSTORE PUSH1 0x40 DUP2 KECCAK256 PUSH1 0x10 DUP1 SLOAD SWAP2 SWAP3 SWAP2 DUP5 SWAP1 DUP2 LT PUSH2 0x2497 JUMPI PUSH2 0x2497 PUSH2 0x457B JUMP JUMPDEST SWAP1 PUSH1 0x0 MSTORE PUSH1 0x20 PUSH1 0x0 KECCAK256 ADD SLOAD DUP2 MSTORE PUSH1 0x20 ADD SWAP1 DUP2 MSTORE PUSH1 0x20 ADD PUSH1 0x0 KECCAK256 SLOAD SWAP2 POP DUP2 DUP4 GT PUSH2 0x24FF JUMPI PUSH2 0x24F5 PUSH1 0x10 DUP3 DUP2 SLOAD DUP2 LT PUSH2 0x24D0 JUMPI PUSH2 0x24D0 PUSH2 0x457B JUMP JUMPDEST SWAP1 PUSH1 0x0 MSTORE PUSH1 0x20 PUSH1 0x0 KECCAK256 ADD SLOAD DUP10 DUP10 DUP10 DUP8 DUP10 PUSH1 0x40 MLOAD DUP1 PUSH1 0x20 ADD PUSH1 0x40 MSTORE DUP1 PUSH1 0x0 DUP2 MSTORE POP PUSH2 0x2B49 JUMP JUMPDEST POP PUSH1 0x0 SWAP3 POP PUSH2 0x2560 JUMP JUMPDEST DUP2 ISZERO PUSH2 0x254E JUMPI PUSH2 0x2540 PUSH1 0x10 DUP3 DUP2 SLOAD DUP2 LT PUSH2 0x251B JUMPI PUSH2 0x251B PUSH2 0x457B JUMP JUMPDEST SWAP1 PUSH1 0x0 MSTORE PUSH1 0x20 PUSH1 0x0 KECCAK256 ADD SLOAD DUP10 DUP10 DUP10 DUP7 DUP10 PUSH1 0x40 MLOAD DUP1 PUSH1 0x20 ADD PUSH1 0x40 MSTORE DUP1 PUSH1 0x0 DUP2 MSTORE POP PUSH2 0x2B49 JUMP JUMPDEST POP PUSH2 0x254B DUP3 DUP5 PUSH2 0x44B5 JUMP JUMPDEST SWAP3 POP JUMPDEST DUP1 PUSH2 0x2558 DUP2 PUSH2 0x454A JUMP JUMPDEST SWAP2 POP POP PUSH2 0x245E JUMP JUMPDEST POP DUP2 ISZERO PUSH2 0x2594 JUMPI PUSH1 0x40 MLOAD PUSH3 0x461BCD PUSH1 0xE5 SHL DUP2 MSTORE PUSH1 0x20 PUSH1 0x4 DUP3 ADD MSTORE PUSH1 0x2 PUSH1 0x24 DUP3 ADD MSTORE PUSH2 0x1A99 PUSH1 0xF1 SHL PUSH1 0x44 DUP3 ADD MSTORE PUSH1 0x64 ADD PUSH2 0xB21 JUMP JUMPDEST POP POP POP POP POP POP POP JUMP JUMPDEST PUSH1 0x0 DUP3 DUP2 MSTORE PUSH1 0x1 PUSH1 0x20 SWAP1 DUP2 MSTORE PUSH1 0x40 DUP1 DUP4 KECCAK256 PUSH1 0x1 PUSH1 0x1 PUSH1 0xA0 SHL SUB DUP6 AND DUP5 MSTORE SWAP1 SWAP2 MSTORE SWAP1 KECCAK256 SLOAD PUSH1 0xFF AND PUSH2 0x10CC JUMPI PUSH2 0x25DB DUP2 PUSH1 0x1 PUSH1 0x1 PUSH1 0xA0 SHL SUB AND PUSH1 0x14 PUSH2 0x20CC JUMP JUMPDEST PUSH2 0x25E6 DUP4 PUSH1 0x20 PUSH2 0x20CC JUMP JUMPDEST PUSH1 0x40 MLOAD PUSH1 0x20 ADD PUSH2 0x25F7 SWAP3 SWAP2 SWAP1 PUSH2 0x4262 JUMP JUMPDEST PUSH1 0x40 DUP1 MLOAD PUSH1 0x1F NOT DUP2 DUP5 SUB ADD DUP2 MSTORE SWAP1 DUP3 SWAP1 MSTORE PUSH3 0x461BCD PUSH1 0xE5 SHL DUP3 MSTORE PUSH2 0xB21 SWAP2 PUSH1 0x4 ADD PUSH2 0x43DB JUMP JUMPDEST PUSH1 0x0 DUP3 DUP2 MSTORE PUSH1 0x1 PUSH1 0x20 SWAP1 DUP2 MSTORE PUSH1 0x40 DUP1 DUP4 KECCAK256 PUSH1 0x1 PUSH1 0x1 PUSH1 0xA0 SHL SUB DUP6 AND DUP5 MSTORE SWAP1 SWAP2 MSTORE SWAP1 KECCAK256 SLOAD PUSH1 0xFF AND PUSH2 0x10CC JUMPI PUSH1 0x0 DUP3 DUP2 MSTORE PUSH1 0x1 PUSH1 0x20 DUP2 DUP2 MSTORE PUSH1 0x40 DUP1 DUP5 KECCAK256 PUSH1 0x1 PUSH1 0x1 PUSH1 0xA0 SHL SUB DUP7 AND DUP1 DUP7 MSTORE SWAP3 MSTORE DUP1 DUP5 KECCAK256 DUP1 SLOAD PUSH1 0xFF NOT AND SWAP1 SWAP4 OR SWAP1 SWAP3 SSTORE SWAP1 MLOAD CALLER SWAP3 DUP6 SWAP2 PUSH32 0x2F8788117E7EFF1D82E926EC794901D17C78024A50270940304540A733656F0D SWAP2 SWAP1 LOG4 POP POP JUMP JUMPDEST PUSH2 0x26CE PUSH32 0x6E58AD548D72B425EA94C15F453BF26CADDB061D82B2551DB7FDD3CEFE0E9940 DUP3 PUSH2 0x1BE1 JUMP JUMPDEST PUSH1 0x40 MLOAD PUSH1 0x1 PUSH1 0x1 PUSH1 0xA0 SHL SUB DUP3 AND SWAP1 PUSH32 0xE94479A9F7E1952CC78F2D6BAAB678ADC1B772D936C6583DEF489E524CB66692 SWAP1 PUSH1 0x0 SWAP1 LOG2 POP JUMP JUMPDEST PUSH1 0x0 DUP3 DUP2 MSTORE PUSH1 0x1 PUSH1 0x20 SWAP1 DUP2 MSTORE PUSH1 0x40 DUP1 DUP4 KECCAK256 PUSH1 0x1 PUSH1 0x1 PUSH1 0xA0 SHL SUB DUP6 AND DUP5 MSTORE SWAP1 SWAP2 MSTORE SWAP1 KECCAK256 SLOAD PUSH1 0xFF AND ISZERO PUSH2 0x10CC JUMPI PUSH1 0x0 DUP3 DUP2 MSTORE PUSH1 0x1 PUSH1 0x20 SWAP1 DUP2 MSTORE PUSH1 0x40 DUP1 DUP4 KECCAK256 PUSH1 0x1 PUSH1 0x1 PUSH1 0xA0 SHL SUB DUP6 AND DUP1 DUP6 MSTORE SWAP3 MSTORE DUP1 DUP4 KECCAK256 DUP1 SLOAD PUSH1 0xFF NOT AND SWAP1 SSTORE MLOAD CALLER SWAP3 DUP6 SWAP2 PUSH32 0xF6391F5C32D9C69D2A47EA670B442974B53935D1EDC7FD64EB21E047A839171B SWAP2 SWAP1 LOG4 POP POP JUMP JUMPDEST PUSH1 0x18 SLOAD PUSH1 0xFF AND PUSH2 0x27DA JUMPI PUSH1 0x40 MLOAD PUSH3 0x461BCD PUSH1 0xE5 SHL DUP2 MSTORE PUSH1 0x20 PUSH1 0x4 DUP3 ADD MSTORE PUSH1 0x14 PUSH1 0x24 DUP3 ADD MSTORE PUSH32 0x5061757361626C653A206E6F7420706175736564000000000000000000000000 PUSH1 0x44 DUP3 ADD MSTORE PUSH1 0x64 ADD PUSH2 0xB21 JUMP JUMPDEST PUSH1 0x18 DUP1 SLOAD PUSH1 0xFF NOT AND SWAP1 SSTORE PUSH1 0x40 DUP1 MLOAD CALLER DUP2 MSTORE SWAP1 MLOAD PUSH32 0x5DB9EE0A495BF2E6FF9C91A7834C1BA4FDD244A5E8AA4E537BD38AEAE4B073AA SWAP2 DUP2 SWAP1 SUB PUSH1 0x20 ADD SWAP1 LOG1 JUMP JUMPDEST PUSH2 0x2822 DUP6 PUSH2 0x2E07 JUMP JUMPDEST DUP1 ISZERO PUSH2 0x2832 JUMPI POP PUSH2 0x2832 DUP5 PUSH2 0x2E07 JUMP JUMPDEST PUSH2 0x2874 JUMPI PUSH1 0x40 MLOAD PUSH3 0x461BCD PUSH1 0xE5 SHL DUP2 MSTORE PUSH1 0x20 PUSH1 0x4 DUP3 ADD MSTORE PUSH1 0x13 PUSH1 0x24 DUP3 ADD MSTORE PUSH19 0x2AB730BABA3437B934BD32B2102830B93A3C97 PUSH1 0x69 SHL PUSH1 0x44 DUP3 ADD MSTORE PUSH1 0x64 ADD PUSH2 0xB21 JUMP JUMPDEST PUSH1 0x1 PUSH1 0x1 PUSH1 0xA0 SHL SUB DUP5 AND PUSH1 0x0 SWAP1 DUP2 MSTORE PUSH1 0xF PUSH1 0x20 SWAP1 DUP2 MSTORE PUSH1 0x40 DUP1 DUP4 KECCAK256 DUP10 DUP5 MSTORE SWAP1 SWAP2 MSTORE SWAP1 KECCAK256 SLOAD DUP4 GT ISZERO PUSH2 0x28CC JUMPI PUSH1 0x40 MLOAD PUSH3 0x461BCD PUSH1 0xE5 SHL DUP2 MSTORE PUSH1 0x20 PUSH1 0x4 DUP3 ADD MSTORE PUSH1 0x2 PUSH1 0x24 DUP3 ADD MSTORE PUSH2 0x1A99 PUSH1 0xF1 SHL PUSH1 0x44 DUP3 ADD MSTORE PUSH1 0x64 ADD PUSH2 0xB21 JUMP JUMPDEST PUSH2 0x28D7 DUP5 DUP8 DUP6 PUSH2 0x2FD6 JUMP JUMPDEST PUSH2 0x28E3 DUP6 DUP6 DUP6 DUP6 PUSH2 0x32B2 JUMP JUMPDEST DUP4 PUSH1 0x1 PUSH1 0x1 PUSH1 0xA0 SHL SUB AND DUP6 PUSH1 0x1 PUSH1 0x1 PUSH1 0xA0 SHL SUB AND DUP8 PUSH32 0xCE306C3DBC4A497124B5A4F2BE8388B41084C1D74663DA27ECEE1186C00239BF DUP7 DUP6 PUSH1 0x40 MLOAD PUSH2 0x2929 SWAP3 SWAP2 SWAP1 PUSH2 0x4410 JUMP JUMPDEST PUSH1 0x40 MLOAD DUP1 SWAP2 SUB SWAP1 LOG4 POP POP POP POP POP POP JUMP JUMPDEST PUSH2 0x2963 PUSH32 0xAB727555E1A579CA2F00D4F6682BEDE92E5E46E287E8B1A6F243044C1EC5B7AC DUP3 PUSH2 0x1BE1 JUMP JUMPDEST PUSH1 0x40 MLOAD PUSH1 0x1 PUSH1 0x1 PUSH1 0xA0 SHL SUB DUP3 AND SWAP1 PUSH32 0xA6F3B3030DF964D974376BA4DB21CBE49207BD79998F0D619C1C3A422259707F SWAP1 PUSH1 0x0 SWAP1 LOG2 POP JUMP JUMPDEST PUSH2 0x29A3 DUP5 PUSH2 0x2E07 JUMP JUMPDEST DUP1 ISZERO PUSH2 0x29B3 JUMPI POP PUSH2 0x29B3 DUP4 PUSH2 0x2E07 JUMP JUMPDEST PUSH2 0x29F5 JUMPI PUSH1 0x40 MLOAD PUSH3 0x461BCD PUSH1 0xE5 SHL DUP2 MSTORE PUSH1 0x20 PUSH1 0x4 DUP3 ADD MSTORE PUSH1 0x13 PUSH1 0x24 DUP3 ADD MSTORE PUSH19 0x2AB730BABA3437B934BD32B2102830B93A3C97 PUSH1 0x69 SHL PUSH1 0x44 DUP3 ADD MSTORE PUSH1 0x64 ADD PUSH2 0xB21 JUMP JUMPDEST PUSH2 0x2A01 DUP5 DUP5 DUP5 DUP5 PUSH2 0x34EB JUMP JUMPDEST PUSH2 0x2A0C DUP4 DUP7 DUP5 PUSH2 0x36C0 JUMP JUMPDEST DUP3 PUSH1 0x1 PUSH1 0x1 PUSH1 0xA0 SHL SUB AND DUP5 PUSH1 0x1 PUSH1 0x1 PUSH1 0xA0 SHL SUB AND DUP7 PUSH32 0xF0DED82AFBB1BB3FF3FC48CB2A26584AA84E4AF0BF309C804ECDB94D0F6A98BB DUP6 DUP6 PUSH1 0x40 MLOAD PUSH2 0x2A52 SWAP3 SWAP2 SWAP1 PUSH2 0x4429 JUMP JUMPDEST PUSH1 0x40 MLOAD DUP1 SWAP2 SUB SWAP1 LOG4 POP POP POP POP POP JUMP JUMPDEST PUSH1 0x0 PUSH2 0x2A6D DUP4 DUP4 PUSH2 0x2398 JUMP JUMPDEST DUP1 PUSH2 0x2AA5 JUMPI POP PUSH1 0x1 PUSH1 0x1 PUSH1 0xA0 SHL SUB DUP1 DUP4 AND PUSH1 0x0 SWAP1 DUP2 MSTORE PUSH1 0x15 PUSH1 0x20 SWAP1 DUP2 MSTORE PUSH1 0x40 DUP1 DUP4 KECCAK256 DUP9 DUP5 MSTORE DUP3 MSTORE DUP1 DUP4 KECCAK256 SWAP4 DUP8 AND DUP4 MSTORE SWAP3 SWAP1 MSTORE KECCAK256 SLOAD PUSH1 0xFF AND JUMPDEST DUP1 PUSH2 0x12D1 JUMPI POP PUSH1 0x6 SLOAD PUSH1 0x1 PUSH1 0xA8 SHL SWAP1 DIV PUSH1 0xFF AND DUP1 ISZERO PUSH2 0x12D1 JUMPI POP POP POP PUSH1 0x0 SWAP2 DUP3 MSTORE PUSH1 0x17 PUSH1 0x20 SWAP1 DUP2 MSTORE PUSH1 0x40 DUP1 DUP5 KECCAK256 PUSH1 0x1 PUSH1 0x1 PUSH1 0xA0 SHL SUB SWAP4 SWAP1 SWAP4 AND DUP5 MSTORE SWAP2 SWAP1 MSTORE SWAP1 KECCAK256 SLOAD PUSH1 0xFF AND SWAP1 JUMP JUMPDEST PUSH1 0x0 DUP1 SLOAD PUSH1 0x1 PUSH1 0x1 PUSH1 0xA0 SHL SUB DUP4 DUP2 AND PUSH20 0xFFFFFFFFFFFFFFFFFFFFFFFFFFFFFFFFFFFFFFFF NOT DUP4 AND DUP2 OR DUP5 SSTORE PUSH1 0x40 MLOAD SWAP2 SWAP1 SWAP3 AND SWAP3 DUP4 SWAP2 PUSH32 0x8BE0079C531659141344CD1FD0A4F28419497F9722A3DAAFE3B4186F6B6457E0 SWAP2 SWAP1 LOG3 POP POP JUMP JUMPDEST PUSH1 0x0 PUSH2 0x2B5A DUP9 DUP9 DUP9 DUP9 DUP9 DUP9 DUP9 PUSH2 0x37FE JUMP JUMPDEST POP PUSH1 0x18 SLOAD PUSH1 0xFF AND ISZERO PUSH2 0x2BD4 JUMPI PUSH1 0x40 MLOAD PUSH3 0x461BCD PUSH1 0xE5 SHL DUP2 MSTORE PUSH1 0x20 PUSH1 0x4 DUP3 ADD MSTORE PUSH1 0x2C PUSH1 0x24 DUP3 ADD MSTORE PUSH32 0x455243313430305061757361626C653A20746F6B656E207472616E7366657220 PUSH1 0x44 DUP3 ADD MSTORE PUSH32 0x7768696C65207061757365640000000000000000000000000000000000000000 PUSH1 0x64 DUP3 ADD MSTORE PUSH1 0x84 ADD PUSH2 0xB21 JUMP JUMPDEST SWAP8 SWAP7 POP POP POP POP POP POP POP JUMP JUMPDEST PUSH2 0x2BE8 DUP5 PUSH2 0x2E07 JUMP JUMPDEST DUP1 ISZERO PUSH2 0x2BF8 JUMPI POP PUSH2 0x2BF8 DUP4 PUSH2 0x2E07 JUMP JUMPDEST PUSH2 0x2C3A JUMPI PUSH1 0x40 MLOAD PUSH3 0x461BCD PUSH1 0xE5 SHL DUP2 MSTORE PUSH1 0x20 PUSH1 0x4 DUP3 ADD MSTORE PUSH1 0x13 PUSH1 0x24 DUP3 ADD MSTORE PUSH19 0x2AB730BABA3437B934BD32B2102830B93A3C97 PUSH1 0x69 SHL PUSH1 0x44 DUP3 ADD MSTORE PUSH1 0x64 ADD PUSH2 0xB21 JUMP JUMPDEST PUSH1 0x10 SLOAD PUSH2 0x2C6E JUMPI PUSH1 0x40 MLOAD PUSH3 0x461BCD PUSH1 0xE5 SHL DUP2 MSTORE PUSH1 0x20 PUSH1 0x4 DUP3 ADD MSTORE PUSH1 0x2 PUSH1 0x24 DUP3 ADD MSTORE PUSH2 0x3535 PUSH1 0xF0 SHL PUSH1 0x44 DUP3 ADD MSTORE PUSH1 0x64 ADD PUSH2 0xB21 JUMP JUMPDEST DUP2 PUSH1 0x0 DUP1 JUMPDEST PUSH1 0x10 SLOAD DUP2 LT ISZERO PUSH2 0x2D6A JUMPI PUSH1 0x1 PUSH1 0x1 PUSH1 0xA0 SHL SUB DUP7 AND PUSH1 0x0 SWAP1 DUP2 MSTORE PUSH1 0xF PUSH1 0x20 MSTORE PUSH1 0x40 DUP2 KECCAK256 PUSH1 0x10 DUP1 SLOAD SWAP2 SWAP3 SWAP2 DUP5 SWAP1 DUP2 LT PUSH2 0x2CAC JUMPI PUSH2 0x2CAC PUSH2 0x457B JUMP JUMPDEST SWAP1 PUSH1 0x0 MSTORE PUSH1 0x20 PUSH1 0x0 KECCAK256 ADD SLOAD DUP2 MSTORE PUSH1 0x20 ADD SWAP1 DUP2 MSTORE PUSH1 0x20 ADD PUSH1 0x0 KECCAK256 SLOAD SWAP2 POP DUP2 DUP4 GT PUSH2 0x2D12 JUMPI PUSH2 0x2D09 PUSH1 0x10 DUP3 DUP2 SLOAD DUP2 LT PUSH2 0x2CE5 JUMPI PUSH2 0x2CE5 PUSH2 0x457B JUMP JUMPDEST SWAP1 PUSH1 0x0 MSTORE PUSH1 0x20 PUSH1 0x0 KECCAK256 ADD SLOAD DUP9 DUP9 DUP7 DUP9 PUSH1 0x40 MLOAD DUP1 PUSH1 0x20 ADD PUSH1 0x40 MSTORE DUP1 PUSH1 0x0 DUP2 MSTORE POP PUSH2 0x2819 JUMP JUMPDEST PUSH1 0x0 SWAP3 POP PUSH2 0x2D6A JUMP JUMPDEST PUSH2 0x2D4C PUSH1 0x10 DUP3 DUP2 SLOAD DUP2 LT PUSH2 0x2D28 JUMPI PUSH2 0x2D28 PUSH2 0x457B JUMP JUMPDEST SWAP1 PUSH1 0x0 MSTORE PUSH1 0x20 PUSH1 0x0 KECCAK256 ADD SLOAD DUP9 DUP9 DUP6 DUP9 PUSH1 0x40 MLOAD DUP1 PUSH1 0x20 ADD PUSH1 0x40 MSTORE DUP1 PUSH1 0x0 DUP2 MSTORE POP PUSH2 0x2819 JUMP JUMPDEST PUSH2 0x2D56 DUP3 DUP5 PUSH2 0x44B5 JUMP JUMPDEST SWAP3 POP DUP1 PUSH2 0x2D62 DUP2 PUSH2 0x454A JUMP JUMPDEST SWAP2 POP POP PUSH2 0x2C73 JUMP JUMPDEST POP DUP2 ISZERO PUSH2 0x2D9E JUMPI PUSH1 0x40 MLOAD PUSH3 0x461BCD PUSH1 0xE5 SHL DUP2 MSTORE PUSH1 0x20 PUSH1 0x4 DUP3 ADD MSTORE PUSH1 0x2 PUSH1 0x24 DUP3 ADD MSTORE PUSH2 0x1A99 PUSH1 0xF1 SHL PUSH1 0x44 DUP3 ADD MSTORE PUSH1 0x64 ADD PUSH2 0xB21 JUMP JUMPDEST POP POP POP POP POP POP JUMP JUMPDEST PUSH2 0x2DD0 PUSH32 0x6E58AD548D72B425EA94C15F453BF26CADDB061D82B2551DB7FDD3CEFE0E9940 DUP3 PUSH2 0xFCF JUMP JUMPDEST PUSH1 0x40 MLOAD PUSH1 0x1 PUSH1 0x1 PUSH1 0xA0 SHL SUB DUP3 AND SWAP1 PUSH32 0x6AE172837EA30B801FBFCDD4108AA1D5BF8FF775444FD70256B44E6BF3DFC3F6 SWAP1 PUSH1 0x0 SWAP1 LOG2 POP JUMP JUMPDEST PUSH1 0x6 SLOAD PUSH1 0x40 MLOAD PUSH4 0x1FD3F77 PUSH1 0xE7 SHL DUP2 MSTORE PUSH1 0x1 PUSH1 0x1 PUSH1 0xA0 SHL SUB DUP4 DUP2 AND PUSH1 0x4 DUP4 ADD MSTORE PUSH1 0x0 SWAP3 PUSH2 0x100 SWAP1 DIV AND SWAP1 DUP2 SWAP1 PUSH4 0xFE9FBB80 SWAP1 PUSH1 0x24 ADD PUSH1 0x20 PUSH1 0x40 MLOAD DUP1 DUP4 SUB DUP2 DUP7 DUP1 EXTCODESIZE ISZERO DUP1 ISZERO PUSH2 0x2E54 JUMPI PUSH1 0x0 DUP1 REVERT JUMPDEST POP GAS STATICCALL ISZERO DUP1 ISZERO PUSH2 0x2E68 JUMPI RETURNDATASIZE PUSH1 0x0 DUP1 RETURNDATACOPY RETURNDATASIZE PUSH1 0x0 REVERT JUMPDEST POP POP POP POP PUSH1 0x40 MLOAD RETURNDATASIZE PUSH1 0x1F NOT PUSH1 0x1F DUP3 ADD AND DUP3 ADD DUP1 PUSH1 0x40 MSTORE POP DUP2 ADD SWAP1 PUSH2 0x199F SWAP2 SWAP1 PUSH2 0x3F68 JUMP JUMPDEST PUSH2 0x2EB6 PUSH32 0xAB727555E1A579CA2F00D4F6682BEDE92E5E46E287E8B1A6F243044C1EC5B7AC DUP3 PUSH2 0xFCF JUMP JUMPDEST PUSH1 0x40 MLOAD PUSH1 0x1 PUSH1 0x1 PUSH1 0xA0 SHL SUB DUP3 AND SWAP1 PUSH32 0x3D78526F2568D430FD8E20719601F7BC3F979936F8880236CC284E8127251B42 SWAP1 PUSH1 0x0 SWAP1 LOG2 POP JUMP JUMPDEST PUSH1 0x0 JUMPDEST PUSH1 0x12 SLOAD DUP2 LT ISZERO PUSH2 0x2F59 JUMPI PUSH1 0x0 PUSH1 0x13 PUSH1 0x0 PUSH1 0x12 DUP5 DUP2 SLOAD DUP2 LT PUSH2 0x2F13 JUMPI PUSH2 0x2F13 PUSH2 0x457B JUMP JUMPDEST PUSH1 0x0 SWAP2 DUP3 MSTORE PUSH1 0x20 DUP1 DUP4 KECCAK256 SWAP2 SWAP1 SWAP2 ADD SLOAD PUSH1 0x1 PUSH1 0x1 PUSH1 0xA0 SHL SUB AND DUP4 MSTORE DUP3 ADD SWAP3 SWAP1 SWAP3 MSTORE PUSH1 0x40 ADD SWAP1 KECCAK256 DUP1 SLOAD PUSH1 0xFF NOT AND SWAP2 ISZERO ISZERO SWAP2 SWAP1 SWAP2 OR SWAP1 SSTORE DUP1 PUSH2 0x2F51 DUP2 PUSH2 0x454A JUMP JUMPDEST SWAP2 POP POP PUSH2 0x2EF0 JUMP JUMPDEST POP PUSH1 0x0 JUMPDEST DUP2 MLOAD DUP2 LT ISZERO PUSH2 0x2FC2 JUMPI PUSH1 0x1 PUSH1 0x13 PUSH1 0x0 DUP5 DUP5 DUP2 MLOAD DUP2 LT PUSH2 0x2F7E JUMPI PUSH2 0x2F7E PUSH2 0x457B JUMP JUMPDEST PUSH1 0x20 SWAP1 DUP2 MUL SWAP2 SWAP1 SWAP2 ADD DUP2 ADD MLOAD PUSH1 0x1 PUSH1 0x1 PUSH1 0xA0 SHL SUB AND DUP3 MSTORE DUP2 ADD SWAP2 SWAP1 SWAP2 MSTORE PUSH1 0x40 ADD PUSH1 0x0 KECCAK256 DUP1 SLOAD PUSH1 0xFF NOT AND SWAP2 ISZERO ISZERO SWAP2 SWAP1 SWAP2 OR SWAP1 SSTORE DUP1 PUSH2 0x2FBA DUP2 PUSH2 0x454A JUMP JUMPDEST SWAP2 POP POP PUSH2 0x2F5D JUMP JUMPDEST POP DUP1 MLOAD PUSH2 0x10CC SWAP1 PUSH1 0x12 SWAP1 PUSH1 0x20 DUP5 ADD SWAP1 PUSH2 0x3C88 JUMP JUMPDEST PUSH1 0x1 PUSH1 0x1 PUSH1 0xA0 SHL SUB DUP4 AND PUSH1 0x0 SWAP1 DUP2 MSTORE PUSH1 0xF PUSH1 0x20 SWAP1 DUP2 MSTORE PUSH1 0x40 DUP1 DUP4 KECCAK256 DUP6 DUP5 MSTORE SWAP1 SWAP2 MSTORE SWAP1 KECCAK256 SLOAD PUSH2 0x3004 SWAP1 DUP3 PUSH2 0x2419 JUMP JUMPDEST PUSH1 0x1 PUSH1 0x1 PUSH1 0xA0 SHL SUB DUP5 AND PUSH1 0x0 SWAP1 DUP2 MSTORE PUSH1 0xF PUSH1 0x20 SWAP1 DUP2 MSTORE PUSH1 0x40 DUP1 DUP4 KECCAK256 DUP7 DUP5 MSTORE DUP3 MSTORE DUP1 DUP4 KECCAK256 SWAP4 SWAP1 SWAP4 SSTORE PUSH1 0xC SWAP1 MSTORE KECCAK256 SLOAD PUSH2 0x303B SWAP1 DUP3 PUSH2 0x2419 JUMP JUMPDEST PUSH1 0x0 DUP4 DUP2 MSTORE PUSH1 0xC PUSH1 0x20 MSTORE PUSH1 0x40 SWAP1 KECCAK256 DUP2 SWAP1 SSTORE PUSH2 0x3137 JUMPI PUSH1 0x0 DUP3 DUP2 MSTORE PUSH1 0xB PUSH1 0x20 MSTORE PUSH1 0x40 SWAP1 KECCAK256 SLOAD DUP1 PUSH2 0x3091 JUMPI PUSH1 0x40 MLOAD PUSH3 0x461BCD PUSH1 0xE5 SHL DUP2 MSTORE PUSH1 0x20 PUSH1 0x4 DUP3 ADD MSTORE PUSH1 0x2 PUSH1 0x24 DUP3 ADD MSTORE PUSH2 0x353 PUSH1 0xF4 SHL PUSH1 0x44 DUP3 ADD MSTORE PUSH1 0x64 ADD PUSH2 0xB21 JUMP JUMPDEST PUSH1 0xA DUP1 SLOAD PUSH1 0x0 SWAP2 SWAP1 PUSH2 0x30A5 SWAP1 PUSH1 0x1 SWAP1 PUSH2 0x44B5 JUMP JUMPDEST DUP2 SLOAD DUP2 LT PUSH2 0x30B5 JUMPI PUSH2 0x30B5 PUSH2 0x457B JUMP JUMPDEST SWAP1 PUSH1 0x0 MSTORE PUSH1 0x20 PUSH1 0x0 KECCAK256 ADD SLOAD SWAP1 POP DUP1 PUSH1 0xA PUSH1 0x1 DUP5 PUSH2 0x30D2 SWAP2 SWAP1 PUSH2 0x44B5 JUMP JUMPDEST DUP2 SLOAD DUP2 LT PUSH2 0x30E2 JUMPI PUSH2 0x30E2 PUSH2 0x457B JUMP JUMPDEST PUSH1 0x0 SWAP2 DUP3 MSTORE PUSH1 0x20 SWAP1 SWAP2 KECCAK256 ADD SSTORE PUSH1 0xA DUP1 SLOAD PUSH2 0x30FE SWAP1 PUSH1 0x1 SWAP1 PUSH2 0x44B5 JUMP JUMPDEST DUP2 SLOAD DUP2 LT PUSH2 0x310E JUMPI PUSH2 0x310E PUSH2 0x457B JUMP JUMPDEST PUSH1 0x0 SWAP2 DUP3 MSTORE PUSH1 0x20 DUP1 DUP4 KECCAK256 SWAP1 SWAP2 ADD DUP3 SWAP1 SSTORE SWAP2 DUP2 MSTORE PUSH1 0xB SWAP1 SWAP2 MSTORE PUSH1 0x40 DUP1 DUP3 KECCAK256 SWAP3 SWAP1 SWAP3 SSTORE DUP4 DUP2 MSTORE SWAP1 DUP2 KECCAK256 SSTORE JUMPDEST PUSH1 0x1 PUSH1 0x1 PUSH1 0xA0 SHL SUB DUP4 AND PUSH1 0x0 SWAP1 DUP2 MSTORE PUSH1 0xF PUSH1 0x20 SWAP1 DUP2 MSTORE PUSH1 0x40 DUP1 DUP4 KECCAK256 DUP6 DUP5 MSTORE SWAP1 SWAP2 MSTORE SWAP1 KECCAK256 SLOAD PUSH2 0xE4A JUMPI PUSH1 0x1 PUSH1 0x1 PUSH1 0xA0 SHL SUB DUP4 AND PUSH1 0x0 SWAP1 DUP2 MSTORE PUSH1 0xE PUSH1 0x20 SWAP1 DUP2 MSTORE PUSH1 0x40 DUP1 DUP4 KECCAK256 DUP6 DUP5 MSTORE SWAP1 SWAP2 MSTORE SWAP1 KECCAK256 SLOAD DUP1 PUSH2 0x31B5 JUMPI PUSH1 0x40 MLOAD PUSH3 0x461BCD PUSH1 0xE5 SHL DUP2 MSTORE PUSH1 0x20 PUSH1 0x4 DUP3 ADD MSTORE PUSH1 0x2 PUSH1 0x24 DUP3 ADD MSTORE PUSH2 0x353 PUSH1 0xF4 SHL PUSH1 0x44 DUP3 ADD MSTORE PUSH1 0x64 ADD PUSH2 0xB21 JUMP JUMPDEST PUSH1 0x1 PUSH1 0x1 PUSH1 0xA0 SHL SUB DUP5 AND PUSH1 0x0 SWAP1 DUP2 MSTORE PUSH1 0xD PUSH1 0x20 MSTORE PUSH1 0x40 DUP2 KECCAK256 DUP1 SLOAD PUSH2 0x31DB SWAP1 PUSH1 0x1 SWAP1 PUSH2 0x44B5 JUMP JUMPDEST DUP2 SLOAD DUP2 LT PUSH2 0x31EB JUMPI PUSH2 0x31EB PUSH2 0x457B JUMP JUMPDEST PUSH1 0x0 SWAP2 DUP3 MSTORE PUSH1 0x20 DUP1 DUP4 KECCAK256 SWAP1 SWAP2 ADD SLOAD PUSH1 0x1 PUSH1 0x1 PUSH1 0xA0 SHL SUB DUP9 AND DUP4 MSTORE PUSH1 0xD SWAP1 SWAP2 MSTORE PUSH1 0x40 SWAP1 SWAP2 KECCAK256 SWAP1 SWAP2 POP DUP2 SWAP1 PUSH2 0x321F PUSH1 0x1 DUP6 PUSH2 0x44B5 JUMP JUMPDEST DUP2 SLOAD DUP2 LT PUSH2 0x322F JUMPI PUSH2 0x322F PUSH2 0x457B JUMP JUMPDEST PUSH1 0x0 SWAP2 DUP3 MSTORE PUSH1 0x20 DUP1 DUP4 KECCAK256 SWAP1 SWAP2 ADD SWAP3 SWAP1 SWAP3 SSTORE PUSH1 0x1 PUSH1 0x1 PUSH1 0xA0 SHL SUB DUP8 AND DUP2 MSTORE PUSH1 0xD SWAP1 SWAP2 MSTORE PUSH1 0x40 SWAP1 KECCAK256 DUP1 SLOAD PUSH2 0x3263 SWAP1 PUSH1 0x1 SWAP1 PUSH2 0x44B5 JUMP JUMPDEST DUP2 SLOAD DUP2 LT PUSH2 0x3273 JUMPI PUSH2 0x3273 PUSH2 0x457B JUMP JUMPDEST PUSH1 0x0 SWAP2 DUP3 MSTORE PUSH1 0x20 DUP1 DUP4 KECCAK256 SWAP2 SWAP1 SWAP2 ADD DUP3 SWAP1 SSTORE PUSH1 0x1 PUSH1 0x1 PUSH1 0xA0 SHL SUB SWAP7 SWAP1 SWAP7 AND DUP2 MSTORE PUSH1 0xE DUP7 MSTORE PUSH1 0x40 DUP1 DUP3 KECCAK256 SWAP3 DUP3 MSTORE SWAP2 SWAP1 SWAP6 MSTORE DUP1 DUP6 KECCAK256 SWAP2 SWAP1 SWAP2 SSTORE SWAP2 DUP4 MSTORE POP DUP2 KECCAK256 SSTORE JUMP JUMPDEST PUSH1 0x6 SLOAD PUSH1 0xFF AND ISZERO PUSH2 0x32EA JUMPI PUSH1 0x40 MLOAD PUSH3 0x461BCD PUSH1 0xE5 SHL DUP2 MSTORE PUSH1 0x20 PUSH1 0x4 DUP3 ADD MSTORE PUSH1 0x2 PUSH1 0x24 DUP3 ADD MSTORE PUSH2 0xD4D PUSH1 0xF2 SHL PUSH1 0x44 DUP3 ADD MSTORE PUSH1 0x64 ADD PUSH2 0xB21 JUMP JUMPDEST PUSH2 0x32F3 DUP5 PUSH2 0x2E07 JUMP JUMPDEST DUP1 ISZERO PUSH2 0x3303 JUMPI POP PUSH2 0x3303 DUP4 PUSH2 0x2E07 JUMP JUMPDEST PUSH2 0x3345 JUMPI PUSH1 0x40 MLOAD PUSH3 0x461BCD PUSH1 0xE5 SHL DUP2 MSTORE PUSH1 0x20 PUSH1 0x4 DUP3 ADD MSTORE PUSH1 0x13 PUSH1 0x24 DUP3 ADD MSTORE PUSH19 0x2AB730BABA3437B934BD32B2102830B93A3C97 PUSH1 0x69 SHL PUSH1 0x44 DUP3 ADD MSTORE PUSH1 0x64 ADD PUSH2 0xB21 JUMP JUMPDEST PUSH2 0x334E DUP3 PUSH2 0x39A9 JUMP JUMPDEST PUSH2 0x337F JUMPI PUSH1 0x40 MLOAD PUSH3 0x461BCD PUSH1 0xE5 SHL DUP2 MSTORE PUSH1 0x20 PUSH1 0x4 DUP3 ADD MSTORE PUSH1 0x2 PUSH1 0x24 DUP3 ADD MSTORE PUSH2 0x353 PUSH1 0xF4 SHL PUSH1 0x44 DUP3 ADD MSTORE PUSH1 0x64 ADD PUSH2 0xB21 JUMP JUMPDEST PUSH1 0x1 PUSH1 0x1 PUSH1 0xA0 SHL SUB DUP4 AND PUSH2 0x33BA JUMPI PUSH1 0x40 MLOAD PUSH3 0x461BCD PUSH1 0xE5 SHL DUP2 MSTORE PUSH1 0x20 PUSH1 0x4 DUP3 ADD MSTORE PUSH1 0x2 PUSH1 0x24 DUP3 ADD MSTORE PUSH2 0x1A9B PUSH1 0xF1 SHL PUSH1 0x44 DUP3 ADD MSTORE PUSH1 0x64 ADD PUSH2 0xB21 JUMP JUMPDEST PUSH1 0x1 PUSH1 0x1 PUSH1 0xA0 SHL SUB DUP4 AND PUSH1 0x0 SWAP1 DUP2 MSTORE PUSH1 0x7 PUSH1 0x20 MSTORE PUSH1 0x40 SWAP1 KECCAK256 SLOAD DUP3 GT ISZERO PUSH2 0x3407 JUMPI PUSH1 0x40 MLOAD PUSH3 0x461BCD PUSH1 0xE5 SHL DUP2 MSTORE PUSH1 0x20 PUSH1 0x4 DUP3 ADD MSTORE PUSH1 0x2 PUSH1 0x24 DUP3 ADD MSTORE PUSH2 0x1A99 PUSH1 0xF1 SHL PUSH1 0x44 DUP3 ADD MSTORE PUSH1 0x64 ADD PUSH2 0xB21 JUMP JUMPDEST PUSH1 0x1 PUSH1 0x1 PUSH1 0xA0 SHL SUB DUP4 AND PUSH1 0x0 SWAP1 DUP2 MSTORE PUSH1 0x7 PUSH1 0x20 MSTORE PUSH1 0x40 SWAP1 KECCAK256 SLOAD PUSH2 0x342A SWAP1 DUP4 PUSH2 0x2419 JUMP JUMPDEST PUSH1 0x1 PUSH1 0x1 PUSH1 0xA0 SHL SUB DUP5 AND PUSH1 0x0 SWAP1 DUP2 MSTORE PUSH1 0x7 PUSH1 0x20 MSTORE PUSH1 0x40 SWAP1 KECCAK256 SSTORE PUSH1 0x5 SLOAD PUSH2 0x3450 SWAP1 DUP4 PUSH2 0x2419 JUMP JUMPDEST PUSH1 0x5 DUP2 SWAP1 SSTORE POP DUP3 PUSH1 0x1 PUSH1 0x1 PUSH1 0xA0 SHL SUB AND DUP5 PUSH1 0x1 PUSH1 0x1 PUSH1 0xA0 SHL SUB AND PUSH32 0xB7D0D6B60740753E9F16692A2F479472A1385AEC2420FA43225B02F2FFA1AFE7 DUP5 DUP5 PUSH1 0x40 MLOAD PUSH2 0x349B SWAP3 SWAP2 SWAP1 PUSH2 0x4410 JUMP JUMPDEST PUSH1 0x40 MLOAD DUP1 SWAP2 SUB SWAP1 LOG3 PUSH1 0x40 MLOAD DUP3 DUP2 MSTORE PUSH1 0x0 SWAP1 PUSH1 0x1 PUSH1 0x1 PUSH1 0xA0 SHL SUB DUP6 AND SWAP1 PUSH32 0xDDF252AD1BE2C89B69C2B068FC378DAA952BA7F163C4A11628F55A4DF523B3EF SWAP1 PUSH1 0x20 ADD JUMPDEST PUSH1 0x40 MLOAD DUP1 SWAP2 SUB SWAP1 LOG3 POP POP POP POP JUMP JUMPDEST PUSH1 0x6 SLOAD PUSH1 0xFF AND ISZERO PUSH2 0x3523 JUMPI PUSH1 0x40 MLOAD PUSH3 0x461BCD PUSH1 0xE5 SHL DUP2 MSTORE PUSH1 0x20 PUSH1 0x4 DUP3 ADD MSTORE PUSH1 0x2 PUSH1 0x24 DUP3 ADD MSTORE PUSH2 0xD4D PUSH1 0xF2 SHL PUSH1 0x44 DUP3 ADD MSTORE PUSH1 0x64 ADD PUSH2 0xB21 JUMP JUMPDEST PUSH2 0x352C DUP5 PUSH2 0x2E07 JUMP JUMPDEST DUP1 ISZERO PUSH2 0x353C JUMPI POP PUSH2 0x353C DUP4 PUSH2 0x2E07 JUMP JUMPDEST PUSH2 0x357E JUMPI PUSH1 0x40 MLOAD PUSH3 0x461BCD PUSH1 0xE5 SHL DUP2 MSTORE PUSH1 0x20 PUSH1 0x4 DUP3 ADD MSTORE PUSH1 0x13 PUSH1 0x24 DUP3 ADD MSTORE PUSH19 0x2AB730BABA3437B934BD32B2102830B93A3C97 PUSH1 0x69 SHL PUSH1 0x44 DUP3 ADD MSTORE PUSH1 0x64 ADD PUSH2 0xB21 JUMP JUMPDEST PUSH2 0x3587 DUP3 PUSH2 0x39A9 JUMP JUMPDEST PUSH2 0x35B8 JUMPI PUSH1 0x40 MLOAD PUSH3 0x461BCD PUSH1 0xE5 SHL DUP2 MSTORE PUSH1 0x20 PUSH1 0x4 DUP3 ADD MSTORE PUSH1 0x2 PUSH1 0x24 DUP3 ADD MSTORE PUSH2 0x353 PUSH1 0xF4 SHL PUSH1 0x44 DUP3 ADD MSTORE PUSH1 0x64 ADD PUSH2 0xB21 JUMP JUMPDEST PUSH1 0x1 PUSH1 0x1 PUSH1 0xA0 SHL SUB DUP4 AND PUSH2 0x35F3 JUMPI PUSH1 0x40 MLOAD PUSH3 0x461BCD PUSH1 0xE5 SHL DUP2 MSTORE PUSH1 0x20 PUSH1 0x4 DUP3 ADD MSTORE PUSH1 0x2 PUSH1 0x24 DUP3 ADD MSTORE PUSH2 0x3537 PUSH1 0xF0 SHL PUSH1 0x44 DUP3 ADD MSTORE PUSH1 0x64 ADD PUSH2 0xB21 JUMP JUMPDEST PUSH1 0x5 SLOAD PUSH2 0x3600 SWAP1 DUP4 PUSH2 0x39CC JUMP JUMPDEST PUSH1 0x5 SSTORE PUSH1 0x1 PUSH1 0x1 PUSH1 0xA0 SHL SUB DUP4 AND PUSH1 0x0 SWAP1 DUP2 MSTORE PUSH1 0x7 PUSH1 0x20 MSTORE PUSH1 0x40 SWAP1 KECCAK256 SLOAD PUSH2 0x3626 SWAP1 DUP4 PUSH2 0x39CC JUMP JUMPDEST PUSH1 0x1 PUSH1 0x1 PUSH1 0xA0 SHL SUB DUP1 DUP6 AND PUSH1 0x0 DUP2 DUP2 MSTORE PUSH1 0x7 PUSH1 0x20 MSTORE PUSH1 0x40 SWAP1 DUP2 SWAP1 KECCAK256 SWAP4 SWAP1 SWAP4 SSTORE SWAP2 MLOAD SWAP1 DUP7 AND SWAP1 PUSH32 0xE9905D62635F049C2F4E11678EBF9DC3D1F8C4A653E290759B772E47BA00D00 SWAP1 PUSH2 0x367A SWAP1 DUP7 SWAP1 DUP7 SWAP1 PUSH2 0x4410 JUMP JUMPDEST PUSH1 0x40 MLOAD DUP1 SWAP2 SUB SWAP1 LOG3 PUSH1 0x40 MLOAD DUP3 DUP2 MSTORE PUSH1 0x1 PUSH1 0x1 PUSH1 0xA0 SHL SUB DUP5 AND SWAP1 PUSH1 0x0 SWAP1 PUSH32 0xDDF252AD1BE2C89B69C2B068FC378DAA952BA7F163C4A11628F55A4DF523B3EF SWAP1 PUSH1 0x20 ADD PUSH2 0x34DD JUMP JUMPDEST DUP1 ISZERO PUSH2 0xE4A JUMPI PUSH1 0x1 PUSH1 0x1 PUSH1 0xA0 SHL SUB DUP4 AND PUSH1 0x0 SWAP1 DUP2 MSTORE PUSH1 0xE PUSH1 0x20 SWAP1 DUP2 MSTORE PUSH1 0x40 DUP1 DUP4 KECCAK256 DUP6 DUP5 MSTORE SWAP1 SWAP2 MSTORE SWAP1 KECCAK256 SLOAD PUSH2 0x3732 JUMPI PUSH1 0x1 PUSH1 0x1 PUSH1 0xA0 SHL SUB DUP4 AND PUSH1 0x0 DUP2 DUP2 MSTORE PUSH1 0xD PUSH1 0x20 SWAP1 DUP2 MSTORE PUSH1 0x40 DUP1 DUP4 KECCAK256 DUP1 SLOAD PUSH1 0x1 DUP2 ADD DUP3 SSTORE DUP2 DUP6 MSTORE DUP4 DUP6 KECCAK256 ADD DUP8 SWAP1 SSTORE SWAP4 DUP4 MSTORE SWAP3 SLOAD PUSH1 0xE DUP3 MSTORE DUP4 DUP4 KECCAK256 DUP7 DUP5 MSTORE SWAP1 SWAP2 MSTORE SWAP2 SWAP1 KECCAK256 SSTORE JUMPDEST PUSH1 0x1 PUSH1 0x1 PUSH1 0xA0 SHL SUB DUP4 AND PUSH1 0x0 SWAP1 DUP2 MSTORE PUSH1 0xF PUSH1 0x20 SWAP1 DUP2 MSTORE PUSH1 0x40 DUP1 DUP4 KECCAK256 DUP6 DUP5 MSTORE SWAP1 SWAP2 MSTORE SWAP1 KECCAK256 SLOAD PUSH2 0x3760 SWAP1 DUP3 PUSH2 0x39CC JUMP JUMPDEST PUSH1 0x1 PUSH1 0x1 PUSH1 0xA0 SHL SUB DUP5 AND PUSH1 0x0 SWAP1 DUP2 MSTORE PUSH1 0xF PUSH1 0x20 SWAP1 DUP2 MSTORE PUSH1 0x40 DUP1 DUP4 KECCAK256 DUP7 DUP5 MSTORE DUP3 MSTORE DUP1 DUP4 KECCAK256 SWAP4 SWAP1 SWAP4 SSTORE PUSH1 0xB SWAP1 MSTORE KECCAK256 SLOAD PUSH2 0x37D1 JUMPI PUSH1 0xA DUP1 SLOAD PUSH1 0x1 DUP2 ADD DUP3 SSTORE PUSH32 0xC65A7BB8D6351C1CF70C95A316CC6A92839C986682D98BC35F958F4883F9D2A8 ADD DUP4 SWAP1 SSTORE SLOAD PUSH1 0x0 DUP4 DUP2 MSTORE PUSH1 0xB PUSH1 0x20 MSTORE PUSH1 0x40 SWAP1 KECCAK256 SSTORE JUMPDEST PUSH1 0x0 DUP3 DUP2 MSTORE PUSH1 0xC PUSH1 0x20 MSTORE PUSH1 0x40 SWAP1 KECCAK256 SLOAD PUSH2 0x37EA SWAP1 DUP3 PUSH2 0x39CC JUMP JUMPDEST PUSH1 0x0 DUP4 DUP2 MSTORE PUSH1 0xC PUSH1 0x20 MSTORE PUSH1 0x40 SWAP1 KECCAK256 SSTORE POP POP POP JUMP JUMPDEST PUSH1 0x1 PUSH1 0x1 PUSH1 0xA0 SHL SUB DUP6 AND PUSH1 0x0 SWAP1 DUP2 MSTORE PUSH1 0xF PUSH1 0x20 SWAP1 DUP2 MSTORE PUSH1 0x40 DUP1 DUP4 KECCAK256 DUP11 DUP5 MSTORE SWAP1 SWAP2 MSTORE DUP2 KECCAK256 SLOAD DUP5 GT ISZERO PUSH2 0x3856 JUMPI PUSH1 0x40 MLOAD PUSH3 0x461BCD PUSH1 0xE5 SHL DUP2 MSTORE PUSH1 0x20 PUSH1 0x4 DUP3 ADD MSTORE PUSH1 0x2 PUSH1 0x24 DUP3 ADD MSTORE PUSH2 0x1A99 PUSH1 0xF1 SHL PUSH1 0x44 DUP3 ADD MSTORE PUSH1 0x64 ADD PUSH2 0xB21 JUMP JUMPDEST PUSH2 0x385F DUP8 PUSH2 0x2E07 JUMP JUMPDEST DUP1 ISZERO PUSH2 0x386F JUMPI POP PUSH2 0x386F DUP7 PUSH2 0x2E07 JUMP JUMPDEST DUP1 ISZERO PUSH2 0x387F JUMPI POP PUSH2 0x387F DUP6 PUSH2 0x2E07 JUMP JUMPDEST PUSH2 0x38C1 JUMPI PUSH1 0x40 MLOAD PUSH3 0x461BCD PUSH1 0xE5 SHL DUP2 MSTORE PUSH1 0x20 PUSH1 0x4 DUP3 ADD MSTORE PUSH1 0x13 PUSH1 0x24 DUP3 ADD MSTORE PUSH19 0x2AB730BABA3437B934BD32B2102830B93A3C97 PUSH1 0x69 SHL PUSH1 0x44 DUP3 ADD MSTORE PUSH1 0x64 ADD PUSH2 0xB21 JUMP JUMPDEST DUP2 MLOAD DUP9 SWAP1 ISZERO DUP1 ISZERO SWAP1 PUSH2 0x38D5 JUMPI POP PUSH1 0x40 DUP5 MLOAD LT ISZERO JUMPDEST ISZERO PUSH2 0x38E7 JUMPI PUSH2 0x38E4 DUP10 DUP6 PUSH2 0x39D8 JUMP JUMPDEST SWAP1 POP JUMPDEST PUSH2 0x38F2 DUP8 DUP11 DUP8 PUSH2 0x2FD6 JUMP JUMPDEST PUSH2 0x38FD DUP8 DUP8 DUP8 PUSH2 0x3A04 JUMP JUMPDEST PUSH2 0x3908 DUP7 DUP3 DUP8 PUSH2 0x36C0 JUMP JUMPDEST DUP6 PUSH1 0x1 PUSH1 0x1 PUSH1 0xA0 SHL SUB AND DUP8 PUSH1 0x1 PUSH1 0x1 PUSH1 0xA0 SHL SUB AND DUP11 PUSH32 0xFF4E9A26AF4EB73B8BACFAA4ABD4FEA03D9448E7B912DC5FF4019048875AA2D4 DUP12 DUP10 DUP10 DUP10 PUSH1 0x40 MLOAD PUSH2 0x3952 SWAP5 SWAP4 SWAP3 SWAP2 SWAP1 PUSH2 0x42E3 JUMP JUMPDEST PUSH1 0x40 MLOAD DUP1 SWAP2 SUB SWAP1 LOG4 DUP9 DUP2 EQ PUSH2 0x399D JUMPI DUP1 DUP10 PUSH32 0x67C8BA31D2DD11F1384577B3405B04ED91EED1231E408432AD2458CAB37B2FA1 DUP8 PUSH1 0x40 MLOAD PUSH2 0x3994 SWAP2 DUP2 MSTORE PUSH1 0x20 ADD SWAP1 JUMP JUMPDEST PUSH1 0x40 MLOAD DUP1 SWAP2 SUB SWAP1 LOG3 JUMPDEST SWAP9 SWAP8 POP POP POP POP POP POP POP POP JUMP JUMPDEST PUSH1 0x4 SLOAD PUSH1 0x0 SWAP1 DUP3 SWAP1 PUSH2 0x39C5 SWAP1 PUSH2 0x39BF DUP4 DUP3 PUSH2 0x3BB1 JUMP JUMPDEST SWAP1 PUSH2 0x3BBD JUMP JUMPDEST EQ SWAP3 SWAP2 POP POP JUMP JUMPDEST PUSH1 0x0 PUSH2 0x199F DUP3 DUP5 PUSH2 0x445C JUMP JUMPDEST PUSH1 0x20 DUP2 ADD MLOAD PUSH1 0x0 SWAP1 PUSH1 0x0 NOT SWAP1 DUP1 DUP3 EQ ISZERO PUSH2 0x39F8 JUMPI PUSH1 0x40 DUP5 ADD MLOAD SWAP3 POP PUSH2 0x39FC JUMP JUMPDEST DUP5 SWAP3 POP JUMPDEST POP POP SWAP3 SWAP2 POP POP JUMP JUMPDEST PUSH1 0x6 SLOAD PUSH1 0xFF AND ISZERO PUSH2 0x3A3C JUMPI PUSH1 0x40 MLOAD PUSH3 0x461BCD PUSH1 0xE5 SHL DUP2 MSTORE PUSH1 0x20 PUSH1 0x4 DUP3 ADD MSTORE PUSH1 0x2 PUSH1 0x24 DUP3 ADD MSTORE PUSH2 0xD4D PUSH1 0xF2 SHL PUSH1 0x44 DUP3 ADD MSTORE PUSH1 0x64 ADD PUSH2 0xB21 JUMP JUMPDEST PUSH2 0x3A45 DUP2 PUSH2 0x39A9 JUMP JUMPDEST PUSH2 0x3A76 JUMPI PUSH1 0x40 MLOAD PUSH3 0x461BCD PUSH1 0xE5 SHL DUP2 MSTORE PUSH1 0x20 PUSH1 0x4 DUP3 ADD MSTORE PUSH1 0x2 PUSH1 0x24 DUP3 ADD MSTORE PUSH2 0x353 PUSH1 0xF4 SHL PUSH1 0x44 DUP3 ADD MSTORE PUSH1 0x64 ADD PUSH2 0xB21 JUMP JUMPDEST PUSH1 0x1 PUSH1 0x1 PUSH1 0xA0 SHL SUB DUP3 AND PUSH2 0x3AB1 JUMPI PUSH1 0x40 MLOAD PUSH3 0x461BCD PUSH1 0xE5 SHL DUP2 MSTORE PUSH1 0x20 PUSH1 0x4 DUP3 ADD MSTORE PUSH1 0x2 PUSH1 0x24 DUP3 ADD MSTORE PUSH2 0x3537 PUSH1 0xF0 SHL PUSH1 0x44 DUP3 ADD MSTORE PUSH1 0x64 ADD PUSH2 0xB21 JUMP JUMPDEST PUSH1 0x1 PUSH1 0x1 PUSH1 0xA0 SHL SUB DUP4 AND PUSH1 0x0 SWAP1 DUP2 MSTORE PUSH1 0x7 PUSH1 0x20 MSTORE PUSH1 0x40 SWAP1 KECCAK256 SLOAD DUP2 GT ISZERO PUSH2 0x3AFE JUMPI PUSH1 0x40 MLOAD PUSH3 0x461BCD PUSH1 0xE5 SHL DUP2 MSTORE PUSH1 0x20 PUSH1 0x4 DUP3 ADD MSTORE PUSH1 0x2 PUSH1 0x24 DUP3 ADD MSTORE PUSH2 0x1A99 PUSH1 0xF1 SHL PUSH1 0x44 DUP3 ADD MSTORE PUSH1 0x64 ADD PUSH2 0xB21 JUMP JUMPDEST PUSH1 0x1 PUSH1 0x1 PUSH1 0xA0 SHL SUB DUP4 AND PUSH1 0x0 SWAP1 DUP2 MSTORE PUSH1 0x7 PUSH1 0x20 MSTORE PUSH1 0x40 SWAP1 KECCAK256 SLOAD PUSH2 0x3B21 SWAP1 DUP3 PUSH2 0x2419 JUMP JUMPDEST PUSH1 0x1 PUSH1 0x1 PUSH1 0xA0 SHL SUB DUP1 DUP6 AND PUSH1 0x0 SWAP1 DUP2 MSTORE PUSH1 0x7 PUSH1 0x20 MSTORE PUSH1 0x40 DUP1 DUP3 KECCAK256 SWAP4 SWAP1 SWAP4 SSTORE SWAP1 DUP5 AND DUP2 MSTORE KECCAK256 SLOAD PUSH2 0x3B50 SWAP1 DUP3 PUSH2 0x39CC JUMP JUMPDEST PUSH1 0x1 PUSH1 0x1 PUSH1 0xA0 SHL SUB DUP1 DUP5 AND PUSH1 0x0 DUP2 DUP2 MSTORE PUSH1 0x7 PUSH1 0x20 MSTORE PUSH1 0x40 SWAP1 DUP2 SWAP1 KECCAK256 SWAP4 SWAP1 SWAP4 SSTORE SWAP2 MLOAD SWAP1 DUP6 AND SWAP1 PUSH32 0xDDF252AD1BE2C89B69C2B068FC378DAA952BA7F163C4A11628F55A4DF523B3EF SWAP1 PUSH2 0x3BA4 SWAP1 DUP6 DUP2 MSTORE PUSH1 0x20 ADD SWAP1 JUMP JUMPDEST PUSH1 0x40 MLOAD DUP1 SWAP2 SUB SWAP1 LOG3 POP POP POP JUMP JUMPDEST PUSH1 0x0 PUSH2 0x199F DUP3 DUP5 PUSH2 0x4474 JUMP JUMPDEST PUSH1 0x0 PUSH2 0x199F DUP3 DUP5 PUSH2 0x4496 JUMP JUMPDEST DUP3 DUP1 SLOAD PUSH2 0x3BD5 SWAP1 PUSH2 0x450F JUMP JUMPDEST SWAP1 PUSH1 0x0 MSTORE PUSH1 0x20 PUSH1 0x0 KECCAK256 SWAP1 PUSH1 0x1F ADD PUSH1 0x20 SWAP1 DIV DUP2 ADD SWAP3 DUP3 PUSH2 0x3BF7 JUMPI PUSH1 0x0 DUP6 SSTORE PUSH2 0x3C3D JUMP JUMPDEST DUP3 PUSH1 0x1F LT PUSH2 0x3C10 JUMPI DUP1 MLOAD PUSH1 0xFF NOT AND DUP4 DUP1 ADD OR DUP6 SSTORE PUSH2 0x3C3D JUMP JUMPDEST DUP3 DUP1 ADD PUSH1 0x1 ADD DUP6 SSTORE DUP3 ISZERO PUSH2 0x3C3D JUMPI SWAP2 DUP3 ADD JUMPDEST DUP3 DUP2 GT ISZERO PUSH2 0x3C3D JUMPI DUP3 MLOAD DUP3 SSTORE SWAP2 PUSH1 0x20 ADD SWAP2 SWAP1 PUSH1 0x1 ADD SWAP1 PUSH2 0x3C22 JUMP JUMPDEST POP PUSH2 0x3C49 SWAP3 SWAP2 POP PUSH2 0x3CEA JUMP JUMPDEST POP SWAP1 JUMP JUMPDEST DUP3 DUP1 SLOAD DUP3 DUP3 SSTORE SWAP1 PUSH1 0x0 MSTORE PUSH1 0x20 PUSH1 0x0 KECCAK256 SWAP1 DUP2 ADD SWAP3 DUP3 ISZERO PUSH2 0x3C3D JUMPI SWAP2 PUSH1 0x20 MUL DUP3 ADD JUMPDEST DUP3 DUP2 GT ISZERO PUSH2 0x3C3D JUMPI DUP3 CALLDATALOAD DUP3 SSTORE SWAP2 PUSH1 0x20 ADD SWAP2 SWAP1 PUSH1 0x1 ADD SWAP1 PUSH2 0x3C6D JUMP JUMPDEST DUP3 DUP1 SLOAD DUP3 DUP3 SSTORE SWAP1 PUSH1 0x0 MSTORE PUSH1 0x20 PUSH1 0x0 KECCAK256 SWAP1 DUP2 ADD SWAP3 DUP3 ISZERO PUSH2 0x3C3D JUMPI SWAP2 PUSH1 0x20 MUL DUP3 ADD JUMPDEST DUP3 DUP2 GT ISZERO PUSH2 0x3C3D JUMPI DUP3 MLOAD DUP3 SLOAD PUSH20 0xFFFFFFFFFFFFFFFFFFFFFFFFFFFFFFFFFFFFFFFF NOT AND PUSH1 0x1 PUSH1 0x1 PUSH1 0xA0 SHL SUB SWAP1 SWAP2 AND OR DUP3 SSTORE PUSH1 0x20 SWAP1 SWAP3 ADD SWAP2 PUSH1 0x1 SWAP1 SWAP2 ADD SWAP1 PUSH2 0x3CA8 JUMP JUMPDEST JUMPDEST DUP1 DUP3 GT ISZERO PUSH2 0x3C49 JUMPI PUSH1 0x0 DUP2 SSTORE PUSH1 0x1 ADD PUSH2 0x3CEB JUMP JUMPDEST DUP1 CALLDATALOAD PUSH1 0x1 PUSH1 0x1 PUSH1 0xA0 SHL SUB DUP2 AND DUP2 EQ PUSH2 0x3D16 JUMPI PUSH1 0x0 DUP1 REVERT JUMPDEST SWAP2 SWAP1 POP JUMP JUMPDEST PUSH1 0x0 DUP1 DUP4 PUSH1 0x1F DUP5 ADD SLT PUSH2 0x3D2D JUMPI PUSH1 0x0 DUP1 REVERT JUMPDEST POP DUP2 CALLDATALOAD PUSH8 0xFFFFFFFFFFFFFFFF DUP2 GT ISZERO PUSH2 0x3D45 JUMPI PUSH1 0x0 DUP1 REVERT JUMPDEST PUSH1 0x20 DUP4 ADD SWAP2 POP DUP4 PUSH1 0x20 DUP3 PUSH1 0x5 SHL DUP6 ADD ADD GT ISZERO PUSH2 0x3D60 JUMPI PUSH1 0x0 DUP1 REVERT JUMPDEST SWAP3 POP SWAP3 SWAP1 POP JUMP JUMPDEST PUSH1 0x0 DUP1 DUP4 PUSH1 0x1F DUP5 ADD SLT PUSH2 0x3D79 JUMPI PUSH1 0x0 DUP1 REVERT JUMPDEST POP DUP2 CALLDATALOAD PUSH8 0xFFFFFFFFFFFFFFFF DUP2 GT ISZERO PUSH2 0x3D91 JUMPI PUSH1 0x0 DUP1 REVERT JUMPDEST PUSH1 0x20 DUP4 ADD SWAP2 POP DUP4 PUSH1 0x20 DUP3 DUP6 ADD ADD GT ISZERO PUSH2 0x3D60 JUMPI PUSH1 0x0 DUP1 REVERT JUMPDEST PUSH1 0x0 PUSH1 0x20 DUP3 DUP5 SUB SLT ISZERO PUSH2 0x3DBB JUMPI PUSH1 0x0 DUP1 REVERT JUMPDEST PUSH2 0x199F DUP3 PUSH2 0x3CFF JUMP JUMPDEST PUSH1 0x0 DUP1 PUSH1 0x40 DUP4 DUP6 SUB SLT ISZERO PUSH2 0x3DD7 JUMPI PUSH1 0x0 DUP1 REVERT JUMPDEST PUSH2 0x3DE0 DUP4 PUSH2 0x3CFF JUMP JUMPDEST SWAP2 POP PUSH2 0x3DEE PUSH1 0x20 DUP5 ADD PUSH2 0x3CFF JUMP JUMPDEST SWAP1 POP SWAP3 POP SWAP3 SWAP1 POP JUMP JUMPDEST PUSH1 0x0 DUP1 PUSH1 0x0 PUSH1 0x60 DUP5 DUP7 SUB SLT ISZERO PUSH2 0x3E0C JUMPI PUSH1 0x0 DUP1 REVERT JUMPDEST PUSH2 0x3E15 DUP5 PUSH2 0x3CFF JUMP JUMPDEST SWAP3 POP PUSH2 0x3E23 PUSH1 0x20 DUP6 ADD PUSH2 0x3CFF JUMP JUMPDEST SWAP2 POP PUSH1 0x40 DUP5 ADD CALLDATALOAD SWAP1 POP SWAP3 POP SWAP3 POP SWAP3 JUMP JUMPDEST PUSH1 0x0 DUP1 PUSH1 0x0 DUP1 PUSH1 0x0 PUSH1 0x80 DUP7 DUP9 SUB SLT ISZERO PUSH2 0x3E4B JUMPI PUSH1 0x0 DUP1 REVERT JUMPDEST PUSH2 0x3E54 DUP7 PUSH2 0x3CFF JUMP JUMPDEST SWAP5 POP PUSH2 0x3E62 PUSH1 0x20 DUP8 ADD PUSH2 0x3CFF JUMP JUMPDEST SWAP4 POP PUSH1 0x40 DUP7 ADD CALLDATALOAD SWAP3 POP PUSH1 0x60 DUP7 ADD CALLDATALOAD PUSH8 0xFFFFFFFFFFFFFFFF DUP2 GT ISZERO PUSH2 0x3E85 JUMPI PUSH1 0x0 DUP1 REVERT JUMPDEST PUSH2 0x3E91 DUP9 DUP3 DUP10 ADD PUSH2 0x3D67 JUMP JUMPDEST SWAP7 SWAP10 SWAP6 SWAP9 POP SWAP4 SWAP7 POP SWAP3 SWAP5 SWAP4 SWAP3 POP POP POP JUMP JUMPDEST PUSH1 0x0 DUP1 PUSH1 0x40 DUP4 DUP6 SUB SLT ISZERO PUSH2 0x3EB5 JUMPI PUSH1 0x0 DUP1 REVERT JUMPDEST PUSH2 0x3EBE DUP4 PUSH2 0x3CFF JUMP JUMPDEST SWAP5 PUSH1 0x20 SWAP4 SWAP1 SWAP4 ADD CALLDATALOAD SWAP4 POP POP POP JUMP JUMPDEST PUSH1 0x0 DUP1 PUSH1 0x0 DUP1 PUSH1 0x60 DUP6 DUP8 SUB SLT ISZERO PUSH2 0x3EE2 JUMPI PUSH1 0x0 DUP1 REVERT JUMPDEST PUSH2 0x3EEB DUP6 PUSH2 0x3CFF JUMP JUMPDEST SWAP4 POP PUSH1 0x20 DUP6 ADD CALLDATALOAD SWAP3 POP PUSH1 0x40 DUP6 ADD CALLDATALOAD PUSH8 0xFFFFFFFFFFFFFFFF DUP2 GT ISZERO PUSH2 0x3F0E JUMPI PUSH1 0x0 DUP1 REVERT JUMPDEST PUSH2 0x3F1A DUP8 DUP3 DUP9 ADD PUSH2 0x3D67 JUMP JUMPDEST SWAP6 SWAP9 SWAP5 SWAP8 POP SWAP6 POP POP POP POP JUMP JUMPDEST PUSH1 0x0 DUP1 PUSH1 0x20 DUP4 DUP6 SUB SLT ISZERO PUSH2 0x3F39 JUMPI PUSH1 0x0 DUP1 REVERT JUMPDEST DUP3 CALLDATALOAD PUSH8 0xFFFFFFFFFFFFFFFF DUP2 GT ISZERO PUSH2 0x3F50 JUMPI PUSH1 0x0 DUP1 REVERT JUMPDEST PUSH2 0x3F5C DUP6 DUP3 DUP7 ADD PUSH2 0x3D1B JUMP JUMPDEST SWAP1 SWAP7 SWAP1 SWAP6 POP SWAP4 POP POP POP POP JUMP JUMPDEST PUSH1 0x0 PUSH1 0x20 DUP3 DUP5 SUB SLT ISZERO PUSH2 0x3F7A JUMPI PUSH1 0x0 DUP1 REVERT JUMPDEST DUP2 MLOAD DUP1 ISZERO ISZERO DUP2 EQ PUSH2 0x199F JUMPI PUSH1 0x0 DUP1 REVERT JUMPDEST PUSH1 0x0 PUSH1 0x20 DUP3 DUP5 SUB SLT ISZERO PUSH2 0x3F9C JUMPI PUSH1 0x0 DUP1 REVERT JUMPDEST POP CALLDATALOAD SWAP2 SWAP1 POP JUMP JUMPDEST PUSH1 0x0 DUP1 PUSH1 0x40 DUP4 DUP6 SUB SLT ISZERO PUSH2 0x3FB6 JUMPI PUSH1 0x0 DUP1 REVERT JUMPDEST DUP3 CALLDATALOAD SWAP2 POP PUSH2 0x3DEE PUSH1 0x20 DUP5 ADD PUSH2 0x3CFF JUMP JUMPDEST PUSH1 0x0 DUP1 PUSH1 0x0 PUSH1 0x60 DUP5 DUP7 SUB SLT ISZERO PUSH2 0x3FDB JUMPI PUSH1 0x0 DUP1 REVERT JUMPDEST DUP4 CALLDATALOAD SWAP3 POP PUSH2 0x3FEB PUSH1 0x20 DUP6 ADD PUSH2 0x3CFF JUMP JUMPDEST SWAP2 POP PUSH2 0x3FF9 PUSH1 0x40 DUP6 ADD PUSH2 0x3CFF JUMP JUMPDEST SWAP1 POP SWAP3 POP SWAP3 POP SWAP3 JUMP JUMPDEST PUSH1 0x0 DUP1 PUSH1 0x0 DUP1 PUSH1 0x0 DUP1 PUSH1 0x0 DUP1 PUSH1 0xC0 DUP10 DUP12 SUB SLT ISZERO PUSH2 0x401E JUMPI PUSH1 0x0 DUP1 REVERT JUMPDEST DUP9 CALLDATALOAD SWAP8 POP PUSH2 0x402E PUSH1 0x20 DUP11 ADD PUSH2 0x3CFF JUMP JUMPDEST SWAP7 POP PUSH2 0x403C PUSH1 0x40 DUP11 ADD PUSH2 0x3CFF JUMP JUMPDEST SWAP6 POP PUSH1 0x60 DUP10 ADD CALLDATALOAD SWAP5 POP PUSH1 0x80 DUP10 ADD CALLDATALOAD PUSH8 0xFFFFFFFFFFFFFFFF DUP1 DUP3 GT ISZERO PUSH2 0x4060 JUMPI PUSH1 0x0 DUP1 REVERT JUMPDEST PUSH2 0x406C DUP13 DUP4 DUP14 ADD PUSH2 0x3D67 JUMP JUMPDEST SWAP1 SWAP7 POP SWAP5 POP PUSH1 0xA0 DUP12 ADD CALLDATALOAD SWAP2 POP DUP1 DUP3 GT ISZERO PUSH2 0x4085 JUMPI PUSH1 0x0 DUP1 REVERT JUMPDEST POP PUSH2 0x4092 DUP12 DUP3 DUP13 ADD PUSH2 0x3D67 JUMP JUMPDEST SWAP10 SWAP13 SWAP9 SWAP12 POP SWAP7 SWAP10 POP SWAP5 SWAP8 SWAP4 SWAP7 SWAP3 SWAP6 SWAP5 POP POP POP JUMP JUMPDEST PUSH1 0x0 DUP1 PUSH1 0x0 PUSH1 0x60 DUP5 DUP7 SUB SLT ISZERO PUSH2 0x40BB JUMPI PUSH1 0x0 DUP1 REVERT JUMPDEST DUP4 CALLDATALOAD SWAP3 POP PUSH2 0x3E23 PUSH1 0x20 DUP6 ADD PUSH2 0x3CFF JUMP JUMPDEST PUSH1 0x0 DUP1 PUSH1 0x0 DUP1 PUSH1 0x0 PUSH1 0x80 DUP7 DUP9 SUB SLT ISZERO PUSH2 0x40E3 JUMPI PUSH1 0x0 DUP1 REVERT JUMPDEST DUP6 CALLDATALOAD SWAP5 POP PUSH2 0x3E62 PUSH1 0x20 DUP8 ADD PUSH2 0x3CFF JUMP JUMPDEST PUSH1 0x0 DUP1 PUSH1 0x0 PUSH1 0x40 DUP5 DUP7 SUB SLT ISZERO PUSH2 0x4108 JUMPI PUSH1 0x0 DUP1 REVERT JUMPDEST DUP4 CALLDATALOAD SWAP3 POP PUSH1 0x20 DUP5 ADD CALLDATALOAD PUSH8 0xFFFFFFFFFFFFFFFF DUP2 GT ISZERO PUSH2 0x4126 JUMPI PUSH1 0x0 DUP1 REVERT JUMPDEST PUSH2 0x4132 DUP7 DUP3 DUP8 ADD PUSH2 0x3D1B JUMP JUMPDEST SWAP5 SWAP8 SWAP1 SWAP7 POP SWAP4 SWAP5 POP POP POP POP JUMP JUMPDEST PUSH1 0x0 DUP1 PUSH1 0x0 DUP1 PUSH1 0x60 DUP6 DUP8 SUB SLT ISZERO PUSH2 0x4155 JUMPI PUSH1 0x0 DUP1 REVERT JUMPDEST DUP5 CALLDATALOAD SWAP4 POP PUSH1 0x20 DUP6 ADD CALLDATALOAD PUSH8 0xFFFFFFFFFFFFFFFF DUP2 GT ISZERO PUSH2 0x4173 JUMPI PUSH1 0x0 DUP1 REVERT JUMPDEST PUSH2 0x417F DUP8 DUP3 DUP9 ADD PUSH2 0x3D67 JUMP JUMPDEST SWAP6 SWAP9 SWAP1 SWAP8 POP SWAP5 SWAP6 PUSH1 0x40 ADD CALLDATALOAD SWAP5 SWAP4 POP POP POP POP JUMP JUMPDEST PUSH1 0x0 DUP1 PUSH1 0x0 DUP1 PUSH1 0x60 DUP6 DUP8 SUB SLT ISZERO PUSH2 0x41A8 JUMPI PUSH1 0x0 DUP1 REVERT JUMPDEST DUP5 CALLDATALOAD SWAP4 POP PUSH1 0x20 DUP6 ADD CALLDATALOAD SWAP3 POP PUSH1 0x40 DUP6 ADD CALLDATALOAD PUSH8 0xFFFFFFFFFFFFFFFF DUP2 GT ISZERO PUSH2 0x3F0E JUMPI PUSH1 0x0 DUP1 REVERT JUMPDEST PUSH1 0x0 PUSH1 0x20 DUP3 DUP5 SUB SLT ISZERO PUSH2 0x41DF JUMPI PUSH1 0x0 DUP1 REVERT JUMPDEST DUP2 CALLDATALOAD PUSH1 0x1 PUSH1 0x1 PUSH1 0xE0 SHL SUB NOT DUP2 AND DUP2 EQ PUSH2 0x199F JUMPI PUSH1 0x0 DUP1 REVERT JUMPDEST PUSH1 0x0 DUP1 PUSH1 0x0 PUSH1 0x40 DUP5 DUP7 SUB SLT ISZERO PUSH2 0x420C JUMPI PUSH1 0x0 DUP1 REVERT JUMPDEST DUP4 CALLDATALOAD SWAP3 POP PUSH1 0x20 DUP5 ADD CALLDATALOAD PUSH8 0xFFFFFFFFFFFFFFFF DUP2 GT ISZERO PUSH2 0x422A JUMPI PUSH1 0x0 DUP1 REVERT JUMPDEST PUSH2 0x4132 DUP7 DUP3 DUP8 ADD PUSH2 0x3D67 JUMP JUMPDEST PUSH1 0x0 DUP2 MLOAD DUP1 DUP5 MSTORE PUSH2 0x424E DUP2 PUSH1 0x20 DUP7 ADD PUSH1 0x20 DUP7 ADD PUSH2 0x44CC JUMP JUMPDEST PUSH1 0x1F ADD PUSH1 0x1F NOT AND SWAP3 SWAP1 SWAP3 ADD PUSH1 0x20 ADD SWAP3 SWAP2 POP POP JUMP JUMPDEST PUSH32 0x416363657373436F6E74726F6C3A206163636F756E7420000000000000000000 DUP2 MSTORE PUSH1 0x0 DUP4 MLOAD PUSH2 0x429A DUP2 PUSH1 0x17 DUP6 ADD PUSH1 0x20 DUP9 ADD PUSH2 0x44CC JUMP JUMPDEST PUSH32 0x206973206D697373696E6720726F6C6520000000000000000000000000000000 PUSH1 0x17 SWAP2 DUP5 ADD SWAP2 DUP3 ADD MSTORE DUP4 MLOAD PUSH2 0x42D7 DUP2 PUSH1 0x28 DUP5 ADD PUSH1 0x20 DUP9 ADD PUSH2 0x44CC JUMP JUMPDEST ADD PUSH1 0x28 ADD SWAP5 SWAP4 POP POP POP POP JUMP JUMPDEST PUSH1 0x1 PUSH1 0x1 PUSH1 0xA0 SHL SUB DUP6 AND DUP2 MSTORE DUP4 PUSH1 0x20 DUP3 ADD MSTORE PUSH1 0x80 PUSH1 0x40 DUP3 ADD MSTORE PUSH1 0x0 PUSH2 0x430B PUSH1 0x80 DUP4 ADD DUP6 PUSH2 0x4236 JUMP JUMPDEST DUP3 DUP2 SUB PUSH1 0x60 DUP5 ADD MSTORE PUSH2 0x2BD4 DUP2 DUP6 PUSH2 0x4236 JUMP JUMPDEST PUSH1 0x20 DUP1 DUP3 MSTORE DUP3 MLOAD DUP3 DUP3 ADD DUP2 SWAP1 MSTORE PUSH1 0x0 SWAP2 SWAP1 DUP5 DUP3 ADD SWAP1 PUSH1 0x40 DUP6 ADD SWAP1 DUP5 JUMPDEST DUP2 DUP2 LT ISZERO PUSH2 0x435E JUMPI DUP4 MLOAD PUSH1 0x1 PUSH1 0x1 PUSH1 0xA0 SHL SUB AND DUP4 MSTORE SWAP3 DUP5 ADD SWAP3 SWAP2 DUP5 ADD SWAP2 PUSH1 0x1 ADD PUSH2 0x4339 JUMP JUMPDEST POP SWAP1 SWAP7 SWAP6 POP POP POP POP POP POP JUMP JUMPDEST PUSH1 0x20 DUP1 DUP3 MSTORE DUP3 MLOAD DUP3 DUP3 ADD DUP2 SWAP1 MSTORE PUSH1 0x0 SWAP2 SWAP1 DUP5 DUP3 ADD SWAP1 PUSH1 0x40 DUP6 ADD SWAP1 DUP5 JUMPDEST DUP2 DUP2 LT ISZERO PUSH2 0x435E JUMPI DUP4 MLOAD DUP4 MSTORE SWAP3 DUP5 ADD SWAP3 SWAP2 DUP5 ADD SWAP2 PUSH1 0x1 ADD PUSH2 0x4386 JUMP JUMPDEST PUSH1 0x40 DUP2 MSTORE DUP3 PUSH1 0x40 DUP3 ADD MSTORE DUP3 DUP5 PUSH1 0x60 DUP4 ADD CALLDATACOPY PUSH1 0x0 PUSH1 0x60 DUP5 DUP4 ADD ADD MSTORE PUSH1 0x0 PUSH1 0x60 PUSH1 0x1F NOT PUSH1 0x1F DUP7 ADD AND DUP4 ADD ADD SWAP1 POP DUP3 PUSH1 0x20 DUP4 ADD MSTORE SWAP5 SWAP4 POP POP POP POP JUMP JUMPDEST PUSH1 0x20 DUP2 MSTORE PUSH1 0x0 PUSH2 0x199F PUSH1 0x20 DUP4 ADD DUP5 PUSH2 0x4236 JUMP JUMPDEST PUSH1 0x40 DUP2 MSTORE PUSH1 0x0 PUSH2 0x4401 PUSH1 0x40 DUP4 ADD DUP6 PUSH2 0x4236 JUMP JUMPDEST SWAP1 POP DUP3 PUSH1 0x20 DUP4 ADD MSTORE SWAP4 SWAP3 POP POP POP JUMP JUMPDEST DUP3 DUP2 MSTORE PUSH1 0x40 PUSH1 0x20 DUP3 ADD MSTORE PUSH1 0x0 PUSH2 0x12D1 PUSH1 0x40 DUP4 ADD DUP5 PUSH2 0x4236 JUMP JUMPDEST DUP3 DUP2 MSTORE PUSH1 0x60 PUSH1 0x20 DUP3 ADD MSTORE PUSH1 0x0 PUSH2 0x4442 PUSH1 0x60 DUP4 ADD DUP5 PUSH2 0x4236 JUMP JUMPDEST DUP3 DUP2 SUB PUSH1 0x40 DUP5 ADD MSTORE PUSH1 0x0 DUP2 MSTORE PUSH1 0x20 DUP2 ADD SWAP2 POP POP SWAP4 SWAP3 POP POP POP JUMP JUMPDEST PUSH1 0x0 DUP3 NOT DUP3 GT ISZERO PUSH2 0x446F JUMPI PUSH2 0x446F PUSH2 0x4565 JUMP JUMPDEST POP ADD SWAP1 JUMP JUMPDEST PUSH1 0x0 DUP3 PUSH2 0x4491 JUMPI PUSH4 0x4E487B71 PUSH1 0xE0 SHL PUSH1 0x0 MSTORE PUSH1 0x12 PUSH1 0x4 MSTORE PUSH1 0x24 PUSH1 0x0 REVERT JUMPDEST POP DIV SWAP1 JUMP JUMPDEST PUSH1 0x0 DUP2 PUSH1 0x0 NOT DIV DUP4 GT DUP3 ISZERO ISZERO AND ISZERO PUSH2 0x44B0 JUMPI PUSH2 0x44B0 PUSH2 0x4565 JUMP JUMPDEST POP MUL SWAP1 JUMP JUMPDEST PUSH1 0x0 DUP3 DUP3 LT ISZERO PUSH2 0x44C7 JUMPI PUSH2 0x44C7 PUSH2 0x4565 JUMP JUMPDEST POP SUB SWAP1 JUMP JUMPDEST PUSH1 0x0 JUMPDEST DUP4 DUP2 LT ISZERO PUSH2 0x44E7 JUMPI DUP2 DUP2 ADD MLOAD DUP4 DUP3 ADD MSTORE PUSH1 0x20 ADD PUSH2 0x44CF JUMP JUMPDEST DUP4 DUP2 GT ISZERO PUSH2 0xFC9 JUMPI POP POP PUSH1 0x0 SWAP2 ADD MSTORE JUMP JUMPDEST PUSH1 0x0 DUP2 PUSH2 0x4507 JUMPI PUSH2 0x4507 PUSH2 0x4565 JUMP JUMPDEST POP PUSH1 0x0 NOT ADD SWAP1 JUMP JUMPDEST PUSH1 0x1 DUP2 DUP2 SHR SWAP1 DUP3 AND DUP1 PUSH2 0x4523 JUMPI PUSH1 0x7F DUP3 AND SWAP2 POP JUMPDEST PUSH1 0x20 DUP3 LT DUP2 EQ ISZERO PUSH2 0x4544 JUMPI PUSH4 0x4E487B71 PUSH1 0xE0 SHL PUSH1 0x0 MSTORE PUSH1 0x22 PUSH1 0x4 MSTORE PUSH1 0x24 PUSH1 0x0 REVERT JUMPDEST POP SWAP2 SWAP1 POP JUMP JUMPDEST PUSH1 0x0 PUSH1 0x0 NOT DUP3 EQ ISZERO PUSH2 0x455E JUMPI PUSH2 0x455E PUSH2 0x4565 JUMP JUMPDEST POP PUSH1 0x1 ADD SWAP1 JUMP JUMPDEST PUSH4 0x4E487B71 PUSH1 0xE0 SHL PUSH1 0x0 MSTORE PUSH1 0x11 PUSH1 0x4 MSTORE PUSH1 0x24 PUSH1 0x0 REVERT JUMPDEST PUSH4 0x4E487B71 PUSH1 0xE0 SHL PUSH1 0x0 MSTORE PUSH1 0x32 PUSH1 0x4 MSTORE PUSH1 0x24 PUSH1 0x0 REVERT JUMPDEST PUSH4 0x4E487B71 PUSH1 0xE0 SHL PUSH1 0x0 MSTORE PUSH1 0x41 PUSH1 0x4 MSTORE PUSH1 0x24 PUSH1 0x0 REVERT INVALID LOG2 PUSH5 0x6970667358 0x22 SLT KECCAK256 0x49 SWAP16 CALLDATALOAD DUP15 0xD4 0xFC 0x5E SWAP2 DUP2 0xA9 PUSH13 0xEC47D3C7D880B0D58D78D04B7B 0xF8 DUP9 CALLVALUE CREATE MSTORE8 DUP10 BLOCKHASH PUSH28 0x64736F6C634300080700330000000000000000000000000000000000 ",
  "sha1": "fd803668a1979ab269cdf1049a03b32a09edb13a",
  "source": "pragma solidity ^0.8.0;\n\nimport \"./ERC1400.sol\";\nimport \"OpenZeppelin/openzeppelin-contracts@4.3.0/contracts/security/Pausable.sol\";\nimport \"./SellerRole.sol\";\n\ncontract PausableERC1400 is ERC1400, Pausable, SellerRole {\n    \n    constructor(\n    string memory name,\n    string memory symbol,\n    uint256 granularity,\n    address[] memory controllers,\n    bytes32[] memory defaultPartitions,\n    address _whitelist\n  ) ERC1400(name, symbol, granularity, controllers, defaultPartitions, _whitelist) {  \n    _pause();\n  }\n\n    function _transferByPartition(\n    bytes32 fromPartition,\n    address operator,\n    address from,\n    address to,\n    uint256 value,\n    bytes memory data,\n    bytes memory operatorData\n  ) internal virtual override returns (bytes32) {\n      super._transferByPartition(fromPartition,operator,from,to,value,data,operatorData);\n    require(!paused(), \"ERC1400Pausable: token transfer while paused\");\n  }\n\n  function unpause() external onlySeller {\n    _unpause();\n  }\n}",
  "sourcePath": "contracts/PausableERC1400.sol",
  "type": "contract"
}